{
  "contractName": "Accessory",
  "abi": [
    {
      "inputs": [
        {
          "internalType": "uint256[]",
          "name": "_clazzes",
          "type": "uint256[]"
        },
        {
          "internalType": "uint256[]",
          "name": "_amounts",
          "type": "uint256[]"
        }
      ],
      "stateMutability": "nonpayable",
      "type": "constructor"
    },
    {
      "anonymous": false,
      "inputs": [
        {
          "indexed": true,
          "internalType": "address",
          "name": "account",
          "type": "address"
        },
        {
          "indexed": true,
          "internalType": "address",
          "name": "operator",
          "type": "address"
        },
        {
          "indexed": false,
          "internalType": "bool",
          "name": "approved",
          "type": "bool"
        }
      ],
      "name": "ApprovalForAll",
      "type": "event"
    },
    {
      "anonymous": false,
      "inputs": [
        {
          "indexed": true,
          "internalType": "address",
          "name": "previousOwner",
          "type": "address"
        },
        {
          "indexed": true,
          "internalType": "address",
          "name": "newOwner",
          "type": "address"
        }
      ],
      "name": "OwnershipTransferred",
      "type": "event"
    },
    {
      "anonymous": false,
      "inputs": [
        {
          "indexed": false,
          "internalType": "address",
          "name": "account",
          "type": "address"
        }
      ],
      "name": "Paused",
      "type": "event"
    },
    {
      "anonymous": false,
      "inputs": [
        {
          "indexed": true,
          "internalType": "address",
          "name": "operator",
          "type": "address"
        },
        {
          "indexed": true,
          "internalType": "address",
          "name": "from",
          "type": "address"
        },
        {
          "indexed": true,
          "internalType": "address",
          "name": "to",
          "type": "address"
        },
        {
          "indexed": false,
          "internalType": "uint256[]",
          "name": "ids",
          "type": "uint256[]"
        },
        {
          "indexed": false,
          "internalType": "uint256[]",
          "name": "values",
          "type": "uint256[]"
        }
      ],
      "name": "TransferBatch",
      "type": "event"
    },
    {
      "anonymous": false,
      "inputs": [
        {
          "indexed": true,
          "internalType": "address",
          "name": "operator",
          "type": "address"
        },
        {
          "indexed": true,
          "internalType": "address",
          "name": "from",
          "type": "address"
        },
        {
          "indexed": true,
          "internalType": "address",
          "name": "to",
          "type": "address"
        },
        {
          "indexed": false,
          "internalType": "uint256",
          "name": "id",
          "type": "uint256"
        },
        {
          "indexed": false,
          "internalType": "uint256",
          "name": "value",
          "type": "uint256"
        }
      ],
      "name": "TransferSingle",
      "type": "event"
    },
    {
      "anonymous": false,
      "inputs": [
        {
          "indexed": false,
          "internalType": "string",
          "name": "value",
          "type": "string"
        },
        {
          "indexed": true,
          "internalType": "uint256",
          "name": "id",
          "type": "uint256"
        }
      ],
      "name": "URI",
      "type": "event"
    },
    {
      "anonymous": false,
      "inputs": [
        {
          "indexed": false,
          "internalType": "address",
          "name": "account",
          "type": "address"
        }
      ],
      "name": "Unpaused",
      "type": "event"
    },
    {
      "inputs": [],
      "name": "CLASS_LAZER",
      "outputs": [
        {
          "internalType": "uint256",
          "name": "",
          "type": "uint256"
        }
      ],
      "stateMutability": "view",
      "type": "function",
      "constant": true
    },
    {
      "inputs": [],
      "name": "CLASS_SAW",
      "outputs": [
        {
          "internalType": "uint256",
          "name": "",
          "type": "uint256"
        }
      ],
      "stateMutability": "view",
      "type": "function",
      "constant": true
    },
    {
      "inputs": [],
      "name": "CLASS_SWORD",
      "outputs": [
        {
          "internalType": "uint256",
          "name": "",
          "type": "uint256"
        }
      ],
      "stateMutability": "view",
      "type": "function",
      "constant": true
    },
    {
      "inputs": [],
      "name": "CLASS_WRENCH",
      "outputs": [
        {
          "internalType": "uint256",
          "name": "",
          "type": "uint256"
        }
      ],
      "stateMutability": "view",
      "type": "function",
      "constant": true
    },
    {
      "inputs": [
        {
          "internalType": "address",
          "name": "account",
          "type": "address"
        },
        {
          "internalType": "uint256",
          "name": "id",
          "type": "uint256"
        }
      ],
      "name": "balanceOf",
      "outputs": [
        {
          "internalType": "uint256",
          "name": "",
          "type": "uint256"
        }
      ],
      "stateMutability": "view",
      "type": "function",
      "constant": true
    },
    {
      "inputs": [
        {
          "internalType": "address[]",
          "name": "accounts",
          "type": "address[]"
        },
        {
          "internalType": "uint256[]",
          "name": "ids",
          "type": "uint256[]"
        }
      ],
      "name": "balanceOfBatch",
      "outputs": [
        {
          "internalType": "uint256[]",
          "name": "",
          "type": "uint256[]"
        }
      ],
      "stateMutability": "view",
      "type": "function",
      "constant": true
    },
    {
      "inputs": [
        {
          "internalType": "address",
          "name": "account",
          "type": "address"
        },
        {
          "internalType": "uint256",
          "name": "id",
          "type": "uint256"
        },
        {
          "internalType": "uint256",
          "name": "value",
          "type": "uint256"
        }
      ],
      "name": "burn",
      "outputs": [],
      "stateMutability": "nonpayable",
      "type": "function"
    },
    {
      "inputs": [
        {
          "internalType": "address",
          "name": "account",
          "type": "address"
        },
        {
          "internalType": "uint256[]",
          "name": "ids",
          "type": "uint256[]"
        },
        {
          "internalType": "uint256[]",
          "name": "values",
          "type": "uint256[]"
        }
      ],
      "name": "burnBatch",
      "outputs": [],
      "stateMutability": "nonpayable",
      "type": "function"
    },
    {
      "inputs": [
        {
          "internalType": "address",
          "name": "account",
          "type": "address"
        },
        {
          "internalType": "address",
          "name": "operator",
          "type": "address"
        }
      ],
      "name": "isApprovedForAll",
      "outputs": [
        {
          "internalType": "bool",
          "name": "",
          "type": "bool"
        }
      ],
      "stateMutability": "view",
      "type": "function",
      "constant": true
    },
    {
      "inputs": [],
      "name": "owner",
      "outputs": [
        {
          "internalType": "address",
          "name": "",
          "type": "address"
        }
      ],
      "stateMutability": "view",
      "type": "function",
      "constant": true
    },
    {
      "inputs": [],
      "name": "paused",
      "outputs": [
        {
          "internalType": "bool",
          "name": "",
          "type": "bool"
        }
      ],
      "stateMutability": "view",
      "type": "function",
      "constant": true
    },
    {
      "inputs": [],
      "name": "renounceOwnership",
      "outputs": [],
      "stateMutability": "nonpayable",
      "type": "function"
    },
    {
      "inputs": [
        {
          "internalType": "address",
          "name": "from",
          "type": "address"
        },
        {
          "internalType": "address",
          "name": "to",
          "type": "address"
        },
        {
          "internalType": "uint256[]",
          "name": "ids",
          "type": "uint256[]"
        },
        {
          "internalType": "uint256[]",
          "name": "amounts",
          "type": "uint256[]"
        },
        {
          "internalType": "bytes",
          "name": "data",
          "type": "bytes"
        }
      ],
      "name": "safeBatchTransferFrom",
      "outputs": [],
      "stateMutability": "nonpayable",
      "type": "function"
    },
    {
      "inputs": [
        {
          "internalType": "address",
          "name": "from",
          "type": "address"
        },
        {
          "internalType": "address",
          "name": "to",
          "type": "address"
        },
        {
          "internalType": "uint256",
          "name": "id",
          "type": "uint256"
        },
        {
          "internalType": "uint256",
          "name": "amount",
          "type": "uint256"
        },
        {
          "internalType": "bytes",
          "name": "data",
          "type": "bytes"
        }
      ],
      "name": "safeTransferFrom",
      "outputs": [],
      "stateMutability": "nonpayable",
      "type": "function"
    },
    {
      "inputs": [
        {
          "internalType": "address",
          "name": "operator",
          "type": "address"
        },
        {
          "internalType": "bool",
          "name": "approved",
          "type": "bool"
        }
      ],
      "name": "setApprovalForAll",
      "outputs": [],
      "stateMutability": "nonpayable",
      "type": "function"
    },
    {
      "inputs": [
        {
          "internalType": "bytes4",
          "name": "interfaceId",
          "type": "bytes4"
        }
      ],
      "name": "supportsInterface",
      "outputs": [
        {
          "internalType": "bool",
          "name": "",
          "type": "bool"
        }
      ],
      "stateMutability": "view",
      "type": "function",
      "constant": true
    },
    {
      "inputs": [
        {
          "internalType": "address",
          "name": "newOwner",
          "type": "address"
        }
      ],
      "name": "transferOwnership",
      "outputs": [],
      "stateMutability": "nonpayable",
      "type": "function"
    },
    {
      "inputs": [
        {
          "internalType": "uint256",
          "name": "",
          "type": "uint256"
        }
      ],
      "name": "uri",
      "outputs": [
        {
          "internalType": "string",
          "name": "",
          "type": "string"
        }
      ],
      "stateMutability": "view",
      "type": "function",
      "constant": true
    },
    {
      "inputs": [
        {
          "internalType": "string",
          "name": "newuri",
          "type": "string"
        }
      ],
      "name": "setURI",
      "outputs": [],
      "stateMutability": "nonpayable",
      "type": "function"
    },
    {
      "inputs": [],
      "name": "pause",
      "outputs": [],
      "stateMutability": "nonpayable",
      "type": "function"
    },
    {
      "inputs": [],
      "name": "unpause",
      "outputs": [],
      "stateMutability": "nonpayable",
      "type": "function"
    },
    {
      "inputs": [
        {
          "internalType": "uint256",
          "name": "_clazz",
          "type": "uint256"
        },
        {
          "internalType": "bytes",
          "name": "_data",
          "type": "bytes"
        }
      ],
      "name": "mintAccessory",
      "outputs": [],
      "stateMutability": "nonpayable",
      "type": "function"
    },
    {
      "inputs": [
        {
          "internalType": "uint256[]",
          "name": "_ids",
          "type": "uint256[]"
        },
        {
          "internalType": "uint256[]",
          "name": "_amounts",
          "type": "uint256[]"
        },
        {
          "internalType": "bytes",
          "name": "_data",
          "type": "bytes"
        }
      ],
      "name": "mintBatchAccessories",
      "outputs": [],
      "stateMutability": "nonpayable",
      "type": "function"
    }
  ],
  "bytecode": "0x608060405263616bc0a560045567011c37937e0800006005553480156200002557600080fd5b50604051620058e6380380620058e683398181016040528101906200004b919062000ad5565b6040518060a00160405280606c81526020016200587a606c913962000076816200010260201b60201c565b50620000976200008b6200011e60201b60201c565b6200012660201b60201c565b6000600360146101000a81548160ff021916908315150217905550620000fa82826040518060400160405280600581526020017f3078303030000000000000000000000000000000000000000000000000000000815250620001ec60201b60201c565b505062001549565b80600290805190602001906200011a92919062000955565b5050565b600033905090565b6000600360009054906101000a900473ffffffffffffffffffffffffffffffffffffffff16905081600360006101000a81548173ffffffffffffffffffffffffffffffffffffffff021916908373ffffffffffffffffffffffffffffffffffffffff1602179055508173ffffffffffffffffffffffffffffffffffffffff168173ffffffffffffffffffffffffffffffffffffffff167f8be0079c531659141344cd1fd0a4f28419497f9722a3daafe3b4186f6b6457e060405160405180910390a35050565b620001fc620003e760201b60201c565b156200023f576040517f08c379a0000000000000000000000000000000000000000000000000000000008152600401620002369062000ec2565b60405180910390fd5b6200024f6200011e60201b60201c565b73ffffffffffffffffffffffffffffffffffffffff1662000275620003fe60201b60201c565b73ffffffffffffffffffffffffffffffffffffffff1614620002ce576040517f08c379a0000000000000000000000000000000000000000000000000000000008152600401620002c59062000f06565b60405180910390fd5b60008351905060005b81811015620003cc5760008582815181106200031c577f4e487b7100000000000000000000000000000000000000000000000000000000600052603260045260246000fd5b6020026020010151118015620003745750600485828151811062000369577f4e487b7100000000000000000000000000000000000000000000000000000000600052603260045260246000fd5b602002602001015111155b620003b6576040517f08c379a0000000000000000000000000000000000000000000000000000000008152600401620003ad9062000ee4565b60405180910390fd5b8080620003c3906200119e565b915050620002d7565b50620003e1338585856200042860201b60201c565b50505050565b6000600360149054906101000a900460ff16905090565b6000600360009054906101000a900473ffffffffffffffffffffffffffffffffffffffff16905090565b600073ffffffffffffffffffffffffffffffffffffffff168473ffffffffffffffffffffffffffffffffffffffff1614156200049b576040517f08c379a0000000000000000000000000000000000000000000000000000000008152600401620004929062000f4a565b60405180910390fd5b8151835114620004e2576040517f08c379a0000000000000000000000000000000000000000000000000000000008152600401620004d99062000f28565b60405180910390fd5b6000620004f46200011e60201b60201c565b90506200050d81600087878787620006ba60201b60201c565b60005b84518110156200061a5783818151811062000554577f4e487b7100000000000000000000000000000000000000000000000000000000600052603260045260246000fd5b602002602001015160008087848151811062000599577f4e487b7100000000000000000000000000000000000000000000000000000000600052603260045260246000fd5b6020026020010151815260200190815260200160002060008873ffffffffffffffffffffffffffffffffffffffff1673ffffffffffffffffffffffffffffffffffffffff1681526020019081526020016000206000828254620005fd919062001035565b92505081905550808062000611906200119e565b91505062000510565b508473ffffffffffffffffffffffffffffffffffffffff16600073ffffffffffffffffffffffffffffffffffffffff168273ffffffffffffffffffffffffffffffffffffffff167f4a39dc06d4c0dbc64b70af90fd698a233a518aa5d07e595d983b8c0526c8f7fb87876040516200069492919062000e1f565b60405180910390a4620006b3816000878787876200073060201b60201c565b5050505050565b620006ca620003e760201b60201c565b156200070d576040517f08c379a0000000000000000000000000000000000000000000000000000000008152600401620007049062000ec2565b60405180910390fd5b620007288686868686866200093a60201b620012e91760201c565b505050505050565b6200075c8473ffffffffffffffffffffffffffffffffffffffff166200094260201b620012f11760201c565b1562000932578373ffffffffffffffffffffffffffffffffffffffff1663bc197c8187878686866040518663ffffffff1660e01b8152600401620007a595949392919062000dad565b602060405180830381600087803b158015620007c057600080fd5b505af1925050508015620007f457506040513d601f19601f82011682018060405250810190620007f1919062000b48565b60015b620008a6576200080362001279565b806308c379a014156200086757506200081b62001473565b8062000828575062000869565b806040517f08c379a00000000000000000000000000000000000000000000000000000000081526004016200085e919062000e5a565b60405180910390fd5b505b6040517f08c379a00000000000000000000000000000000000000000000000000000000081526004016200089d9062000e7e565b60405180910390fd5b63bc197c8160e01b7bffffffffffffffffffffffffffffffffffffffffffffffffffffffff1916817bffffffffffffffffffffffffffffffffffffffffffffffffffffffff19161462000930576040517f08c379a0000000000000000000000000000000000000000000000000000000008152600401620009279062000ea0565b60405180910390fd5b505b505050505050565b505050505050565b600080823b905060008111915050919050565b828054620009639062001132565b90600052602060002090601f016020900481019282620009875760008555620009d3565b82601f10620009a257805160ff1916838001178555620009d3565b82800160010185558215620009d3579182015b82811115620009d2578251825591602001919060010190620009b5565b5b509050620009e29190620009e6565b5090565b5b8082111562000a01576000816000905550600101620009e7565b5090565b600062000a1c62000a168462000f95565b62000f6c565b9050808382526020820190508285602086028201111562000a3c57600080fd5b60005b8581101562000a70578162000a55888262000abe565b84526020840193506020830192505060018101905062000a3f565b5050509392505050565b600082601f83011262000a8c57600080fd5b815162000a9e84826020860162000a05565b91505092915050565b60008151905062000ab88162001515565b92915050565b60008151905062000acf816200152f565b92915050565b6000806040838503121562000ae957600080fd5b600083015167ffffffffffffffff81111562000b0457600080fd5b62000b128582860162000a7a565b925050602083015167ffffffffffffffff81111562000b3057600080fd5b62000b3e8582860162000a7a565b9150509250929050565b60006020828403121562000b5b57600080fd5b600062000b6b8482850162000aa7565b91505092915050565b600062000b82838362000d9c565b60208301905092915050565b62000b998162001092565b82525050565b600062000bac8262000fd4565b62000bb8818562001002565b935062000bc58362000fc4565b8060005b8381101562000bfc57815162000be0888262000b74565b975062000bed8362000ff5565b92505060018101905062000bc9565b5085935050505092915050565b600062000c168262000fdf565b62000c22818562001013565b935062000c34818560208601620010fc565b62000c3f816200129e565b840191505092915050565b600062000c578262000fea565b62000c63818562001024565b935062000c75818560208601620010fc565b62000c80816200129e565b840191505092915050565b600062000c9a60348362001024565b915062000ca782620012bc565b604082019050919050565b600062000cc160288362001024565b915062000cce826200130b565b604082019050919050565b600062000ce860108362001024565b915062000cf5826200135a565b602082019050919050565b600062000d0f60198362001024565b915062000d1c8262001383565b602082019050919050565b600062000d3660208362001024565b915062000d4382620013ac565b602082019050919050565b600062000d5d60288362001024565b915062000d6a82620013d5565b604082019050919050565b600062000d8460218362001024565b915062000d918262001424565b604082019050919050565b62000da781620010f2565b82525050565b600060a08201905062000dc4600083018862000b8e565b62000dd3602083018762000b8e565b818103604083015262000de7818662000b9f565b9050818103606083015262000dfd818562000b9f565b9050818103608083015262000e13818462000c09565b90509695505050505050565b6000604082019050818103600083015262000e3b818562000b9f565b9050818103602083015262000e51818462000b9f565b90509392505050565b6000602082019050818103600083015262000e76818462000c4a565b905092915050565b6000602082019050818103600083015262000e998162000c8b565b9050919050565b6000602082019050818103600083015262000ebb8162000cb2565b9050919050565b6000602082019050818103600083015262000edd8162000cd9565b9050919050565b6000602082019050818103600083015262000eff8162000d00565b9050919050565b6000602082019050818103600083015262000f218162000d27565b9050919050565b6000602082019050818103600083015262000f438162000d4e565b9050919050565b6000602082019050818103600083015262000f658162000d75565b9050919050565b600062000f7862000f8b565b905062000f86828262001168565b919050565b6000604051905090565b600067ffffffffffffffff82111562000fb35762000fb26200124a565b5b602082029050602081019050919050565b6000819050602082019050919050565b600081519050919050565b600081519050919050565b600081519050919050565b6000602082019050919050565b600082825260208201905092915050565b600082825260208201905092915050565b600082825260208201905092915050565b60006200104282620010f2565b91506200104f83620010f2565b9250827fffffffffffffffffffffffffffffffffffffffffffffffffffffffffffffffff03821115620010875762001086620011ec565b5b828201905092915050565b60006200109f82620010d2565b9050919050565b60007fffffffff0000000000000000000000000000000000000000000000000000000082169050919050565b600073ffffffffffffffffffffffffffffffffffffffff82169050919050565b6000819050919050565b60005b838110156200111c578082015181840152602081019050620010ff565b838111156200112c576000848401525b50505050565b600060028204905060018216806200114b57607f821691505b602082108114156200116257620011616200121b565b5b50919050565b62001173826200129e565b810181811067ffffffffffffffff821117156200119557620011946200124a565b5b80604052505050565b6000620011ab82620010f2565b91507fffffffffffffffffffffffffffffffffffffffffffffffffffffffffffffffff821415620011e157620011e0620011ec565b5b600182019050919050565b7f4e487b7100000000000000000000000000000000000000000000000000000000600052601160045260246000fd5b7f4e487b7100000000000000000000000000000000000000000000000000000000600052602260045260246000fd5b7f4e487b7100000000000000000000000000000000000000000000000000000000600052604160045260246000fd5b600060033d11156200129b5760046000803e62001298600051620012af565b90505b90565b6000601f19601f8301169050919050565b60008160e01c9050919050565b7f455243313135353a207472616e7366657220746f206e6f6e204552433131353560008201527f526563656976657220696d706c656d656e746572000000000000000000000000602082015250565b7f455243313135353a204552433131353552656365697665722072656a6563746560008201527f6420746f6b656e73000000000000000000000000000000000000000000000000602082015250565b7f5061757361626c653a2070617573656400000000000000000000000000000000600082015250565b7f4163636573736f727920646f6573206e6f742065786973742e00000000000000600082015250565b7f4f776e61626c653a2063616c6c6572206973206e6f7420746865206f776e6572600082015250565b7f455243313135353a2069647320616e6420616d6f756e7473206c656e6774682060008201527f6d69736d61746368000000000000000000000000000000000000000000000000602082015250565b7f455243313135353a206d696e7420746f20746865207a65726f2061646472657360008201527f7300000000000000000000000000000000000000000000000000000000000000602082015250565b600060443d1015620014855762001512565b6200148f62000f8b565b60043d036004823e80513d602482011167ffffffffffffffff82111715620014b957505062001512565b808201805167ffffffffffffffff811115620014d9575050505062001512565b80602083010160043d038501811115620014f857505050505062001512565b620015098260200185018662001168565b82955050505050505b90565b6200152081620010a6565b81146200152c57600080fd5b50565b6200153a81620010f2565b81146200154657600080fd5b50565b61432180620015596000396000f3fe608060405234801561001057600080fd5b506004361061014c5760003560e01c8063715018a6116100c3578063d0512d101161007c578063d0512d1014610353578063e985e9c51461036f578063eb3b578d1461039f578063f242432a146103bb578063f2fde38b146103d7578063f5298aca146103f35761014c565b8063715018a6146102c95780638456cb59146102d35780638da5cb5b146102dd5780639c6c8ae0146102fb578063a22cb46514610319578063cb0de864146103355761014c565b80632eb2c2d6116101155780632eb2c2d61461021b578063398f6d80146102375780633f4ba83a146102555780634e1273f41461025f5780635c975abb1461028f5780636b20c454146102ad5761014c565b8062fdd58e1461015157806301ffc9a71461018157806302fe5305146101b15780630cd74b63146101cd5780630e89341c146101eb575b600080fd5b61016b60048036038101906101669190612eff565b61040f565b60405161017891906138ea565b60405180910390f35b61019b6004803603810190610196919061308d565b6104d8565b6040516101a8919061366d565b60405180910390f35b6101cb60048036038101906101c691906130df565b6105ba565b005b6101d5610642565b6040516101e291906138ea565b60405180910390f35b61020560048036038101906102009190613120565b610647565b6040516102129190613688565b60405180910390f35b61023560048036038101906102309190612cf6565b6106db565b005b61023f61077c565b60405161024c91906138ea565b60405180910390f35b61025d610781565b005b61027960048036038101906102749190612f8a565b610807565b6040516102869190613614565b60405180910390f35b6102976109b8565b6040516102a4919061366d565b60405180910390f35b6102c760048036038101906102c29190612e44565b6109cf565b005b6102d1610a6c565b005b6102db610af4565b005b6102e5610b7a565b6040516102f29190613537565b60405180910390f35b610303610ba4565b60405161031091906138ea565b60405180910390f35b610333600480360381019061032e9190612ec3565b610ba9565b005b61033d610d2a565b60405161034a91906138ea565b60405180910390f35b61036d60048036038101906103689190612ff6565b610d2f565b005b61038960048036038101906103849190612cba565b610efa565b604051610396919061366d565b60405180910390f35b6103b960048036038101906103b49190613149565b610f8e565b005b6103d560048036038101906103d09190612db5565b6110b3565b005b6103f160048036038101906103ec9190612c91565b611154565b005b61040d60048036038101906104089190612f3b565b61124c565b005b60008073ffffffffffffffffffffffffffffffffffffffff168373ffffffffffffffffffffffffffffffffffffffff161415610480576040517f08c379a00000000000000000000000000000000000000000000000000000000081526004016104779061370a565b60405180910390fd5b60008083815260200190815260200160002060008473ffffffffffffffffffffffffffffffffffffffff1673ffffffffffffffffffffffffffffffffffffffff16815260200190815260200160002054905092915050565b60007fd9b67a26000000000000000000000000000000000000000000000000000000007bffffffffffffffffffffffffffffffffffffffffffffffffffffffff1916827bffffffffffffffffffffffffffffffffffffffffffffffffffffffff191614806105a357507f0e89341c000000000000000000000000000000000000000000000000000000007bffffffffffffffffffffffffffffffffffffffffffffffffffffffff1916827bffffffffffffffffffffffffffffffffffffffffffffffffffffffff1916145b806105b357506105b282611304565b5b9050919050565b6105c261136e565b73ffffffffffffffffffffffffffffffffffffffff166105e0610b7a565b73ffffffffffffffffffffffffffffffffffffffff1614610636576040517f08c379a000000000000000000000000000000000000000000000000000000000815260040161062d9061384a565b60405180910390fd5b61063f81611376565b50565b600481565b60606002805461065690613b8a565b80601f016020809104026020016040519081016040528092919081815260200182805461068290613b8a565b80156106cf5780601f106106a4576101008083540402835291602001916106cf565b820191906000526020600020905b8154815290600101906020018083116106b257829003601f168201915b50505050509050919050565b6106e361136e565b73ffffffffffffffffffffffffffffffffffffffff168573ffffffffffffffffffffffffffffffffffffffff16148061072957506107288561072361136e565b610efa565b5b610768576040517f08c379a000000000000000000000000000000000000000000000000000000000815260040161075f906137ca565b60405180910390fd5b6107758585858585611390565b5050505050565b600281565b61078961136e565b73ffffffffffffffffffffffffffffffffffffffff166107a7610b7a565b73ffffffffffffffffffffffffffffffffffffffff16146107fd576040517f08c379a00000000000000000000000000000000000000000000000000000000081526004016107f49061384a565b60405180910390fd5b6108056116f0565b565b6060815183511461084d576040517f08c379a00000000000000000000000000000000000000000000000000000000081526004016108449061388a565b60405180910390fd5b6000835167ffffffffffffffff811115610890577f4e487b7100000000000000000000000000000000000000000000000000000000600052604160045260246000fd5b6040519080825280602002602001820160405280156108be5781602001602082028036833780820191505090505b50905060005b84518110156109ad57610957858281518110610909577f4e487b7100000000000000000000000000000000000000000000000000000000600052603260045260246000fd5b602002602001015185838151811061094a577f4e487b7100000000000000000000000000000000000000000000000000000000600052603260045260246000fd5b602002602001015161040f565b828281518110610990577f4e487b7100000000000000000000000000000000000000000000000000000000600052603260045260246000fd5b602002602001018181525050806109a690613bed565b90506108c4565b508091505092915050565b6000600360149054906101000a900460ff16905090565b6109d761136e565b73ffffffffffffffffffffffffffffffffffffffff168373ffffffffffffffffffffffffffffffffffffffff161480610a1d5750610a1c83610a1761136e565b610efa565b5b610a5c576040517f08c379a0000000000000000000000000000000000000000000000000000000008152600401610a539061376a565b60405180910390fd5b610a67838383611792565b505050565b610a7461136e565b73ffffffffffffffffffffffffffffffffffffffff16610a92610b7a565b73ffffffffffffffffffffffffffffffffffffffff1614610ae8576040517f08c379a0000000000000000000000000000000000000000000000000000000008152600401610adf9061384a565b60405180910390fd5b610af26000611a8f565b565b610afc61136e565b73ffffffffffffffffffffffffffffffffffffffff16610b1a610b7a565b73ffffffffffffffffffffffffffffffffffffffff1614610b70576040517f08c379a0000000000000000000000000000000000000000000000000000000008152600401610b679061384a565b60405180910390fd5b610b78611b55565b565b6000600360009054906101000a900473ffffffffffffffffffffffffffffffffffffffff16905090565b600381565b8173ffffffffffffffffffffffffffffffffffffffff16610bc861136e565b73ffffffffffffffffffffffffffffffffffffffff161415610c1f576040517f08c379a0000000000000000000000000000000000000000000000000000000008152600401610c169061386a565b60405180910390fd5b8060016000610c2c61136e565b73ffffffffffffffffffffffffffffffffffffffff1673ffffffffffffffffffffffffffffffffffffffff16815260200190815260200160002060008473ffffffffffffffffffffffffffffffffffffffff1673ffffffffffffffffffffffffffffffffffffffff16815260200190815260200160002060006101000a81548160ff0219169083151502179055508173ffffffffffffffffffffffffffffffffffffffff16610cd961136e565b73ffffffffffffffffffffffffffffffffffffffff167f17307eab39ab6107e8899845ad3d59bd9653f200f220920489ca2b5937696c3183604051610d1e919061366d565b60405180910390a35050565b600181565b610d376109b8565b15610d77576040517f08c379a0000000000000000000000000000000000000000000000000000000008152600401610d6e9061378a565b60405180910390fd5b610d7f61136e565b73ffffffffffffffffffffffffffffffffffffffff16610d9d610b7a565b73ffffffffffffffffffffffffffffffffffffffff1614610df3576040517f08c379a0000000000000000000000000000000000000000000000000000000008152600401610dea9061384a565b60405180910390fd5b60008351905060005b81811015610ee7576000858281518110610e3f577f4e487b7100000000000000000000000000000000000000000000000000000000600052603260045260246000fd5b6020026020010151118015610e9557506004858281518110610e8a577f4e487b7100000000000000000000000000000000000000000000000000000000600052603260045260246000fd5b602002602001015111155b610ed4576040517f08c379a0000000000000000000000000000000000000000000000000000000008152600401610ecb9061382a565b60405180910390fd5b8080610edf90613bed565b915050610dfc565b50610ef433858585611bf8565b50505050565b6000600160008473ffffffffffffffffffffffffffffffffffffffff1673ffffffffffffffffffffffffffffffffffffffff16815260200190815260200160002060008373ffffffffffffffffffffffffffffffffffffffff1673ffffffffffffffffffffffffffffffffffffffff16815260200190815260200160002060009054906101000a900460ff16905092915050565b610f966109b8565b15610fd6576040517f08c379a0000000000000000000000000000000000000000000000000000000008152600401610fcd9061378a565b60405180910390fd5b610fde61136e565b73ffffffffffffffffffffffffffffffffffffffff16610ffc610b7a565b73ffffffffffffffffffffffffffffffffffffffff1614611052576040517f08c379a00000000000000000000000000000000000000000000000000000000081526004016110499061384a565b60405180910390fd5b600082118015611063575060048211155b6110a2576040517f08c379a00000000000000000000000000000000000000000000000000000000081526004016110999061382a565b60405180910390fd5b6110af3383600184611e62565b5050565b6110bb61136e565b73ffffffffffffffffffffffffffffffffffffffff168573ffffffffffffffffffffffffffffffffffffffff1614806111015750611100856110fb61136e565b610efa565b5b611140576040517f08c379a00000000000000000000000000000000000000000000000000000000081526004016111379061376a565b60405180910390fd5b61114d8585858585611ff8565b5050505050565b61115c61136e565b73ffffffffffffffffffffffffffffffffffffffff1661117a610b7a565b73ffffffffffffffffffffffffffffffffffffffff16146111d0576040517f08c379a00000000000000000000000000000000000000000000000000000000081526004016111c79061384a565b60405180910390fd5b600073ffffffffffffffffffffffffffffffffffffffff168173ffffffffffffffffffffffffffffffffffffffff161415611240576040517f08c379a00000000000000000000000000000000000000000000000000000000081526004016112379061372a565b60405180910390fd5b61124981611a8f565b50565b61125461136e565b73ffffffffffffffffffffffffffffffffffffffff168373ffffffffffffffffffffffffffffffffffffffff16148061129a57506112998361129461136e565b610efa565b5b6112d9576040517f08c379a00000000000000000000000000000000000000000000000000000000081526004016112d09061376a565b60405180910390fd5b6112e483838361227a565b505050565b505050505050565b600080823b905060008111915050919050565b60007f01ffc9a7000000000000000000000000000000000000000000000000000000007bffffffffffffffffffffffffffffffffffffffffffffffffffffffff1916827bffffffffffffffffffffffffffffffffffffffffffffffffffffffff1916149050919050565b600033905090565b806002908051906020019061138c929190612989565b5050565b81518351146113d4576040517f08c379a00000000000000000000000000000000000000000000000000000000081526004016113cb906138aa565b60405180910390fd5b600073ffffffffffffffffffffffffffffffffffffffff168473ffffffffffffffffffffffffffffffffffffffff161415611444576040517f08c379a000000000000000000000000000000000000000000000000000000000815260040161143b906137aa565b60405180910390fd5b600061144e61136e565b905061145e818787878787612497565b60005b845181101561165b5760008582815181106114a5577f4e487b7100000000000000000000000000000000000000000000000000000000600052603260045260246000fd5b6020026020010151905060008583815181106114ea577f4e487b7100000000000000000000000000000000000000000000000000000000600052603260045260246000fd5b60200260200101519050600080600084815260200190815260200160002060008b73ffffffffffffffffffffffffffffffffffffffff1673ffffffffffffffffffffffffffffffffffffffff1681526020019081526020016000205490508181101561158b576040517f08c379a00000000000000000000000000000000000000000000000000000000081526004016115829061380a565b60405180910390fd5b81810360008085815260200190815260200160002060008c73ffffffffffffffffffffffffffffffffffffffff1673ffffffffffffffffffffffffffffffffffffffff168152602001908152602001600020819055508160008085815260200190815260200160002060008b73ffffffffffffffffffffffffffffffffffffffff1673ffffffffffffffffffffffffffffffffffffffff16815260200190815260200160002060008282546116409190613a7e565b925050819055505050508061165490613bed565b9050611461565b508473ffffffffffffffffffffffffffffffffffffffff168673ffffffffffffffffffffffffffffffffffffffff168273ffffffffffffffffffffffffffffffffffffffff167f4a39dc06d4c0dbc64b70af90fd698a233a518aa5d07e595d983b8c0526c8f7fb87876040516116d2929190613636565b60405180910390a46116e88187878787876124f5565b505050505050565b6116f86109b8565b611737576040517f08c379a000000000000000000000000000000000000000000000000000000000815260040161172e906136ea565b60405180910390fd5b6000600360146101000a81548160ff0219169083151502179055507f5db9ee0a495bf2e6ff9c91a7834c1ba4fdd244a5e8aa4e537bd38aeae4b073aa61177b61136e565b6040516117889190613537565b60405180910390a1565b600073ffffffffffffffffffffffffffffffffffffffff168373ffffffffffffffffffffffffffffffffffffffff161415611802576040517f08c379a00000000000000000000000000000000000000000000000000000000081526004016117f9906137ea565b60405180910390fd5b8051825114611846576040517f08c379a000000000000000000000000000000000000000000000000000000000815260040161183d906138aa565b60405180910390fd5b600061185061136e565b905061187081856000868660405180602001604052806000815250612497565b60005b8351811015611a095760008482815181106118b7577f4e487b7100000000000000000000000000000000000000000000000000000000600052603260045260246000fd5b6020026020010151905060008483815181106118fc577f4e487b7100000000000000000000000000000000000000000000000000000000600052603260045260246000fd5b60200260200101519050600080600084815260200190815260200160002060008973ffffffffffffffffffffffffffffffffffffffff1673ffffffffffffffffffffffffffffffffffffffff1681526020019081526020016000205490508181101561199d576040517f08c379a00000000000000000000000000000000000000000000000000000000081526004016119949061374a565b60405180910390fd5b81810360008085815260200190815260200160002060008a73ffffffffffffffffffffffffffffffffffffffff1673ffffffffffffffffffffffffffffffffffffffff168152602001908152602001600020819055505050508080611a0190613bed565b915050611873565b50600073ffffffffffffffffffffffffffffffffffffffff168473ffffffffffffffffffffffffffffffffffffffff168273ffffffffffffffffffffffffffffffffffffffff167f4a39dc06d4c0dbc64b70af90fd698a233a518aa5d07e595d983b8c0526c8f7fb8686604051611a81929190613636565b60405180910390a450505050565b6000600360009054906101000a900473ffffffffffffffffffffffffffffffffffffffff16905081600360006101000a81548173ffffffffffffffffffffffffffffffffffffffff021916908373ffffffffffffffffffffffffffffffffffffffff1602179055508173ffffffffffffffffffffffffffffffffffffffff168173ffffffffffffffffffffffffffffffffffffffff167f8be0079c531659141344cd1fd0a4f28419497f9722a3daafe3b4186f6b6457e060405160405180910390a35050565b611b5d6109b8565b15611b9d576040517f08c379a0000000000000000000000000000000000000000000000000000000008152600401611b949061378a565b60405180910390fd5b6001600360146101000a81548160ff0219169083151502179055507f62e78cea01bee320cd4e420270b5ea74000d11b0c9f74754ebdbfc544b05a258611be161136e565b604051611bee9190613537565b60405180910390a1565b600073ffffffffffffffffffffffffffffffffffffffff168473ffffffffffffffffffffffffffffffffffffffff161415611c68576040517f08c379a0000000000000000000000000000000000000000000000000000000008152600401611c5f906138ca565b60405180910390fd5b8151835114611cac576040517f08c379a0000000000000000000000000000000000000000000000000000000008152600401611ca3906138aa565b60405180910390fd5b6000611cb661136e565b9050611cc781600087878787612497565b60005b8451811015611dcc57838181518110611d0c577f4e487b7100000000000000000000000000000000000000000000000000000000600052603260045260246000fd5b6020026020010151600080878481518110611d50577f4e487b7100000000000000000000000000000000000000000000000000000000600052603260045260246000fd5b6020026020010151815260200190815260200160002060008873ffffffffffffffffffffffffffffffffffffffff1673ffffffffffffffffffffffffffffffffffffffff1681526020019081526020016000206000828254611db29190613a7e565b925050819055508080611dc490613bed565b915050611cca565b508473ffffffffffffffffffffffffffffffffffffffff16600073ffffffffffffffffffffffffffffffffffffffff168273ffffffffffffffffffffffffffffffffffffffff167f4a39dc06d4c0dbc64b70af90fd698a233a518aa5d07e595d983b8c0526c8f7fb8787604051611e44929190613636565b60405180910390a4611e5b816000878787876124f5565b5050505050565b600073ffffffffffffffffffffffffffffffffffffffff168473ffffffffffffffffffffffffffffffffffffffff161415611ed2576040517f08c379a0000000000000000000000000000000000000000000000000000000008152600401611ec9906138ca565b60405180910390fd5b6000611edc61136e565b9050611efd81600087611eee886126dc565b611ef7886126dc565b87612497565b8260008086815260200190815260200160002060008773ffffffffffffffffffffffffffffffffffffffff1673ffffffffffffffffffffffffffffffffffffffff1681526020019081526020016000206000828254611f5c9190613a7e565b925050819055508473ffffffffffffffffffffffffffffffffffffffff16600073ffffffffffffffffffffffffffffffffffffffff168273ffffffffffffffffffffffffffffffffffffffff167fc3d58168c5ae7397731d063d5bbf3d657854427343f4c083240f7aacaa2d0f628787604051611fda929190613905565b60405180910390a4611ff1816000878787876127a2565b5050505050565b600073ffffffffffffffffffffffffffffffffffffffff168473ffffffffffffffffffffffffffffffffffffffff161415612068576040517f08c379a000000000000000000000000000000000000000000000000000000000815260040161205f906137aa565b60405180910390fd5b600061207261136e565b9050612092818787612083886126dc565b61208c886126dc565b87612497565b600080600086815260200190815260200160002060008873ffffffffffffffffffffffffffffffffffffffff1673ffffffffffffffffffffffffffffffffffffffff16815260200190815260200160002054905083811015612129576040517f08c379a00000000000000000000000000000000000000000000000000000000081526004016121209061380a565b60405180910390fd5b83810360008087815260200190815260200160002060008973ffffffffffffffffffffffffffffffffffffffff1673ffffffffffffffffffffffffffffffffffffffff168152602001908152602001600020819055508360008087815260200190815260200160002060008873ffffffffffffffffffffffffffffffffffffffff1673ffffffffffffffffffffffffffffffffffffffff16815260200190815260200160002060008282546121de9190613a7e565b925050819055508573ffffffffffffffffffffffffffffffffffffffff168773ffffffffffffffffffffffffffffffffffffffff168373ffffffffffffffffffffffffffffffffffffffff167fc3d58168c5ae7397731d063d5bbf3d657854427343f4c083240f7aacaa2d0f62888860405161225b929190613905565b60405180910390a46122718288888888886127a2565b50505050505050565b600073ffffffffffffffffffffffffffffffffffffffff168373ffffffffffffffffffffffffffffffffffffffff1614156122ea576040517f08c379a00000000000000000000000000000000000000000000000000000000081526004016122e1906137ea565b60405180910390fd5b60006122f461136e565b905061232481856000612306876126dc565b61230f876126dc565b60405180602001604052806000815250612497565b600080600085815260200190815260200160002060008673ffffffffffffffffffffffffffffffffffffffff1673ffffffffffffffffffffffffffffffffffffffff168152602001908152602001600020549050828110156123bb576040517f08c379a00000000000000000000000000000000000000000000000000000000081526004016123b29061374a565b60405180910390fd5b82810360008086815260200190815260200160002060008773ffffffffffffffffffffffffffffffffffffffff1673ffffffffffffffffffffffffffffffffffffffff16815260200190815260200160002081905550600073ffffffffffffffffffffffffffffffffffffffff168573ffffffffffffffffffffffffffffffffffffffff168373ffffffffffffffffffffffffffffffffffffffff167fc3d58168c5ae7397731d063d5bbf3d657854427343f4c083240f7aacaa2d0f628787604051612488929190613905565b60405180910390a45050505050565b61249f6109b8565b156124df576040517f08c379a00000000000000000000000000000000000000000000000000000000081526004016124d69061378a565b60405180910390fd5b6124ed8686868686866112e9565b505050505050565b6125148473ffffffffffffffffffffffffffffffffffffffff166112f1565b156126d4578373ffffffffffffffffffffffffffffffffffffffff1663bc197c8187878686866040518663ffffffff1660e01b815260040161255a959493929190613552565b602060405180830381600087803b15801561257457600080fd5b505af19250505080156125a557506040513d601f19601f820116820180604052508101906125a291906130b6565b60015b61264b576125b1613cc3565b806308c379a0141561260e57506125c66141f9565b806125d15750612610565b806040517f08c379a00000000000000000000000000000000000000000000000000000000081526004016126059190613688565b60405180910390fd5b505b6040517f08c379a0000000000000000000000000000000000000000000000000000000008152600401612642906136aa565b60405180910390fd5b63bc197c8160e01b7bffffffffffffffffffffffffffffffffffffffffffffffffffffffff1916817bffffffffffffffffffffffffffffffffffffffffffffffffffffffff1916146126d2576040517f08c379a00000000000000000000000000000000000000000000000000000000081526004016126c9906136ca565b60405180910390fd5b505b505050505050565b60606000600167ffffffffffffffff811115612721577f4e487b7100000000000000000000000000000000000000000000000000000000600052604160045260246000fd5b60405190808252806020026020018201604052801561274f5781602001602082028036833780820191505090505b509050828160008151811061278d577f4e487b7100000000000000000000000000000000000000000000000000000000600052603260045260246000fd5b60200260200101818152505080915050919050565b6127c18473ffffffffffffffffffffffffffffffffffffffff166112f1565b15612981578373ffffffffffffffffffffffffffffffffffffffff1663f23a6e6187878686866040518663ffffffff1660e01b81526004016128079594939291906135ba565b602060405180830381600087803b15801561282157600080fd5b505af192505050801561285257506040513d601f19601f8201168201806040525081019061284f91906130b6565b60015b6128f85761285e613cc3565b806308c379a014156128bb57506128736141f9565b8061287e57506128bd565b806040517f08c379a00000000000000000000000000000000000000000000000000000000081526004016128b29190613688565b60405180910390fd5b505b6040517f08c379a00000000000000000000000000000000000000000000000000000000081526004016128ef906136aa565b60405180910390fd5b63f23a6e6160e01b7bffffffffffffffffffffffffffffffffffffffffffffffffffffffff1916817bffffffffffffffffffffffffffffffffffffffffffffffffffffffff19161461297f576040517f08c379a0000000000000000000000000000000000000000000000000000000008152600401612976906136ca565b60405180910390fd5b505b505050505050565b82805461299590613b8a565b90600052602060002090601f0160209004810192826129b757600085556129fe565b82601f106129d057805160ff19168380011785556129fe565b828001600101855582156129fe579182015b828111156129fd5782518255916020019190600101906129e2565b5b509050612a0b9190612a0f565b5090565b5b80821115612a28576000816000905550600101612a10565b5090565b6000612a3f612a3a84613953565b61392e565b90508083825260208201905082856020860282011115612a5e57600080fd5b60005b85811015612a8e5781612a748882612b80565b845260208401935060208301925050600181019050612a61565b5050509392505050565b6000612aab612aa68461397f565b61392e565b90508083825260208201905082856020860282011115612aca57600080fd5b60005b85811015612afa5781612ae08882612c7c565b845260208401935060208301925050600181019050612acd565b5050509392505050565b6000612b17612b12846139ab565b61392e565b905082815260208101848484011115612b2f57600080fd5b612b3a848285613b48565b509392505050565b6000612b55612b50846139dc565b61392e565b905082815260208101848484011115612b6d57600080fd5b612b78848285613b48565b509392505050565b600081359050612b8f8161428f565b92915050565b600082601f830112612ba657600080fd5b8135612bb6848260208601612a2c565b91505092915050565b600082601f830112612bd057600080fd5b8135612be0848260208601612a98565b91505092915050565b600081359050612bf8816142a6565b92915050565b600081359050612c0d816142bd565b92915050565b600081519050612c22816142bd565b92915050565b600082601f830112612c3957600080fd5b8135612c49848260208601612b04565b91505092915050565b600082601f830112612c6357600080fd5b8135612c73848260208601612b42565b91505092915050565b600081359050612c8b816142d4565b92915050565b600060208284031215612ca357600080fd5b6000612cb184828501612b80565b91505092915050565b60008060408385031215612ccd57600080fd5b6000612cdb85828601612b80565b9250506020612cec85828601612b80565b9150509250929050565b600080600080600060a08688031215612d0e57600080fd5b6000612d1c88828901612b80565b9550506020612d2d88828901612b80565b945050604086013567ffffffffffffffff811115612d4a57600080fd5b612d5688828901612bbf565b935050606086013567ffffffffffffffff811115612d7357600080fd5b612d7f88828901612bbf565b925050608086013567ffffffffffffffff811115612d9c57600080fd5b612da888828901612c28565b9150509295509295909350565b600080600080600060a08688031215612dcd57600080fd5b6000612ddb88828901612b80565b9550506020612dec88828901612b80565b9450506040612dfd88828901612c7c565b9350506060612e0e88828901612c7c565b925050608086013567ffffffffffffffff811115612e2b57600080fd5b612e3788828901612c28565b9150509295509295909350565b600080600060608486031215612e5957600080fd5b6000612e6786828701612b80565b935050602084013567ffffffffffffffff811115612e8457600080fd5b612e9086828701612bbf565b925050604084013567ffffffffffffffff811115612ead57600080fd5b612eb986828701612bbf565b9150509250925092565b60008060408385031215612ed657600080fd5b6000612ee485828601612b80565b9250506020612ef585828601612be9565b9150509250929050565b60008060408385031215612f1257600080fd5b6000612f2085828601612b80565b9250506020612f3185828601612c7c565b9150509250929050565b600080600060608486031215612f5057600080fd5b6000612f5e86828701612b80565b9350506020612f6f86828701612c7c565b9250506040612f8086828701612c7c565b9150509250925092565b60008060408385031215612f9d57600080fd5b600083013567ffffffffffffffff811115612fb757600080fd5b612fc385828601612b95565b925050602083013567ffffffffffffffff811115612fe057600080fd5b612fec85828601612bbf565b9150509250929050565b60008060006060848603121561300b57600080fd5b600084013567ffffffffffffffff81111561302557600080fd5b61303186828701612bbf565b935050602084013567ffffffffffffffff81111561304e57600080fd5b61305a86828701612bbf565b925050604084013567ffffffffffffffff81111561307757600080fd5b61308386828701612c28565b9150509250925092565b60006020828403121561309f57600080fd5b60006130ad84828501612bfe565b91505092915050565b6000602082840312156130c857600080fd5b60006130d684828501612c13565b91505092915050565b6000602082840312156130f157600080fd5b600082013567ffffffffffffffff81111561310b57600080fd5b61311784828501612c52565b91505092915050565b60006020828403121561313257600080fd5b600061314084828501612c7c565b91505092915050565b6000806040838503121561315c57600080fd5b600061316a85828601612c7c565b925050602083013567ffffffffffffffff81111561318757600080fd5b61319385828601612c28565b9150509250929050565b60006131a98383613519565b60208301905092915050565b6131be81613ad4565b82525050565b60006131cf82613a1d565b6131d98185613a4b565b93506131e483613a0d565b8060005b838110156132155781516131fc888261319d565b975061320783613a3e565b9250506001810190506131e8565b5085935050505092915050565b61322b81613ae6565b82525050565b600061323c82613a28565b6132468185613a5c565b9350613256818560208601613b57565b61325f81613ce5565b840191505092915050565b600061327582613a33565b61327f8185613a6d565b935061328f818560208601613b57565b61329881613ce5565b840191505092915050565b60006132b0603483613a6d565b91506132bb82613d03565b604082019050919050565b60006132d3602883613a6d565b91506132de82613d52565b604082019050919050565b60006132f6601483613a6d565b915061330182613da1565b602082019050919050565b6000613319602b83613a6d565b915061332482613dca565b604082019050919050565b600061333c602683613a6d565b915061334782613e19565b604082019050919050565b600061335f602483613a6d565b915061336a82613e68565b604082019050919050565b6000613382602983613a6d565b915061338d82613eb7565b604082019050919050565b60006133a5601083613a6d565b91506133b082613f06565b602082019050919050565b60006133c8602583613a6d565b91506133d382613f2f565b604082019050919050565b60006133eb603283613a6d565b91506133f682613f7e565b604082019050919050565b600061340e602383613a6d565b915061341982613fcd565b604082019050919050565b6000613431602a83613a6d565b915061343c8261401c565b604082019050919050565b6000613454601983613a6d565b915061345f8261406b565b602082019050919050565b6000613477602083613a6d565b915061348282614094565b602082019050919050565b600061349a602983613a6d565b91506134a5826140bd565b604082019050919050565b60006134bd602983613a6d565b91506134c88261410c565b604082019050919050565b60006134e0602883613a6d565b91506134eb8261415b565b604082019050919050565b6000613503602183613a6d565b915061350e826141aa565b604082019050919050565b61352281613b3e565b82525050565b61353181613b3e565b82525050565b600060208201905061354c60008301846131b5565b92915050565b600060a08201905061356760008301886131b5565b61357460208301876131b5565b818103604083015261358681866131c4565b9050818103606083015261359a81856131c4565b905081810360808301526135ae8184613231565b90509695505050505050565b600060a0820190506135cf60008301886131b5565b6135dc60208301876131b5565b6135e96040830186613528565b6135f66060830185613528565b81810360808301526136088184613231565b90509695505050505050565b6000602082019050818103600083015261362e81846131c4565b905092915050565b6000604082019050818103600083015261365081856131c4565b9050818103602083015261366481846131c4565b90509392505050565b60006020820190506136826000830184613222565b92915050565b600060208201905081810360008301526136a2818461326a565b905092915050565b600060208201905081810360008301526136c3816132a3565b9050919050565b600060208201905081810360008301526136e3816132c6565b9050919050565b60006020820190508181036000830152613703816132e9565b9050919050565b600060208201905081810360008301526137238161330c565b9050919050565b600060208201905081810360008301526137438161332f565b9050919050565b6000602082019050818103600083015261376381613352565b9050919050565b6000602082019050818103600083015261378381613375565b9050919050565b600060208201905081810360008301526137a381613398565b9050919050565b600060208201905081810360008301526137c3816133bb565b9050919050565b600060208201905081810360008301526137e3816133de565b9050919050565b6000602082019050818103600083015261380381613401565b9050919050565b6000602082019050818103600083015261382381613424565b9050919050565b6000602082019050818103600083015261384381613447565b9050919050565b600060208201905081810360008301526138638161346a565b9050919050565b600060208201905081810360008301526138838161348d565b9050919050565b600060208201905081810360008301526138a3816134b0565b9050919050565b600060208201905081810360008301526138c3816134d3565b9050919050565b600060208201905081810360008301526138e3816134f6565b9050919050565b60006020820190506138ff6000830184613528565b92915050565b600060408201905061391a6000830185613528565b6139276020830184613528565b9392505050565b6000613938613949565b90506139448282613bbc565b919050565b6000604051905090565b600067ffffffffffffffff82111561396e5761396d613c94565b5b602082029050602081019050919050565b600067ffffffffffffffff82111561399a57613999613c94565b5b602082029050602081019050919050565b600067ffffffffffffffff8211156139c6576139c5613c94565b5b6139cf82613ce5565b9050602081019050919050565b600067ffffffffffffffff8211156139f7576139f6613c94565b5b613a0082613ce5565b9050602081019050919050565b6000819050602082019050919050565b600081519050919050565b600081519050919050565b600081519050919050565b6000602082019050919050565b600082825260208201905092915050565b600082825260208201905092915050565b600082825260208201905092915050565b6000613a8982613b3e565b9150613a9483613b3e565b9250827fffffffffffffffffffffffffffffffffffffffffffffffffffffffffffffffff03821115613ac957613ac8613c36565b5b828201905092915050565b6000613adf82613b1e565b9050919050565b60008115159050919050565b60007fffffffff0000000000000000000000000000000000000000000000000000000082169050919050565b600073ffffffffffffffffffffffffffffffffffffffff82169050919050565b6000819050919050565b82818337600083830152505050565b60005b83811015613b75578082015181840152602081019050613b5a565b83811115613b84576000848401525b50505050565b60006002820490506001821680613ba257607f821691505b60208210811415613bb657613bb5613c65565b5b50919050565b613bc582613ce5565b810181811067ffffffffffffffff82111715613be457613be3613c94565b5b80604052505050565b6000613bf882613b3e565b91507fffffffffffffffffffffffffffffffffffffffffffffffffffffffffffffffff821415613c2b57613c2a613c36565b5b600182019050919050565b7f4e487b7100000000000000000000000000000000000000000000000000000000600052601160045260246000fd5b7f4e487b7100000000000000000000000000000000000000000000000000000000600052602260045260246000fd5b7f4e487b7100000000000000000000000000000000000000000000000000000000600052604160045260246000fd5b600060033d1115613ce25760046000803e613cdf600051613cf6565b90505b90565b6000601f19601f8301169050919050565b60008160e01c9050919050565b7f455243313135353a207472616e7366657220746f206e6f6e204552433131353560008201527f526563656976657220696d706c656d656e746572000000000000000000000000602082015250565b7f455243313135353a204552433131353552656365697665722072656a6563746560008201527f6420746f6b656e73000000000000000000000000000000000000000000000000602082015250565b7f5061757361626c653a206e6f7420706175736564000000000000000000000000600082015250565b7f455243313135353a2062616c616e636520717565727920666f7220746865207a60008201527f65726f2061646472657373000000000000000000000000000000000000000000602082015250565b7f4f776e61626c653a206e6577206f776e657220697320746865207a65726f206160008201527f6464726573730000000000000000000000000000000000000000000000000000602082015250565b7f455243313135353a206275726e20616d6f756e7420657863656564732062616c60008201527f616e636500000000000000000000000000000000000000000000000000000000602082015250565b7f455243313135353a2063616c6c6572206973206e6f74206f776e6572206e6f7260008201527f20617070726f7665640000000000000000000000000000000000000000000000602082015250565b7f5061757361626c653a2070617573656400000000000000000000000000000000600082015250565b7f455243313135353a207472616e7366657220746f20746865207a65726f20616460008201527f6472657373000000000000000000000000000000000000000000000000000000602082015250565b7f455243313135353a207472616e736665722063616c6c6572206973206e6f742060008201527f6f776e6572206e6f7220617070726f7665640000000000000000000000000000602082015250565b7f455243313135353a206275726e2066726f6d20746865207a65726f206164647260008201527f6573730000000000000000000000000000000000000000000000000000000000602082015250565b7f455243313135353a20696e73756666696369656e742062616c616e636520666f60008201527f72207472616e7366657200000000000000000000000000000000000000000000602082015250565b7f4163636573736f727920646f6573206e6f742065786973742e00000000000000600082015250565b7f4f776e61626c653a2063616c6c6572206973206e6f7420746865206f776e6572600082015250565b7f455243313135353a2073657474696e6720617070726f76616c2073746174757360008201527f20666f722073656c660000000000000000000000000000000000000000000000602082015250565b7f455243313135353a206163636f756e747320616e6420696473206c656e67746860008201527f206d69736d617463680000000000000000000000000000000000000000000000602082015250565b7f455243313135353a2069647320616e6420616d6f756e7473206c656e6774682060008201527f6d69736d61746368000000000000000000000000000000000000000000000000602082015250565b7f455243313135353a206d696e7420746f20746865207a65726f2061646472657360008201527f7300000000000000000000000000000000000000000000000000000000000000602082015250565b600060443d10156142095761428c565b614211613949565b60043d036004823e80513d602482011167ffffffffffffffff8211171561423957505061428c565b808201805167ffffffffffffffff811115614257575050505061428c565b80602083010160043d03850181111561427457505050505061428c565b61428382602001850186613bbc565b82955050505050505b90565b61429881613ad4565b81146142a357600080fd5b50565b6142af81613ae6565b81146142ba57600080fd5b50565b6142c681613af2565b81146142d157600080fd5b50565b6142dd81613b3e565b81146142e857600080fd5b5056fea264697066735822122029fa9e8b6d9a8ea57d1ed919dc8ee4efa58667435a2014201da550c02f60714464736f6c6343000802003368747470733a2f2f676174657761792e70696e6174612e636c6f75642f697066732f516d6638704b5343356d56366e545653523373684a5170396537436756724e714b4739385a434b754d6d5042506d2f6d657461646174612f6170692f6974656d2f7b69647d2e6a736f6e",
  "immutableReferences": {},
  "source": "// SPDX-License-Identifier: MIT\npragma solidity ^0.8.2;\n\nimport \"@openzeppelin/contracts/token/ERC1155/ERC1155.sol\";\nimport \"@openzeppelin/contracts/access/Ownable.sol\";\nimport \"@openzeppelin/contracts/security/Pausable.sol\";\nimport \"@openzeppelin/contracts/token/ERC1155/extensions/ERC1155Burnable.sol\";\n// import \"@openzeppelin/contracts/security/ReentrancyGuard.sol\";\n\ncontract Accessory is ERC1155, Ownable, Pausable, ERC1155Burnable {\n    uint256 private SALETIME = 1634451621; // 7PM EDT on November 1st\n    uint256 private PRICE = .08 ether; // .08 eth\n    uint256 public constant CLASS_LAZER = 1;\n    uint256 public constant CLASS_SWORD = 2;\n    uint256 public constant CLASS_SAW = 3;\n    uint256 public constant CLASS_WRENCH = 4;\n\n\n    constructor(uint256[] memory _clazzes, uint256[] memory _amounts) ERC1155(\"https://gateway.pinata.cloud/ipfs/Qmf8pKSC5mV6nTVSR3shJQp9e7CgVrNqKG98ZCKuMmPBPm/metadata/api/item/{id}.json\") {\n        mintBatchAccessories(_clazzes, _amounts, \"0x000\");\n    }\n\n    function setURI(string memory newuri) public onlyOwner {\n        _setURI(newuri);\n    }\n\n    function pause() public onlyOwner {\n        _pause();\n    }\n\n    function unpause() public onlyOwner {\n        _unpause();\n    }\n\n    function mintAccessory(uint256 _clazz, bytes memory _data) public whenNotPaused onlyOwner {\n        require(_clazz > 0 &&  _clazz <= 4, \"Accessory does not exist.\");\n        _mint(msg.sender, _clazz, 1, _data);\n    }\n\n    function mintBatchAccessories(uint256[] memory _ids, uint256[] memory _amounts, bytes memory _data) public whenNotPaused onlyOwner {\n        uint256 _idsLength = _ids.length;\n        for (uint256 i=0; i<_idsLength; i++) {\n            require(_ids[i] > 0 && _ids[i] <= 4, \"Accessory does not exist.\");\n        }\n        _mintBatch(msg.sender, _ids, _amounts, _data);\n    }\n\n    function _beforeTokenTransfer(address operator, address from, address to, uint256[] memory ids, uint256[] memory amounts, bytes memory data) internal whenNotPaused override {\n        super._beforeTokenTransfer(operator, from, to, ids, amounts, data);\n    }\n\n}\n\n",
  "sourcePath": "/home/seandevs/workspaces/celo-hackathon/nfts/robots/contracts/Accessory.sol",
  "compiler": {
    "name": "solc",
    "version": "0.8.2+commit.661d1103.Emscripten.clang"
  },
  "schemaVersion": "3.4.1",
  "updatedAt": "2021-11-01T15:15:35.830Z",
  "networkType": "ethereum",
  "devdoc": {
    "kind": "dev",
    "methods": {
      "balanceOf(address,uint256)": {
        "details": "See {IERC1155-balanceOf}. Requirements: - `account` cannot be the zero address."
      },
      "balanceOfBatch(address[],uint256[])": {
        "details": "See {IERC1155-balanceOfBatch}. Requirements: - `accounts` and `ids` must have the same length."
      },
      "isApprovedForAll(address,address)": {
        "details": "See {IERC1155-isApprovedForAll}."
      },
      "owner()": {
        "details": "Returns the address of the current owner."
      },
      "paused()": {
        "details": "Returns true if the contract is paused, and false otherwise."
      },
      "renounceOwnership()": {
        "details": "Leaves the contract without owner. It will not be possible to call `onlyOwner` functions anymore. Can only be called by the current owner. NOTE: Renouncing ownership will leave the contract without an owner, thereby removing any functionality that is only available to the owner."
      },
      "safeBatchTransferFrom(address,address,uint256[],uint256[],bytes)": {
        "details": "See {IERC1155-safeBatchTransferFrom}."
      },
      "safeTransferFrom(address,address,uint256,uint256,bytes)": {
        "details": "See {IERC1155-safeTransferFrom}."
      },
      "setApprovalForAll(address,bool)": {
        "details": "See {IERC1155-setApprovalForAll}."
      },
      "supportsInterface(bytes4)": {
        "details": "See {IERC165-supportsInterface}."
      },
      "transferOwnership(address)": {
        "details": "Transfers ownership of the contract to a new account (`newOwner`). Can only be called by the current owner."
      },
      "uri(uint256)": {
        "details": "See {IERC1155MetadataURI-uri}. This implementation returns the same URI for *all* token types. It relies on the token type ID substitution mechanism https://eips.ethereum.org/EIPS/eip-1155#metadata[defined in the EIP]. Clients calling this function must replace the `\\{id\\}` substring with the actual token type ID."
      }
    },
    "version": 1
  },
  "userdoc": {
    "kind": "user",
    "methods": {},
    "version": 1
  }
}