{
  "contractName": "Accessory",
  "abi": [
    {
      "inputs": [
        {
          "internalType": "uint256[]",
          "name": "_clazzes",
          "type": "uint256[]"
        },
        {
          "internalType": "uint256[]",
          "name": "_amounts",
          "type": "uint256[]"
        }
      ],
      "stateMutability": "nonpayable",
      "type": "constructor"
    },
    {
      "anonymous": false,
      "inputs": [
        {
          "indexed": true,
          "internalType": "address",
          "name": "account",
          "type": "address"
        },
        {
          "indexed": true,
          "internalType": "address",
          "name": "operator",
          "type": "address"
        },
        {
          "indexed": false,
          "internalType": "bool",
          "name": "approved",
          "type": "bool"
        }
      ],
      "name": "ApprovalForAll",
      "type": "event"
    },
    {
      "anonymous": false,
      "inputs": [
        {
          "indexed": true,
          "internalType": "address",
          "name": "previousOwner",
          "type": "address"
        },
        {
          "indexed": true,
          "internalType": "address",
          "name": "newOwner",
          "type": "address"
        }
      ],
      "name": "OwnershipTransferred",
      "type": "event"
    },
    {
      "anonymous": false,
      "inputs": [
        {
          "indexed": false,
          "internalType": "address",
          "name": "account",
          "type": "address"
        }
      ],
      "name": "Paused",
      "type": "event"
    },
    {
      "anonymous": false,
      "inputs": [
        {
          "indexed": true,
          "internalType": "address",
          "name": "operator",
          "type": "address"
        },
        {
          "indexed": true,
          "internalType": "address",
          "name": "from",
          "type": "address"
        },
        {
          "indexed": true,
          "internalType": "address",
          "name": "to",
          "type": "address"
        },
        {
          "indexed": false,
          "internalType": "uint256[]",
          "name": "ids",
          "type": "uint256[]"
        },
        {
          "indexed": false,
          "internalType": "uint256[]",
          "name": "values",
          "type": "uint256[]"
        }
      ],
      "name": "TransferBatch",
      "type": "event"
    },
    {
      "anonymous": false,
      "inputs": [
        {
          "indexed": true,
          "internalType": "address",
          "name": "operator",
          "type": "address"
        },
        {
          "indexed": true,
          "internalType": "address",
          "name": "from",
          "type": "address"
        },
        {
          "indexed": true,
          "internalType": "address",
          "name": "to",
          "type": "address"
        },
        {
          "indexed": false,
          "internalType": "uint256",
          "name": "id",
          "type": "uint256"
        },
        {
          "indexed": false,
          "internalType": "uint256",
          "name": "value",
          "type": "uint256"
        }
      ],
      "name": "TransferSingle",
      "type": "event"
    },
    {
      "anonymous": false,
      "inputs": [
        {
          "indexed": false,
          "internalType": "string",
          "name": "value",
          "type": "string"
        },
        {
          "indexed": true,
          "internalType": "uint256",
          "name": "id",
          "type": "uint256"
        }
      ],
      "name": "URI",
      "type": "event"
    },
    {
      "anonymous": false,
      "inputs": [
        {
          "indexed": false,
          "internalType": "address",
          "name": "account",
          "type": "address"
        }
      ],
      "name": "Unpaused",
      "type": "event"
    },
    {
      "inputs": [],
      "name": "CLASS_AI_CHIP",
      "outputs": [
        {
          "internalType": "uint256",
          "name": "",
          "type": "uint256"
        }
      ],
      "stateMutability": "view",
      "type": "function",
      "constant": true
    },
    {
      "inputs": [],
      "name": "CLASS_BUZZSAW",
      "outputs": [
        {
          "internalType": "uint256",
          "name": "",
          "type": "uint256"
        }
      ],
      "stateMutability": "view",
      "type": "function",
      "constant": true
    },
    {
      "inputs": [],
      "name": "CLASS_SHIELD",
      "outputs": [
        {
          "internalType": "uint256",
          "name": "",
          "type": "uint256"
        }
      ],
      "stateMutability": "view",
      "type": "function",
      "constant": true
    },
    {
      "inputs": [],
      "name": "CLASS_SWORD",
      "outputs": [
        {
          "internalType": "uint256",
          "name": "",
          "type": "uint256"
        }
      ],
      "stateMutability": "view",
      "type": "function",
      "constant": true
    },
    {
      "inputs": [
        {
          "internalType": "address",
          "name": "account",
          "type": "address"
        },
        {
          "internalType": "uint256",
          "name": "id",
          "type": "uint256"
        }
      ],
      "name": "balanceOf",
      "outputs": [
        {
          "internalType": "uint256",
          "name": "",
          "type": "uint256"
        }
      ],
      "stateMutability": "view",
      "type": "function",
      "constant": true
    },
    {
      "inputs": [
        {
          "internalType": "address[]",
          "name": "accounts",
          "type": "address[]"
        },
        {
          "internalType": "uint256[]",
          "name": "ids",
          "type": "uint256[]"
        }
      ],
      "name": "balanceOfBatch",
      "outputs": [
        {
          "internalType": "uint256[]",
          "name": "",
          "type": "uint256[]"
        }
      ],
      "stateMutability": "view",
      "type": "function",
      "constant": true
    },
    {
      "inputs": [
        {
          "internalType": "address",
          "name": "account",
          "type": "address"
        },
        {
          "internalType": "uint256",
          "name": "id",
          "type": "uint256"
        },
        {
          "internalType": "uint256",
          "name": "value",
          "type": "uint256"
        }
      ],
      "name": "burn",
      "outputs": [],
      "stateMutability": "nonpayable",
      "type": "function"
    },
    {
      "inputs": [
        {
          "internalType": "address",
          "name": "account",
          "type": "address"
        },
        {
          "internalType": "uint256[]",
          "name": "ids",
          "type": "uint256[]"
        },
        {
          "internalType": "uint256[]",
          "name": "values",
          "type": "uint256[]"
        }
      ],
      "name": "burnBatch",
      "outputs": [],
      "stateMutability": "nonpayable",
      "type": "function"
    },
    {
      "inputs": [
        {
          "internalType": "address",
          "name": "account",
          "type": "address"
        },
        {
          "internalType": "address",
          "name": "operator",
          "type": "address"
        }
      ],
      "name": "isApprovedForAll",
      "outputs": [
        {
          "internalType": "bool",
          "name": "",
          "type": "bool"
        }
      ],
      "stateMutability": "view",
      "type": "function",
      "constant": true
    },
    {
      "inputs": [],
      "name": "owner",
      "outputs": [
        {
          "internalType": "address",
          "name": "",
          "type": "address"
        }
      ],
      "stateMutability": "view",
      "type": "function",
      "constant": true
    },
    {
      "inputs": [],
      "name": "paused",
      "outputs": [
        {
          "internalType": "bool",
          "name": "",
          "type": "bool"
        }
      ],
      "stateMutability": "view",
      "type": "function",
      "constant": true
    },
    {
      "inputs": [],
      "name": "renounceOwnership",
      "outputs": [],
      "stateMutability": "nonpayable",
      "type": "function"
    },
    {
      "inputs": [
        {
          "internalType": "address",
          "name": "from",
          "type": "address"
        },
        {
          "internalType": "address",
          "name": "to",
          "type": "address"
        },
        {
          "internalType": "uint256[]",
          "name": "ids",
          "type": "uint256[]"
        },
        {
          "internalType": "uint256[]",
          "name": "amounts",
          "type": "uint256[]"
        },
        {
          "internalType": "bytes",
          "name": "data",
          "type": "bytes"
        }
      ],
      "name": "safeBatchTransferFrom",
      "outputs": [],
      "stateMutability": "nonpayable",
      "type": "function"
    },
    {
      "inputs": [
        {
          "internalType": "address",
          "name": "from",
          "type": "address"
        },
        {
          "internalType": "address",
          "name": "to",
          "type": "address"
        },
        {
          "internalType": "uint256",
          "name": "id",
          "type": "uint256"
        },
        {
          "internalType": "uint256",
          "name": "amount",
          "type": "uint256"
        },
        {
          "internalType": "bytes",
          "name": "data",
          "type": "bytes"
        }
      ],
      "name": "safeTransferFrom",
      "outputs": [],
      "stateMutability": "nonpayable",
      "type": "function"
    },
    {
      "inputs": [
        {
          "internalType": "address",
          "name": "operator",
          "type": "address"
        },
        {
          "internalType": "bool",
          "name": "approved",
          "type": "bool"
        }
      ],
      "name": "setApprovalForAll",
      "outputs": [],
      "stateMutability": "nonpayable",
      "type": "function"
    },
    {
      "inputs": [
        {
          "internalType": "bytes4",
          "name": "interfaceId",
          "type": "bytes4"
        }
      ],
      "name": "supportsInterface",
      "outputs": [
        {
          "internalType": "bool",
          "name": "",
          "type": "bool"
        }
      ],
      "stateMutability": "view",
      "type": "function",
      "constant": true
    },
    {
      "inputs": [
        {
          "internalType": "address",
          "name": "newOwner",
          "type": "address"
        }
      ],
      "name": "transferOwnership",
      "outputs": [],
      "stateMutability": "nonpayable",
      "type": "function"
    },
    {
      "inputs": [
        {
          "internalType": "uint256",
          "name": "",
          "type": "uint256"
        }
      ],
      "name": "uri",
      "outputs": [
        {
          "internalType": "string",
          "name": "",
          "type": "string"
        }
      ],
      "stateMutability": "view",
      "type": "function",
      "constant": true
    },
    {
      "inputs": [
        {
          "internalType": "string",
          "name": "newuri",
          "type": "string"
        }
      ],
      "name": "setURI",
      "outputs": [],
      "stateMutability": "nonpayable",
      "type": "function"
    },
    {
      "inputs": [],
      "name": "pause",
      "outputs": [],
      "stateMutability": "nonpayable",
      "type": "function"
    },
    {
      "inputs": [],
      "name": "unpause",
      "outputs": [],
      "stateMutability": "nonpayable",
      "type": "function"
    },
    {
      "inputs": [
        {
          "internalType": "uint256",
          "name": "_clazz",
          "type": "uint256"
        },
        {
          "internalType": "bytes",
          "name": "_data",
          "type": "bytes"
        }
      ],
      "name": "mintAccessory",
      "outputs": [],
      "stateMutability": "nonpayable",
      "type": "function"
    },
    {
      "inputs": [
        {
          "internalType": "uint256[]",
          "name": "_ids",
          "type": "uint256[]"
        },
        {
          "internalType": "uint256[]",
          "name": "_amounts",
          "type": "uint256[]"
        },
        {
          "internalType": "bytes",
          "name": "_data",
          "type": "bytes"
        }
      ],
      "name": "mintBatchAccessories",
      "outputs": [],
      "stateMutability": "nonpayable",
      "type": "function"
    },
    {
      "inputs": [
        {
          "internalType": "address",
          "name": "wallet",
          "type": "address"
        },
        {
          "internalType": "uint256[]",
          "name": "ids",
          "type": "uint256[]"
        }
      ],
      "name": "getWalletAccessories",
      "outputs": [
        {
          "internalType": "uint256[]",
          "name": "",
          "type": "uint256[]"
        }
      ],
      "stateMutability": "view",
      "type": "function",
      "constant": true
    }
  ],
  "bytecode": "0x608060405263616bc0a560045567011c37937e0800006005553480156200002557600080fd5b5060405162005b3f38038062005b3f83398181016040528101906200004b919062000ad5565b6040518060a00160405280606c815260200162005ad3606c913962000076816200010260201b60201c565b50620000976200008b6200011e60201b60201c565b6200012660201b60201c565b6000600360146101000a81548160ff021916908315150217905550620000fa82826040518060400160405280600581526020017f3078303030000000000000000000000000000000000000000000000000000000815250620001ec60201b60201c565b505062001549565b80600290805190602001906200011a92919062000955565b5050565b600033905090565b6000600360009054906101000a900473ffffffffffffffffffffffffffffffffffffffff16905081600360006101000a81548173ffffffffffffffffffffffffffffffffffffffff021916908373ffffffffffffffffffffffffffffffffffffffff1602179055508173ffffffffffffffffffffffffffffffffffffffff168173ffffffffffffffffffffffffffffffffffffffff167f8be0079c531659141344cd1fd0a4f28419497f9722a3daafe3b4186f6b6457e060405160405180910390a35050565b620001fc620003e760201b60201c565b156200023f576040517f08c379a0000000000000000000000000000000000000000000000000000000008152600401620002369062000ec2565b60405180910390fd5b6200024f6200011e60201b60201c565b73ffffffffffffffffffffffffffffffffffffffff1662000275620003fe60201b60201c565b73ffffffffffffffffffffffffffffffffffffffff1614620002ce576040517f08c379a0000000000000000000000000000000000000000000000000000000008152600401620002c59062000f06565b60405180910390fd5b60008351905060005b81811015620003cc5760008582815181106200031c577f4e487b7100000000000000000000000000000000000000000000000000000000600052603260045260246000fd5b6020026020010151118015620003745750600485828151811062000369577f4e487b7100000000000000000000000000000000000000000000000000000000600052603260045260246000fd5b602002602001015111155b620003b6576040517f08c379a0000000000000000000000000000000000000000000000000000000008152600401620003ad9062000ee4565b60405180910390fd5b8080620003c3906200119e565b915050620002d7565b50620003e1338585856200042860201b60201c565b50505050565b6000600360149054906101000a900460ff16905090565b6000600360009054906101000a900473ffffffffffffffffffffffffffffffffffffffff16905090565b600073ffffffffffffffffffffffffffffffffffffffff168473ffffffffffffffffffffffffffffffffffffffff1614156200049b576040517f08c379a0000000000000000000000000000000000000000000000000000000008152600401620004929062000f4a565b60405180910390fd5b8151835114620004e2576040517f08c379a0000000000000000000000000000000000000000000000000000000008152600401620004d99062000f28565b60405180910390fd5b6000620004f46200011e60201b60201c565b90506200050d81600087878787620006ba60201b60201c565b60005b84518110156200061a5783818151811062000554577f4e487b7100000000000000000000000000000000000000000000000000000000600052603260045260246000fd5b602002602001015160008087848151811062000599577f4e487b7100000000000000000000000000000000000000000000000000000000600052603260045260246000fd5b6020026020010151815260200190815260200160002060008873ffffffffffffffffffffffffffffffffffffffff1673ffffffffffffffffffffffffffffffffffffffff1681526020019081526020016000206000828254620005fd919062001035565b92505081905550808062000611906200119e565b91505062000510565b508473ffffffffffffffffffffffffffffffffffffffff16600073ffffffffffffffffffffffffffffffffffffffff168273ffffffffffffffffffffffffffffffffffffffff167f4a39dc06d4c0dbc64b70af90fd698a233a518aa5d07e595d983b8c0526c8f7fb87876040516200069492919062000e1f565b60405180910390a4620006b3816000878787876200073060201b60201c565b5050505050565b620006ca620003e760201b60201c565b156200070d576040517f08c379a0000000000000000000000000000000000000000000000000000000008152600401620007049062000ec2565b60405180910390fd5b620007288686868686866200093a60201b620014a01760201c565b505050505050565b6200075c8473ffffffffffffffffffffffffffffffffffffffff166200094260201b620014a81760201c565b1562000932578373ffffffffffffffffffffffffffffffffffffffff1663bc197c8187878686866040518663ffffffff1660e01b8152600401620007a595949392919062000dad565b602060405180830381600087803b158015620007c057600080fd5b505af1925050508015620007f457506040513d601f19601f82011682018060405250810190620007f1919062000b48565b60015b620008a6576200080362001279565b806308c379a014156200086757506200081b62001473565b8062000828575062000869565b806040517f08c379a00000000000000000000000000000000000000000000000000000000081526004016200085e919062000e5a565b60405180910390fd5b505b6040517f08c379a00000000000000000000000000000000000000000000000000000000081526004016200089d9062000e7e565b60405180910390fd5b63bc197c8160e01b7bffffffffffffffffffffffffffffffffffffffffffffffffffffffff1916817bffffffffffffffffffffffffffffffffffffffffffffffffffffffff19161462000930576040517f08c379a0000000000000000000000000000000000000000000000000000000008152600401620009279062000ea0565b60405180910390fd5b505b505050505050565b505050505050565b600080823b905060008111915050919050565b828054620009639062001132565b90600052602060002090601f016020900481019282620009875760008555620009d3565b82601f10620009a257805160ff1916838001178555620009d3565b82800160010185558215620009d3579182015b82811115620009d2578251825591602001919060010190620009b5565b5b509050620009e29190620009e6565b5090565b5b8082111562000a01576000816000905550600101620009e7565b5090565b600062000a1c62000a168462000f95565b62000f6c565b9050808382526020820190508285602086028201111562000a3c57600080fd5b60005b8581101562000a70578162000a55888262000abe565b84526020840193506020830192505060018101905062000a3f565b5050509392505050565b600082601f83011262000a8c57600080fd5b815162000a9e84826020860162000a05565b91505092915050565b60008151905062000ab88162001515565b92915050565b60008151905062000acf816200152f565b92915050565b6000806040838503121562000ae957600080fd5b600083015167ffffffffffffffff81111562000b0457600080fd5b62000b128582860162000a7a565b925050602083015167ffffffffffffffff81111562000b3057600080fd5b62000b3e8582860162000a7a565b9150509250929050565b60006020828403121562000b5b57600080fd5b600062000b6b8482850162000aa7565b91505092915050565b600062000b82838362000d9c565b60208301905092915050565b62000b998162001092565b82525050565b600062000bac8262000fd4565b62000bb8818562001002565b935062000bc58362000fc4565b8060005b8381101562000bfc57815162000be0888262000b74565b975062000bed8362000ff5565b92505060018101905062000bc9565b5085935050505092915050565b600062000c168262000fdf565b62000c22818562001013565b935062000c34818560208601620010fc565b62000c3f816200129e565b840191505092915050565b600062000c578262000fea565b62000c63818562001024565b935062000c75818560208601620010fc565b62000c80816200129e565b840191505092915050565b600062000c9a60348362001024565b915062000ca782620012bc565b604082019050919050565b600062000cc160288362001024565b915062000cce826200130b565b604082019050919050565b600062000ce860108362001024565b915062000cf5826200135a565b602082019050919050565b600062000d0f60198362001024565b915062000d1c8262001383565b602082019050919050565b600062000d3660208362001024565b915062000d4382620013ac565b602082019050919050565b600062000d5d60288362001024565b915062000d6a82620013d5565b604082019050919050565b600062000d8460218362001024565b915062000d918262001424565b604082019050919050565b62000da781620010f2565b82525050565b600060a08201905062000dc4600083018862000b8e565b62000dd3602083018762000b8e565b818103604083015262000de7818662000b9f565b9050818103606083015262000dfd818562000b9f565b9050818103608083015262000e13818462000c09565b90509695505050505050565b6000604082019050818103600083015262000e3b818562000b9f565b9050818103602083015262000e51818462000b9f565b90509392505050565b6000602082019050818103600083015262000e76818462000c4a565b905092915050565b6000602082019050818103600083015262000e998162000c8b565b9050919050565b6000602082019050818103600083015262000ebb8162000cb2565b9050919050565b6000602082019050818103600083015262000edd8162000cd9565b9050919050565b6000602082019050818103600083015262000eff8162000d00565b9050919050565b6000602082019050818103600083015262000f218162000d27565b9050919050565b6000602082019050818103600083015262000f438162000d4e565b9050919050565b6000602082019050818103600083015262000f658162000d75565b9050919050565b600062000f7862000f8b565b905062000f86828262001168565b919050565b6000604051905090565b600067ffffffffffffffff82111562000fb35762000fb26200124a565b5b602082029050602081019050919050565b6000819050602082019050919050565b600081519050919050565b600081519050919050565b600081519050919050565b6000602082019050919050565b600082825260208201905092915050565b600082825260208201905092915050565b600082825260208201905092915050565b60006200104282620010f2565b91506200104f83620010f2565b9250827fffffffffffffffffffffffffffffffffffffffffffffffffffffffffffffffff03821115620010875762001086620011ec565b5b828201905092915050565b60006200109f82620010d2565b9050919050565b60007fffffffff0000000000000000000000000000000000000000000000000000000082169050919050565b600073ffffffffffffffffffffffffffffffffffffffff82169050919050565b6000819050919050565b60005b838110156200111c578082015181840152602081019050620010ff565b838111156200112c576000848401525b50505050565b600060028204905060018216806200114b57607f821691505b602082108114156200116257620011616200121b565b5b50919050565b62001173826200129e565b810181811067ffffffffffffffff821117156200119557620011946200124a565b5b80604052505050565b6000620011ab82620010f2565b91507fffffffffffffffffffffffffffffffffffffffffffffffffffffffffffffffff821415620011e157620011e0620011ec565b5b600182019050919050565b7f4e487b7100000000000000000000000000000000000000000000000000000000600052601160045260246000fd5b7f4e487b7100000000000000000000000000000000000000000000000000000000600052602260045260246000fd5b7f4e487b7100000000000000000000000000000000000000000000000000000000600052604160045260246000fd5b600060033d11156200129b5760046000803e62001298600051620012af565b90505b90565b6000601f19601f8301169050919050565b60008160e01c9050919050565b7f455243313135353a207472616e7366657220746f206e6f6e204552433131353560008201527f526563656976657220696d706c656d656e746572000000000000000000000000602082015250565b7f455243313135353a204552433131353552656365697665722072656a6563746560008201527f6420746f6b656e73000000000000000000000000000000000000000000000000602082015250565b7f5061757361626c653a2070617573656400000000000000000000000000000000600082015250565b7f4163636573736f727920646f6573206e6f742065786973742e00000000000000600082015250565b7f4f776e61626c653a2063616c6c6572206973206e6f7420746865206f776e6572600082015250565b7f455243313135353a2069647320616e6420616d6f756e7473206c656e6774682060008201527f6d69736d61746368000000000000000000000000000000000000000000000000602082015250565b7f455243313135353a206d696e7420746f20746865207a65726f2061646472657360008201527f7300000000000000000000000000000000000000000000000000000000000000602082015250565b600060443d1015620014855762001512565b6200148f62000f8b565b60043d036004823e80513d602482011167ffffffffffffffff82111715620014b957505062001512565b808201805167ffffffffffffffff811115620014d9575050505062001512565b80602083010160043d038501811115620014f857505050505062001512565b620015098260200185018662001168565b82955050505050505b90565b6200152081620010a6565b81146200152c57600080fd5b50565b6200153a81620010f2565b81146200154657600080fd5b50565b61457a80620015596000396000f3fe608060405234801561001057600080fd5b50600436106101575760003560e01c80636b20c454116100c3578063d0512d101161007c578063d0512d101461038e578063e985e9c5146103aa578063eb3b578d146103da578063f242432a146103f6578063f2fde38b14610412578063f5298aca1461042e57610157565b80636b20c45414610306578063715018a6146103225780638456cb591461032c5780638da5cb5b14610336578063a22cb46514610354578063a70082451461037057610157565b80632eb2c2d6116101155780632eb2c2d614610244578063398f6d80146102605780633f4ba83a1461027e5780634e1273f414610288578063542a2dc8146102b85780635c975abb146102e857610157565b8062fdd58e1461015c57806301ffc9a71461018c57806302fe5305146101bc57806307b19e93146101d85780630e89341c146101f657806329dde78514610226575b600080fd5b61017660048036038101906101719190613158565b61044a565b6040516101839190613b43565b60405180910390f35b6101a660048036038101906101a191906132e6565b610513565b6040516101b391906138c6565b60405180910390f35b6101d660048036038101906101d19190613338565b6105f5565b005b6101e061067d565b6040516101ed9190613b43565b60405180910390f35b610210600480360381019061020b9190613379565b610682565b60405161021d91906138e1565b60405180910390f35b61022e610716565b60405161023b9190613b43565b60405180910390f35b61025e60048036038101906102599190612ef7565b61071b565b005b6102686107bc565b6040516102759190613b43565b60405180910390f35b6102866107c1565b005b6102a2600480360381019061029d91906131e3565b610847565b6040516102af919061386d565b60405180910390f35b6102d260048036038101906102cd9190613045565b6109f8565b6040516102df919061386d565b60405180910390f35b6102f0610b80565b6040516102fd91906138c6565b60405180910390f35b610320600480360381019061031b919061309d565b610b97565b005b61032a610c34565b005b610334610cbc565b005b61033e610d42565b60405161034b9190613790565b60405180910390f35b61036e6004803603810190610369919061311c565b610d6c565b005b610378610eed565b6040516103859190613b43565b60405180910390f35b6103a860048036038101906103a3919061324f565b610ef2565b005b6103c460048036038101906103bf9190612ebb565b6110bd565b6040516103d191906138c6565b60405180910390f35b6103f460048036038101906103ef91906133a2565b611151565b005b610410600480360381019061040b9190612fb6565b61126a565b005b61042c60048036038101906104279190612e92565b61130b565b005b61044860048036038101906104439190613194565b611403565b005b60008073ffffffffffffffffffffffffffffffffffffffff168373ffffffffffffffffffffffffffffffffffffffff1614156104bb576040517f08c379a00000000000000000000000000000000000000000000000000000000081526004016104b290613963565b60405180910390fd5b60008083815260200190815260200160002060008473ffffffffffffffffffffffffffffffffffffffff1673ffffffffffffffffffffffffffffffffffffffff16815260200190815260200160002054905092915050565b60007fd9b67a26000000000000000000000000000000000000000000000000000000007bffffffffffffffffffffffffffffffffffffffffffffffffffffffff1916827bffffffffffffffffffffffffffffffffffffffffffffffffffffffff191614806105de57507f0e89341c000000000000000000000000000000000000000000000000000000007bffffffffffffffffffffffffffffffffffffffffffffffffffffffff1916827bffffffffffffffffffffffffffffffffffffffffffffffffffffffff1916145b806105ee57506105ed826114bb565b5b9050919050565b6105fd611525565b73ffffffffffffffffffffffffffffffffffffffff1661061b610d42565b73ffffffffffffffffffffffffffffffffffffffff1614610671576040517f08c379a000000000000000000000000000000000000000000000000000000000815260040161066890613aa3565b60405180910390fd5b61067a8161152d565b50565b600381565b60606002805461069190613de3565b80601f01602080910402602001604051908101604052809291908181526020018280546106bd90613de3565b801561070a5780601f106106df5761010080835404028352916020019161070a565b820191906000526020600020905b8154815290600101906020018083116106ed57829003601f168201915b50505050509050919050565b600481565b610723611525565b73ffffffffffffffffffffffffffffffffffffffff168573ffffffffffffffffffffffffffffffffffffffff161480610769575061076885610763611525565b6110bd565b5b6107a8576040517f08c379a000000000000000000000000000000000000000000000000000000000815260040161079f90613a23565b60405180910390fd5b6107b58585858585611547565b5050505050565b600281565b6107c9611525565b73ffffffffffffffffffffffffffffffffffffffff166107e7610d42565b73ffffffffffffffffffffffffffffffffffffffff161461083d576040517f08c379a000000000000000000000000000000000000000000000000000000000815260040161083490613aa3565b60405180910390fd5b6108456118a7565b565b6060815183511461088d576040517f08c379a000000000000000000000000000000000000000000000000000000000815260040161088490613ae3565b60405180910390fd5b6000835167ffffffffffffffff8111156108d0577f4e487b7100000000000000000000000000000000000000000000000000000000600052604160045260246000fd5b6040519080825280602002602001820160405280156108fe5781602001602082028036833780820191505090505b50905060005b84518110156109ed57610997858281518110610949577f4e487b7100000000000000000000000000000000000000000000000000000000600052603260045260246000fd5b602002602001015185838151811061098a577f4e487b7100000000000000000000000000000000000000000000000000000000600052603260045260246000fd5b602002602001015161044a565b8282815181106109d0577f4e487b7100000000000000000000000000000000000000000000000000000000600052603260045260246000fd5b602002602001018181525050806109e690613e46565b9050610904565b508091505092915050565b6060610a02610b80565b15610a42576040517f08c379a0000000000000000000000000000000000000000000000000000000008152600401610a39906139e3565b60405180910390fd5b6000600167ffffffffffffffff811115610a85577f4e487b7100000000000000000000000000000000000000000000000000000000600052604160045260246000fd5b604051908082528060200260200182016040528015610ab35781602001602082028036833780820191505090505b5090508481600081518110610af1577f4e487b7100000000000000000000000000000000000000000000000000000000600052603260045260246000fd5b602002602001019073ffffffffffffffffffffffffffffffffffffffff16908173ffffffffffffffffffffffffffffffffffffffff1681525050610b7681858580806020026020016040519081016040528093929190818152602001838360200280828437600081840152601f19601f82011690508083019250505050505050610847565b9150509392505050565b6000600360149054906101000a900460ff16905090565b610b9f611525565b73ffffffffffffffffffffffffffffffffffffffff168373ffffffffffffffffffffffffffffffffffffffff161480610be55750610be483610bdf611525565b6110bd565b5b610c24576040517f08c379a0000000000000000000000000000000000000000000000000000000008152600401610c1b906139c3565b60405180910390fd5b610c2f838383611949565b505050565b610c3c611525565b73ffffffffffffffffffffffffffffffffffffffff16610c5a610d42565b73ffffffffffffffffffffffffffffffffffffffff1614610cb0576040517f08c379a0000000000000000000000000000000000000000000000000000000008152600401610ca790613aa3565b60405180910390fd5b610cba6000611c46565b565b610cc4611525565b73ffffffffffffffffffffffffffffffffffffffff16610ce2610d42565b73ffffffffffffffffffffffffffffffffffffffff1614610d38576040517f08c379a0000000000000000000000000000000000000000000000000000000008152600401610d2f90613aa3565b60405180910390fd5b610d40611d0c565b565b6000600360009054906101000a900473ffffffffffffffffffffffffffffffffffffffff16905090565b8173ffffffffffffffffffffffffffffffffffffffff16610d8b611525565b73ffffffffffffffffffffffffffffffffffffffff161415610de2576040517f08c379a0000000000000000000000000000000000000000000000000000000008152600401610dd990613ac3565b60405180910390fd5b8060016000610def611525565b73ffffffffffffffffffffffffffffffffffffffff1673ffffffffffffffffffffffffffffffffffffffff16815260200190815260200160002060008473ffffffffffffffffffffffffffffffffffffffff1673ffffffffffffffffffffffffffffffffffffffff16815260200190815260200160002060006101000a81548160ff0219169083151502179055508173ffffffffffffffffffffffffffffffffffffffff16610e9c611525565b73ffffffffffffffffffffffffffffffffffffffff167f17307eab39ab6107e8899845ad3d59bd9653f200f220920489ca2b5937696c3183604051610ee191906138c6565b60405180910390a35050565b600181565b610efa610b80565b15610f3a576040517f08c379a0000000000000000000000000000000000000000000000000000000008152600401610f31906139e3565b60405180910390fd5b610f42611525565b73ffffffffffffffffffffffffffffffffffffffff16610f60610d42565b73ffffffffffffffffffffffffffffffffffffffff1614610fb6576040517f08c379a0000000000000000000000000000000000000000000000000000000008152600401610fad90613aa3565b60405180910390fd5b60008351905060005b818110156110aa576000858281518110611002577f4e487b7100000000000000000000000000000000000000000000000000000000600052603260045260246000fd5b60200260200101511180156110585750600485828151811061104d577f4e487b7100000000000000000000000000000000000000000000000000000000600052603260045260246000fd5b602002602001015111155b611097576040517f08c379a000000000000000000000000000000000000000000000000000000000815260040161108e90613a83565b60405180910390fd5b80806110a290613e46565b915050610fbf565b506110b733858585611daf565b50505050565b6000600160008473ffffffffffffffffffffffffffffffffffffffff1673ffffffffffffffffffffffffffffffffffffffff16815260200190815260200160002060008373ffffffffffffffffffffffffffffffffffffffff1673ffffffffffffffffffffffffffffffffffffffff16815260200190815260200160002060009054906101000a900460ff16905092915050565b611159610b80565b15611199576040517f08c379a0000000000000000000000000000000000000000000000000000000008152600401611190906139e3565b60405180910390fd5b6111a1611525565b73ffffffffffffffffffffffffffffffffffffffff166111bf610d42565b73ffffffffffffffffffffffffffffffffffffffff1614611215576040517f08c379a000000000000000000000000000000000000000000000000000000000815260040161120c90613aa3565b60405180910390fd5b6004821115611259576040517f08c379a000000000000000000000000000000000000000000000000000000000815260040161125090613a83565b60405180910390fd5b6112663383600184612019565b5050565b611272611525565b73ffffffffffffffffffffffffffffffffffffffff168573ffffffffffffffffffffffffffffffffffffffff1614806112b857506112b7856112b2611525565b6110bd565b5b6112f7576040517f08c379a00000000000000000000000000000000000000000000000000000000081526004016112ee906139c3565b60405180910390fd5b61130485858585856121af565b5050505050565b611313611525565b73ffffffffffffffffffffffffffffffffffffffff16611331610d42565b73ffffffffffffffffffffffffffffffffffffffff1614611387576040517f08c379a000000000000000000000000000000000000000000000000000000000815260040161137e90613aa3565b60405180910390fd5b600073ffffffffffffffffffffffffffffffffffffffff168173ffffffffffffffffffffffffffffffffffffffff1614156113f7576040517f08c379a00000000000000000000000000000000000000000000000000000000081526004016113ee90613983565b60405180910390fd5b61140081611c46565b50565b61140b611525565b73ffffffffffffffffffffffffffffffffffffffff168373ffffffffffffffffffffffffffffffffffffffff16148061145157506114508361144b611525565b6110bd565b5b611490576040517f08c379a0000000000000000000000000000000000000000000000000000000008152600401611487906139c3565b60405180910390fd5b61149b838383612431565b505050565b505050505050565b600080823b905060008111915050919050565b60007f01ffc9a7000000000000000000000000000000000000000000000000000000007bffffffffffffffffffffffffffffffffffffffffffffffffffffffff1916827bffffffffffffffffffffffffffffffffffffffffffffffffffffffff1916149050919050565b600033905090565b8060029080519060200190611543929190612b40565b5050565b815183511461158b576040517f08c379a000000000000000000000000000000000000000000000000000000000815260040161158290613b03565b60405180910390fd5b600073ffffffffffffffffffffffffffffffffffffffff168473ffffffffffffffffffffffffffffffffffffffff1614156115fb576040517f08c379a00000000000000000000000000000000000000000000000000000000081526004016115f290613a03565b60405180910390fd5b6000611605611525565b905061161581878787878761264e565b60005b845181101561181257600085828151811061165c577f4e487b7100000000000000000000000000000000000000000000000000000000600052603260045260246000fd5b6020026020010151905060008583815181106116a1577f4e487b7100000000000000000000000000000000000000000000000000000000600052603260045260246000fd5b60200260200101519050600080600084815260200190815260200160002060008b73ffffffffffffffffffffffffffffffffffffffff1673ffffffffffffffffffffffffffffffffffffffff16815260200190815260200160002054905081811015611742576040517f08c379a000000000000000000000000000000000000000000000000000000000815260040161173990613a63565b60405180910390fd5b81810360008085815260200190815260200160002060008c73ffffffffffffffffffffffffffffffffffffffff1673ffffffffffffffffffffffffffffffffffffffff168152602001908152602001600020819055508160008085815260200190815260200160002060008b73ffffffffffffffffffffffffffffffffffffffff1673ffffffffffffffffffffffffffffffffffffffff16815260200190815260200160002060008282546117f79190613cd7565b925050819055505050508061180b90613e46565b9050611618565b508473ffffffffffffffffffffffffffffffffffffffff168673ffffffffffffffffffffffffffffffffffffffff168273ffffffffffffffffffffffffffffffffffffffff167f4a39dc06d4c0dbc64b70af90fd698a233a518aa5d07e595d983b8c0526c8f7fb878760405161188992919061388f565b60405180910390a461189f8187878787876126ac565b505050505050565b6118af610b80565b6118ee576040517f08c379a00000000000000000000000000000000000000000000000000000000081526004016118e590613943565b60405180910390fd5b6000600360146101000a81548160ff0219169083151502179055507f5db9ee0a495bf2e6ff9c91a7834c1ba4fdd244a5e8aa4e537bd38aeae4b073aa611932611525565b60405161193f9190613790565b60405180910390a1565b600073ffffffffffffffffffffffffffffffffffffffff168373ffffffffffffffffffffffffffffffffffffffff1614156119b9576040517f08c379a00000000000000000000000000000000000000000000000000000000081526004016119b090613a43565b60405180910390fd5b80518251146119fd576040517f08c379a00000000000000000000000000000000000000000000000000000000081526004016119f490613b03565b60405180910390fd5b6000611a07611525565b9050611a278185600086866040518060200160405280600081525061264e565b60005b8351811015611bc0576000848281518110611a6e577f4e487b7100000000000000000000000000000000000000000000000000000000600052603260045260246000fd5b602002602001015190506000848381518110611ab3577f4e487b7100000000000000000000000000000000000000000000000000000000600052603260045260246000fd5b60200260200101519050600080600084815260200190815260200160002060008973ffffffffffffffffffffffffffffffffffffffff1673ffffffffffffffffffffffffffffffffffffffff16815260200190815260200160002054905081811015611b54576040517f08c379a0000000000000000000000000000000000000000000000000000000008152600401611b4b906139a3565b60405180910390fd5b81810360008085815260200190815260200160002060008a73ffffffffffffffffffffffffffffffffffffffff1673ffffffffffffffffffffffffffffffffffffffff168152602001908152602001600020819055505050508080611bb890613e46565b915050611a2a565b50600073ffffffffffffffffffffffffffffffffffffffff168473ffffffffffffffffffffffffffffffffffffffff168273ffffffffffffffffffffffffffffffffffffffff167f4a39dc06d4c0dbc64b70af90fd698a233a518aa5d07e595d983b8c0526c8f7fb8686604051611c3892919061388f565b60405180910390a450505050565b6000600360009054906101000a900473ffffffffffffffffffffffffffffffffffffffff16905081600360006101000a81548173ffffffffffffffffffffffffffffffffffffffff021916908373ffffffffffffffffffffffffffffffffffffffff1602179055508173ffffffffffffffffffffffffffffffffffffffff168173ffffffffffffffffffffffffffffffffffffffff167f8be0079c531659141344cd1fd0a4f28419497f9722a3daafe3b4186f6b6457e060405160405180910390a35050565b611d14610b80565b15611d54576040517f08c379a0000000000000000000000000000000000000000000000000000000008152600401611d4b906139e3565b60405180910390fd5b6001600360146101000a81548160ff0219169083151502179055507f62e78cea01bee320cd4e420270b5ea74000d11b0c9f74754ebdbfc544b05a258611d98611525565b604051611da59190613790565b60405180910390a1565b600073ffffffffffffffffffffffffffffffffffffffff168473ffffffffffffffffffffffffffffffffffffffff161415611e1f576040517f08c379a0000000000000000000000000000000000000000000000000000000008152600401611e1690613b23565b60405180910390fd5b8151835114611e63576040517f08c379a0000000000000000000000000000000000000000000000000000000008152600401611e5a90613b03565b60405180910390fd5b6000611e6d611525565b9050611e7e8160008787878761264e565b60005b8451811015611f8357838181518110611ec3577f4e487b7100000000000000000000000000000000000000000000000000000000600052603260045260246000fd5b6020026020010151600080878481518110611f07577f4e487b7100000000000000000000000000000000000000000000000000000000600052603260045260246000fd5b6020026020010151815260200190815260200160002060008873ffffffffffffffffffffffffffffffffffffffff1673ffffffffffffffffffffffffffffffffffffffff1681526020019081526020016000206000828254611f699190613cd7565b925050819055508080611f7b90613e46565b915050611e81565b508473ffffffffffffffffffffffffffffffffffffffff16600073ffffffffffffffffffffffffffffffffffffffff168273ffffffffffffffffffffffffffffffffffffffff167f4a39dc06d4c0dbc64b70af90fd698a233a518aa5d07e595d983b8c0526c8f7fb8787604051611ffb92919061388f565b60405180910390a4612012816000878787876126ac565b5050505050565b600073ffffffffffffffffffffffffffffffffffffffff168473ffffffffffffffffffffffffffffffffffffffff161415612089576040517f08c379a000000000000000000000000000000000000000000000000000000000815260040161208090613b23565b60405180910390fd5b6000612093611525565b90506120b4816000876120a588612893565b6120ae88612893565b8761264e565b8260008086815260200190815260200160002060008773ffffffffffffffffffffffffffffffffffffffff1673ffffffffffffffffffffffffffffffffffffffff16815260200190815260200160002060008282546121139190613cd7565b925050819055508473ffffffffffffffffffffffffffffffffffffffff16600073ffffffffffffffffffffffffffffffffffffffff168273ffffffffffffffffffffffffffffffffffffffff167fc3d58168c5ae7397731d063d5bbf3d657854427343f4c083240f7aacaa2d0f628787604051612191929190613b5e565b60405180910390a46121a881600087878787612959565b5050505050565b600073ffffffffffffffffffffffffffffffffffffffff168473ffffffffffffffffffffffffffffffffffffffff16141561221f576040517f08c379a000000000000000000000000000000000000000000000000000000000815260040161221690613a03565b60405180910390fd5b6000612229611525565b905061224981878761223a88612893565b61224388612893565b8761264e565b600080600086815260200190815260200160002060008873ffffffffffffffffffffffffffffffffffffffff1673ffffffffffffffffffffffffffffffffffffffff168152602001908152602001600020549050838110156122e0576040517f08c379a00000000000000000000000000000000000000000000000000000000081526004016122d790613a63565b60405180910390fd5b83810360008087815260200190815260200160002060008973ffffffffffffffffffffffffffffffffffffffff1673ffffffffffffffffffffffffffffffffffffffff168152602001908152602001600020819055508360008087815260200190815260200160002060008873ffffffffffffffffffffffffffffffffffffffff1673ffffffffffffffffffffffffffffffffffffffff16815260200190815260200160002060008282546123959190613cd7565b925050819055508573ffffffffffffffffffffffffffffffffffffffff168773ffffffffffffffffffffffffffffffffffffffff168373ffffffffffffffffffffffffffffffffffffffff167fc3d58168c5ae7397731d063d5bbf3d657854427343f4c083240f7aacaa2d0f628888604051612412929190613b5e565b60405180910390a4612428828888888888612959565b50505050505050565b600073ffffffffffffffffffffffffffffffffffffffff168373ffffffffffffffffffffffffffffffffffffffff1614156124a1576040517f08c379a000000000000000000000000000000000000000000000000000000000815260040161249890613a43565b60405180910390fd5b60006124ab611525565b90506124db818560006124bd87612893565b6124c687612893565b6040518060200160405280600081525061264e565b600080600085815260200190815260200160002060008673ffffffffffffffffffffffffffffffffffffffff1673ffffffffffffffffffffffffffffffffffffffff16815260200190815260200160002054905082811015612572576040517f08c379a0000000000000000000000000000000000000000000000000000000008152600401612569906139a3565b60405180910390fd5b82810360008086815260200190815260200160002060008773ffffffffffffffffffffffffffffffffffffffff1673ffffffffffffffffffffffffffffffffffffffff16815260200190815260200160002081905550600073ffffffffffffffffffffffffffffffffffffffff168573ffffffffffffffffffffffffffffffffffffffff168373ffffffffffffffffffffffffffffffffffffffff167fc3d58168c5ae7397731d063d5bbf3d657854427343f4c083240f7aacaa2d0f62878760405161263f929190613b5e565b60405180910390a45050505050565b612656610b80565b15612696576040517f08c379a000000000000000000000000000000000000000000000000000000000815260040161268d906139e3565b60405180910390fd5b6126a48686868686866114a0565b505050505050565b6126cb8473ffffffffffffffffffffffffffffffffffffffff166114a8565b1561288b578373ffffffffffffffffffffffffffffffffffffffff1663bc197c8187878686866040518663ffffffff1660e01b81526004016127119594939291906137ab565b602060405180830381600087803b15801561272b57600080fd5b505af192505050801561275c57506040513d601f19601f82011682018060405250810190612759919061330f565b60015b61280257612768613f1c565b806308c379a014156127c5575061277d614452565b8061278857506127c7565b806040517f08c379a00000000000000000000000000000000000000000000000000000000081526004016127bc91906138e1565b60405180910390fd5b505b6040517f08c379a00000000000000000000000000000000000000000000000000000000081526004016127f990613903565b60405180910390fd5b63bc197c8160e01b7bffffffffffffffffffffffffffffffffffffffffffffffffffffffff1916817bffffffffffffffffffffffffffffffffffffffffffffffffffffffff191614612889576040517f08c379a000000000000000000000000000000000000000000000000000000000815260040161288090613923565b60405180910390fd5b505b505050505050565b60606000600167ffffffffffffffff8111156128d8577f4e487b7100000000000000000000000000000000000000000000000000000000600052604160045260246000fd5b6040519080825280602002602001820160405280156129065781602001602082028036833780820191505090505b5090508281600081518110612944577f4e487b7100000000000000000000000000000000000000000000000000000000600052603260045260246000fd5b60200260200101818152505080915050919050565b6129788473ffffffffffffffffffffffffffffffffffffffff166114a8565b15612b38578373ffffffffffffffffffffffffffffffffffffffff1663f23a6e6187878686866040518663ffffffff1660e01b81526004016129be959493929190613813565b602060405180830381600087803b1580156129d857600080fd5b505af1925050508015612a0957506040513d601f19601f82011682018060405250810190612a06919061330f565b60015b612aaf57612a15613f1c565b806308c379a01415612a725750612a2a614452565b80612a355750612a74565b806040517f08c379a0000000000000000000000000000000000000000000000000000000008152600401612a6991906138e1565b60405180910390fd5b505b6040517f08c379a0000000000000000000000000000000000000000000000000000000008152600401612aa690613903565b60405180910390fd5b63f23a6e6160e01b7bffffffffffffffffffffffffffffffffffffffffffffffffffffffff1916817bffffffffffffffffffffffffffffffffffffffffffffffffffffffff191614612b36576040517f08c379a0000000000000000000000000000000000000000000000000000000008152600401612b2d90613923565b60405180910390fd5b505b505050505050565b828054612b4c90613de3565b90600052602060002090601f016020900481019282612b6e5760008555612bb5565b82601f10612b8757805160ff1916838001178555612bb5565b82800160010185558215612bb5579182015b82811115612bb4578251825591602001919060010190612b99565b5b509050612bc29190612bc6565b5090565b5b80821115612bdf576000816000905550600101612bc7565b5090565b6000612bf6612bf184613bac565b613b87565b90508083825260208201905082856020860282011115612c1557600080fd5b60005b85811015612c455781612c2b8882612d37565b845260208401935060208301925050600181019050612c18565b5050509392505050565b6000612c62612c5d84613bd8565b613b87565b90508083825260208201905082856020860282011115612c8157600080fd5b60005b85811015612cb15781612c978882612e7d565b845260208401935060208301925050600181019050612c84565b5050509392505050565b6000612cce612cc984613c04565b613b87565b905082815260208101848484011115612ce657600080fd5b612cf1848285613da1565b509392505050565b6000612d0c612d0784613c35565b613b87565b905082815260208101848484011115612d2457600080fd5b612d2f848285613da1565b509392505050565b600081359050612d46816144e8565b92915050565b600082601f830112612d5d57600080fd5b8135612d6d848260208601612be3565b91505092915050565b60008083601f840112612d8857600080fd5b8235905067ffffffffffffffff811115612da157600080fd5b602083019150836020820283011115612db957600080fd5b9250929050565b600082601f830112612dd157600080fd5b8135612de1848260208601612c4f565b91505092915050565b600081359050612df9816144ff565b92915050565b600081359050612e0e81614516565b92915050565b600081519050612e2381614516565b92915050565b600082601f830112612e3a57600080fd5b8135612e4a848260208601612cbb565b91505092915050565b600082601f830112612e6457600080fd5b8135612e74848260208601612cf9565b91505092915050565b600081359050612e8c8161452d565b92915050565b600060208284031215612ea457600080fd5b6000612eb284828501612d37565b91505092915050565b60008060408385031215612ece57600080fd5b6000612edc85828601612d37565b9250506020612eed85828601612d37565b9150509250929050565b600080600080600060a08688031215612f0f57600080fd5b6000612f1d88828901612d37565b9550506020612f2e88828901612d37565b945050604086013567ffffffffffffffff811115612f4b57600080fd5b612f5788828901612dc0565b935050606086013567ffffffffffffffff811115612f7457600080fd5b612f8088828901612dc0565b925050608086013567ffffffffffffffff811115612f9d57600080fd5b612fa988828901612e29565b9150509295509295909350565b600080600080600060a08688031215612fce57600080fd5b6000612fdc88828901612d37565b9550506020612fed88828901612d37565b9450506040612ffe88828901612e7d565b935050606061300f88828901612e7d565b925050608086013567ffffffffffffffff81111561302c57600080fd5b61303888828901612e29565b9150509295509295909350565b60008060006040848603121561305a57600080fd5b600061306886828701612d37565b935050602084013567ffffffffffffffff81111561308557600080fd5b61309186828701612d76565b92509250509250925092565b6000806000606084860312156130b257600080fd5b60006130c086828701612d37565b935050602084013567ffffffffffffffff8111156130dd57600080fd5b6130e986828701612dc0565b925050604084013567ffffffffffffffff81111561310657600080fd5b61311286828701612dc0565b9150509250925092565b6000806040838503121561312f57600080fd5b600061313d85828601612d37565b925050602061314e85828601612dea565b9150509250929050565b6000806040838503121561316b57600080fd5b600061317985828601612d37565b925050602061318a85828601612e7d565b9150509250929050565b6000806000606084860312156131a957600080fd5b60006131b786828701612d37565b93505060206131c886828701612e7d565b92505060406131d986828701612e7d565b9150509250925092565b600080604083850312156131f657600080fd5b600083013567ffffffffffffffff81111561321057600080fd5b61321c85828601612d4c565b925050602083013567ffffffffffffffff81111561323957600080fd5b61324585828601612dc0565b9150509250929050565b60008060006060848603121561326457600080fd5b600084013567ffffffffffffffff81111561327e57600080fd5b61328a86828701612dc0565b935050602084013567ffffffffffffffff8111156132a757600080fd5b6132b386828701612dc0565b925050604084013567ffffffffffffffff8111156132d057600080fd5b6132dc86828701612e29565b9150509250925092565b6000602082840312156132f857600080fd5b600061330684828501612dff565b91505092915050565b60006020828403121561332157600080fd5b600061332f84828501612e14565b91505092915050565b60006020828403121561334a57600080fd5b600082013567ffffffffffffffff81111561336457600080fd5b61337084828501612e53565b91505092915050565b60006020828403121561338b57600080fd5b600061339984828501612e7d565b91505092915050565b600080604083850312156133b557600080fd5b60006133c385828601612e7d565b925050602083013567ffffffffffffffff8111156133e057600080fd5b6133ec85828601612e29565b9150509250929050565b60006134028383613772565b60208301905092915050565b61341781613d2d565b82525050565b600061342882613c76565b6134328185613ca4565b935061343d83613c66565b8060005b8381101561346e57815161345588826133f6565b975061346083613c97565b925050600181019050613441565b5085935050505092915050565b61348481613d3f565b82525050565b600061349582613c81565b61349f8185613cb5565b93506134af818560208601613db0565b6134b881613f3e565b840191505092915050565b60006134ce82613c8c565b6134d88185613cc6565b93506134e8818560208601613db0565b6134f181613f3e565b840191505092915050565b6000613509603483613cc6565b915061351482613f5c565b604082019050919050565b600061352c602883613cc6565b915061353782613fab565b604082019050919050565b600061354f601483613cc6565b915061355a82613ffa565b602082019050919050565b6000613572602b83613cc6565b915061357d82614023565b604082019050919050565b6000613595602683613cc6565b91506135a082614072565b604082019050919050565b60006135b8602483613cc6565b91506135c3826140c1565b604082019050919050565b60006135db602983613cc6565b91506135e682614110565b604082019050919050565b60006135fe601083613cc6565b91506136098261415f565b602082019050919050565b6000613621602583613cc6565b915061362c82614188565b604082019050919050565b6000613644603283613cc6565b915061364f826141d7565b604082019050919050565b6000613667602383613cc6565b915061367282614226565b604082019050919050565b600061368a602a83613cc6565b915061369582614275565b604082019050919050565b60006136ad601983613cc6565b91506136b8826142c4565b602082019050919050565b60006136d0602083613cc6565b91506136db826142ed565b602082019050919050565b60006136f3602983613cc6565b91506136fe82614316565b604082019050919050565b6000613716602983613cc6565b915061372182614365565b604082019050919050565b6000613739602883613cc6565b9150613744826143b4565b604082019050919050565b600061375c602183613cc6565b915061376782614403565b604082019050919050565b61377b81613d97565b82525050565b61378a81613d97565b82525050565b60006020820190506137a5600083018461340e565b92915050565b600060a0820190506137c0600083018861340e565b6137cd602083018761340e565b81810360408301526137df818661341d565b905081810360608301526137f3818561341d565b90508181036080830152613807818461348a565b90509695505050505050565b600060a082019050613828600083018861340e565b613835602083018761340e565b6138426040830186613781565b61384f6060830185613781565b8181036080830152613861818461348a565b90509695505050505050565b60006020820190508181036000830152613887818461341d565b905092915050565b600060408201905081810360008301526138a9818561341d565b905081810360208301526138bd818461341d565b90509392505050565b60006020820190506138db600083018461347b565b92915050565b600060208201905081810360008301526138fb81846134c3565b905092915050565b6000602082019050818103600083015261391c816134fc565b9050919050565b6000602082019050818103600083015261393c8161351f565b9050919050565b6000602082019050818103600083015261395c81613542565b9050919050565b6000602082019050818103600083015261397c81613565565b9050919050565b6000602082019050818103600083015261399c81613588565b9050919050565b600060208201905081810360008301526139bc816135ab565b9050919050565b600060208201905081810360008301526139dc816135ce565b9050919050565b600060208201905081810360008301526139fc816135f1565b9050919050565b60006020820190508181036000830152613a1c81613614565b9050919050565b60006020820190508181036000830152613a3c81613637565b9050919050565b60006020820190508181036000830152613a5c8161365a565b9050919050565b60006020820190508181036000830152613a7c8161367d565b9050919050565b60006020820190508181036000830152613a9c816136a0565b9050919050565b60006020820190508181036000830152613abc816136c3565b9050919050565b60006020820190508181036000830152613adc816136e6565b9050919050565b60006020820190508181036000830152613afc81613709565b9050919050565b60006020820190508181036000830152613b1c8161372c565b9050919050565b60006020820190508181036000830152613b3c8161374f565b9050919050565b6000602082019050613b586000830184613781565b92915050565b6000604082019050613b736000830185613781565b613b806020830184613781565b9392505050565b6000613b91613ba2565b9050613b9d8282613e15565b919050565b6000604051905090565b600067ffffffffffffffff821115613bc757613bc6613eed565b5b602082029050602081019050919050565b600067ffffffffffffffff821115613bf357613bf2613eed565b5b602082029050602081019050919050565b600067ffffffffffffffff821115613c1f57613c1e613eed565b5b613c2882613f3e565b9050602081019050919050565b600067ffffffffffffffff821115613c5057613c4f613eed565b5b613c5982613f3e565b9050602081019050919050565b6000819050602082019050919050565b600081519050919050565b600081519050919050565b600081519050919050565b6000602082019050919050565b600082825260208201905092915050565b600082825260208201905092915050565b600082825260208201905092915050565b6000613ce282613d97565b9150613ced83613d97565b9250827fffffffffffffffffffffffffffffffffffffffffffffffffffffffffffffffff03821115613d2257613d21613e8f565b5b828201905092915050565b6000613d3882613d77565b9050919050565b60008115159050919050565b60007fffffffff0000000000000000000000000000000000000000000000000000000082169050919050565b600073ffffffffffffffffffffffffffffffffffffffff82169050919050565b6000819050919050565b82818337600083830152505050565b60005b83811015613dce578082015181840152602081019050613db3565b83811115613ddd576000848401525b50505050565b60006002820490506001821680613dfb57607f821691505b60208210811415613e0f57613e0e613ebe565b5b50919050565b613e1e82613f3e565b810181811067ffffffffffffffff82111715613e3d57613e3c613eed565b5b80604052505050565b6000613e5182613d97565b91507fffffffffffffffffffffffffffffffffffffffffffffffffffffffffffffffff821415613e8457613e83613e8f565b5b600182019050919050565b7f4e487b7100000000000000000000000000000000000000000000000000000000600052601160045260246000fd5b7f4e487b7100000000000000000000000000000000000000000000000000000000600052602260045260246000fd5b7f4e487b7100000000000000000000000000000000000000000000000000000000600052604160045260246000fd5b600060033d1115613f3b5760046000803e613f38600051613f4f565b90505b90565b6000601f19601f8301169050919050565b60008160e01c9050919050565b7f455243313135353a207472616e7366657220746f206e6f6e204552433131353560008201527f526563656976657220696d706c656d656e746572000000000000000000000000602082015250565b7f455243313135353a204552433131353552656365697665722072656a6563746560008201527f6420746f6b656e73000000000000000000000000000000000000000000000000602082015250565b7f5061757361626c653a206e6f7420706175736564000000000000000000000000600082015250565b7f455243313135353a2062616c616e636520717565727920666f7220746865207a60008201527f65726f2061646472657373000000000000000000000000000000000000000000602082015250565b7f4f776e61626c653a206e6577206f776e657220697320746865207a65726f206160008201527f6464726573730000000000000000000000000000000000000000000000000000602082015250565b7f455243313135353a206275726e20616d6f756e7420657863656564732062616c60008201527f616e636500000000000000000000000000000000000000000000000000000000602082015250565b7f455243313135353a2063616c6c6572206973206e6f74206f776e6572206e6f7260008201527f20617070726f7665640000000000000000000000000000000000000000000000602082015250565b7f5061757361626c653a2070617573656400000000000000000000000000000000600082015250565b7f455243313135353a207472616e7366657220746f20746865207a65726f20616460008201527f6472657373000000000000000000000000000000000000000000000000000000602082015250565b7f455243313135353a207472616e736665722063616c6c6572206973206e6f742060008201527f6f776e6572206e6f7220617070726f7665640000000000000000000000000000602082015250565b7f455243313135353a206275726e2066726f6d20746865207a65726f206164647260008201527f6573730000000000000000000000000000000000000000000000000000000000602082015250565b7f455243313135353a20696e73756666696369656e742062616c616e636520666f60008201527f72207472616e7366657200000000000000000000000000000000000000000000602082015250565b7f4163636573736f727920646f6573206e6f742065786973742e00000000000000600082015250565b7f4f776e61626c653a2063616c6c6572206973206e6f7420746865206f776e6572600082015250565b7f455243313135353a2073657474696e6720617070726f76616c2073746174757360008201527f20666f722073656c660000000000000000000000000000000000000000000000602082015250565b7f455243313135353a206163636f756e747320616e6420696473206c656e67746860008201527f206d69736d617463680000000000000000000000000000000000000000000000602082015250565b7f455243313135353a2069647320616e6420616d6f756e7473206c656e6774682060008201527f6d69736d61746368000000000000000000000000000000000000000000000000602082015250565b7f455243313135353a206d696e7420746f20746865207a65726f2061646472657360008201527f7300000000000000000000000000000000000000000000000000000000000000602082015250565b600060443d1015614462576144e5565b61446a613ba2565b60043d036004823e80513d602482011167ffffffffffffffff821117156144925750506144e5565b808201805167ffffffffffffffff8111156144b057505050506144e5565b80602083010160043d0385018111156144cd5750505050506144e5565b6144dc82602001850186613e15565b82955050505050505b90565b6144f181613d2d565b81146144fc57600080fd5b50565b61450881613d3f565b811461451357600080fd5b50565b61451f81613d4b565b811461452a57600080fd5b50565b61453681613d97565b811461454157600080fd5b5056fea26469706673582212209028c1f941752cfc41e543f9d40526f4c99e0192d837e7f35efd16d164674f5364736f6c6343000802003368747470733a2f2f676174657761792e70696e6174612e636c6f75642f697066732f516d6638704b5343356d56366e545653523373684a5170396537436756724e714b4739385a434b754d6d5042506d2f6d657461646174612f6170692f6974656d2f7b69647d2e6a736f6e",
  "immutableReferences": {},
  "source": "// SPDX-License-Identifier: MIT\npragma solidity ^0.8.2;\n\nimport \"@openzeppelin/contracts/token/ERC1155/ERC1155.sol\";\nimport \"@openzeppelin/contracts/access/Ownable.sol\";\nimport \"@openzeppelin/contracts/security/Pausable.sol\";\nimport \"@openzeppelin/contracts/token/ERC1155/extensions/ERC1155Burnable.sol\";\n// import \"@openzeppelin/contracts/security/ReentrancyGuard.sol\";\n\ncontract Accessory is ERC1155, Ownable, Pausable, ERC1155Burnable {\n    uint256 private SALETIME = 1634451621; // 7PM EDT on November 1st\n    uint256 private PRICE = .08 ether; // .08 eth\n    uint256 public constant CLASS_BUZZSAW = 1;\n    uint256 public constant CLASS_SWORD = 2;\n    uint256 public constant CLASS_SHIELD = 3;\n    uint256 public constant CLASS_AI_CHIP = 4;\n\n\n    constructor(uint256[] memory _clazzes, uint256[] memory _amounts) ERC1155(\"https://gateway.pinata.cloud/ipfs/Qmf8pKSC5mV6nTVSR3shJQp9e7CgVrNqKG98ZCKuMmPBPm/metadata/api/item/{id}.json\") {\n        mintBatchAccessories(_clazzes, _amounts, \"0x000\");\n    }\n\n    function setURI(string memory newuri) public onlyOwner {\n        _setURI(newuri);\n    }\n\n    function pause() public onlyOwner {\n        _pause();\n    }\n\n    function unpause() public onlyOwner {\n        _unpause();\n    }\n\n    function mintAccessory(uint256 _clazz, bytes memory _data) public whenNotPaused onlyOwner {\n        require(_clazz <= 4, \"Accessory does not exist.\");\n        _mint(msg.sender, _clazz, 1, _data);\n    }\n\n    function mintBatchAccessories(uint256[] memory _ids, uint256[] memory _amounts, bytes memory _data) public whenNotPaused onlyOwner {\n        uint256 _idsLength = _ids.length;\n        for (uint256 i=0; i<_idsLength; i++) {\n            require(_ids[i] > 0 && _ids[i] <= 4, \"Accessory does not exist.\");\n        }\n        _mintBatch(msg.sender, _ids, _amounts, _data);\n    }\n\n    function getWalletAccessories(address wallet, uint256[] calldata ids) public view whenNotPaused returns (uint256[] memory) {\n        address[] memory wal = new address[](1);\n        wal[0] = wallet;\n        return balanceOfBatch(wal, ids);\n    }\n\n    function _beforeTokenTransfer(address operator, address from, address to, uint256[] memory ids, uint256[] memory amounts, bytes memory data) internal whenNotPaused override {\n        super._beforeTokenTransfer(operator, from, to, ids, amounts, data);\n    }\n\n}\n\n",
  "sourcePath": "/home/seandevs/workspaces/celo-hackathon/nfts/robots/contracts/Accessory.sol",
  "compiler": {
    "name": "solc",
    "version": "0.8.2+commit.661d1103.Emscripten.clang"
  },
  "schemaVersion": "3.4.1",
  "updatedAt": "2021-11-04T03:42:58.310Z",
  "networkType": "ethereum",
  "devdoc": {
    "kind": "dev",
    "methods": {
      "balanceOf(address,uint256)": {
        "details": "See {IERC1155-balanceOf}. Requirements: - `account` cannot be the zero address."
      },
      "balanceOfBatch(address[],uint256[])": {
        "details": "See {IERC1155-balanceOfBatch}. Requirements: - `accounts` and `ids` must have the same length."
      },
      "isApprovedForAll(address,address)": {
        "details": "See {IERC1155-isApprovedForAll}."
      },
      "owner()": {
        "details": "Returns the address of the current owner."
      },
      "paused()": {
        "details": "Returns true if the contract is paused, and false otherwise."
      },
      "renounceOwnership()": {
        "details": "Leaves the contract without owner. It will not be possible to call `onlyOwner` functions anymore. Can only be called by the current owner. NOTE: Renouncing ownership will leave the contract without an owner, thereby removing any functionality that is only available to the owner."
      },
      "safeBatchTransferFrom(address,address,uint256[],uint256[],bytes)": {
        "details": "See {IERC1155-safeBatchTransferFrom}."
      },
      "safeTransferFrom(address,address,uint256,uint256,bytes)": {
        "details": "See {IERC1155-safeTransferFrom}."
      },
      "setApprovalForAll(address,bool)": {
        "details": "See {IERC1155-setApprovalForAll}."
      },
      "supportsInterface(bytes4)": {
        "details": "See {IERC165-supportsInterface}."
      },
      "transferOwnership(address)": {
        "details": "Transfers ownership of the contract to a new account (`newOwner`). Can only be called by the current owner."
      },
      "uri(uint256)": {
        "details": "See {IERC1155MetadataURI-uri}. This implementation returns the same URI for *all* token types. It relies on the token type ID substitution mechanism https://eips.ethereum.org/EIPS/eip-1155#metadata[defined in the EIP]. Clients calling this function must replace the `\\{id\\}` substring with the actual token type ID."
      }
    },
    "version": 1
  },
  "userdoc": {
    "kind": "user",
    "methods": {},
    "version": 1
  }
}