{
  "contractName": "Accessory",
  "abi": [
    {
      "inputs": [
        {
          "internalType": "uint256[]",
          "name": "_clazzes",
          "type": "uint256[]"
        },
        {
          "internalType": "uint256[]",
          "name": "_amounts",
          "type": "uint256[]"
        },
        {
          "internalType": "string",
          "name": "uri",
          "type": "string"
        }
      ],
      "stateMutability": "nonpayable",
      "type": "constructor"
    },
    {
      "anonymous": false,
      "inputs": [
        {
          "indexed": true,
          "internalType": "address",
          "name": "account",
          "type": "address"
        },
        {
          "indexed": true,
          "internalType": "address",
          "name": "operator",
          "type": "address"
        },
        {
          "indexed": false,
          "internalType": "bool",
          "name": "approved",
          "type": "bool"
        }
      ],
      "name": "ApprovalForAll",
      "type": "event"
    },
    {
      "anonymous": false,
      "inputs": [
        {
          "indexed": true,
          "internalType": "address",
          "name": "previousOwner",
          "type": "address"
        },
        {
          "indexed": true,
          "internalType": "address",
          "name": "newOwner",
          "type": "address"
        }
      ],
      "name": "OwnershipTransferred",
      "type": "event"
    },
    {
      "anonymous": false,
      "inputs": [
        {
          "indexed": false,
          "internalType": "address",
          "name": "account",
          "type": "address"
        }
      ],
      "name": "Paused",
      "type": "event"
    },
    {
      "anonymous": false,
      "inputs": [
        {
          "indexed": true,
          "internalType": "address",
          "name": "operator",
          "type": "address"
        },
        {
          "indexed": true,
          "internalType": "address",
          "name": "from",
          "type": "address"
        },
        {
          "indexed": true,
          "internalType": "address",
          "name": "to",
          "type": "address"
        },
        {
          "indexed": false,
          "internalType": "uint256[]",
          "name": "ids",
          "type": "uint256[]"
        },
        {
          "indexed": false,
          "internalType": "uint256[]",
          "name": "values",
          "type": "uint256[]"
        }
      ],
      "name": "TransferBatch",
      "type": "event"
    },
    {
      "anonymous": false,
      "inputs": [
        {
          "indexed": true,
          "internalType": "address",
          "name": "operator",
          "type": "address"
        },
        {
          "indexed": true,
          "internalType": "address",
          "name": "from",
          "type": "address"
        },
        {
          "indexed": true,
          "internalType": "address",
          "name": "to",
          "type": "address"
        },
        {
          "indexed": false,
          "internalType": "uint256",
          "name": "id",
          "type": "uint256"
        },
        {
          "indexed": false,
          "internalType": "uint256",
          "name": "value",
          "type": "uint256"
        }
      ],
      "name": "TransferSingle",
      "type": "event"
    },
    {
      "anonymous": false,
      "inputs": [
        {
          "indexed": false,
          "internalType": "string",
          "name": "value",
          "type": "string"
        },
        {
          "indexed": true,
          "internalType": "uint256",
          "name": "id",
          "type": "uint256"
        }
      ],
      "name": "URI",
      "type": "event"
    },
    {
      "anonymous": false,
      "inputs": [
        {
          "indexed": false,
          "internalType": "address",
          "name": "account",
          "type": "address"
        }
      ],
      "name": "Unpaused",
      "type": "event"
    },
    {
      "inputs": [],
      "name": "CLASS_AI_CHIP",
      "outputs": [
        {
          "internalType": "uint256",
          "name": "",
          "type": "uint256"
        }
      ],
      "stateMutability": "view",
      "type": "function",
      "constant": true
    },
    {
      "inputs": [],
      "name": "CLASS_BUZZSAW",
      "outputs": [
        {
          "internalType": "uint256",
          "name": "",
          "type": "uint256"
        }
      ],
      "stateMutability": "view",
      "type": "function",
      "constant": true
    },
    {
      "inputs": [],
      "name": "CLASS_SHIELD",
      "outputs": [
        {
          "internalType": "uint256",
          "name": "",
          "type": "uint256"
        }
      ],
      "stateMutability": "view",
      "type": "function",
      "constant": true
    },
    {
      "inputs": [],
      "name": "CLASS_SWORD",
      "outputs": [
        {
          "internalType": "uint256",
          "name": "",
          "type": "uint256"
        }
      ],
      "stateMutability": "view",
      "type": "function",
      "constant": true
    },
    {
      "inputs": [
        {
          "internalType": "address",
          "name": "account",
          "type": "address"
        },
        {
          "internalType": "uint256",
          "name": "id",
          "type": "uint256"
        }
      ],
      "name": "balanceOf",
      "outputs": [
        {
          "internalType": "uint256",
          "name": "",
          "type": "uint256"
        }
      ],
      "stateMutability": "view",
      "type": "function",
      "constant": true
    },
    {
      "inputs": [
        {
          "internalType": "address[]",
          "name": "accounts",
          "type": "address[]"
        },
        {
          "internalType": "uint256[]",
          "name": "ids",
          "type": "uint256[]"
        }
      ],
      "name": "balanceOfBatch",
      "outputs": [
        {
          "internalType": "uint256[]",
          "name": "",
          "type": "uint256[]"
        }
      ],
      "stateMutability": "view",
      "type": "function",
      "constant": true
    },
    {
      "inputs": [
        {
          "internalType": "address",
          "name": "account",
          "type": "address"
        },
        {
          "internalType": "uint256",
          "name": "id",
          "type": "uint256"
        },
        {
          "internalType": "uint256",
          "name": "value",
          "type": "uint256"
        }
      ],
      "name": "burn",
      "outputs": [],
      "stateMutability": "nonpayable",
      "type": "function"
    },
    {
      "inputs": [
        {
          "internalType": "address",
          "name": "account",
          "type": "address"
        },
        {
          "internalType": "uint256[]",
          "name": "ids",
          "type": "uint256[]"
        },
        {
          "internalType": "uint256[]",
          "name": "values",
          "type": "uint256[]"
        }
      ],
      "name": "burnBatch",
      "outputs": [],
      "stateMutability": "nonpayable",
      "type": "function"
    },
    {
      "inputs": [
        {
          "internalType": "address",
          "name": "account",
          "type": "address"
        },
        {
          "internalType": "address",
          "name": "operator",
          "type": "address"
        }
      ],
      "name": "isApprovedForAll",
      "outputs": [
        {
          "internalType": "bool",
          "name": "",
          "type": "bool"
        }
      ],
      "stateMutability": "view",
      "type": "function",
      "constant": true
    },
    {
      "inputs": [],
      "name": "name",
      "outputs": [
        {
          "internalType": "string",
          "name": "",
          "type": "string"
        }
      ],
      "stateMutability": "view",
      "type": "function",
      "constant": true
    },
    {
      "inputs": [],
      "name": "owner",
      "outputs": [
        {
          "internalType": "address",
          "name": "",
          "type": "address"
        }
      ],
      "stateMutability": "view",
      "type": "function",
      "constant": true
    },
    {
      "inputs": [],
      "name": "paused",
      "outputs": [
        {
          "internalType": "bool",
          "name": "",
          "type": "bool"
        }
      ],
      "stateMutability": "view",
      "type": "function",
      "constant": true
    },
    {
      "inputs": [],
      "name": "renounceOwnership",
      "outputs": [],
      "stateMutability": "nonpayable",
      "type": "function"
    },
    {
      "inputs": [
        {
          "internalType": "address",
          "name": "from",
          "type": "address"
        },
        {
          "internalType": "address",
          "name": "to",
          "type": "address"
        },
        {
          "internalType": "uint256[]",
          "name": "ids",
          "type": "uint256[]"
        },
        {
          "internalType": "uint256[]",
          "name": "amounts",
          "type": "uint256[]"
        },
        {
          "internalType": "bytes",
          "name": "data",
          "type": "bytes"
        }
      ],
      "name": "safeBatchTransferFrom",
      "outputs": [],
      "stateMutability": "nonpayable",
      "type": "function"
    },
    {
      "inputs": [
        {
          "internalType": "address",
          "name": "from",
          "type": "address"
        },
        {
          "internalType": "address",
          "name": "to",
          "type": "address"
        },
        {
          "internalType": "uint256",
          "name": "id",
          "type": "uint256"
        },
        {
          "internalType": "uint256",
          "name": "amount",
          "type": "uint256"
        },
        {
          "internalType": "bytes",
          "name": "data",
          "type": "bytes"
        }
      ],
      "name": "safeTransferFrom",
      "outputs": [],
      "stateMutability": "nonpayable",
      "type": "function"
    },
    {
      "inputs": [
        {
          "internalType": "address",
          "name": "operator",
          "type": "address"
        },
        {
          "internalType": "bool",
          "name": "approved",
          "type": "bool"
        }
      ],
      "name": "setApprovalForAll",
      "outputs": [],
      "stateMutability": "nonpayable",
      "type": "function"
    },
    {
      "inputs": [
        {
          "internalType": "bytes4",
          "name": "interfaceId",
          "type": "bytes4"
        }
      ],
      "name": "supportsInterface",
      "outputs": [
        {
          "internalType": "bool",
          "name": "",
          "type": "bool"
        }
      ],
      "stateMutability": "view",
      "type": "function",
      "constant": true
    },
    {
      "inputs": [
        {
          "internalType": "address",
          "name": "newOwner",
          "type": "address"
        }
      ],
      "name": "transferOwnership",
      "outputs": [],
      "stateMutability": "nonpayable",
      "type": "function"
    },
    {
      "inputs": [
        {
          "internalType": "uint256",
          "name": "",
          "type": "uint256"
        }
      ],
      "name": "uri",
      "outputs": [
        {
          "internalType": "string",
          "name": "",
          "type": "string"
        }
      ],
      "stateMutability": "view",
      "type": "function",
      "constant": true
    },
    {
      "inputs": [
        {
          "internalType": "string",
          "name": "newuri",
          "type": "string"
        }
      ],
      "name": "setURI",
      "outputs": [],
      "stateMutability": "nonpayable",
      "type": "function"
    },
    {
      "inputs": [],
      "name": "pause",
      "outputs": [],
      "stateMutability": "nonpayable",
      "type": "function"
    },
    {
      "inputs": [],
      "name": "unpause",
      "outputs": [],
      "stateMutability": "nonpayable",
      "type": "function"
    },
    {
      "inputs": [
        {
          "internalType": "uint256",
          "name": "_clazz",
          "type": "uint256"
        },
        {
          "internalType": "bytes",
          "name": "_data",
          "type": "bytes"
        }
      ],
      "name": "mintAccessory",
      "outputs": [],
      "stateMutability": "nonpayable",
      "type": "function"
    },
    {
      "inputs": [
        {
          "internalType": "uint256[]",
          "name": "_ids",
          "type": "uint256[]"
        },
        {
          "internalType": "uint256[]",
          "name": "_amounts",
          "type": "uint256[]"
        },
        {
          "internalType": "bytes",
          "name": "_data",
          "type": "bytes"
        }
      ],
      "name": "mintBatchAccessories",
      "outputs": [],
      "stateMutability": "nonpayable",
      "type": "function"
    },
    {
      "inputs": [
        {
          "internalType": "address",
          "name": "wallet",
          "type": "address"
        },
        {
          "internalType": "uint256[]",
          "name": "ids",
          "type": "uint256[]"
        }
      ],
      "name": "getWalletAccessories",
      "outputs": [
        {
          "internalType": "uint256[]",
          "name": "",
          "type": "uint256[]"
        }
      ],
      "stateMutability": "view",
      "type": "function",
      "constant": true
    }
  ],
  "bytecode": "0x60806040526040518060400160405280600f81526020017f526f626f74204163636573736f72790000000000000000000000000000000000815250600490805190602001906200005192919062000997565b503480156200005f57600080fd5b5060405162005cc438038062005cc4833981810160405281019062000085919062000b89565b60405180602001604052806000815250620000a6816200014460201b60201c565b50620000c7620000bb6200016060201b60201c565b6200016860201b60201c565b6000600360146101000a81548160ff021916908315150217905550620000f3816200014460201b60201c565b6200013b83836040518060400160405280600581526020017f30783030300000000000000000000000000000000000000000000000000000008152506200022e60201b60201c565b50505062001661565b80600290805190602001906200015c92919062000997565b5050565b600033905090565b6000600360009054906101000a900473ffffffffffffffffffffffffffffffffffffffff16905081600360006101000a81548173ffffffffffffffffffffffffffffffffffffffff021916908373ffffffffffffffffffffffffffffffffffffffff1602179055508173ffffffffffffffffffffffffffffffffffffffff168173ffffffffffffffffffffffffffffffffffffffff167f8be0079c531659141344cd1fd0a4f28419497f9722a3daafe3b4186f6b6457e060405160405180910390a35050565b6200023e6200042960201b60201c565b1562000281576040517f08c379a0000000000000000000000000000000000000000000000000000000008152600401620002789062000fa4565b60405180910390fd5b620002916200016060201b60201c565b73ffffffffffffffffffffffffffffffffffffffff16620002b76200044060201b60201c565b73ffffffffffffffffffffffffffffffffffffffff161462000310576040517f08c379a0000000000000000000000000000000000000000000000000000000008152600401620003079062000fe8565b60405180910390fd5b60008351905060005b818110156200040e5760008582815181106200035e577f4e487b7100000000000000000000000000000000000000000000000000000000600052603260045260246000fd5b6020026020010151118015620003b657506004858281518110620003ab577f4e487b7100000000000000000000000000000000000000000000000000000000600052603260045260246000fd5b602002602001015111155b620003f8576040517f08c379a0000000000000000000000000000000000000000000000000000000008152600401620003ef9062000fc6565b60405180910390fd5b80806200040590620012b6565b91505062000319565b5062000423338585856200046a60201b60201c565b50505050565b6000600360149054906101000a900460ff16905090565b6000600360009054906101000a900473ffffffffffffffffffffffffffffffffffffffff16905090565b600073ffffffffffffffffffffffffffffffffffffffff168473ffffffffffffffffffffffffffffffffffffffff161415620004dd576040517f08c379a0000000000000000000000000000000000000000000000000000000008152600401620004d4906200102c565b60405180910390fd5b815183511462000524576040517f08c379a00000000000000000000000000000000000000000000000000000000081526004016200051b906200100a565b60405180910390fd5b6000620005366200016060201b60201c565b90506200054f81600087878787620006fc60201b60201c565b60005b84518110156200065c5783818151811062000596577f4e487b7100000000000000000000000000000000000000000000000000000000600052603260045260246000fd5b6020026020010151600080878481518110620005db577f4e487b7100000000000000000000000000000000000000000000000000000000600052603260045260246000fd5b6020026020010151815260200190815260200160002060008873ffffffffffffffffffffffffffffffffffffffff1673ffffffffffffffffffffffffffffffffffffffff16815260200190815260200160002060008282546200063f91906200114d565b9250508190555080806200065390620012b6565b91505062000552565b508473ffffffffffffffffffffffffffffffffffffffff16600073ffffffffffffffffffffffffffffffffffffffff168273ffffffffffffffffffffffffffffffffffffffff167f4a39dc06d4c0dbc64b70af90fd698a233a518aa5d07e595d983b8c0526c8f7fb8787604051620006d692919062000f01565b60405180910390a4620006f5816000878787876200077260201b60201c565b5050505050565b6200070c6200042960201b60201c565b156200074f576040517f08c379a0000000000000000000000000000000000000000000000000000000008152600401620007469062000fa4565b60405180910390fd5b6200076a8686868686866200097c60201b620015791760201c565b505050505050565b6200079e8473ffffffffffffffffffffffffffffffffffffffff166200098460201b620015811760201c565b1562000974578373ffffffffffffffffffffffffffffffffffffffff1663bc197c8187878686866040518663ffffffff1660e01b8152600401620007e795949392919062000e8f565b602060405180830381600087803b1580156200080257600080fd5b505af19250505080156200083657506040513d601f19601f8201168201806040525081019062000833919062000c2a565b60015b620008e8576200084562001391565b806308c379a01415620008a957506200085d6200158b565b806200086a5750620008ab565b806040517f08c379a0000000000000000000000000000000000000000000000000000000008152600401620008a0919062000f3c565b60405180910390fd5b505b6040517f08c379a0000000000000000000000000000000000000000000000000000000008152600401620008df9062000f60565b60405180910390fd5b63bc197c8160e01b7bffffffffffffffffffffffffffffffffffffffffffffffffffffffff1916817bffffffffffffffffffffffffffffffffffffffffffffffffffffffff19161462000972576040517f08c379a0000000000000000000000000000000000000000000000000000000008152600401620009699062000f82565b60405180910390fd5b505b505050505050565b505050505050565b600080823b905060008111915050919050565b828054620009a5906200124a565b90600052602060002090601f016020900481019282620009c9576000855562000a15565b82601f10620009e457805160ff191683800117855562000a15565b8280016001018555821562000a15579182015b8281111562000a14578251825591602001919060010190620009f7565b5b50905062000a24919062000a28565b5090565b5b8082111562000a4357600081600090555060010162000a29565b5090565b600062000a5e62000a588462001077565b6200104e565b9050808382526020820190508285602086028201111562000a7e57600080fd5b60005b8581101562000ab2578162000a97888262000b72565b84526020840193506020830192505060018101905062000a81565b5050509392505050565b600062000ad362000acd84620010a6565b6200104e565b90508281526020810184848401111562000aec57600080fd5b62000af984828562001214565b509392505050565b600082601f83011262000b1357600080fd5b815162000b2584826020860162000a47565b91505092915050565b60008151905062000b3f816200162d565b92915050565b600082601f83011262000b5757600080fd5b815162000b6984826020860162000abc565b91505092915050565b60008151905062000b838162001647565b92915050565b60008060006060848603121562000b9f57600080fd5b600084015167ffffffffffffffff81111562000bba57600080fd5b62000bc88682870162000b01565b935050602084015167ffffffffffffffff81111562000be657600080fd5b62000bf48682870162000b01565b925050604084015167ffffffffffffffff81111562000c1257600080fd5b62000c208682870162000b45565b9150509250925092565b60006020828403121562000c3d57600080fd5b600062000c4d8482850162000b2e565b91505092915050565b600062000c64838362000e7e565b60208301905092915050565b62000c7b81620011aa565b82525050565b600062000c8e82620010ec565b62000c9a81856200111a565b935062000ca783620010dc565b8060005b8381101562000cde57815162000cc2888262000c56565b975062000ccf836200110d565b92505060018101905062000cab565b5085935050505092915050565b600062000cf882620010f7565b62000d0481856200112b565b935062000d1681856020860162001214565b62000d2181620013b6565b840191505092915050565b600062000d398262001102565b62000d4581856200113c565b935062000d5781856020860162001214565b62000d6281620013b6565b840191505092915050565b600062000d7c6034836200113c565b915062000d8982620013d4565b604082019050919050565b600062000da36028836200113c565b915062000db08262001423565b604082019050919050565b600062000dca6010836200113c565b915062000dd78262001472565b602082019050919050565b600062000df16019836200113c565b915062000dfe826200149b565b602082019050919050565b600062000e186020836200113c565b915062000e2582620014c4565b602082019050919050565b600062000e3f6028836200113c565b915062000e4c82620014ed565b604082019050919050565b600062000e666021836200113c565b915062000e73826200153c565b604082019050919050565b62000e89816200120a565b82525050565b600060a08201905062000ea6600083018862000c70565b62000eb5602083018762000c70565b818103604083015262000ec9818662000c81565b9050818103606083015262000edf818562000c81565b9050818103608083015262000ef5818462000ceb565b90509695505050505050565b6000604082019050818103600083015262000f1d818562000c81565b9050818103602083015262000f33818462000c81565b90509392505050565b6000602082019050818103600083015262000f58818462000d2c565b905092915050565b6000602082019050818103600083015262000f7b8162000d6d565b9050919050565b6000602082019050818103600083015262000f9d8162000d94565b9050919050565b6000602082019050818103600083015262000fbf8162000dbb565b9050919050565b6000602082019050818103600083015262000fe18162000de2565b9050919050565b60006020820190508181036000830152620010038162000e09565b9050919050565b60006020820190508181036000830152620010258162000e30565b9050919050565b60006020820190508181036000830152620010478162000e57565b9050919050565b60006200105a6200106d565b905062001068828262001280565b919050565b6000604051905090565b600067ffffffffffffffff82111562001095576200109462001362565b5b602082029050602081019050919050565b600067ffffffffffffffff821115620010c457620010c362001362565b5b620010cf82620013b6565b9050602081019050919050565b6000819050602082019050919050565b600081519050919050565b600081519050919050565b600081519050919050565b6000602082019050919050565b600082825260208201905092915050565b600082825260208201905092915050565b600082825260208201905092915050565b60006200115a826200120a565b915062001167836200120a565b9250827fffffffffffffffffffffffffffffffffffffffffffffffffffffffffffffffff038211156200119f576200119e62001304565b5b828201905092915050565b6000620011b782620011ea565b9050919050565b60007fffffffff0000000000000000000000000000000000000000000000000000000082169050919050565b600073ffffffffffffffffffffffffffffffffffffffff82169050919050565b6000819050919050565b60005b838110156200123457808201518184015260208101905062001217565b8381111562001244576000848401525b50505050565b600060028204905060018216806200126357607f821691505b602082108114156200127a576200127962001333565b5b50919050565b6200128b82620013b6565b810181811067ffffffffffffffff82111715620012ad57620012ac62001362565b5b80604052505050565b6000620012c3826200120a565b91507fffffffffffffffffffffffffffffffffffffffffffffffffffffffffffffffff821415620012f957620012f862001304565b5b600182019050919050565b7f4e487b7100000000000000000000000000000000000000000000000000000000600052601160045260246000fd5b7f4e487b7100000000000000000000000000000000000000000000000000000000600052602260045260246000fd5b7f4e487b7100000000000000000000000000000000000000000000000000000000600052604160045260246000fd5b600060033d1115620013b35760046000803e620013b0600051620013c7565b90505b90565b6000601f19601f8301169050919050565b60008160e01c9050919050565b7f455243313135353a207472616e7366657220746f206e6f6e204552433131353560008201527f526563656976657220696d706c656d656e746572000000000000000000000000602082015250565b7f455243313135353a204552433131353552656365697665722072656a6563746560008201527f6420746f6b656e73000000000000000000000000000000000000000000000000602082015250565b7f5061757361626c653a2070617573656400000000000000000000000000000000600082015250565b7f4163636573736f727920646f6573206e6f742065786973742e00000000000000600082015250565b7f4f776e61626c653a2063616c6c6572206973206e6f7420746865206f776e6572600082015250565b7f455243313135353a2069647320616e6420616d6f756e7473206c656e6774682060008201527f6d69736d61746368000000000000000000000000000000000000000000000000602082015250565b7f455243313135353a206d696e7420746f20746865207a65726f2061646472657360008201527f7300000000000000000000000000000000000000000000000000000000000000602082015250565b600060443d10156200159d576200162a565b620015a76200106d565b60043d036004823e80513d602482011167ffffffffffffffff82111715620015d15750506200162a565b808201805167ffffffffffffffff811115620015f157505050506200162a565b80602083010160043d038501811115620016105750505050506200162a565b620016218260200185018662001280565b82955050505050505b90565b6200163881620011be565b81146200164457600080fd5b50565b62001652816200120a565b81146200165e57600080fd5b50565b61465380620016716000396000f3fe608060405234801561001057600080fd5b50600436106101725760003560e01c80635c975abb116100de578063a700824511610097578063eb3b578d11610071578063eb3b578d14610413578063f242432a1461042f578063f2fde38b1461044b578063f5298aca1461046757610172565b8063a7008245146103a9578063d0512d10146103c7578063e985e9c5146103e357610172565b80635c975abb146103215780636b20c4541461033f578063715018a61461035b5780638456cb59146103655780638da5cb5b1461036f578063a22cb4651461038d57610172565b806329dde7851161013057806329dde7851461025f5780632eb2c2d61461027d578063398f6d80146102995780633f4ba83a146102b75780634e1273f4146102c1578063542a2dc8146102f157610172565b8062fdd58e1461017757806301ffc9a7146101a757806302fe5305146101d757806306fdde03146101f357806307b19e93146102115780630e89341c1461022f575b600080fd5b610191600480360381019061018c9190613231565b610483565b60405161019e9190613c1c565b60405180910390f35b6101c160048036038101906101bc91906133bf565b61054c565b6040516101ce919061399f565b60405180910390f35b6101f160048036038101906101ec9190613411565b61062e565b005b6101fb6106b6565b60405161020891906139ba565b60405180910390f35b610219610744565b6040516102269190613c1c565b60405180910390f35b61024960048036038101906102449190613452565b610749565b60405161025691906139ba565b60405180910390f35b6102676107dd565b6040516102749190613c1c565b60405180910390f35b61029760048036038101906102929190612fd0565b6107e2565b005b6102a1610883565b6040516102ae9190613c1c565b60405180910390f35b6102bf610888565b005b6102db60048036038101906102d691906132bc565b61090e565b6040516102e89190613946565b60405180910390f35b61030b6004803603810190610306919061311e565b610abf565b6040516103189190613946565b60405180910390f35b610329610c47565b604051610336919061399f565b60405180910390f35b61035960048036038101906103549190613176565b610c5e565b005b610363610cfb565b005b61036d610d83565b005b610377610e09565b6040516103849190613869565b60405180910390f35b6103a760048036038101906103a291906131f5565b610e33565b005b6103b1610fb4565b6040516103be9190613c1c565b60405180910390f35b6103e160048036038101906103dc9190613328565b610fb9565b005b6103fd60048036038101906103f89190612f94565b611184565b60405161040a919061399f565b60405180910390f35b61042d6004803603810190610428919061347b565b611218565b005b6104496004803603810190610444919061308f565b611343565b005b61046560048036038101906104609190612f6b565b6113e4565b005b610481600480360381019061047c919061326d565b6114dc565b005b60008073ffffffffffffffffffffffffffffffffffffffff168373ffffffffffffffffffffffffffffffffffffffff1614156104f4576040517f08c379a00000000000000000000000000000000000000000000000000000000081526004016104eb90613a3c565b60405180910390fd5b60008083815260200190815260200160002060008473ffffffffffffffffffffffffffffffffffffffff1673ffffffffffffffffffffffffffffffffffffffff16815260200190815260200160002054905092915050565b60007fd9b67a26000000000000000000000000000000000000000000000000000000007bffffffffffffffffffffffffffffffffffffffffffffffffffffffff1916827bffffffffffffffffffffffffffffffffffffffffffffffffffffffff1916148061061757507f0e89341c000000000000000000000000000000000000000000000000000000007bffffffffffffffffffffffffffffffffffffffffffffffffffffffff1916827bffffffffffffffffffffffffffffffffffffffffffffffffffffffff1916145b80610627575061062682611594565b5b9050919050565b6106366115fe565b73ffffffffffffffffffffffffffffffffffffffff16610654610e09565b73ffffffffffffffffffffffffffffffffffffffff16146106aa576040517f08c379a00000000000000000000000000000000000000000000000000000000081526004016106a190613b7c565b60405180910390fd5b6106b381611606565b50565b600480546106c390613ebc565b80601f01602080910402602001604051908101604052809291908181526020018280546106ef90613ebc565b801561073c5780601f106107115761010080835404028352916020019161073c565b820191906000526020600020905b81548152906001019060200180831161071f57829003601f168201915b505050505081565b600381565b60606002805461075890613ebc565b80601f016020809104026020016040519081016040528092919081815260200182805461078490613ebc565b80156107d15780601f106107a6576101008083540402835291602001916107d1565b820191906000526020600020905b8154815290600101906020018083116107b457829003601f168201915b50505050509050919050565b600481565b6107ea6115fe565b73ffffffffffffffffffffffffffffffffffffffff168573ffffffffffffffffffffffffffffffffffffffff161480610830575061082f8561082a6115fe565b611184565b5b61086f576040517f08c379a000000000000000000000000000000000000000000000000000000000815260040161086690613afc565b60405180910390fd5b61087c8585858585611620565b5050505050565b600281565b6108906115fe565b73ffffffffffffffffffffffffffffffffffffffff166108ae610e09565b73ffffffffffffffffffffffffffffffffffffffff1614610904576040517f08c379a00000000000000000000000000000000000000000000000000000000081526004016108fb90613b7c565b60405180910390fd5b61090c611980565b565b60608151835114610954576040517f08c379a000000000000000000000000000000000000000000000000000000000815260040161094b90613bbc565b60405180910390fd5b6000835167ffffffffffffffff811115610997577f4e487b7100000000000000000000000000000000000000000000000000000000600052604160045260246000fd5b6040519080825280602002602001820160405280156109c55781602001602082028036833780820191505090505b50905060005b8451811015610ab457610a5e858281518110610a10577f4e487b7100000000000000000000000000000000000000000000000000000000600052603260045260246000fd5b6020026020010151858381518110610a51577f4e487b7100000000000000000000000000000000000000000000000000000000600052603260045260246000fd5b6020026020010151610483565b828281518110610a97577f4e487b7100000000000000000000000000000000000000000000000000000000600052603260045260246000fd5b60200260200101818152505080610aad90613f1f565b90506109cb565b508091505092915050565b6060610ac9610c47565b15610b09576040517f08c379a0000000000000000000000000000000000000000000000000000000008152600401610b0090613abc565b60405180910390fd5b6000600167ffffffffffffffff811115610b4c577f4e487b7100000000000000000000000000000000000000000000000000000000600052604160045260246000fd5b604051908082528060200260200182016040528015610b7a5781602001602082028036833780820191505090505b5090508481600081518110610bb8577f4e487b7100000000000000000000000000000000000000000000000000000000600052603260045260246000fd5b602002602001019073ffffffffffffffffffffffffffffffffffffffff16908173ffffffffffffffffffffffffffffffffffffffff1681525050610c3d81858580806020026020016040519081016040528093929190818152602001838360200280828437600081840152601f19601f8201169050808301925050505050505061090e565b9150509392505050565b6000600360149054906101000a900460ff16905090565b610c666115fe565b73ffffffffffffffffffffffffffffffffffffffff168373ffffffffffffffffffffffffffffffffffffffff161480610cac5750610cab83610ca66115fe565b611184565b5b610ceb576040517f08c379a0000000000000000000000000000000000000000000000000000000008152600401610ce290613a9c565b60405180910390fd5b610cf6838383611a22565b505050565b610d036115fe565b73ffffffffffffffffffffffffffffffffffffffff16610d21610e09565b73ffffffffffffffffffffffffffffffffffffffff1614610d77576040517f08c379a0000000000000000000000000000000000000000000000000000000008152600401610d6e90613b7c565b60405180910390fd5b610d816000611d1f565b565b610d8b6115fe565b73ffffffffffffffffffffffffffffffffffffffff16610da9610e09565b73ffffffffffffffffffffffffffffffffffffffff1614610dff576040517f08c379a0000000000000000000000000000000000000000000000000000000008152600401610df690613b7c565b60405180910390fd5b610e07611de5565b565b6000600360009054906101000a900473ffffffffffffffffffffffffffffffffffffffff16905090565b8173ffffffffffffffffffffffffffffffffffffffff16610e526115fe565b73ffffffffffffffffffffffffffffffffffffffff161415610ea9576040517f08c379a0000000000000000000000000000000000000000000000000000000008152600401610ea090613b9c565b60405180910390fd5b8060016000610eb66115fe565b73ffffffffffffffffffffffffffffffffffffffff1673ffffffffffffffffffffffffffffffffffffffff16815260200190815260200160002060008473ffffffffffffffffffffffffffffffffffffffff1673ffffffffffffffffffffffffffffffffffffffff16815260200190815260200160002060006101000a81548160ff0219169083151502179055508173ffffffffffffffffffffffffffffffffffffffff16610f636115fe565b73ffffffffffffffffffffffffffffffffffffffff167f17307eab39ab6107e8899845ad3d59bd9653f200f220920489ca2b5937696c3183604051610fa8919061399f565b60405180910390a35050565b600181565b610fc1610c47565b15611001576040517f08c379a0000000000000000000000000000000000000000000000000000000008152600401610ff890613abc565b60405180910390fd5b6110096115fe565b73ffffffffffffffffffffffffffffffffffffffff16611027610e09565b73ffffffffffffffffffffffffffffffffffffffff161461107d576040517f08c379a000000000000000000000000000000000000000000000000000000000815260040161107490613b7c565b60405180910390fd5b60008351905060005b818110156111715760008582815181106110c9577f4e487b7100000000000000000000000000000000000000000000000000000000600052603260045260246000fd5b602002602001015111801561111f57506004858281518110611114577f4e487b7100000000000000000000000000000000000000000000000000000000600052603260045260246000fd5b602002602001015111155b61115e576040517f08c379a000000000000000000000000000000000000000000000000000000000815260040161115590613b5c565b60405180910390fd5b808061116990613f1f565b915050611086565b5061117e33858585611e88565b50505050565b6000600160008473ffffffffffffffffffffffffffffffffffffffff1673ffffffffffffffffffffffffffffffffffffffff16815260200190815260200160002060008373ffffffffffffffffffffffffffffffffffffffff1673ffffffffffffffffffffffffffffffffffffffff16815260200190815260200160002060009054906101000a900460ff16905092915050565b611220610c47565b15611260576040517f08c379a000000000000000000000000000000000000000000000000000000000815260040161125790613abc565b60405180910390fd5b6112686115fe565b73ffffffffffffffffffffffffffffffffffffffff16611286610e09565b73ffffffffffffffffffffffffffffffffffffffff16146112dc576040517f08c379a00000000000000000000000000000000000000000000000000000000081526004016112d390613b7c565b60405180910390fd5b6000821180156112ed575060048211155b61132c576040517f08c379a000000000000000000000000000000000000000000000000000000000815260040161132390613b5c565b60405180910390fd5b60006001905061133e338483856120f2565b505050565b61134b6115fe565b73ffffffffffffffffffffffffffffffffffffffff168573ffffffffffffffffffffffffffffffffffffffff16148061139157506113908561138b6115fe565b611184565b5b6113d0576040517f08c379a00000000000000000000000000000000000000000000000000000000081526004016113c790613a9c565b60405180910390fd5b6113dd8585858585612288565b5050505050565b6113ec6115fe565b73ffffffffffffffffffffffffffffffffffffffff1661140a610e09565b73ffffffffffffffffffffffffffffffffffffffff1614611460576040517f08c379a000000000000000000000000000000000000000000000000000000000815260040161145790613b7c565b60405180910390fd5b600073ffffffffffffffffffffffffffffffffffffffff168173ffffffffffffffffffffffffffffffffffffffff1614156114d0576040517f08c379a00000000000000000000000000000000000000000000000000000000081526004016114c790613a5c565b60405180910390fd5b6114d981611d1f565b50565b6114e46115fe565b73ffffffffffffffffffffffffffffffffffffffff168373ffffffffffffffffffffffffffffffffffffffff16148061152a5750611529836115246115fe565b611184565b5b611569576040517f08c379a000000000000000000000000000000000000000000000000000000000815260040161156090613a9c565b60405180910390fd5b61157483838361250a565b505050565b505050505050565b600080823b905060008111915050919050565b60007f01ffc9a7000000000000000000000000000000000000000000000000000000007bffffffffffffffffffffffffffffffffffffffffffffffffffffffff1916827bffffffffffffffffffffffffffffffffffffffffffffffffffffffff1916149050919050565b600033905090565b806002908051906020019061161c929190612c19565b5050565b8151835114611664576040517f08c379a000000000000000000000000000000000000000000000000000000000815260040161165b90613bdc565b60405180910390fd5b600073ffffffffffffffffffffffffffffffffffffffff168473ffffffffffffffffffffffffffffffffffffffff1614156116d4576040517f08c379a00000000000000000000000000000000000000000000000000000000081526004016116cb90613adc565b60405180910390fd5b60006116de6115fe565b90506116ee818787878787612727565b60005b84518110156118eb576000858281518110611735577f4e487b7100000000000000000000000000000000000000000000000000000000600052603260045260246000fd5b60200260200101519050600085838151811061177a577f4e487b7100000000000000000000000000000000000000000000000000000000600052603260045260246000fd5b60200260200101519050600080600084815260200190815260200160002060008b73ffffffffffffffffffffffffffffffffffffffff1673ffffffffffffffffffffffffffffffffffffffff1681526020019081526020016000205490508181101561181b576040517f08c379a000000000000000000000000000000000000000000000000000000000815260040161181290613b3c565b60405180910390fd5b81810360008085815260200190815260200160002060008c73ffffffffffffffffffffffffffffffffffffffff1673ffffffffffffffffffffffffffffffffffffffff168152602001908152602001600020819055508160008085815260200190815260200160002060008b73ffffffffffffffffffffffffffffffffffffffff1673ffffffffffffffffffffffffffffffffffffffff16815260200190815260200160002060008282546118d09190613db0565b92505081905550505050806118e490613f1f565b90506116f1565b508473ffffffffffffffffffffffffffffffffffffffff168673ffffffffffffffffffffffffffffffffffffffff168273ffffffffffffffffffffffffffffffffffffffff167f4a39dc06d4c0dbc64b70af90fd698a233a518aa5d07e595d983b8c0526c8f7fb8787604051611962929190613968565b60405180910390a4611978818787878787612785565b505050505050565b611988610c47565b6119c7576040517f08c379a00000000000000000000000000000000000000000000000000000000081526004016119be90613a1c565b60405180910390fd5b6000600360146101000a81548160ff0219169083151502179055507f5db9ee0a495bf2e6ff9c91a7834c1ba4fdd244a5e8aa4e537bd38aeae4b073aa611a0b6115fe565b604051611a189190613869565b60405180910390a1565b600073ffffffffffffffffffffffffffffffffffffffff168373ffffffffffffffffffffffffffffffffffffffff161415611a92576040517f08c379a0000000000000000000000000000000000000000000000000000000008152600401611a8990613b1c565b60405180910390fd5b8051825114611ad6576040517f08c379a0000000000000000000000000000000000000000000000000000000008152600401611acd90613bdc565b60405180910390fd5b6000611ae06115fe565b9050611b0081856000868660405180602001604052806000815250612727565b60005b8351811015611c99576000848281518110611b47577f4e487b7100000000000000000000000000000000000000000000000000000000600052603260045260246000fd5b602002602001015190506000848381518110611b8c577f4e487b7100000000000000000000000000000000000000000000000000000000600052603260045260246000fd5b60200260200101519050600080600084815260200190815260200160002060008973ffffffffffffffffffffffffffffffffffffffff1673ffffffffffffffffffffffffffffffffffffffff16815260200190815260200160002054905081811015611c2d576040517f08c379a0000000000000000000000000000000000000000000000000000000008152600401611c2490613a7c565b60405180910390fd5b81810360008085815260200190815260200160002060008a73ffffffffffffffffffffffffffffffffffffffff1673ffffffffffffffffffffffffffffffffffffffff168152602001908152602001600020819055505050508080611c9190613f1f565b915050611b03565b50600073ffffffffffffffffffffffffffffffffffffffff168473ffffffffffffffffffffffffffffffffffffffff168273ffffffffffffffffffffffffffffffffffffffff167f4a39dc06d4c0dbc64b70af90fd698a233a518aa5d07e595d983b8c0526c8f7fb8686604051611d11929190613968565b60405180910390a450505050565b6000600360009054906101000a900473ffffffffffffffffffffffffffffffffffffffff16905081600360006101000a81548173ffffffffffffffffffffffffffffffffffffffff021916908373ffffffffffffffffffffffffffffffffffffffff1602179055508173ffffffffffffffffffffffffffffffffffffffff168173ffffffffffffffffffffffffffffffffffffffff167f8be0079c531659141344cd1fd0a4f28419497f9722a3daafe3b4186f6b6457e060405160405180910390a35050565b611ded610c47565b15611e2d576040517f08c379a0000000000000000000000000000000000000000000000000000000008152600401611e2490613abc565b60405180910390fd5b6001600360146101000a81548160ff0219169083151502179055507f62e78cea01bee320cd4e420270b5ea74000d11b0c9f74754ebdbfc544b05a258611e716115fe565b604051611e7e9190613869565b60405180910390a1565b600073ffffffffffffffffffffffffffffffffffffffff168473ffffffffffffffffffffffffffffffffffffffff161415611ef8576040517f08c379a0000000000000000000000000000000000000000000000000000000008152600401611eef90613bfc565b60405180910390fd5b8151835114611f3c576040517f08c379a0000000000000000000000000000000000000000000000000000000008152600401611f3390613bdc565b60405180910390fd5b6000611f466115fe565b9050611f5781600087878787612727565b60005b845181101561205c57838181518110611f9c577f4e487b7100000000000000000000000000000000000000000000000000000000600052603260045260246000fd5b6020026020010151600080878481518110611fe0577f4e487b7100000000000000000000000000000000000000000000000000000000600052603260045260246000fd5b6020026020010151815260200190815260200160002060008873ffffffffffffffffffffffffffffffffffffffff1673ffffffffffffffffffffffffffffffffffffffff16815260200190815260200160002060008282546120429190613db0565b92505081905550808061205490613f1f565b915050611f5a565b508473ffffffffffffffffffffffffffffffffffffffff16600073ffffffffffffffffffffffffffffffffffffffff168273ffffffffffffffffffffffffffffffffffffffff167f4a39dc06d4c0dbc64b70af90fd698a233a518aa5d07e595d983b8c0526c8f7fb87876040516120d4929190613968565b60405180910390a46120eb81600087878787612785565b5050505050565b600073ffffffffffffffffffffffffffffffffffffffff168473ffffffffffffffffffffffffffffffffffffffff161415612162576040517f08c379a000000000000000000000000000000000000000000000000000000000815260040161215990613bfc565b60405180910390fd5b600061216c6115fe565b905061218d8160008761217e8861296c565b6121878861296c565b87612727565b8260008086815260200190815260200160002060008773ffffffffffffffffffffffffffffffffffffffff1673ffffffffffffffffffffffffffffffffffffffff16815260200190815260200160002060008282546121ec9190613db0565b925050819055508473ffffffffffffffffffffffffffffffffffffffff16600073ffffffffffffffffffffffffffffffffffffffff168273ffffffffffffffffffffffffffffffffffffffff167fc3d58168c5ae7397731d063d5bbf3d657854427343f4c083240f7aacaa2d0f62878760405161226a929190613c37565b60405180910390a461228181600087878787612a32565b5050505050565b600073ffffffffffffffffffffffffffffffffffffffff168473ffffffffffffffffffffffffffffffffffffffff1614156122f8576040517f08c379a00000000000000000000000000000000000000000000000000000000081526004016122ef90613adc565b60405180910390fd5b60006123026115fe565b90506123228187876123138861296c565b61231c8861296c565b87612727565b600080600086815260200190815260200160002060008873ffffffffffffffffffffffffffffffffffffffff1673ffffffffffffffffffffffffffffffffffffffff168152602001908152602001600020549050838110156123b9576040517f08c379a00000000000000000000000000000000000000000000000000000000081526004016123b090613b3c565b60405180910390fd5b83810360008087815260200190815260200160002060008973ffffffffffffffffffffffffffffffffffffffff1673ffffffffffffffffffffffffffffffffffffffff168152602001908152602001600020819055508360008087815260200190815260200160002060008873ffffffffffffffffffffffffffffffffffffffff1673ffffffffffffffffffffffffffffffffffffffff168152602001908152602001600020600082825461246e9190613db0565b925050819055508573ffffffffffffffffffffffffffffffffffffffff168773ffffffffffffffffffffffffffffffffffffffff168373ffffffffffffffffffffffffffffffffffffffff167fc3d58168c5ae7397731d063d5bbf3d657854427343f4c083240f7aacaa2d0f6288886040516124eb929190613c37565b60405180910390a4612501828888888888612a32565b50505050505050565b600073ffffffffffffffffffffffffffffffffffffffff168373ffffffffffffffffffffffffffffffffffffffff16141561257a576040517f08c379a000000000000000000000000000000000000000000000000000000000815260040161257190613b1c565b60405180910390fd5b60006125846115fe565b90506125b4818560006125968761296c565b61259f8761296c565b60405180602001604052806000815250612727565b600080600085815260200190815260200160002060008673ffffffffffffffffffffffffffffffffffffffff1673ffffffffffffffffffffffffffffffffffffffff1681526020019081526020016000205490508281101561264b576040517f08c379a000000000000000000000000000000000000000000000000000000000815260040161264290613a7c565b60405180910390fd5b82810360008086815260200190815260200160002060008773ffffffffffffffffffffffffffffffffffffffff1673ffffffffffffffffffffffffffffffffffffffff16815260200190815260200160002081905550600073ffffffffffffffffffffffffffffffffffffffff168573ffffffffffffffffffffffffffffffffffffffff168373ffffffffffffffffffffffffffffffffffffffff167fc3d58168c5ae7397731d063d5bbf3d657854427343f4c083240f7aacaa2d0f628787604051612718929190613c37565b60405180910390a45050505050565b61272f610c47565b1561276f576040517f08c379a000000000000000000000000000000000000000000000000000000000815260040161276690613abc565b60405180910390fd5b61277d868686868686611579565b505050505050565b6127a48473ffffffffffffffffffffffffffffffffffffffff16611581565b15612964578373ffffffffffffffffffffffffffffffffffffffff1663bc197c8187878686866040518663ffffffff1660e01b81526004016127ea959493929190613884565b602060405180830381600087803b15801561280457600080fd5b505af192505050801561283557506040513d601f19601f8201168201806040525081019061283291906133e8565b60015b6128db57612841613ff5565b806308c379a0141561289e575061285661452b565b8061286157506128a0565b806040517f08c379a000000000000000000000000000000000000000000000000000000000815260040161289591906139ba565b60405180910390fd5b505b6040517f08c379a00000000000000000000000000000000000000000000000000000000081526004016128d2906139dc565b60405180910390fd5b63bc197c8160e01b7bffffffffffffffffffffffffffffffffffffffffffffffffffffffff1916817bffffffffffffffffffffffffffffffffffffffffffffffffffffffff191614612962576040517f08c379a0000000000000000000000000000000000000000000000000000000008152600401612959906139fc565b60405180910390fd5b505b505050505050565b60606000600167ffffffffffffffff8111156129b1577f4e487b7100000000000000000000000000000000000000000000000000000000600052604160045260246000fd5b6040519080825280602002602001820160405280156129df5781602001602082028036833780820191505090505b5090508281600081518110612a1d577f4e487b7100000000000000000000000000000000000000000000000000000000600052603260045260246000fd5b60200260200101818152505080915050919050565b612a518473ffffffffffffffffffffffffffffffffffffffff16611581565b15612c11578373ffffffffffffffffffffffffffffffffffffffff1663f23a6e6187878686866040518663ffffffff1660e01b8152600401612a979594939291906138ec565b602060405180830381600087803b158015612ab157600080fd5b505af1925050508015612ae257506040513d601f19601f82011682018060405250810190612adf91906133e8565b60015b612b8857612aee613ff5565b806308c379a01415612b4b5750612b0361452b565b80612b0e5750612b4d565b806040517f08c379a0000000000000000000000000000000000000000000000000000000008152600401612b4291906139ba565b60405180910390fd5b505b6040517f08c379a0000000000000000000000000000000000000000000000000000000008152600401612b7f906139dc565b60405180910390fd5b63f23a6e6160e01b7bffffffffffffffffffffffffffffffffffffffffffffffffffffffff1916817bffffffffffffffffffffffffffffffffffffffffffffffffffffffff191614612c0f576040517f08c379a0000000000000000000000000000000000000000000000000000000008152600401612c06906139fc565b60405180910390fd5b505b505050505050565b828054612c2590613ebc565b90600052602060002090601f016020900481019282612c475760008555612c8e565b82601f10612c6057805160ff1916838001178555612c8e565b82800160010185558215612c8e579182015b82811115612c8d578251825591602001919060010190612c72565b5b509050612c9b9190612c9f565b5090565b5b80821115612cb8576000816000905550600101612ca0565b5090565b6000612ccf612cca84613c85565b613c60565b90508083825260208201905082856020860282011115612cee57600080fd5b60005b85811015612d1e5781612d048882612e10565b845260208401935060208301925050600181019050612cf1565b5050509392505050565b6000612d3b612d3684613cb1565b613c60565b90508083825260208201905082856020860282011115612d5a57600080fd5b60005b85811015612d8a5781612d708882612f56565b845260208401935060208301925050600181019050612d5d565b5050509392505050565b6000612da7612da284613cdd565b613c60565b905082815260208101848484011115612dbf57600080fd5b612dca848285613e7a565b509392505050565b6000612de5612de084613d0e565b613c60565b905082815260208101848484011115612dfd57600080fd5b612e08848285613e7a565b509392505050565b600081359050612e1f816145c1565b92915050565b600082601f830112612e3657600080fd5b8135612e46848260208601612cbc565b91505092915050565b60008083601f840112612e6157600080fd5b8235905067ffffffffffffffff811115612e7a57600080fd5b602083019150836020820283011115612e9257600080fd5b9250929050565b600082601f830112612eaa57600080fd5b8135612eba848260208601612d28565b91505092915050565b600081359050612ed2816145d8565b92915050565b600081359050612ee7816145ef565b92915050565b600081519050612efc816145ef565b92915050565b600082601f830112612f1357600080fd5b8135612f23848260208601612d94565b91505092915050565b600082601f830112612f3d57600080fd5b8135612f4d848260208601612dd2565b91505092915050565b600081359050612f6581614606565b92915050565b600060208284031215612f7d57600080fd5b6000612f8b84828501612e10565b91505092915050565b60008060408385031215612fa757600080fd5b6000612fb585828601612e10565b9250506020612fc685828601612e10565b9150509250929050565b600080600080600060a08688031215612fe857600080fd5b6000612ff688828901612e10565b955050602061300788828901612e10565b945050604086013567ffffffffffffffff81111561302457600080fd5b61303088828901612e99565b935050606086013567ffffffffffffffff81111561304d57600080fd5b61305988828901612e99565b925050608086013567ffffffffffffffff81111561307657600080fd5b61308288828901612f02565b9150509295509295909350565b600080600080600060a086880312156130a757600080fd5b60006130b588828901612e10565b95505060206130c688828901612e10565b94505060406130d788828901612f56565b93505060606130e888828901612f56565b925050608086013567ffffffffffffffff81111561310557600080fd5b61311188828901612f02565b9150509295509295909350565b60008060006040848603121561313357600080fd5b600061314186828701612e10565b935050602084013567ffffffffffffffff81111561315e57600080fd5b61316a86828701612e4f565b92509250509250925092565b60008060006060848603121561318b57600080fd5b600061319986828701612e10565b935050602084013567ffffffffffffffff8111156131b657600080fd5b6131c286828701612e99565b925050604084013567ffffffffffffffff8111156131df57600080fd5b6131eb86828701612e99565b9150509250925092565b6000806040838503121561320857600080fd5b600061321685828601612e10565b925050602061322785828601612ec3565b9150509250929050565b6000806040838503121561324457600080fd5b600061325285828601612e10565b925050602061326385828601612f56565b9150509250929050565b60008060006060848603121561328257600080fd5b600061329086828701612e10565b93505060206132a186828701612f56565b92505060406132b286828701612f56565b9150509250925092565b600080604083850312156132cf57600080fd5b600083013567ffffffffffffffff8111156132e957600080fd5b6132f585828601612e25565b925050602083013567ffffffffffffffff81111561331257600080fd5b61331e85828601612e99565b9150509250929050565b60008060006060848603121561333d57600080fd5b600084013567ffffffffffffffff81111561335757600080fd5b61336386828701612e99565b935050602084013567ffffffffffffffff81111561338057600080fd5b61338c86828701612e99565b925050604084013567ffffffffffffffff8111156133a957600080fd5b6133b586828701612f02565b9150509250925092565b6000602082840312156133d157600080fd5b60006133df84828501612ed8565b91505092915050565b6000602082840312156133fa57600080fd5b600061340884828501612eed565b91505092915050565b60006020828403121561342357600080fd5b600082013567ffffffffffffffff81111561343d57600080fd5b61344984828501612f2c565b91505092915050565b60006020828403121561346457600080fd5b600061347284828501612f56565b91505092915050565b6000806040838503121561348e57600080fd5b600061349c85828601612f56565b925050602083013567ffffffffffffffff8111156134b957600080fd5b6134c585828601612f02565b9150509250929050565b60006134db838361384b565b60208301905092915050565b6134f081613e06565b82525050565b600061350182613d4f565b61350b8185613d7d565b935061351683613d3f565b8060005b8381101561354757815161352e88826134cf565b975061353983613d70565b92505060018101905061351a565b5085935050505092915050565b61355d81613e18565b82525050565b600061356e82613d5a565b6135788185613d8e565b9350613588818560208601613e89565b61359181614017565b840191505092915050565b60006135a782613d65565b6135b18185613d9f565b93506135c1818560208601613e89565b6135ca81614017565b840191505092915050565b60006135e2603483613d9f565b91506135ed82614035565b604082019050919050565b6000613605602883613d9f565b915061361082614084565b604082019050919050565b6000613628601483613d9f565b9150613633826140d3565b602082019050919050565b600061364b602b83613d9f565b9150613656826140fc565b604082019050919050565b600061366e602683613d9f565b91506136798261414b565b604082019050919050565b6000613691602483613d9f565b915061369c8261419a565b604082019050919050565b60006136b4602983613d9f565b91506136bf826141e9565b604082019050919050565b60006136d7601083613d9f565b91506136e282614238565b602082019050919050565b60006136fa602583613d9f565b915061370582614261565b604082019050919050565b600061371d603283613d9f565b9150613728826142b0565b604082019050919050565b6000613740602383613d9f565b915061374b826142ff565b604082019050919050565b6000613763602a83613d9f565b915061376e8261434e565b604082019050919050565b6000613786601983613d9f565b91506137918261439d565b602082019050919050565b60006137a9602083613d9f565b91506137b4826143c6565b602082019050919050565b60006137cc602983613d9f565b91506137d7826143ef565b604082019050919050565b60006137ef602983613d9f565b91506137fa8261443e565b604082019050919050565b6000613812602883613d9f565b915061381d8261448d565b604082019050919050565b6000613835602183613d9f565b9150613840826144dc565b604082019050919050565b61385481613e70565b82525050565b61386381613e70565b82525050565b600060208201905061387e60008301846134e7565b92915050565b600060a08201905061389960008301886134e7565b6138a660208301876134e7565b81810360408301526138b881866134f6565b905081810360608301526138cc81856134f6565b905081810360808301526138e08184613563565b90509695505050505050565b600060a08201905061390160008301886134e7565b61390e60208301876134e7565b61391b604083018661385a565b613928606083018561385a565b818103608083015261393a8184613563565b90509695505050505050565b6000602082019050818103600083015261396081846134f6565b905092915050565b6000604082019050818103600083015261398281856134f6565b9050818103602083015261399681846134f6565b90509392505050565b60006020820190506139b46000830184613554565b92915050565b600060208201905081810360008301526139d4818461359c565b905092915050565b600060208201905081810360008301526139f5816135d5565b9050919050565b60006020820190508181036000830152613a15816135f8565b9050919050565b60006020820190508181036000830152613a358161361b565b9050919050565b60006020820190508181036000830152613a558161363e565b9050919050565b60006020820190508181036000830152613a7581613661565b9050919050565b60006020820190508181036000830152613a9581613684565b9050919050565b60006020820190508181036000830152613ab5816136a7565b9050919050565b60006020820190508181036000830152613ad5816136ca565b9050919050565b60006020820190508181036000830152613af5816136ed565b9050919050565b60006020820190508181036000830152613b1581613710565b9050919050565b60006020820190508181036000830152613b3581613733565b9050919050565b60006020820190508181036000830152613b5581613756565b9050919050565b60006020820190508181036000830152613b7581613779565b9050919050565b60006020820190508181036000830152613b958161379c565b9050919050565b60006020820190508181036000830152613bb5816137bf565b9050919050565b60006020820190508181036000830152613bd5816137e2565b9050919050565b60006020820190508181036000830152613bf581613805565b9050919050565b60006020820190508181036000830152613c1581613828565b9050919050565b6000602082019050613c31600083018461385a565b92915050565b6000604082019050613c4c600083018561385a565b613c59602083018461385a565b9392505050565b6000613c6a613c7b565b9050613c768282613eee565b919050565b6000604051905090565b600067ffffffffffffffff821115613ca057613c9f613fc6565b5b602082029050602081019050919050565b600067ffffffffffffffff821115613ccc57613ccb613fc6565b5b602082029050602081019050919050565b600067ffffffffffffffff821115613cf857613cf7613fc6565b5b613d0182614017565b9050602081019050919050565b600067ffffffffffffffff821115613d2957613d28613fc6565b5b613d3282614017565b9050602081019050919050565b6000819050602082019050919050565b600081519050919050565b600081519050919050565b600081519050919050565b6000602082019050919050565b600082825260208201905092915050565b600082825260208201905092915050565b600082825260208201905092915050565b6000613dbb82613e70565b9150613dc683613e70565b9250827fffffffffffffffffffffffffffffffffffffffffffffffffffffffffffffffff03821115613dfb57613dfa613f68565b5b828201905092915050565b6000613e1182613e50565b9050919050565b60008115159050919050565b60007fffffffff0000000000000000000000000000000000000000000000000000000082169050919050565b600073ffffffffffffffffffffffffffffffffffffffff82169050919050565b6000819050919050565b82818337600083830152505050565b60005b83811015613ea7578082015181840152602081019050613e8c565b83811115613eb6576000848401525b50505050565b60006002820490506001821680613ed457607f821691505b60208210811415613ee857613ee7613f97565b5b50919050565b613ef782614017565b810181811067ffffffffffffffff82111715613f1657613f15613fc6565b5b80604052505050565b6000613f2a82613e70565b91507fffffffffffffffffffffffffffffffffffffffffffffffffffffffffffffffff821415613f5d57613f5c613f68565b5b600182019050919050565b7f4e487b7100000000000000000000000000000000000000000000000000000000600052601160045260246000fd5b7f4e487b7100000000000000000000000000000000000000000000000000000000600052602260045260246000fd5b7f4e487b7100000000000000000000000000000000000000000000000000000000600052604160045260246000fd5b600060033d11156140145760046000803e614011600051614028565b90505b90565b6000601f19601f8301169050919050565b60008160e01c9050919050565b7f455243313135353a207472616e7366657220746f206e6f6e204552433131353560008201527f526563656976657220696d706c656d656e746572000000000000000000000000602082015250565b7f455243313135353a204552433131353552656365697665722072656a6563746560008201527f6420746f6b656e73000000000000000000000000000000000000000000000000602082015250565b7f5061757361626c653a206e6f7420706175736564000000000000000000000000600082015250565b7f455243313135353a2062616c616e636520717565727920666f7220746865207a60008201527f65726f2061646472657373000000000000000000000000000000000000000000602082015250565b7f4f776e61626c653a206e6577206f776e657220697320746865207a65726f206160008201527f6464726573730000000000000000000000000000000000000000000000000000602082015250565b7f455243313135353a206275726e20616d6f756e7420657863656564732062616c60008201527f616e636500000000000000000000000000000000000000000000000000000000602082015250565b7f455243313135353a2063616c6c6572206973206e6f74206f776e6572206e6f7260008201527f20617070726f7665640000000000000000000000000000000000000000000000602082015250565b7f5061757361626c653a2070617573656400000000000000000000000000000000600082015250565b7f455243313135353a207472616e7366657220746f20746865207a65726f20616460008201527f6472657373000000000000000000000000000000000000000000000000000000602082015250565b7f455243313135353a207472616e736665722063616c6c6572206973206e6f742060008201527f6f776e6572206e6f7220617070726f7665640000000000000000000000000000602082015250565b7f455243313135353a206275726e2066726f6d20746865207a65726f206164647260008201527f6573730000000000000000000000000000000000000000000000000000000000602082015250565b7f455243313135353a20696e73756666696369656e742062616c616e636520666f60008201527f72207472616e7366657200000000000000000000000000000000000000000000602082015250565b7f4163636573736f727920646f6573206e6f742065786973742e00000000000000600082015250565b7f4f776e61626c653a2063616c6c6572206973206e6f7420746865206f776e6572600082015250565b7f455243313135353a2073657474696e6720617070726f76616c2073746174757360008201527f20666f722073656c660000000000000000000000000000000000000000000000602082015250565b7f455243313135353a206163636f756e747320616e6420696473206c656e67746860008201527f206d69736d617463680000000000000000000000000000000000000000000000602082015250565b7f455243313135353a2069647320616e6420616d6f756e7473206c656e6774682060008201527f6d69736d61746368000000000000000000000000000000000000000000000000602082015250565b7f455243313135353a206d696e7420746f20746865207a65726f2061646472657360008201527f7300000000000000000000000000000000000000000000000000000000000000602082015250565b600060443d101561453b576145be565b614543613c7b565b60043d036004823e80513d602482011167ffffffffffffffff8211171561456b5750506145be565b808201805167ffffffffffffffff81111561458957505050506145be565b80602083010160043d0385018111156145a65750505050506145be565b6145b582602001850186613eee565b82955050505050505b90565b6145ca81613e06565b81146145d557600080fd5b50565b6145e181613e18565b81146145ec57600080fd5b50565b6145f881613e24565b811461460357600080fd5b50565b61460f81613e70565b811461461a57600080fd5b5056fea2646970667358221220093638546cd3b2cb24c4edd0a167754408721325ef8e8251d68f20fce4702c2864736f6c63430008020033",
  "immutableReferences": {},
  "source": "// contracts/Accessory.sol\n// SPDX-License-Identifier: MIT\npragma solidity ^0.8.2;\n\nimport \"@openzeppelin/contracts/token/ERC1155/ERC1155.sol\";\nimport \"@openzeppelin/contracts/access/Ownable.sol\";\nimport \"@openzeppelin/contracts/security/Pausable.sol\";\nimport \"@openzeppelin/contracts/token/ERC1155/extensions/ERC1155Burnable.sol\";\n\ncontract Accessory is ERC1155, Ownable, Pausable, ERC1155Burnable {\n    uint256 public constant CLASS_BUZZSAW = 1;\n    uint256 public constant CLASS_SWORD = 2;\n    uint256 public constant CLASS_SHIELD = 3;\n    uint256 public constant CLASS_AI_CHIP = 4;\n    string public name = \"Robot Accessory\";\n\n\n    constructor(uint256[] memory _clazzes, uint256[] memory _amounts, string memory uri) ERC1155(\"\") {\n        _setURI(uri);\n        mintBatchAccessories(_clazzes, _amounts, \"0x000\");\n    }\n\n    function setURI(string memory newuri) public onlyOwner {\n        _setURI(newuri);\n    }\n\n    function pause() public onlyOwner {\n        _pause();\n    }\n\n    function unpause() public onlyOwner {\n        _unpause();\n    }\n\n    function mintAccessory(uint256 _clazz, bytes memory _data) public whenNotPaused onlyOwner {\n        require(_clazz > 0 && _clazz <= 4, \"Accessory does not exist.\");\n        uint256 count = 1;\n        _mint(msg.sender, _clazz, count, _data);\n    }\n\n    function mintBatchAccessories(uint256[] memory _ids, uint256[] memory _amounts, bytes memory _data) public whenNotPaused onlyOwner {\n        uint256 _idsLength = _ids.length;\n        for (uint256 i=0; i<_idsLength; i++) {\n            require(_ids[i] > 0 && _ids[i] <= 4, \"Accessory does not exist.\");\n        }\n        _mintBatch(msg.sender, _ids, _amounts, _data);\n    }\n\n    function getWalletAccessories(address wallet, uint256[] calldata ids) public view whenNotPaused returns (uint256[] memory) {\n        address[] memory wal = new address[](1);\n        wal[0] = wallet;\n        return balanceOfBatch(wal, ids);\n    }\n\n    function _beforeTokenTransfer(address operator, address from, address to, uint256[] memory ids, uint256[] memory amounts, bytes memory data) internal whenNotPaused override {\n        super._beforeTokenTransfer(operator, from, to, ids, amounts, data);\n    }\n\n}\n\n",
  "sourcePath": "/home/seandevs/workspaces/celo-hackathon/nfts/robots/contracts/Accessory.sol",
  "compiler": {
    "name": "solc",
    "version": "0.8.2+commit.661d1103.Emscripten.clang"
  },
  "schemaVersion": "3.4.1",
  "updatedAt": "2021-11-27T23:38:13.745Z",
  "networkType": "ethereum",
  "devdoc": {
    "kind": "dev",
    "methods": {
      "balanceOf(address,uint256)": {
        "details": "See {IERC1155-balanceOf}. Requirements: - `account` cannot be the zero address."
      },
      "balanceOfBatch(address[],uint256[])": {
        "details": "See {IERC1155-balanceOfBatch}. Requirements: - `accounts` and `ids` must have the same length."
      },
      "isApprovedForAll(address,address)": {
        "details": "See {IERC1155-isApprovedForAll}."
      },
      "owner()": {
        "details": "Returns the address of the current owner."
      },
      "paused()": {
        "details": "Returns true if the contract is paused, and false otherwise."
      },
      "renounceOwnership()": {
        "details": "Leaves the contract without owner. It will not be possible to call `onlyOwner` functions anymore. Can only be called by the current owner. NOTE: Renouncing ownership will leave the contract without an owner, thereby removing any functionality that is only available to the owner."
      },
      "safeBatchTransferFrom(address,address,uint256[],uint256[],bytes)": {
        "details": "See {IERC1155-safeBatchTransferFrom}."
      },
      "safeTransferFrom(address,address,uint256,uint256,bytes)": {
        "details": "See {IERC1155-safeTransferFrom}."
      },
      "setApprovalForAll(address,bool)": {
        "details": "See {IERC1155-setApprovalForAll}."
      },
      "supportsInterface(bytes4)": {
        "details": "See {IERC165-supportsInterface}."
      },
      "transferOwnership(address)": {
        "details": "Transfers ownership of the contract to a new account (`newOwner`). Can only be called by the current owner."
      },
      "uri(uint256)": {
        "details": "See {IERC1155MetadataURI-uri}. This implementation returns the same URI for *all* token types. It relies on the token type ID substitution mechanism https://eips.ethereum.org/EIPS/eip-1155#metadata[defined in the EIP]. Clients calling this function must replace the `\\{id\\}` substring with the actual token type ID."
      }
    },
    "version": 1
  },
  "userdoc": {
    "kind": "user",
    "methods": {},
    "version": 1
  }
}