{
  "contractName": "Accessory",
  "abi": [
    {
      "inputs": [
        {
          "internalType": "uint256[]",
          "name": "_clazzes",
          "type": "uint256[]"
        },
        {
          "internalType": "uint256[]",
          "name": "_amounts",
          "type": "uint256[]"
        },
        {
          "internalType": "string",
          "name": "uri",
          "type": "string"
        }
      ],
      "stateMutability": "nonpayable",
      "type": "constructor"
    },
    {
      "anonymous": false,
      "inputs": [
        {
          "indexed": true,
          "internalType": "address",
          "name": "account",
          "type": "address"
        },
        {
          "indexed": true,
          "internalType": "address",
          "name": "operator",
          "type": "address"
        },
        {
          "indexed": false,
          "internalType": "bool",
          "name": "approved",
          "type": "bool"
        }
      ],
      "name": "ApprovalForAll",
      "type": "event"
    },
    {
      "anonymous": false,
      "inputs": [
        {
          "indexed": true,
          "internalType": "address",
          "name": "previousOwner",
          "type": "address"
        },
        {
          "indexed": true,
          "internalType": "address",
          "name": "newOwner",
          "type": "address"
        }
      ],
      "name": "OwnershipTransferred",
      "type": "event"
    },
    {
      "anonymous": false,
      "inputs": [
        {
          "indexed": false,
          "internalType": "address",
          "name": "account",
          "type": "address"
        }
      ],
      "name": "Paused",
      "type": "event"
    },
    {
      "anonymous": false,
      "inputs": [
        {
          "indexed": true,
          "internalType": "address",
          "name": "operator",
          "type": "address"
        },
        {
          "indexed": true,
          "internalType": "address",
          "name": "from",
          "type": "address"
        },
        {
          "indexed": true,
          "internalType": "address",
          "name": "to",
          "type": "address"
        },
        {
          "indexed": false,
          "internalType": "uint256[]",
          "name": "ids",
          "type": "uint256[]"
        },
        {
          "indexed": false,
          "internalType": "uint256[]",
          "name": "values",
          "type": "uint256[]"
        }
      ],
      "name": "TransferBatch",
      "type": "event"
    },
    {
      "anonymous": false,
      "inputs": [
        {
          "indexed": true,
          "internalType": "address",
          "name": "operator",
          "type": "address"
        },
        {
          "indexed": true,
          "internalType": "address",
          "name": "from",
          "type": "address"
        },
        {
          "indexed": true,
          "internalType": "address",
          "name": "to",
          "type": "address"
        },
        {
          "indexed": false,
          "internalType": "uint256",
          "name": "id",
          "type": "uint256"
        },
        {
          "indexed": false,
          "internalType": "uint256",
          "name": "value",
          "type": "uint256"
        }
      ],
      "name": "TransferSingle",
      "type": "event"
    },
    {
      "anonymous": false,
      "inputs": [
        {
          "indexed": false,
          "internalType": "string",
          "name": "value",
          "type": "string"
        },
        {
          "indexed": true,
          "internalType": "uint256",
          "name": "id",
          "type": "uint256"
        }
      ],
      "name": "URI",
      "type": "event"
    },
    {
      "anonymous": false,
      "inputs": [
        {
          "indexed": false,
          "internalType": "address",
          "name": "account",
          "type": "address"
        }
      ],
      "name": "Unpaused",
      "type": "event"
    },
    {
      "inputs": [],
      "name": "CLASS_AI_CHIP",
      "outputs": [
        {
          "internalType": "uint256",
          "name": "",
          "type": "uint256"
        }
      ],
      "stateMutability": "view",
      "type": "function",
      "constant": true
    },
    {
      "inputs": [],
      "name": "CLASS_BUZZSAW",
      "outputs": [
        {
          "internalType": "uint256",
          "name": "",
          "type": "uint256"
        }
      ],
      "stateMutability": "view",
      "type": "function",
      "constant": true
    },
    {
      "inputs": [],
      "name": "CLASS_SHIELD",
      "outputs": [
        {
          "internalType": "uint256",
          "name": "",
          "type": "uint256"
        }
      ],
      "stateMutability": "view",
      "type": "function",
      "constant": true
    },
    {
      "inputs": [],
      "name": "CLASS_SWORD",
      "outputs": [
        {
          "internalType": "uint256",
          "name": "",
          "type": "uint256"
        }
      ],
      "stateMutability": "view",
      "type": "function",
      "constant": true
    },
    {
      "inputs": [
        {
          "internalType": "address",
          "name": "account",
          "type": "address"
        },
        {
          "internalType": "uint256",
          "name": "id",
          "type": "uint256"
        }
      ],
      "name": "balanceOf",
      "outputs": [
        {
          "internalType": "uint256",
          "name": "",
          "type": "uint256"
        }
      ],
      "stateMutability": "view",
      "type": "function",
      "constant": true
    },
    {
      "inputs": [
        {
          "internalType": "address[]",
          "name": "accounts",
          "type": "address[]"
        },
        {
          "internalType": "uint256[]",
          "name": "ids",
          "type": "uint256[]"
        }
      ],
      "name": "balanceOfBatch",
      "outputs": [
        {
          "internalType": "uint256[]",
          "name": "",
          "type": "uint256[]"
        }
      ],
      "stateMutability": "view",
      "type": "function",
      "constant": true
    },
    {
      "inputs": [
        {
          "internalType": "address",
          "name": "account",
          "type": "address"
        },
        {
          "internalType": "uint256",
          "name": "id",
          "type": "uint256"
        },
        {
          "internalType": "uint256",
          "name": "value",
          "type": "uint256"
        }
      ],
      "name": "burn",
      "outputs": [],
      "stateMutability": "nonpayable",
      "type": "function"
    },
    {
      "inputs": [
        {
          "internalType": "address",
          "name": "account",
          "type": "address"
        },
        {
          "internalType": "uint256[]",
          "name": "ids",
          "type": "uint256[]"
        },
        {
          "internalType": "uint256[]",
          "name": "values",
          "type": "uint256[]"
        }
      ],
      "name": "burnBatch",
      "outputs": [],
      "stateMutability": "nonpayable",
      "type": "function"
    },
    {
      "inputs": [
        {
          "internalType": "address",
          "name": "account",
          "type": "address"
        },
        {
          "internalType": "address",
          "name": "operator",
          "type": "address"
        }
      ],
      "name": "isApprovedForAll",
      "outputs": [
        {
          "internalType": "bool",
          "name": "",
          "type": "bool"
        }
      ],
      "stateMutability": "view",
      "type": "function",
      "constant": true
    },
    {
      "inputs": [],
      "name": "name",
      "outputs": [
        {
          "internalType": "string",
          "name": "",
          "type": "string"
        }
      ],
      "stateMutability": "view",
      "type": "function",
      "constant": true
    },
    {
      "inputs": [],
      "name": "owner",
      "outputs": [
        {
          "internalType": "address",
          "name": "",
          "type": "address"
        }
      ],
      "stateMutability": "view",
      "type": "function",
      "constant": true
    },
    {
      "inputs": [],
      "name": "paused",
      "outputs": [
        {
          "internalType": "bool",
          "name": "",
          "type": "bool"
        }
      ],
      "stateMutability": "view",
      "type": "function",
      "constant": true
    },
    {
      "inputs": [],
      "name": "renounceOwnership",
      "outputs": [],
      "stateMutability": "nonpayable",
      "type": "function"
    },
    {
      "inputs": [
        {
          "internalType": "address",
          "name": "from",
          "type": "address"
        },
        {
          "internalType": "address",
          "name": "to",
          "type": "address"
        },
        {
          "internalType": "uint256[]",
          "name": "ids",
          "type": "uint256[]"
        },
        {
          "internalType": "uint256[]",
          "name": "amounts",
          "type": "uint256[]"
        },
        {
          "internalType": "bytes",
          "name": "data",
          "type": "bytes"
        }
      ],
      "name": "safeBatchTransferFrom",
      "outputs": [],
      "stateMutability": "nonpayable",
      "type": "function"
    },
    {
      "inputs": [
        {
          "internalType": "address",
          "name": "from",
          "type": "address"
        },
        {
          "internalType": "address",
          "name": "to",
          "type": "address"
        },
        {
          "internalType": "uint256",
          "name": "id",
          "type": "uint256"
        },
        {
          "internalType": "uint256",
          "name": "amount",
          "type": "uint256"
        },
        {
          "internalType": "bytes",
          "name": "data",
          "type": "bytes"
        }
      ],
      "name": "safeTransferFrom",
      "outputs": [],
      "stateMutability": "nonpayable",
      "type": "function"
    },
    {
      "inputs": [
        {
          "internalType": "address",
          "name": "operator",
          "type": "address"
        },
        {
          "internalType": "bool",
          "name": "approved",
          "type": "bool"
        }
      ],
      "name": "setApprovalForAll",
      "outputs": [],
      "stateMutability": "nonpayable",
      "type": "function"
    },
    {
      "inputs": [
        {
          "internalType": "bytes4",
          "name": "interfaceId",
          "type": "bytes4"
        }
      ],
      "name": "supportsInterface",
      "outputs": [
        {
          "internalType": "bool",
          "name": "",
          "type": "bool"
        }
      ],
      "stateMutability": "view",
      "type": "function",
      "constant": true
    },
    {
      "inputs": [
        {
          "internalType": "address",
          "name": "newOwner",
          "type": "address"
        }
      ],
      "name": "transferOwnership",
      "outputs": [],
      "stateMutability": "nonpayable",
      "type": "function"
    },
    {
      "inputs": [
        {
          "internalType": "uint256",
          "name": "",
          "type": "uint256"
        }
      ],
      "name": "uri",
      "outputs": [
        {
          "internalType": "string",
          "name": "",
          "type": "string"
        }
      ],
      "stateMutability": "view",
      "type": "function",
      "constant": true
    },
    {
      "inputs": [
        {
          "internalType": "string",
          "name": "newuri",
          "type": "string"
        }
      ],
      "name": "setURI",
      "outputs": [],
      "stateMutability": "nonpayable",
      "type": "function"
    },
    {
      "inputs": [],
      "name": "pause",
      "outputs": [],
      "stateMutability": "nonpayable",
      "type": "function"
    },
    {
      "inputs": [],
      "name": "unpause",
      "outputs": [],
      "stateMutability": "nonpayable",
      "type": "function"
    },
    {
      "inputs": [
        {
          "internalType": "uint256",
          "name": "_clazz",
          "type": "uint256"
        },
        {
          "internalType": "bytes",
          "name": "_data",
          "type": "bytes"
        }
      ],
      "name": "mintAccessory",
      "outputs": [],
      "stateMutability": "nonpayable",
      "type": "function"
    },
    {
      "inputs": [
        {
          "internalType": "uint256[]",
          "name": "_ids",
          "type": "uint256[]"
        },
        {
          "internalType": "uint256[]",
          "name": "_amounts",
          "type": "uint256[]"
        },
        {
          "internalType": "bytes",
          "name": "_data",
          "type": "bytes"
        }
      ],
      "name": "mintBatchAccessories",
      "outputs": [],
      "stateMutability": "nonpayable",
      "type": "function"
    },
    {
      "inputs": [
        {
          "internalType": "address",
          "name": "wallet",
          "type": "address"
        },
        {
          "internalType": "uint256[]",
          "name": "ids",
          "type": "uint256[]"
        }
      ],
      "name": "getWalletAccessories",
      "outputs": [
        {
          "internalType": "uint256[]",
          "name": "",
          "type": "uint256[]"
        }
      ],
      "stateMutability": "view",
      "type": "function",
      "constant": true
    }
  ],
  "bytecode": "0x60806040526040518060400160405280600f81526020017f526f626f74204163636573736f72790000000000000000000000000000000000815250600490805190602001906200005192919062000997565b503480156200005f57600080fd5b5060405162005cb138038062005cb1833981810160405281019062000085919062000b89565b60405180602001604052806000815250620000a6816200014460201b60201c565b50620000c7620000bb6200016060201b60201c565b6200016860201b60201c565b6000600360146101000a81548160ff021916908315150217905550620000f3816200014460201b60201c565b6200013b83836040518060400160405280600581526020017f30783030300000000000000000000000000000000000000000000000000000008152506200022e60201b60201c565b50505062001661565b80600290805190602001906200015c92919062000997565b5050565b600033905090565b6000600360009054906101000a900473ffffffffffffffffffffffffffffffffffffffff16905081600360006101000a81548173ffffffffffffffffffffffffffffffffffffffff021916908373ffffffffffffffffffffffffffffffffffffffff1602179055508173ffffffffffffffffffffffffffffffffffffffff168173ffffffffffffffffffffffffffffffffffffffff167f8be0079c531659141344cd1fd0a4f28419497f9722a3daafe3b4186f6b6457e060405160405180910390a35050565b6200023e6200042960201b60201c565b1562000281576040517f08c379a0000000000000000000000000000000000000000000000000000000008152600401620002789062000fa4565b60405180910390fd5b620002916200016060201b60201c565b73ffffffffffffffffffffffffffffffffffffffff16620002b76200044060201b60201c565b73ffffffffffffffffffffffffffffffffffffffff161462000310576040517f08c379a0000000000000000000000000000000000000000000000000000000008152600401620003079062000fe8565b60405180910390fd5b60008351905060005b818110156200040e5760008582815181106200035e577f4e487b7100000000000000000000000000000000000000000000000000000000600052603260045260246000fd5b6020026020010151118015620003b657506004858281518110620003ab577f4e487b7100000000000000000000000000000000000000000000000000000000600052603260045260246000fd5b602002602001015111155b620003f8576040517f08c379a0000000000000000000000000000000000000000000000000000000008152600401620003ef9062000fc6565b60405180910390fd5b80806200040590620012b6565b91505062000319565b5062000423338585856200046a60201b60201c565b50505050565b6000600360149054906101000a900460ff16905090565b6000600360009054906101000a900473ffffffffffffffffffffffffffffffffffffffff16905090565b600073ffffffffffffffffffffffffffffffffffffffff168473ffffffffffffffffffffffffffffffffffffffff161415620004dd576040517f08c379a0000000000000000000000000000000000000000000000000000000008152600401620004d4906200102c565b60405180910390fd5b815183511462000524576040517f08c379a00000000000000000000000000000000000000000000000000000000081526004016200051b906200100a565b60405180910390fd5b6000620005366200016060201b60201c565b90506200054f81600087878787620006fc60201b60201c565b60005b84518110156200065c5783818151811062000596577f4e487b7100000000000000000000000000000000000000000000000000000000600052603260045260246000fd5b6020026020010151600080878481518110620005db577f4e487b7100000000000000000000000000000000000000000000000000000000600052603260045260246000fd5b6020026020010151815260200190815260200160002060008873ffffffffffffffffffffffffffffffffffffffff1673ffffffffffffffffffffffffffffffffffffffff16815260200190815260200160002060008282546200063f91906200114d565b9250508190555080806200065390620012b6565b91505062000552565b508473ffffffffffffffffffffffffffffffffffffffff16600073ffffffffffffffffffffffffffffffffffffffff168273ffffffffffffffffffffffffffffffffffffffff167f4a39dc06d4c0dbc64b70af90fd698a233a518aa5d07e595d983b8c0526c8f7fb8787604051620006d692919062000f01565b60405180910390a4620006f5816000878787876200077260201b60201c565b5050505050565b6200070c6200042960201b60201c565b156200074f576040517f08c379a0000000000000000000000000000000000000000000000000000000008152600401620007469062000fa4565b60405180910390fd5b6200076a8686868686866200097c60201b620015661760201c565b505050505050565b6200079e8473ffffffffffffffffffffffffffffffffffffffff166200098460201b6200156e1760201c565b1562000974578373ffffffffffffffffffffffffffffffffffffffff1663bc197c8187878686866040518663ffffffff1660e01b8152600401620007e795949392919062000e8f565b602060405180830381600087803b1580156200080257600080fd5b505af19250505080156200083657506040513d601f19601f8201168201806040525081019062000833919062000c2a565b60015b620008e8576200084562001391565b806308c379a01415620008a957506200085d6200158b565b806200086a5750620008ab565b806040517f08c379a0000000000000000000000000000000000000000000000000000000008152600401620008a0919062000f3c565b60405180910390fd5b505b6040517f08c379a0000000000000000000000000000000000000000000000000000000008152600401620008df9062000f60565b60405180910390fd5b63bc197c8160e01b7bffffffffffffffffffffffffffffffffffffffffffffffffffffffff1916817bffffffffffffffffffffffffffffffffffffffffffffffffffffffff19161462000972576040517f08c379a0000000000000000000000000000000000000000000000000000000008152600401620009699062000f82565b60405180910390fd5b505b505050505050565b505050505050565b600080823b905060008111915050919050565b828054620009a5906200124a565b90600052602060002090601f016020900481019282620009c9576000855562000a15565b82601f10620009e457805160ff191683800117855562000a15565b8280016001018555821562000a15579182015b8281111562000a14578251825591602001919060010190620009f7565b5b50905062000a24919062000a28565b5090565b5b8082111562000a4357600081600090555060010162000a29565b5090565b600062000a5e62000a588462001077565b6200104e565b9050808382526020820190508285602086028201111562000a7e57600080fd5b60005b8581101562000ab2578162000a97888262000b72565b84526020840193506020830192505060018101905062000a81565b5050509392505050565b600062000ad362000acd84620010a6565b6200104e565b90508281526020810184848401111562000aec57600080fd5b62000af984828562001214565b509392505050565b600082601f83011262000b1357600080fd5b815162000b2584826020860162000a47565b91505092915050565b60008151905062000b3f816200162d565b92915050565b600082601f83011262000b5757600080fd5b815162000b6984826020860162000abc565b91505092915050565b60008151905062000b838162001647565b92915050565b60008060006060848603121562000b9f57600080fd5b600084015167ffffffffffffffff81111562000bba57600080fd5b62000bc88682870162000b01565b935050602084015167ffffffffffffffff81111562000be657600080fd5b62000bf48682870162000b01565b925050604084015167ffffffffffffffff81111562000c1257600080fd5b62000c208682870162000b45565b9150509250925092565b60006020828403121562000c3d57600080fd5b600062000c4d8482850162000b2e565b91505092915050565b600062000c64838362000e7e565b60208301905092915050565b62000c7b81620011aa565b82525050565b600062000c8e82620010ec565b62000c9a81856200111a565b935062000ca783620010dc565b8060005b8381101562000cde57815162000cc2888262000c56565b975062000ccf836200110d565b92505060018101905062000cab565b5085935050505092915050565b600062000cf882620010f7565b62000d0481856200112b565b935062000d1681856020860162001214565b62000d2181620013b6565b840191505092915050565b600062000d398262001102565b62000d4581856200113c565b935062000d5781856020860162001214565b62000d6281620013b6565b840191505092915050565b600062000d7c6034836200113c565b915062000d8982620013d4565b604082019050919050565b600062000da36028836200113c565b915062000db08262001423565b604082019050919050565b600062000dca6010836200113c565b915062000dd78262001472565b602082019050919050565b600062000df16019836200113c565b915062000dfe826200149b565b602082019050919050565b600062000e186020836200113c565b915062000e2582620014c4565b602082019050919050565b600062000e3f6028836200113c565b915062000e4c82620014ed565b604082019050919050565b600062000e666021836200113c565b915062000e73826200153c565b604082019050919050565b62000e89816200120a565b82525050565b600060a08201905062000ea6600083018862000c70565b62000eb5602083018762000c70565b818103604083015262000ec9818662000c81565b9050818103606083015262000edf818562000c81565b9050818103608083015262000ef5818462000ceb565b90509695505050505050565b6000604082019050818103600083015262000f1d818562000c81565b9050818103602083015262000f33818462000c81565b90509392505050565b6000602082019050818103600083015262000f58818462000d2c565b905092915050565b6000602082019050818103600083015262000f7b8162000d6d565b9050919050565b6000602082019050818103600083015262000f9d8162000d94565b9050919050565b6000602082019050818103600083015262000fbf8162000dbb565b9050919050565b6000602082019050818103600083015262000fe18162000de2565b9050919050565b60006020820190508181036000830152620010038162000e09565b9050919050565b60006020820190508181036000830152620010258162000e30565b9050919050565b60006020820190508181036000830152620010478162000e57565b9050919050565b60006200105a6200106d565b905062001068828262001280565b919050565b6000604051905090565b600067ffffffffffffffff82111562001095576200109462001362565b5b602082029050602081019050919050565b600067ffffffffffffffff821115620010c457620010c362001362565b5b620010cf82620013b6565b9050602081019050919050565b6000819050602082019050919050565b600081519050919050565b600081519050919050565b600081519050919050565b6000602082019050919050565b600082825260208201905092915050565b600082825260208201905092915050565b600082825260208201905092915050565b60006200115a826200120a565b915062001167836200120a565b9250827fffffffffffffffffffffffffffffffffffffffffffffffffffffffffffffffff038211156200119f576200119e62001304565b5b828201905092915050565b6000620011b782620011ea565b9050919050565b60007fffffffff0000000000000000000000000000000000000000000000000000000082169050919050565b600073ffffffffffffffffffffffffffffffffffffffff82169050919050565b6000819050919050565b60005b838110156200123457808201518184015260208101905062001217565b8381111562001244576000848401525b50505050565b600060028204905060018216806200126357607f821691505b602082108114156200127a576200127962001333565b5b50919050565b6200128b82620013b6565b810181811067ffffffffffffffff82111715620012ad57620012ac62001362565b5b80604052505050565b6000620012c3826200120a565b91507fffffffffffffffffffffffffffffffffffffffffffffffffffffffffffffffff821415620012f957620012f862001304565b5b600182019050919050565b7f4e487b7100000000000000000000000000000000000000000000000000000000600052601160045260246000fd5b7f4e487b7100000000000000000000000000000000000000000000000000000000600052602260045260246000fd5b7f4e487b7100000000000000000000000000000000000000000000000000000000600052604160045260246000fd5b600060033d1115620013b35760046000803e620013b0600051620013c7565b90505b90565b6000601f19601f8301169050919050565b60008160e01c9050919050565b7f455243313135353a207472616e7366657220746f206e6f6e204552433131353560008201527f526563656976657220696d706c656d656e746572000000000000000000000000602082015250565b7f455243313135353a204552433131353552656365697665722072656a6563746560008201527f6420746f6b656e73000000000000000000000000000000000000000000000000602082015250565b7f5061757361626c653a2070617573656400000000000000000000000000000000600082015250565b7f4163636573736f727920646f6573206e6f742065786973742e00000000000000600082015250565b7f4f776e61626c653a2063616c6c6572206973206e6f7420746865206f776e6572600082015250565b7f455243313135353a2069647320616e6420616d6f756e7473206c656e6774682060008201527f6d69736d61746368000000000000000000000000000000000000000000000000602082015250565b7f455243313135353a206d696e7420746f20746865207a65726f2061646472657360008201527f7300000000000000000000000000000000000000000000000000000000000000602082015250565b600060443d10156200159d576200162a565b620015a76200106d565b60043d036004823e80513d602482011167ffffffffffffffff82111715620015d15750506200162a565b808201805167ffffffffffffffff811115620015f157505050506200162a565b80602083010160043d038501811115620016105750505050506200162a565b620016218260200185018662001280565b82955050505050505b90565b6200163881620011be565b81146200164457600080fd5b50565b62001652816200120a565b81146200165e57600080fd5b50565b61464080620016716000396000f3fe608060405234801561001057600080fd5b50600436106101725760003560e01c80635c975abb116100de578063a700824511610097578063eb3b578d11610071578063eb3b578d14610413578063f242432a1461042f578063f2fde38b1461044b578063f5298aca1461046757610172565b8063a7008245146103a9578063d0512d10146103c7578063e985e9c5146103e357610172565b80635c975abb146103215780636b20c4541461033f578063715018a61461035b5780638456cb59146103655780638da5cb5b1461036f578063a22cb4651461038d57610172565b806329dde7851161013057806329dde7851461025f5780632eb2c2d61461027d578063398f6d80146102995780633f4ba83a146102b75780634e1273f4146102c1578063542a2dc8146102f157610172565b8062fdd58e1461017757806301ffc9a7146101a757806302fe5305146101d757806306fdde03146101f357806307b19e93146102115780630e89341c1461022f575b600080fd5b610191600480360381019061018c919061321e565b610483565b60405161019e9190613c09565b60405180910390f35b6101c160048036038101906101bc91906133ac565b61054c565b6040516101ce919061398c565b60405180910390f35b6101f160048036038101906101ec91906133fe565b61062e565b005b6101fb6106b6565b60405161020891906139a7565b60405180910390f35b610219610744565b6040516102269190613c09565b60405180910390f35b6102496004803603810190610244919061343f565b610749565b60405161025691906139a7565b60405180910390f35b6102676107dd565b6040516102749190613c09565b60405180910390f35b61029760048036038101906102929190612fbd565b6107e2565b005b6102a1610883565b6040516102ae9190613c09565b60405180910390f35b6102bf610888565b005b6102db60048036038101906102d691906132a9565b61090e565b6040516102e89190613933565b60405180910390f35b61030b6004803603810190610306919061310b565b610abf565b6040516103189190613933565b60405180910390f35b610329610c47565b604051610336919061398c565b60405180910390f35b61035960048036038101906103549190613163565b610c5e565b005b610363610cfb565b005b61036d610d83565b005b610377610e09565b6040516103849190613856565b60405180910390f35b6103a760048036038101906103a291906131e2565b610e33565b005b6103b1610fb4565b6040516103be9190613c09565b60405180910390f35b6103e160048036038101906103dc9190613315565b610fb9565b005b6103fd60048036038101906103f89190612f81565b611184565b60405161040a919061398c565b60405180910390f35b61042d60048036038101906104289190613468565b611218565b005b6104496004803603810190610444919061307c565b611330565b005b61046560048036038101906104609190612f58565b6113d1565b005b610481600480360381019061047c919061325a565b6114c9565b005b60008073ffffffffffffffffffffffffffffffffffffffff168373ffffffffffffffffffffffffffffffffffffffff1614156104f4576040517f08c379a00000000000000000000000000000000000000000000000000000000081526004016104eb90613a29565b60405180910390fd5b60008083815260200190815260200160002060008473ffffffffffffffffffffffffffffffffffffffff1673ffffffffffffffffffffffffffffffffffffffff16815260200190815260200160002054905092915050565b60007fd9b67a26000000000000000000000000000000000000000000000000000000007bffffffffffffffffffffffffffffffffffffffffffffffffffffffff1916827bffffffffffffffffffffffffffffffffffffffffffffffffffffffff1916148061061757507f0e89341c000000000000000000000000000000000000000000000000000000007bffffffffffffffffffffffffffffffffffffffffffffffffffffffff1916827bffffffffffffffffffffffffffffffffffffffffffffffffffffffff1916145b80610627575061062682611581565b5b9050919050565b6106366115eb565b73ffffffffffffffffffffffffffffffffffffffff16610654610e09565b73ffffffffffffffffffffffffffffffffffffffff16146106aa576040517f08c379a00000000000000000000000000000000000000000000000000000000081526004016106a190613b69565b60405180910390fd5b6106b3816115f3565b50565b600480546106c390613ea9565b80601f01602080910402602001604051908101604052809291908181526020018280546106ef90613ea9565b801561073c5780601f106107115761010080835404028352916020019161073c565b820191906000526020600020905b81548152906001019060200180831161071f57829003601f168201915b505050505081565b600281565b60606002805461075890613ea9565b80601f016020809104026020016040519081016040528092919081815260200182805461078490613ea9565b80156107d15780601f106107a6576101008083540402835291602001916107d1565b820191906000526020600020905b8154815290600101906020018083116107b457829003601f168201915b50505050509050919050565b600381565b6107ea6115eb565b73ffffffffffffffffffffffffffffffffffffffff168573ffffffffffffffffffffffffffffffffffffffff161480610830575061082f8561082a6115eb565b611184565b5b61086f576040517f08c379a000000000000000000000000000000000000000000000000000000000815260040161086690613ae9565b60405180910390fd5b61087c858585858561160d565b5050505050565b600181565b6108906115eb565b73ffffffffffffffffffffffffffffffffffffffff166108ae610e09565b73ffffffffffffffffffffffffffffffffffffffff1614610904576040517f08c379a00000000000000000000000000000000000000000000000000000000081526004016108fb90613b69565b60405180910390fd5b61090c61196d565b565b60608151835114610954576040517f08c379a000000000000000000000000000000000000000000000000000000000815260040161094b90613ba9565b60405180910390fd5b6000835167ffffffffffffffff811115610997577f4e487b7100000000000000000000000000000000000000000000000000000000600052604160045260246000fd5b6040519080825280602002602001820160405280156109c55781602001602082028036833780820191505090505b50905060005b8451811015610ab457610a5e858281518110610a10577f4e487b7100000000000000000000000000000000000000000000000000000000600052603260045260246000fd5b6020026020010151858381518110610a51577f4e487b7100000000000000000000000000000000000000000000000000000000600052603260045260246000fd5b6020026020010151610483565b828281518110610a97577f4e487b7100000000000000000000000000000000000000000000000000000000600052603260045260246000fd5b60200260200101818152505080610aad90613f0c565b90506109cb565b508091505092915050565b6060610ac9610c47565b15610b09576040517f08c379a0000000000000000000000000000000000000000000000000000000008152600401610b0090613aa9565b60405180910390fd5b6000600167ffffffffffffffff811115610b4c577f4e487b7100000000000000000000000000000000000000000000000000000000600052604160045260246000fd5b604051908082528060200260200182016040528015610b7a5781602001602082028036833780820191505090505b5090508481600081518110610bb8577f4e487b7100000000000000000000000000000000000000000000000000000000600052603260045260246000fd5b602002602001019073ffffffffffffffffffffffffffffffffffffffff16908173ffffffffffffffffffffffffffffffffffffffff1681525050610c3d81858580806020026020016040519081016040528093929190818152602001838360200280828437600081840152601f19601f8201169050808301925050505050505061090e565b9150509392505050565b6000600360149054906101000a900460ff16905090565b610c666115eb565b73ffffffffffffffffffffffffffffffffffffffff168373ffffffffffffffffffffffffffffffffffffffff161480610cac5750610cab83610ca66115eb565b611184565b5b610ceb576040517f08c379a0000000000000000000000000000000000000000000000000000000008152600401610ce290613a89565b60405180910390fd5b610cf6838383611a0f565b505050565b610d036115eb565b73ffffffffffffffffffffffffffffffffffffffff16610d21610e09565b73ffffffffffffffffffffffffffffffffffffffff1614610d77576040517f08c379a0000000000000000000000000000000000000000000000000000000008152600401610d6e90613b69565b60405180910390fd5b610d816000611d0c565b565b610d8b6115eb565b73ffffffffffffffffffffffffffffffffffffffff16610da9610e09565b73ffffffffffffffffffffffffffffffffffffffff1614610dff576040517f08c379a0000000000000000000000000000000000000000000000000000000008152600401610df690613b69565b60405180910390fd5b610e07611dd2565b565b6000600360009054906101000a900473ffffffffffffffffffffffffffffffffffffffff16905090565b8173ffffffffffffffffffffffffffffffffffffffff16610e526115eb565b73ffffffffffffffffffffffffffffffffffffffff161415610ea9576040517f08c379a0000000000000000000000000000000000000000000000000000000008152600401610ea090613b89565b60405180910390fd5b8060016000610eb66115eb565b73ffffffffffffffffffffffffffffffffffffffff1673ffffffffffffffffffffffffffffffffffffffff16815260200190815260200160002060008473ffffffffffffffffffffffffffffffffffffffff1673ffffffffffffffffffffffffffffffffffffffff16815260200190815260200160002060006101000a81548160ff0219169083151502179055508173ffffffffffffffffffffffffffffffffffffffff16610f636115eb565b73ffffffffffffffffffffffffffffffffffffffff167f17307eab39ab6107e8899845ad3d59bd9653f200f220920489ca2b5937696c3183604051610fa8919061398c565b60405180910390a35050565b600081565b610fc1610c47565b15611001576040517f08c379a0000000000000000000000000000000000000000000000000000000008152600401610ff890613aa9565b60405180910390fd5b6110096115eb565b73ffffffffffffffffffffffffffffffffffffffff16611027610e09565b73ffffffffffffffffffffffffffffffffffffffff161461107d576040517f08c379a000000000000000000000000000000000000000000000000000000000815260040161107490613b69565b60405180910390fd5b60008351905060005b818110156111715760008582815181106110c9577f4e487b7100000000000000000000000000000000000000000000000000000000600052603260045260246000fd5b602002602001015111801561111f57506004858281518110611114577f4e487b7100000000000000000000000000000000000000000000000000000000600052603260045260246000fd5b602002602001015111155b61115e576040517f08c379a000000000000000000000000000000000000000000000000000000000815260040161115590613b49565b60405180910390fd5b808061116990613f0c565b915050611086565b5061117e33858585611e75565b50505050565b6000600160008473ffffffffffffffffffffffffffffffffffffffff1673ffffffffffffffffffffffffffffffffffffffff16815260200190815260200160002060008373ffffffffffffffffffffffffffffffffffffffff1673ffffffffffffffffffffffffffffffffffffffff16815260200190815260200160002060009054906101000a900460ff16905092915050565b611220610c47565b15611260576040517f08c379a000000000000000000000000000000000000000000000000000000000815260040161125790613aa9565b60405180910390fd5b6112686115eb565b73ffffffffffffffffffffffffffffffffffffffff16611286610e09565b73ffffffffffffffffffffffffffffffffffffffff16146112dc576040517f08c379a00000000000000000000000000000000000000000000000000000000081526004016112d390613b69565b60405180910390fd5b6004821061131f576040517f08c379a000000000000000000000000000000000000000000000000000000000815260040161131690613b49565b60405180910390fd5b61132c33836001846120df565b5050565b6113386115eb565b73ffffffffffffffffffffffffffffffffffffffff168573ffffffffffffffffffffffffffffffffffffffff16148061137e575061137d856113786115eb565b611184565b5b6113bd576040517f08c379a00000000000000000000000000000000000000000000000000000000081526004016113b490613a89565b60405180910390fd5b6113ca8585858585612275565b5050505050565b6113d96115eb565b73ffffffffffffffffffffffffffffffffffffffff166113f7610e09565b73ffffffffffffffffffffffffffffffffffffffff161461144d576040517f08c379a000000000000000000000000000000000000000000000000000000000815260040161144490613b69565b60405180910390fd5b600073ffffffffffffffffffffffffffffffffffffffff168173ffffffffffffffffffffffffffffffffffffffff1614156114bd576040517f08c379a00000000000000000000000000000000000000000000000000000000081526004016114b490613a49565b60405180910390fd5b6114c681611d0c565b50565b6114d16115eb565b73ffffffffffffffffffffffffffffffffffffffff168373ffffffffffffffffffffffffffffffffffffffff1614806115175750611516836115116115eb565b611184565b5b611556576040517f08c379a000000000000000000000000000000000000000000000000000000000815260040161154d90613a89565b60405180910390fd5b6115618383836124f7565b505050565b505050505050565b600080823b905060008111915050919050565b60007f01ffc9a7000000000000000000000000000000000000000000000000000000007bffffffffffffffffffffffffffffffffffffffffffffffffffffffff1916827bffffffffffffffffffffffffffffffffffffffffffffffffffffffff1916149050919050565b600033905090565b8060029080519060200190611609929190612c06565b5050565b8151835114611651576040517f08c379a000000000000000000000000000000000000000000000000000000000815260040161164890613bc9565b60405180910390fd5b600073ffffffffffffffffffffffffffffffffffffffff168473ffffffffffffffffffffffffffffffffffffffff1614156116c1576040517f08c379a00000000000000000000000000000000000000000000000000000000081526004016116b890613ac9565b60405180910390fd5b60006116cb6115eb565b90506116db818787878787612714565b60005b84518110156118d8576000858281518110611722577f4e487b7100000000000000000000000000000000000000000000000000000000600052603260045260246000fd5b602002602001015190506000858381518110611767577f4e487b7100000000000000000000000000000000000000000000000000000000600052603260045260246000fd5b60200260200101519050600080600084815260200190815260200160002060008b73ffffffffffffffffffffffffffffffffffffffff1673ffffffffffffffffffffffffffffffffffffffff16815260200190815260200160002054905081811015611808576040517f08c379a00000000000000000000000000000000000000000000000000000000081526004016117ff90613b29565b60405180910390fd5b81810360008085815260200190815260200160002060008c73ffffffffffffffffffffffffffffffffffffffff1673ffffffffffffffffffffffffffffffffffffffff168152602001908152602001600020819055508160008085815260200190815260200160002060008b73ffffffffffffffffffffffffffffffffffffffff1673ffffffffffffffffffffffffffffffffffffffff16815260200190815260200160002060008282546118bd9190613d9d565b92505081905550505050806118d190613f0c565b90506116de565b508473ffffffffffffffffffffffffffffffffffffffff168673ffffffffffffffffffffffffffffffffffffffff168273ffffffffffffffffffffffffffffffffffffffff167f4a39dc06d4c0dbc64b70af90fd698a233a518aa5d07e595d983b8c0526c8f7fb878760405161194f929190613955565b60405180910390a4611965818787878787612772565b505050505050565b611975610c47565b6119b4576040517f08c379a00000000000000000000000000000000000000000000000000000000081526004016119ab90613a09565b60405180910390fd5b6000600360146101000a81548160ff0219169083151502179055507f5db9ee0a495bf2e6ff9c91a7834c1ba4fdd244a5e8aa4e537bd38aeae4b073aa6119f86115eb565b604051611a059190613856565b60405180910390a1565b600073ffffffffffffffffffffffffffffffffffffffff168373ffffffffffffffffffffffffffffffffffffffff161415611a7f576040517f08c379a0000000000000000000000000000000000000000000000000000000008152600401611a7690613b09565b60405180910390fd5b8051825114611ac3576040517f08c379a0000000000000000000000000000000000000000000000000000000008152600401611aba90613bc9565b60405180910390fd5b6000611acd6115eb565b9050611aed81856000868660405180602001604052806000815250612714565b60005b8351811015611c86576000848281518110611b34577f4e487b7100000000000000000000000000000000000000000000000000000000600052603260045260246000fd5b602002602001015190506000848381518110611b79577f4e487b7100000000000000000000000000000000000000000000000000000000600052603260045260246000fd5b60200260200101519050600080600084815260200190815260200160002060008973ffffffffffffffffffffffffffffffffffffffff1673ffffffffffffffffffffffffffffffffffffffff16815260200190815260200160002054905081811015611c1a576040517f08c379a0000000000000000000000000000000000000000000000000000000008152600401611c1190613a69565b60405180910390fd5b81810360008085815260200190815260200160002060008a73ffffffffffffffffffffffffffffffffffffffff1673ffffffffffffffffffffffffffffffffffffffff168152602001908152602001600020819055505050508080611c7e90613f0c565b915050611af0565b50600073ffffffffffffffffffffffffffffffffffffffff168473ffffffffffffffffffffffffffffffffffffffff168273ffffffffffffffffffffffffffffffffffffffff167f4a39dc06d4c0dbc64b70af90fd698a233a518aa5d07e595d983b8c0526c8f7fb8686604051611cfe929190613955565b60405180910390a450505050565b6000600360009054906101000a900473ffffffffffffffffffffffffffffffffffffffff16905081600360006101000a81548173ffffffffffffffffffffffffffffffffffffffff021916908373ffffffffffffffffffffffffffffffffffffffff1602179055508173ffffffffffffffffffffffffffffffffffffffff168173ffffffffffffffffffffffffffffffffffffffff167f8be0079c531659141344cd1fd0a4f28419497f9722a3daafe3b4186f6b6457e060405160405180910390a35050565b611dda610c47565b15611e1a576040517f08c379a0000000000000000000000000000000000000000000000000000000008152600401611e1190613aa9565b60405180910390fd5b6001600360146101000a81548160ff0219169083151502179055507f62e78cea01bee320cd4e420270b5ea74000d11b0c9f74754ebdbfc544b05a258611e5e6115eb565b604051611e6b9190613856565b60405180910390a1565b600073ffffffffffffffffffffffffffffffffffffffff168473ffffffffffffffffffffffffffffffffffffffff161415611ee5576040517f08c379a0000000000000000000000000000000000000000000000000000000008152600401611edc90613be9565b60405180910390fd5b8151835114611f29576040517f08c379a0000000000000000000000000000000000000000000000000000000008152600401611f2090613bc9565b60405180910390fd5b6000611f336115eb565b9050611f4481600087878787612714565b60005b845181101561204957838181518110611f89577f4e487b7100000000000000000000000000000000000000000000000000000000600052603260045260246000fd5b6020026020010151600080878481518110611fcd577f4e487b7100000000000000000000000000000000000000000000000000000000600052603260045260246000fd5b6020026020010151815260200190815260200160002060008873ffffffffffffffffffffffffffffffffffffffff1673ffffffffffffffffffffffffffffffffffffffff168152602001908152602001600020600082825461202f9190613d9d565b92505081905550808061204190613f0c565b915050611f47565b508473ffffffffffffffffffffffffffffffffffffffff16600073ffffffffffffffffffffffffffffffffffffffff168273ffffffffffffffffffffffffffffffffffffffff167f4a39dc06d4c0dbc64b70af90fd698a233a518aa5d07e595d983b8c0526c8f7fb87876040516120c1929190613955565b60405180910390a46120d881600087878787612772565b5050505050565b600073ffffffffffffffffffffffffffffffffffffffff168473ffffffffffffffffffffffffffffffffffffffff16141561214f576040517f08c379a000000000000000000000000000000000000000000000000000000000815260040161214690613be9565b60405180910390fd5b60006121596115eb565b905061217a8160008761216b88612959565b61217488612959565b87612714565b8260008086815260200190815260200160002060008773ffffffffffffffffffffffffffffffffffffffff1673ffffffffffffffffffffffffffffffffffffffff16815260200190815260200160002060008282546121d99190613d9d565b925050819055508473ffffffffffffffffffffffffffffffffffffffff16600073ffffffffffffffffffffffffffffffffffffffff168273ffffffffffffffffffffffffffffffffffffffff167fc3d58168c5ae7397731d063d5bbf3d657854427343f4c083240f7aacaa2d0f628787604051612257929190613c24565b60405180910390a461226e81600087878787612a1f565b5050505050565b600073ffffffffffffffffffffffffffffffffffffffff168473ffffffffffffffffffffffffffffffffffffffff1614156122e5576040517f08c379a00000000000000000000000000000000000000000000000000000000081526004016122dc90613ac9565b60405180910390fd5b60006122ef6115eb565b905061230f81878761230088612959565b61230988612959565b87612714565b600080600086815260200190815260200160002060008873ffffffffffffffffffffffffffffffffffffffff1673ffffffffffffffffffffffffffffffffffffffff168152602001908152602001600020549050838110156123a6576040517f08c379a000000000000000000000000000000000000000000000000000000000815260040161239d90613b29565b60405180910390fd5b83810360008087815260200190815260200160002060008973ffffffffffffffffffffffffffffffffffffffff1673ffffffffffffffffffffffffffffffffffffffff168152602001908152602001600020819055508360008087815260200190815260200160002060008873ffffffffffffffffffffffffffffffffffffffff1673ffffffffffffffffffffffffffffffffffffffff168152602001908152602001600020600082825461245b9190613d9d565b925050819055508573ffffffffffffffffffffffffffffffffffffffff168773ffffffffffffffffffffffffffffffffffffffff168373ffffffffffffffffffffffffffffffffffffffff167fc3d58168c5ae7397731d063d5bbf3d657854427343f4c083240f7aacaa2d0f6288886040516124d8929190613c24565b60405180910390a46124ee828888888888612a1f565b50505050505050565b600073ffffffffffffffffffffffffffffffffffffffff168373ffffffffffffffffffffffffffffffffffffffff161415612567576040517f08c379a000000000000000000000000000000000000000000000000000000000815260040161255e90613b09565b60405180910390fd5b60006125716115eb565b90506125a18185600061258387612959565b61258c87612959565b60405180602001604052806000815250612714565b600080600085815260200190815260200160002060008673ffffffffffffffffffffffffffffffffffffffff1673ffffffffffffffffffffffffffffffffffffffff16815260200190815260200160002054905082811015612638576040517f08c379a000000000000000000000000000000000000000000000000000000000815260040161262f90613a69565b60405180910390fd5b82810360008086815260200190815260200160002060008773ffffffffffffffffffffffffffffffffffffffff1673ffffffffffffffffffffffffffffffffffffffff16815260200190815260200160002081905550600073ffffffffffffffffffffffffffffffffffffffff168573ffffffffffffffffffffffffffffffffffffffff168373ffffffffffffffffffffffffffffffffffffffff167fc3d58168c5ae7397731d063d5bbf3d657854427343f4c083240f7aacaa2d0f628787604051612705929190613c24565b60405180910390a45050505050565b61271c610c47565b1561275c576040517f08c379a000000000000000000000000000000000000000000000000000000000815260040161275390613aa9565b60405180910390fd5b61276a868686868686611566565b505050505050565b6127918473ffffffffffffffffffffffffffffffffffffffff1661156e565b15612951578373ffffffffffffffffffffffffffffffffffffffff1663bc197c8187878686866040518663ffffffff1660e01b81526004016127d7959493929190613871565b602060405180830381600087803b1580156127f157600080fd5b505af192505050801561282257506040513d601f19601f8201168201806040525081019061281f91906133d5565b60015b6128c85761282e613fe2565b806308c379a0141561288b5750612843614518565b8061284e575061288d565b806040517f08c379a000000000000000000000000000000000000000000000000000000000815260040161288291906139a7565b60405180910390fd5b505b6040517f08c379a00000000000000000000000000000000000000000000000000000000081526004016128bf906139c9565b60405180910390fd5b63bc197c8160e01b7bffffffffffffffffffffffffffffffffffffffffffffffffffffffff1916817bffffffffffffffffffffffffffffffffffffffffffffffffffffffff19161461294f576040517f08c379a0000000000000000000000000000000000000000000000000000000008152600401612946906139e9565b60405180910390fd5b505b505050505050565b60606000600167ffffffffffffffff81111561299e577f4e487b7100000000000000000000000000000000000000000000000000000000600052604160045260246000fd5b6040519080825280602002602001820160405280156129cc5781602001602082028036833780820191505090505b5090508281600081518110612a0a577f4e487b7100000000000000000000000000000000000000000000000000000000600052603260045260246000fd5b60200260200101818152505080915050919050565b612a3e8473ffffffffffffffffffffffffffffffffffffffff1661156e565b15612bfe578373ffffffffffffffffffffffffffffffffffffffff1663f23a6e6187878686866040518663ffffffff1660e01b8152600401612a849594939291906138d9565b602060405180830381600087803b158015612a9e57600080fd5b505af1925050508015612acf57506040513d601f19601f82011682018060405250810190612acc91906133d5565b60015b612b7557612adb613fe2565b806308c379a01415612b385750612af0614518565b80612afb5750612b3a565b806040517f08c379a0000000000000000000000000000000000000000000000000000000008152600401612b2f91906139a7565b60405180910390fd5b505b6040517f08c379a0000000000000000000000000000000000000000000000000000000008152600401612b6c906139c9565b60405180910390fd5b63f23a6e6160e01b7bffffffffffffffffffffffffffffffffffffffffffffffffffffffff1916817bffffffffffffffffffffffffffffffffffffffffffffffffffffffff191614612bfc576040517f08c379a0000000000000000000000000000000000000000000000000000000008152600401612bf3906139e9565b60405180910390fd5b505b505050505050565b828054612c1290613ea9565b90600052602060002090601f016020900481019282612c345760008555612c7b565b82601f10612c4d57805160ff1916838001178555612c7b565b82800160010185558215612c7b579182015b82811115612c7a578251825591602001919060010190612c5f565b5b509050612c889190612c8c565b5090565b5b80821115612ca5576000816000905550600101612c8d565b5090565b6000612cbc612cb784613c72565b613c4d565b90508083825260208201905082856020860282011115612cdb57600080fd5b60005b85811015612d0b5781612cf18882612dfd565b845260208401935060208301925050600181019050612cde565b5050509392505050565b6000612d28612d2384613c9e565b613c4d565b90508083825260208201905082856020860282011115612d4757600080fd5b60005b85811015612d775781612d5d8882612f43565b845260208401935060208301925050600181019050612d4a565b5050509392505050565b6000612d94612d8f84613cca565b613c4d565b905082815260208101848484011115612dac57600080fd5b612db7848285613e67565b509392505050565b6000612dd2612dcd84613cfb565b613c4d565b905082815260208101848484011115612dea57600080fd5b612df5848285613e67565b509392505050565b600081359050612e0c816145ae565b92915050565b600082601f830112612e2357600080fd5b8135612e33848260208601612ca9565b91505092915050565b60008083601f840112612e4e57600080fd5b8235905067ffffffffffffffff811115612e6757600080fd5b602083019150836020820283011115612e7f57600080fd5b9250929050565b600082601f830112612e9757600080fd5b8135612ea7848260208601612d15565b91505092915050565b600081359050612ebf816145c5565b92915050565b600081359050612ed4816145dc565b92915050565b600081519050612ee9816145dc565b92915050565b600082601f830112612f0057600080fd5b8135612f10848260208601612d81565b91505092915050565b600082601f830112612f2a57600080fd5b8135612f3a848260208601612dbf565b91505092915050565b600081359050612f52816145f3565b92915050565b600060208284031215612f6a57600080fd5b6000612f7884828501612dfd565b91505092915050565b60008060408385031215612f9457600080fd5b6000612fa285828601612dfd565b9250506020612fb385828601612dfd565b9150509250929050565b600080600080600060a08688031215612fd557600080fd5b6000612fe388828901612dfd565b9550506020612ff488828901612dfd565b945050604086013567ffffffffffffffff81111561301157600080fd5b61301d88828901612e86565b935050606086013567ffffffffffffffff81111561303a57600080fd5b61304688828901612e86565b925050608086013567ffffffffffffffff81111561306357600080fd5b61306f88828901612eef565b9150509295509295909350565b600080600080600060a0868803121561309457600080fd5b60006130a288828901612dfd565b95505060206130b388828901612dfd565b94505060406130c488828901612f43565b93505060606130d588828901612f43565b925050608086013567ffffffffffffffff8111156130f257600080fd5b6130fe88828901612eef565b9150509295509295909350565b60008060006040848603121561312057600080fd5b600061312e86828701612dfd565b935050602084013567ffffffffffffffff81111561314b57600080fd5b61315786828701612e3c565b92509250509250925092565b60008060006060848603121561317857600080fd5b600061318686828701612dfd565b935050602084013567ffffffffffffffff8111156131a357600080fd5b6131af86828701612e86565b925050604084013567ffffffffffffffff8111156131cc57600080fd5b6131d886828701612e86565b9150509250925092565b600080604083850312156131f557600080fd5b600061320385828601612dfd565b925050602061321485828601612eb0565b9150509250929050565b6000806040838503121561323157600080fd5b600061323f85828601612dfd565b925050602061325085828601612f43565b9150509250929050565b60008060006060848603121561326f57600080fd5b600061327d86828701612dfd565b935050602061328e86828701612f43565b925050604061329f86828701612f43565b9150509250925092565b600080604083850312156132bc57600080fd5b600083013567ffffffffffffffff8111156132d657600080fd5b6132e285828601612e12565b925050602083013567ffffffffffffffff8111156132ff57600080fd5b61330b85828601612e86565b9150509250929050565b60008060006060848603121561332a57600080fd5b600084013567ffffffffffffffff81111561334457600080fd5b61335086828701612e86565b935050602084013567ffffffffffffffff81111561336d57600080fd5b61337986828701612e86565b925050604084013567ffffffffffffffff81111561339657600080fd5b6133a286828701612eef565b9150509250925092565b6000602082840312156133be57600080fd5b60006133cc84828501612ec5565b91505092915050565b6000602082840312156133e757600080fd5b60006133f584828501612eda565b91505092915050565b60006020828403121561341057600080fd5b600082013567ffffffffffffffff81111561342a57600080fd5b61343684828501612f19565b91505092915050565b60006020828403121561345157600080fd5b600061345f84828501612f43565b91505092915050565b6000806040838503121561347b57600080fd5b600061348985828601612f43565b925050602083013567ffffffffffffffff8111156134a657600080fd5b6134b285828601612eef565b9150509250929050565b60006134c88383613838565b60208301905092915050565b6134dd81613df3565b82525050565b60006134ee82613d3c565b6134f88185613d6a565b935061350383613d2c565b8060005b8381101561353457815161351b88826134bc565b975061352683613d5d565b925050600181019050613507565b5085935050505092915050565b61354a81613e05565b82525050565b600061355b82613d47565b6135658185613d7b565b9350613575818560208601613e76565b61357e81614004565b840191505092915050565b600061359482613d52565b61359e8185613d8c565b93506135ae818560208601613e76565b6135b781614004565b840191505092915050565b60006135cf603483613d8c565b91506135da82614022565b604082019050919050565b60006135f2602883613d8c565b91506135fd82614071565b604082019050919050565b6000613615601483613d8c565b9150613620826140c0565b602082019050919050565b6000613638602b83613d8c565b9150613643826140e9565b604082019050919050565b600061365b602683613d8c565b915061366682614138565b604082019050919050565b600061367e602483613d8c565b915061368982614187565b604082019050919050565b60006136a1602983613d8c565b91506136ac826141d6565b604082019050919050565b60006136c4601083613d8c565b91506136cf82614225565b602082019050919050565b60006136e7602583613d8c565b91506136f28261424e565b604082019050919050565b600061370a603283613d8c565b91506137158261429d565b604082019050919050565b600061372d602383613d8c565b9150613738826142ec565b604082019050919050565b6000613750602a83613d8c565b915061375b8261433b565b604082019050919050565b6000613773601983613d8c565b915061377e8261438a565b602082019050919050565b6000613796602083613d8c565b91506137a1826143b3565b602082019050919050565b60006137b9602983613d8c565b91506137c4826143dc565b604082019050919050565b60006137dc602983613d8c565b91506137e78261442b565b604082019050919050565b60006137ff602883613d8c565b915061380a8261447a565b604082019050919050565b6000613822602183613d8c565b915061382d826144c9565b604082019050919050565b61384181613e5d565b82525050565b61385081613e5d565b82525050565b600060208201905061386b60008301846134d4565b92915050565b600060a08201905061388660008301886134d4565b61389360208301876134d4565b81810360408301526138a581866134e3565b905081810360608301526138b981856134e3565b905081810360808301526138cd8184613550565b90509695505050505050565b600060a0820190506138ee60008301886134d4565b6138fb60208301876134d4565b6139086040830186613847565b6139156060830185613847565b81810360808301526139278184613550565b90509695505050505050565b6000602082019050818103600083015261394d81846134e3565b905092915050565b6000604082019050818103600083015261396f81856134e3565b9050818103602083015261398381846134e3565b90509392505050565b60006020820190506139a16000830184613541565b92915050565b600060208201905081810360008301526139c18184613589565b905092915050565b600060208201905081810360008301526139e2816135c2565b9050919050565b60006020820190508181036000830152613a02816135e5565b9050919050565b60006020820190508181036000830152613a2281613608565b9050919050565b60006020820190508181036000830152613a428161362b565b9050919050565b60006020820190508181036000830152613a628161364e565b9050919050565b60006020820190508181036000830152613a8281613671565b9050919050565b60006020820190508181036000830152613aa281613694565b9050919050565b60006020820190508181036000830152613ac2816136b7565b9050919050565b60006020820190508181036000830152613ae2816136da565b9050919050565b60006020820190508181036000830152613b02816136fd565b9050919050565b60006020820190508181036000830152613b2281613720565b9050919050565b60006020820190508181036000830152613b4281613743565b9050919050565b60006020820190508181036000830152613b6281613766565b9050919050565b60006020820190508181036000830152613b8281613789565b9050919050565b60006020820190508181036000830152613ba2816137ac565b9050919050565b60006020820190508181036000830152613bc2816137cf565b9050919050565b60006020820190508181036000830152613be2816137f2565b9050919050565b60006020820190508181036000830152613c0281613815565b9050919050565b6000602082019050613c1e6000830184613847565b92915050565b6000604082019050613c396000830185613847565b613c466020830184613847565b9392505050565b6000613c57613c68565b9050613c638282613edb565b919050565b6000604051905090565b600067ffffffffffffffff821115613c8d57613c8c613fb3565b5b602082029050602081019050919050565b600067ffffffffffffffff821115613cb957613cb8613fb3565b5b602082029050602081019050919050565b600067ffffffffffffffff821115613ce557613ce4613fb3565b5b613cee82614004565b9050602081019050919050565b600067ffffffffffffffff821115613d1657613d15613fb3565b5b613d1f82614004565b9050602081019050919050565b6000819050602082019050919050565b600081519050919050565b600081519050919050565b600081519050919050565b6000602082019050919050565b600082825260208201905092915050565b600082825260208201905092915050565b600082825260208201905092915050565b6000613da882613e5d565b9150613db383613e5d565b9250827fffffffffffffffffffffffffffffffffffffffffffffffffffffffffffffffff03821115613de857613de7613f55565b5b828201905092915050565b6000613dfe82613e3d565b9050919050565b60008115159050919050565b60007fffffffff0000000000000000000000000000000000000000000000000000000082169050919050565b600073ffffffffffffffffffffffffffffffffffffffff82169050919050565b6000819050919050565b82818337600083830152505050565b60005b83811015613e94578082015181840152602081019050613e79565b83811115613ea3576000848401525b50505050565b60006002820490506001821680613ec157607f821691505b60208210811415613ed557613ed4613f84565b5b50919050565b613ee482614004565b810181811067ffffffffffffffff82111715613f0357613f02613fb3565b5b80604052505050565b6000613f1782613e5d565b91507fffffffffffffffffffffffffffffffffffffffffffffffffffffffffffffffff821415613f4a57613f49613f55565b5b600182019050919050565b7f4e487b7100000000000000000000000000000000000000000000000000000000600052601160045260246000fd5b7f4e487b7100000000000000000000000000000000000000000000000000000000600052602260045260246000fd5b7f4e487b7100000000000000000000000000000000000000000000000000000000600052604160045260246000fd5b600060033d11156140015760046000803e613ffe600051614015565b90505b90565b6000601f19601f8301169050919050565b60008160e01c9050919050565b7f455243313135353a207472616e7366657220746f206e6f6e204552433131353560008201527f526563656976657220696d706c656d656e746572000000000000000000000000602082015250565b7f455243313135353a204552433131353552656365697665722072656a6563746560008201527f6420746f6b656e73000000000000000000000000000000000000000000000000602082015250565b7f5061757361626c653a206e6f7420706175736564000000000000000000000000600082015250565b7f455243313135353a2062616c616e636520717565727920666f7220746865207a60008201527f65726f2061646472657373000000000000000000000000000000000000000000602082015250565b7f4f776e61626c653a206e6577206f776e657220697320746865207a65726f206160008201527f6464726573730000000000000000000000000000000000000000000000000000602082015250565b7f455243313135353a206275726e20616d6f756e7420657863656564732062616c60008201527f616e636500000000000000000000000000000000000000000000000000000000602082015250565b7f455243313135353a2063616c6c6572206973206e6f74206f776e6572206e6f7260008201527f20617070726f7665640000000000000000000000000000000000000000000000602082015250565b7f5061757361626c653a2070617573656400000000000000000000000000000000600082015250565b7f455243313135353a207472616e7366657220746f20746865207a65726f20616460008201527f6472657373000000000000000000000000000000000000000000000000000000602082015250565b7f455243313135353a207472616e736665722063616c6c6572206973206e6f742060008201527f6f776e6572206e6f7220617070726f7665640000000000000000000000000000602082015250565b7f455243313135353a206275726e2066726f6d20746865207a65726f206164647260008201527f6573730000000000000000000000000000000000000000000000000000000000602082015250565b7f455243313135353a20696e73756666696369656e742062616c616e636520666f60008201527f72207472616e7366657200000000000000000000000000000000000000000000602082015250565b7f4163636573736f727920646f6573206e6f742065786973742e00000000000000600082015250565b7f4f776e61626c653a2063616c6c6572206973206e6f7420746865206f776e6572600082015250565b7f455243313135353a2073657474696e6720617070726f76616c2073746174757360008201527f20666f722073656c660000000000000000000000000000000000000000000000602082015250565b7f455243313135353a206163636f756e747320616e6420696473206c656e67746860008201527f206d69736d617463680000000000000000000000000000000000000000000000602082015250565b7f455243313135353a2069647320616e6420616d6f756e7473206c656e6774682060008201527f6d69736d61746368000000000000000000000000000000000000000000000000602082015250565b7f455243313135353a206d696e7420746f20746865207a65726f2061646472657360008201527f7300000000000000000000000000000000000000000000000000000000000000602082015250565b600060443d1015614528576145ab565b614530613c68565b60043d036004823e80513d602482011167ffffffffffffffff821117156145585750506145ab565b808201805167ffffffffffffffff81111561457657505050506145ab565b80602083010160043d0385018111156145935750505050506145ab565b6145a282602001850186613edb565b82955050505050505b90565b6145b781613df3565b81146145c257600080fd5b50565b6145ce81613e05565b81146145d957600080fd5b50565b6145e581613e11565b81146145f057600080fd5b50565b6145fc81613e5d565b811461460757600080fd5b5056fea2646970667358221220656f2a0cc742914652cf8469d37f3b478c3ba66ff05c88e8b6baf4884b77deb064736f6c63430008020033",
  "immutableReferences": {},
  "source": "// contracts/Accessory.sol\n// SPDX-License-Identifier: MIT\npragma solidity ^0.8.2;\n\nimport \"@openzeppelin/contracts/token/ERC1155/ERC1155.sol\";\nimport \"@openzeppelin/contracts/access/Ownable.sol\";\nimport \"@openzeppelin/contracts/security/Pausable.sol\";\nimport \"@openzeppelin/contracts/token/ERC1155/extensions/ERC1155Burnable.sol\";\n\ncontract Accessory is ERC1155, Ownable, Pausable, ERC1155Burnable {\n    uint256 public constant CLASS_BUZZSAW = 0;\n    uint256 public constant CLASS_SWORD = 1;\n    uint256 public constant CLASS_SHIELD = 2;\n    uint256 public constant CLASS_AI_CHIP = 3;\n    string public name = \"Robot Accessory\";\n\n\n    constructor(uint256[] memory _clazzes, uint256[] memory _amounts, string memory uri) ERC1155(\"\") {\n        _setURI(uri);\n        mintBatchAccessories(_clazzes, _amounts, \"0x000\");\n    }\n\n    function setURI(string memory newuri) public onlyOwner {\n        _setURI(newuri);\n    }\n\n    function pause() public onlyOwner {\n        _pause();\n    }\n\n    function unpause() public onlyOwner {\n        _unpause();\n    }\n\n    function mintAccessory(uint256 _clazz, bytes memory _data) public whenNotPaused onlyOwner {\n        require(_clazz < 4, \"Accessory does not exist.\");\n        _mint(msg.sender, _clazz, 1, _data);\n    }\n\n    function mintBatchAccessories(uint256[] memory _ids, uint256[] memory _amounts, bytes memory _data) public whenNotPaused onlyOwner {\n        uint256 _idsLength = _ids.length;\n        for (uint256 i=0; i<_idsLength; i++) {\n            require(_ids[i] > 0 && _ids[i] <= 4, \"Accessory does not exist.\");\n        }\n        _mintBatch(msg.sender, _ids, _amounts, _data);\n    }\n\n    function getWalletAccessories(address wallet, uint256[] calldata ids) public view whenNotPaused returns (uint256[] memory) {\n        address[] memory wal = new address[](1);\n        wal[0] = wallet;\n        return balanceOfBatch(wal, ids);\n    }\n\n    function _beforeTokenTransfer(address operator, address from, address to, uint256[] memory ids, uint256[] memory amounts, bytes memory data) internal whenNotPaused override {\n        super._beforeTokenTransfer(operator, from, to, ids, amounts, data);\n    }\n\n}\n\n",
  "sourcePath": "/home/seandevs/workspaces/celo-hackathon/nfts/robots/contracts/Accessory.sol",
  "compiler": {
    "name": "solc",
    "version": "0.8.2+commit.661d1103.Emscripten.clang"
  },
  "schemaVersion": "3.4.1",
  "updatedAt": "2021-11-27T00:20:08.453Z",
  "networkType": "ethereum",
  "devdoc": {
    "kind": "dev",
    "methods": {
      "balanceOf(address,uint256)": {
        "details": "See {IERC1155-balanceOf}. Requirements: - `account` cannot be the zero address."
      },
      "balanceOfBatch(address[],uint256[])": {
        "details": "See {IERC1155-balanceOfBatch}. Requirements: - `accounts` and `ids` must have the same length."
      },
      "isApprovedForAll(address,address)": {
        "details": "See {IERC1155-isApprovedForAll}."
      },
      "owner()": {
        "details": "Returns the address of the current owner."
      },
      "paused()": {
        "details": "Returns true if the contract is paused, and false otherwise."
      },
      "renounceOwnership()": {
        "details": "Leaves the contract without owner. It will not be possible to call `onlyOwner` functions anymore. Can only be called by the current owner. NOTE: Renouncing ownership will leave the contract without an owner, thereby removing any functionality that is only available to the owner."
      },
      "safeBatchTransferFrom(address,address,uint256[],uint256[],bytes)": {
        "details": "See {IERC1155-safeBatchTransferFrom}."
      },
      "safeTransferFrom(address,address,uint256,uint256,bytes)": {
        "details": "See {IERC1155-safeTransferFrom}."
      },
      "setApprovalForAll(address,bool)": {
        "details": "See {IERC1155-setApprovalForAll}."
      },
      "supportsInterface(bytes4)": {
        "details": "See {IERC165-supportsInterface}."
      },
      "transferOwnership(address)": {
        "details": "Transfers ownership of the contract to a new account (`newOwner`). Can only be called by the current owner."
      },
      "uri(uint256)": {
        "details": "See {IERC1155MetadataURI-uri}. This implementation returns the same URI for *all* token types. It relies on the token type ID substitution mechanism https://eips.ethereum.org/EIPS/eip-1155#metadata[defined in the EIP]. Clients calling this function must replace the `\\{id\\}` substring with the actual token type ID."
      }
    },
    "version": 1
  },
  "userdoc": {
    "kind": "user",
    "methods": {},
    "version": 1
  }
}