{
  "contractName": "Accessory",
  "abi": [
    {
      "inputs": [],
      "stateMutability": "nonpayable",
      "type": "constructor"
    },
    {
      "anonymous": false,
      "inputs": [
        {
          "indexed": true,
          "internalType": "address",
          "name": "account",
          "type": "address"
        },
        {
          "indexed": true,
          "internalType": "address",
          "name": "operator",
          "type": "address"
        },
        {
          "indexed": false,
          "internalType": "bool",
          "name": "approved",
          "type": "bool"
        }
      ],
      "name": "ApprovalForAll",
      "type": "event"
    },
    {
      "anonymous": false,
      "inputs": [
        {
          "indexed": true,
          "internalType": "address",
          "name": "previousOwner",
          "type": "address"
        },
        {
          "indexed": true,
          "internalType": "address",
          "name": "newOwner",
          "type": "address"
        }
      ],
      "name": "OwnershipTransferred",
      "type": "event"
    },
    {
      "anonymous": false,
      "inputs": [
        {
          "indexed": false,
          "internalType": "address",
          "name": "account",
          "type": "address"
        }
      ],
      "name": "Paused",
      "type": "event"
    },
    {
      "anonymous": false,
      "inputs": [
        {
          "indexed": true,
          "internalType": "address",
          "name": "operator",
          "type": "address"
        },
        {
          "indexed": true,
          "internalType": "address",
          "name": "from",
          "type": "address"
        },
        {
          "indexed": true,
          "internalType": "address",
          "name": "to",
          "type": "address"
        },
        {
          "indexed": false,
          "internalType": "uint256[]",
          "name": "ids",
          "type": "uint256[]"
        },
        {
          "indexed": false,
          "internalType": "uint256[]",
          "name": "values",
          "type": "uint256[]"
        }
      ],
      "name": "TransferBatch",
      "type": "event"
    },
    {
      "anonymous": false,
      "inputs": [
        {
          "indexed": true,
          "internalType": "address",
          "name": "operator",
          "type": "address"
        },
        {
          "indexed": true,
          "internalType": "address",
          "name": "from",
          "type": "address"
        },
        {
          "indexed": true,
          "internalType": "address",
          "name": "to",
          "type": "address"
        },
        {
          "indexed": false,
          "internalType": "uint256",
          "name": "id",
          "type": "uint256"
        },
        {
          "indexed": false,
          "internalType": "uint256",
          "name": "value",
          "type": "uint256"
        }
      ],
      "name": "TransferSingle",
      "type": "event"
    },
    {
      "anonymous": false,
      "inputs": [
        {
          "indexed": false,
          "internalType": "string",
          "name": "value",
          "type": "string"
        },
        {
          "indexed": true,
          "internalType": "uint256",
          "name": "id",
          "type": "uint256"
        }
      ],
      "name": "URI",
      "type": "event"
    },
    {
      "anonymous": false,
      "inputs": [
        {
          "indexed": false,
          "internalType": "address",
          "name": "account",
          "type": "address"
        }
      ],
      "name": "Unpaused",
      "type": "event"
    },
    {
      "inputs": [],
      "name": "CLASS_LAZER",
      "outputs": [
        {
          "internalType": "uint256",
          "name": "",
          "type": "uint256"
        }
      ],
      "stateMutability": "view",
      "type": "function",
      "constant": true
    },
    {
      "inputs": [],
      "name": "CLASS_SAW",
      "outputs": [
        {
          "internalType": "uint256",
          "name": "",
          "type": "uint256"
        }
      ],
      "stateMutability": "view",
      "type": "function",
      "constant": true
    },
    {
      "inputs": [],
      "name": "CLASS_SWORD",
      "outputs": [
        {
          "internalType": "uint256",
          "name": "",
          "type": "uint256"
        }
      ],
      "stateMutability": "view",
      "type": "function",
      "constant": true
    },
    {
      "inputs": [],
      "name": "CLASS_WRENCH",
      "outputs": [
        {
          "internalType": "uint256",
          "name": "",
          "type": "uint256"
        }
      ],
      "stateMutability": "view",
      "type": "function",
      "constant": true
    },
    {
      "inputs": [
        {
          "internalType": "address",
          "name": "account",
          "type": "address"
        },
        {
          "internalType": "uint256",
          "name": "id",
          "type": "uint256"
        }
      ],
      "name": "balanceOf",
      "outputs": [
        {
          "internalType": "uint256",
          "name": "",
          "type": "uint256"
        }
      ],
      "stateMutability": "view",
      "type": "function",
      "constant": true
    },
    {
      "inputs": [
        {
          "internalType": "address[]",
          "name": "accounts",
          "type": "address[]"
        },
        {
          "internalType": "uint256[]",
          "name": "ids",
          "type": "uint256[]"
        }
      ],
      "name": "balanceOfBatch",
      "outputs": [
        {
          "internalType": "uint256[]",
          "name": "",
          "type": "uint256[]"
        }
      ],
      "stateMutability": "view",
      "type": "function",
      "constant": true
    },
    {
      "inputs": [
        {
          "internalType": "address",
          "name": "account",
          "type": "address"
        },
        {
          "internalType": "uint256",
          "name": "id",
          "type": "uint256"
        },
        {
          "internalType": "uint256",
          "name": "value",
          "type": "uint256"
        }
      ],
      "name": "burn",
      "outputs": [],
      "stateMutability": "nonpayable",
      "type": "function"
    },
    {
      "inputs": [
        {
          "internalType": "address",
          "name": "account",
          "type": "address"
        },
        {
          "internalType": "uint256[]",
          "name": "ids",
          "type": "uint256[]"
        },
        {
          "internalType": "uint256[]",
          "name": "values",
          "type": "uint256[]"
        }
      ],
      "name": "burnBatch",
      "outputs": [],
      "stateMutability": "nonpayable",
      "type": "function"
    },
    {
      "inputs": [
        {
          "internalType": "address",
          "name": "account",
          "type": "address"
        },
        {
          "internalType": "address",
          "name": "operator",
          "type": "address"
        }
      ],
      "name": "isApprovedForAll",
      "outputs": [
        {
          "internalType": "bool",
          "name": "",
          "type": "bool"
        }
      ],
      "stateMutability": "view",
      "type": "function",
      "constant": true
    },
    {
      "inputs": [],
      "name": "owner",
      "outputs": [
        {
          "internalType": "address",
          "name": "",
          "type": "address"
        }
      ],
      "stateMutability": "view",
      "type": "function",
      "constant": true
    },
    {
      "inputs": [],
      "name": "paused",
      "outputs": [
        {
          "internalType": "bool",
          "name": "",
          "type": "bool"
        }
      ],
      "stateMutability": "view",
      "type": "function",
      "constant": true
    },
    {
      "inputs": [],
      "name": "renounceOwnership",
      "outputs": [],
      "stateMutability": "nonpayable",
      "type": "function"
    },
    {
      "inputs": [
        {
          "internalType": "address",
          "name": "from",
          "type": "address"
        },
        {
          "internalType": "address",
          "name": "to",
          "type": "address"
        },
        {
          "internalType": "uint256[]",
          "name": "ids",
          "type": "uint256[]"
        },
        {
          "internalType": "uint256[]",
          "name": "amounts",
          "type": "uint256[]"
        },
        {
          "internalType": "bytes",
          "name": "data",
          "type": "bytes"
        }
      ],
      "name": "safeBatchTransferFrom",
      "outputs": [],
      "stateMutability": "nonpayable",
      "type": "function"
    },
    {
      "inputs": [
        {
          "internalType": "address",
          "name": "from",
          "type": "address"
        },
        {
          "internalType": "address",
          "name": "to",
          "type": "address"
        },
        {
          "internalType": "uint256",
          "name": "id",
          "type": "uint256"
        },
        {
          "internalType": "uint256",
          "name": "amount",
          "type": "uint256"
        },
        {
          "internalType": "bytes",
          "name": "data",
          "type": "bytes"
        }
      ],
      "name": "safeTransferFrom",
      "outputs": [],
      "stateMutability": "nonpayable",
      "type": "function"
    },
    {
      "inputs": [
        {
          "internalType": "address",
          "name": "operator",
          "type": "address"
        },
        {
          "internalType": "bool",
          "name": "approved",
          "type": "bool"
        }
      ],
      "name": "setApprovalForAll",
      "outputs": [],
      "stateMutability": "nonpayable",
      "type": "function"
    },
    {
      "inputs": [
        {
          "internalType": "bytes4",
          "name": "interfaceId",
          "type": "bytes4"
        }
      ],
      "name": "supportsInterface",
      "outputs": [
        {
          "internalType": "bool",
          "name": "",
          "type": "bool"
        }
      ],
      "stateMutability": "view",
      "type": "function",
      "constant": true
    },
    {
      "inputs": [
        {
          "internalType": "address",
          "name": "newOwner",
          "type": "address"
        }
      ],
      "name": "transferOwnership",
      "outputs": [],
      "stateMutability": "nonpayable",
      "type": "function"
    },
    {
      "inputs": [
        {
          "internalType": "uint256",
          "name": "",
          "type": "uint256"
        }
      ],
      "name": "uri",
      "outputs": [
        {
          "internalType": "string",
          "name": "",
          "type": "string"
        }
      ],
      "stateMutability": "view",
      "type": "function",
      "constant": true
    },
    {
      "inputs": [
        {
          "internalType": "string",
          "name": "newuri",
          "type": "string"
        }
      ],
      "name": "setURI",
      "outputs": [],
      "stateMutability": "nonpayable",
      "type": "function"
    },
    {
      "inputs": [],
      "name": "pause",
      "outputs": [],
      "stateMutability": "nonpayable",
      "type": "function"
    },
    {
      "inputs": [],
      "name": "unpause",
      "outputs": [],
      "stateMutability": "nonpayable",
      "type": "function"
    },
    {
      "inputs": [
        {
          "internalType": "address",
          "name": "_to",
          "type": "address"
        },
        {
          "internalType": "uint256",
          "name": "_clazz",
          "type": "uint256"
        },
        {
          "internalType": "bytes",
          "name": "_data",
          "type": "bytes"
        }
      ],
      "name": "mintAccessory",
      "outputs": [],
      "stateMutability": "nonpayable",
      "type": "function"
    },
    {
      "inputs": [
        {
          "internalType": "address",
          "name": "_to",
          "type": "address"
        },
        {
          "internalType": "uint256[]",
          "name": "_ids",
          "type": "uint256[]"
        },
        {
          "internalType": "uint256[]",
          "name": "_amounts",
          "type": "uint256[]"
        },
        {
          "internalType": "bytes",
          "name": "_data",
          "type": "bytes"
        }
      ],
      "name": "mintBatchAccessories",
      "outputs": [],
      "stateMutability": "nonpayable",
      "type": "function"
    }
  ],
  "bytecode": "0x608060405263616bc0a560045567011c37937e0800006005553480156200002557600080fd5b506040518060a00160405280606c8152602001620045ec606c913962000051816200009360201b60201c565b506200007262000066620000af60201b60201c565b620000b760201b60201c565b6000600360146101000a81548160ff02191690831515021790555062000292565b8060029080519060200190620000ab9291906200017d565b5050565b600033905090565b6000600360009054906101000a900473ffffffffffffffffffffffffffffffffffffffff16905081600360006101000a81548173ffffffffffffffffffffffffffffffffffffffff021916908373ffffffffffffffffffffffffffffffffffffffff1602179055508173ffffffffffffffffffffffffffffffffffffffff168173ffffffffffffffffffffffffffffffffffffffff167f8be0079c531659141344cd1fd0a4f28419497f9722a3daafe3b4186f6b6457e060405160405180910390a35050565b8280546200018b906200022d565b90600052602060002090601f016020900481019282620001af5760008555620001fb565b82601f10620001ca57805160ff1916838001178555620001fb565b82800160010185558215620001fb579182015b82811115620001fa578251825591602001919060010190620001dd565b5b5090506200020a91906200020e565b5090565b5b80821115620002295760008160009055506001016200020f565b5090565b600060028204905060018216806200024657607f821691505b602082108114156200025d576200025c62000263565b5b50919050565b7f4e487b7100000000000000000000000000000000000000000000000000000000600052602260045260246000fd5b61434a80620002a26000396000f3fe608060405234801561001057600080fd5b506004361061014c5760003560e01c80635c975abb116100c3578063a22cb4651161007c578063a22cb46514610351578063cb0de8641461036d578063e985e9c51461038b578063f242432a146103bb578063f2fde38b146103d7578063f5298aca146103f35761014c565b80635c975abb146102c75780636b20c454146102e5578063715018a6146103015780638456cb591461030b5780638da5cb5b146103155780639c6c8ae0146103335761014c565b806314fe204e1161011557806314fe204e1461021b5780632eb2c2d61461023757806335d095b014610253578063398f6d801461026f5780633f4ba83a1461028d5780634e1273f4146102975761014c565b8062fdd58e1461015157806301ffc9a71461018157806302fe5305146101b15780630cd74b63146101cd5780630e89341c146101eb575b600080fd5b61016b60048036038101906101669190612fac565b61040f565b6040516101789190613913565b60405180910390f35b61019b6004803603810190610196919061310a565b6104d8565b6040516101a89190613696565b60405180910390f35b6101cb60048036038101906101c6919061315c565b6105ba565b005b6101d5610642565b6040516101e29190613913565b60405180910390f35b6102056004803603810190610200919061319d565b610647565b60405161021291906136b1565b60405180910390f35b61023560048036038101906102309190612fe8565b6106db565b005b610251600480360381019061024c9190612cf8565b610801565b005b61026d60048036038101906102689190612ec5565b6108a2565b005b610277610a6e565b6040516102849190613913565b60405180910390f35b610295610a73565b005b6102b160048036038101906102ac919061309e565b610af9565b6040516102be919061363d565b60405180910390f35b6102cf610caa565b6040516102dc9190613696565b60405180910390f35b6102ff60048036038101906102fa9190612e46565b610cc1565b005b610309610d5e565b005b610313610de6565b005b61031d610e6c565b60405161032a9190613560565b60405180910390f35b61033b610e96565b6040516103489190613913565b60405180910390f35b61036b60048036038101906103669190612f70565b610e9b565b005b61037561101c565b6040516103829190613913565b60405180910390f35b6103a560048036038101906103a09190612cbc565b611021565b6040516103b29190613696565b60405180910390f35b6103d560048036038101906103d09190612db7565b6110b5565b005b6103f160048036038101906103ec9190612c93565b611156565b005b61040d6004803603810190610408919061304f565b61124e565b005b60008073ffffffffffffffffffffffffffffffffffffffff168373ffffffffffffffffffffffffffffffffffffffff161415610480576040517f08c379a000000000000000000000000000000000000000000000000000000000815260040161047790613733565b60405180910390fd5b60008083815260200190815260200160002060008473ffffffffffffffffffffffffffffffffffffffff1673ffffffffffffffffffffffffffffffffffffffff16815260200190815260200160002054905092915050565b60007fd9b67a26000000000000000000000000000000000000000000000000000000007bffffffffffffffffffffffffffffffffffffffffffffffffffffffff1916827bffffffffffffffffffffffffffffffffffffffffffffffffffffffff191614806105a357507f0e89341c000000000000000000000000000000000000000000000000000000007bffffffffffffffffffffffffffffffffffffffffffffffffffffffff1916827bffffffffffffffffffffffffffffffffffffffffffffffffffffffff1916145b806105b357506105b2826112eb565b5b9050919050565b6105c2611355565b73ffffffffffffffffffffffffffffffffffffffff166105e0610e6c565b73ffffffffffffffffffffffffffffffffffffffff1614610636576040517f08c379a000000000000000000000000000000000000000000000000000000000815260040161062d90613873565b60405180910390fd5b61063f8161135d565b50565b600481565b60606002805461065690613bb3565b80601f016020809104026020016040519081016040528092919081815260200182805461068290613bb3565b80156106cf5780601f106106a4576101008083540402835291602001916106cf565b820191906000526020600020905b8154815290600101906020018083116106b257829003601f168201915b50505050509050919050565b6106e3610caa565b15610723576040517f08c379a000000000000000000000000000000000000000000000000000000000815260040161071a906137b3565b60405180910390fd5b61072b611355565b73ffffffffffffffffffffffffffffffffffffffff16610749610e6c565b73ffffffffffffffffffffffffffffffffffffffff161461079f576040517f08c379a000000000000000000000000000000000000000000000000000000000815260040161079690613873565b60405180910390fd5b6000821180156107b0575060048211155b6107ef576040517f08c379a00000000000000000000000000000000000000000000000000000000081526004016107e690613853565b60405180910390fd5b6107fc8383600184611377565b505050565b610809611355565b73ffffffffffffffffffffffffffffffffffffffff168573ffffffffffffffffffffffffffffffffffffffff16148061084f575061084e85610849611355565b611021565b5b61088e576040517f08c379a0000000000000000000000000000000000000000000000000000000008152600401610885906137f3565b60405180910390fd5b61089b858585858561150d565b5050505050565b6108aa610caa565b156108ea576040517f08c379a00000000000000000000000000000000000000000000000000000000081526004016108e1906137b3565b60405180910390fd5b6108f2611355565b73ffffffffffffffffffffffffffffffffffffffff16610910610e6c565b73ffffffffffffffffffffffffffffffffffffffff1614610966576040517f08c379a000000000000000000000000000000000000000000000000000000000815260040161095d90613873565b60405180910390fd5b60008351905060005b81811015610a5a5760008582815181106109b2577f4e487b7100000000000000000000000000000000000000000000000000000000600052603260045260246000fd5b6020026020010151118015610a08575060048582815181106109fd577f4e487b7100000000000000000000000000000000000000000000000000000000600052603260045260246000fd5b602002602001015111155b610a47576040517f08c379a0000000000000000000000000000000000000000000000000000000008152600401610a3e90613853565b60405180910390fd5b8080610a5290613c16565b91505061096f565b50610a678585858561186d565b5050505050565b600281565b610a7b611355565b73ffffffffffffffffffffffffffffffffffffffff16610a99610e6c565b73ffffffffffffffffffffffffffffffffffffffff1614610aef576040517f08c379a0000000000000000000000000000000000000000000000000000000008152600401610ae690613873565b60405180910390fd5b610af7611ad7565b565b60608151835114610b3f576040517f08c379a0000000000000000000000000000000000000000000000000000000008152600401610b36906138b3565b60405180910390fd5b6000835167ffffffffffffffff811115610b82577f4e487b7100000000000000000000000000000000000000000000000000000000600052604160045260246000fd5b604051908082528060200260200182016040528015610bb05781602001602082028036833780820191505090505b50905060005b8451811015610c9f57610c49858281518110610bfb577f4e487b7100000000000000000000000000000000000000000000000000000000600052603260045260246000fd5b6020026020010151858381518110610c3c577f4e487b7100000000000000000000000000000000000000000000000000000000600052603260045260246000fd5b602002602001015161040f565b828281518110610c82577f4e487b7100000000000000000000000000000000000000000000000000000000600052603260045260246000fd5b60200260200101818152505080610c9890613c16565b9050610bb6565b508091505092915050565b6000600360149054906101000a900460ff16905090565b610cc9611355565b73ffffffffffffffffffffffffffffffffffffffff168373ffffffffffffffffffffffffffffffffffffffff161480610d0f5750610d0e83610d09611355565b611021565b5b610d4e576040517f08c379a0000000000000000000000000000000000000000000000000000000008152600401610d4590613793565b60405180910390fd5b610d59838383611b79565b505050565b610d66611355565b73ffffffffffffffffffffffffffffffffffffffff16610d84610e6c565b73ffffffffffffffffffffffffffffffffffffffff1614610dda576040517f08c379a0000000000000000000000000000000000000000000000000000000008152600401610dd190613873565b60405180910390fd5b610de46000611e76565b565b610dee611355565b73ffffffffffffffffffffffffffffffffffffffff16610e0c610e6c565b73ffffffffffffffffffffffffffffffffffffffff1614610e62576040517f08c379a0000000000000000000000000000000000000000000000000000000008152600401610e5990613873565b60405180910390fd5b610e6a611f3c565b565b6000600360009054906101000a900473ffffffffffffffffffffffffffffffffffffffff16905090565b600381565b8173ffffffffffffffffffffffffffffffffffffffff16610eba611355565b73ffffffffffffffffffffffffffffffffffffffff161415610f11576040517f08c379a0000000000000000000000000000000000000000000000000000000008152600401610f0890613893565b60405180910390fd5b8060016000610f1e611355565b73ffffffffffffffffffffffffffffffffffffffff1673ffffffffffffffffffffffffffffffffffffffff16815260200190815260200160002060008473ffffffffffffffffffffffffffffffffffffffff1673ffffffffffffffffffffffffffffffffffffffff16815260200190815260200160002060006101000a81548160ff0219169083151502179055508173ffffffffffffffffffffffffffffffffffffffff16610fcb611355565b73ffffffffffffffffffffffffffffffffffffffff167f17307eab39ab6107e8899845ad3d59bd9653f200f220920489ca2b5937696c31836040516110109190613696565b60405180910390a35050565b600181565b6000600160008473ffffffffffffffffffffffffffffffffffffffff1673ffffffffffffffffffffffffffffffffffffffff16815260200190815260200160002060008373ffffffffffffffffffffffffffffffffffffffff1673ffffffffffffffffffffffffffffffffffffffff16815260200190815260200160002060009054906101000a900460ff16905092915050565b6110bd611355565b73ffffffffffffffffffffffffffffffffffffffff168573ffffffffffffffffffffffffffffffffffffffff1614806111035750611102856110fd611355565b611021565b5b611142576040517f08c379a000000000000000000000000000000000000000000000000000000000815260040161113990613793565b60405180910390fd5b61114f8585858585611fdf565b5050505050565b61115e611355565b73ffffffffffffffffffffffffffffffffffffffff1661117c610e6c565b73ffffffffffffffffffffffffffffffffffffffff16146111d2576040517f08c379a00000000000000000000000000000000000000000000000000000000081526004016111c990613873565b60405180910390fd5b600073ffffffffffffffffffffffffffffffffffffffff168173ffffffffffffffffffffffffffffffffffffffff161415611242576040517f08c379a000000000000000000000000000000000000000000000000000000000815260040161123990613753565b60405180910390fd5b61124b81611e76565b50565b611256611355565b73ffffffffffffffffffffffffffffffffffffffff168373ffffffffffffffffffffffffffffffffffffffff16148061129c575061129b83611296611355565b611021565b5b6112db576040517f08c379a00000000000000000000000000000000000000000000000000000000081526004016112d290613793565b60405180910390fd5b6112e6838383612261565b505050565b60007f01ffc9a7000000000000000000000000000000000000000000000000000000007bffffffffffffffffffffffffffffffffffffffffffffffffffffffff1916827bffffffffffffffffffffffffffffffffffffffffffffffffffffffff1916149050919050565b600033905090565b806002908051906020019061137392919061298b565b5050565b600073ffffffffffffffffffffffffffffffffffffffff168473ffffffffffffffffffffffffffffffffffffffff1614156113e7576040517f08c379a00000000000000000000000000000000000000000000000000000000081526004016113de906138f3565b60405180910390fd5b60006113f1611355565b9050611412816000876114038861247e565b61140c8861247e565b87612544565b8260008086815260200190815260200160002060008773ffffffffffffffffffffffffffffffffffffffff1673ffffffffffffffffffffffffffffffffffffffff16815260200190815260200160002060008282546114719190613aa7565b925050819055508473ffffffffffffffffffffffffffffffffffffffff16600073ffffffffffffffffffffffffffffffffffffffff168273ffffffffffffffffffffffffffffffffffffffff167fc3d58168c5ae7397731d063d5bbf3d657854427343f4c083240f7aacaa2d0f6287876040516114ef92919061392e565b60405180910390a4611506816000878787876125a2565b5050505050565b8151835114611551576040517f08c379a0000000000000000000000000000000000000000000000000000000008152600401611548906138d3565b60405180910390fd5b600073ffffffffffffffffffffffffffffffffffffffff168473ffffffffffffffffffffffffffffffffffffffff1614156115c1576040517f08c379a00000000000000000000000000000000000000000000000000000000081526004016115b8906137d3565b60405180910390fd5b60006115cb611355565b90506115db818787878787612544565b60005b84518110156117d8576000858281518110611622577f4e487b7100000000000000000000000000000000000000000000000000000000600052603260045260246000fd5b602002602001015190506000858381518110611667577f4e487b7100000000000000000000000000000000000000000000000000000000600052603260045260246000fd5b60200260200101519050600080600084815260200190815260200160002060008b73ffffffffffffffffffffffffffffffffffffffff1673ffffffffffffffffffffffffffffffffffffffff16815260200190815260200160002054905081811015611708576040517f08c379a00000000000000000000000000000000000000000000000000000000081526004016116ff90613833565b60405180910390fd5b81810360008085815260200190815260200160002060008c73ffffffffffffffffffffffffffffffffffffffff1673ffffffffffffffffffffffffffffffffffffffff168152602001908152602001600020819055508160008085815260200190815260200160002060008b73ffffffffffffffffffffffffffffffffffffffff1673ffffffffffffffffffffffffffffffffffffffff16815260200190815260200160002060008282546117bd9190613aa7565b92505081905550505050806117d190613c16565b90506115de565b508473ffffffffffffffffffffffffffffffffffffffff168673ffffffffffffffffffffffffffffffffffffffff168273ffffffffffffffffffffffffffffffffffffffff167f4a39dc06d4c0dbc64b70af90fd698a233a518aa5d07e595d983b8c0526c8f7fb878760405161184f92919061365f565b60405180910390a4611865818787878787612789565b505050505050565b600073ffffffffffffffffffffffffffffffffffffffff168473ffffffffffffffffffffffffffffffffffffffff1614156118dd576040517f08c379a00000000000000000000000000000000000000000000000000000000081526004016118d4906138f3565b60405180910390fd5b8151835114611921576040517f08c379a0000000000000000000000000000000000000000000000000000000008152600401611918906138d3565b60405180910390fd5b600061192b611355565b905061193c81600087878787612544565b60005b8451811015611a4157838181518110611981577f4e487b7100000000000000000000000000000000000000000000000000000000600052603260045260246000fd5b60200260200101516000808784815181106119c5577f4e487b7100000000000000000000000000000000000000000000000000000000600052603260045260246000fd5b6020026020010151815260200190815260200160002060008873ffffffffffffffffffffffffffffffffffffffff1673ffffffffffffffffffffffffffffffffffffffff1681526020019081526020016000206000828254611a279190613aa7565b925050819055508080611a3990613c16565b91505061193f565b508473ffffffffffffffffffffffffffffffffffffffff16600073ffffffffffffffffffffffffffffffffffffffff168273ffffffffffffffffffffffffffffffffffffffff167f4a39dc06d4c0dbc64b70af90fd698a233a518aa5d07e595d983b8c0526c8f7fb8787604051611ab992919061365f565b60405180910390a4611ad081600087878787612789565b5050505050565b611adf610caa565b611b1e576040517f08c379a0000000000000000000000000000000000000000000000000000000008152600401611b1590613713565b60405180910390fd5b6000600360146101000a81548160ff0219169083151502179055507f5db9ee0a495bf2e6ff9c91a7834c1ba4fdd244a5e8aa4e537bd38aeae4b073aa611b62611355565b604051611b6f9190613560565b60405180910390a1565b600073ffffffffffffffffffffffffffffffffffffffff168373ffffffffffffffffffffffffffffffffffffffff161415611be9576040517f08c379a0000000000000000000000000000000000000000000000000000000008152600401611be090613813565b60405180910390fd5b8051825114611c2d576040517f08c379a0000000000000000000000000000000000000000000000000000000008152600401611c24906138d3565b60405180910390fd5b6000611c37611355565b9050611c5781856000868660405180602001604052806000815250612544565b60005b8351811015611df0576000848281518110611c9e577f4e487b7100000000000000000000000000000000000000000000000000000000600052603260045260246000fd5b602002602001015190506000848381518110611ce3577f4e487b7100000000000000000000000000000000000000000000000000000000600052603260045260246000fd5b60200260200101519050600080600084815260200190815260200160002060008973ffffffffffffffffffffffffffffffffffffffff1673ffffffffffffffffffffffffffffffffffffffff16815260200190815260200160002054905081811015611d84576040517f08c379a0000000000000000000000000000000000000000000000000000000008152600401611d7b90613773565b60405180910390fd5b81810360008085815260200190815260200160002060008a73ffffffffffffffffffffffffffffffffffffffff1673ffffffffffffffffffffffffffffffffffffffff168152602001908152602001600020819055505050508080611de890613c16565b915050611c5a565b50600073ffffffffffffffffffffffffffffffffffffffff168473ffffffffffffffffffffffffffffffffffffffff168273ffffffffffffffffffffffffffffffffffffffff167f4a39dc06d4c0dbc64b70af90fd698a233a518aa5d07e595d983b8c0526c8f7fb8686604051611e6892919061365f565b60405180910390a450505050565b6000600360009054906101000a900473ffffffffffffffffffffffffffffffffffffffff16905081600360006101000a81548173ffffffffffffffffffffffffffffffffffffffff021916908373ffffffffffffffffffffffffffffffffffffffff1602179055508173ffffffffffffffffffffffffffffffffffffffff168173ffffffffffffffffffffffffffffffffffffffff167f8be0079c531659141344cd1fd0a4f28419497f9722a3daafe3b4186f6b6457e060405160405180910390a35050565b611f44610caa565b15611f84576040517f08c379a0000000000000000000000000000000000000000000000000000000008152600401611f7b906137b3565b60405180910390fd5b6001600360146101000a81548160ff0219169083151502179055507f62e78cea01bee320cd4e420270b5ea74000d11b0c9f74754ebdbfc544b05a258611fc8611355565b604051611fd59190613560565b60405180910390a1565b600073ffffffffffffffffffffffffffffffffffffffff168473ffffffffffffffffffffffffffffffffffffffff16141561204f576040517f08c379a0000000000000000000000000000000000000000000000000000000008152600401612046906137d3565b60405180910390fd5b6000612059611355565b905061207981878761206a8861247e565b6120738861247e565b87612544565b600080600086815260200190815260200160002060008873ffffffffffffffffffffffffffffffffffffffff1673ffffffffffffffffffffffffffffffffffffffff16815260200190815260200160002054905083811015612110576040517f08c379a000000000000000000000000000000000000000000000000000000000815260040161210790613833565b60405180910390fd5b83810360008087815260200190815260200160002060008973ffffffffffffffffffffffffffffffffffffffff1673ffffffffffffffffffffffffffffffffffffffff168152602001908152602001600020819055508360008087815260200190815260200160002060008873ffffffffffffffffffffffffffffffffffffffff1673ffffffffffffffffffffffffffffffffffffffff16815260200190815260200160002060008282546121c59190613aa7565b925050819055508573ffffffffffffffffffffffffffffffffffffffff168773ffffffffffffffffffffffffffffffffffffffff168373ffffffffffffffffffffffffffffffffffffffff167fc3d58168c5ae7397731d063d5bbf3d657854427343f4c083240f7aacaa2d0f62888860405161224292919061392e565b60405180910390a46122588288888888886125a2565b50505050505050565b600073ffffffffffffffffffffffffffffffffffffffff168373ffffffffffffffffffffffffffffffffffffffff1614156122d1576040517f08c379a00000000000000000000000000000000000000000000000000000000081526004016122c890613813565b60405180910390fd5b60006122db611355565b905061230b818560006122ed8761247e565b6122f68761247e565b60405180602001604052806000815250612544565b600080600085815260200190815260200160002060008673ffffffffffffffffffffffffffffffffffffffff1673ffffffffffffffffffffffffffffffffffffffff168152602001908152602001600020549050828110156123a2576040517f08c379a000000000000000000000000000000000000000000000000000000000815260040161239990613773565b60405180910390fd5b82810360008086815260200190815260200160002060008773ffffffffffffffffffffffffffffffffffffffff1673ffffffffffffffffffffffffffffffffffffffff16815260200190815260200160002081905550600073ffffffffffffffffffffffffffffffffffffffff168573ffffffffffffffffffffffffffffffffffffffff168373ffffffffffffffffffffffffffffffffffffffff167fc3d58168c5ae7397731d063d5bbf3d657854427343f4c083240f7aacaa2d0f62878760405161246f92919061392e565b60405180910390a45050505050565b60606000600167ffffffffffffffff8111156124c3577f4e487b7100000000000000000000000000000000000000000000000000000000600052604160045260246000fd5b6040519080825280602002602001820160405280156124f15781602001602082028036833780820191505090505b509050828160008151811061252f577f4e487b7100000000000000000000000000000000000000000000000000000000600052603260045260246000fd5b60200260200101818152505080915050919050565b61254c610caa565b1561258c576040517f08c379a0000000000000000000000000000000000000000000000000000000008152600401612583906137b3565b60405180910390fd5b61259a868686868686612970565b505050505050565b6125c18473ffffffffffffffffffffffffffffffffffffffff16612978565b15612781578373ffffffffffffffffffffffffffffffffffffffff1663f23a6e6187878686866040518663ffffffff1660e01b81526004016126079594939291906135e3565b602060405180830381600087803b15801561262157600080fd5b505af192505050801561265257506040513d601f19601f8201168201806040525081019061264f9190613133565b60015b6126f85761265e613cec565b806308c379a014156126bb5750612673614222565b8061267e57506126bd565b806040517f08c379a00000000000000000000000000000000000000000000000000000000081526004016126b291906136b1565b60405180910390fd5b505b6040517f08c379a00000000000000000000000000000000000000000000000000000000081526004016126ef906136d3565b60405180910390fd5b63f23a6e6160e01b7bffffffffffffffffffffffffffffffffffffffffffffffffffffffff1916817bffffffffffffffffffffffffffffffffffffffffffffffffffffffff19161461277f576040517f08c379a0000000000000000000000000000000000000000000000000000000008152600401612776906136f3565b60405180910390fd5b505b505050505050565b6127a88473ffffffffffffffffffffffffffffffffffffffff16612978565b15612968578373ffffffffffffffffffffffffffffffffffffffff1663bc197c8187878686866040518663ffffffff1660e01b81526004016127ee95949392919061357b565b602060405180830381600087803b15801561280857600080fd5b505af192505050801561283957506040513d601f19601f820116820180604052508101906128369190613133565b60015b6128df57612845613cec565b806308c379a014156128a2575061285a614222565b8061286557506128a4565b806040517f08c379a000000000000000000000000000000000000000000000000000000000815260040161289991906136b1565b60405180910390fd5b505b6040517f08c379a00000000000000000000000000000000000000000000000000000000081526004016128d6906136d3565b60405180910390fd5b63bc197c8160e01b7bffffffffffffffffffffffffffffffffffffffffffffffffffffffff1916817bffffffffffffffffffffffffffffffffffffffffffffffffffffffff191614612966576040517f08c379a000000000000000000000000000000000000000000000000000000000815260040161295d906136f3565b60405180910390fd5b505b505050505050565b505050505050565b600080823b905060008111915050919050565b82805461299790613bb3565b90600052602060002090601f0160209004810192826129b95760008555612a00565b82601f106129d257805160ff1916838001178555612a00565b82800160010185558215612a00579182015b828111156129ff5782518255916020019190600101906129e4565b5b509050612a0d9190612a11565b5090565b5b80821115612a2a576000816000905550600101612a12565b5090565b6000612a41612a3c8461397c565b613957565b90508083825260208201905082856020860282011115612a6057600080fd5b60005b85811015612a905781612a768882612b82565b845260208401935060208301925050600181019050612a63565b5050509392505050565b6000612aad612aa8846139a8565b613957565b90508083825260208201905082856020860282011115612acc57600080fd5b60005b85811015612afc5781612ae28882612c7e565b845260208401935060208301925050600181019050612acf565b5050509392505050565b6000612b19612b14846139d4565b613957565b905082815260208101848484011115612b3157600080fd5b612b3c848285613b71565b509392505050565b6000612b57612b5284613a05565b613957565b905082815260208101848484011115612b6f57600080fd5b612b7a848285613b71565b509392505050565b600081359050612b91816142b8565b92915050565b600082601f830112612ba857600080fd5b8135612bb8848260208601612a2e565b91505092915050565b600082601f830112612bd257600080fd5b8135612be2848260208601612a9a565b91505092915050565b600081359050612bfa816142cf565b92915050565b600081359050612c0f816142e6565b92915050565b600081519050612c24816142e6565b92915050565b600082601f830112612c3b57600080fd5b8135612c4b848260208601612b06565b91505092915050565b600082601f830112612c6557600080fd5b8135612c75848260208601612b44565b91505092915050565b600081359050612c8d816142fd565b92915050565b600060208284031215612ca557600080fd5b6000612cb384828501612b82565b91505092915050565b60008060408385031215612ccf57600080fd5b6000612cdd85828601612b82565b9250506020612cee85828601612b82565b9150509250929050565b600080600080600060a08688031215612d1057600080fd5b6000612d1e88828901612b82565b9550506020612d2f88828901612b82565b945050604086013567ffffffffffffffff811115612d4c57600080fd5b612d5888828901612bc1565b935050606086013567ffffffffffffffff811115612d7557600080fd5b612d8188828901612bc1565b925050608086013567ffffffffffffffff811115612d9e57600080fd5b612daa88828901612c2a565b9150509295509295909350565b600080600080600060a08688031215612dcf57600080fd5b6000612ddd88828901612b82565b9550506020612dee88828901612b82565b9450506040612dff88828901612c7e565b9350506060612e1088828901612c7e565b925050608086013567ffffffffffffffff811115612e2d57600080fd5b612e3988828901612c2a565b9150509295509295909350565b600080600060608486031215612e5b57600080fd5b6000612e6986828701612b82565b935050602084013567ffffffffffffffff811115612e8657600080fd5b612e9286828701612bc1565b925050604084013567ffffffffffffffff811115612eaf57600080fd5b612ebb86828701612bc1565b9150509250925092565b60008060008060808587031215612edb57600080fd5b6000612ee987828801612b82565b945050602085013567ffffffffffffffff811115612f0657600080fd5b612f1287828801612bc1565b935050604085013567ffffffffffffffff811115612f2f57600080fd5b612f3b87828801612bc1565b925050606085013567ffffffffffffffff811115612f5857600080fd5b612f6487828801612c2a565b91505092959194509250565b60008060408385031215612f8357600080fd5b6000612f9185828601612b82565b9250506020612fa285828601612beb565b9150509250929050565b60008060408385031215612fbf57600080fd5b6000612fcd85828601612b82565b9250506020612fde85828601612c7e565b9150509250929050565b600080600060608486031215612ffd57600080fd5b600061300b86828701612b82565b935050602061301c86828701612c7e565b925050604084013567ffffffffffffffff81111561303957600080fd5b61304586828701612c2a565b9150509250925092565b60008060006060848603121561306457600080fd5b600061307286828701612b82565b935050602061308386828701612c7e565b925050604061309486828701612c7e565b9150509250925092565b600080604083850312156130b157600080fd5b600083013567ffffffffffffffff8111156130cb57600080fd5b6130d785828601612b97565b925050602083013567ffffffffffffffff8111156130f457600080fd5b61310085828601612bc1565b9150509250929050565b60006020828403121561311c57600080fd5b600061312a84828501612c00565b91505092915050565b60006020828403121561314557600080fd5b600061315384828501612c15565b91505092915050565b60006020828403121561316e57600080fd5b600082013567ffffffffffffffff81111561318857600080fd5b61319484828501612c54565b91505092915050565b6000602082840312156131af57600080fd5b60006131bd84828501612c7e565b91505092915050565b60006131d28383613542565b60208301905092915050565b6131e781613afd565b82525050565b60006131f882613a46565b6132028185613a74565b935061320d83613a36565b8060005b8381101561323e57815161322588826131c6565b975061323083613a67565b925050600181019050613211565b5085935050505092915050565b61325481613b0f565b82525050565b600061326582613a51565b61326f8185613a85565b935061327f818560208601613b80565b61328881613d0e565b840191505092915050565b600061329e82613a5c565b6132a88185613a96565b93506132b8818560208601613b80565b6132c181613d0e565b840191505092915050565b60006132d9603483613a96565b91506132e482613d2c565b604082019050919050565b60006132fc602883613a96565b915061330782613d7b565b604082019050919050565b600061331f601483613a96565b915061332a82613dca565b602082019050919050565b6000613342602b83613a96565b915061334d82613df3565b604082019050919050565b6000613365602683613a96565b915061337082613e42565b604082019050919050565b6000613388602483613a96565b915061339382613e91565b604082019050919050565b60006133ab602983613a96565b91506133b682613ee0565b604082019050919050565b60006133ce601083613a96565b91506133d982613f2f565b602082019050919050565b60006133f1602583613a96565b91506133fc82613f58565b604082019050919050565b6000613414603283613a96565b915061341f82613fa7565b604082019050919050565b6000613437602383613a96565b915061344282613ff6565b604082019050919050565b600061345a602a83613a96565b915061346582614045565b604082019050919050565b600061347d601983613a96565b915061348882614094565b602082019050919050565b60006134a0602083613a96565b91506134ab826140bd565b602082019050919050565b60006134c3602983613a96565b91506134ce826140e6565b604082019050919050565b60006134e6602983613a96565b91506134f182614135565b604082019050919050565b6000613509602883613a96565b915061351482614184565b604082019050919050565b600061352c602183613a96565b9150613537826141d3565b604082019050919050565b61354b81613b67565b82525050565b61355a81613b67565b82525050565b600060208201905061357560008301846131de565b92915050565b600060a08201905061359060008301886131de565b61359d60208301876131de565b81810360408301526135af81866131ed565b905081810360608301526135c381856131ed565b905081810360808301526135d7818461325a565b90509695505050505050565b600060a0820190506135f860008301886131de565b61360560208301876131de565b6136126040830186613551565b61361f6060830185613551565b8181036080830152613631818461325a565b90509695505050505050565b6000602082019050818103600083015261365781846131ed565b905092915050565b6000604082019050818103600083015261367981856131ed565b9050818103602083015261368d81846131ed565b90509392505050565b60006020820190506136ab600083018461324b565b92915050565b600060208201905081810360008301526136cb8184613293565b905092915050565b600060208201905081810360008301526136ec816132cc565b9050919050565b6000602082019050818103600083015261370c816132ef565b9050919050565b6000602082019050818103600083015261372c81613312565b9050919050565b6000602082019050818103600083015261374c81613335565b9050919050565b6000602082019050818103600083015261376c81613358565b9050919050565b6000602082019050818103600083015261378c8161337b565b9050919050565b600060208201905081810360008301526137ac8161339e565b9050919050565b600060208201905081810360008301526137cc816133c1565b9050919050565b600060208201905081810360008301526137ec816133e4565b9050919050565b6000602082019050818103600083015261380c81613407565b9050919050565b6000602082019050818103600083015261382c8161342a565b9050919050565b6000602082019050818103600083015261384c8161344d565b9050919050565b6000602082019050818103600083015261386c81613470565b9050919050565b6000602082019050818103600083015261388c81613493565b9050919050565b600060208201905081810360008301526138ac816134b6565b9050919050565b600060208201905081810360008301526138cc816134d9565b9050919050565b600060208201905081810360008301526138ec816134fc565b9050919050565b6000602082019050818103600083015261390c8161351f565b9050919050565b60006020820190506139286000830184613551565b92915050565b60006040820190506139436000830185613551565b6139506020830184613551565b9392505050565b6000613961613972565b905061396d8282613be5565b919050565b6000604051905090565b600067ffffffffffffffff82111561399757613996613cbd565b5b602082029050602081019050919050565b600067ffffffffffffffff8211156139c3576139c2613cbd565b5b602082029050602081019050919050565b600067ffffffffffffffff8211156139ef576139ee613cbd565b5b6139f882613d0e565b9050602081019050919050565b600067ffffffffffffffff821115613a2057613a1f613cbd565b5b613a2982613d0e565b9050602081019050919050565b6000819050602082019050919050565b600081519050919050565b600081519050919050565b600081519050919050565b6000602082019050919050565b600082825260208201905092915050565b600082825260208201905092915050565b600082825260208201905092915050565b6000613ab282613b67565b9150613abd83613b67565b9250827fffffffffffffffffffffffffffffffffffffffffffffffffffffffffffffffff03821115613af257613af1613c5f565b5b828201905092915050565b6000613b0882613b47565b9050919050565b60008115159050919050565b60007fffffffff0000000000000000000000000000000000000000000000000000000082169050919050565b600073ffffffffffffffffffffffffffffffffffffffff82169050919050565b6000819050919050565b82818337600083830152505050565b60005b83811015613b9e578082015181840152602081019050613b83565b83811115613bad576000848401525b50505050565b60006002820490506001821680613bcb57607f821691505b60208210811415613bdf57613bde613c8e565b5b50919050565b613bee82613d0e565b810181811067ffffffffffffffff82111715613c0d57613c0c613cbd565b5b80604052505050565b6000613c2182613b67565b91507fffffffffffffffffffffffffffffffffffffffffffffffffffffffffffffffff821415613c5457613c53613c5f565b5b600182019050919050565b7f4e487b7100000000000000000000000000000000000000000000000000000000600052601160045260246000fd5b7f4e487b7100000000000000000000000000000000000000000000000000000000600052602260045260246000fd5b7f4e487b7100000000000000000000000000000000000000000000000000000000600052604160045260246000fd5b600060033d1115613d0b5760046000803e613d08600051613d1f565b90505b90565b6000601f19601f8301169050919050565b60008160e01c9050919050565b7f455243313135353a207472616e7366657220746f206e6f6e204552433131353560008201527f526563656976657220696d706c656d656e746572000000000000000000000000602082015250565b7f455243313135353a204552433131353552656365697665722072656a6563746560008201527f6420746f6b656e73000000000000000000000000000000000000000000000000602082015250565b7f5061757361626c653a206e6f7420706175736564000000000000000000000000600082015250565b7f455243313135353a2062616c616e636520717565727920666f7220746865207a60008201527f65726f2061646472657373000000000000000000000000000000000000000000602082015250565b7f4f776e61626c653a206e6577206f776e657220697320746865207a65726f206160008201527f6464726573730000000000000000000000000000000000000000000000000000602082015250565b7f455243313135353a206275726e20616d6f756e7420657863656564732062616c60008201527f616e636500000000000000000000000000000000000000000000000000000000602082015250565b7f455243313135353a2063616c6c6572206973206e6f74206f776e6572206e6f7260008201527f20617070726f7665640000000000000000000000000000000000000000000000602082015250565b7f5061757361626c653a2070617573656400000000000000000000000000000000600082015250565b7f455243313135353a207472616e7366657220746f20746865207a65726f20616460008201527f6472657373000000000000000000000000000000000000000000000000000000602082015250565b7f455243313135353a207472616e736665722063616c6c6572206973206e6f742060008201527f6f776e6572206e6f7220617070726f7665640000000000000000000000000000602082015250565b7f455243313135353a206275726e2066726f6d20746865207a65726f206164647260008201527f6573730000000000000000000000000000000000000000000000000000000000602082015250565b7f455243313135353a20696e73756666696369656e742062616c616e636520666f60008201527f72207472616e7366657200000000000000000000000000000000000000000000602082015250565b7f4163636573736f727920646f6573206e6f742065786973742e00000000000000600082015250565b7f4f776e61626c653a2063616c6c6572206973206e6f7420746865206f776e6572600082015250565b7f455243313135353a2073657474696e6720617070726f76616c2073746174757360008201527f20666f722073656c660000000000000000000000000000000000000000000000602082015250565b7f455243313135353a206163636f756e747320616e6420696473206c656e67746860008201527f206d69736d617463680000000000000000000000000000000000000000000000602082015250565b7f455243313135353a2069647320616e6420616d6f756e7473206c656e6774682060008201527f6d69736d61746368000000000000000000000000000000000000000000000000602082015250565b7f455243313135353a206d696e7420746f20746865207a65726f2061646472657360008201527f7300000000000000000000000000000000000000000000000000000000000000602082015250565b600060443d1015614232576142b5565b61423a613972565b60043d036004823e80513d602482011167ffffffffffffffff821117156142625750506142b5565b808201805167ffffffffffffffff81111561428057505050506142b5565b80602083010160043d03850181111561429d5750505050506142b5565b6142ac82602001850186613be5565b82955050505050505b90565b6142c181613afd565b81146142cc57600080fd5b50565b6142d881613b0f565b81146142e357600080fd5b50565b6142ef81613b1b565b81146142fa57600080fd5b50565b61430681613b67565b811461431157600080fd5b5056fea2646970667358221220b555f4803e69933569951f39c3eb12ecd66c10aa5fb80e726e7a25b0dd079e7c64736f6c6343000802003368747470733a2f2f676174657761792e70696e6174612e636c6f75642f697066732f516d6638704b5343356d56366e545653523373684a5170396537436756724e714b4739385a434b754d6d5042506d2f6d657461646174612f6170692f6974656d2f7b69647d2e6a736f6e",
  "immutableReferences": {},
  "source": "// SPDX-License-Identifier: MIT\npragma solidity ^0.8.2;\n\nimport \"@openzeppelin/contracts/token/ERC1155/ERC1155.sol\";\nimport \"@openzeppelin/contracts/access/Ownable.sol\";\nimport \"@openzeppelin/contracts/security/Pausable.sol\";\nimport \"@openzeppelin/contracts/token/ERC1155/extensions/ERC1155Burnable.sol\";\n\ncontract Accessory is ERC1155, Ownable, Pausable, ERC1155Burnable {\n    uint256 private SALETIME = 1634451621; // 7PM EDT on November 1st\n    uint256 private PRICE = .08 ether; // .08 eth\n    uint256 public constant CLASS_LAZER = 1;\n    uint256 public constant CLASS_SWORD = 2;\n    uint256 public constant CLASS_SAW = 3;\n    uint256 public constant CLASS_WRENCH = 4;\n\n    constructor() ERC1155(\"https://gateway.pinata.cloud/ipfs/Qmf8pKSC5mV6nTVSR3shJQp9e7CgVrNqKG98ZCKuMmPBPm/metadata/api/item/{id}.json\") {}\n\n    function setURI(string memory newuri) public onlyOwner {\n        _setURI(newuri);\n    }\n\n    function pause() public onlyOwner {\n        _pause();\n    }\n\n    function unpause() public onlyOwner {\n        _unpause();\n    }\n\n    function mintAccessory(address _to, uint256 _clazz, bytes memory _data) public whenNotPaused onlyOwner {\n        require(_clazz > 0 &&  _clazz <= 4, \"Accessory does not exist.\");\n        _mint(_to, _clazz, 1, _data);\n    }\n\n    function mintBatchAccessories(address _to, uint256[] memory _ids, uint256[] memory _amounts, bytes memory _data) public whenNotPaused onlyOwner {\n        uint256 _idsLength = _ids.length;\n        for (uint256 i=0; i<_idsLength; i++) {\n            require(_ids[i] > 0 && _ids[i] <= 4, \"Accessory does not exist.\");\n        }\n        _mintBatch(_to, _ids, _amounts, _data);\n    }\n\n    function _beforeTokenTransfer(address operator, address from, address to, uint256[] memory ids, uint256[] memory amounts, bytes memory data) internal whenNotPaused override {\n        super._beforeTokenTransfer(operator, from, to, ids, amounts, data);\n    }\n}\n\n",
  "sourcePath": "/home/seandevs/workspaces/celo-hackathon/nfts/robots/contracts/Accessory.sol",
  "compiler": {
    "name": "solc",
    "version": "0.8.2+commit.661d1103.Emscripten.clang"
  },
  "schemaVersion": "3.4.1",
  "updatedAt": "2021-10-21T02:11:04.688Z",
  "networkType": "ethereum",
  "devdoc": {
    "kind": "dev",
    "methods": {
      "balanceOf(address,uint256)": {
        "details": "See {IERC1155-balanceOf}. Requirements: - `account` cannot be the zero address."
      },
      "balanceOfBatch(address[],uint256[])": {
        "details": "See {IERC1155-balanceOfBatch}. Requirements: - `accounts` and `ids` must have the same length."
      },
      "isApprovedForAll(address,address)": {
        "details": "See {IERC1155-isApprovedForAll}."
      },
      "owner()": {
        "details": "Returns the address of the current owner."
      },
      "paused()": {
        "details": "Returns true if the contract is paused, and false otherwise."
      },
      "renounceOwnership()": {
        "details": "Leaves the contract without owner. It will not be possible to call `onlyOwner` functions anymore. Can only be called by the current owner. NOTE: Renouncing ownership will leave the contract without an owner, thereby removing any functionality that is only available to the owner."
      },
      "safeBatchTransferFrom(address,address,uint256[],uint256[],bytes)": {
        "details": "See {IERC1155-safeBatchTransferFrom}."
      },
      "safeTransferFrom(address,address,uint256,uint256,bytes)": {
        "details": "See {IERC1155-safeTransferFrom}."
      },
      "setApprovalForAll(address,bool)": {
        "details": "See {IERC1155-setApprovalForAll}."
      },
      "supportsInterface(bytes4)": {
        "details": "See {IERC165-supportsInterface}."
      },
      "transferOwnership(address)": {
        "details": "Transfers ownership of the contract to a new account (`newOwner`). Can only be called by the current owner."
      },
      "uri(uint256)": {
        "details": "See {IERC1155MetadataURI-uri}. This implementation returns the same URI for *all* token types. It relies on the token type ID substitution mechanism https://eips.ethereum.org/EIPS/eip-1155#metadata[defined in the EIP]. Clients calling this function must replace the `\\{id\\}` substring with the actual token type ID."
      }
    },
    "version": 1
  },
  "userdoc": {
    "kind": "user",
    "methods": {},
    "version": 1
  }
}