{
  "contractName": "BotCash",
  "abi": [
    {
      "inputs": [],
      "stateMutability": "nonpayable",
      "type": "constructor"
    },
    {
      "anonymous": false,
      "inputs": [
        {
          "indexed": true,
          "internalType": "address",
          "name": "owner",
          "type": "address"
        },
        {
          "indexed": true,
          "internalType": "address",
          "name": "spender",
          "type": "address"
        },
        {
          "indexed": false,
          "internalType": "uint256",
          "name": "value",
          "type": "uint256"
        }
      ],
      "name": "Approval",
      "type": "event"
    },
    {
      "anonymous": false,
      "inputs": [
        {
          "indexed": true,
          "internalType": "address",
          "name": "previousOwner",
          "type": "address"
        },
        {
          "indexed": true,
          "internalType": "address",
          "name": "newOwner",
          "type": "address"
        }
      ],
      "name": "OwnershipTransferred",
      "type": "event"
    },
    {
      "anonymous": false,
      "inputs": [
        {
          "indexed": false,
          "internalType": "address",
          "name": "account",
          "type": "address"
        }
      ],
      "name": "Paused",
      "type": "event"
    },
    {
      "anonymous": false,
      "inputs": [
        {
          "indexed": false,
          "internalType": "uint256",
          "name": "id",
          "type": "uint256"
        }
      ],
      "name": "Snapshot",
      "type": "event"
    },
    {
      "anonymous": false,
      "inputs": [
        {
          "indexed": true,
          "internalType": "address",
          "name": "from",
          "type": "address"
        },
        {
          "indexed": true,
          "internalType": "address",
          "name": "to",
          "type": "address"
        },
        {
          "indexed": false,
          "internalType": "uint256",
          "name": "value",
          "type": "uint256"
        }
      ],
      "name": "Transfer",
      "type": "event"
    },
    {
      "anonymous": false,
      "inputs": [
        {
          "indexed": false,
          "internalType": "address",
          "name": "account",
          "type": "address"
        }
      ],
      "name": "Unpaused",
      "type": "event"
    },
    {
      "inputs": [
        {
          "internalType": "address",
          "name": "owner",
          "type": "address"
        },
        {
          "internalType": "address",
          "name": "spender",
          "type": "address"
        }
      ],
      "name": "allowance",
      "outputs": [
        {
          "internalType": "uint256",
          "name": "",
          "type": "uint256"
        }
      ],
      "stateMutability": "view",
      "type": "function",
      "constant": true
    },
    {
      "inputs": [
        {
          "internalType": "address",
          "name": "spender",
          "type": "address"
        },
        {
          "internalType": "uint256",
          "name": "amount",
          "type": "uint256"
        }
      ],
      "name": "approve",
      "outputs": [
        {
          "internalType": "bool",
          "name": "",
          "type": "bool"
        }
      ],
      "stateMutability": "nonpayable",
      "type": "function"
    },
    {
      "inputs": [
        {
          "internalType": "address",
          "name": "account",
          "type": "address"
        }
      ],
      "name": "balanceOf",
      "outputs": [
        {
          "internalType": "uint256",
          "name": "",
          "type": "uint256"
        }
      ],
      "stateMutability": "view",
      "type": "function",
      "constant": true
    },
    {
      "inputs": [
        {
          "internalType": "address",
          "name": "account",
          "type": "address"
        },
        {
          "internalType": "uint256",
          "name": "snapshotId",
          "type": "uint256"
        }
      ],
      "name": "balanceOfAt",
      "outputs": [
        {
          "internalType": "uint256",
          "name": "",
          "type": "uint256"
        }
      ],
      "stateMutability": "view",
      "type": "function",
      "constant": true
    },
    {
      "inputs": [
        {
          "internalType": "uint256",
          "name": "amount",
          "type": "uint256"
        }
      ],
      "name": "burn",
      "outputs": [],
      "stateMutability": "nonpayable",
      "type": "function"
    },
    {
      "inputs": [
        {
          "internalType": "address",
          "name": "account",
          "type": "address"
        },
        {
          "internalType": "uint256",
          "name": "amount",
          "type": "uint256"
        }
      ],
      "name": "burnFrom",
      "outputs": [],
      "stateMutability": "nonpayable",
      "type": "function"
    },
    {
      "inputs": [],
      "name": "decimals",
      "outputs": [
        {
          "internalType": "uint8",
          "name": "",
          "type": "uint8"
        }
      ],
      "stateMutability": "view",
      "type": "function",
      "constant": true
    },
    {
      "inputs": [
        {
          "internalType": "address",
          "name": "spender",
          "type": "address"
        },
        {
          "internalType": "uint256",
          "name": "subtractedValue",
          "type": "uint256"
        }
      ],
      "name": "decreaseAllowance",
      "outputs": [
        {
          "internalType": "bool",
          "name": "",
          "type": "bool"
        }
      ],
      "stateMutability": "nonpayable",
      "type": "function"
    },
    {
      "inputs": [
        {
          "internalType": "address",
          "name": "spender",
          "type": "address"
        },
        {
          "internalType": "uint256",
          "name": "addedValue",
          "type": "uint256"
        }
      ],
      "name": "increaseAllowance",
      "outputs": [
        {
          "internalType": "bool",
          "name": "",
          "type": "bool"
        }
      ],
      "stateMutability": "nonpayable",
      "type": "function"
    },
    {
      "inputs": [],
      "name": "name",
      "outputs": [
        {
          "internalType": "string",
          "name": "",
          "type": "string"
        }
      ],
      "stateMutability": "view",
      "type": "function",
      "constant": true
    },
    {
      "inputs": [],
      "name": "owner",
      "outputs": [
        {
          "internalType": "address",
          "name": "",
          "type": "address"
        }
      ],
      "stateMutability": "view",
      "type": "function",
      "constant": true
    },
    {
      "inputs": [],
      "name": "paused",
      "outputs": [
        {
          "internalType": "bool",
          "name": "",
          "type": "bool"
        }
      ],
      "stateMutability": "view",
      "type": "function",
      "constant": true
    },
    {
      "inputs": [],
      "name": "renounceOwnership",
      "outputs": [],
      "stateMutability": "nonpayable",
      "type": "function"
    },
    {
      "inputs": [],
      "name": "symbol",
      "outputs": [
        {
          "internalType": "string",
          "name": "",
          "type": "string"
        }
      ],
      "stateMutability": "view",
      "type": "function",
      "constant": true
    },
    {
      "inputs": [],
      "name": "totalSupply",
      "outputs": [
        {
          "internalType": "uint256",
          "name": "",
          "type": "uint256"
        }
      ],
      "stateMutability": "view",
      "type": "function",
      "constant": true
    },
    {
      "inputs": [
        {
          "internalType": "uint256",
          "name": "snapshotId",
          "type": "uint256"
        }
      ],
      "name": "totalSupplyAt",
      "outputs": [
        {
          "internalType": "uint256",
          "name": "",
          "type": "uint256"
        }
      ],
      "stateMutability": "view",
      "type": "function",
      "constant": true
    },
    {
      "inputs": [
        {
          "internalType": "address",
          "name": "recipient",
          "type": "address"
        },
        {
          "internalType": "uint256",
          "name": "amount",
          "type": "uint256"
        }
      ],
      "name": "transfer",
      "outputs": [
        {
          "internalType": "bool",
          "name": "",
          "type": "bool"
        }
      ],
      "stateMutability": "nonpayable",
      "type": "function"
    },
    {
      "inputs": [
        {
          "internalType": "address",
          "name": "sender",
          "type": "address"
        },
        {
          "internalType": "address",
          "name": "recipient",
          "type": "address"
        },
        {
          "internalType": "uint256",
          "name": "amount",
          "type": "uint256"
        }
      ],
      "name": "transferFrom",
      "outputs": [
        {
          "internalType": "bool",
          "name": "",
          "type": "bool"
        }
      ],
      "stateMutability": "nonpayable",
      "type": "function"
    },
    {
      "inputs": [
        {
          "internalType": "address",
          "name": "newOwner",
          "type": "address"
        }
      ],
      "name": "transferOwnership",
      "outputs": [],
      "stateMutability": "nonpayable",
      "type": "function"
    },
    {
      "inputs": [],
      "name": "snapshot",
      "outputs": [],
      "stateMutability": "nonpayable",
      "type": "function"
    },
    {
      "inputs": [],
      "name": "pause",
      "outputs": [],
      "stateMutability": "nonpayable",
      "type": "function"
    },
    {
      "inputs": [],
      "name": "unpause",
      "outputs": [],
      "stateMutability": "nonpayable",
      "type": "function"
    },
    {
      "inputs": [
        {
          "internalType": "address",
          "name": "to",
          "type": "address"
        },
        {
          "internalType": "uint256",
          "name": "amount",
          "type": "uint256"
        }
      ],
      "name": "mint",
      "outputs": [],
      "stateMutability": "nonpayable",
      "type": "function"
    }
  ],
  "bytecode": "0x60806040523480156200001157600080fd5b506040518060400160405280600781526020017f426f7443617368000000000000000000000000000000000000000000000000008152506040518060400160405280600481526020017f424373480000000000000000000000000000000000000000000000000000000081525081600390805190602001906200009692919062000717565b508060049080519060200190620000af92919062000717565b505050620000d2620000c66200013260201b60201c565b6200013a60201b60201c565b6000600960146101000a81548160ff0219169083151502179055506200012c33620001026200020060201b60201c565b600a62000110919062000950565b6298968062000120919062000a8d565b6200020960201b60201c565b62000c33565b600033905090565b6000600960009054906101000a900473ffffffffffffffffffffffffffffffffffffffff16905081600960006101000a81548173ffffffffffffffffffffffffffffffffffffffff021916908373ffffffffffffffffffffffffffffffffffffffff1602179055508173ffffffffffffffffffffffffffffffffffffffff168173ffffffffffffffffffffffffffffffffffffffff167f8be0079c531659141344cd1fd0a4f28419497f9722a3daafe3b4186f6b6457e060405160405180910390a35050565b60006012905090565b600073ffffffffffffffffffffffffffffffffffffffff168273ffffffffffffffffffffffffffffffffffffffff1614156200027c576040517f08c379a0000000000000000000000000000000000000000000000000000000008152600401620002739062000848565b60405180910390fd5b62000290600083836200038260201b60201c565b8060026000828254620002a4919062000898565b92505081905550806000808473ffffffffffffffffffffffffffffffffffffffff1673ffffffffffffffffffffffffffffffffffffffff1681526020019081526020016000206000828254620002fb919062000898565b925050819055508173ffffffffffffffffffffffffffffffffffffffff16600073ffffffffffffffffffffffffffffffffffffffff167fddf252ad1be2c89b69c2b068fc378daa952ba7f163c4a11628f55a4df523b3ef836040516200036291906200086a565b60405180910390a36200037e60008383620003f260201b60201c565b5050565b62000392620003f760201b60201c565b15620003d5576040517f08c379a0000000000000000000000000000000000000000000000000000000008152600401620003cc9062000826565b60405180910390fd5b620003ed8383836200040e60201b62000e2d1760201c565b505050565b505050565b6000600960149054906101000a900460ff16905090565b620004268383836200050960201b62000ee71760201c565b600073ffffffffffffffffffffffffffffffffffffffff168373ffffffffffffffffffffffffffffffffffffffff16141562000483576200046d826200050e60201b60201c565b6200047d6200057160201b60201c565b62000504565b600073ffffffffffffffffffffffffffffffffffffffff168273ffffffffffffffffffffffffffffffffffffffff161415620004e057620004ca836200050e60201b60201c565b620004da6200057160201b60201c565b62000503565b620004f1836200050e60201b60201c565b62000502826200050e60201b60201c565b5b5b505050565b505050565b6200056e600560008373ffffffffffffffffffffffffffffffffffffffff1673ffffffffffffffffffffffffffffffffffffffff16815260200190815260200160002062000562836200059560201b60201c565b620005dd60201b60201c565b50565b620005936006620005876200066960201b60201c565b620005dd60201b60201c565b565b60008060008373ffffffffffffffffffffffffffffffffffffffff1673ffffffffffffffffffffffffffffffffffffffff168152602001908152602001600020549050919050565b6000620005ef6200067360201b60201c565b90508062000606846000016200069160201b60201c565b1015620006645782600001819080600181540180825580915050600190039060005260206000200160009091909190915055826001018290806001815401808255809150506001900390600052602060002001600090919091909150555b505050565b6000600254905090565b60006200068c60086200070960201b62000eec1760201c565b905090565b60008082805490501415620006aa576000905062000704565b8160018380549050620006be919062000aee565b81548110620006f6577f4e487b7100000000000000000000000000000000000000000000000000000000600052603260045260246000fd5b906000526020600020015490505b919050565b600081600001549050919050565b828054620007259062000b40565b90600052602060002090601f01602090048101928262000749576000855562000795565b82601f106200076457805160ff191683800117855562000795565b8280016001018555821562000795579182015b828111156200079457825182559160200191906001019062000777565b5b509050620007a49190620007a8565b5090565b5b80821115620007c3576000816000905550600101620007a9565b5090565b6000620007d660108362000887565b9150620007e38262000be1565b602082019050919050565b6000620007fd601f8362000887565b91506200080a8262000c0a565b602082019050919050565b620008208162000b29565b82525050565b600060208201905081810360008301526200084181620007c7565b9050919050565b600060208201905081810360008301526200086381620007ee565b9050919050565b600060208201905062000881600083018462000815565b92915050565b600082825260208201905092915050565b6000620008a58262000b29565b9150620008b28362000b29565b9250827fffffffffffffffffffffffffffffffffffffffffffffffffffffffffffffffff03821115620008ea57620008e962000b76565b5b828201905092915050565b6000808291508390505b600185111562000947578086048111156200091f576200091e62000b76565b5b60018516156200092f5780820291505b80810290506200093f8562000bd4565b9450620008ff565b94509492505050565b60006200095d8262000b29565b91506200096a8362000b33565b9250620009997fffffffffffffffffffffffffffffffffffffffffffffffffffffffffffffffff8484620009a1565b905092915050565b600082620009b3576001905062000a86565b81620009c3576000905062000a86565b8160018114620009dc5760028114620009e75762000a1d565b600191505062000a86565b60ff841115620009fc57620009fb62000b76565b5b8360020a91508482111562000a165762000a1562000b76565b5b5062000a86565b5060208310610133831016604e8410600b841016171562000a575782820a90508381111562000a515762000a5062000b76565b5b62000a86565b62000a668484846001620008f5565b9250905081840481111562000a805762000a7f62000b76565b5b81810290505b9392505050565b600062000a9a8262000b29565b915062000aa78362000b29565b9250817fffffffffffffffffffffffffffffffffffffffffffffffffffffffffffffffff048311821515161562000ae35762000ae262000b76565b5b828202905092915050565b600062000afb8262000b29565b915062000b088362000b29565b92508282101562000b1e5762000b1d62000b76565b5b828203905092915050565b6000819050919050565b600060ff82169050919050565b6000600282049050600182168062000b5957607f821691505b6020821081141562000b705762000b6f62000ba5565b5b50919050565b7f4e487b7100000000000000000000000000000000000000000000000000000000600052601160045260246000fd5b7f4e487b7100000000000000000000000000000000000000000000000000000000600052602260045260246000fd5b60008160011c9050919050565b7f5061757361626c653a2070617573656400000000000000000000000000000000600082015250565b7f45524332303a206d696e7420746f20746865207a65726f206164647265737300600082015250565b612ace8062000c436000396000f3fe608060405234801561001057600080fd5b506004361061014d5760003560e01c806370a08231116100c35780639711715a1161007c5780639711715a14610368578063981b24d014610372578063a457c2d7146103a2578063a9059cbb146103d2578063dd62ed3e14610402578063f2fde38b146104325761014d565b806370a08231146102cc578063715018a6146102fc57806379cc6790146103065780638456cb59146103225780638da5cb5b1461032c57806395d89b411461034a5761014d565b80633950935111610115578063395093511461020c5780633f4ba83a1461023c57806340c10f191461024657806342966c68146102625780634ee2cd7e1461027e5780635c975abb146102ae5761014d565b806306fdde0314610152578063095ea7b31461017057806318160ddd146101a057806323b872dd146101be578063313ce567146101ee575b600080fd5b61015a61044e565b6040516101679190612168565b60405180910390f35b61018a60048036038101906101859190611e05565b6104e0565b604051610197919061214d565b60405180910390f35b6101a86104fe565b6040516101b591906123aa565b60405180910390f35b6101d860048036038101906101d39190611db6565b610508565b6040516101e5919061214d565b60405180910390f35b6101f6610600565b60405161020391906123c5565b60405180910390f35b61022660048036038101906102219190611e05565b610609565b604051610233919061214d565b60405180910390f35b6102446106b5565b005b610260600480360381019061025b9190611e05565b61073b565b005b61027c60048036038101906102779190611e41565b6107c5565b005b61029860048036038101906102939190611e05565b6107d9565b6040516102a591906123aa565b60405180910390f35b6102b6610849565b6040516102c3919061214d565b60405180910390f35b6102e660048036038101906102e19190611d51565b610860565b6040516102f391906123aa565b60405180910390f35b6103046108a8565b005b610320600480360381019061031b9190611e05565b610930565b005b61032a6109ab565b005b610334610a31565b6040516103419190612132565b60405180910390f35b610352610a5b565b60405161035f9190612168565b60405180910390f35b610370610aed565b005b61038c60048036038101906103879190611e41565b610b74565b60405161039991906123aa565b60405180910390f35b6103bc60048036038101906103b79190611e05565b610ba5565b6040516103c9919061214d565b60405180910390f35b6103ec60048036038101906103e79190611e05565b610c90565b6040516103f9919061214d565b60405180910390f35b61041c60048036038101906104179190611d7a565b610cae565b60405161042991906123aa565b60405180910390f35b61044c60048036038101906104479190611d51565b610d35565b005b60606003805461045d9061253f565b80601f01602080910402602001604051908101604052809291908181526020018280546104899061253f565b80156104d65780601f106104ab576101008083540402835291602001916104d6565b820191906000526020600020905b8154815290600101906020018083116104b957829003601f168201915b5050505050905090565b60006104f46104ed610efa565b8484610f02565b6001905092915050565b6000600254905090565b60006105158484846110cd565b6000600160008673ffffffffffffffffffffffffffffffffffffffff1673ffffffffffffffffffffffffffffffffffffffff1681526020019081526020016000206000610560610efa565b73ffffffffffffffffffffffffffffffffffffffff1673ffffffffffffffffffffffffffffffffffffffff168152602001908152602001600020549050828110156105e0576040517f08c379a00000000000000000000000000000000000000000000000000000000081526004016105d79061228a565b60405180910390fd5b6105f4856105ec610efa565b858403610f02565b60019150509392505050565b60006012905090565b60006106ab610616610efa565b848460016000610624610efa565b73ffffffffffffffffffffffffffffffffffffffff1673ffffffffffffffffffffffffffffffffffffffff16815260200190815260200160002060008873ffffffffffffffffffffffffffffffffffffffff1673ffffffffffffffffffffffffffffffffffffffff168152602001908152602001600020546106a691906123fc565b610f02565b6001905092915050565b6106bd610efa565b73ffffffffffffffffffffffffffffffffffffffff166106db610a31565b73ffffffffffffffffffffffffffffffffffffffff1614610731576040517f08c379a0000000000000000000000000000000000000000000000000000000008152600401610728906122aa565b60405180910390fd5b61073961134e565b565b610743610efa565b73ffffffffffffffffffffffffffffffffffffffff16610761610a31565b73ffffffffffffffffffffffffffffffffffffffff16146107b7576040517f08c379a00000000000000000000000000000000000000000000000000000000081526004016107ae906122aa565b60405180910390fd5b6107c182826113f0565b5050565b6107d66107d0610efa565b82611550565b50565b600080600061082684600560008873ffffffffffffffffffffffffffffffffffffffff1673ffffffffffffffffffffffffffffffffffffffff168152602001908152602001600020611727565b915091508161083d5761083885610860565b61083f565b805b9250505092915050565b6000600960149054906101000a900460ff16905090565b60008060008373ffffffffffffffffffffffffffffffffffffffff1673ffffffffffffffffffffffffffffffffffffffff168152602001908152602001600020549050919050565b6108b0610efa565b73ffffffffffffffffffffffffffffffffffffffff166108ce610a31565b73ffffffffffffffffffffffffffffffffffffffff1614610924576040517f08c379a000000000000000000000000000000000000000000000000000000000815260040161091b906122aa565b60405180910390fd5b61092e6000611843565b565b60006109438361093e610efa565b610cae565b905081811015610988576040517f08c379a000000000000000000000000000000000000000000000000000000000815260040161097f906122ca565b60405180910390fd5b61099c83610994610efa565b848403610f02565b6109a68383611550565b505050565b6109b3610efa565b73ffffffffffffffffffffffffffffffffffffffff166109d1610a31565b73ffffffffffffffffffffffffffffffffffffffff1614610a27576040517f08c379a0000000000000000000000000000000000000000000000000000000008152600401610a1e906122aa565b60405180910390fd5b610a2f611909565b565b6000600960009054906101000a900473ffffffffffffffffffffffffffffffffffffffff16905090565b606060048054610a6a9061253f565b80601f0160208091040260200160405190810160405280929190818152602001828054610a969061253f565b8015610ae35780601f10610ab857610100808354040283529160200191610ae3565b820191906000526020600020905b815481529060010190602001808311610ac657829003601f168201915b5050505050905090565b610af5610efa565b73ffffffffffffffffffffffffffffffffffffffff16610b13610a31565b73ffffffffffffffffffffffffffffffffffffffff1614610b69576040517f08c379a0000000000000000000000000000000000000000000000000000000008152600401610b60906122aa565b60405180910390fd5b610b716119ac565b50565b6000806000610b84846006611727565b9150915081610b9a57610b956104fe565b610b9c565b805b92505050919050565b60008060016000610bb4610efa565b73ffffffffffffffffffffffffffffffffffffffff1673ffffffffffffffffffffffffffffffffffffffff16815260200190815260200160002060008573ffffffffffffffffffffffffffffffffffffffff1673ffffffffffffffffffffffffffffffffffffffff16815260200190815260200160002054905082811015610c71576040517f08c379a0000000000000000000000000000000000000000000000000000000008152600401610c689061236a565b60405180910390fd5b610c85610c7c610efa565b85858403610f02565b600191505092915050565b6000610ca4610c9d610efa565b84846110cd565b6001905092915050565b6000600160008473ffffffffffffffffffffffffffffffffffffffff1673ffffffffffffffffffffffffffffffffffffffff16815260200190815260200160002060008373ffffffffffffffffffffffffffffffffffffffff1673ffffffffffffffffffffffffffffffffffffffff16815260200190815260200160002054905092915050565b610d3d610efa565b73ffffffffffffffffffffffffffffffffffffffff16610d5b610a31565b73ffffffffffffffffffffffffffffffffffffffff1614610db1576040517f08c379a0000000000000000000000000000000000000000000000000000000008152600401610da8906122aa565b60405180910390fd5b600073ffffffffffffffffffffffffffffffffffffffff168173ffffffffffffffffffffffffffffffffffffffff161415610e21576040517f08c379a0000000000000000000000000000000000000000000000000000000008152600401610e189061220a565b60405180910390fd5b610e2a81611843565b50565b610e38838383610ee7565b600073ffffffffffffffffffffffffffffffffffffffff168373ffffffffffffffffffffffffffffffffffffffff161415610e8357610e7682611a02565b610e7e611a55565b610ee2565b600073ffffffffffffffffffffffffffffffffffffffff168273ffffffffffffffffffffffffffffffffffffffff161415610ece57610ec183611a02565b610ec9611a55565b610ee1565b610ed783611a02565b610ee082611a02565b5b5b505050565b505050565b600081600001549050919050565b600033905090565b600073ffffffffffffffffffffffffffffffffffffffff168373ffffffffffffffffffffffffffffffffffffffff161415610f72576040517f08c379a0000000000000000000000000000000000000000000000000000000008152600401610f699061232a565b60405180910390fd5b600073ffffffffffffffffffffffffffffffffffffffff168273ffffffffffffffffffffffffffffffffffffffff161415610fe2576040517f08c379a0000000000000000000000000000000000000000000000000000000008152600401610fd99061222a565b60405180910390fd5b80600160008573ffffffffffffffffffffffffffffffffffffffff1673ffffffffffffffffffffffffffffffffffffffff16815260200190815260200160002060008473ffffffffffffffffffffffffffffffffffffffff1673ffffffffffffffffffffffffffffffffffffffff168152602001908152602001600020819055508173ffffffffffffffffffffffffffffffffffffffff168373ffffffffffffffffffffffffffffffffffffffff167f8c5be1e5ebec7d5bd14f71427d1e84f3dd0314c0f7b2291e5b200ac8c7c3b925836040516110c091906123aa565b60405180910390a3505050565b600073ffffffffffffffffffffffffffffffffffffffff168373ffffffffffffffffffffffffffffffffffffffff16141561113d576040517f08c379a00000000000000000000000000000000000000000000000000000000081526004016111349061230a565b60405180910390fd5b600073ffffffffffffffffffffffffffffffffffffffff168273ffffffffffffffffffffffffffffffffffffffff1614156111ad576040517f08c379a00000000000000000000000000000000000000000000000000000000081526004016111a4906121aa565b60405180910390fd5b6111b8838383611a69565b60008060008573ffffffffffffffffffffffffffffffffffffffff1673ffffffffffffffffffffffffffffffffffffffff1681526020019081526020016000205490508181101561123e576040517f08c379a00000000000000000000000000000000000000000000000000000000081526004016112359061224a565b60405180910390fd5b8181036000808673ffffffffffffffffffffffffffffffffffffffff1673ffffffffffffffffffffffffffffffffffffffff16815260200190815260200160002081905550816000808573ffffffffffffffffffffffffffffffffffffffff1673ffffffffffffffffffffffffffffffffffffffff16815260200190815260200160002060008282546112d191906123fc565b925050819055508273ffffffffffffffffffffffffffffffffffffffff168473ffffffffffffffffffffffffffffffffffffffff167fddf252ad1be2c89b69c2b068fc378daa952ba7f163c4a11628f55a4df523b3ef8460405161133591906123aa565b60405180910390a3611348848484611ac1565b50505050565b611356610849565b611395576040517f08c379a000000000000000000000000000000000000000000000000000000000815260040161138c906121ca565b60405180910390fd5b6000600960146101000a81548160ff0219169083151502179055507f5db9ee0a495bf2e6ff9c91a7834c1ba4fdd244a5e8aa4e537bd38aeae4b073aa6113d9610efa565b6040516113e69190612132565b60405180910390a1565b600073ffffffffffffffffffffffffffffffffffffffff168273ffffffffffffffffffffffffffffffffffffffff161415611460576040517f08c379a00000000000000000000000000000000000000000000000000000000081526004016114579061238a565b60405180910390fd5b61146c60008383611a69565b806002600082825461147e91906123fc565b92505081905550806000808473ffffffffffffffffffffffffffffffffffffffff1673ffffffffffffffffffffffffffffffffffffffff16815260200190815260200160002060008282546114d391906123fc565b925050819055508173ffffffffffffffffffffffffffffffffffffffff16600073ffffffffffffffffffffffffffffffffffffffff167fddf252ad1be2c89b69c2b068fc378daa952ba7f163c4a11628f55a4df523b3ef8360405161153891906123aa565b60405180910390a361154c60008383611ac1565b5050565b600073ffffffffffffffffffffffffffffffffffffffff168273ffffffffffffffffffffffffffffffffffffffff1614156115c0576040517f08c379a00000000000000000000000000000000000000000000000000000000081526004016115b7906122ea565b60405180910390fd5b6115cc82600083611a69565b60008060008473ffffffffffffffffffffffffffffffffffffffff1673ffffffffffffffffffffffffffffffffffffffff16815260200190815260200160002054905081811015611652576040517f08c379a0000000000000000000000000000000000000000000000000000000008152600401611649906121ea565b60405180910390fd5b8181036000808573ffffffffffffffffffffffffffffffffffffffff1673ffffffffffffffffffffffffffffffffffffffff1681526020019081526020016000208190555081600260008282546116a99190612483565b92505081905550600073ffffffffffffffffffffffffffffffffffffffff168373ffffffffffffffffffffffffffffffffffffffff167fddf252ad1be2c89b69c2b068fc378daa952ba7f163c4a11628f55a4df523b3ef8460405161170e91906123aa565b60405180910390a361172283600084611ac1565b505050565b6000806000841161176d576040517f08c379a00000000000000000000000000000000000000000000000000000000081526004016117649061234a565b60405180910390fd5b611775611ac6565b8411156117b7576040517f08c379a00000000000000000000000000000000000000000000000000000000081526004016117ae9061218a565b60405180910390fd5b60006117cf8585600001611ad790919063ffffffff16565b905083600001805490508114156117ed57600080925092505061183c565b600184600101828154811061182b577f4e487b7100000000000000000000000000000000000000000000000000000000600052603260045260246000fd5b906000526020600020015492509250505b9250929050565b6000600960009054906101000a900473ffffffffffffffffffffffffffffffffffffffff16905081600960006101000a81548173ffffffffffffffffffffffffffffffffffffffff021916908373ffffffffffffffffffffffffffffffffffffffff1602179055508173ffffffffffffffffffffffffffffffffffffffff168173ffffffffffffffffffffffffffffffffffffffff167f8be0079c531659141344cd1fd0a4f28419497f9722a3daafe3b4186f6b6457e060405160405180910390a35050565b611911610849565b15611951576040517f08c379a00000000000000000000000000000000000000000000000000000000081526004016119489061226a565b60405180910390fd5b6001600960146101000a81548160ff0219169083151502179055507f62e78cea01bee320cd4e420270b5ea74000d11b0c9f74754ebdbfc544b05a258611995610efa565b6040516119a29190612132565b60405180910390a1565b60006119b86008611bfd565b60006119c2611ac6565b90507f8030e83b04d87bef53480e26263266d6ca66863aa8506aca6f2559d18aa1cb67816040516119f391906123aa565b60405180910390a18091505090565b611a52600560008373ffffffffffffffffffffffffffffffffffffffff1673ffffffffffffffffffffffffffffffffffffffff168152602001908152602001600020611a4d83610860565b611c13565b50565b611a676006611a626104fe565b611c13565b565b611a71610849565b15611ab1576040517f08c379a0000000000000000000000000000000000000000000000000000000008152600401611aa89061226a565b60405180910390fd5b611abc838383610e2d565b505050565b505050565b6000611ad26008610eec565b905090565b60008083805490501415611aee5760009050611bf7565b600080848054905090505b80821015611b78576000611b0d8383611c8e565b905084868281548110611b49577f4e487b7100000000000000000000000000000000000000000000000000000000600052603260045260246000fd5b90600052602060002001541115611b6257809150611b72565b600181611b6f91906123fc565b92505b50611af9565b600082118015611bd657508385600184611b929190612483565b81548110611bc9577f4e487b7100000000000000000000000000000000000000000000000000000000600052603260045260246000fd5b9060005260206000200154145b15611bf157600182611be89190612483565b92505050611bf7565b81925050505b92915050565b6001816000016000828254019250508190555050565b6000611c1d611ac6565b905080611c2c84600001611cb4565b1015611c895782600001819080600181540180825580915050600190039060005260206000200160009091909190915055826001018290806001815401808255809150506001900390600052602060002001600090919091909150555b505050565b60006002828418611c9f9190612452565b828416611cac91906123fc565b905092915050565b60008082805490501415611ccb5760009050611d22565b8160018380549050611cdd9190612483565b81548110611d14577f4e487b7100000000000000000000000000000000000000000000000000000000600052603260045260246000fd5b906000526020600020015490505b919050565b600081359050611d3681612a6a565b92915050565b600081359050611d4b81612a81565b92915050565b600060208284031215611d6357600080fd5b6000611d7184828501611d27565b91505092915050565b60008060408385031215611d8d57600080fd5b6000611d9b85828601611d27565b9250506020611dac85828601611d27565b9150509250929050565b600080600060608486031215611dcb57600080fd5b6000611dd986828701611d27565b9350506020611dea86828701611d27565b9250506040611dfb86828701611d3c565b9150509250925092565b60008060408385031215611e1857600080fd5b6000611e2685828601611d27565b9250506020611e3785828601611d3c565b9150509250929050565b600060208284031215611e5357600080fd5b6000611e6184828501611d3c565b91505092915050565b611e73816124b7565b82525050565b611e82816124c9565b82525050565b6000611e93826123e0565b611e9d81856123eb565b9350611ead81856020860161250c565b611eb6816125fe565b840191505092915050565b6000611ece601d836123eb565b9150611ed98261260f565b602082019050919050565b6000611ef16023836123eb565b9150611efc82612638565b604082019050919050565b6000611f146014836123eb565b9150611f1f82612687565b602082019050919050565b6000611f376022836123eb565b9150611f42826126b0565b604082019050919050565b6000611f5a6026836123eb565b9150611f65826126ff565b604082019050919050565b6000611f7d6022836123eb565b9150611f888261274e565b604082019050919050565b6000611fa06026836123eb565b9150611fab8261279d565b604082019050919050565b6000611fc36010836123eb565b9150611fce826127ec565b602082019050919050565b6000611fe66028836123eb565b9150611ff182612815565b604082019050919050565b60006120096020836123eb565b915061201482612864565b602082019050919050565b600061202c6024836123eb565b91506120378261288d565b604082019050919050565b600061204f6021836123eb565b915061205a826128dc565b604082019050919050565b60006120726025836123eb565b915061207d8261292b565b604082019050919050565b60006120956024836123eb565b91506120a08261297a565b604082019050919050565b60006120b86016836123eb565b91506120c3826129c9565b602082019050919050565b60006120db6025836123eb565b91506120e6826129f2565b604082019050919050565b60006120fe601f836123eb565b915061210982612a41565b602082019050919050565b61211d816124f5565b82525050565b61212c816124ff565b82525050565b60006020820190506121476000830184611e6a565b92915050565b60006020820190506121626000830184611e79565b92915050565b600060208201905081810360008301526121828184611e88565b905092915050565b600060208201905081810360008301526121a381611ec1565b9050919050565b600060208201905081810360008301526121c381611ee4565b9050919050565b600060208201905081810360008301526121e381611f07565b9050919050565b6000602082019050818103600083015261220381611f2a565b9050919050565b6000602082019050818103600083015261222381611f4d565b9050919050565b6000602082019050818103600083015261224381611f70565b9050919050565b6000602082019050818103600083015261226381611f93565b9050919050565b6000602082019050818103600083015261228381611fb6565b9050919050565b600060208201905081810360008301526122a381611fd9565b9050919050565b600060208201905081810360008301526122c381611ffc565b9050919050565b600060208201905081810360008301526122e38161201f565b9050919050565b6000602082019050818103600083015261230381612042565b9050919050565b6000602082019050818103600083015261232381612065565b9050919050565b6000602082019050818103600083015261234381612088565b9050919050565b60006020820190508181036000830152612363816120ab565b9050919050565b60006020820190508181036000830152612383816120ce565b9050919050565b600060208201905081810360008301526123a3816120f1565b9050919050565b60006020820190506123bf6000830184612114565b92915050565b60006020820190506123da6000830184612123565b92915050565b600081519050919050565b600082825260208201905092915050565b6000612407826124f5565b9150612412836124f5565b9250827fffffffffffffffffffffffffffffffffffffffffffffffffffffffffffffffff0382111561244757612446612571565b5b828201905092915050565b600061245d826124f5565b9150612468836124f5565b925082612478576124776125a0565b5b828204905092915050565b600061248e826124f5565b9150612499836124f5565b9250828210156124ac576124ab612571565b5b828203905092915050565b60006124c2826124d5565b9050919050565b60008115159050919050565b600073ffffffffffffffffffffffffffffffffffffffff82169050919050565b6000819050919050565b600060ff82169050919050565b60005b8381101561252a57808201518184015260208101905061250f565b83811115612539576000848401525b50505050565b6000600282049050600182168061255757607f821691505b6020821081141561256b5761256a6125cf565b5b50919050565b7f4e487b7100000000000000000000000000000000000000000000000000000000600052601160045260246000fd5b7f4e487b7100000000000000000000000000000000000000000000000000000000600052601260045260246000fd5b7f4e487b7100000000000000000000000000000000000000000000000000000000600052602260045260246000fd5b6000601f19601f8301169050919050565b7f4552433230536e617073686f743a206e6f6e6578697374656e74206964000000600082015250565b7f45524332303a207472616e7366657220746f20746865207a65726f206164647260008201527f6573730000000000000000000000000000000000000000000000000000000000602082015250565b7f5061757361626c653a206e6f7420706175736564000000000000000000000000600082015250565b7f45524332303a206275726e20616d6f756e7420657863656564732062616c616e60008201527f6365000000000000000000000000000000000000000000000000000000000000602082015250565b7f4f776e61626c653a206e6577206f776e657220697320746865207a65726f206160008201527f6464726573730000000000000000000000000000000000000000000000000000602082015250565b7f45524332303a20617070726f766520746f20746865207a65726f20616464726560008201527f7373000000000000000000000000000000000000000000000000000000000000602082015250565b7f45524332303a207472616e7366657220616d6f756e742065786365656473206260008201527f616c616e63650000000000000000000000000000000000000000000000000000602082015250565b7f5061757361626c653a2070617573656400000000000000000000000000000000600082015250565b7f45524332303a207472616e7366657220616d6f756e742065786365656473206160008201527f6c6c6f77616e6365000000000000000000000000000000000000000000000000602082015250565b7f4f776e61626c653a2063616c6c6572206973206e6f7420746865206f776e6572600082015250565b7f45524332303a206275726e20616d6f756e74206578636565647320616c6c6f7760008201527f616e636500000000000000000000000000000000000000000000000000000000602082015250565b7f45524332303a206275726e2066726f6d20746865207a65726f2061646472657360008201527f7300000000000000000000000000000000000000000000000000000000000000602082015250565b7f45524332303a207472616e736665722066726f6d20746865207a65726f20616460008201527f6472657373000000000000000000000000000000000000000000000000000000602082015250565b7f45524332303a20617070726f76652066726f6d20746865207a65726f2061646460008201527f7265737300000000000000000000000000000000000000000000000000000000602082015250565b7f4552433230536e617073686f743a206964206973203000000000000000000000600082015250565b7f45524332303a2064656372656173656420616c6c6f77616e63652062656c6f7760008201527f207a65726f000000000000000000000000000000000000000000000000000000602082015250565b7f45524332303a206d696e7420746f20746865207a65726f206164647265737300600082015250565b612a73816124b7565b8114612a7e57600080fd5b50565b612a8a816124f5565b8114612a9557600080fd5b5056fea2646970667358221220ac7572f4a51b016f40ae93cb65a6679d5462123c0bf2ddd41ae3ae8bd13ba89964736f6c63430008020033",
  "immutableReferences": {},
  "source": "// contracts/RCsH.sol\n// SPDX-License-Identifier: MIT\npragma solidity ^0.8.2;\n\nimport \"@openzeppelin/contracts/token/ERC20/ERC20.sol\";\nimport \"@openzeppelin/contracts/token/ERC20/extensions/ERC20Burnable.sol\";\nimport \"@openzeppelin/contracts/token/ERC20/extensions/ERC20Snapshot.sol\";\nimport \"@openzeppelin/contracts/access/Ownable.sol\";\nimport \"@openzeppelin/contracts/security/Pausable.sol\";\n\ncontract BotCash is ERC20, ERC20Burnable, ERC20Snapshot, Ownable, Pausable {\n    constructor() ERC20(\"BotCash\", \"BCsH\") {\n        _mint(msg.sender, 10000000 * 10 ** decimals());\n    }\n\n    function snapshot() public onlyOwner {\n        _snapshot();\n    }\n\n    function pause() public onlyOwner {\n        _pause();\n    }\n\n    function unpause() public onlyOwner {\n        _unpause();\n    }\n\n    function mint(address to, uint256 amount) public onlyOwner {\n        _mint(to, amount);\n    }\n\n    function _beforeTokenTransfer(address from, address to, uint256 amount)\n        internal\n        whenNotPaused\n        override(ERC20, ERC20Snapshot)\n    {\n        super._beforeTokenTransfer(from, to, amount);\n    }\n}\n",
  "sourcePath": "/home/seandevs/workspaces/celo-hackathon/nfts/robots/contracts/RCsH.sol",
  "compiler": {
    "name": "solc",
    "version": "0.8.2+commit.661d1103.Emscripten.clang"
  },
  "schemaVersion": "3.4.1",
  "updatedAt": "2021-11-27T00:20:19.188Z",
  "networkType": "ethereum",
  "devdoc": {
    "kind": "dev",
    "methods": {
      "allowance(address,address)": {
        "details": "See {IERC20-allowance}."
      },
      "approve(address,uint256)": {
        "details": "See {IERC20-approve}. Requirements: - `spender` cannot be the zero address."
      },
      "balanceOf(address)": {
        "details": "See {IERC20-balanceOf}."
      },
      "balanceOfAt(address,uint256)": {
        "details": "Retrieves the balance of `account` at the time `snapshotId` was created."
      },
      "burn(uint256)": {
        "details": "Destroys `amount` tokens from the caller. See {ERC20-_burn}."
      },
      "burnFrom(address,uint256)": {
        "details": "Destroys `amount` tokens from `account`, deducting from the caller's allowance. See {ERC20-_burn} and {ERC20-allowance}. Requirements: - the caller must have allowance for ``accounts``'s tokens of at least `amount`."
      },
      "decimals()": {
        "details": "Returns the number of decimals used to get its user representation. For example, if `decimals` equals `2`, a balance of `505` tokens should be displayed to a user as `5.05` (`505 / 10 ** 2`). Tokens usually opt for a value of 18, imitating the relationship between Ether and Wei. This is the value {ERC20} uses, unless this function is overridden; NOTE: This information is only used for _display_ purposes: it in no way affects any of the arithmetic of the contract, including {IERC20-balanceOf} and {IERC20-transfer}."
      },
      "decreaseAllowance(address,uint256)": {
        "details": "Atomically decreases the allowance granted to `spender` by the caller. This is an alternative to {approve} that can be used as a mitigation for problems described in {IERC20-approve}. Emits an {Approval} event indicating the updated allowance. Requirements: - `spender` cannot be the zero address. - `spender` must have allowance for the caller of at least `subtractedValue`."
      },
      "increaseAllowance(address,uint256)": {
        "details": "Atomically increases the allowance granted to `spender` by the caller. This is an alternative to {approve} that can be used as a mitigation for problems described in {IERC20-approve}. Emits an {Approval} event indicating the updated allowance. Requirements: - `spender` cannot be the zero address."
      },
      "name()": {
        "details": "Returns the name of the token."
      },
      "owner()": {
        "details": "Returns the address of the current owner."
      },
      "paused()": {
        "details": "Returns true if the contract is paused, and false otherwise."
      },
      "renounceOwnership()": {
        "details": "Leaves the contract without owner. It will not be possible to call `onlyOwner` functions anymore. Can only be called by the current owner. NOTE: Renouncing ownership will leave the contract without an owner, thereby removing any functionality that is only available to the owner."
      },
      "symbol()": {
        "details": "Returns the symbol of the token, usually a shorter version of the name."
      },
      "totalSupply()": {
        "details": "See {IERC20-totalSupply}."
      },
      "totalSupplyAt(uint256)": {
        "details": "Retrieves the total supply at the time `snapshotId` was created."
      },
      "transfer(address,uint256)": {
        "details": "See {IERC20-transfer}. Requirements: - `recipient` cannot be the zero address. - the caller must have a balance of at least `amount`."
      },
      "transferFrom(address,address,uint256)": {
        "details": "See {IERC20-transferFrom}. Emits an {Approval} event indicating the updated allowance. This is not required by the EIP. See the note at the beginning of {ERC20}. Requirements: - `sender` and `recipient` cannot be the zero address. - `sender` must have a balance of at least `amount`. - the caller must have allowance for ``sender``'s tokens of at least `amount`."
      },
      "transferOwnership(address)": {
        "details": "Transfers ownership of the contract to a new account (`newOwner`). Can only be called by the current owner."
      }
    },
    "version": 1
  },
  "userdoc": {
    "kind": "user",
    "methods": {},
    "version": 1
  }
}