{
  "contractName": "BotMarket",
  "abi": [
    {
      "inputs": [
        {
          "internalType": "address payable",
          "name": "wallet",
          "type": "address"
        },
        {
          "internalType": "contract IERC1155",
          "name": "accessory",
          "type": "address"
        }
      ],
      "stateMutability": "nonpayable",
      "type": "constructor"
    },
    {
      "anonymous": false,
      "inputs": [
        {
          "indexed": false,
          "internalType": "uint256",
          "name": "clazz",
          "type": "uint256"
        },
        {
          "indexed": false,
          "internalType": "uint256",
          "name": "price",
          "type": "uint256"
        }
      ],
      "name": "AccessoryListed",
      "type": "event"
    },
    {
      "anonymous": false,
      "inputs": [
        {
          "indexed": true,
          "internalType": "address",
          "name": "purchaser",
          "type": "address"
        },
        {
          "indexed": true,
          "internalType": "address",
          "name": "beneficiary",
          "type": "address"
        },
        {
          "indexed": false,
          "internalType": "uint256",
          "name": "value",
          "type": "uint256"
        }
      ],
      "name": "AccessoryPurchased",
      "type": "event"
    },
    {
      "anonymous": false,
      "inputs": [
        {
          "indexed": true,
          "internalType": "address",
          "name": "previousOwner",
          "type": "address"
        },
        {
          "indexed": true,
          "internalType": "address",
          "name": "newOwner",
          "type": "address"
        }
      ],
      "name": "OwnershipTransferred",
      "type": "event"
    },
    {
      "anonymous": false,
      "inputs": [
        {
          "indexed": false,
          "internalType": "address",
          "name": "account",
          "type": "address"
        }
      ],
      "name": "Paused",
      "type": "event"
    },
    {
      "anonymous": false,
      "inputs": [
        {
          "indexed": false,
          "internalType": "address",
          "name": "account",
          "type": "address"
        }
      ],
      "name": "Unpaused",
      "type": "event"
    },
    {
      "inputs": [
        {
          "internalType": "uint256",
          "name": "",
          "type": "uint256"
        }
      ],
      "name": "accessories",
      "outputs": [
        {
          "internalType": "bool",
          "name": "isForSale",
          "type": "bool"
        },
        {
          "internalType": "uint256",
          "name": "price",
          "type": "uint256"
        }
      ],
      "stateMutability": "view",
      "type": "function",
      "constant": true
    },
    {
      "inputs": [
        {
          "internalType": "address",
          "name": "",
          "type": "address"
        },
        {
          "internalType": "address",
          "name": "",
          "type": "address"
        },
        {
          "internalType": "uint256[]",
          "name": "",
          "type": "uint256[]"
        },
        {
          "internalType": "uint256[]",
          "name": "",
          "type": "uint256[]"
        },
        {
          "internalType": "bytes",
          "name": "",
          "type": "bytes"
        }
      ],
      "name": "onERC1155BatchReceived",
      "outputs": [
        {
          "internalType": "bytes4",
          "name": "",
          "type": "bytes4"
        }
      ],
      "stateMutability": "nonpayable",
      "type": "function"
    },
    {
      "inputs": [
        {
          "internalType": "address",
          "name": "",
          "type": "address"
        },
        {
          "internalType": "address",
          "name": "",
          "type": "address"
        },
        {
          "internalType": "uint256",
          "name": "",
          "type": "uint256"
        },
        {
          "internalType": "uint256",
          "name": "",
          "type": "uint256"
        },
        {
          "internalType": "bytes",
          "name": "",
          "type": "bytes"
        }
      ],
      "name": "onERC1155Received",
      "outputs": [
        {
          "internalType": "bytes4",
          "name": "",
          "type": "bytes4"
        }
      ],
      "stateMutability": "nonpayable",
      "type": "function"
    },
    {
      "inputs": [],
      "name": "owner",
      "outputs": [
        {
          "internalType": "address",
          "name": "",
          "type": "address"
        }
      ],
      "stateMutability": "view",
      "type": "function",
      "constant": true
    },
    {
      "inputs": [],
      "name": "paused",
      "outputs": [
        {
          "internalType": "bool",
          "name": "",
          "type": "bool"
        }
      ],
      "stateMutability": "view",
      "type": "function",
      "constant": true
    },
    {
      "inputs": [],
      "name": "renounceOwnership",
      "outputs": [],
      "stateMutability": "nonpayable",
      "type": "function"
    },
    {
      "inputs": [
        {
          "internalType": "bytes4",
          "name": "interfaceId",
          "type": "bytes4"
        }
      ],
      "name": "supportsInterface",
      "outputs": [
        {
          "internalType": "bool",
          "name": "",
          "type": "bool"
        }
      ],
      "stateMutability": "view",
      "type": "function",
      "constant": true
    },
    {
      "inputs": [
        {
          "internalType": "address",
          "name": "newOwner",
          "type": "address"
        }
      ],
      "name": "transferOwnership",
      "outputs": [],
      "stateMutability": "nonpayable",
      "type": "function"
    },
    {
      "stateMutability": "payable",
      "type": "receive",
      "payable": true
    },
    {
      "inputs": [],
      "name": "getAccessory",
      "outputs": [
        {
          "internalType": "contract IERC1155",
          "name": "",
          "type": "address"
        }
      ],
      "stateMutability": "view",
      "type": "function",
      "constant": true
    },
    {
      "inputs": [],
      "name": "getWallet",
      "outputs": [
        {
          "internalType": "address payable",
          "name": "",
          "type": "address"
        }
      ],
      "stateMutability": "view",
      "type": "function",
      "constant": true
    },
    {
      "inputs": [
        {
          "internalType": "address",
          "name": "beneficiary",
          "type": "address"
        },
        {
          "internalType": "uint256",
          "name": "clazz",
          "type": "uint256"
        }
      ],
      "name": "purchaseAccessory",
      "outputs": [],
      "stateMutability": "payable",
      "type": "function",
      "payable": true
    },
    {
      "inputs": [
        {
          "internalType": "uint256",
          "name": "clazz",
          "type": "uint256"
        },
        {
          "internalType": "uint256",
          "name": "price",
          "type": "uint256"
        }
      ],
      "name": "listAccessory",
      "outputs": [],
      "stateMutability": "nonpayable",
      "type": "function"
    },
    {
      "inputs": [
        {
          "internalType": "uint256",
          "name": "clazz",
          "type": "uint256"
        }
      ],
      "name": "delistAccessory",
      "outputs": [],
      "stateMutability": "nonpayable",
      "type": "function"
    },
    {
      "inputs": [
        {
          "internalType": "uint256",
          "name": "clazz",
          "type": "uint256"
        },
        {
          "internalType": "bool",
          "name": "isForSale",
          "type": "bool"
        }
      ],
      "name": "setAccessoryForSale",
      "outputs": [],
      "stateMutability": "nonpayable",
      "type": "function"
    },
    {
      "inputs": [
        {
          "internalType": "uint256",
          "name": "clazz",
          "type": "uint256"
        },
        {
          "internalType": "uint256",
          "name": "price",
          "type": "uint256"
        }
      ],
      "name": "setAccessoryPrice",
      "outputs": [],
      "stateMutability": "nonpayable",
      "type": "function"
    },
    {
      "inputs": [],
      "name": "withdrawAll",
      "outputs": [],
      "stateMutability": "payable",
      "type": "function",
      "payable": true
    }
  ],
  "bytecode": "0x60806040523480156200001157600080fd5b5060405162002207380380620022078339818101604052810190620000379190620002e3565b60016000819055506000600160006101000a81548160ff0219169083151502179055506200007a6200006e620001ea60201b60201c565b620001f260201b60201c565b600073ffffffffffffffffffffffffffffffffffffffff168273ffffffffffffffffffffffffffffffffffffffff161415620000ed576040517f08c379a0000000000000000000000000000000000000000000000000000000008152600401620000e49062000372565b60405180910390fd5b600073ffffffffffffffffffffffffffffffffffffffff168173ffffffffffffffffffffffffffffffffffffffff16141562000160576040517f08c379a0000000000000000000000000000000000000000000000000000000008152600401620001579062000394565b60405180910390fd5b81600360006101000a81548173ffffffffffffffffffffffffffffffffffffffff021916908373ffffffffffffffffffffffffffffffffffffffff16021790555080600260006101000a81548173ffffffffffffffffffffffffffffffffffffffff021916908373ffffffffffffffffffffffffffffffffffffffff1602179055505050620004f5565b600033905090565b600060018054906101000a900473ffffffffffffffffffffffffffffffffffffffff169050816001806101000a81548173ffffffffffffffffffffffffffffffffffffffff021916908373ffffffffffffffffffffffffffffffffffffffff1602179055508173ffffffffffffffffffffffffffffffffffffffff168173ffffffffffffffffffffffffffffffffffffffff167f8be0079c531659141344cd1fd0a4f28419497f9722a3daafe3b4186f6b6457e060405160405180910390a35050565b600081519050620002c681620004c1565b92915050565b600081519050620002dd81620004db565b92915050565b60008060408385031215620002f757600080fd5b60006200030785828601620002b5565b92505060206200031a85828601620002cc565b9150509250929050565b600062000333602583620003b6565b9150620003408262000423565b604082019050919050565b60006200035a602883620003b6565b9150620003678262000472565b604082019050919050565b600060208201905081810360008301526200038d8162000324565b9050919050565b60006020820190508181036000830152620003af816200034b565b9050919050565b600082825260208201905092915050565b6000620003d48262000403565b9050919050565b6000620003e88262000403565b9050919050565b6000620003fc82620003c7565b9050919050565b600073ffffffffffffffffffffffffffffffffffffffff82169050919050565b7f426f744d61726b65743a2077616c6c657420697320746865207a65726f20616460008201527f6472657373000000000000000000000000000000000000000000000000000000602082015250565b7f426f744d61726b65743a206163636573736f727920697320746865207a65726f60008201527f2061646472657373000000000000000000000000000000000000000000000000602082015250565b620004cc81620003db565b8114620004d857600080fd5b50565b620004e681620003ef565b8114620004f257600080fd5b50565b611d0280620005056000396000f3fe6080604052600436106100f75760003560e01c8063853828b61161008a578063bc197c8111610059578063bc197c81146102f4578063ca23b6ee14610331578063f23a6e611461035a578063f2fde38b1461039757610110565b8063853828b6146102785780638da5cb5b146102825780639064dc13146102ad578063ae6778d1146102d857610110565b806347ef2b36116100c657806347ef2b36146101cf5780635c975abb146101f8578063715018a6146102235780637ca942101461023a57610110565b806301ffc9a7146101155780630be7135714610152578063132996041461017b57806344059d9b146101a657610110565b366101105761010e6101076103c0565b60016103c8565b005b600080fd5b34801561012157600080fd5b5061013c60048036038101906101379190611381565b61058d565b604051610149919061167d565b60405180910390f35b34801561015e57600080fd5b506101796004803603810190610174919061140f565b610607565b005b34801561018757600080fd5b50610190610760565b60405161019d919061160a565b60405180910390f35b3480156101b257600080fd5b506101cd60048036038101906101c891906113aa565b61078a565b005b3480156101db57600080fd5b506101f660048036038101906101f1919061140f565b61085c565b005b34801561020457600080fd5b5061020d61093f565b60405161021a919061167d565b60405180910390f35b34801561022f57600080fd5b50610238610956565b005b34801561024657600080fd5b50610261600480360381019061025c91906113aa565b6109de565b60405161026f929190611698565b60405180910390f35b610280610a0f565b005b34801561028e57600080fd5b50610297610aed565b6040516102a491906115ef565b60405180910390f35b3480156102b957600080fd5b506102c2610b15565b6040516102cf91906116dc565b60405180910390f35b6102f260048036038101906102ed9190611345565b6103c8565b005b34801561030057600080fd5b5061031b600480360381019061031691906111f7565b610b3f565b60405161032891906116c1565b60405180910390f35b34801561033d57600080fd5b50610358600480360381019061035391906113d3565b610b54565b005b34801561036657600080fd5b50610381600480360381019061037c91906112b6565b610ca3565b60405161038e91906116c1565b60405180910390f35b3480156103a357600080fd5b506103be60048036038101906103b991906111ce565b610cb8565b005b600033905090565b6002600054141561040e576040517f08c379a0000000000000000000000000000000000000000000000000000000008152600401610405906117d7565b60405180910390fd5b600260008190555061041e61093f565b1561045e576040517f08c379a000000000000000000000000000000000000000000000000000000000815260040161045590611737565b60405180910390fd5b600260005414156104a4576040517f08c379a000000000000000000000000000000000000000000000000000000000815260040161049b906117d7565b60405180910390fd5b6002600081905550600060046000838152602001908152602001600020600101549050600034905060006004600085815260200190815260200160002060000160009054906101000a900460ff16905061050085838584610db0565b61050a8585610ea9565b8473ffffffffffffffffffffffffffffffffffffffff166105296103c0565b73ffffffffffffffffffffffffffffffffffffffff167fe0cc08cd6445055fb96ba62706d6598dd171f8a45e41f20be587f05446c958298560405161056e91906117f7565b60405180910390a3505050600160008190555060016000819055505050565b60007f4e2312e0000000000000000000000000000000000000000000000000000000007bffffffffffffffffffffffffffffffffffffffffffffffffffffffff1916827bffffffffffffffffffffffffffffffffffffffffffffffffffffffff1916148061060057506105ff82610eb7565b5b9050919050565b61060f61093f565b1561064f576040517f08c379a000000000000000000000000000000000000000000000000000000000815260040161064690611737565b60405180910390fd5b6106576103c0565b73ffffffffffffffffffffffffffffffffffffffff16610675610aed565b73ffffffffffffffffffffffffffffffffffffffff16146106cb576040517f08c379a00000000000000000000000000000000000000000000000000000000081526004016106c290611777565b60405180910390fd5b6000811161070e576040517f08c379a000000000000000000000000000000000000000000000000000000000815260040161070590611757565b60405180910390fd5b610718828261085c565b610723826001610b54565b7f8b150673121b01316e8e9f04c655dcb53717f3ea8192a7606efea468508529348282604051610754929190611812565b60405180910390a15050565b6000600360009054906101000a900473ffffffffffffffffffffffffffffffffffffffff16905090565b61079261093f565b156107d2576040517f08c379a00000000000000000000000000000000000000000000000000000000081526004016107c990611737565b60405180910390fd5b6107da6103c0565b73ffffffffffffffffffffffffffffffffffffffff166107f8610aed565b73ffffffffffffffffffffffffffffffffffffffff161461084e576040517f08c379a000000000000000000000000000000000000000000000000000000000815260040161084590611777565b60405180910390fd5b610859816000610b54565b50565b61086461093f565b156108a4576040517f08c379a000000000000000000000000000000000000000000000000000000000815260040161089b90611737565b60405180910390fd5b6108ac6103c0565b73ffffffffffffffffffffffffffffffffffffffff166108ca610aed565b73ffffffffffffffffffffffffffffffffffffffff1614610920576040517f08c379a000000000000000000000000000000000000000000000000000000000815260040161091790611777565b60405180910390fd5b8060046000848152602001908152602001600020600101819055505050565b6000600160009054906101000a900460ff16905090565b61095e6103c0565b73ffffffffffffffffffffffffffffffffffffffff1661097c610aed565b73ffffffffffffffffffffffffffffffffffffffff16146109d2576040517f08c379a00000000000000000000000000000000000000000000000000000000081526004016109c990611777565b60405180910390fd5b6109dc6000610f21565b565b60046020528060005260406000206000915090508060000160009054906101000a900460ff16908060010154905082565b610a176103c0565b73ffffffffffffffffffffffffffffffffffffffff16610a35610aed565b73ffffffffffffffffffffffffffffffffffffffff1614610a8b576040517f08c379a0000000000000000000000000000000000000000000000000000000008152600401610a8290611777565b60405180910390fd5b600360009054906101000a900473ffffffffffffffffffffffffffffffffffffffff1673ffffffffffffffffffffffffffffffffffffffff166108fc479081150290604051600060405180830381858888f19350505050610aeb57600080fd5b565b600060018054906101000a900473ffffffffffffffffffffffffffffffffffffffff16905090565b6000600260009054906101000a900473ffffffffffffffffffffffffffffffffffffffff16905090565b600063bc197c8160e01b905095945050505050565b610b5c61093f565b15610b9c576040517f08c379a0000000000000000000000000000000000000000000000000000000008152600401610b9390611737565b60405180910390fd5b610ba46103c0565b73ffffffffffffffffffffffffffffffffffffffff16610bc2610aed565b73ffffffffffffffffffffffffffffffffffffffff1614610c18576040517f08c379a0000000000000000000000000000000000000000000000000000000008152600401610c0f90611777565b60405180910390fd5b6000600460008481526020019081526020016000206001015411610c71576040517f08c379a0000000000000000000000000000000000000000000000000000000008152600401610c6890611757565b60405180910390fd5b806004600084815260200190815260200160002060000160006101000a81548160ff0219169083151502179055505050565b600063f23a6e6160e01b905095945050505050565b610cc06103c0565b73ffffffffffffffffffffffffffffffffffffffff16610cde610aed565b73ffffffffffffffffffffffffffffffffffffffff1614610d34576040517f08c379a0000000000000000000000000000000000000000000000000000000008152600401610d2b90611777565b60405180910390fd5b600073ffffffffffffffffffffffffffffffffffffffff168173ffffffffffffffffffffffffffffffffffffffff161415610da4576040517f08c379a0000000000000000000000000000000000000000000000000000000008152600401610d9b90611717565b60405180910390fd5b610dad81610f21565b50565b80610df0576040517f08c379a0000000000000000000000000000000000000000000000000000000008152600401610de790611797565b60405180910390fd5b600073ffffffffffffffffffffffffffffffffffffffff168473ffffffffffffffffffffffffffffffffffffffff161415610e60576040517f08c379a0000000000000000000000000000000000000000000000000000000008152600401610e57906117b7565b60405180910390fd5b81831015610ea3576040517f08c379a0000000000000000000000000000000000000000000000000000000008152600401610e9a906116f7565b60405180910390fd5b50505050565b610eb38282610fe4565b5050565b60007f01ffc9a7000000000000000000000000000000000000000000000000000000007bffffffffffffffffffffffffffffffffffffffffffffffffffffffff1916827bffffffffffffffffffffffffffffffffffffffffffffffffffffffff1916149050919050565b600060018054906101000a900473ffffffffffffffffffffffffffffffffffffffff169050816001806101000a81548173ffffffffffffffffffffffffffffffffffffffff021916908373ffffffffffffffffffffffffffffffffffffffff1602179055508173ffffffffffffffffffffffffffffffffffffffff168173ffffffffffffffffffffffffffffffffffffffff167f8be0079c531659141344cd1fd0a4f28419497f9722a3daafe3b4186f6b6457e060405160405180910390a35050565b600260009054906101000a900473ffffffffffffffffffffffffffffffffffffffff1673ffffffffffffffffffffffffffffffffffffffff1663f242432a30848460016040518563ffffffff1660e01b81526004016110469493929190611625565b600060405180830381600087803b15801561106057600080fd5b505af1158015611074573d6000803e3d6000fd5b505050505050565b600061108f61108a84611860565b61183b565b905080838252602082019050828560208602820111156110ae57600080fd5b60005b858110156110de57816110c488826111b9565b8452602084019350602083019250506001810190506110b1565b5050509392505050565b60006110fb6110f68461188c565b61183b565b90508281526020810184848401111561111357600080fd5b61111e84828561199b565b509392505050565b60008135905061113581611c70565b92915050565b600082601f83011261114c57600080fd5b813561115c84826020860161107c565b91505092915050565b60008135905061117481611c87565b92915050565b60008135905061118981611c9e565b92915050565b600082601f8301126111a057600080fd5b81356111b08482602086016110e8565b91505092915050565b6000813590506111c881611cb5565b92915050565b6000602082840312156111e057600080fd5b60006111ee84828501611126565b91505092915050565b600080600080600060a0868803121561120f57600080fd5b600061121d88828901611126565b955050602061122e88828901611126565b945050604086013567ffffffffffffffff81111561124b57600080fd5b6112578882890161113b565b935050606086013567ffffffffffffffff81111561127457600080fd5b6112808882890161113b565b925050608086013567ffffffffffffffff81111561129d57600080fd5b6112a98882890161118f565b9150509295509295909350565b600080600080600060a086880312156112ce57600080fd5b60006112dc88828901611126565b95505060206112ed88828901611126565b94505060406112fe888289016111b9565b935050606061130f888289016111b9565b925050608086013567ffffffffffffffff81111561132c57600080fd5b6113388882890161118f565b9150509295509295909350565b6000806040838503121561135857600080fd5b600061136685828601611126565b9250506020611377858286016111b9565b9150509250929050565b60006020828403121561139357600080fd5b60006113a18482850161117a565b91505092915050565b6000602082840312156113bc57600080fd5b60006113ca848285016111b9565b91505092915050565b600080604083850312156113e657600080fd5b60006113f4858286016111b9565b925050602061140585828601611165565b9150509250929050565b6000806040838503121561142257600080fd5b6000611430858286016111b9565b9250506020611441858286016111b9565b9150509250929050565b611454816118f1565b82525050565b611463816118df565b82525050565b61147281611903565b82525050565b6114818161190f565b82525050565b61149081611965565b82525050565b61149f81611989565b82525050565b60006114b26043836118ce565b91506114bd82611a1b565b606082019050919050565b60006114d56026836118ce565b91506114e082611a90565b604082019050919050565b60006114f86005836118bd565b915061150382611adf565b602082019050919050565b600061151b6010836118ce565b915061152682611b08565b602082019050919050565b600061153e6029836118ce565b915061154982611b31565b604082019050919050565b60006115616020836118ce565b915061156c82611b80565b602082019050919050565b6000611584602a836118ce565b915061158f82611ba9565b604082019050919050565b60006115a7602a836118ce565b91506115b282611bf8565b604082019050919050565b60006115ca601f836118ce565b91506115d582611c47565b602082019050919050565b6115e98161195b565b82525050565b6000602082019050611604600083018461145a565b92915050565b600060208201905061161f600083018461144b565b92915050565b600060a08201905061163a600083018761145a565b611647602083018661145a565b61165460408301856115e0565b6116616060830184611496565b8181036080830152611672816114eb565b905095945050505050565b60006020820190506116926000830184611469565b92915050565b60006040820190506116ad6000830185611469565b6116ba60208301846115e0565b9392505050565b60006020820190506116d66000830184611478565b92915050565b60006020820190506116f16000830184611487565b92915050565b60006020820190508181036000830152611710816114a5565b9050919050565b60006020820190508181036000830152611730816114c8565b9050919050565b600060208201905081810360008301526117508161150e565b9050919050565b6000602082019050818103600083015261177081611531565b9050919050565b6000602082019050818103600083015261179081611554565b9050919050565b600060208201905081810360008301526117b081611577565b9050919050565b600060208201905081810360008301526117d08161159a565b9050919050565b600060208201905081810360008301526117f0816115bd565b9050919050565b600060208201905061180c60008301846115e0565b92915050565b600060408201905061182760008301856115e0565b61183460208301846115e0565b9392505050565b6000611845611856565b905061185182826119aa565b919050565b6000604051905090565b600067ffffffffffffffff82111561187b5761187a6119db565b5b602082029050602081019050919050565b600067ffffffffffffffff8211156118a7576118a66119db565b5b6118b082611a0a565b9050602081019050919050565b600082825260208201905092915050565b600082825260208201905092915050565b60006118ea8261193b565b9050919050565b60006118fc8261193b565b9050919050565b60008115159050919050565b60007fffffffff0000000000000000000000000000000000000000000000000000000082169050919050565b600073ffffffffffffffffffffffffffffffffffffffff82169050919050565b6000819050919050565b600061197082611977565b9050919050565b60006119828261193b565b9050919050565b60006119948261195b565b9050919050565b82818337600083830152505050565b6119b382611a0a565b810181811067ffffffffffffffff821117156119d2576119d16119db565b5b80604052505050565b7f4e487b7100000000000000000000000000000000000000000000000000000000600052604160045260246000fd5b6000601f19601f8301169050919050565b7f43726f776473616c653a207061796d656e74206d75737420626520636f72726560008201527f637420616d6f756e7420666f722070757263686173696e67206163636573736f60208201527f72792e0000000000000000000000000000000000000000000000000000000000604082015250565b7f4f776e61626c653a206e6577206f776e657220697320746865207a65726f206160008201527f6464726573730000000000000000000000000000000000000000000000000000602082015250565b7f3078303030000000000000000000000000000000000000000000000000000000600082015250565b7f5061757361626c653a2070617573656400000000000000000000000000000000600082015250565b7f5072696365206f66206163636573736f7279206d75737420626520677265617460008201527f6572207468616e20300000000000000000000000000000000000000000000000602082015250565b7f4f776e61626c653a2063616c6c6572206973206e6f7420746865206f776e6572600082015250565b7f43726f776473616c653a2074686973206163636573736f7279206973206e6f7460008201527f20666f722073616c652e00000000000000000000000000000000000000000000602082015250565b7f43726f776473616c653a2062656e656669636961727920697320746865207a6560008201527f726f206164647265737300000000000000000000000000000000000000000000602082015250565b7f5265656e7472616e637947756172643a207265656e7472616e742063616c6c00600082015250565b611c79816118df565b8114611c8457600080fd5b50565b611c9081611903565b8114611c9b57600080fd5b50565b611ca78161190f565b8114611cb257600080fd5b50565b611cbe8161195b565b8114611cc957600080fd5b5056fea2646970667358221220fa9f6b9d7be1bdab1a5867c5ed30dde87823c6dbfb4378f82dab61fb28be4c0c64736f6c63430008020033",
  "immutableReferences": {},
  "source": "// contracts/Market.sol\n// SPDX-License-Identifier: MIT OR Apache-2.0\npragma solidity ^0.8.2;\n\nimport \"@openzeppelin/contracts/security/ReentrancyGuard.sol\";\nimport \"@openzeppelin/contracts/token/ERC1155/IERC1155.sol\";\nimport \"@openzeppelin/contracts/token/ERC1155/utils/ERC1155Holder.sol\";\nimport \"@openzeppelin/contracts/utils/math/SafeMath.sol\";\nimport \"@openzeppelin/contracts/security/Pausable.sol\";\nimport \"@openzeppelin/contracts/access/Ownable.sol\";\nimport \"@openzeppelin/contracts/utils/Context.sol\";\n\ncontract BotMarket is Context, ReentrancyGuard, ERC1155Holder, Pausable, Ownable {\n\n    using SafeMath for uint256;\n\n    // The accessory being sold\n    IERC1155 private _accessory;\n\n    // Address where funds are collected\n    address payable private _wallet;\n\n    mapping(uint256 => Accessory) public accessories;\n\n    struct Accessory {\n        bool isForSale;\n        uint256 price;\n    }\n\n    event AccessoryListed (uint256 clazz, uint256 price);\n    event AccessoryPurchased(address indexed purchaser, address indexed beneficiary, uint256 value);\n\n\n    constructor (address payable wallet, IERC1155 accessory) {\n        require(wallet != address(0), \"BotMarket: wallet is the zero address\");\n        require(address(accessory) != address(0), \"BotMarket: accessory is the zero address\");\n\n        _wallet = wallet;\n        _accessory = accessory;\n    }\n\n    // /**\n    //  * @dev fallback function ***DO NOT OVERRIDE***\n    //  */\n    receive () external payable {\n        purchaseAccessory(_msgSender(), 1); // default to clazz 1\n    }\n\n    function getAccessory() public view returns (IERC1155) {\n        return _accessory;\n    }\n\n    function getWallet() public view returns (address payable) {\n        return _wallet;\n    }\n\n    function purchaseAccessory(address beneficiary, uint256 clazz) public nonReentrant whenNotPaused nonReentrant payable {\n        uint256 price = accessories[clazz].price;\n        uint256 payment = msg.value;\n        bool isForSale = accessories[clazz].isForSale;\n\n        _preValidatePurchase(beneficiary, payment, price, isForSale);\n\n        _processPurchase(beneficiary, clazz);\n        emit AccessoryPurchased(_msgSender(), beneficiary, price);\n    }\n\n    function _preValidatePurchase(address beneficiary, uint256 payment, uint256 price, bool isForSale) internal view virtual {\n        require(isForSale, \"Crowdsale: this accessory is not for sale.\");\n        require(beneficiary != address(0), \"Crowdsale: beneficiary is the zero address\");\n        require(payment >= price, \"Crowdsale: payment must be correct amount for purchasing accessory.\");\n        this; // silence state mutability warning without generating bytecode - see https://github.com/ethereum/solidity/issues/2691\n    }\n\n    function _deliverAccessory(address beneficiary, uint256 clazz) internal virtual {\n        _accessory.safeTransferFrom(address(this), beneficiary, clazz, 1, \"0x000\");\n    }\n\n    function _processPurchase(address beneficiary, uint256 clazz) internal virtual {\n        _deliverAccessory(beneficiary, clazz);\n    }\n\n    function listAccessory(uint256 clazz, uint256 price) public whenNotPaused onlyOwner {\n        require(price > 0, \"Price of accessory must be greater than 0\");\n        setAccessoryPrice(clazz, price);\n        setAccessoryForSale(clazz, true);\n\n        emit AccessoryListed(clazz, price);\n    }\n\n    function delistAccessory(uint256 clazz) public whenNotPaused onlyOwner {\n        setAccessoryForSale(clazz, false);\n    }\n\n    function setAccessoryForSale(uint256 clazz, bool isForSale) public whenNotPaused onlyOwner {\n        require(accessories[clazz].price > 0, \"Price of accessory must be greater than 0\");\n        accessories[clazz].isForSale = isForSale;\n    }\n\n    function setAccessoryPrice(uint256 clazz, uint256 price) public whenNotPaused onlyOwner {\n        accessories[clazz].price = price;\n    }\n\n    function withdrawAll() public payable onlyOwner {\n        require(_wallet.send(address(this).balance));\n    }\n}\n",
  "sourcePath": "/home/seandevs/workspaces/celo-hackathon/nfts/robots/contracts/BotMarket.sol",
  "compiler": {
    "name": "solc",
    "version": "0.8.2+commit.661d1103.Emscripten.clang"
  },
  "schemaVersion": "3.4.1",
  "updatedAt": "2021-11-15T17:13:05.169Z",
  "networkType": "ethereum",
  "devdoc": {
    "kind": "dev",
    "methods": {
      "owner()": {
        "details": "Returns the address of the current owner."
      },
      "paused()": {
        "details": "Returns true if the contract is paused, and false otherwise."
      },
      "renounceOwnership()": {
        "details": "Leaves the contract without owner. It will not be possible to call `onlyOwner` functions anymore. Can only be called by the current owner. NOTE: Renouncing ownership will leave the contract without an owner, thereby removing any functionality that is only available to the owner."
      },
      "supportsInterface(bytes4)": {
        "details": "See {IERC165-supportsInterface}."
      },
      "transferOwnership(address)": {
        "details": "Transfers ownership of the contract to a new account (`newOwner`). Can only be called by the current owner."
      }
    },
    "version": 1
  },
  "userdoc": {
    "kind": "user",
    "methods": {},
    "version": 1
  }
}