{
  "contractName": "BotMarket",
  "abi": [
    {
      "inputs": [
        {
          "internalType": "address payable",
          "name": "wallet",
          "type": "address"
        },
        {
          "internalType": "contract IERC1155",
          "name": "accessory",
          "type": "address"
        }
      ],
      "stateMutability": "nonpayable",
      "type": "constructor"
    },
    {
      "anonymous": false,
      "inputs": [
        {
          "indexed": false,
          "internalType": "uint256",
          "name": "clazz",
          "type": "uint256"
        },
        {
          "indexed": false,
          "internalType": "uint256",
          "name": "price",
          "type": "uint256"
        }
      ],
      "name": "AccessoryListed",
      "type": "event"
    },
    {
      "anonymous": false,
      "inputs": [
        {
          "indexed": true,
          "internalType": "address",
          "name": "purchaser",
          "type": "address"
        },
        {
          "indexed": true,
          "internalType": "address",
          "name": "beneficiary",
          "type": "address"
        },
        {
          "indexed": false,
          "internalType": "uint256",
          "name": "value",
          "type": "uint256"
        }
      ],
      "name": "AccessoryPurchased",
      "type": "event"
    },
    {
      "anonymous": false,
      "inputs": [
        {
          "indexed": true,
          "internalType": "address",
          "name": "previousOwner",
          "type": "address"
        },
        {
          "indexed": true,
          "internalType": "address",
          "name": "newOwner",
          "type": "address"
        }
      ],
      "name": "OwnershipTransferred",
      "type": "event"
    },
    {
      "anonymous": false,
      "inputs": [
        {
          "indexed": false,
          "internalType": "address",
          "name": "account",
          "type": "address"
        }
      ],
      "name": "Paused",
      "type": "event"
    },
    {
      "anonymous": false,
      "inputs": [
        {
          "indexed": false,
          "internalType": "address",
          "name": "account",
          "type": "address"
        }
      ],
      "name": "Unpaused",
      "type": "event"
    },
    {
      "inputs": [
        {
          "internalType": "address",
          "name": "",
          "type": "address"
        },
        {
          "internalType": "address",
          "name": "",
          "type": "address"
        },
        {
          "internalType": "uint256[]",
          "name": "",
          "type": "uint256[]"
        },
        {
          "internalType": "uint256[]",
          "name": "",
          "type": "uint256[]"
        },
        {
          "internalType": "bytes",
          "name": "",
          "type": "bytes"
        }
      ],
      "name": "onERC1155BatchReceived",
      "outputs": [
        {
          "internalType": "bytes4",
          "name": "",
          "type": "bytes4"
        }
      ],
      "stateMutability": "nonpayable",
      "type": "function"
    },
    {
      "inputs": [
        {
          "internalType": "address",
          "name": "",
          "type": "address"
        },
        {
          "internalType": "address",
          "name": "",
          "type": "address"
        },
        {
          "internalType": "uint256",
          "name": "",
          "type": "uint256"
        },
        {
          "internalType": "uint256",
          "name": "",
          "type": "uint256"
        },
        {
          "internalType": "bytes",
          "name": "",
          "type": "bytes"
        }
      ],
      "name": "onERC1155Received",
      "outputs": [
        {
          "internalType": "bytes4",
          "name": "",
          "type": "bytes4"
        }
      ],
      "stateMutability": "nonpayable",
      "type": "function"
    },
    {
      "inputs": [],
      "name": "owner",
      "outputs": [
        {
          "internalType": "address",
          "name": "",
          "type": "address"
        }
      ],
      "stateMutability": "view",
      "type": "function",
      "constant": true
    },
    {
      "inputs": [],
      "name": "paused",
      "outputs": [
        {
          "internalType": "bool",
          "name": "",
          "type": "bool"
        }
      ],
      "stateMutability": "view",
      "type": "function",
      "constant": true
    },
    {
      "inputs": [],
      "name": "renounceOwnership",
      "outputs": [],
      "stateMutability": "nonpayable",
      "type": "function"
    },
    {
      "inputs": [
        {
          "internalType": "bytes4",
          "name": "interfaceId",
          "type": "bytes4"
        }
      ],
      "name": "supportsInterface",
      "outputs": [
        {
          "internalType": "bool",
          "name": "",
          "type": "bool"
        }
      ],
      "stateMutability": "view",
      "type": "function",
      "constant": true
    },
    {
      "inputs": [
        {
          "internalType": "address",
          "name": "newOwner",
          "type": "address"
        }
      ],
      "name": "transferOwnership",
      "outputs": [],
      "stateMutability": "nonpayable",
      "type": "function"
    },
    {
      "stateMutability": "payable",
      "type": "receive",
      "payable": true
    },
    {
      "inputs": [],
      "name": "getAccessory",
      "outputs": [
        {
          "internalType": "contract IERC1155",
          "name": "",
          "type": "address"
        }
      ],
      "stateMutability": "view",
      "type": "function",
      "constant": true
    },
    {
      "inputs": [],
      "name": "getWallet",
      "outputs": [
        {
          "internalType": "address payable",
          "name": "",
          "type": "address"
        }
      ],
      "stateMutability": "view",
      "type": "function",
      "constant": true
    },
    {
      "inputs": [
        {
          "internalType": "address",
          "name": "beneficiary",
          "type": "address"
        },
        {
          "internalType": "uint256",
          "name": "clazz",
          "type": "uint256"
        }
      ],
      "name": "purchaseAccessory",
      "outputs": [],
      "stateMutability": "payable",
      "type": "function",
      "payable": true
    },
    {
      "inputs": [
        {
          "internalType": "uint256",
          "name": "clazz",
          "type": "uint256"
        },
        {
          "internalType": "uint256",
          "name": "price",
          "type": "uint256"
        }
      ],
      "name": "listAccessory",
      "outputs": [],
      "stateMutability": "nonpayable",
      "type": "function"
    },
    {
      "inputs": [
        {
          "internalType": "uint256",
          "name": "clazz",
          "type": "uint256"
        }
      ],
      "name": "delistAccessory",
      "outputs": [],
      "stateMutability": "nonpayable",
      "type": "function"
    }
  ],
  "bytecode": "0x60806040523480156200001157600080fd5b5060405162001ede38038062001ede8339818101604052810190620000379190620002e3565b60016000819055506000600160006101000a81548160ff0219169083151502179055506200007a6200006e620001ea60201b60201c565b620001f260201b60201c565b600073ffffffffffffffffffffffffffffffffffffffff168273ffffffffffffffffffffffffffffffffffffffff161415620000ed576040517f08c379a0000000000000000000000000000000000000000000000000000000008152600401620000e49062000372565b60405180910390fd5b600073ffffffffffffffffffffffffffffffffffffffff168173ffffffffffffffffffffffffffffffffffffffff16141562000160576040517f08c379a0000000000000000000000000000000000000000000000000000000008152600401620001579062000394565b60405180910390fd5b81600360006101000a81548173ffffffffffffffffffffffffffffffffffffffff021916908373ffffffffffffffffffffffffffffffffffffffff16021790555080600260006101000a81548173ffffffffffffffffffffffffffffffffffffffff021916908373ffffffffffffffffffffffffffffffffffffffff1602179055505050620004f5565b600033905090565b600060018054906101000a900473ffffffffffffffffffffffffffffffffffffffff169050816001806101000a81548173ffffffffffffffffffffffffffffffffffffffff021916908373ffffffffffffffffffffffffffffffffffffffff1602179055508173ffffffffffffffffffffffffffffffffffffffff168173ffffffffffffffffffffffffffffffffffffffff167f8be0079c531659141344cd1fd0a4f28419497f9722a3daafe3b4186f6b6457e060405160405180910390a35050565b600081519050620002c681620004c1565b92915050565b600081519050620002dd81620004db565b92915050565b60008060408385031215620002f757600080fd5b60006200030785828601620002b5565b92505060206200031a85828601620002cc565b9150509250929050565b600062000333602583620003b6565b9150620003408262000423565b604082019050919050565b60006200035a602883620003b6565b9150620003678262000472565b604082019050919050565b600060208201905081810360008301526200038d8162000324565b9050919050565b60006020820190508181036000830152620003af816200034b565b9050919050565b600082825260208201905092915050565b6000620003d48262000403565b9050919050565b6000620003e88262000403565b9050919050565b6000620003fc82620003c7565b9050919050565b600073ffffffffffffffffffffffffffffffffffffffff82169050919050565b7f426f744d61726b65743a2077616c6c657420697320746865207a65726f20616460008201527f6472657373000000000000000000000000000000000000000000000000000000602082015250565b7f426f744d61726b65743a206163636573736f727920697320746865207a65726f60008201527f2061646472657373000000000000000000000000000000000000000000000000602082015250565b620004cc81620003db565b8114620004d857600080fd5b50565b620004e681620003ef565b8114620004f257600080fd5b50565b6119d980620005056000396000f3fe6080604052600436106100ab5760003560e01c80638da5cb5b116100645780638da5cb5b146101c55780639064dc13146101f0578063ae6778d11461021b578063bc197c8114610237578063f23a6e6114610274578063f2fde38b146102b1576100c4565b806301ffc9a7146100c95780630be7135714610106578063132996041461012f57806344059d9b1461015a5780635c975abb14610183578063715018a6146101ae576100c4565b366100c4576100c26100bb6102da565b60016102e2565b005b600080fd5b3480156100d557600080fd5b506100f060048036038101906100eb9190611071565b61045b565b6040516100fd9190611331565b60405180910390f35b34801561011257600080fd5b5061012d600480360381019061012891906110c3565b6104d5565b005b34801561013b57600080fd5b5061014461062e565b60405161015191906112be565b60405180910390f35b34801561016657600080fd5b50610181600480360381019061017c919061109a565b610658565b005b34801561018f57600080fd5b5061019861072a565b6040516101a59190611331565b60405180910390f35b3480156101ba57600080fd5b506101c3610741565b005b3480156101d157600080fd5b506101da6107c9565b6040516101e791906112a3565b60405180910390f35b3480156101fc57600080fd5b506102056107f1565b6040516102129190611367565b60405180910390f35b61023560048036038101906102309190611035565b6102e2565b005b34801561024357600080fd5b5061025e60048036038101906102599190610ee7565b61081b565b60405161026b919061134c565b60405180910390f35b34801561028057600080fd5b5061029b60048036038101906102969190610fa6565b610830565b6040516102a8919061134c565b60405180910390f35b3480156102bd57600080fd5b506102d860048036038101906102d39190610ebe565b610845565b005b600033905090565b60026000541415610328576040517f08c379a000000000000000000000000000000000000000000000000000000000815260040161031f90611462565b60405180910390fd5b600260008190555061033861072a565b15610378576040517f08c379a000000000000000000000000000000000000000000000000000000000815260040161036f906113c2565b60405180910390fd5b600060046000838152602001908152602001600020600101549050600034905060006004600085815260200190815260200160002060000160009054906101000a900460ff1690506103cc8583858461093d565b6103d68585610a36565b8473ffffffffffffffffffffffffffffffffffffffff166103f56102da565b73ffffffffffffffffffffffffffffffffffffffff167fe0cc08cd6445055fb96ba62706d6598dd171f8a45e41f20be587f05446c958298560405161043a9190611482565b60405180910390a361044c8383610a44565b50505060016000819055505050565b60007f4e2312e0000000000000000000000000000000000000000000000000000000007bffffffffffffffffffffffffffffffffffffffffffffffffffffffff1916827bffffffffffffffffffffffffffffffffffffffffffffffffffffffff191614806104ce57506104cd82610b12565b5b9050919050565b6104dd61072a565b1561051d576040517f08c379a0000000000000000000000000000000000000000000000000000000008152600401610514906113c2565b60405180910390fd5b6105256102da565b73ffffffffffffffffffffffffffffffffffffffff166105436107c9565b73ffffffffffffffffffffffffffffffffffffffff1614610599576040517f08c379a000000000000000000000000000000000000000000000000000000000815260040161059090611402565b60405180910390fd5b600081116105dc576040517f08c379a00000000000000000000000000000000000000000000000000000000081526004016105d3906113e2565b60405180910390fd5b6105e68282610b7c565b6105f1826001610b9b565b7f8b150673121b01316e8e9f04c655dcb53717f3ea8192a7606efea46850852934828260405161062292919061149d565b60405180910390a15050565b6000600360009054906101000a900473ffffffffffffffffffffffffffffffffffffffff16905090565b61066061072a565b156106a0576040517f08c379a0000000000000000000000000000000000000000000000000000000008152600401610697906113c2565b60405180910390fd5b6106a86102da565b73ffffffffffffffffffffffffffffffffffffffff166106c66107c9565b73ffffffffffffffffffffffffffffffffffffffff161461071c576040517f08c379a000000000000000000000000000000000000000000000000000000000815260040161071390611402565b60405180910390fd5b610727816000610b9b565b50565b6000600160009054906101000a900460ff16905090565b6107496102da565b73ffffffffffffffffffffffffffffffffffffffff166107676107c9565b73ffffffffffffffffffffffffffffffffffffffff16146107bd576040517f08c379a00000000000000000000000000000000000000000000000000000000081526004016107b490611402565b60405180910390fd5b6107c76000610c26565b565b600060018054906101000a900473ffffffffffffffffffffffffffffffffffffffff16905090565b6000600260009054906101000a900473ffffffffffffffffffffffffffffffffffffffff16905090565b600063bc197c8160e01b905095945050505050565b600063f23a6e6160e01b905095945050505050565b61084d6102da565b73ffffffffffffffffffffffffffffffffffffffff1661086b6107c9565b73ffffffffffffffffffffffffffffffffffffffff16146108c1576040517f08c379a00000000000000000000000000000000000000000000000000000000081526004016108b890611402565b60405180910390fd5b600073ffffffffffffffffffffffffffffffffffffffff168173ffffffffffffffffffffffffffffffffffffffff161415610931576040517f08c379a0000000000000000000000000000000000000000000000000000000008152600401610928906113a2565b60405180910390fd5b61093a81610c26565b50565b8061097d576040517f08c379a000000000000000000000000000000000000000000000000000000000815260040161097490611422565b60405180910390fd5b600073ffffffffffffffffffffffffffffffffffffffff168473ffffffffffffffffffffffffffffffffffffffff1614156109ed576040517f08c379a00000000000000000000000000000000000000000000000000000000081526004016109e490611442565b60405180910390fd5b81831015610a30576040517f08c379a0000000000000000000000000000000000000000000000000000000008152600401610a2790611382565b60405180910390fd5b50505050565b610a408282610ce9565b5050565b600360009054906101000a900473ffffffffffffffffffffffffffffffffffffffff1673ffffffffffffffffffffffffffffffffffffffff166108fc839081150290604051600060405180830381858888f19350505050158015610aac573d6000803e3d6000fd5b5081811115610b0e5760003390508073ffffffffffffffffffffffffffffffffffffffff166108fc8484610ae0919061156a565b9081150290604051600060405180830381858888f19350505050158015610b0b573d6000803e3d6000fd5b50505b5050565b60007f01ffc9a7000000000000000000000000000000000000000000000000000000007bffffffffffffffffffffffffffffffffffffffffffffffffffffffff1916827bffffffffffffffffffffffffffffffffffffffffffffffffffffffff1916149050919050565b8060046000848152602001908152602001600020600101819055505050565b6000600460008481526020019081526020016000206001015411610bf4576040517f08c379a0000000000000000000000000000000000000000000000000000000008152600401610beb906113e2565b60405180910390fd5b806004600084815260200190815260200160002060000160006101000a81548160ff0219169083151502179055505050565b600060018054906101000a900473ffffffffffffffffffffffffffffffffffffffff169050816001806101000a81548173ffffffffffffffffffffffffffffffffffffffff021916908373ffffffffffffffffffffffffffffffffffffffff1602179055508173ffffffffffffffffffffffffffffffffffffffff168173ffffffffffffffffffffffffffffffffffffffff167f8be0079c531659141344cd1fd0a4f28419497f9722a3daafe3b4186f6b6457e060405160405180910390a35050565b600260009054906101000a900473ffffffffffffffffffffffffffffffffffffffff1673ffffffffffffffffffffffffffffffffffffffff1663f242432a30848460016040518563ffffffff1660e01b8152600401610d4b94939291906112d9565b600060405180830381600087803b158015610d6557600080fd5b505af1158015610d79573d6000803e3d6000fd5b505050505050565b6000610d94610d8f846114eb565b6114c6565b90508083825260208201905082856020860282011115610db357600080fd5b60005b85811015610de35781610dc98882610ea9565b845260208401935060208301925050600181019050610db6565b5050509392505050565b6000610e00610dfb84611517565b6114c6565b905082815260208101848484011115610e1857600080fd5b610e2384828561165a565b509392505050565b600081359050610e3a8161195e565b92915050565b600082601f830112610e5157600080fd5b8135610e61848260208601610d81565b91505092915050565b600081359050610e7981611975565b92915050565b600082601f830112610e9057600080fd5b8135610ea0848260208601610ded565b91505092915050565b600081359050610eb88161198c565b92915050565b600060208284031215610ed057600080fd5b6000610ede84828501610e2b565b91505092915050565b600080600080600060a08688031215610eff57600080fd5b6000610f0d88828901610e2b565b9550506020610f1e88828901610e2b565b945050604086013567ffffffffffffffff811115610f3b57600080fd5b610f4788828901610e40565b935050606086013567ffffffffffffffff811115610f6457600080fd5b610f7088828901610e40565b925050608086013567ffffffffffffffff811115610f8d57600080fd5b610f9988828901610e7f565b9150509295509295909350565b600080600080600060a08688031215610fbe57600080fd5b6000610fcc88828901610e2b565b9550506020610fdd88828901610e2b565b9450506040610fee88828901610ea9565b9350506060610fff88828901610ea9565b925050608086013567ffffffffffffffff81111561101c57600080fd5b61102888828901610e7f565b9150509295509295909350565b6000806040838503121561104857600080fd5b600061105685828601610e2b565b925050602061106785828601610ea9565b9150509250929050565b60006020828403121561108357600080fd5b600061109184828501610e6a565b91505092915050565b6000602082840312156110ac57600080fd5b60006110ba84828501610ea9565b91505092915050565b600080604083850312156110d657600080fd5b60006110e485828601610ea9565b92505060206110f585828601610ea9565b9150509250929050565b611108816115b0565b82525050565b6111178161159e565b82525050565b611126816115c2565b82525050565b611135816115ce565b82525050565b61114481611624565b82525050565b61115381611648565b82525050565b6000611166604383611559565b915061117182611709565b606082019050919050565b6000611189602683611559565b91506111948261177e565b604082019050919050565b60006111ac600583611548565b91506111b7826117cd565b602082019050919050565b60006111cf601083611559565b91506111da826117f6565b602082019050919050565b60006111f2602983611559565b91506111fd8261181f565b604082019050919050565b6000611215602083611559565b91506112208261186e565b602082019050919050565b6000611238602a83611559565b915061124382611897565b604082019050919050565b600061125b602a83611559565b9150611266826118e6565b604082019050919050565b600061127e601f83611559565b915061128982611935565b602082019050919050565b61129d8161161a565b82525050565b60006020820190506112b8600083018461110e565b92915050565b60006020820190506112d360008301846110ff565b92915050565b600060a0820190506112ee600083018761110e565b6112fb602083018661110e565b6113086040830185611294565b611315606083018461114a565b81810360808301526113268161119f565b905095945050505050565b6000602082019050611346600083018461111d565b92915050565b6000602082019050611361600083018461112c565b92915050565b600060208201905061137c600083018461113b565b92915050565b6000602082019050818103600083015261139b81611159565b9050919050565b600060208201905081810360008301526113bb8161117c565b9050919050565b600060208201905081810360008301526113db816111c2565b9050919050565b600060208201905081810360008301526113fb816111e5565b9050919050565b6000602082019050818103600083015261141b81611208565b9050919050565b6000602082019050818103600083015261143b8161122b565b9050919050565b6000602082019050818103600083015261145b8161124e565b9050919050565b6000602082019050818103600083015261147b81611271565b9050919050565b60006020820190506114976000830184611294565b92915050565b60006040820190506114b26000830185611294565b6114bf6020830184611294565b9392505050565b60006114d06114e1565b90506114dc8282611669565b919050565b6000604051905090565b600067ffffffffffffffff821115611506576115056116c9565b5b602082029050602081019050919050565b600067ffffffffffffffff821115611532576115316116c9565b5b61153b826116f8565b9050602081019050919050565b600082825260208201905092915050565b600082825260208201905092915050565b60006115758261161a565b91506115808361161a565b9250828210156115935761159261169a565b5b828203905092915050565b60006115a9826115fa565b9050919050565b60006115bb826115fa565b9050919050565b60008115159050919050565b60007fffffffff0000000000000000000000000000000000000000000000000000000082169050919050565b600073ffffffffffffffffffffffffffffffffffffffff82169050919050565b6000819050919050565b600061162f82611636565b9050919050565b6000611641826115fa565b9050919050565b60006116538261161a565b9050919050565b82818337600083830152505050565b611672826116f8565b810181811067ffffffffffffffff82111715611691576116906116c9565b5b80604052505050565b7f4e487b7100000000000000000000000000000000000000000000000000000000600052601160045260246000fd5b7f4e487b7100000000000000000000000000000000000000000000000000000000600052604160045260246000fd5b6000601f19601f8301169050919050565b7f43726f776473616c653a207061796d656e74206d75737420626520636f72726560008201527f637420616d6f756e7420666f722070757263686173696e67206163636573736f60208201527f72792e0000000000000000000000000000000000000000000000000000000000604082015250565b7f4f776e61626c653a206e6577206f776e657220697320746865207a65726f206160008201527f6464726573730000000000000000000000000000000000000000000000000000602082015250565b7f3078303030000000000000000000000000000000000000000000000000000000600082015250565b7f5061757361626c653a2070617573656400000000000000000000000000000000600082015250565b7f5072696365206f66206163636573736f7279206d75737420626520677265617460008201527f6572207468616e20300000000000000000000000000000000000000000000000602082015250565b7f4f776e61626c653a2063616c6c6572206973206e6f7420746865206f776e6572600082015250565b7f43726f776473616c653a2074686973206163636573736f7279206973206e6f7460008201527f20666f722073616c652e00000000000000000000000000000000000000000000602082015250565b7f43726f776473616c653a2062656e656669636961727920697320746865207a6560008201527f726f206164647265737300000000000000000000000000000000000000000000602082015250565b7f5265656e7472616e637947756172643a207265656e7472616e742063616c6c00600082015250565b6119678161159e565b811461197257600080fd5b50565b61197e816115ce565b811461198957600080fd5b50565b6119958161161a565b81146119a057600080fd5b5056fea2646970667358221220b35a219c57ab981d36fadc557d32b8744949ffb1ad2897687eeb08dd5dc4ffc564736f6c63430008020033",
  "immutableReferences": {},
  "source": "// contracts/Market.sol\n// SPDX-License-Identifier: MIT OR Apache-2.0\n// https://dev.to/dabit3/building-scalable-full-stack-apps-on-ethereum-with-polygon-2cfb\npragma solidity ^0.8.2;\n\n// import \"@openzeppelin/contracts/utils/Counters.sol\";\nimport \"@openzeppelin/contracts/security/ReentrancyGuard.sol\";\nimport \"@openzeppelin/contracts/token/ERC1155/IERC1155.sol\";\nimport \"@openzeppelin/contracts/utils/math/SafeMath.sol\";\nimport \"@openzeppelin/contracts/security/Pausable.sol\";\nimport \"@openzeppelin/contracts/access/Ownable.sol\";\nimport \"@openzeppelin/contracts/utils/Context.sol\";\nimport \"@openzeppelin/contracts/token/ERC1155/utils/ERC1155Holder.sol\";\n\n// contract BotMarket is ReentrancyGuard, ERC1155Receiver {\ncontract BotMarket is Context, ReentrancyGuard, ERC1155Holder, Pausable, Ownable {\n\n    using SafeMath for uint256;\n\n    // The accessory being sold\n    IERC1155 private _accessory;\n\n    // Address where funds are collected\n    address payable private _wallet;\n\n    mapping(uint256 => Accessory) private accessories;\n\n    struct Accessory {\n        bool isForSale;\n        uint256 price;\n    }\n\n    event AccessoryListed (uint256 clazz, uint256 price);\n    event AccessoryPurchased(address indexed purchaser, address indexed beneficiary, uint256 value);\n\n\n    constructor (address payable wallet, IERC1155 accessory) {\n        require(wallet != address(0), \"BotMarket: wallet is the zero address\");\n        require(address(accessory) != address(0), \"BotMarket: accessory is the zero address\");\n\n        _wallet = wallet;\n        _accessory = accessory;\n    }\n\n    // /**\n    //  * @dev fallback function ***DO NOT OVERRIDE***\n    //  * Note that other contracts will transfer funds with a base gas stipend\n    //  * of 2300, which is not enough to call purchaseAccessory. Consider calling\n    //  * purchaseAccessory directly when purchasing accessories from a contract.\n    //  */\n    receive () external payable {\n        purchaseAccessory(_msgSender(), 1); // default to clazz 1\n    }\n\n    // /**\n    //  * @return the accessory being sold.\n    //  */\n    function getAccessory() public view returns (IERC1155) {\n        return _accessory;\n    }\n\n    // /**\n    //  * @return the address where funds are collected.\n    //  */\n    function getWallet() public view returns (address payable) {\n        return _wallet;\n    }\n\n    function purchaseAccessory(address beneficiary, uint256 clazz) public nonReentrant whenNotPaused payable {\n        uint256 price = accessories[clazz].price;\n        uint256 payment = msg.value;\n        bool isForSale = accessories[clazz].isForSale;\n\n        _preValidatePurchase(beneficiary, payment, price, isForSale);\n\n        _processPurchase(beneficiary, clazz);\n        emit AccessoryPurchased(_msgSender(), beneficiary, price);\n\n        _forwardFunds(price, payment);\n    }\n\n    function _preValidatePurchase(address beneficiary, uint256 payment, uint256 price, bool isForSale) internal view virtual {\n        require(isForSale, \"Crowdsale: this accessory is not for sale.\");\n        require(beneficiary != address(0), \"Crowdsale: beneficiary is the zero address\");\n        require(payment >= price, \"Crowdsale: payment must be correct amount for purchasing accessory.\");\n        this; // silence state mutability warning without generating bytecode - see https://github.com/ethereum/solidity/issues/2691\n    }\n\n    function _deliverAccessory(address beneficiary, uint256 clazz) internal virtual {\n        _accessory.safeTransferFrom(address(this), beneficiary, clazz, 1, \"0x000\");\n    }\n\n    function _processPurchase(address beneficiary, uint256 clazz) internal virtual {\n        _deliverAccessory(beneficiary, clazz);\n    }\n\n    function _forwardFunds(uint256 price, uint256 payment) internal virtual {\n        _wallet.transfer(price);\n        if(payment > price) {\n            address payable buyerAddressPayable = payable(msg.sender); // We need to make this conversion to be able to use transfer() function to transfer ethers\n            buyerAddressPayable.transfer(payment - price);\n        }\n    }\n\n    function listAccessory(uint256 clazz, uint256 price) public whenNotPaused onlyOwner {\n        require(price > 0, \"Price of accessory must be greater than 0\");\n        _setClazzPrice(clazz, price);\n        _setAccessoryForSale(clazz, true);\n\n        emit AccessoryListed(clazz, price);\n    }\n\n    function delistAccessory(uint256 clazz) public whenNotPaused onlyOwner {\n        _setAccessoryForSale(clazz, false);\n    }\n\n    function _setAccessoryForSale(uint256 clazz, bool isForSale) internal {\n        require(accessories[clazz].price > 0, \"Price of accessory must be greater than 0\");\n        accessories[clazz].isForSale = isForSale;\n    }\n\n    function _setClazzPrice(uint256 clazz, uint256 price) internal {\n        accessories[clazz].price = price;\n    }\n}\n\n// contract BotMarket is ReentrancyGuard {\n//     using Counters for Counters.Counter;\n//     Counters.Counter private _itemIds;\n//     Counters.Counter private _itemsSold;\n\n//     address payable owner;\n//     uint256 listingPrice = 0.015 ether; // cost to list item\n\n//     constructor() {\n//         owner = payable(msg.sender);\n//     }\n\n//     struct MarketItem {\n//         uint itemId;\n//         address nftContract;\n//         uint256 tokenId;\n//         address payable seller;\n//         address payable owner;\n//         uint256 price;\n//         bool sold;\n//     }\n\n//     mapping(uint256 => MarketItem) private idToMarketItem;\n\n//     event MarketItemCreated (\n//         uint indexed itemId,\n//         address indexed nftContract,\n//         uint256 indexed tokenId,\n//         address seller,\n//         address owner,\n//         uint256 price,\n//         bool sold\n//     );\n\n//     /* Returns the listing price of the contract */\n//     function getListingPrice() public view returns (uint256) {\n//         return listingPrice;\n//     }\n\n//     /* Places an item for sale on the marketplace */\n//     function createMarketItem(\n//         address nftContract,\n//         uint256 tokenId,\n//         uint256 price\n//     ) public payable nonReentrant {\n//         require(price > 0, \"Price must be at least 1 wei\");\n//         require(msg.value == listingPrice, \"Price must be equal to listing price\");\n\n//         _itemIds.increment();\n//         uint256 itemId = _itemIds.current();\n\n//         idToMarketItem[itemId] =  MarketItem(\n//             itemId,\n//             nftContract,\n//             tokenId,\n//             payable(msg.sender),\n//             payable(address(0)), // zero address for contract\n//             price,\n//             false\n//         );\n\n//         IERC721(nftContract).transferFrom(msg.sender, address(this), tokenId);\n\n//         emit MarketItemCreated(\n//             itemId,\n//             nftContract,\n//             tokenId,\n//             msg.sender,\n//             address(0),\n//             price,\n//             false\n//         );\n//     }\n\n//     /* Creates the sale of a marketplace item */\n//     /* Transfers ownership of the item, as well as funds between parties */\n//     function createMarketSale(\n//         address nftContract,\n//         uint256 itemId\n//     ) public payable nonReentrant {\n//         uint price = idToMarketItem[itemId].price;\n//         uint tokenId = idToMarketItem[itemId].tokenId;\n//         require(msg.value == price, \"Please submit the asking price in order to complete the purchase\");\n\n//         idToMarketItem[itemId].seller.transfer(msg.value);\n//         IERC721(nftContract).transferFrom(address(this), msg.sender, tokenId);\n//         idToMarketItem[itemId].owner = payable(msg.sender);\n//         idToMarketItem[itemId].sold = true;\n//         _itemsSold.increment();\n//         payable(owner).transfer(listingPrice);\n//     }\n\n//     /* Returns all unsold market items */\n//     function fetchMarketItems() public view returns (MarketItem[] memory) {\n//         uint itemCount = _itemIds.current();\n//         uint unsoldItemCount = _itemIds.current() - _itemsSold.current();\n//         uint currentIndex = 0;\n\n//         MarketItem[] memory items = new MarketItem[](unsoldItemCount);\n//         for (uint i = 0; i < itemCount; i++) {\n//             if (idToMarketItem[i + 1].owner == address(0)) {\n//                 uint currentId = i + 1;\n//                 MarketItem storage currentItem = idToMarketItem[currentId];\n//                 items[currentIndex] = currentItem;\n//                 currentIndex += 1;\n//             }\n//         }\n//         return items;\n//     }\n\n//     /* Returns only items that a user has purchased */\n//     function fetchMyNFTs() public view returns (MarketItem[] memory) {\n//         uint totalItemCount = _itemIds.current();\n//         uint itemCount = 0;\n//         uint currentIndex = 0;\n\n//         for (uint i = 0; i < totalItemCount; i++) {\n//             if (idToMarketItem[i + 1].owner == msg.sender) {\n//                 itemCount += 1;\n//             }\n//         }\n\n//         MarketItem[] memory items = new MarketItem[](itemCount);\n//         for (uint i = 0; i < totalItemCount; i++) {\n//             if (idToMarketItem[i + 1].owner == msg.sender) {\n//                 uint currentId = i + 1;\n//                 MarketItem storage currentItem = idToMarketItem[currentId];\n//                 items[currentIndex] = currentItem;\n//                 currentIndex += 1;\n//             }\n//         }\n//         return items;\n//     }\n\n//     /* Returns only items a user has created */\n//     function fetchItemsCreated() public view returns (MarketItem[] memory) {\n//         uint totalItemCount = _itemIds.current();\n//         uint itemCount = 0;\n//         uint currentIndex = 0;\n\n//         for (uint i = 0; i < totalItemCount; i++) {\n//             if (idToMarketItem[i + 1].seller == msg.sender) {\n//                 itemCount += 1;\n//             }\n//         }\n\n//         MarketItem[] memory items = new MarketItem[](itemCount);\n//         for (uint i = 0; i < totalItemCount; i++) {\n//             if (idToMarketItem[i + 1].seller == msg.sender) {\n//                 uint currentId = i + 1;\n//                 MarketItem storage currentItem = idToMarketItem[currentId];\n//                 items[currentIndex] = currentItem;\n//                 currentIndex += 1;\n//             }\n//         }\n//         return items;\n//     }\n// }\n",
  "sourcePath": "/home/seandevs/workspaces/celo-hackathon/nfts/robots/contracts/BotMarket.sol",
  "compiler": {
    "name": "solc",
    "version": "0.8.2+commit.661d1103.Emscripten.clang"
  },
  "schemaVersion": "3.4.1",
  "updatedAt": "2021-11-01T15:06:21.517Z",
  "networkType": "ethereum",
  "devdoc": {
    "kind": "dev",
    "methods": {
      "owner()": {
        "details": "Returns the address of the current owner."
      },
      "paused()": {
        "details": "Returns true if the contract is paused, and false otherwise."
      },
      "renounceOwnership()": {
        "details": "Leaves the contract without owner. It will not be possible to call `onlyOwner` functions anymore. Can only be called by the current owner. NOTE: Renouncing ownership will leave the contract without an owner, thereby removing any functionality that is only available to the owner."
      },
      "supportsInterface(bytes4)": {
        "details": "See {IERC165-supportsInterface}."
      },
      "transferOwnership(address)": {
        "details": "Transfers ownership of the contract to a new account (`newOwner`). Can only be called by the current owner."
      }
    },
    "version": 1
  },
  "userdoc": {
    "kind": "user",
    "methods": {},
    "version": 1
  }
}