{
  "contractName": "BotMarket",
  "abi": [
    {
      "inputs": [
        {
          "internalType": "address payable",
          "name": "wallet",
          "type": "address"
        },
        {
          "internalType": "contract IERC1155",
          "name": "accessory",
          "type": "address"
        }
      ],
      "stateMutability": "nonpayable",
      "type": "constructor"
    },
    {
      "anonymous": false,
      "inputs": [
        {
          "indexed": false,
          "internalType": "uint256",
          "name": "clazz",
          "type": "uint256"
        },
        {
          "indexed": false,
          "internalType": "uint256",
          "name": "price",
          "type": "uint256"
        }
      ],
      "name": "AccessoryListed",
      "type": "event"
    },
    {
      "anonymous": false,
      "inputs": [
        {
          "indexed": true,
          "internalType": "address",
          "name": "purchaser",
          "type": "address"
        },
        {
          "indexed": true,
          "internalType": "address",
          "name": "beneficiary",
          "type": "address"
        },
        {
          "indexed": false,
          "internalType": "uint256",
          "name": "value",
          "type": "uint256"
        }
      ],
      "name": "AccessoryPurchased",
      "type": "event"
    },
    {
      "anonymous": false,
      "inputs": [
        {
          "indexed": true,
          "internalType": "address",
          "name": "previousOwner",
          "type": "address"
        },
        {
          "indexed": true,
          "internalType": "address",
          "name": "newOwner",
          "type": "address"
        }
      ],
      "name": "OwnershipTransferred",
      "type": "event"
    },
    {
      "anonymous": false,
      "inputs": [
        {
          "indexed": false,
          "internalType": "address",
          "name": "account",
          "type": "address"
        }
      ],
      "name": "Paused",
      "type": "event"
    },
    {
      "anonymous": false,
      "inputs": [
        {
          "indexed": false,
          "internalType": "address",
          "name": "account",
          "type": "address"
        }
      ],
      "name": "Unpaused",
      "type": "event"
    },
    {
      "inputs": [
        {
          "internalType": "uint256",
          "name": "",
          "type": "uint256"
        }
      ],
      "name": "accessories",
      "outputs": [
        {
          "internalType": "bool",
          "name": "isForSale",
          "type": "bool"
        },
        {
          "internalType": "uint256",
          "name": "price",
          "type": "uint256"
        }
      ],
      "stateMutability": "view",
      "type": "function",
      "constant": true
    },
    {
      "inputs": [
        {
          "internalType": "address",
          "name": "",
          "type": "address"
        },
        {
          "internalType": "address",
          "name": "",
          "type": "address"
        },
        {
          "internalType": "uint256[]",
          "name": "",
          "type": "uint256[]"
        },
        {
          "internalType": "uint256[]",
          "name": "",
          "type": "uint256[]"
        },
        {
          "internalType": "bytes",
          "name": "",
          "type": "bytes"
        }
      ],
      "name": "onERC1155BatchReceived",
      "outputs": [
        {
          "internalType": "bytes4",
          "name": "",
          "type": "bytes4"
        }
      ],
      "stateMutability": "nonpayable",
      "type": "function"
    },
    {
      "inputs": [
        {
          "internalType": "address",
          "name": "",
          "type": "address"
        },
        {
          "internalType": "address",
          "name": "",
          "type": "address"
        },
        {
          "internalType": "uint256",
          "name": "",
          "type": "uint256"
        },
        {
          "internalType": "uint256",
          "name": "",
          "type": "uint256"
        },
        {
          "internalType": "bytes",
          "name": "",
          "type": "bytes"
        }
      ],
      "name": "onERC1155Received",
      "outputs": [
        {
          "internalType": "bytes4",
          "name": "",
          "type": "bytes4"
        }
      ],
      "stateMutability": "nonpayable",
      "type": "function"
    },
    {
      "inputs": [],
      "name": "owner",
      "outputs": [
        {
          "internalType": "address",
          "name": "",
          "type": "address"
        }
      ],
      "stateMutability": "view",
      "type": "function",
      "constant": true
    },
    {
      "inputs": [],
      "name": "paused",
      "outputs": [
        {
          "internalType": "bool",
          "name": "",
          "type": "bool"
        }
      ],
      "stateMutability": "view",
      "type": "function",
      "constant": true
    },
    {
      "inputs": [],
      "name": "renounceOwnership",
      "outputs": [],
      "stateMutability": "nonpayable",
      "type": "function"
    },
    {
      "inputs": [
        {
          "internalType": "bytes4",
          "name": "interfaceId",
          "type": "bytes4"
        }
      ],
      "name": "supportsInterface",
      "outputs": [
        {
          "internalType": "bool",
          "name": "",
          "type": "bool"
        }
      ],
      "stateMutability": "view",
      "type": "function",
      "constant": true
    },
    {
      "inputs": [
        {
          "internalType": "address",
          "name": "newOwner",
          "type": "address"
        }
      ],
      "name": "transferOwnership",
      "outputs": [],
      "stateMutability": "nonpayable",
      "type": "function"
    },
    {
      "stateMutability": "payable",
      "type": "receive",
      "payable": true
    },
    {
      "inputs": [],
      "name": "getAccessory",
      "outputs": [
        {
          "internalType": "contract IERC1155",
          "name": "",
          "type": "address"
        }
      ],
      "stateMutability": "view",
      "type": "function",
      "constant": true
    },
    {
      "inputs": [],
      "name": "getWallet",
      "outputs": [
        {
          "internalType": "address payable",
          "name": "",
          "type": "address"
        }
      ],
      "stateMutability": "view",
      "type": "function",
      "constant": true
    },
    {
      "inputs": [
        {
          "internalType": "address",
          "name": "beneficiary",
          "type": "address"
        },
        {
          "internalType": "uint256",
          "name": "clazz",
          "type": "uint256"
        }
      ],
      "name": "purchaseAccessory",
      "outputs": [],
      "stateMutability": "payable",
      "type": "function",
      "payable": true
    },
    {
      "inputs": [
        {
          "internalType": "uint256",
          "name": "clazz",
          "type": "uint256"
        },
        {
          "internalType": "uint256",
          "name": "price",
          "type": "uint256"
        }
      ],
      "name": "listAccessory",
      "outputs": [],
      "stateMutability": "nonpayable",
      "type": "function"
    },
    {
      "inputs": [
        {
          "internalType": "uint256",
          "name": "clazz",
          "type": "uint256"
        }
      ],
      "name": "delistAccessory",
      "outputs": [],
      "stateMutability": "nonpayable",
      "type": "function"
    },
    {
      "inputs": [
        {
          "internalType": "uint256",
          "name": "clazz",
          "type": "uint256"
        },
        {
          "internalType": "bool",
          "name": "isForSale",
          "type": "bool"
        }
      ],
      "name": "setAccessoryForSale",
      "outputs": [],
      "stateMutability": "nonpayable",
      "type": "function"
    },
    {
      "inputs": [
        {
          "internalType": "uint256",
          "name": "clazz",
          "type": "uint256"
        },
        {
          "internalType": "uint256",
          "name": "price",
          "type": "uint256"
        }
      ],
      "name": "setAccessoryPrice",
      "outputs": [],
      "stateMutability": "nonpayable",
      "type": "function"
    },
    {
      "inputs": [],
      "name": "withdrawAll",
      "outputs": [],
      "stateMutability": "payable",
      "type": "function",
      "payable": true
    }
  ],
  "bytecode": "0x60806040523480156200001157600080fd5b5060405162002165380380620021658339818101604052810190620000379190620002e3565b60016000819055506000600160006101000a81548160ff0219169083151502179055506200007a6200006e620001ea60201b60201c565b620001f260201b60201c565b600073ffffffffffffffffffffffffffffffffffffffff168273ffffffffffffffffffffffffffffffffffffffff161415620000ed576040517f08c379a0000000000000000000000000000000000000000000000000000000008152600401620000e49062000394565b60405180910390fd5b600073ffffffffffffffffffffffffffffffffffffffff168173ffffffffffffffffffffffffffffffffffffffff16141562000160576040517f08c379a0000000000000000000000000000000000000000000000000000000008152600401620001579062000372565b60405180910390fd5b81600360006101000a81548173ffffffffffffffffffffffffffffffffffffffff021916908373ffffffffffffffffffffffffffffffffffffffff16021790555080600260006101000a81548173ffffffffffffffffffffffffffffffffffffffff021916908373ffffffffffffffffffffffffffffffffffffffff1602179055505050620004a9565b600033905090565b600060018054906101000a900473ffffffffffffffffffffffffffffffffffffffff169050816001806101000a81548173ffffffffffffffffffffffffffffffffffffffff021916908373ffffffffffffffffffffffffffffffffffffffff1602179055508173ffffffffffffffffffffffffffffffffffffffff168173ffffffffffffffffffffffffffffffffffffffff167f8be0079c531659141344cd1fd0a4f28419497f9722a3daafe3b4186f6b6457e060405160405180910390a35050565b600081519050620002c68162000475565b92915050565b600081519050620002dd816200048f565b92915050565b60008060408385031215620002f757600080fd5b60006200030785828601620002b5565b92505060206200031a85828601620002cc565b9150509250929050565b600062000333601d83620003b6565b9150620003408262000423565b602082019050919050565b60006200035a601a83620003b6565b915062000367826200044c565b602082019050919050565b600060208201905081810360008301526200038d8162000324565b9050919050565b60006020820190508181036000830152620003af816200034b565b9050919050565b600082825260208201905092915050565b6000620003d48262000403565b9050919050565b6000620003e88262000403565b9050919050565b6000620003fc82620003c7565b9050919050565b600073ffffffffffffffffffffffffffffffffffffffff82169050919050565b7f6163636573736f727920697320746865207a65726f2061646472657373000000600082015250565b7f77616c6c657420697320746865207a65726f2061646472657373000000000000600082015250565b6200048081620003db565b81146200048c57600080fd5b50565b6200049a81620003ef565b8114620004a657600080fd5b50565b611cac80620004b96000396000f3fe6080604052600436106100f75760003560e01c8063853828b61161008a578063bc197c8111610059578063bc197c81146102f4578063ca23b6ee14610331578063f23a6e611461035a578063f2fde38b1461039757610110565b8063853828b6146102785780638da5cb5b146102825780639064dc13146102ad578063ae6778d1146102d857610110565b806347ef2b36116100c657806347ef2b36146101cf5780635c975abb146101f8578063715018a6146102235780637ca942101461023a57610110565b806301ffc9a7146101155780630be7135714610152578063132996041461017b57806344059d9b146101a657610110565b366101105761010e6101076103c0565b60016103c8565b005b600080fd5b34801561012157600080fd5b5061013c6004803603810190610137919061132b565b610537565b6040516101499190611627565b60405180910390f35b34801561015e57600080fd5b50610179600480360381019061017491906113b9565b6105b1565b005b34801561018757600080fd5b5061019061070a565b60405161019d91906115b4565b60405180910390f35b3480156101b257600080fd5b506101cd60048036038101906101c89190611354565b610734565b005b3480156101db57600080fd5b506101f660048036038101906101f191906113b9565b610806565b005b34801561020457600080fd5b5061020d6108e9565b60405161021a9190611627565b60405180910390f35b34801561022f57600080fd5b50610238610900565b005b34801561024657600080fd5b50610261600480360381019061025c9190611354565b610988565b60405161026f929190611642565b60405180910390f35b6102806109b9565b005b34801561028e57600080fd5b50610297610a97565b6040516102a49190611599565b60405180910390f35b3480156102b957600080fd5b506102c2610abf565b6040516102cf9190611686565b60405180910390f35b6102f260048036038101906102ed91906112ef565b6103c8565b005b34801561030057600080fd5b5061031b600480360381019061031691906111a1565b610ae9565b604051610328919061166b565b60405180910390f35b34801561033d57600080fd5b506103586004803603810190610353919061137d565b610afe565b005b34801561036657600080fd5b50610381600480360381019061037c9190611260565b610c4d565b60405161038e919061166b565b60405180910390f35b3480156103a357600080fd5b506103be60048036038101906103b99190611178565b610c62565b005b600033905090565b6103d06108e9565b15610410576040517f08c379a0000000000000000000000000000000000000000000000000000000008152600401610407906116e1565b60405180910390fd5b60026000541415610456576040517f08c379a000000000000000000000000000000000000000000000000000000000815260040161044d90611781565b60405180910390fd5b6002600081905550600060046000838152602001908152602001600020600101549050600034905060006004600085815260200190815260200160002060000160009054906101000a900460ff1690506104b285838584610d5a565b6104bc8585610e53565b8473ffffffffffffffffffffffffffffffffffffffff166104db6103c0565b73ffffffffffffffffffffffffffffffffffffffff167fe0cc08cd6445055fb96ba62706d6598dd171f8a45e41f20be587f05446c958298560405161052091906117a1565b60405180910390a350505060016000819055505050565b60007f4e2312e0000000000000000000000000000000000000000000000000000000007bffffffffffffffffffffffffffffffffffffffffffffffffffffffff1916827bffffffffffffffffffffffffffffffffffffffffffffffffffffffff191614806105aa57506105a982610e61565b5b9050919050565b6105b96108e9565b156105f9576040517f08c379a00000000000000000000000000000000000000000000000000000000081526004016105f0906116e1565b60405180910390fd5b6106016103c0565b73ffffffffffffffffffffffffffffffffffffffff1661061f610a97565b73ffffffffffffffffffffffffffffffffffffffff1614610675576040517f08c379a000000000000000000000000000000000000000000000000000000000815260040161066c90611721565b60405180910390fd5b600081116106b8576040517f08c379a00000000000000000000000000000000000000000000000000000000081526004016106af90611701565b60405180910390fd5b6106c28282610806565b6106cd826001610afe565b7f8b150673121b01316e8e9f04c655dcb53717f3ea8192a7606efea4685085293482826040516106fe9291906117bc565b60405180910390a15050565b6000600360009054906101000a900473ffffffffffffffffffffffffffffffffffffffff16905090565b61073c6108e9565b1561077c576040517f08c379a0000000000000000000000000000000000000000000000000000000008152600401610773906116e1565b60405180910390fd5b6107846103c0565b73ffffffffffffffffffffffffffffffffffffffff166107a2610a97565b73ffffffffffffffffffffffffffffffffffffffff16146107f8576040517f08c379a00000000000000000000000000000000000000000000000000000000081526004016107ef90611721565b60405180910390fd5b610803816000610afe565b50565b61080e6108e9565b1561084e576040517f08c379a0000000000000000000000000000000000000000000000000000000008152600401610845906116e1565b60405180910390fd5b6108566103c0565b73ffffffffffffffffffffffffffffffffffffffff16610874610a97565b73ffffffffffffffffffffffffffffffffffffffff16146108ca576040517f08c379a00000000000000000000000000000000000000000000000000000000081526004016108c190611721565b60405180910390fd5b8060046000848152602001908152602001600020600101819055505050565b6000600160009054906101000a900460ff16905090565b6109086103c0565b73ffffffffffffffffffffffffffffffffffffffff16610926610a97565b73ffffffffffffffffffffffffffffffffffffffff161461097c576040517f08c379a000000000000000000000000000000000000000000000000000000000815260040161097390611721565b60405180910390fd5b6109866000610ecb565b565b60046020528060005260406000206000915090508060000160009054906101000a900460ff16908060010154905082565b6109c16103c0565b73ffffffffffffffffffffffffffffffffffffffff166109df610a97565b73ffffffffffffffffffffffffffffffffffffffff1614610a35576040517f08c379a0000000000000000000000000000000000000000000000000000000008152600401610a2c90611721565b60405180910390fd5b600360009054906101000a900473ffffffffffffffffffffffffffffffffffffffff1673ffffffffffffffffffffffffffffffffffffffff166108fc479081150290604051600060405180830381858888f19350505050610a9557600080fd5b565b600060018054906101000a900473ffffffffffffffffffffffffffffffffffffffff16905090565b6000600260009054906101000a900473ffffffffffffffffffffffffffffffffffffffff16905090565b600063bc197c8160e01b905095945050505050565b610b066108e9565b15610b46576040517f08c379a0000000000000000000000000000000000000000000000000000000008152600401610b3d906116e1565b60405180910390fd5b610b4e6103c0565b73ffffffffffffffffffffffffffffffffffffffff16610b6c610a97565b73ffffffffffffffffffffffffffffffffffffffff1614610bc2576040517f08c379a0000000000000000000000000000000000000000000000000000000008152600401610bb990611721565b60405180910390fd5b6000600460008481526020019081526020016000206001015411610c1b576040517f08c379a0000000000000000000000000000000000000000000000000000000008152600401610c1290611701565b60405180910390fd5b806004600084815260200190815260200160002060000160006101000a81548160ff0219169083151502179055505050565b600063f23a6e6160e01b905095945050505050565b610c6a6103c0565b73ffffffffffffffffffffffffffffffffffffffff16610c88610a97565b73ffffffffffffffffffffffffffffffffffffffff1614610cde576040517f08c379a0000000000000000000000000000000000000000000000000000000008152600401610cd590611721565b60405180910390fd5b600073ffffffffffffffffffffffffffffffffffffffff168173ffffffffffffffffffffffffffffffffffffffff161415610d4e576040517f08c379a0000000000000000000000000000000000000000000000000000000008152600401610d45906116c1565b60405180910390fd5b610d5781610ecb565b50565b80610d9a576040517f08c379a0000000000000000000000000000000000000000000000000000000008152600401610d9190611741565b60405180910390fd5b600073ffffffffffffffffffffffffffffffffffffffff168473ffffffffffffffffffffffffffffffffffffffff161415610e0a576040517f08c379a0000000000000000000000000000000000000000000000000000000008152600401610e0190611761565b60405180910390fd5b81831015610e4d576040517f08c379a0000000000000000000000000000000000000000000000000000000008152600401610e44906116a1565b60405180910390fd5b50505050565b610e5d8282610f8e565b5050565b60007f01ffc9a7000000000000000000000000000000000000000000000000000000007bffffffffffffffffffffffffffffffffffffffffffffffffffffffff1916827bffffffffffffffffffffffffffffffffffffffffffffffffffffffff1916149050919050565b600060018054906101000a900473ffffffffffffffffffffffffffffffffffffffff169050816001806101000a81548173ffffffffffffffffffffffffffffffffffffffff021916908373ffffffffffffffffffffffffffffffffffffffff1602179055508173ffffffffffffffffffffffffffffffffffffffff168173ffffffffffffffffffffffffffffffffffffffff167f8be0079c531659141344cd1fd0a4f28419497f9722a3daafe3b4186f6b6457e060405160405180910390a35050565b600260009054906101000a900473ffffffffffffffffffffffffffffffffffffffff1673ffffffffffffffffffffffffffffffffffffffff1663f242432a30848460016040518563ffffffff1660e01b8152600401610ff094939291906115cf565b600060405180830381600087803b15801561100a57600080fd5b505af115801561101e573d6000803e3d6000fd5b505050505050565b60006110396110348461180a565b6117e5565b9050808382526020820190508285602086028201111561105857600080fd5b60005b85811015611088578161106e8882611163565b84526020840193506020830192505060018101905061105b565b5050509392505050565b60006110a56110a084611836565b6117e5565b9050828152602081018484840111156110bd57600080fd5b6110c8848285611945565b509392505050565b6000813590506110df81611c1a565b92915050565b600082601f8301126110f657600080fd5b8135611106848260208601611026565b91505092915050565b60008135905061111e81611c31565b92915050565b60008135905061113381611c48565b92915050565b600082601f83011261114a57600080fd5b813561115a848260208601611092565b91505092915050565b60008135905061117281611c5f565b92915050565b60006020828403121561118a57600080fd5b6000611198848285016110d0565b91505092915050565b600080600080600060a086880312156111b957600080fd5b60006111c7888289016110d0565b95505060206111d8888289016110d0565b945050604086013567ffffffffffffffff8111156111f557600080fd5b611201888289016110e5565b935050606086013567ffffffffffffffff81111561121e57600080fd5b61122a888289016110e5565b925050608086013567ffffffffffffffff81111561124757600080fd5b61125388828901611139565b9150509295509295909350565b600080600080600060a0868803121561127857600080fd5b6000611286888289016110d0565b9550506020611297888289016110d0565b94505060406112a888828901611163565b93505060606112b988828901611163565b925050608086013567ffffffffffffffff8111156112d657600080fd5b6112e288828901611139565b9150509295509295909350565b6000806040838503121561130257600080fd5b6000611310858286016110d0565b925050602061132185828601611163565b9150509250929050565b60006020828403121561133d57600080fd5b600061134b84828501611124565b91505092915050565b60006020828403121561136657600080fd5b600061137484828501611163565b91505092915050565b6000806040838503121561139057600080fd5b600061139e85828601611163565b92505060206113af8582860161110f565b9150509250929050565b600080604083850312156113cc57600080fd5b60006113da85828601611163565b92505060206113eb85828601611163565b9150509250929050565b6113fe8161189b565b82525050565b61140d81611889565b82525050565b61141c816118ad565b82525050565b61142b816118b9565b82525050565b61143a8161190f565b82525050565b61144981611933565b82525050565b600061145c604383611878565b9150611467826119c5565b606082019050919050565b600061147f602683611878565b915061148a82611a3a565b604082019050919050565b60006114a2600583611867565b91506114ad82611a89565b602082019050919050565b60006114c5601083611878565b91506114d082611ab2565b602082019050919050565b60006114e8602983611878565b91506114f382611adb565b604082019050919050565b600061150b602083611878565b915061151682611b2a565b602082019050919050565b600061152e602a83611878565b915061153982611b53565b604082019050919050565b6000611551602a83611878565b915061155c82611ba2565b604082019050919050565b6000611574601f83611878565b915061157f82611bf1565b602082019050919050565b61159381611905565b82525050565b60006020820190506115ae6000830184611404565b92915050565b60006020820190506115c960008301846113f5565b92915050565b600060a0820190506115e46000830187611404565b6115f16020830186611404565b6115fe604083018561158a565b61160b6060830184611440565b818103608083015261161c81611495565b905095945050505050565b600060208201905061163c6000830184611413565b92915050565b60006040820190506116576000830185611413565b611664602083018461158a565b9392505050565b60006020820190506116806000830184611422565b92915050565b600060208201905061169b6000830184611431565b92915050565b600060208201905081810360008301526116ba8161144f565b9050919050565b600060208201905081810360008301526116da81611472565b9050919050565b600060208201905081810360008301526116fa816114b8565b9050919050565b6000602082019050818103600083015261171a816114db565b9050919050565b6000602082019050818103600083015261173a816114fe565b9050919050565b6000602082019050818103600083015261175a81611521565b9050919050565b6000602082019050818103600083015261177a81611544565b9050919050565b6000602082019050818103600083015261179a81611567565b9050919050565b60006020820190506117b6600083018461158a565b92915050565b60006040820190506117d1600083018561158a565b6117de602083018461158a565b9392505050565b60006117ef611800565b90506117fb8282611954565b919050565b6000604051905090565b600067ffffffffffffffff82111561182557611824611985565b5b602082029050602081019050919050565b600067ffffffffffffffff82111561185157611850611985565b5b61185a826119b4565b9050602081019050919050565b600082825260208201905092915050565b600082825260208201905092915050565b6000611894826118e5565b9050919050565b60006118a6826118e5565b9050919050565b60008115159050919050565b60007fffffffff0000000000000000000000000000000000000000000000000000000082169050919050565b600073ffffffffffffffffffffffffffffffffffffffff82169050919050565b6000819050919050565b600061191a82611921565b9050919050565b600061192c826118e5565b9050919050565b600061193e82611905565b9050919050565b82818337600083830152505050565b61195d826119b4565b810181811067ffffffffffffffff8211171561197c5761197b611985565b5b80604052505050565b7f4e487b7100000000000000000000000000000000000000000000000000000000600052604160045260246000fd5b6000601f19601f8301169050919050565b7f43726f776473616c653a207061796d656e74206d75737420626520636f72726560008201527f637420616d6f756e7420666f722070757263686173696e67206163636573736f60208201527f72792e0000000000000000000000000000000000000000000000000000000000604082015250565b7f4f776e61626c653a206e6577206f776e657220697320746865207a65726f206160008201527f6464726573730000000000000000000000000000000000000000000000000000602082015250565b7f3078303030000000000000000000000000000000000000000000000000000000600082015250565b7f5061757361626c653a2070617573656400000000000000000000000000000000600082015250565b7f5072696365206f66206163636573736f7279206d75737420626520677265617460008201527f6572207468616e20300000000000000000000000000000000000000000000000602082015250565b7f4f776e61626c653a2063616c6c6572206973206e6f7420746865206f776e6572600082015250565b7f43726f776473616c653a2074686973206163636573736f7279206973206e6f7460008201527f20666f722073616c652e00000000000000000000000000000000000000000000602082015250565b7f43726f776473616c653a2062656e656669636961727920697320746865207a6560008201527f726f206164647265737300000000000000000000000000000000000000000000602082015250565b7f5265656e7472616e637947756172643a207265656e7472616e742063616c6c00600082015250565b611c2381611889565b8114611c2e57600080fd5b50565b611c3a816118ad565b8114611c4557600080fd5b50565b611c51816118b9565b8114611c5c57600080fd5b50565b611c6881611905565b8114611c7357600080fd5b5056fea264697066735822122034048c01ccf93e99a22dbd33443a5150df3d77e95541ff08c7ac50a304419cf764736f6c63430008020033",
  "immutableReferences": {},
  "source": "// contracts/BotMarket.sol\n// SPDX-License-Identifier: MIT OR Apache-2.0\npragma solidity ^0.8.2;\n\nimport \"@openzeppelin/contracts/security/ReentrancyGuard.sol\";\nimport \"@openzeppelin/contracts/token/ERC1155/IERC1155.sol\";\nimport \"@openzeppelin/contracts/token/ERC1155/utils/ERC1155Holder.sol\";\nimport \"@openzeppelin/contracts/utils/math/SafeMath.sol\";\nimport \"@openzeppelin/contracts/security/Pausable.sol\";\nimport \"@openzeppelin/contracts/access/Ownable.sol\";\nimport \"@openzeppelin/contracts/utils/Context.sol\";\n\ncontract BotMarket is Context, ReentrancyGuard, ERC1155Holder, Pausable, Ownable {\n\n    using SafeMath for uint256;\n\n    // The accessory being sold\n    IERC1155 private _accessory;\n\n    // Address where funds are collected\n    address payable private _wallet;\n\n    mapping(uint256 => Accessory) public accessories;\n\n    struct Accessory {\n        bool isForSale;\n        uint256 price;\n    }\n\n    event AccessoryListed (uint256 clazz, uint256 price);\n    event AccessoryPurchased(address indexed purchaser, address indexed beneficiary, uint256 value);\n\n\n    constructor (address payable wallet, IERC1155 accessory) {\n        require(wallet != address(0), \"wallet is the zero address\");\n        require(address(accessory) != address(0), \"accessory is the zero address\");\n\n        _wallet = wallet;\n        _accessory = accessory;\n    }\n\n    // /**\n    //  * @dev fallback function ***DO NOT OVERRIDE***\n    //  */\n    receive () external payable {\n        purchaseAccessory(_msgSender(), 1); // default to clazz 1\n    }\n\n    function getAccessory() public view returns (IERC1155) {\n        return _accessory;\n    }\n\n    function getWallet() public view returns (address payable) {\n        return _wallet;\n    }\n\n    function purchaseAccessory(address beneficiary, uint256 clazz) public whenNotPaused nonReentrant payable {\n        uint256 price = accessories[clazz].price;\n        uint256 payment = msg.value;\n        bool isForSale = accessories[clazz].isForSale;\n\n        _preValidatePurchase(beneficiary, payment, price, isForSale);\n\n        _processPurchase(beneficiary, clazz);\n        emit AccessoryPurchased(_msgSender(), beneficiary, price);\n    }\n\n    function _preValidatePurchase(address beneficiary, uint256 payment, uint256 price, bool isForSale) internal view virtual {\n        require(isForSale, \"Crowdsale: this accessory is not for sale.\");\n        require(beneficiary != address(0), \"Crowdsale: beneficiary is the zero address\");\n        require(payment >= price, \"Crowdsale: payment must be correct amount for purchasing accessory.\");\n        this; // silence state mutability warning without generating bytecode - see https://github.com/ethereum/solidity/issues/2691\n    }\n\n    function _deliverAccessory(address beneficiary, uint256 clazz) internal virtual {\n        _accessory.safeTransferFrom(address(this), beneficiary, clazz, 1, \"0x000\");\n    }\n\n    function _processPurchase(address beneficiary, uint256 clazz) internal virtual {\n        _deliverAccessory(beneficiary, clazz);\n    }\n\n    function listAccessory(uint256 clazz, uint256 price) public whenNotPaused onlyOwner {\n        require(price > 0, \"Price of accessory must be greater than 0\");\n        setAccessoryPrice(clazz, price);\n        setAccessoryForSale(clazz, true);\n\n        emit AccessoryListed(clazz, price);\n    }\n\n    function delistAccessory(uint256 clazz) public whenNotPaused onlyOwner {\n        setAccessoryForSale(clazz, false);\n    }\n\n    function setAccessoryForSale(uint256 clazz, bool isForSale) public whenNotPaused onlyOwner {\n        require(accessories[clazz].price > 0, \"Price of accessory must be greater than 0\");\n        accessories[clazz].isForSale = isForSale;\n    }\n\n    function setAccessoryPrice(uint256 clazz, uint256 price) public whenNotPaused onlyOwner {\n        accessories[clazz].price = price;\n    }\n\n    function withdrawAll() public payable onlyOwner {\n        require(_wallet.send(address(this).balance));\n    }\n}\n",
  "sourcePath": "/home/seandevs/workspaces/celo-hackathon/nfts/robots/contracts/BotMarket.sol",
  "compiler": {
    "name": "solc",
    "version": "0.8.2+commit.661d1103.Emscripten.clang"
  },
  "schemaVersion": "3.4.1",
  "updatedAt": "2021-11-23T04:57:00.556Z",
  "networkType": "ethereum",
  "devdoc": {
    "kind": "dev",
    "methods": {
      "owner()": {
        "details": "Returns the address of the current owner."
      },
      "paused()": {
        "details": "Returns true if the contract is paused, and false otherwise."
      },
      "renounceOwnership()": {
        "details": "Leaves the contract without owner. It will not be possible to call `onlyOwner` functions anymore. Can only be called by the current owner. NOTE: Renouncing ownership will leave the contract without an owner, thereby removing any functionality that is only available to the owner."
      },
      "supportsInterface(bytes4)": {
        "details": "See {IERC165-supportsInterface}."
      },
      "transferOwnership(address)": {
        "details": "Transfers ownership of the contract to a new account (`newOwner`). Can only be called by the current owner."
      }
    },
    "version": 1
  },
  "userdoc": {
    "kind": "user",
    "methods": {},
    "version": 1
  }
}