{
  "contractName": "BotMarket",
  "abi": [
    {
      "inputs": [
        {
          "internalType": "address payable",
          "name": "wallet",
          "type": "address"
        },
        {
          "internalType": "contract IERC1155",
          "name": "accessory",
          "type": "address"
        }
      ],
      "stateMutability": "nonpayable",
      "type": "constructor"
    },
    {
      "anonymous": false,
      "inputs": [
        {
          "indexed": false,
          "internalType": "uint256",
          "name": "clazz",
          "type": "uint256"
        },
        {
          "indexed": false,
          "internalType": "uint256",
          "name": "price",
          "type": "uint256"
        }
      ],
      "name": "AccessoryListed",
      "type": "event"
    },
    {
      "anonymous": false,
      "inputs": [
        {
          "indexed": true,
          "internalType": "address",
          "name": "purchaser",
          "type": "address"
        },
        {
          "indexed": true,
          "internalType": "address",
          "name": "beneficiary",
          "type": "address"
        },
        {
          "indexed": false,
          "internalType": "uint256",
          "name": "value",
          "type": "uint256"
        }
      ],
      "name": "AccessoryPurchased",
      "type": "event"
    },
    {
      "anonymous": false,
      "inputs": [
        {
          "indexed": true,
          "internalType": "address",
          "name": "previousOwner",
          "type": "address"
        },
        {
          "indexed": true,
          "internalType": "address",
          "name": "newOwner",
          "type": "address"
        }
      ],
      "name": "OwnershipTransferred",
      "type": "event"
    },
    {
      "anonymous": false,
      "inputs": [
        {
          "indexed": false,
          "internalType": "address",
          "name": "account",
          "type": "address"
        }
      ],
      "name": "Paused",
      "type": "event"
    },
    {
      "anonymous": false,
      "inputs": [
        {
          "indexed": false,
          "internalType": "address",
          "name": "account",
          "type": "address"
        }
      ],
      "name": "Unpaused",
      "type": "event"
    },
    {
      "inputs": [
        {
          "internalType": "address",
          "name": "",
          "type": "address"
        },
        {
          "internalType": "address",
          "name": "",
          "type": "address"
        },
        {
          "internalType": "uint256[]",
          "name": "",
          "type": "uint256[]"
        },
        {
          "internalType": "uint256[]",
          "name": "",
          "type": "uint256[]"
        },
        {
          "internalType": "bytes",
          "name": "",
          "type": "bytes"
        }
      ],
      "name": "onERC1155BatchReceived",
      "outputs": [
        {
          "internalType": "bytes4",
          "name": "",
          "type": "bytes4"
        }
      ],
      "stateMutability": "nonpayable",
      "type": "function"
    },
    {
      "inputs": [
        {
          "internalType": "address",
          "name": "",
          "type": "address"
        },
        {
          "internalType": "address",
          "name": "",
          "type": "address"
        },
        {
          "internalType": "uint256",
          "name": "",
          "type": "uint256"
        },
        {
          "internalType": "uint256",
          "name": "",
          "type": "uint256"
        },
        {
          "internalType": "bytes",
          "name": "",
          "type": "bytes"
        }
      ],
      "name": "onERC1155Received",
      "outputs": [
        {
          "internalType": "bytes4",
          "name": "",
          "type": "bytes4"
        }
      ],
      "stateMutability": "nonpayable",
      "type": "function"
    },
    {
      "inputs": [],
      "name": "owner",
      "outputs": [
        {
          "internalType": "address",
          "name": "",
          "type": "address"
        }
      ],
      "stateMutability": "view",
      "type": "function",
      "constant": true
    },
    {
      "inputs": [],
      "name": "paused",
      "outputs": [
        {
          "internalType": "bool",
          "name": "",
          "type": "bool"
        }
      ],
      "stateMutability": "view",
      "type": "function",
      "constant": true
    },
    {
      "inputs": [],
      "name": "renounceOwnership",
      "outputs": [],
      "stateMutability": "nonpayable",
      "type": "function"
    },
    {
      "inputs": [
        {
          "internalType": "bytes4",
          "name": "interfaceId",
          "type": "bytes4"
        }
      ],
      "name": "supportsInterface",
      "outputs": [
        {
          "internalType": "bool",
          "name": "",
          "type": "bool"
        }
      ],
      "stateMutability": "view",
      "type": "function",
      "constant": true
    },
    {
      "inputs": [
        {
          "internalType": "address",
          "name": "newOwner",
          "type": "address"
        }
      ],
      "name": "transferOwnership",
      "outputs": [],
      "stateMutability": "nonpayable",
      "type": "function"
    },
    {
      "stateMutability": "payable",
      "type": "receive",
      "payable": true
    },
    {
      "inputs": [],
      "name": "getAccessory",
      "outputs": [
        {
          "internalType": "contract IERC1155",
          "name": "",
          "type": "address"
        }
      ],
      "stateMutability": "view",
      "type": "function",
      "constant": true
    },
    {
      "inputs": [],
      "name": "getWallet",
      "outputs": [
        {
          "internalType": "address payable",
          "name": "",
          "type": "address"
        }
      ],
      "stateMutability": "view",
      "type": "function",
      "constant": true
    },
    {
      "inputs": [
        {
          "internalType": "address",
          "name": "beneficiary",
          "type": "address"
        },
        {
          "internalType": "uint256",
          "name": "clazz",
          "type": "uint256"
        }
      ],
      "name": "purchaseAccessory",
      "outputs": [],
      "stateMutability": "payable",
      "type": "function",
      "payable": true
    },
    {
      "inputs": [
        {
          "internalType": "uint256",
          "name": "clazz",
          "type": "uint256"
        },
        {
          "internalType": "uint256",
          "name": "price",
          "type": "uint256"
        }
      ],
      "name": "listAccessory",
      "outputs": [],
      "stateMutability": "nonpayable",
      "type": "function"
    },
    {
      "inputs": [
        {
          "internalType": "uint256",
          "name": "clazz",
          "type": "uint256"
        }
      ],
      "name": "delistAccessory",
      "outputs": [],
      "stateMutability": "nonpayable",
      "type": "function"
    },
    {
      "inputs": [
        {
          "internalType": "uint256",
          "name": "clazz",
          "type": "uint256"
        },
        {
          "internalType": "bool",
          "name": "isForSale",
          "type": "bool"
        }
      ],
      "name": "setAccessoryForSale",
      "outputs": [],
      "stateMutability": "nonpayable",
      "type": "function"
    },
    {
      "inputs": [
        {
          "internalType": "uint256",
          "name": "clazz",
          "type": "uint256"
        },
        {
          "internalType": "uint256",
          "name": "price",
          "type": "uint256"
        }
      ],
      "name": "setAccessoryPrice",
      "outputs": [],
      "stateMutability": "nonpayable",
      "type": "function"
    }
  ],
  "bytecode": "0x60806040523480156200001157600080fd5b5060405162002156380380620021568339818101604052810190620000379190620002e3565b60016000819055506000600160006101000a81548160ff0219169083151502179055506200007a6200006e620001ea60201b60201c565b620001f260201b60201c565b600073ffffffffffffffffffffffffffffffffffffffff168273ffffffffffffffffffffffffffffffffffffffff161415620000ed576040517f08c379a0000000000000000000000000000000000000000000000000000000008152600401620000e49062000372565b60405180910390fd5b600073ffffffffffffffffffffffffffffffffffffffff168173ffffffffffffffffffffffffffffffffffffffff16141562000160576040517f08c379a0000000000000000000000000000000000000000000000000000000008152600401620001579062000394565b60405180910390fd5b81600360006101000a81548173ffffffffffffffffffffffffffffffffffffffff021916908373ffffffffffffffffffffffffffffffffffffffff16021790555080600260006101000a81548173ffffffffffffffffffffffffffffffffffffffff021916908373ffffffffffffffffffffffffffffffffffffffff1602179055505050620004f5565b600033905090565b600060018054906101000a900473ffffffffffffffffffffffffffffffffffffffff169050816001806101000a81548173ffffffffffffffffffffffffffffffffffffffff021916908373ffffffffffffffffffffffffffffffffffffffff1602179055508173ffffffffffffffffffffffffffffffffffffffff168173ffffffffffffffffffffffffffffffffffffffff167f8be0079c531659141344cd1fd0a4f28419497f9722a3daafe3b4186f6b6457e060405160405180910390a35050565b600081519050620002c681620004c1565b92915050565b600081519050620002dd81620004db565b92915050565b60008060408385031215620002f757600080fd5b60006200030785828601620002b5565b92505060206200031a85828601620002cc565b9150509250929050565b600062000333602583620003b6565b9150620003408262000423565b604082019050919050565b60006200035a602883620003b6565b9150620003678262000472565b604082019050919050565b600060208201905081810360008301526200038d8162000324565b9050919050565b60006020820190508181036000830152620003af816200034b565b9050919050565b600082825260208201905092915050565b6000620003d48262000403565b9050919050565b6000620003e88262000403565b9050919050565b6000620003fc82620003c7565b9050919050565b600073ffffffffffffffffffffffffffffffffffffffff82169050919050565b7f426f744d61726b65743a2077616c6c657420697320746865207a65726f20616460008201527f6472657373000000000000000000000000000000000000000000000000000000602082015250565b7f426f744d61726b65743a206163636573736f727920697320746865207a65726f60008201527f2061646472657373000000000000000000000000000000000000000000000000602082015250565b620004cc81620003db565b8114620004d857600080fd5b50565b620004e681620003ef565b8114620004f257600080fd5b50565b611c5180620005056000396000f3fe6080604052600436106100e15760003560e01c80638da5cb5b1161007f578063bc197c8111610059578063bc197c8114610296578063ca23b6ee146102d3578063f23a6e61146102fc578063f2fde38b14610339576100fa565b80638da5cb5b146102245780639064dc131461024f578063ae6778d11461027a576100fa565b806344059d9b116100bb57806344059d9b1461019057806347ef2b36146101b95780635c975abb146101e2578063715018a61461020d576100fa565b806301ffc9a7146100ff5780630be713571461013c5780631329960414610165576100fa565b366100fa576100f86100f1610362565b600161036a565b005b600080fd5b34801561010b57600080fd5b5061012660048036038101906101219190611296565b6104e3565b6040516101339190611592565b60405180910390f35b34801561014857600080fd5b50610163600480360381019061015e9190611324565b61055d565b005b34801561017157600080fd5b5061017a6106b6565b604051610187919061151f565b60405180910390f35b34801561019c57600080fd5b506101b760048036038101906101b291906112bf565b6106e0565b005b3480156101c557600080fd5b506101e060048036038101906101db9190611324565b6107b2565b005b3480156101ee57600080fd5b506101f7610895565b6040516102049190611592565b60405180910390f35b34801561021957600080fd5b506102226108ac565b005b34801561023057600080fd5b50610239610934565b6040516102469190611504565b60405180910390f35b34801561025b57600080fd5b5061026461095c565b60405161027191906115c8565b60405180910390f35b610294600480360381019061028f919061125a565b61036a565b005b3480156102a257600080fd5b506102bd60048036038101906102b8919061110c565b610986565b6040516102ca91906115ad565b60405180910390f35b3480156102df57600080fd5b506102fa60048036038101906102f591906112e8565b61099b565b005b34801561030857600080fd5b50610323600480360381019061031e91906111cb565b610aea565b60405161033091906115ad565b60405180910390f35b34801561034557600080fd5b50610360600480360381019061035b91906110e3565b610aff565b005b600033905090565b600260005414156103b0576040517f08c379a00000000000000000000000000000000000000000000000000000000081526004016103a7906116c3565b60405180910390fd5b60026000819055506103c0610895565b15610400576040517f08c379a00000000000000000000000000000000000000000000000000000000081526004016103f790611623565b60405180910390fd5b600060046000838152602001908152602001600020600101549050600034905060006004600085815260200190815260200160002060000160009054906101000a900460ff16905061045485838584610bf7565b61045e8585610cf0565b8473ffffffffffffffffffffffffffffffffffffffff1661047d610362565b73ffffffffffffffffffffffffffffffffffffffff167fe0cc08cd6445055fb96ba62706d6598dd171f8a45e41f20be587f05446c95829856040516104c291906116e3565b60405180910390a36104d48383610cfe565b50505060016000819055505050565b60007f4e2312e0000000000000000000000000000000000000000000000000000000007bffffffffffffffffffffffffffffffffffffffffffffffffffffffff1916827bffffffffffffffffffffffffffffffffffffffffffffffffffffffff19161480610556575061055582610dcc565b5b9050919050565b610565610895565b156105a5576040517f08c379a000000000000000000000000000000000000000000000000000000000815260040161059c90611623565b60405180910390fd5b6105ad610362565b73ffffffffffffffffffffffffffffffffffffffff166105cb610934565b73ffffffffffffffffffffffffffffffffffffffff1614610621576040517f08c379a000000000000000000000000000000000000000000000000000000000815260040161061890611663565b60405180910390fd5b60008111610664576040517f08c379a000000000000000000000000000000000000000000000000000000000815260040161065b90611643565b60405180910390fd5b61066e82826107b2565b61067982600161099b565b7f8b150673121b01316e8e9f04c655dcb53717f3ea8192a7606efea4685085293482826040516106aa9291906116fe565b60405180910390a15050565b6000600360009054906101000a900473ffffffffffffffffffffffffffffffffffffffff16905090565b6106e8610895565b15610728576040517f08c379a000000000000000000000000000000000000000000000000000000000815260040161071f90611623565b60405180910390fd5b610730610362565b73ffffffffffffffffffffffffffffffffffffffff1661074e610934565b73ffffffffffffffffffffffffffffffffffffffff16146107a4576040517f08c379a000000000000000000000000000000000000000000000000000000000815260040161079b90611663565b60405180910390fd5b6107af81600061099b565b50565b6107ba610895565b156107fa576040517f08c379a00000000000000000000000000000000000000000000000000000000081526004016107f190611623565b60405180910390fd5b610802610362565b73ffffffffffffffffffffffffffffffffffffffff16610820610934565b73ffffffffffffffffffffffffffffffffffffffff1614610876576040517f08c379a000000000000000000000000000000000000000000000000000000000815260040161086d90611663565b60405180910390fd5b8060046000848152602001908152602001600020600101819055505050565b6000600160009054906101000a900460ff16905090565b6108b4610362565b73ffffffffffffffffffffffffffffffffffffffff166108d2610934565b73ffffffffffffffffffffffffffffffffffffffff1614610928576040517f08c379a000000000000000000000000000000000000000000000000000000000815260040161091f90611663565b60405180910390fd5b6109326000610e36565b565b600060018054906101000a900473ffffffffffffffffffffffffffffffffffffffff16905090565b6000600260009054906101000a900473ffffffffffffffffffffffffffffffffffffffff16905090565b600063bc197c8160e01b905095945050505050565b6109a3610895565b156109e3576040517f08c379a00000000000000000000000000000000000000000000000000000000081526004016109da90611623565b60405180910390fd5b6109eb610362565b73ffffffffffffffffffffffffffffffffffffffff16610a09610934565b73ffffffffffffffffffffffffffffffffffffffff1614610a5f576040517f08c379a0000000000000000000000000000000000000000000000000000000008152600401610a5690611663565b60405180910390fd5b6000600460008481526020019081526020016000206001015411610ab8576040517f08c379a0000000000000000000000000000000000000000000000000000000008152600401610aaf90611643565b60405180910390fd5b806004600084815260200190815260200160002060000160006101000a81548160ff0219169083151502179055505050565b600063f23a6e6160e01b905095945050505050565b610b07610362565b73ffffffffffffffffffffffffffffffffffffffff16610b25610934565b73ffffffffffffffffffffffffffffffffffffffff1614610b7b576040517f08c379a0000000000000000000000000000000000000000000000000000000008152600401610b7290611663565b60405180910390fd5b600073ffffffffffffffffffffffffffffffffffffffff168173ffffffffffffffffffffffffffffffffffffffff161415610beb576040517f08c379a0000000000000000000000000000000000000000000000000000000008152600401610be290611603565b60405180910390fd5b610bf481610e36565b50565b80610c37576040517f08c379a0000000000000000000000000000000000000000000000000000000008152600401610c2e90611683565b60405180910390fd5b600073ffffffffffffffffffffffffffffffffffffffff168473ffffffffffffffffffffffffffffffffffffffff161415610ca7576040517f08c379a0000000000000000000000000000000000000000000000000000000008152600401610c9e906116a3565b60405180910390fd5b81831015610cea576040517f08c379a0000000000000000000000000000000000000000000000000000000008152600401610ce1906115e3565b60405180910390fd5b50505050565b610cfa8282610ef9565b5050565b600360009054906101000a900473ffffffffffffffffffffffffffffffffffffffff1673ffffffffffffffffffffffffffffffffffffffff166108fc839081150290604051600060405180830381858888f19350505050158015610d66573d6000803e3d6000fd5b5081811115610dc85760003390508073ffffffffffffffffffffffffffffffffffffffff166108fc8484610d9a91906117cb565b9081150290604051600060405180830381858888f19350505050158015610dc5573d6000803e3d6000fd5b50505b5050565b60007f01ffc9a7000000000000000000000000000000000000000000000000000000007bffffffffffffffffffffffffffffffffffffffffffffffffffffffff1916827bffffffffffffffffffffffffffffffffffffffffffffffffffffffff1916149050919050565b600060018054906101000a900473ffffffffffffffffffffffffffffffffffffffff169050816001806101000a81548173ffffffffffffffffffffffffffffffffffffffff021916908373ffffffffffffffffffffffffffffffffffffffff1602179055508173ffffffffffffffffffffffffffffffffffffffff168173ffffffffffffffffffffffffffffffffffffffff167f8be0079c531659141344cd1fd0a4f28419497f9722a3daafe3b4186f6b6457e060405160405180910390a35050565b600260009054906101000a900473ffffffffffffffffffffffffffffffffffffffff1673ffffffffffffffffffffffffffffffffffffffff1663f242432a30848460016040518563ffffffff1660e01b8152600401610f5b949392919061153a565b600060405180830381600087803b158015610f7557600080fd5b505af1158015610f89573d6000803e3d6000fd5b505050505050565b6000610fa4610f9f8461174c565b611727565b90508083825260208201905082856020860282011115610fc357600080fd5b60005b85811015610ff35781610fd988826110ce565b845260208401935060208301925050600181019050610fc6565b5050509392505050565b600061101061100b84611778565b611727565b90508281526020810184848401111561102857600080fd5b6110338482856118bb565b509392505050565b60008135905061104a81611bbf565b92915050565b600082601f83011261106157600080fd5b8135611071848260208601610f91565b91505092915050565b60008135905061108981611bd6565b92915050565b60008135905061109e81611bed565b92915050565b600082601f8301126110b557600080fd5b81356110c5848260208601610ffd565b91505092915050565b6000813590506110dd81611c04565b92915050565b6000602082840312156110f557600080fd5b60006111038482850161103b565b91505092915050565b600080600080600060a0868803121561112457600080fd5b60006111328882890161103b565b95505060206111438882890161103b565b945050604086013567ffffffffffffffff81111561116057600080fd5b61116c88828901611050565b935050606086013567ffffffffffffffff81111561118957600080fd5b61119588828901611050565b925050608086013567ffffffffffffffff8111156111b257600080fd5b6111be888289016110a4565b9150509295509295909350565b600080600080600060a086880312156111e357600080fd5b60006111f18882890161103b565b95505060206112028882890161103b565b9450506040611213888289016110ce565b9350506060611224888289016110ce565b925050608086013567ffffffffffffffff81111561124157600080fd5b61124d888289016110a4565b9150509295509295909350565b6000806040838503121561126d57600080fd5b600061127b8582860161103b565b925050602061128c858286016110ce565b9150509250929050565b6000602082840312156112a857600080fd5b60006112b68482850161108f565b91505092915050565b6000602082840312156112d157600080fd5b60006112df848285016110ce565b91505092915050565b600080604083850312156112fb57600080fd5b6000611309858286016110ce565b925050602061131a8582860161107a565b9150509250929050565b6000806040838503121561133757600080fd5b6000611345858286016110ce565b9250506020611356858286016110ce565b9150509250929050565b61136981611811565b82525050565b611378816117ff565b82525050565b61138781611823565b82525050565b6113968161182f565b82525050565b6113a581611885565b82525050565b6113b4816118a9565b82525050565b60006113c76043836117ba565b91506113d28261196a565b606082019050919050565b60006113ea6026836117ba565b91506113f5826119df565b604082019050919050565b600061140d6005836117a9565b915061141882611a2e565b602082019050919050565b60006114306010836117ba565b915061143b82611a57565b602082019050919050565b60006114536029836117ba565b915061145e82611a80565b604082019050919050565b60006114766020836117ba565b915061148182611acf565b602082019050919050565b6000611499602a836117ba565b91506114a482611af8565b604082019050919050565b60006114bc602a836117ba565b91506114c782611b47565b604082019050919050565b60006114df601f836117ba565b91506114ea82611b96565b602082019050919050565b6114fe8161187b565b82525050565b6000602082019050611519600083018461136f565b92915050565b60006020820190506115346000830184611360565b92915050565b600060a08201905061154f600083018761136f565b61155c602083018661136f565b61156960408301856114f5565b61157660608301846113ab565b818103608083015261158781611400565b905095945050505050565b60006020820190506115a7600083018461137e565b92915050565b60006020820190506115c2600083018461138d565b92915050565b60006020820190506115dd600083018461139c565b92915050565b600060208201905081810360008301526115fc816113ba565b9050919050565b6000602082019050818103600083015261161c816113dd565b9050919050565b6000602082019050818103600083015261163c81611423565b9050919050565b6000602082019050818103600083015261165c81611446565b9050919050565b6000602082019050818103600083015261167c81611469565b9050919050565b6000602082019050818103600083015261169c8161148c565b9050919050565b600060208201905081810360008301526116bc816114af565b9050919050565b600060208201905081810360008301526116dc816114d2565b9050919050565b60006020820190506116f860008301846114f5565b92915050565b600060408201905061171360008301856114f5565b61172060208301846114f5565b9392505050565b6000611731611742565b905061173d82826118ca565b919050565b6000604051905090565b600067ffffffffffffffff8211156117675761176661192a565b5b602082029050602081019050919050565b600067ffffffffffffffff8211156117935761179261192a565b5b61179c82611959565b9050602081019050919050565b600082825260208201905092915050565b600082825260208201905092915050565b60006117d68261187b565b91506117e18361187b565b9250828210156117f4576117f36118fb565b5b828203905092915050565b600061180a8261185b565b9050919050565b600061181c8261185b565b9050919050565b60008115159050919050565b60007fffffffff0000000000000000000000000000000000000000000000000000000082169050919050565b600073ffffffffffffffffffffffffffffffffffffffff82169050919050565b6000819050919050565b600061189082611897565b9050919050565b60006118a28261185b565b9050919050565b60006118b48261187b565b9050919050565b82818337600083830152505050565b6118d382611959565b810181811067ffffffffffffffff821117156118f2576118f161192a565b5b80604052505050565b7f4e487b7100000000000000000000000000000000000000000000000000000000600052601160045260246000fd5b7f4e487b7100000000000000000000000000000000000000000000000000000000600052604160045260246000fd5b6000601f19601f8301169050919050565b7f43726f776473616c653a207061796d656e74206d75737420626520636f72726560008201527f637420616d6f756e7420666f722070757263686173696e67206163636573736f60208201527f72792e0000000000000000000000000000000000000000000000000000000000604082015250565b7f4f776e61626c653a206e6577206f776e657220697320746865207a65726f206160008201527f6464726573730000000000000000000000000000000000000000000000000000602082015250565b7f3078303030000000000000000000000000000000000000000000000000000000600082015250565b7f5061757361626c653a2070617573656400000000000000000000000000000000600082015250565b7f5072696365206f66206163636573736f7279206d75737420626520677265617460008201527f6572207468616e20300000000000000000000000000000000000000000000000602082015250565b7f4f776e61626c653a2063616c6c6572206973206e6f7420746865206f776e6572600082015250565b7f43726f776473616c653a2074686973206163636573736f7279206973206e6f7460008201527f20666f722073616c652e00000000000000000000000000000000000000000000602082015250565b7f43726f776473616c653a2062656e656669636961727920697320746865207a6560008201527f726f206164647265737300000000000000000000000000000000000000000000602082015250565b7f5265656e7472616e637947756172643a207265656e7472616e742063616c6c00600082015250565b611bc8816117ff565b8114611bd357600080fd5b50565b611bdf81611823565b8114611bea57600080fd5b50565b611bf68161182f565b8114611c0157600080fd5b50565b611c0d8161187b565b8114611c1857600080fd5b5056fea26469706673582212208ac42971a5a85cdc8e352ca389b01bfee8a013d034ab87e077cea7c1fcf3e26164736f6c63430008020033",
  "immutableReferences": {},
  "source": "// contracts/Market.sol\n// SPDX-License-Identifier: MIT OR Apache-2.0\n// https://dev.to/dabit3/building-scalable-full-stack-apps-on-ethereum-with-polygon-2cfb\npragma solidity ^0.8.2;\n\n// import \"@openzeppelin/contracts/utils/Counters.sol\";\nimport \"@openzeppelin/contracts/security/ReentrancyGuard.sol\";\nimport \"@openzeppelin/contracts/token/ERC1155/IERC1155.sol\";\nimport \"@openzeppelin/contracts/utils/math/SafeMath.sol\";\nimport \"@openzeppelin/contracts/security/Pausable.sol\";\nimport \"@openzeppelin/contracts/access/Ownable.sol\";\nimport \"@openzeppelin/contracts/utils/Context.sol\";\nimport \"@openzeppelin/contracts/token/ERC1155/utils/ERC1155Holder.sol\";\n\n// contract BotMarket is ReentrancyGuard, ERC1155Receiver {\ncontract BotMarket is Context, ReentrancyGuard, ERC1155Holder, Pausable, Ownable {\n\n    using SafeMath for uint256;\n\n    // The accessory being sold\n    IERC1155 private _accessory;\n\n    // Address where funds are collected\n    address payable private _wallet;\n\n    mapping(uint256 => Accessory) private accessories;\n\n    struct Accessory {\n        bool isForSale;\n        uint256 price;\n    }\n\n    event AccessoryListed (uint256 clazz, uint256 price);\n    event AccessoryPurchased(address indexed purchaser, address indexed beneficiary, uint256 value);\n\n\n    constructor (address payable wallet, IERC1155 accessory) {\n        require(wallet != address(0), \"BotMarket: wallet is the zero address\");\n        require(address(accessory) != address(0), \"BotMarket: accessory is the zero address\");\n\n        _wallet = wallet;\n        _accessory = accessory;\n    }\n\n    // /**\n    //  * @dev fallback function ***DO NOT OVERRIDE***\n    //  * Note that other contracts will transfer funds with a base gas stipend\n    //  * of 2300, which is not enough to call purchaseAccessory. Consider calling\n    //  * purchaseAccessory directly when purchasing accessories from a contract.\n    //  */\n    receive () external payable {\n        purchaseAccessory(_msgSender(), 1); // default to clazz 1\n    }\n\n    // /**\n    //  * @return the accessory being sold.\n    //  */\n    function getAccessory() public view returns (IERC1155) {\n        return _accessory;\n    }\n\n    // /**\n    //  * @return the address where funds are collected.\n    //  */\n    function getWallet() public view returns (address payable) {\n        return _wallet;\n    }\n\n    function purchaseAccessory(address beneficiary, uint256 clazz) public nonReentrant whenNotPaused payable {\n        uint256 price = accessories[clazz].price;\n        uint256 payment = msg.value;\n        bool isForSale = accessories[clazz].isForSale;\n\n        _preValidatePurchase(beneficiary, payment, price, isForSale);\n\n        _processPurchase(beneficiary, clazz);\n        emit AccessoryPurchased(_msgSender(), beneficiary, price);\n\n        _forwardFunds(price, payment);\n    }\n\n    function _preValidatePurchase(address beneficiary, uint256 payment, uint256 price, bool isForSale) internal view virtual {\n        require(isForSale, \"Crowdsale: this accessory is not for sale.\");\n        require(beneficiary != address(0), \"Crowdsale: beneficiary is the zero address\");\n        require(payment >= price, \"Crowdsale: payment must be correct amount for purchasing accessory.\");\n        this; // silence state mutability warning without generating bytecode - see https://github.com/ethereum/solidity/issues/2691\n    }\n\n    function _deliverAccessory(address beneficiary, uint256 clazz) internal virtual {\n        _accessory.safeTransferFrom(address(this), beneficiary, clazz, 1, \"0x000\");\n    }\n\n    function _processPurchase(address beneficiary, uint256 clazz) internal virtual {\n        _deliverAccessory(beneficiary, clazz);\n    }\n\n    function _forwardFunds(uint256 price, uint256 payment) internal virtual {\n        _wallet.transfer(price);\n        if(payment > price) {\n            address payable buyerAddressPayable = payable(msg.sender); // We need to make this conversion to be able to use transfer() function to transfer ethers\n            buyerAddressPayable.transfer(payment - price);\n        }\n    }\n\n    function listAccessory(uint256 clazz, uint256 price) public whenNotPaused onlyOwner {\n        require(price > 0, \"Price of accessory must be greater than 0\");\n        setAccessoryPrice(clazz, price);\n        setAccessoryForSale(clazz, true);\n\n        emit AccessoryListed(clazz, price);\n    }\n\n    function delistAccessory(uint256 clazz) public whenNotPaused onlyOwner {\n        setAccessoryForSale(clazz, false);\n    }\n\n    function setAccessoryForSale(uint256 clazz, bool isForSale) public whenNotPaused onlyOwner {\n        require(accessories[clazz].price > 0, \"Price of accessory must be greater than 0\");\n        accessories[clazz].isForSale = isForSale;\n    }\n\n    function setAccessoryPrice(uint256 clazz, uint256 price) public whenNotPaused onlyOwner {\n        accessories[clazz].price = price;\n    }\n}\n\n// contract BotMarket is ReentrancyGuard {\n//     using Counters for Counters.Counter;\n//     Counters.Counter private _itemIds;\n//     Counters.Counter private _itemsSold;\n\n//     address payable owner;\n//     uint256 listingPrice = 0.015 ether; // cost to list item\n\n//     constructor() {\n//         owner = payable(msg.sender);\n//     }\n\n//     struct MarketItem {\n//         uint itemId;\n//         address nftContract;\n//         uint256 tokenId;\n//         address payable seller;\n//         address payable owner;\n//         uint256 price;\n//         bool sold;\n//     }\n\n//     mapping(uint256 => MarketItem) private idToMarketItem;\n\n//     event MarketItemCreated (\n//         uint indexed itemId,\n//         address indexed nftContract,\n//         uint256 indexed tokenId,\n//         address seller,\n//         address owner,\n//         uint256 price,\n//         bool sold\n//     );\n\n//     /* Returns the listing price of the contract */\n//     function getListingPrice() public view returns (uint256) {\n//         return listingPrice;\n//     }\n\n//     /* Places an item for sale on the marketplace */\n//     function createMarketItem(\n//         address nftContract,\n//         uint256 tokenId,\n//         uint256 price\n//     ) public payable nonReentrant {\n//         require(price > 0, \"Price must be at least 1 wei\");\n//         require(msg.value == listingPrice, \"Price must be equal to listing price\");\n\n//         _itemIds.increment();\n//         uint256 itemId = _itemIds.current();\n\n//         idToMarketItem[itemId] =  MarketItem(\n//             itemId,\n//             nftContract,\n//             tokenId,\n//             payable(msg.sender),\n//             payable(address(0)), // zero address for contract\n//             price,\n//             false\n//         );\n\n//         IERC721(nftContract).transferFrom(msg.sender, address(this), tokenId);\n\n//         emit MarketItemCreated(\n//             itemId,\n//             nftContract,\n//             tokenId,\n//             msg.sender,\n//             address(0),\n//             price,\n//             false\n//         );\n//     }\n\n//     /* Creates the sale of a marketplace item */\n//     /* Transfers ownership of the item, as well as funds between parties */\n//     function createMarketSale(\n//         address nftContract,\n//         uint256 itemId\n//     ) public payable nonReentrant {\n//         uint price = idToMarketItem[itemId].price;\n//         uint tokenId = idToMarketItem[itemId].tokenId;\n//         require(msg.value == price, \"Please submit the asking price in order to complete the purchase\");\n\n//         idToMarketItem[itemId].seller.transfer(msg.value);\n//         IERC721(nftContract).transferFrom(address(this), msg.sender, tokenId);\n//         idToMarketItem[itemId].owner = payable(msg.sender);\n//         idToMarketItem[itemId].sold = true;\n//         _itemsSold.increment();\n//         payable(owner).transfer(listingPrice);\n//     }\n\n//     /* Returns all unsold market items */\n//     function fetchMarketItems() public view returns (MarketItem[] memory) {\n//         uint itemCount = _itemIds.current();\n//         uint unsoldItemCount = _itemIds.current() - _itemsSold.current();\n//         uint currentIndex = 0;\n\n//         MarketItem[] memory items = new MarketItem[](unsoldItemCount);\n//         for (uint i = 0; i < itemCount; i++) {\n//             if (idToMarketItem[i + 1].owner == address(0)) {\n//                 uint currentId = i + 1;\n//                 MarketItem storage currentItem = idToMarketItem[currentId];\n//                 items[currentIndex] = currentItem;\n//                 currentIndex += 1;\n//             }\n//         }\n//         return items;\n//     }\n\n//     /* Returns only items that a user has purchased */\n//     function fetchMyNFTs() public view returns (MarketItem[] memory) {\n//         uint totalItemCount = _itemIds.current();\n//         uint itemCount = 0;\n//         uint currentIndex = 0;\n\n//         for (uint i = 0; i < totalItemCount; i++) {\n//             if (idToMarketItem[i + 1].owner == msg.sender) {\n//                 itemCount += 1;\n//             }\n//         }\n\n//         MarketItem[] memory items = new MarketItem[](itemCount);\n//         for (uint i = 0; i < totalItemCount; i++) {\n//             if (idToMarketItem[i + 1].owner == msg.sender) {\n//                 uint currentId = i + 1;\n//                 MarketItem storage currentItem = idToMarketItem[currentId];\n//                 items[currentIndex] = currentItem;\n//                 currentIndex += 1;\n//             }\n//         }\n//         return items;\n//     }\n\n//     /* Returns only items a user has created */\n//     function fetchItemsCreated() public view returns (MarketItem[] memory) {\n//         uint totalItemCount = _itemIds.current();\n//         uint itemCount = 0;\n//         uint currentIndex = 0;\n\n//         for (uint i = 0; i < totalItemCount; i++) {\n//             if (idToMarketItem[i + 1].seller == msg.sender) {\n//                 itemCount += 1;\n//             }\n//         }\n\n//         MarketItem[] memory items = new MarketItem[](itemCount);\n//         for (uint i = 0; i < totalItemCount; i++) {\n//             if (idToMarketItem[i + 1].seller == msg.sender) {\n//                 uint currentId = i + 1;\n//                 MarketItem storage currentItem = idToMarketItem[currentId];\n//                 items[currentIndex] = currentItem;\n//                 currentIndex += 1;\n//             }\n//         }\n//         return items;\n//     }\n// }\n",
  "sourcePath": "/home/seandevs/workspaces/celo-hackathon/nfts/robots/contracts/BotMarket.sol",
  "compiler": {
    "name": "solc",
    "version": "0.8.2+commit.661d1103.Emscripten.clang"
  },
  "schemaVersion": "3.4.1",
  "updatedAt": "2021-11-01T15:15:35.838Z",
  "networkType": "ethereum",
  "devdoc": {
    "kind": "dev",
    "methods": {
      "owner()": {
        "details": "Returns the address of the current owner."
      },
      "paused()": {
        "details": "Returns true if the contract is paused, and false otherwise."
      },
      "renounceOwnership()": {
        "details": "Leaves the contract without owner. It will not be possible to call `onlyOwner` functions anymore. Can only be called by the current owner. NOTE: Renouncing ownership will leave the contract without an owner, thereby removing any functionality that is only available to the owner."
      },
      "supportsInterface(bytes4)": {
        "details": "See {IERC165-supportsInterface}."
      },
      "transferOwnership(address)": {
        "details": "Transfers ownership of the contract to a new account (`newOwner`). Can only be called by the current owner."
      }
    },
    "version": 1
  },
  "userdoc": {
    "kind": "user",
    "methods": {},
    "version": 1
  }
}