{
  "contractName": "BotMarket",
  "abi": [
    {
      "inputs": [
        {
          "internalType": "address payable",
          "name": "wallet",
          "type": "address"
        },
        {
          "internalType": "contract IERC1155",
          "name": "accessory",
          "type": "address"
        }
      ],
      "stateMutability": "nonpayable",
      "type": "constructor"
    },
    {
      "anonymous": false,
      "inputs": [
        {
          "indexed": false,
          "internalType": "uint256",
          "name": "clazz",
          "type": "uint256"
        },
        {
          "indexed": false,
          "internalType": "uint256",
          "name": "price",
          "type": "uint256"
        }
      ],
      "name": "AccessoryListed",
      "type": "event"
    },
    {
      "anonymous": false,
      "inputs": [
        {
          "indexed": true,
          "internalType": "address",
          "name": "purchaser",
          "type": "address"
        },
        {
          "indexed": true,
          "internalType": "address",
          "name": "beneficiary",
          "type": "address"
        },
        {
          "indexed": false,
          "internalType": "uint256",
          "name": "value",
          "type": "uint256"
        }
      ],
      "name": "AccessoryPurchased",
      "type": "event"
    },
    {
      "anonymous": false,
      "inputs": [
        {
          "indexed": true,
          "internalType": "address",
          "name": "previousOwner",
          "type": "address"
        },
        {
          "indexed": true,
          "internalType": "address",
          "name": "newOwner",
          "type": "address"
        }
      ],
      "name": "OwnershipTransferred",
      "type": "event"
    },
    {
      "anonymous": false,
      "inputs": [
        {
          "indexed": false,
          "internalType": "address",
          "name": "account",
          "type": "address"
        }
      ],
      "name": "Paused",
      "type": "event"
    },
    {
      "anonymous": false,
      "inputs": [
        {
          "indexed": false,
          "internalType": "address",
          "name": "account",
          "type": "address"
        }
      ],
      "name": "Unpaused",
      "type": "event"
    },
    {
      "inputs": [
        {
          "internalType": "address",
          "name": "",
          "type": "address"
        },
        {
          "internalType": "address",
          "name": "",
          "type": "address"
        },
        {
          "internalType": "uint256[]",
          "name": "",
          "type": "uint256[]"
        },
        {
          "internalType": "uint256[]",
          "name": "",
          "type": "uint256[]"
        },
        {
          "internalType": "bytes",
          "name": "",
          "type": "bytes"
        }
      ],
      "name": "onERC1155BatchReceived",
      "outputs": [
        {
          "internalType": "bytes4",
          "name": "",
          "type": "bytes4"
        }
      ],
      "stateMutability": "nonpayable",
      "type": "function"
    },
    {
      "inputs": [
        {
          "internalType": "address",
          "name": "",
          "type": "address"
        },
        {
          "internalType": "address",
          "name": "",
          "type": "address"
        },
        {
          "internalType": "uint256",
          "name": "",
          "type": "uint256"
        },
        {
          "internalType": "uint256",
          "name": "",
          "type": "uint256"
        },
        {
          "internalType": "bytes",
          "name": "",
          "type": "bytes"
        }
      ],
      "name": "onERC1155Received",
      "outputs": [
        {
          "internalType": "bytes4",
          "name": "",
          "type": "bytes4"
        }
      ],
      "stateMutability": "nonpayable",
      "type": "function"
    },
    {
      "inputs": [],
      "name": "owner",
      "outputs": [
        {
          "internalType": "address",
          "name": "",
          "type": "address"
        }
      ],
      "stateMutability": "view",
      "type": "function",
      "constant": true
    },
    {
      "inputs": [],
      "name": "paused",
      "outputs": [
        {
          "internalType": "bool",
          "name": "",
          "type": "bool"
        }
      ],
      "stateMutability": "view",
      "type": "function",
      "constant": true
    },
    {
      "inputs": [],
      "name": "renounceOwnership",
      "outputs": [],
      "stateMutability": "nonpayable",
      "type": "function"
    },
    {
      "inputs": [
        {
          "internalType": "bytes4",
          "name": "interfaceId",
          "type": "bytes4"
        }
      ],
      "name": "supportsInterface",
      "outputs": [
        {
          "internalType": "bool",
          "name": "",
          "type": "bool"
        }
      ],
      "stateMutability": "view",
      "type": "function",
      "constant": true
    },
    {
      "inputs": [
        {
          "internalType": "address",
          "name": "newOwner",
          "type": "address"
        }
      ],
      "name": "transferOwnership",
      "outputs": [],
      "stateMutability": "nonpayable",
      "type": "function"
    },
    {
      "stateMutability": "payable",
      "type": "receive",
      "payable": true
    },
    {
      "inputs": [],
      "name": "getAccessory",
      "outputs": [
        {
          "internalType": "contract IERC1155",
          "name": "",
          "type": "address"
        }
      ],
      "stateMutability": "view",
      "type": "function",
      "constant": true
    },
    {
      "inputs": [],
      "name": "getWallet",
      "outputs": [
        {
          "internalType": "address payable",
          "name": "",
          "type": "address"
        }
      ],
      "stateMutability": "view",
      "type": "function",
      "constant": true
    },
    {
      "inputs": [
        {
          "internalType": "address",
          "name": "beneficiary",
          "type": "address"
        },
        {
          "internalType": "uint256",
          "name": "clazz",
          "type": "uint256"
        }
      ],
      "name": "purchaseAccessory",
      "outputs": [],
      "stateMutability": "payable",
      "type": "function",
      "payable": true
    },
    {
      "inputs": [
        {
          "internalType": "uint256",
          "name": "clazz",
          "type": "uint256"
        },
        {
          "internalType": "uint256",
          "name": "price",
          "type": "uint256"
        }
      ],
      "name": "listAccessory",
      "outputs": [],
      "stateMutability": "nonpayable",
      "type": "function"
    },
    {
      "inputs": [
        {
          "internalType": "uint256",
          "name": "clazz",
          "type": "uint256"
        }
      ],
      "name": "delistAccessory",
      "outputs": [],
      "stateMutability": "nonpayable",
      "type": "function"
    },
    {
      "inputs": [
        {
          "internalType": "uint256",
          "name": "clazz",
          "type": "uint256"
        },
        {
          "internalType": "bool",
          "name": "isForSale",
          "type": "bool"
        }
      ],
      "name": "setAccessoryForSale",
      "outputs": [],
      "stateMutability": "nonpayable",
      "type": "function"
    },
    {
      "inputs": [
        {
          "internalType": "uint256",
          "name": "clazz",
          "type": "uint256"
        },
        {
          "internalType": "uint256",
          "name": "price",
          "type": "uint256"
        }
      ],
      "name": "setAccessoryPrice",
      "outputs": [],
      "stateMutability": "nonpayable",
      "type": "function"
    }
  ],
  "bytecode": "0x60806040523480156200001157600080fd5b50604051620021ac380380620021ac8339818101604052810190620000379190620002e3565b60016000819055506000600160006101000a81548160ff0219169083151502179055506200007a6200006e620001ea60201b60201c565b620001f260201b60201c565b600073ffffffffffffffffffffffffffffffffffffffff168273ffffffffffffffffffffffffffffffffffffffff161415620000ed576040517f08c379a0000000000000000000000000000000000000000000000000000000008152600401620000e49062000372565b60405180910390fd5b600073ffffffffffffffffffffffffffffffffffffffff168173ffffffffffffffffffffffffffffffffffffffff16141562000160576040517f08c379a0000000000000000000000000000000000000000000000000000000008152600401620001579062000394565b60405180910390fd5b81600360006101000a81548173ffffffffffffffffffffffffffffffffffffffff021916908373ffffffffffffffffffffffffffffffffffffffff16021790555080600260006101000a81548173ffffffffffffffffffffffffffffffffffffffff021916908373ffffffffffffffffffffffffffffffffffffffff1602179055505050620004f5565b600033905090565b600060018054906101000a900473ffffffffffffffffffffffffffffffffffffffff169050816001806101000a81548173ffffffffffffffffffffffffffffffffffffffff021916908373ffffffffffffffffffffffffffffffffffffffff1602179055508173ffffffffffffffffffffffffffffffffffffffff168173ffffffffffffffffffffffffffffffffffffffff167f8be0079c531659141344cd1fd0a4f28419497f9722a3daafe3b4186f6b6457e060405160405180910390a35050565b600081519050620002c681620004c1565b92915050565b600081519050620002dd81620004db565b92915050565b60008060408385031215620002f757600080fd5b60006200030785828601620002b5565b92505060206200031a85828601620002cc565b9150509250929050565b600062000333602583620003b6565b9150620003408262000423565b604082019050919050565b60006200035a602883620003b6565b9150620003678262000472565b604082019050919050565b600060208201905081810360008301526200038d8162000324565b9050919050565b60006020820190508181036000830152620003af816200034b565b9050919050565b600082825260208201905092915050565b6000620003d48262000403565b9050919050565b6000620003e88262000403565b9050919050565b6000620003fc82620003c7565b9050919050565b600073ffffffffffffffffffffffffffffffffffffffff82169050919050565b7f426f744d61726b65743a2077616c6c657420697320746865207a65726f20616460008201527f6472657373000000000000000000000000000000000000000000000000000000602082015250565b7f426f744d61726b65743a206163636573736f727920697320746865207a65726f60008201527f2061646472657373000000000000000000000000000000000000000000000000602082015250565b620004cc81620003db565b8114620004d857600080fd5b50565b620004e681620003ef565b8114620004f257600080fd5b50565b611ca780620005056000396000f3fe6080604052600436106100e15760003560e01c80638da5cb5b1161007f578063bc197c8111610059578063bc197c8114610296578063ca23b6ee146102d3578063f23a6e61146102fc578063f2fde38b14610339576100fa565b80638da5cb5b146102245780639064dc131461024f578063ae6778d11461027a576100fa565b806344059d9b116100bb57806344059d9b1461019057806347ef2b36146101b95780635c975abb146101e2578063715018a61461020d576100fa565b806301ffc9a7146100ff5780630be713571461013c5780631329960414610165576100fa565b366100fa576100f86100f1610362565b600161036a565b005b600080fd5b34801561010b57600080fd5b50610126600480360381019061012191906112ec565b610539565b60405161013391906115e8565b60405180910390f35b34801561014857600080fd5b50610163600480360381019061015e919061137a565b6105b3565b005b34801561017157600080fd5b5061017a61070c565b6040516101879190611575565b60405180910390f35b34801561019c57600080fd5b506101b760048036038101906101b29190611315565b610736565b005b3480156101c557600080fd5b506101e060048036038101906101db919061137a565b610808565b005b3480156101ee57600080fd5b506101f76108eb565b60405161020491906115e8565b60405180910390f35b34801561021957600080fd5b50610222610902565b005b34801561023057600080fd5b5061023961098a565b604051610246919061155a565b60405180910390f35b34801561025b57600080fd5b506102646109b2565b604051610271919061161e565b60405180910390f35b610294600480360381019061028f91906112b0565b61036a565b005b3480156102a257600080fd5b506102bd60048036038101906102b89190611162565b6109dc565b6040516102ca9190611603565b60405180910390f35b3480156102df57600080fd5b506102fa60048036038101906102f5919061133e565b6109f1565b005b34801561030857600080fd5b50610323600480360381019061031e9190611221565b610b40565b6040516103309190611603565b60405180910390f35b34801561034557600080fd5b50610360600480360381019061035b9190611139565b610b55565b005b600033905090565b600260005414156103b0576040517f08c379a00000000000000000000000000000000000000000000000000000000081526004016103a790611719565b60405180910390fd5b60026000819055506103c06108eb565b15610400576040517f08c379a00000000000000000000000000000000000000000000000000000000081526004016103f790611679565b60405180910390fd5b60026000541415610446576040517f08c379a000000000000000000000000000000000000000000000000000000000815260040161043d90611719565b60405180910390fd5b6002600081905550600060046000838152602001908152602001600020600101549050600034905060006004600085815260200190815260200160002060000160009054906101000a900460ff1690506104a285838584610c4d565b6104ac8585610d46565b8473ffffffffffffffffffffffffffffffffffffffff166104cb610362565b73ffffffffffffffffffffffffffffffffffffffff167fe0cc08cd6445055fb96ba62706d6598dd171f8a45e41f20be587f05446c95829856040516105109190611739565b60405180910390a36105228383610d54565b505050600160008190555060016000819055505050565b60007f4e2312e0000000000000000000000000000000000000000000000000000000007bffffffffffffffffffffffffffffffffffffffffffffffffffffffff1916827bffffffffffffffffffffffffffffffffffffffffffffffffffffffff191614806105ac57506105ab82610e22565b5b9050919050565b6105bb6108eb565b156105fb576040517f08c379a00000000000000000000000000000000000000000000000000000000081526004016105f290611679565b60405180910390fd5b610603610362565b73ffffffffffffffffffffffffffffffffffffffff1661062161098a565b73ffffffffffffffffffffffffffffffffffffffff1614610677576040517f08c379a000000000000000000000000000000000000000000000000000000000815260040161066e906116b9565b60405180910390fd5b600081116106ba576040517f08c379a00000000000000000000000000000000000000000000000000000000081526004016106b190611699565b60405180910390fd5b6106c48282610808565b6106cf8260016109f1565b7f8b150673121b01316e8e9f04c655dcb53717f3ea8192a7606efea468508529348282604051610700929190611754565b60405180910390a15050565b6000600360009054906101000a900473ffffffffffffffffffffffffffffffffffffffff16905090565b61073e6108eb565b1561077e576040517f08c379a000000000000000000000000000000000000000000000000000000000815260040161077590611679565b60405180910390fd5b610786610362565b73ffffffffffffffffffffffffffffffffffffffff166107a461098a565b73ffffffffffffffffffffffffffffffffffffffff16146107fa576040517f08c379a00000000000000000000000000000000000000000000000000000000081526004016107f1906116b9565b60405180910390fd5b6108058160006109f1565b50565b6108106108eb565b15610850576040517f08c379a000000000000000000000000000000000000000000000000000000000815260040161084790611679565b60405180910390fd5b610858610362565b73ffffffffffffffffffffffffffffffffffffffff1661087661098a565b73ffffffffffffffffffffffffffffffffffffffff16146108cc576040517f08c379a00000000000000000000000000000000000000000000000000000000081526004016108c3906116b9565b60405180910390fd5b8060046000848152602001908152602001600020600101819055505050565b6000600160009054906101000a900460ff16905090565b61090a610362565b73ffffffffffffffffffffffffffffffffffffffff1661092861098a565b73ffffffffffffffffffffffffffffffffffffffff161461097e576040517f08c379a0000000000000000000000000000000000000000000000000000000008152600401610975906116b9565b60405180910390fd5b6109886000610e8c565b565b600060018054906101000a900473ffffffffffffffffffffffffffffffffffffffff16905090565b6000600260009054906101000a900473ffffffffffffffffffffffffffffffffffffffff16905090565b600063bc197c8160e01b905095945050505050565b6109f96108eb565b15610a39576040517f08c379a0000000000000000000000000000000000000000000000000000000008152600401610a3090611679565b60405180910390fd5b610a41610362565b73ffffffffffffffffffffffffffffffffffffffff16610a5f61098a565b73ffffffffffffffffffffffffffffffffffffffff1614610ab5576040517f08c379a0000000000000000000000000000000000000000000000000000000008152600401610aac906116b9565b60405180910390fd5b6000600460008481526020019081526020016000206001015411610b0e576040517f08c379a0000000000000000000000000000000000000000000000000000000008152600401610b0590611699565b60405180910390fd5b806004600084815260200190815260200160002060000160006101000a81548160ff0219169083151502179055505050565b600063f23a6e6160e01b905095945050505050565b610b5d610362565b73ffffffffffffffffffffffffffffffffffffffff16610b7b61098a565b73ffffffffffffffffffffffffffffffffffffffff1614610bd1576040517f08c379a0000000000000000000000000000000000000000000000000000000008152600401610bc8906116b9565b60405180910390fd5b600073ffffffffffffffffffffffffffffffffffffffff168173ffffffffffffffffffffffffffffffffffffffff161415610c41576040517f08c379a0000000000000000000000000000000000000000000000000000000008152600401610c3890611659565b60405180910390fd5b610c4a81610e8c565b50565b80610c8d576040517f08c379a0000000000000000000000000000000000000000000000000000000008152600401610c84906116d9565b60405180910390fd5b600073ffffffffffffffffffffffffffffffffffffffff168473ffffffffffffffffffffffffffffffffffffffff161415610cfd576040517f08c379a0000000000000000000000000000000000000000000000000000000008152600401610cf4906116f9565b60405180910390fd5b81831015610d40576040517f08c379a0000000000000000000000000000000000000000000000000000000008152600401610d3790611639565b60405180910390fd5b50505050565b610d508282610f4f565b5050565b600360009054906101000a900473ffffffffffffffffffffffffffffffffffffffff1673ffffffffffffffffffffffffffffffffffffffff166108fc839081150290604051600060405180830381858888f19350505050158015610dbc573d6000803e3d6000fd5b5081811115610e1e5760003390508073ffffffffffffffffffffffffffffffffffffffff166108fc8484610df09190611821565b9081150290604051600060405180830381858888f19350505050158015610e1b573d6000803e3d6000fd5b50505b5050565b60007f01ffc9a7000000000000000000000000000000000000000000000000000000007bffffffffffffffffffffffffffffffffffffffffffffffffffffffff1916827bffffffffffffffffffffffffffffffffffffffffffffffffffffffff1916149050919050565b600060018054906101000a900473ffffffffffffffffffffffffffffffffffffffff169050816001806101000a81548173ffffffffffffffffffffffffffffffffffffffff021916908373ffffffffffffffffffffffffffffffffffffffff1602179055508173ffffffffffffffffffffffffffffffffffffffff168173ffffffffffffffffffffffffffffffffffffffff167f8be0079c531659141344cd1fd0a4f28419497f9722a3daafe3b4186f6b6457e060405160405180910390a35050565b600260009054906101000a900473ffffffffffffffffffffffffffffffffffffffff1673ffffffffffffffffffffffffffffffffffffffff1663f242432a30848460016040518563ffffffff1660e01b8152600401610fb19493929190611590565b600060405180830381600087803b158015610fcb57600080fd5b505af1158015610fdf573d6000803e3d6000fd5b505050505050565b6000610ffa610ff5846117a2565b61177d565b9050808382526020820190508285602086028201111561101957600080fd5b60005b85811015611049578161102f8882611124565b84526020840193506020830192505060018101905061101c565b5050509392505050565b6000611066611061846117ce565b61177d565b90508281526020810184848401111561107e57600080fd5b611089848285611911565b509392505050565b6000813590506110a081611c15565b92915050565b600082601f8301126110b757600080fd5b81356110c7848260208601610fe7565b91505092915050565b6000813590506110df81611c2c565b92915050565b6000813590506110f481611c43565b92915050565b600082601f83011261110b57600080fd5b813561111b848260208601611053565b91505092915050565b60008135905061113381611c5a565b92915050565b60006020828403121561114b57600080fd5b600061115984828501611091565b91505092915050565b600080600080600060a0868803121561117a57600080fd5b600061118888828901611091565b955050602061119988828901611091565b945050604086013567ffffffffffffffff8111156111b657600080fd5b6111c2888289016110a6565b935050606086013567ffffffffffffffff8111156111df57600080fd5b6111eb888289016110a6565b925050608086013567ffffffffffffffff81111561120857600080fd5b611214888289016110fa565b9150509295509295909350565b600080600080600060a0868803121561123957600080fd5b600061124788828901611091565b955050602061125888828901611091565b945050604061126988828901611124565b935050606061127a88828901611124565b925050608086013567ffffffffffffffff81111561129757600080fd5b6112a3888289016110fa565b9150509295509295909350565b600080604083850312156112c357600080fd5b60006112d185828601611091565b92505060206112e285828601611124565b9150509250929050565b6000602082840312156112fe57600080fd5b600061130c848285016110e5565b91505092915050565b60006020828403121561132757600080fd5b600061133584828501611124565b91505092915050565b6000806040838503121561135157600080fd5b600061135f85828601611124565b9250506020611370858286016110d0565b9150509250929050565b6000806040838503121561138d57600080fd5b600061139b85828601611124565b92505060206113ac85828601611124565b9150509250929050565b6113bf81611867565b82525050565b6113ce81611855565b82525050565b6113dd81611879565b82525050565b6113ec81611885565b82525050565b6113fb816118db565b82525050565b61140a816118ff565b82525050565b600061141d604383611810565b9150611428826119c0565b606082019050919050565b6000611440602683611810565b915061144b82611a35565b604082019050919050565b60006114636005836117ff565b915061146e82611a84565b602082019050919050565b6000611486601083611810565b915061149182611aad565b602082019050919050565b60006114a9602983611810565b91506114b482611ad6565b604082019050919050565b60006114cc602083611810565b91506114d782611b25565b602082019050919050565b60006114ef602a83611810565b91506114fa82611b4e565b604082019050919050565b6000611512602a83611810565b915061151d82611b9d565b604082019050919050565b6000611535601f83611810565b915061154082611bec565b602082019050919050565b611554816118d1565b82525050565b600060208201905061156f60008301846113c5565b92915050565b600060208201905061158a60008301846113b6565b92915050565b600060a0820190506115a560008301876113c5565b6115b260208301866113c5565b6115bf604083018561154b565b6115cc6060830184611401565b81810360808301526115dd81611456565b905095945050505050565b60006020820190506115fd60008301846113d4565b92915050565b600060208201905061161860008301846113e3565b92915050565b600060208201905061163360008301846113f2565b92915050565b6000602082019050818103600083015261165281611410565b9050919050565b6000602082019050818103600083015261167281611433565b9050919050565b6000602082019050818103600083015261169281611479565b9050919050565b600060208201905081810360008301526116b28161149c565b9050919050565b600060208201905081810360008301526116d2816114bf565b9050919050565b600060208201905081810360008301526116f2816114e2565b9050919050565b6000602082019050818103600083015261171281611505565b9050919050565b6000602082019050818103600083015261173281611528565b9050919050565b600060208201905061174e600083018461154b565b92915050565b6000604082019050611769600083018561154b565b611776602083018461154b565b9392505050565b6000611787611798565b90506117938282611920565b919050565b6000604051905090565b600067ffffffffffffffff8211156117bd576117bc611980565b5b602082029050602081019050919050565b600067ffffffffffffffff8211156117e9576117e8611980565b5b6117f2826119af565b9050602081019050919050565b600082825260208201905092915050565b600082825260208201905092915050565b600061182c826118d1565b9150611837836118d1565b92508282101561184a57611849611951565b5b828203905092915050565b6000611860826118b1565b9050919050565b6000611872826118b1565b9050919050565b60008115159050919050565b60007fffffffff0000000000000000000000000000000000000000000000000000000082169050919050565b600073ffffffffffffffffffffffffffffffffffffffff82169050919050565b6000819050919050565b60006118e6826118ed565b9050919050565b60006118f8826118b1565b9050919050565b600061190a826118d1565b9050919050565b82818337600083830152505050565b611929826119af565b810181811067ffffffffffffffff8211171561194857611947611980565b5b80604052505050565b7f4e487b7100000000000000000000000000000000000000000000000000000000600052601160045260246000fd5b7f4e487b7100000000000000000000000000000000000000000000000000000000600052604160045260246000fd5b6000601f19601f8301169050919050565b7f43726f776473616c653a207061796d656e74206d75737420626520636f72726560008201527f637420616d6f756e7420666f722070757263686173696e67206163636573736f60208201527f72792e0000000000000000000000000000000000000000000000000000000000604082015250565b7f4f776e61626c653a206e6577206f776e657220697320746865207a65726f206160008201527f6464726573730000000000000000000000000000000000000000000000000000602082015250565b7f3078303030000000000000000000000000000000000000000000000000000000600082015250565b7f5061757361626c653a2070617573656400000000000000000000000000000000600082015250565b7f5072696365206f66206163636573736f7279206d75737420626520677265617460008201527f6572207468616e20300000000000000000000000000000000000000000000000602082015250565b7f4f776e61626c653a2063616c6c6572206973206e6f7420746865206f776e6572600082015250565b7f43726f776473616c653a2074686973206163636573736f7279206973206e6f7460008201527f20666f722073616c652e00000000000000000000000000000000000000000000602082015250565b7f43726f776473616c653a2062656e656669636961727920697320746865207a6560008201527f726f206164647265737300000000000000000000000000000000000000000000602082015250565b7f5265656e7472616e637947756172643a207265656e7472616e742063616c6c00600082015250565b611c1e81611855565b8114611c2957600080fd5b50565b611c3581611879565b8114611c4057600080fd5b50565b611c4c81611885565b8114611c5757600080fd5b50565b611c63816118d1565b8114611c6e57600080fd5b5056fea26469706673582212208cce1622d5189d87ee1e4470617cf3523764aa2c8306f9518397af9c886b197764736f6c63430008020033",
  "immutableReferences": {},
  "source": "// contracts/Market.sol\n// SPDX-License-Identifier: MIT OR Apache-2.0\npragma solidity ^0.8.2;\n\nimport \"@openzeppelin/contracts/security/ReentrancyGuard.sol\";\nimport \"@openzeppelin/contracts/token/ERC1155/IERC1155.sol\";\nimport \"@openzeppelin/contracts/token/ERC1155/utils/ERC1155Holder.sol\";\nimport \"@openzeppelin/contracts/utils/math/SafeMath.sol\";\nimport \"@openzeppelin/contracts/security/Pausable.sol\";\nimport \"@openzeppelin/contracts/access/Ownable.sol\";\nimport \"@openzeppelin/contracts/utils/Context.sol\";\n\ncontract BotMarket is Context, ReentrancyGuard, ERC1155Holder, Pausable, Ownable {\n\n    using SafeMath for uint256;\n\n    // The accessory being sold\n    IERC1155 private _accessory;\n\n    // Address where funds are collected\n    address payable private _wallet;\n\n    mapping(uint256 => Accessory) private accessories;\n\n    struct Accessory {\n        bool isForSale;\n        uint256 price;\n    }\n\n    event AccessoryListed (uint256 clazz, uint256 price);\n    event AccessoryPurchased(address indexed purchaser, address indexed beneficiary, uint256 value);\n\n\n    constructor (address payable wallet, IERC1155 accessory) {\n        require(wallet != address(0), \"BotMarket: wallet is the zero address\");\n        require(address(accessory) != address(0), \"BotMarket: accessory is the zero address\");\n\n        _wallet = wallet;\n        _accessory = accessory;\n    }\n\n    // /**\n    //  * @dev fallback function ***DO NOT OVERRIDE***\n    //  * Note that other contracts will transfer funds with a base gas stipend\n    //  * of 2300, which is not enough to call purchaseAccessory. Consider calling\n    //  * purchaseAccessory directly when purchasing accessories from a contract.\n    //  */\n    receive () external payable {\n        purchaseAccessory(_msgSender(), 1); // default to clazz 1\n    }\n\n    function getAccessory() public view returns (IERC1155) {\n        return _accessory;\n    }\n\n    function getWallet() public view returns (address payable) {\n        return _wallet;\n    }\n\n    function purchaseAccessory(address beneficiary, uint256 clazz) public nonReentrant whenNotPaused nonReentrant payable {\n        uint256 price = accessories[clazz].price;\n        uint256 payment = msg.value;\n        bool isForSale = accessories[clazz].isForSale;\n\n        _preValidatePurchase(beneficiary, payment, price, isForSale);\n\n        _processPurchase(beneficiary, clazz);\n        emit AccessoryPurchased(_msgSender(), beneficiary, price);\n\n        _forwardFunds(price, payment);\n    }\n\n    function _preValidatePurchase(address beneficiary, uint256 payment, uint256 price, bool isForSale) internal view virtual {\n        require(isForSale, \"Crowdsale: this accessory is not for sale.\");\n        require(beneficiary != address(0), \"Crowdsale: beneficiary is the zero address\");\n        require(payment >= price, \"Crowdsale: payment must be correct amount for purchasing accessory.\");\n        this; // silence state mutability warning without generating bytecode - see https://github.com/ethereum/solidity/issues/2691\n    }\n\n    function _deliverAccessory(address beneficiary, uint256 clazz) internal virtual {\n        _accessory.safeTransferFrom(address(this), beneficiary, clazz, 1, \"0x000\");\n    }\n\n    function _processPurchase(address beneficiary, uint256 clazz) internal virtual {\n        _deliverAccessory(beneficiary, clazz);\n    }\n\n    function _forwardFunds(uint256 price, uint256 payment) internal virtual {\n        _wallet.transfer(price);\n        if(payment > price) {\n            address payable buyerAddressPayable = payable(msg.sender); // We need to make this conversion to be able to use transfer() function to transfer ethers\n            buyerAddressPayable.transfer(payment - price);\n        }\n    }\n\n    function listAccessory(uint256 clazz, uint256 price) public whenNotPaused onlyOwner {\n        require(price > 0, \"Price of accessory must be greater than 0\");\n        setAccessoryPrice(clazz, price);\n        setAccessoryForSale(clazz, true);\n\n        emit AccessoryListed(clazz, price);\n    }\n\n    function delistAccessory(uint256 clazz) public whenNotPaused onlyOwner {\n        setAccessoryForSale(clazz, false);\n    }\n\n    function setAccessoryForSale(uint256 clazz, bool isForSale) public whenNotPaused onlyOwner {\n        require(accessories[clazz].price > 0, \"Price of accessory must be greater than 0\");\n        accessories[clazz].isForSale = isForSale;\n    }\n\n    function setAccessoryPrice(uint256 clazz, uint256 price) public whenNotPaused onlyOwner {\n        accessories[clazz].price = price;\n    }\n}\n",
  "sourcePath": "/home/seandevs/workspaces/celo-hackathon/nfts/robots/contracts/BotMarket.sol",
  "compiler": {
    "name": "solc",
    "version": "0.8.2+commit.661d1103.Emscripten.clang"
  },
  "schemaVersion": "3.4.1",
  "updatedAt": "2021-11-02T17:44:46.912Z",
  "networkType": "ethereum",
  "devdoc": {
    "kind": "dev",
    "methods": {
      "owner()": {
        "details": "Returns the address of the current owner."
      },
      "paused()": {
        "details": "Returns true if the contract is paused, and false otherwise."
      },
      "renounceOwnership()": {
        "details": "Leaves the contract without owner. It will not be possible to call `onlyOwner` functions anymore. Can only be called by the current owner. NOTE: Renouncing ownership will leave the contract without an owner, thereby removing any functionality that is only available to the owner."
      },
      "supportsInterface(bytes4)": {
        "details": "See {IERC165-supportsInterface}."
      },
      "transferOwnership(address)": {
        "details": "Transfers ownership of the contract to a new account (`newOwner`). Can only be called by the current owner."
      }
    },
    "version": 1
  },
  "userdoc": {
    "kind": "user",
    "methods": {},
    "version": 1
  }
}