{
  "contractName": "BotMarket",
  "abi": [
    {
      "inputs": [
        {
          "internalType": "address payable",
          "name": "wallet",
          "type": "address"
        },
        {
          "internalType": "contract IERC1155",
          "name": "accessory",
          "type": "address"
        }
      ],
      "stateMutability": "nonpayable",
      "type": "constructor"
    },
    {
      "anonymous": false,
      "inputs": [
        {
          "indexed": false,
          "internalType": "uint256",
          "name": "clazz",
          "type": "uint256"
        },
        {
          "indexed": false,
          "internalType": "uint256",
          "name": "price",
          "type": "uint256"
        }
      ],
      "name": "AccessoryListed",
      "type": "event"
    },
    {
      "anonymous": false,
      "inputs": [
        {
          "indexed": true,
          "internalType": "address",
          "name": "purchaser",
          "type": "address"
        },
        {
          "indexed": true,
          "internalType": "address",
          "name": "beneficiary",
          "type": "address"
        },
        {
          "indexed": false,
          "internalType": "uint256",
          "name": "value",
          "type": "uint256"
        }
      ],
      "name": "AccessoryPurchased",
      "type": "event"
    },
    {
      "anonymous": false,
      "inputs": [
        {
          "indexed": true,
          "internalType": "address",
          "name": "previousOwner",
          "type": "address"
        },
        {
          "indexed": true,
          "internalType": "address",
          "name": "newOwner",
          "type": "address"
        }
      ],
      "name": "OwnershipTransferred",
      "type": "event"
    },
    {
      "anonymous": false,
      "inputs": [
        {
          "indexed": false,
          "internalType": "address",
          "name": "account",
          "type": "address"
        }
      ],
      "name": "Paused",
      "type": "event"
    },
    {
      "anonymous": false,
      "inputs": [
        {
          "indexed": false,
          "internalType": "address",
          "name": "account",
          "type": "address"
        }
      ],
      "name": "Unpaused",
      "type": "event"
    },
    {
      "inputs": [
        {
          "internalType": "uint256",
          "name": "",
          "type": "uint256"
        }
      ],
      "name": "accessories",
      "outputs": [
        {
          "internalType": "bool",
          "name": "isForSale",
          "type": "bool"
        },
        {
          "internalType": "uint256",
          "name": "price",
          "type": "uint256"
        }
      ],
      "stateMutability": "view",
      "type": "function",
      "constant": true
    },
    {
      "inputs": [
        {
          "internalType": "address",
          "name": "",
          "type": "address"
        },
        {
          "internalType": "address",
          "name": "",
          "type": "address"
        },
        {
          "internalType": "uint256[]",
          "name": "",
          "type": "uint256[]"
        },
        {
          "internalType": "uint256[]",
          "name": "",
          "type": "uint256[]"
        },
        {
          "internalType": "bytes",
          "name": "",
          "type": "bytes"
        }
      ],
      "name": "onERC1155BatchReceived",
      "outputs": [
        {
          "internalType": "bytes4",
          "name": "",
          "type": "bytes4"
        }
      ],
      "stateMutability": "nonpayable",
      "type": "function"
    },
    {
      "inputs": [
        {
          "internalType": "address",
          "name": "",
          "type": "address"
        },
        {
          "internalType": "address",
          "name": "",
          "type": "address"
        },
        {
          "internalType": "uint256",
          "name": "",
          "type": "uint256"
        },
        {
          "internalType": "uint256",
          "name": "",
          "type": "uint256"
        },
        {
          "internalType": "bytes",
          "name": "",
          "type": "bytes"
        }
      ],
      "name": "onERC1155Received",
      "outputs": [
        {
          "internalType": "bytes4",
          "name": "",
          "type": "bytes4"
        }
      ],
      "stateMutability": "nonpayable",
      "type": "function"
    },
    {
      "inputs": [],
      "name": "owner",
      "outputs": [
        {
          "internalType": "address",
          "name": "",
          "type": "address"
        }
      ],
      "stateMutability": "view",
      "type": "function",
      "constant": true
    },
    {
      "inputs": [],
      "name": "paused",
      "outputs": [
        {
          "internalType": "bool",
          "name": "",
          "type": "bool"
        }
      ],
      "stateMutability": "view",
      "type": "function",
      "constant": true
    },
    {
      "inputs": [],
      "name": "renounceOwnership",
      "outputs": [],
      "stateMutability": "nonpayable",
      "type": "function"
    },
    {
      "inputs": [
        {
          "internalType": "bytes4",
          "name": "interfaceId",
          "type": "bytes4"
        }
      ],
      "name": "supportsInterface",
      "outputs": [
        {
          "internalType": "bool",
          "name": "",
          "type": "bool"
        }
      ],
      "stateMutability": "view",
      "type": "function",
      "constant": true
    },
    {
      "inputs": [
        {
          "internalType": "address",
          "name": "newOwner",
          "type": "address"
        }
      ],
      "name": "transferOwnership",
      "outputs": [],
      "stateMutability": "nonpayable",
      "type": "function"
    },
    {
      "stateMutability": "payable",
      "type": "receive",
      "payable": true
    },
    {
      "inputs": [],
      "name": "getAccessory",
      "outputs": [
        {
          "internalType": "contract IERC1155",
          "name": "",
          "type": "address"
        }
      ],
      "stateMutability": "view",
      "type": "function",
      "constant": true
    },
    {
      "inputs": [],
      "name": "getWallet",
      "outputs": [
        {
          "internalType": "address payable",
          "name": "",
          "type": "address"
        }
      ],
      "stateMutability": "view",
      "type": "function",
      "constant": true
    },
    {
      "inputs": [
        {
          "internalType": "address",
          "name": "beneficiary",
          "type": "address"
        },
        {
          "internalType": "uint256",
          "name": "clazz",
          "type": "uint256"
        }
      ],
      "name": "purchaseAccessory",
      "outputs": [],
      "stateMutability": "payable",
      "type": "function",
      "payable": true
    },
    {
      "inputs": [
        {
          "internalType": "uint256",
          "name": "clazz",
          "type": "uint256"
        },
        {
          "internalType": "uint256",
          "name": "price",
          "type": "uint256"
        }
      ],
      "name": "listAccessory",
      "outputs": [],
      "stateMutability": "nonpayable",
      "type": "function"
    },
    {
      "inputs": [
        {
          "internalType": "uint256",
          "name": "clazz",
          "type": "uint256"
        }
      ],
      "name": "delistAccessory",
      "outputs": [],
      "stateMutability": "nonpayable",
      "type": "function"
    },
    {
      "inputs": [
        {
          "internalType": "uint256",
          "name": "clazz",
          "type": "uint256"
        },
        {
          "internalType": "bool",
          "name": "isForSale",
          "type": "bool"
        }
      ],
      "name": "setAccessoryForSale",
      "outputs": [],
      "stateMutability": "nonpayable",
      "type": "function"
    },
    {
      "inputs": [
        {
          "internalType": "uint256",
          "name": "clazz",
          "type": "uint256"
        },
        {
          "internalType": "uint256",
          "name": "price",
          "type": "uint256"
        }
      ],
      "name": "setAccessoryPrice",
      "outputs": [],
      "stateMutability": "nonpayable",
      "type": "function"
    }
  ],
  "bytecode": "0x60806040523480156200001157600080fd5b506040516200224f3803806200224f8339818101604052810190620000379190620002e3565b60016000819055506000600160006101000a81548160ff0219169083151502179055506200007a6200006e620001ea60201b60201c565b620001f260201b60201c565b600073ffffffffffffffffffffffffffffffffffffffff168273ffffffffffffffffffffffffffffffffffffffff161415620000ed576040517f08c379a0000000000000000000000000000000000000000000000000000000008152600401620000e49062000372565b60405180910390fd5b600073ffffffffffffffffffffffffffffffffffffffff168173ffffffffffffffffffffffffffffffffffffffff16141562000160576040517f08c379a0000000000000000000000000000000000000000000000000000000008152600401620001579062000394565b60405180910390fd5b81600360006101000a81548173ffffffffffffffffffffffffffffffffffffffff021916908373ffffffffffffffffffffffffffffffffffffffff16021790555080600260006101000a81548173ffffffffffffffffffffffffffffffffffffffff021916908373ffffffffffffffffffffffffffffffffffffffff1602179055505050620004f5565b600033905090565b600060018054906101000a900473ffffffffffffffffffffffffffffffffffffffff169050816001806101000a81548173ffffffffffffffffffffffffffffffffffffffff021916908373ffffffffffffffffffffffffffffffffffffffff1602179055508173ffffffffffffffffffffffffffffffffffffffff168173ffffffffffffffffffffffffffffffffffffffff167f8be0079c531659141344cd1fd0a4f28419497f9722a3daafe3b4186f6b6457e060405160405180910390a35050565b600081519050620002c681620004c1565b92915050565b600081519050620002dd81620004db565b92915050565b60008060408385031215620002f757600080fd5b60006200030785828601620002b5565b92505060206200031a85828601620002cc565b9150509250929050565b600062000333602583620003b6565b9150620003408262000423565b604082019050919050565b60006200035a602883620003b6565b9150620003678262000472565b604082019050919050565b600060208201905081810360008301526200038d8162000324565b9050919050565b60006020820190508181036000830152620003af816200034b565b9050919050565b600082825260208201905092915050565b6000620003d48262000403565b9050919050565b6000620003e88262000403565b9050919050565b6000620003fc82620003c7565b9050919050565b600073ffffffffffffffffffffffffffffffffffffffff82169050919050565b7f426f744d61726b65743a2077616c6c657420697320746865207a65726f20616460008201527f6472657373000000000000000000000000000000000000000000000000000000602082015250565b7f426f744d61726b65743a206163636573736f727920697320746865207a65726f60008201527f2061646472657373000000000000000000000000000000000000000000000000602082015250565b620004cc81620003db565b8114620004d857600080fd5b50565b620004e681620003ef565b8114620004f257600080fd5b50565b611d4a80620005056000396000f3fe6080604052600436106100ec5760003560e01c80637ca942101161008a578063bc197c8111610059578063bc197c81146102df578063ca23b6ee1461031c578063f23a6e6114610345578063f2fde38b1461038257610105565b80637ca942101461022f5780638da5cb5b1461026d5780639064dc1314610298578063ae6778d1146102c357610105565b806344059d9b116100c657806344059d9b1461019b57806347ef2b36146101c45780635c975abb146101ed578063715018a61461021857610105565b806301ffc9a71461010a5780630be7135714610147578063132996041461017057610105565b36610105576101036100fc6103ab565b60016103b3565b005b600080fd5b34801561011657600080fd5b50610131600480360381019061012c9190611366565b610582565b60405161013e9190611662565b60405180910390f35b34801561015357600080fd5b5061016e600480360381019061016991906113f4565b6105fc565b005b34801561017c57600080fd5b50610185610755565b60405161019291906115ef565b60405180910390f35b3480156101a757600080fd5b506101c260048036038101906101bd919061138f565b61077f565b005b3480156101d057600080fd5b506101eb60048036038101906101e691906113f4565b610851565b005b3480156101f957600080fd5b50610202610934565b60405161020f9190611662565b60405180910390f35b34801561022457600080fd5b5061022d61094b565b005b34801561023b57600080fd5b506102566004803603810190610251919061138f565b6109d3565b60405161026492919061167d565b60405180910390f35b34801561027957600080fd5b50610282610a04565b60405161028f91906115d4565b60405180910390f35b3480156102a457600080fd5b506102ad610a2c565b6040516102ba91906116c1565b60405180910390f35b6102dd60048036038101906102d8919061132a565b6103b3565b005b3480156102eb57600080fd5b50610306600480360381019061030191906111dc565b610a56565b60405161031391906116a6565b60405180910390f35b34801561032857600080fd5b50610343600480360381019061033e91906113b8565b610a6b565b005b34801561035157600080fd5b5061036c6004803603810190610367919061129b565b610bba565b60405161037991906116a6565b60405180910390f35b34801561038e57600080fd5b506103a960048036038101906103a491906111b3565b610bcf565b005b600033905090565b600260005414156103f9576040517f08c379a00000000000000000000000000000000000000000000000000000000081526004016103f0906117bc565b60405180910390fd5b6002600081905550610409610934565b15610449576040517f08c379a00000000000000000000000000000000000000000000000000000000081526004016104409061171c565b60405180910390fd5b6002600054141561048f576040517f08c379a0000000000000000000000000000000000000000000000000000000008152600401610486906117bc565b60405180910390fd5b6002600081905550600060046000838152602001908152602001600020600101549050600034905060006004600085815260200190815260200160002060000160009054906101000a900460ff1690506104eb85838584610cc7565b6104f58585610dc0565b8473ffffffffffffffffffffffffffffffffffffffff166105146103ab565b73ffffffffffffffffffffffffffffffffffffffff167fe0cc08cd6445055fb96ba62706d6598dd171f8a45e41f20be587f05446c958298560405161055991906117dc565b60405180910390a361056b8383610dce565b505050600160008190555060016000819055505050565b60007f4e2312e0000000000000000000000000000000000000000000000000000000007bffffffffffffffffffffffffffffffffffffffffffffffffffffffff1916827bffffffffffffffffffffffffffffffffffffffffffffffffffffffff191614806105f557506105f482610e9c565b5b9050919050565b610604610934565b15610644576040517f08c379a000000000000000000000000000000000000000000000000000000000815260040161063b9061171c565b60405180910390fd5b61064c6103ab565b73ffffffffffffffffffffffffffffffffffffffff1661066a610a04565b73ffffffffffffffffffffffffffffffffffffffff16146106c0576040517f08c379a00000000000000000000000000000000000000000000000000000000081526004016106b79061175c565b60405180910390fd5b60008111610703576040517f08c379a00000000000000000000000000000000000000000000000000000000081526004016106fa9061173c565b60405180910390fd5b61070d8282610851565b610718826001610a6b565b7f8b150673121b01316e8e9f04c655dcb53717f3ea8192a7606efea4685085293482826040516107499291906117f7565b60405180910390a15050565b6000600360009054906101000a900473ffffffffffffffffffffffffffffffffffffffff16905090565b610787610934565b156107c7576040517f08c379a00000000000000000000000000000000000000000000000000000000081526004016107be9061171c565b60405180910390fd5b6107cf6103ab565b73ffffffffffffffffffffffffffffffffffffffff166107ed610a04565b73ffffffffffffffffffffffffffffffffffffffff1614610843576040517f08c379a000000000000000000000000000000000000000000000000000000000815260040161083a9061175c565b60405180910390fd5b61084e816000610a6b565b50565b610859610934565b15610899576040517f08c379a00000000000000000000000000000000000000000000000000000000081526004016108909061171c565b60405180910390fd5b6108a16103ab565b73ffffffffffffffffffffffffffffffffffffffff166108bf610a04565b73ffffffffffffffffffffffffffffffffffffffff1614610915576040517f08c379a000000000000000000000000000000000000000000000000000000000815260040161090c9061175c565b60405180910390fd5b8060046000848152602001908152602001600020600101819055505050565b6000600160009054906101000a900460ff16905090565b6109536103ab565b73ffffffffffffffffffffffffffffffffffffffff16610971610a04565b73ffffffffffffffffffffffffffffffffffffffff16146109c7576040517f08c379a00000000000000000000000000000000000000000000000000000000081526004016109be9061175c565b60405180910390fd5b6109d16000610f06565b565b60046020528060005260406000206000915090508060000160009054906101000a900460ff16908060010154905082565b600060018054906101000a900473ffffffffffffffffffffffffffffffffffffffff16905090565b6000600260009054906101000a900473ffffffffffffffffffffffffffffffffffffffff16905090565b600063bc197c8160e01b905095945050505050565b610a73610934565b15610ab3576040517f08c379a0000000000000000000000000000000000000000000000000000000008152600401610aaa9061171c565b60405180910390fd5b610abb6103ab565b73ffffffffffffffffffffffffffffffffffffffff16610ad9610a04565b73ffffffffffffffffffffffffffffffffffffffff1614610b2f576040517f08c379a0000000000000000000000000000000000000000000000000000000008152600401610b269061175c565b60405180910390fd5b6000600460008481526020019081526020016000206001015411610b88576040517f08c379a0000000000000000000000000000000000000000000000000000000008152600401610b7f9061173c565b60405180910390fd5b806004600084815260200190815260200160002060000160006101000a81548160ff0219169083151502179055505050565b600063f23a6e6160e01b905095945050505050565b610bd76103ab565b73ffffffffffffffffffffffffffffffffffffffff16610bf5610a04565b73ffffffffffffffffffffffffffffffffffffffff1614610c4b576040517f08c379a0000000000000000000000000000000000000000000000000000000008152600401610c429061175c565b60405180910390fd5b600073ffffffffffffffffffffffffffffffffffffffff168173ffffffffffffffffffffffffffffffffffffffff161415610cbb576040517f08c379a0000000000000000000000000000000000000000000000000000000008152600401610cb2906116fc565b60405180910390fd5b610cc481610f06565b50565b80610d07576040517f08c379a0000000000000000000000000000000000000000000000000000000008152600401610cfe9061177c565b60405180910390fd5b600073ffffffffffffffffffffffffffffffffffffffff168473ffffffffffffffffffffffffffffffffffffffff161415610d77576040517f08c379a0000000000000000000000000000000000000000000000000000000008152600401610d6e9061179c565b60405180910390fd5b81831015610dba576040517f08c379a0000000000000000000000000000000000000000000000000000000008152600401610db1906116dc565b60405180910390fd5b50505050565b610dca8282610fc9565b5050565b600360009054906101000a900473ffffffffffffffffffffffffffffffffffffffff1673ffffffffffffffffffffffffffffffffffffffff166108fc839081150290604051600060405180830381858888f19350505050158015610e36573d6000803e3d6000fd5b5081811115610e985760003390508073ffffffffffffffffffffffffffffffffffffffff166108fc8484610e6a91906118c4565b9081150290604051600060405180830381858888f19350505050158015610e95573d6000803e3d6000fd5b50505b5050565b60007f01ffc9a7000000000000000000000000000000000000000000000000000000007bffffffffffffffffffffffffffffffffffffffffffffffffffffffff1916827bffffffffffffffffffffffffffffffffffffffffffffffffffffffff1916149050919050565b600060018054906101000a900473ffffffffffffffffffffffffffffffffffffffff169050816001806101000a81548173ffffffffffffffffffffffffffffffffffffffff021916908373ffffffffffffffffffffffffffffffffffffffff1602179055508173ffffffffffffffffffffffffffffffffffffffff168173ffffffffffffffffffffffffffffffffffffffff167f8be0079c531659141344cd1fd0a4f28419497f9722a3daafe3b4186f6b6457e060405160405180910390a35050565b600260009054906101000a900473ffffffffffffffffffffffffffffffffffffffff1673ffffffffffffffffffffffffffffffffffffffff1663f242432a30848460016040518563ffffffff1660e01b815260040161102b949392919061160a565b600060405180830381600087803b15801561104557600080fd5b505af1158015611059573d6000803e3d6000fd5b505050505050565b600061107461106f84611845565b611820565b9050808382526020820190508285602086028201111561109357600080fd5b60005b858110156110c357816110a9888261119e565b845260208401935060208301925050600181019050611096565b5050509392505050565b60006110e06110db84611871565b611820565b9050828152602081018484840111156110f857600080fd5b6111038482856119b4565b509392505050565b60008135905061111a81611cb8565b92915050565b600082601f83011261113157600080fd5b8135611141848260208601611061565b91505092915050565b60008135905061115981611ccf565b92915050565b60008135905061116e81611ce6565b92915050565b600082601f83011261118557600080fd5b81356111958482602086016110cd565b91505092915050565b6000813590506111ad81611cfd565b92915050565b6000602082840312156111c557600080fd5b60006111d38482850161110b565b91505092915050565b600080600080600060a086880312156111f457600080fd5b60006112028882890161110b565b95505060206112138882890161110b565b945050604086013567ffffffffffffffff81111561123057600080fd5b61123c88828901611120565b935050606086013567ffffffffffffffff81111561125957600080fd5b61126588828901611120565b925050608086013567ffffffffffffffff81111561128257600080fd5b61128e88828901611174565b9150509295509295909350565b600080600080600060a086880312156112b357600080fd5b60006112c18882890161110b565b95505060206112d28882890161110b565b94505060406112e38882890161119e565b93505060606112f48882890161119e565b925050608086013567ffffffffffffffff81111561131157600080fd5b61131d88828901611174565b9150509295509295909350565b6000806040838503121561133d57600080fd5b600061134b8582860161110b565b925050602061135c8582860161119e565b9150509250929050565b60006020828403121561137857600080fd5b60006113868482850161115f565b91505092915050565b6000602082840312156113a157600080fd5b60006113af8482850161119e565b91505092915050565b600080604083850312156113cb57600080fd5b60006113d98582860161119e565b92505060206113ea8582860161114a565b9150509250929050565b6000806040838503121561140757600080fd5b60006114158582860161119e565b92505060206114268582860161119e565b9150509250929050565b6114398161190a565b82525050565b611448816118f8565b82525050565b6114578161191c565b82525050565b61146681611928565b82525050565b6114758161197e565b82525050565b611484816119a2565b82525050565b60006114976043836118b3565b91506114a282611a63565b606082019050919050565b60006114ba6026836118b3565b91506114c582611ad8565b604082019050919050565b60006114dd6005836118a2565b91506114e882611b27565b602082019050919050565b60006115006010836118b3565b915061150b82611b50565b602082019050919050565b60006115236029836118b3565b915061152e82611b79565b604082019050919050565b60006115466020836118b3565b915061155182611bc8565b602082019050919050565b6000611569602a836118b3565b915061157482611bf1565b604082019050919050565b600061158c602a836118b3565b915061159782611c40565b604082019050919050565b60006115af601f836118b3565b91506115ba82611c8f565b602082019050919050565b6115ce81611974565b82525050565b60006020820190506115e9600083018461143f565b92915050565b60006020820190506116046000830184611430565b92915050565b600060a08201905061161f600083018761143f565b61162c602083018661143f565b61163960408301856115c5565b611646606083018461147b565b8181036080830152611657816114d0565b905095945050505050565b6000602082019050611677600083018461144e565b92915050565b6000604082019050611692600083018561144e565b61169f60208301846115c5565b9392505050565b60006020820190506116bb600083018461145d565b92915050565b60006020820190506116d6600083018461146c565b92915050565b600060208201905081810360008301526116f58161148a565b9050919050565b60006020820190508181036000830152611715816114ad565b9050919050565b60006020820190508181036000830152611735816114f3565b9050919050565b6000602082019050818103600083015261175581611516565b9050919050565b6000602082019050818103600083015261177581611539565b9050919050565b600060208201905081810360008301526117958161155c565b9050919050565b600060208201905081810360008301526117b58161157f565b9050919050565b600060208201905081810360008301526117d5816115a2565b9050919050565b60006020820190506117f160008301846115c5565b92915050565b600060408201905061180c60008301856115c5565b61181960208301846115c5565b9392505050565b600061182a61183b565b905061183682826119c3565b919050565b6000604051905090565b600067ffffffffffffffff8211156118605761185f611a23565b5b602082029050602081019050919050565b600067ffffffffffffffff82111561188c5761188b611a23565b5b61189582611a52565b9050602081019050919050565b600082825260208201905092915050565b600082825260208201905092915050565b60006118cf82611974565b91506118da83611974565b9250828210156118ed576118ec6119f4565b5b828203905092915050565b600061190382611954565b9050919050565b600061191582611954565b9050919050565b60008115159050919050565b60007fffffffff0000000000000000000000000000000000000000000000000000000082169050919050565b600073ffffffffffffffffffffffffffffffffffffffff82169050919050565b6000819050919050565b600061198982611990565b9050919050565b600061199b82611954565b9050919050565b60006119ad82611974565b9050919050565b82818337600083830152505050565b6119cc82611a52565b810181811067ffffffffffffffff821117156119eb576119ea611a23565b5b80604052505050565b7f4e487b7100000000000000000000000000000000000000000000000000000000600052601160045260246000fd5b7f4e487b7100000000000000000000000000000000000000000000000000000000600052604160045260246000fd5b6000601f19601f8301169050919050565b7f43726f776473616c653a207061796d656e74206d75737420626520636f72726560008201527f637420616d6f756e7420666f722070757263686173696e67206163636573736f60208201527f72792e0000000000000000000000000000000000000000000000000000000000604082015250565b7f4f776e61626c653a206e6577206f776e657220697320746865207a65726f206160008201527f6464726573730000000000000000000000000000000000000000000000000000602082015250565b7f3078303030000000000000000000000000000000000000000000000000000000600082015250565b7f5061757361626c653a2070617573656400000000000000000000000000000000600082015250565b7f5072696365206f66206163636573736f7279206d75737420626520677265617460008201527f6572207468616e20300000000000000000000000000000000000000000000000602082015250565b7f4f776e61626c653a2063616c6c6572206973206e6f7420746865206f776e6572600082015250565b7f43726f776473616c653a2074686973206163636573736f7279206973206e6f7460008201527f20666f722073616c652e00000000000000000000000000000000000000000000602082015250565b7f43726f776473616c653a2062656e656669636961727920697320746865207a6560008201527f726f206164647265737300000000000000000000000000000000000000000000602082015250565b7f5265656e7472616e637947756172643a207265656e7472616e742063616c6c00600082015250565b611cc1816118f8565b8114611ccc57600080fd5b50565b611cd88161191c565b8114611ce357600080fd5b50565b611cef81611928565b8114611cfa57600080fd5b50565b611d0681611974565b8114611d1157600080fd5b5056fea2646970667358221220da7c78c6b0a1b68538e2ab1b26bbe3499c3f374bd84b6bdf2635572fc05407ec64736f6c63430008020033",
  "immutableReferences": {},
  "source": "// contracts/Market.sol\n// SPDX-License-Identifier: MIT OR Apache-2.0\npragma solidity ^0.8.2;\n\nimport \"@openzeppelin/contracts/security/ReentrancyGuard.sol\";\nimport \"@openzeppelin/contracts/token/ERC1155/IERC1155.sol\";\nimport \"@openzeppelin/contracts/token/ERC1155/utils/ERC1155Holder.sol\";\nimport \"@openzeppelin/contracts/utils/math/SafeMath.sol\";\nimport \"@openzeppelin/contracts/security/Pausable.sol\";\nimport \"@openzeppelin/contracts/access/Ownable.sol\";\nimport \"@openzeppelin/contracts/utils/Context.sol\";\n\ncontract BotMarket is Context, ReentrancyGuard, ERC1155Holder, Pausable, Ownable {\n\n    using SafeMath for uint256;\n\n    // The accessory being sold\n    IERC1155 private _accessory;\n\n    // Address where funds are collected\n    address payable private _wallet;\n\n    mapping(uint256 => Accessory) public accessories;\n\n    struct Accessory {\n        bool isForSale;\n        uint256 price;\n    }\n\n    event AccessoryListed (uint256 clazz, uint256 price);\n    event AccessoryPurchased(address indexed purchaser, address indexed beneficiary, uint256 value);\n\n\n    constructor (address payable wallet, IERC1155 accessory) {\n        require(wallet != address(0), \"BotMarket: wallet is the zero address\");\n        require(address(accessory) != address(0), \"BotMarket: accessory is the zero address\");\n\n        _wallet = wallet;\n        _accessory = accessory;\n    }\n\n    // /**\n    //  * @dev fallback function ***DO NOT OVERRIDE***\n    //  * Note that other contracts will transfer funds with a base gas stipend\n    //  * of 2300, which is not enough to call purchaseAccessory. Consider calling\n    //  * purchaseAccessory directly when purchasing accessories from a contract.\n    //  */\n    receive () external payable {\n        purchaseAccessory(_msgSender(), 1); // default to clazz 1\n    }\n\n    function getAccessory() public view returns (IERC1155) {\n        return _accessory;\n    }\n\n    function getWallet() public view returns (address payable) {\n        return _wallet;\n    }\n\n    function purchaseAccessory(address beneficiary, uint256 clazz) public nonReentrant whenNotPaused nonReentrant payable {\n        uint256 price = accessories[clazz].price;\n        uint256 payment = msg.value;\n        bool isForSale = accessories[clazz].isForSale;\n\n        _preValidatePurchase(beneficiary, payment, price, isForSale);\n\n        _processPurchase(beneficiary, clazz);\n        emit AccessoryPurchased(_msgSender(), beneficiary, price);\n\n        _forwardFunds(price, payment);\n    }\n\n    function _preValidatePurchase(address beneficiary, uint256 payment, uint256 price, bool isForSale) internal view virtual {\n        require(isForSale, \"Crowdsale: this accessory is not for sale.\");\n        require(beneficiary != address(0), \"Crowdsale: beneficiary is the zero address\");\n        require(payment >= price, \"Crowdsale: payment must be correct amount for purchasing accessory.\");\n        this; // silence state mutability warning without generating bytecode - see https://github.com/ethereum/solidity/issues/2691\n    }\n\n    function _deliverAccessory(address beneficiary, uint256 clazz) internal virtual {\n        _accessory.safeTransferFrom(address(this), beneficiary, clazz, 1, \"0x000\");\n    }\n\n    function _processPurchase(address beneficiary, uint256 clazz) internal virtual {\n        _deliverAccessory(beneficiary, clazz);\n    }\n\n    function _forwardFunds(uint256 price, uint256 payment) internal virtual {\n        _wallet.transfer(price);\n        if(payment > price) {\n            address payable buyerAddressPayable = payable(msg.sender); // We need to make this conversion to be able to use transfer() function to transfer ethers\n            buyerAddressPayable.transfer(payment - price);\n        }\n    }\n\n    function listAccessory(uint256 clazz, uint256 price) public whenNotPaused onlyOwner {\n        require(price > 0, \"Price of accessory must be greater than 0\");\n        setAccessoryPrice(clazz, price);\n        setAccessoryForSale(clazz, true);\n\n        emit AccessoryListed(clazz, price);\n    }\n\n    function delistAccessory(uint256 clazz) public whenNotPaused onlyOwner {\n        setAccessoryForSale(clazz, false);\n    }\n\n    function setAccessoryForSale(uint256 clazz, bool isForSale) public whenNotPaused onlyOwner {\n        require(accessories[clazz].price > 0, \"Price of accessory must be greater than 0\");\n        accessories[clazz].isForSale = isForSale;\n    }\n\n    function setAccessoryPrice(uint256 clazz, uint256 price) public whenNotPaused onlyOwner {\n        accessories[clazz].price = price;\n    }\n}\n",
  "sourcePath": "/home/seandevs/workspaces/celo-hackathon/nfts/robots/contracts/BotMarket.sol",
  "compiler": {
    "name": "solc",
    "version": "0.8.2+commit.661d1103.Emscripten.clang"
  },
  "schemaVersion": "3.4.1",
  "updatedAt": "2021-11-04T02:29:25.567Z",
  "networkType": "ethereum",
  "devdoc": {
    "kind": "dev",
    "methods": {
      "owner()": {
        "details": "Returns the address of the current owner."
      },
      "paused()": {
        "details": "Returns true if the contract is paused, and false otherwise."
      },
      "renounceOwnership()": {
        "details": "Leaves the contract without owner. It will not be possible to call `onlyOwner` functions anymore. Can only be called by the current owner. NOTE: Renouncing ownership will leave the contract without an owner, thereby removing any functionality that is only available to the owner."
      },
      "supportsInterface(bytes4)": {
        "details": "See {IERC165-supportsInterface}."
      },
      "transferOwnership(address)": {
        "details": "Transfers ownership of the contract to a new account (`newOwner`). Can only be called by the current owner."
      }
    },
    "version": 1
  },
  "userdoc": {
    "kind": "user",
    "methods": {},
    "version": 1
  }
}