{
  "contractName": "Fight",
  "abi": [
    {
      "inputs": [
        {
          "internalType": "address payable",
          "name": "wallet",
          "type": "address"
        }
      ],
      "stateMutability": "nonpayable",
      "type": "constructor"
    },
    {
      "anonymous": false,
      "inputs": [
        {
          "indexed": true,
          "internalType": "address",
          "name": "from",
          "type": "address"
        },
        {
          "indexed": false,
          "internalType": "uint256",
          "name": "amount",
          "type": "uint256"
        }
      ],
      "name": "Ante",
      "type": "event"
    },
    {
      "anonymous": false,
      "inputs": [
        {
          "indexed": true,
          "internalType": "address",
          "name": "previousOwner",
          "type": "address"
        },
        {
          "indexed": true,
          "internalType": "address",
          "name": "newOwner",
          "type": "address"
        }
      ],
      "name": "OwnershipTransferred",
      "type": "event"
    },
    {
      "anonymous": false,
      "inputs": [
        {
          "indexed": false,
          "internalType": "address",
          "name": "account",
          "type": "address"
        }
      ],
      "name": "Paused",
      "type": "event"
    },
    {
      "anonymous": false,
      "inputs": [
        {
          "indexed": false,
          "internalType": "address",
          "name": "account",
          "type": "address"
        }
      ],
      "name": "Unpaused",
      "type": "event"
    },
    {
      "anonymous": false,
      "inputs": [
        {
          "indexed": true,
          "internalType": "address",
          "name": "winner",
          "type": "address"
        }
      ],
      "name": "Winner",
      "type": "event"
    },
    {
      "anonymous": false,
      "inputs": [
        {
          "indexed": true,
          "internalType": "address",
          "name": "to",
          "type": "address"
        },
        {
          "indexed": false,
          "internalType": "uint256",
          "name": "amount",
          "type": "uint256"
        }
      ],
      "name": "Withdrawal",
      "type": "event"
    },
    {
      "inputs": [],
      "name": "ANTE_PRICE",
      "outputs": [
        {
          "internalType": "uint256",
          "name": "",
          "type": "uint256"
        }
      ],
      "stateMutability": "view",
      "type": "function",
      "constant": true
    },
    {
      "inputs": [
        {
          "internalType": "uint256",
          "name": "",
          "type": "uint256"
        }
      ],
      "name": "fights",
      "outputs": [
        {
          "internalType": "address",
          "name": "fighter1",
          "type": "address"
        },
        {
          "internalType": "address",
          "name": "fighter2",
          "type": "address"
        },
        {
          "internalType": "address",
          "name": "winner",
          "type": "address"
        },
        {
          "internalType": "uint256",
          "name": "deposit",
          "type": "uint256"
        },
        {
          "internalType": "bool",
          "name": "isPaidOut",
          "type": "bool"
        }
      ],
      "stateMutability": "view",
      "type": "function",
      "constant": true
    },
    {
      "inputs": [],
      "name": "owner",
      "outputs": [
        {
          "internalType": "address",
          "name": "",
          "type": "address"
        }
      ],
      "stateMutability": "view",
      "type": "function",
      "constant": true
    },
    {
      "inputs": [],
      "name": "paused",
      "outputs": [
        {
          "internalType": "bool",
          "name": "",
          "type": "bool"
        }
      ],
      "stateMutability": "view",
      "type": "function",
      "constant": true
    },
    {
      "inputs": [],
      "name": "renounceOwnership",
      "outputs": [],
      "stateMutability": "nonpayable",
      "type": "function"
    },
    {
      "inputs": [
        {
          "internalType": "address",
          "name": "newOwner",
          "type": "address"
        }
      ],
      "name": "transferOwnership",
      "outputs": [],
      "stateMutability": "nonpayable",
      "type": "function"
    },
    {
      "inputs": [
        {
          "internalType": "uint256",
          "name": "fightId",
          "type": "uint256"
        },
        {
          "internalType": "address",
          "name": "fighter1",
          "type": "address"
        },
        {
          "internalType": "address",
          "name": "fighter2",
          "type": "address"
        }
      ],
      "name": "createFight",
      "outputs": [],
      "stateMutability": "nonpayable",
      "type": "function"
    },
    {
      "inputs": [
        {
          "internalType": "uint256",
          "name": "fightId",
          "type": "uint256"
        },
        {
          "internalType": "address",
          "name": "winner",
          "type": "address"
        }
      ],
      "name": "updateFight",
      "outputs": [],
      "stateMutability": "nonpayable",
      "type": "function"
    },
    {
      "inputs": [
        {
          "internalType": "uint256",
          "name": "fightId",
          "type": "uint256"
        }
      ],
      "name": "ante",
      "outputs": [],
      "stateMutability": "payable",
      "type": "function",
      "payable": true
    },
    {
      "inputs": [
        {
          "internalType": "uint256",
          "name": "fightId",
          "type": "uint256"
        },
        {
          "internalType": "address",
          "name": "token",
          "type": "address"
        }
      ],
      "name": "withdraw",
      "outputs": [],
      "stateMutability": "nonpayable",
      "type": "function"
    },
    {
      "inputs": [],
      "name": "withdrawAll",
      "outputs": [],
      "stateMutability": "payable",
      "type": "function",
      "payable": true
    }
  ],
  "bytecode": "0x6080604052678ac7230489e8000060025573f194afdf50b03e69bd7d057c1aa9e10c9954e4c9600360006101000a81548173ffffffffffffffffffffffffffffffffffffffff021916908373ffffffffffffffffffffffffffffffffffffffff16021790555073874069fa1eb16d44d622f2e0ca25eea172369bc1600460006101000a81548173ffffffffffffffffffffffffffffffffffffffff021916908373ffffffffffffffffffffffffffffffffffffffff160217905550670de0b6b3a7640000600755348015620000d357600080fd5b5060405162001dfa38038062001dfa8339818101604052810190620000f99190620002d9565b60016000819055506000600160006101000a81548160ff0219169083151502179055506200013c62000130620001f760201b60201c565b620001ff60201b60201c565b600073ffffffffffffffffffffffffffffffffffffffff168173ffffffffffffffffffffffffffffffffffffffff161415620001af576040517f08c379a0000000000000000000000000000000000000000000000000000000008152600401620001a6906200032c565b60405180910390fd5b80600560006101000a81548173ffffffffffffffffffffffffffffffffffffffff021916908373ffffffffffffffffffffffffffffffffffffffff16021790555050620003d6565b600033905090565b600060018054906101000a900473ffffffffffffffffffffffffffffffffffffffff169050816001806101000a81548173ffffffffffffffffffffffffffffffffffffffff021916908373ffffffffffffffffffffffffffffffffffffffff1602179055508173ffffffffffffffffffffffffffffffffffffffff168173ffffffffffffffffffffffffffffffffffffffff167f8be0079c531659141344cd1fd0a4f28419497f9722a3daafe3b4186f6b6457e060405160405180910390a35050565b600081519050620002d381620003bc565b92915050565b600060208284031215620002ec57600080fd5b6000620002fc84828501620002c2565b91505092915050565b600062000314601a836200034e565b9150620003218262000393565b602082019050919050565b60006020820190508181036000830152620003478162000305565b9050919050565b600082825260208201905092915050565b60006200036c8262000373565b9050919050565b600073ffffffffffffffffffffffffffffffffffffffff82169050919050565b7f77616c6c657420697320746865207a65726f2061646472657373000000000000600082015250565b620003c7816200035f565b8114620003d357600080fd5b50565b611a1480620003e66000396000f3fe60806040526004361061009b5760003560e01c8063715018a611610064578063715018a61461018957806373f08a75146101a0578063853828b6146101bc5780638da5cb5b146101c6578063bbc501dd146101f1578063f2fde38b1461021a5761009b565b8062f714ce146100a0578063172984fa146100c95780634315e723146100f457806348dc2ffa146101355780635c975abb1461015e575b600080fd5b3480156100ac57600080fd5b506100c760048036038101906100c291906111a0565b610243565b005b3480156100d557600080fd5b506100de610605565b6040516100eb91906115eb565b60405180910390f35b34801561010057600080fd5b5061011b60048036038101906101169190611177565b61060b565b60405161012c9594939291906113f4565b60405180910390f35b34801561014157600080fd5b5061015c600480360381019061015791906111a0565b6106ae565b005b34801561016a57600080fd5b5061017361092a565b6040516101809190611470565b60405180910390f35b34801561019557600080fd5b5061019e610941565b005b6101ba60048036038101906101b59190611177565b6109c9565b005b6101c4610c7c565b005b3480156101d257600080fd5b506101db610d5c565b6040516101e891906113d9565b60405180910390f35b3480156101fd57600080fd5b50610218600480360381019061021391906111dc565b610d84565b005b34801561022657600080fd5b50610241600480360381019061023c9190611125565b610ef7565b005b6008600083815260200190815260200160002060040160009054906101000a900460ff16156102a7576040517f08c379a000000000000000000000000000000000000000000000000000000000815260040161029e9061150b565b60405180910390fd5b600360009054906101000a900473ffffffffffffffffffffffffffffffffffffffff1673ffffffffffffffffffffffffffffffffffffffff168173ffffffffffffffffffffffffffffffffffffffff1614806103505750600460009054906101000a900473ffffffffffffffffffffffffffffffffffffffff1673ffffffffffffffffffffffffffffffffffffffff168173ffffffffffffffffffffffffffffffffffffffff16145b61038f576040517f08c379a0000000000000000000000000000000000000000000000000000000008152600401610386906115cb565b60405180910390fd5b60006008600084815260200190815260200160002060030154116103e8576040517f08c379a00000000000000000000000000000000000000000000000000000000081526004016103df906115ab565b60405180910390fd5b3373ffffffffffffffffffffffffffffffffffffffff166008600084815260200190815260200160002060020160009054906101000a900473ffffffffffffffffffffffffffffffffffffffff1673ffffffffffffffffffffffffffffffffffffffff161461048c576040517f08c379a00000000000000000000000000000000000000000000000000000000081526004016104839061158b565b60405180910390fd5b60016008600084815260200190815260200160002060040160006101000a81548160ff0219169083151502179055508073ffffffffffffffffffffffffffffffffffffffff1663a9059cbb3360086000868152602001908152602001600020600301546040518363ffffffff1660e01b815260040161050c929190611447565b602060405180830381600087803b15801561052657600080fd5b505af115801561053a573d6000803e3d6000fd5b505050506040513d601f19601f8201168201806040525081019061055e919061114e565b61059d576040517f08c379a00000000000000000000000000000000000000000000000000000000081526004016105949061152b565b60405180910390fd5b3373ffffffffffffffffffffffffffffffffffffffff167f7fcf532c15f0a6db0bd6d0e038bea71d30d808c7d98cb3bf7268a95bf5081b6560086000858152602001908152602001600020600301546040516105f991906115eb565b60405180910390a25050565b60025481565b60086020528060005260406000206000915090508060000160009054906101000a900473ffffffffffffffffffffffffffffffffffffffff16908060010160009054906101000a900473ffffffffffffffffffffffffffffffffffffffff16908060020160009054906101000a900473ffffffffffffffffffffffffffffffffffffffff16908060030154908060040160009054906101000a900460ff16905085565b6106b661092a565b156106f6576040517f08c379a00000000000000000000000000000000000000000000000000000000081526004016106ed906114cb565b60405180910390fd5b6106fe610fef565b73ffffffffffffffffffffffffffffffffffffffff1661071c610d5c565b73ffffffffffffffffffffffffffffffffffffffff1614610772576040517f08c379a00000000000000000000000000000000000000000000000000000000081526004016107699061154b565b60405180910390fd5b60006008600084815260200190815260200160002060000160009054906101000a900473ffffffffffffffffffffffffffffffffffffffff16905060006008600085815260200190815260200160002060010160009054906101000a900473ffffffffffffffffffffffffffffffffffffffff1690508273ffffffffffffffffffffffffffffffffffffffff168273ffffffffffffffffffffffffffffffffffffffff16148061084d57508273ffffffffffffffffffffffffffffffffffffffff168173ffffffffffffffffffffffffffffffffffffffff16145b61088c576040517f08c379a00000000000000000000000000000000000000000000000000000000081526004016108839061156b565b60405180910390fd5b826008600086815260200190815260200160002060020160006101000a81548173ffffffffffffffffffffffffffffffffffffffff021916908373ffffffffffffffffffffffffffffffffffffffff1602179055508273ffffffffffffffffffffffffffffffffffffffff167f745c90b656b4aafe296c8ca35aeacfe56cb96c90e1d320e5da643fff1051b6c060405160405180910390a250505050565b6000600160009054906101000a900460ff16905090565b610949610fef565b73ffffffffffffffffffffffffffffffffffffffff16610967610d5c565b73ffffffffffffffffffffffffffffffffffffffff16146109bd576040517f08c379a00000000000000000000000000000000000000000000000000000000081526004016109b49061154b565b60405180910390fd5b6109c76000610ff7565b565b6109d161092a565b15610a11576040517f08c379a0000000000000000000000000000000000000000000000000000000008152600401610a08906114cb565b60405180910390fd5b60006008600083815260200190815260200160002060000160009054906101000a900473ffffffffffffffffffffffffffffffffffffffff16905060006008600084815260200190815260200160002060010160009054906101000a900473ffffffffffffffffffffffffffffffffffffffff1690506008600084815260200190815260200160002060040160009054906101000a900460ff1615610aeb576040517f08c379a0000000000000000000000000000000000000000000000000000000008152600401610ae29061150b565b60405180910390fd5b3373ffffffffffffffffffffffffffffffffffffffff168273ffffffffffffffffffffffffffffffffffffffff161480610b5057503373ffffffffffffffffffffffffffffffffffffffff168173ffffffffffffffffffffffffffffffffffffffff16145b610b8f576040517f08c379a0000000000000000000000000000000000000000000000000000000008152600401610b86906114ab565b60405180910390fd5b3460025414610bd3576040517f08c379a0000000000000000000000000000000000000000000000000000000008152600401610bca906114eb565b60405180910390fd5b610c10600754610c023460086000888152602001908152602001600020600301546110ba90919063ffffffff16565b6110d090919063ffffffff16565b50610c286007546006546110ba90919063ffffffff16565b503373ffffffffffffffffffffffffffffffffffffffff167f0b2f0aac459a59b2b4190c910f8458d1ff7fe0d91f512a43c21448ac2893e66734604051610c6f91906115eb565b60405180910390a2505050565b610c84610fef565b73ffffffffffffffffffffffffffffffffffffffff16610ca2610d5c565b73ffffffffffffffffffffffffffffffffffffffff1614610cf8576040517f08c379a0000000000000000000000000000000000000000000000000000000008152600401610cef9061154b565b60405180910390fd5b600560009054906101000a900473ffffffffffffffffffffffffffffffffffffffff1673ffffffffffffffffffffffffffffffffffffffff166108fc6006549081150290604051600060405180830381858888f19350505050610d5a57600080fd5b565b600060018054906101000a900473ffffffffffffffffffffffffffffffffffffffff16905090565b610d8c61092a565b15610dcc576040517f08c379a0000000000000000000000000000000000000000000000000000000008152600401610dc3906114cb565b60405180910390fd5b610dd4610fef565b73ffffffffffffffffffffffffffffffffffffffff16610df2610d5c565b73ffffffffffffffffffffffffffffffffffffffff1614610e48576040517f08c379a0000000000000000000000000000000000000000000000000000000008152600401610e3f9061154b565b60405180910390fd5b816008600085815260200190815260200160002060000160006101000a81548173ffffffffffffffffffffffffffffffffffffffff021916908373ffffffffffffffffffffffffffffffffffffffff160217905550806008600085815260200190815260200160002060010160006101000a81548173ffffffffffffffffffffffffffffffffffffffff021916908373ffffffffffffffffffffffffffffffffffffffff160217905550505050565b610eff610fef565b73ffffffffffffffffffffffffffffffffffffffff16610f1d610d5c565b73ffffffffffffffffffffffffffffffffffffffff1614610f73576040517f08c379a0000000000000000000000000000000000000000000000000000000008152600401610f6a9061154b565b60405180910390fd5b600073ffffffffffffffffffffffffffffffffffffffff168173ffffffffffffffffffffffffffffffffffffffff161415610fe3576040517f08c379a0000000000000000000000000000000000000000000000000000000008152600401610fda9061148b565b60405180910390fd5b610fec81610ff7565b50565b600033905090565b600060018054906101000a900473ffffffffffffffffffffffffffffffffffffffff169050816001806101000a81548173ffffffffffffffffffffffffffffffffffffffff021916908373ffffffffffffffffffffffffffffffffffffffff1602179055508173ffffffffffffffffffffffffffffffffffffffff168173ffffffffffffffffffffffffffffffffffffffff167f8be0079c531659141344cd1fd0a4f28419497f9722a3daafe3b4186f6b6457e060405160405180910390a35050565b600081836110c89190611617565b905092915050565b600081836110de919061166d565b905092915050565b6000813590506110f581611999565b92915050565b60008151905061110a816119b0565b92915050565b60008135905061111f816119c7565b92915050565b60006020828403121561113757600080fd5b6000611145848285016110e6565b91505092915050565b60006020828403121561116057600080fd5b600061116e848285016110fb565b91505092915050565b60006020828403121561118957600080fd5b600061119784828501611110565b91505092915050565b600080604083850312156111b357600080fd5b60006111c185828601611110565b92505060206111d2858286016110e6565b9150509250929050565b6000806000606084860312156111f157600080fd5b60006111ff86828701611110565b9350506020611210868287016110e6565b9250506040611221868287016110e6565b9150509250925092565b611234816116a1565b82525050565b611243816116b3565b82525050565b6000611256602683611606565b915061126182611718565b604082019050919050565b6000611279601f83611606565b915061128482611767565b602082019050919050565b600061129c601083611606565b91506112a782611790565b602082019050919050565b60006112bf602383611606565b91506112ca826117b9565b604082019050919050565b60006112e2601683611606565b91506112ed82611808565b602082019050919050565b6000611305601883611606565b915061131082611831565b602082019050919050565b6000611328602083611606565b91506113338261185a565b602082019050919050565b600061134b602583611606565b915061135682611883565b604082019050919050565b600061136e602483611606565b9150611379826118d2565b604082019050919050565b6000611391602283611606565b915061139c82611921565b604082019050919050565b60006113b4601983611606565b91506113bf82611970565b602082019050919050565b6113d3816116df565b82525050565b60006020820190506113ee600083018461122b565b92915050565b600060a082019050611409600083018861122b565b611416602083018761122b565b611423604083018661122b565b61143060608301856113ca565b61143d608083018461123a565b9695505050505050565b600060408201905061145c600083018561122b565b61146960208301846113ca565b9392505050565b6000602082019050611485600083018461123a565b92915050565b600060208201905081810360008301526114a481611249565b9050919050565b600060208201905081810360008301526114c48161126c565b9050919050565b600060208201905081810360008301526114e48161128f565b9050919050565b60006020820190508181036000830152611504816112b2565b9050919050565b60006020820190508181036000830152611524816112d5565b9050919050565b60006020820190508181036000830152611544816112f8565b9050919050565b600060208201905081810360008301526115648161131b565b9050919050565b600060208201905081810360008301526115848161133e565b9050919050565b600060208201905081810360008301526115a481611361565b9050919050565b600060208201905081810360008301526115c481611384565b9050919050565b600060208201905081810360008301526115e4816113a7565b9050919050565b600060208201905061160060008301846113ca565b92915050565b600082825260208201905092915050565b6000611622826116df565b915061162d836116df565b9250827fffffffffffffffffffffffffffffffffffffffffffffffffffffffffffffffff03821115611662576116616116e9565b5b828201905092915050565b6000611678826116df565b9150611683836116df565b925082821015611696576116956116e9565b5b828203905092915050565b60006116ac826116bf565b9050919050565b60008115159050919050565b600073ffffffffffffffffffffffffffffffffffffffff82169050919050565b6000819050919050565b7f4e487b7100000000000000000000000000000000000000000000000000000000600052601160045260246000fd5b7f4f776e61626c653a206e6577206f776e657220697320746865207a65726f206160008201527f6464726573730000000000000000000000000000000000000000000000000000602082015250565b7f596f7520617265206e6f74206f6e65206f662074686520666967687465727300600082015250565b7f5061757361626c653a2070617573656400000000000000000000000000000000600082015250565b7f596f75206e65656420746f20616e74652074686520636f727265637420616d6f60008201527f756e740000000000000000000000000000000000000000000000000000000000602082015250565b7f466967687420616c72656164792070616964206f757400000000000000000000600082015250565b7f5769746864726177696e672063555344206661696c65642e0000000000000000600082015250565b7f4f776e61626c653a2063616c6c6572206973206e6f7420746865206f776e6572600082015250565b7f5468652077696e6e6572206973206e6f74206f6e65206f66207468652066696760008201527f6874657273000000000000000000000000000000000000000000000000000000602082015250565b7f596f7520617265206e6f7420776974682077696e6e6572206f6620746865206660008201527f6967687400000000000000000000000000000000000000000000000000000000602082015250565b7f5468657265206973206e6f2062616c616e636520666f7220746869732066696760008201527f6874000000000000000000000000000000000000000000000000000000000000602082015250565b7f746f6b656e206973206e6f742063656c6f206f72206355534400000000000000600082015250565b6119a2816116a1565b81146119ad57600080fd5b50565b6119b9816116b3565b81146119c457600080fd5b50565b6119d0816116df565b81146119db57600080fd5b5056fea2646970667358221220f22718d2d68008df63a593ef241952614d8441a2d472322abba4f0918182eab564736f6c63430008020033",
  "immutableReferences": {},
  "source": "// contracts/Market.sol\n// SPDX-License-Identifier: MIT OR Apache-2.0\npragma solidity ^0.8.2;\nimport \"@openzeppelin/contracts/security/ReentrancyGuard.sol\";\nimport \"@openzeppelin/contracts/access/Ownable.sol\";\nimport \"@openzeppelin/contracts/token/ERC20/IERC20.sol\";\nimport \"@openzeppelin/contracts/security/Pausable.sol\";\nimport \"@openzeppelin/contracts/utils/math/SafeMath.sol\";\n\ncontract Fight is ReentrancyGuard, Pausable, Ownable {\n\n    using SafeMath for uint256;\n\n    uint256 public ANTE_PRICE = 10 * 10**18;\n\n    address _Celo = 0xF194afDf50B03e69Bd7D057c1Aa9e10c9954E4C9;\n    address _cUSD = 0x874069Fa1Eb16D44d622F2e0Ca25eeA172369bC1;\n\n    // Address where funds are collected\n    address payable private _wallet;\n\n    uint256 private _rake;\n    uint256 private RAKE_AMOUNT = 1 * 10**18;\n\n    struct FightInfo {\n        address fighter1;\n        address fighter2;\n        address winner;\n        uint256 deposit;\n        bool isPaidOut;\n    }\n\n    mapping(uint256 => FightInfo) public fights;\n\n    event Withdrawal(address indexed to, uint256 amount);\n    event Winner(address indexed winner);\n    event Ante(address indexed from, uint256 amount);\n\n    constructor(address payable wallet) {\n        require(wallet != address(0), \"wallet is the zero address\");\n        _wallet = wallet;\n    }\n\n    function createFight(uint256 fightId, address fighter1, address fighter2) public whenNotPaused onlyOwner {\n        fights[fightId].fighter1 = fighter1;\n        fights[fightId].fighter2 = fighter2;\n    }\n\n    function updateFight(uint256 fightId, address winner) public whenNotPaused onlyOwner {\n        address fighter1 = fights[fightId].fighter1;\n        address fighter2 = fights[fightId].fighter2;\n        require(fighter1 == winner || fighter2 == winner, \"The winner is not one of the fighters\");\n        fights[fightId].winner = winner;\n        emit Winner(winner);\n    }\n\n    function ante(uint256 fightId) public whenNotPaused payable {\n        address fighter1 = fights[fightId].fighter1;\n        address fighter2 = fights[fightId].fighter2;\n        require(!fights[fightId].isPaidOut, \"Fight already paid out\");\n        require(fighter1 == msg.sender || fighter2 == msg.sender, \"You are not one of the fighters\");\n        require(ANTE_PRICE == msg.value, \"You need to ante the correct amount\");\n        fights[fightId].deposit.add(msg.value).sub(RAKE_AMOUNT);\n        _rake.add(RAKE_AMOUNT);\n        emit Ante(msg.sender, msg.value);\n    }\n\n    function withdraw(uint256 fightId, address token) public {\n        require(!fights[fightId].isPaidOut, \"Fight already paid out\");\n        require(token == _Celo || token == _cUSD, \"token is not celo or cUSD\");\n        require(fights[fightId].deposit > 0, \"There is no balance for this fight\");\n        require(fights[fightId].winner == msg.sender , \"You are not with winner of the fight\");\n        fights[fightId].isPaidOut = true;\n        require(IERC20(token).transfer(msg.sender, fights[fightId].deposit), \"Withdrawing cUSD failed.\");\n        emit Withdrawal(msg.sender, fights[fightId].deposit);\n    }\n\n    function withdrawAll() public payable onlyOwner {\n        require(_wallet.send(_rake));\n    }\n}\n",
  "sourcePath": "/home/seandevs/workspaces/celo-hackathon/nfts/robots/contracts/Fight.sol",
  "compiler": {
    "name": "solc",
    "version": "0.8.2+commit.661d1103.Emscripten.clang"
  },
  "schemaVersion": "3.4.1",
  "updatedAt": "2021-11-23T04:37:34.542Z",
  "networkType": "ethereum",
  "devdoc": {
    "kind": "dev",
    "methods": {
      "owner()": {
        "details": "Returns the address of the current owner."
      },
      "paused()": {
        "details": "Returns true if the contract is paused, and false otherwise."
      },
      "renounceOwnership()": {
        "details": "Leaves the contract without owner. It will not be possible to call `onlyOwner` functions anymore. Can only be called by the current owner. NOTE: Renouncing ownership will leave the contract without an owner, thereby removing any functionality that is only available to the owner."
      },
      "transferOwnership(address)": {
        "details": "Transfers ownership of the contract to a new account (`newOwner`). Can only be called by the current owner."
      }
    },
    "version": 1
  },
  "userdoc": {
    "kind": "user",
    "methods": {},
    "version": 1
  }
}