{
  "contractName": "Fight",
  "abi": [
    {
      "inputs": [
        {
          "internalType": "address payable",
          "name": "wallet",
          "type": "address"
        }
      ],
      "stateMutability": "nonpayable",
      "type": "constructor"
    },
    {
      "anonymous": false,
      "inputs": [
        {
          "indexed": true,
          "internalType": "address",
          "name": "from",
          "type": "address"
        },
        {
          "indexed": false,
          "internalType": "uint256",
          "name": "amount",
          "type": "uint256"
        }
      ],
      "name": "Ante",
      "type": "event"
    },
    {
      "anonymous": false,
      "inputs": [
        {
          "indexed": true,
          "internalType": "address",
          "name": "previousOwner",
          "type": "address"
        },
        {
          "indexed": true,
          "internalType": "address",
          "name": "newOwner",
          "type": "address"
        }
      ],
      "name": "OwnershipTransferred",
      "type": "event"
    },
    {
      "anonymous": false,
      "inputs": [
        {
          "indexed": false,
          "internalType": "address",
          "name": "account",
          "type": "address"
        }
      ],
      "name": "Paused",
      "type": "event"
    },
    {
      "anonymous": false,
      "inputs": [
        {
          "indexed": false,
          "internalType": "address",
          "name": "account",
          "type": "address"
        }
      ],
      "name": "Unpaused",
      "type": "event"
    },
    {
      "anonymous": false,
      "inputs": [
        {
          "indexed": true,
          "internalType": "address",
          "name": "winner",
          "type": "address"
        }
      ],
      "name": "Winner",
      "type": "event"
    },
    {
      "anonymous": false,
      "inputs": [
        {
          "indexed": true,
          "internalType": "address",
          "name": "to",
          "type": "address"
        },
        {
          "indexed": false,
          "internalType": "uint256",
          "name": "amount",
          "type": "uint256"
        }
      ],
      "name": "Withdrawal",
      "type": "event"
    },
    {
      "inputs": [],
      "name": "ANTE_PRICE",
      "outputs": [
        {
          "internalType": "uint256",
          "name": "",
          "type": "uint256"
        }
      ],
      "stateMutability": "view",
      "type": "function",
      "constant": true
    },
    {
      "inputs": [
        {
          "internalType": "uint256",
          "name": "",
          "type": "uint256"
        }
      ],
      "name": "fights",
      "outputs": [
        {
          "internalType": "address",
          "name": "fighter1",
          "type": "address"
        },
        {
          "internalType": "address",
          "name": "fighter2",
          "type": "address"
        },
        {
          "internalType": "address",
          "name": "winner",
          "type": "address"
        },
        {
          "internalType": "uint256",
          "name": "deposit",
          "type": "uint256"
        },
        {
          "internalType": "bool",
          "name": "isPaidOut",
          "type": "bool"
        }
      ],
      "stateMutability": "view",
      "type": "function",
      "constant": true
    },
    {
      "inputs": [],
      "name": "owner",
      "outputs": [
        {
          "internalType": "address",
          "name": "",
          "type": "address"
        }
      ],
      "stateMutability": "view",
      "type": "function",
      "constant": true
    },
    {
      "inputs": [],
      "name": "paused",
      "outputs": [
        {
          "internalType": "bool",
          "name": "",
          "type": "bool"
        }
      ],
      "stateMutability": "view",
      "type": "function",
      "constant": true
    },
    {
      "inputs": [],
      "name": "renounceOwnership",
      "outputs": [],
      "stateMutability": "nonpayable",
      "type": "function"
    },
    {
      "inputs": [
        {
          "internalType": "address",
          "name": "newOwner",
          "type": "address"
        }
      ],
      "name": "transferOwnership",
      "outputs": [],
      "stateMutability": "nonpayable",
      "type": "function"
    },
    {
      "inputs": [
        {
          "internalType": "uint256",
          "name": "fightId",
          "type": "uint256"
        },
        {
          "internalType": "address",
          "name": "fighter1",
          "type": "address"
        },
        {
          "internalType": "address",
          "name": "fighter2",
          "type": "address"
        }
      ],
      "name": "createFight",
      "outputs": [],
      "stateMutability": "nonpayable",
      "type": "function"
    },
    {
      "inputs": [
        {
          "internalType": "uint256",
          "name": "fightId",
          "type": "uint256"
        },
        {
          "internalType": "address",
          "name": "winner",
          "type": "address"
        }
      ],
      "name": "updateFight",
      "outputs": [],
      "stateMutability": "nonpayable",
      "type": "function"
    },
    {
      "inputs": [
        {
          "internalType": "uint256",
          "name": "fightId",
          "type": "uint256"
        }
      ],
      "name": "ante",
      "outputs": [],
      "stateMutability": "payable",
      "type": "function",
      "payable": true
    },
    {
      "inputs": [
        {
          "internalType": "uint256",
          "name": "fightId",
          "type": "uint256"
        },
        {
          "internalType": "address",
          "name": "token",
          "type": "address"
        }
      ],
      "name": "withdraw",
      "outputs": [],
      "stateMutability": "nonpayable",
      "type": "function"
    },
    {
      "inputs": [
        {
          "internalType": "address",
          "name": "token",
          "type": "address"
        }
      ],
      "name": "withdrawRake",
      "outputs": [],
      "stateMutability": "nonpayable",
      "type": "function"
    }
  ],
  "bytecode": "0x6080604052678ac7230489e8000060025573f194afdf50b03e69bd7d057c1aa9e10c9954e4c9600360006101000a81548173ffffffffffffffffffffffffffffffffffffffff021916908373ffffffffffffffffffffffffffffffffffffffff16021790555073874069fa1eb16d44d622f2e0ca25eea172369bc1600460006101000a81548173ffffffffffffffffffffffffffffffffffffffff021916908373ffffffffffffffffffffffffffffffffffffffff160217905550670de0b6b3a7640000600755348015620000d357600080fd5b5060405162002006380380620020068339818101604052810190620000f99190620002d9565b60016000819055506000600160006101000a81548160ff0219169083151502179055506200013c62000130620001f760201b60201c565b620001ff60201b60201c565b600073ffffffffffffffffffffffffffffffffffffffff168173ffffffffffffffffffffffffffffffffffffffff161415620001af576040517f08c379a0000000000000000000000000000000000000000000000000000000008152600401620001a6906200032c565b60405180910390fd5b80600560006101000a81548173ffffffffffffffffffffffffffffffffffffffff021916908373ffffffffffffffffffffffffffffffffffffffff16021790555050620003d6565b600033905090565b600060018054906101000a900473ffffffffffffffffffffffffffffffffffffffff169050816001806101000a81548173ffffffffffffffffffffffffffffffffffffffff021916908373ffffffffffffffffffffffffffffffffffffffff1602179055508173ffffffffffffffffffffffffffffffffffffffff168173ffffffffffffffffffffffffffffffffffffffff167f8be0079c531659141344cd1fd0a4f28419497f9722a3daafe3b4186f6b6457e060405160405180910390a35050565b600081519050620002d381620003bc565b92915050565b600060208284031215620002ec57600080fd5b6000620002fc84828501620002c2565b91505092915050565b600062000314601a836200034e565b9150620003218262000393565b602082019050919050565b60006020820190508181036000830152620003478162000305565b9050919050565b600082825260208201905092915050565b60006200036c8262000373565b9050919050565b600073ffffffffffffffffffffffffffffffffffffffff82169050919050565b7f77616c6c657420697320746865207a65726f2061646472657373000000000000600082015250565b620003c7816200035f565b8114620003d357600080fd5b50565b611c2080620003e66000396000f3fe60806040526004361061009b5760003560e01c8063715018a611610064578063715018a61461018957806373f08a75146101a05780638da5cb5b146101bc578063bbc501dd146101e7578063e01821b914610210578063f2fde38b146102395761009b565b8062f714ce146100a0578063172984fa146100c95780634315e723146100f457806348dc2ffa146101355780635c975abb1461015e575b600080fd5b3480156100ac57600080fd5b506100c760048036038101906100c2919061133e565b610262565b005b3480156100d557600080fd5b506100de610624565b6040516100eb91906117c1565b60405180910390f35b34801561010057600080fd5b5061011b60048036038101906101169190611315565b61062a565b60405161012c9594939291906115ca565b60405180910390f35b34801561014157600080fd5b5061015c6004803603810190610157919061133e565b6106cd565b005b34801561016a57600080fd5b50610173610949565b6040516101809190611646565b60405180910390f35b34801561019557600080fd5b5061019e610960565b005b6101ba60048036038101906101b59190611315565b6109e8565b005b3480156101c857600080fd5b506101d1610c9b565b6040516101de9190611586565b60405180910390f35b3480156101f357600080fd5b5061020e6004803603810190610209919061137a565b610cc3565b005b34801561021c57600080fd5b50610237600480360381019061023291906112c3565b610e36565b005b34801561024557600080fd5b50610260600480360381019061025b91906112c3565b611095565b005b6008600083815260200190815260200160002060040160009054906101000a900460ff16156102c6576040517f08c379a00000000000000000000000000000000000000000000000000000000081526004016102bd906116e1565b60405180910390fd5b600360009054906101000a900473ffffffffffffffffffffffffffffffffffffffff1673ffffffffffffffffffffffffffffffffffffffff168173ffffffffffffffffffffffffffffffffffffffff16148061036f5750600460009054906101000a900473ffffffffffffffffffffffffffffffffffffffff1673ffffffffffffffffffffffffffffffffffffffff168173ffffffffffffffffffffffffffffffffffffffff16145b6103ae576040517f08c379a00000000000000000000000000000000000000000000000000000000081526004016103a5906117a1565b60405180910390fd5b6000600860008481526020019081526020016000206003015411610407576040517f08c379a00000000000000000000000000000000000000000000000000000000081526004016103fe90611781565b60405180910390fd5b3373ffffffffffffffffffffffffffffffffffffffff166008600084815260200190815260200160002060020160009054906101000a900473ffffffffffffffffffffffffffffffffffffffff1673ffffffffffffffffffffffffffffffffffffffff16146104ab576040517f08c379a00000000000000000000000000000000000000000000000000000000081526004016104a290611761565b60405180910390fd5b60016008600084815260200190815260200160002060040160006101000a81548160ff0219169083151502179055508073ffffffffffffffffffffffffffffffffffffffff1663a9059cbb3360086000868152602001908152602001600020600301546040518363ffffffff1660e01b815260040161052b92919061161d565b602060405180830381600087803b15801561054557600080fd5b505af1158015610559573d6000803e3d6000fd5b505050506040513d601f19601f8201168201806040525081019061057d91906112ec565b6105bc576040517f08c379a00000000000000000000000000000000000000000000000000000000081526004016105b390611701565b60405180910390fd5b3373ffffffffffffffffffffffffffffffffffffffff167f7fcf532c15f0a6db0bd6d0e038bea71d30d808c7d98cb3bf7268a95bf5081b65600860008581526020019081526020016000206003015460405161061891906117c1565b60405180910390a25050565b60025481565b60086020528060005260406000206000915090508060000160009054906101000a900473ffffffffffffffffffffffffffffffffffffffff16908060010160009054906101000a900473ffffffffffffffffffffffffffffffffffffffff16908060020160009054906101000a900473ffffffffffffffffffffffffffffffffffffffff16908060030154908060040160009054906101000a900460ff16905085565b6106d5610949565b15610715576040517f08c379a000000000000000000000000000000000000000000000000000000000815260040161070c906116a1565b60405180910390fd5b61071d61118d565b73ffffffffffffffffffffffffffffffffffffffff1661073b610c9b565b73ffffffffffffffffffffffffffffffffffffffff1614610791576040517f08c379a000000000000000000000000000000000000000000000000000000000815260040161078890611721565b60405180910390fd5b60006008600084815260200190815260200160002060000160009054906101000a900473ffffffffffffffffffffffffffffffffffffffff16905060006008600085815260200190815260200160002060010160009054906101000a900473ffffffffffffffffffffffffffffffffffffffff1690508273ffffffffffffffffffffffffffffffffffffffff168273ffffffffffffffffffffffffffffffffffffffff16148061086c57508273ffffffffffffffffffffffffffffffffffffffff168173ffffffffffffffffffffffffffffffffffffffff16145b6108ab576040517f08c379a00000000000000000000000000000000000000000000000000000000081526004016108a290611741565b60405180910390fd5b826008600086815260200190815260200160002060020160006101000a81548173ffffffffffffffffffffffffffffffffffffffff021916908373ffffffffffffffffffffffffffffffffffffffff1602179055508273ffffffffffffffffffffffffffffffffffffffff167f745c90b656b4aafe296c8ca35aeacfe56cb96c90e1d320e5da643fff1051b6c060405160405180910390a250505050565b6000600160009054906101000a900460ff16905090565b61096861118d565b73ffffffffffffffffffffffffffffffffffffffff16610986610c9b565b73ffffffffffffffffffffffffffffffffffffffff16146109dc576040517f08c379a00000000000000000000000000000000000000000000000000000000081526004016109d390611721565b60405180910390fd5b6109e66000611195565b565b6109f0610949565b15610a30576040517f08c379a0000000000000000000000000000000000000000000000000000000008152600401610a27906116a1565b60405180910390fd5b60006008600083815260200190815260200160002060000160009054906101000a900473ffffffffffffffffffffffffffffffffffffffff16905060006008600084815260200190815260200160002060010160009054906101000a900473ffffffffffffffffffffffffffffffffffffffff1690506008600084815260200190815260200160002060040160009054906101000a900460ff1615610b0a576040517f08c379a0000000000000000000000000000000000000000000000000000000008152600401610b01906116e1565b60405180910390fd5b3373ffffffffffffffffffffffffffffffffffffffff168273ffffffffffffffffffffffffffffffffffffffff161480610b6f57503373ffffffffffffffffffffffffffffffffffffffff168173ffffffffffffffffffffffffffffffffffffffff16145b610bae576040517f08c379a0000000000000000000000000000000000000000000000000000000008152600401610ba590611681565b60405180910390fd5b3460025414610bf2576040517f08c379a0000000000000000000000000000000000000000000000000000000008152600401610be9906116c1565b60405180910390fd5b610c2f600754610c2134600860008881526020019081526020016000206003015461125890919063ffffffff16565b61126e90919063ffffffff16565b50610c4760075460065461125890919063ffffffff16565b503373ffffffffffffffffffffffffffffffffffffffff167f0b2f0aac459a59b2b4190c910f8458d1ff7fe0d91f512a43c21448ac2893e66734604051610c8e91906117c1565b60405180910390a2505050565b600060018054906101000a900473ffffffffffffffffffffffffffffffffffffffff16905090565b610ccb610949565b15610d0b576040517f08c379a0000000000000000000000000000000000000000000000000000000008152600401610d02906116a1565b60405180910390fd5b610d1361118d565b73ffffffffffffffffffffffffffffffffffffffff16610d31610c9b565b73ffffffffffffffffffffffffffffffffffffffff1614610d87576040517f08c379a0000000000000000000000000000000000000000000000000000000008152600401610d7e90611721565b60405180910390fd5b816008600085815260200190815260200160002060000160006101000a81548173ffffffffffffffffffffffffffffffffffffffff021916908373ffffffffffffffffffffffffffffffffffffffff160217905550806008600085815260200190815260200160002060010160006101000a81548173ffffffffffffffffffffffffffffffffffffffff021916908373ffffffffffffffffffffffffffffffffffffffff160217905550505050565b610e3e61118d565b73ffffffffffffffffffffffffffffffffffffffff16610e5c610c9b565b73ffffffffffffffffffffffffffffffffffffffff1614610eb2576040517f08c379a0000000000000000000000000000000000000000000000000000000008152600401610ea990611721565b60405180910390fd5b600360009054906101000a900473ffffffffffffffffffffffffffffffffffffffff1673ffffffffffffffffffffffffffffffffffffffff168173ffffffffffffffffffffffffffffffffffffffff161480610f5b5750600460009054906101000a900473ffffffffffffffffffffffffffffffffffffffff1673ffffffffffffffffffffffffffffffffffffffff168173ffffffffffffffffffffffffffffffffffffffff16145b610f9a576040517f08c379a0000000000000000000000000000000000000000000000000000000008152600401610f91906117a1565b60405180910390fd5b60006006819055508073ffffffffffffffffffffffffffffffffffffffff1663a9059cbb600560009054906101000a900473ffffffffffffffffffffffffffffffffffffffff166006546040518363ffffffff1660e01b81526004016110019291906115a1565b602060405180830381600087803b15801561101b57600080fd5b505af115801561102f573d6000803e3d6000fd5b505050506040513d601f19601f8201168201806040525081019061105391906112ec565b611092576040517f08c379a000000000000000000000000000000000000000000000000000000000815260040161108990611701565b60405180910390fd5b50565b61109d61118d565b73ffffffffffffffffffffffffffffffffffffffff166110bb610c9b565b73ffffffffffffffffffffffffffffffffffffffff1614611111576040517f08c379a000000000000000000000000000000000000000000000000000000000815260040161110890611721565b60405180910390fd5b600073ffffffffffffffffffffffffffffffffffffffff168173ffffffffffffffffffffffffffffffffffffffff161415611181576040517f08c379a000000000000000000000000000000000000000000000000000000000815260040161117890611661565b60405180910390fd5b61118a81611195565b50565b600033905090565b600060018054906101000a900473ffffffffffffffffffffffffffffffffffffffff169050816001806101000a81548173ffffffffffffffffffffffffffffffffffffffff021916908373ffffffffffffffffffffffffffffffffffffffff1602179055508173ffffffffffffffffffffffffffffffffffffffff168173ffffffffffffffffffffffffffffffffffffffff167f8be0079c531659141344cd1fd0a4f28419497f9722a3daafe3b4186f6b6457e060405160405180910390a35050565b6000818361126691906117ed565b905092915050565b6000818361127c9190611843565b905092915050565b60008135905061129381611ba5565b92915050565b6000815190506112a881611bbc565b92915050565b6000813590506112bd81611bd3565b92915050565b6000602082840312156112d557600080fd5b60006112e384828501611284565b91505092915050565b6000602082840312156112fe57600080fd5b600061130c84828501611299565b91505092915050565b60006020828403121561132757600080fd5b6000611335848285016112ae565b91505092915050565b6000806040838503121561135157600080fd5b600061135f858286016112ae565b925050602061137085828601611284565b9150509250929050565b60008060006060848603121561138f57600080fd5b600061139d868287016112ae565b93505060206113ae86828701611284565b92505060406113bf86828701611284565b9150509250925092565b6113d2816118bf565b82525050565b6113e181611877565b82525050565b6113f081611889565b82525050565b60006114036026836117dc565b915061140e82611924565b604082019050919050565b6000611426601f836117dc565b915061143182611973565b602082019050919050565b60006114496010836117dc565b91506114548261199c565b602082019050919050565b600061146c6023836117dc565b9150611477826119c5565b604082019050919050565b600061148f6016836117dc565b915061149a82611a14565b602082019050919050565b60006114b26018836117dc565b91506114bd82611a3d565b602082019050919050565b60006114d56020836117dc565b91506114e082611a66565b602082019050919050565b60006114f86025836117dc565b915061150382611a8f565b604082019050919050565b600061151b6024836117dc565b915061152682611ade565b604082019050919050565b600061153e6022836117dc565b915061154982611b2d565b604082019050919050565b60006115616019836117dc565b915061156c82611b7c565b602082019050919050565b611580816118b5565b82525050565b600060208201905061159b60008301846113d8565b92915050565b60006040820190506115b660008301856113c9565b6115c36020830184611577565b9392505050565b600060a0820190506115df60008301886113d8565b6115ec60208301876113d8565b6115f960408301866113d8565b6116066060830185611577565b61161360808301846113e7565b9695505050505050565b600060408201905061163260008301856113d8565b61163f6020830184611577565b9392505050565b600060208201905061165b60008301846113e7565b92915050565b6000602082019050818103600083015261167a816113f6565b9050919050565b6000602082019050818103600083015261169a81611419565b9050919050565b600060208201905081810360008301526116ba8161143c565b9050919050565b600060208201905081810360008301526116da8161145f565b9050919050565b600060208201905081810360008301526116fa81611482565b9050919050565b6000602082019050818103600083015261171a816114a5565b9050919050565b6000602082019050818103600083015261173a816114c8565b9050919050565b6000602082019050818103600083015261175a816114eb565b9050919050565b6000602082019050818103600083015261177a8161150e565b9050919050565b6000602082019050818103600083015261179a81611531565b9050919050565b600060208201905081810360008301526117ba81611554565b9050919050565b60006020820190506117d66000830184611577565b92915050565b600082825260208201905092915050565b60006117f8826118b5565b9150611803836118b5565b9250827fffffffffffffffffffffffffffffffffffffffffffffffffffffffffffffffff03821115611838576118376118f5565b5b828201905092915050565b600061184e826118b5565b9150611859836118b5565b92508282101561186c5761186b6118f5565b5b828203905092915050565b600061188282611895565b9050919050565b60008115159050919050565b600073ffffffffffffffffffffffffffffffffffffffff82169050919050565b6000819050919050565b60006118ca826118d1565b9050919050565b60006118dc826118e3565b9050919050565b60006118ee82611895565b9050919050565b7f4e487b7100000000000000000000000000000000000000000000000000000000600052601160045260246000fd5b7f4f776e61626c653a206e6577206f776e657220697320746865207a65726f206160008201527f6464726573730000000000000000000000000000000000000000000000000000602082015250565b7f596f7520617265206e6f74206f6e65206f662074686520666967687465727300600082015250565b7f5061757361626c653a2070617573656400000000000000000000000000000000600082015250565b7f596f75206e65656420746f20616e74652074686520636f727265637420616d6f60008201527f756e740000000000000000000000000000000000000000000000000000000000602082015250565b7f466967687420616c72656164792070616964206f757400000000000000000000600082015250565b7f5769746864726177696e672063555344206661696c65642e0000000000000000600082015250565b7f4f776e61626c653a2063616c6c6572206973206e6f7420746865206f776e6572600082015250565b7f5468652077696e6e6572206973206e6f74206f6e65206f66207468652066696760008201527f6874657273000000000000000000000000000000000000000000000000000000602082015250565b7f596f7520617265206e6f7420776974682077696e6e6572206f6620746865206660008201527f6967687400000000000000000000000000000000000000000000000000000000602082015250565b7f5468657265206973206e6f2062616c616e636520666f7220746869732066696760008201527f6874000000000000000000000000000000000000000000000000000000000000602082015250565b7f746f6b656e206973206e6f742063656c6f206f72206355534400000000000000600082015250565b611bae81611877565b8114611bb957600080fd5b50565b611bc581611889565b8114611bd057600080fd5b50565b611bdc816118b5565b8114611be757600080fd5b5056fea26469706673582212204f90a041c868a8be21ec55277390d2c63859ef587fdc634ef2240812bd275bc064736f6c63430008020033",
  "immutableReferences": {},
  "source": "// contracts/Fight.sol\n// SPDX-License-Identifier: MIT OR Apache-2.0\npragma solidity ^0.8.2;\n\nimport \"@openzeppelin/contracts/security/ReentrancyGuard.sol\";\nimport \"@openzeppelin/contracts/access/Ownable.sol\";\nimport \"@openzeppelin/contracts/token/ERC20/IERC20.sol\";\nimport \"@openzeppelin/contracts/security/Pausable.sol\";\nimport \"@openzeppelin/contracts/utils/math/SafeMath.sol\";\n\ncontract Fight is ReentrancyGuard, Pausable, Ownable {\n\n    using SafeMath for uint256;\n\n    uint256 public ANTE_PRICE = 10 * 10**18;\n\n    address _Celo = 0xF194afDf50B03e69Bd7D057c1Aa9e10c9954E4C9;\n    address _cUSD = 0x874069Fa1Eb16D44d622F2e0Ca25eeA172369bC1;\n\n    // Address where funds are collected\n    address payable private _wallet;\n\n    uint256 private _rake;\n    uint256 private RAKE_AMOUNT = 1 * 10**18;\n\n    struct FightInfo {\n        address fighter1;\n        address fighter2;\n        address winner;\n        uint256 deposit;\n        bool isPaidOut;\n    }\n\n    mapping(uint256 => FightInfo) public fights;\n\n    event Withdrawal(address indexed to, uint256 amount);\n    event Winner(address indexed winner);\n    event Ante(address indexed from, uint256 amount);\n\n    constructor(address payable wallet) {\n        require(wallet != address(0), \"wallet is the zero address\");\n        _wallet = wallet;\n    }\n\n    function createFight(uint256 fightId, address fighter1, address fighter2) public whenNotPaused onlyOwner {\n        fights[fightId].fighter1 = fighter1;\n        fights[fightId].fighter2 = fighter2;\n    }\n\n    function updateFight(uint256 fightId, address winner) public whenNotPaused onlyOwner {\n        address fighter1 = fights[fightId].fighter1;\n        address fighter2 = fights[fightId].fighter2;\n        require(fighter1 == winner || fighter2 == winner, \"The winner is not one of the fighters\");\n        fights[fightId].winner = winner;\n        emit Winner(winner);\n    }\n\n    function ante(uint256 fightId) public whenNotPaused payable {\n        address fighter1 = fights[fightId].fighter1;\n        address fighter2 = fights[fightId].fighter2;\n        require(!fights[fightId].isPaidOut, \"Fight already paid out\");\n        require(fighter1 == msg.sender || fighter2 == msg.sender, \"You are not one of the fighters\");\n        require(ANTE_PRICE == msg.value, \"You need to ante the correct amount\");\n        fights[fightId].deposit.add(msg.value).sub(RAKE_AMOUNT);\n        _rake.add(RAKE_AMOUNT);\n        emit Ante(msg.sender, msg.value);\n    }\n\n    function withdraw(uint256 fightId, address token) public {\n        require(!fights[fightId].isPaidOut, \"Fight already paid out\");\n        require(token == _Celo || token == _cUSD, \"token is not celo or cUSD\");\n        require(fights[fightId].deposit > 0, \"There is no balance for this fight\");\n        require(fights[fightId].winner == msg.sender , \"You are not with winner of the fight\");\n        fights[fightId].isPaidOut = true;\n        require(IERC20(token).transfer(msg.sender, fights[fightId].deposit), \"Withdrawing cUSD failed.\");\n        emit Withdrawal(msg.sender, fights[fightId].deposit);\n    }\n\n    function withdrawRake(address token) public onlyOwner {\n        require(token == _Celo || token == _cUSD, \"token is not celo or cUSD\");\n        _rake = 0;\n        require(IERC20(token).transfer(_wallet, _rake), \"Withdrawing cUSD failed.\");\n    }\n}\n",
  "sourcePath": "/home/seandevs/workspaces/celo-hackathon/nfts/robots/contracts/Fight.sol",
  "compiler": {
    "name": "solc",
    "version": "0.8.2+commit.661d1103.Emscripten.clang"
  },
  "schemaVersion": "3.4.1",
  "updatedAt": "2021-11-27T23:38:33.818Z",
  "networkType": "ethereum",
  "devdoc": {
    "kind": "dev",
    "methods": {
      "owner()": {
        "details": "Returns the address of the current owner."
      },
      "paused()": {
        "details": "Returns true if the contract is paused, and false otherwise."
      },
      "renounceOwnership()": {
        "details": "Leaves the contract without owner. It will not be possible to call `onlyOwner` functions anymore. Can only be called by the current owner. NOTE: Renouncing ownership will leave the contract without an owner, thereby removing any functionality that is only available to the owner."
      },
      "transferOwnership(address)": {
        "details": "Transfers ownership of the contract to a new account (`newOwner`). Can only be called by the current owner."
      }
    },
    "version": 1
  },
  "userdoc": {
    "kind": "user",
    "methods": {},
    "version": 1
  }
}