{
  "contractName": "Fight",
  "abi": [
    {
      "anonymous": false,
      "inputs": [
        {
          "indexed": true,
          "internalType": "address",
          "name": "from",
          "type": "address"
        },
        {
          "indexed": false,
          "internalType": "uint256",
          "name": "amount",
          "type": "uint256"
        }
      ],
      "name": "Ante",
      "type": "event"
    },
    {
      "anonymous": false,
      "inputs": [
        {
          "indexed": true,
          "internalType": "address",
          "name": "previousOwner",
          "type": "address"
        },
        {
          "indexed": true,
          "internalType": "address",
          "name": "newOwner",
          "type": "address"
        }
      ],
      "name": "OwnershipTransferred",
      "type": "event"
    },
    {
      "anonymous": false,
      "inputs": [
        {
          "indexed": false,
          "internalType": "address",
          "name": "account",
          "type": "address"
        }
      ],
      "name": "Paused",
      "type": "event"
    },
    {
      "anonymous": false,
      "inputs": [
        {
          "indexed": false,
          "internalType": "address",
          "name": "account",
          "type": "address"
        }
      ],
      "name": "Unpaused",
      "type": "event"
    },
    {
      "anonymous": false,
      "inputs": [
        {
          "indexed": true,
          "internalType": "address",
          "name": "winner",
          "type": "address"
        }
      ],
      "name": "Winner",
      "type": "event"
    },
    {
      "anonymous": false,
      "inputs": [
        {
          "indexed": true,
          "internalType": "address",
          "name": "to",
          "type": "address"
        },
        {
          "indexed": false,
          "internalType": "uint256",
          "name": "amount",
          "type": "uint256"
        }
      ],
      "name": "Withdrawal",
      "type": "event"
    },
    {
      "inputs": [
        {
          "internalType": "uint256",
          "name": "",
          "type": "uint256"
        }
      ],
      "name": "fights",
      "outputs": [
        {
          "internalType": "address",
          "name": "fighter1",
          "type": "address"
        },
        {
          "internalType": "address",
          "name": "fighter2",
          "type": "address"
        },
        {
          "internalType": "address",
          "name": "winner",
          "type": "address"
        },
        {
          "internalType": "uint256",
          "name": "deposit",
          "type": "uint256"
        }
      ],
      "stateMutability": "view",
      "type": "function",
      "constant": true
    },
    {
      "inputs": [],
      "name": "owner",
      "outputs": [
        {
          "internalType": "address",
          "name": "",
          "type": "address"
        }
      ],
      "stateMutability": "view",
      "type": "function",
      "constant": true
    },
    {
      "inputs": [],
      "name": "paused",
      "outputs": [
        {
          "internalType": "bool",
          "name": "",
          "type": "bool"
        }
      ],
      "stateMutability": "view",
      "type": "function",
      "constant": true
    },
    {
      "inputs": [],
      "name": "renounceOwnership",
      "outputs": [],
      "stateMutability": "nonpayable",
      "type": "function"
    },
    {
      "inputs": [
        {
          "internalType": "address",
          "name": "newOwner",
          "type": "address"
        }
      ],
      "name": "transferOwnership",
      "outputs": [],
      "stateMutability": "nonpayable",
      "type": "function"
    },
    {
      "inputs": [
        {
          "internalType": "uint256",
          "name": "fightId",
          "type": "uint256"
        },
        {
          "internalType": "address",
          "name": "fighter1",
          "type": "address"
        },
        {
          "internalType": "address",
          "name": "fighter2",
          "type": "address"
        }
      ],
      "name": "createFight",
      "outputs": [],
      "stateMutability": "nonpayable",
      "type": "function"
    },
    {
      "inputs": [
        {
          "internalType": "uint256",
          "name": "fightId",
          "type": "uint256"
        },
        {
          "internalType": "address",
          "name": "winner",
          "type": "address"
        }
      ],
      "name": "updateFight",
      "outputs": [],
      "stateMutability": "nonpayable",
      "type": "function"
    },
    {
      "inputs": [
        {
          "internalType": "uint256",
          "name": "fightId",
          "type": "uint256"
        }
      ],
      "name": "ante",
      "outputs": [],
      "stateMutability": "payable",
      "type": "function",
      "payable": true
    },
    {
      "inputs": [
        {
          "internalType": "uint256",
          "name": "fightId",
          "type": "uint256"
        },
        {
          "internalType": "address",
          "name": "token",
          "type": "address"
        }
      ],
      "name": "withdraw",
      "outputs": [],
      "stateMutability": "nonpayable",
      "type": "function"
    }
  ],
  "bytecode": "0x608060405273f194afdf50b03e69bd7d057c1aa9e10c9954e4c9600260006101000a81548173ffffffffffffffffffffffffffffffffffffffff021916908373ffffffffffffffffffffffffffffffffffffffff16021790555073874069fa1eb16d44d622f2e0ca25eea172369bc1600360006101000a81548173ffffffffffffffffffffffffffffffffffffffff021916908373ffffffffffffffffffffffffffffffffffffffff1602179055503480156100ba57600080fd5b5060016000819055506000600160006101000a81548160ff0219169083151502179055506100fa6100ef6100ff60201b60201c565b61010760201b60201c565b6101ca565b600033905090565b600060018054906101000a900473ffffffffffffffffffffffffffffffffffffffff169050816001806101000a81548173ffffffffffffffffffffffffffffffffffffffff021916908373ffffffffffffffffffffffffffffffffffffffff1602179055508173ffffffffffffffffffffffffffffffffffffffff168173ffffffffffffffffffffffffffffffffffffffff167f8be0079c531659141344cd1fd0a4f28419497f9722a3daafe3b4186f6b6457e060405160405180910390a35050565b611600806101d96000396000f3fe6080604052600436106100855760003560e01c8063715018a611610059578063715018a61461014757806373f08a751461015e5780638da5cb5b1461017a578063bbc501dd146101a5578063f2fde38b146101ce57610085565b8062f714ce1461008a5780634315e723146100b357806348dc2ffa146100f35780635c975abb1461011c575b600080fd5b34801561009657600080fd5b506100b160048036038101906100ac9190610ecc565b6101f7565b005b3480156100bf57600080fd5b506100da60048036038101906100d59190610ea3565b610527565b6040516100ea94939291906110da565b60405180910390f35b3480156100ff57600080fd5b5061011a60048036038101906101159190610ecc565b6105b7565b005b34801561012857600080fd5b50610131610833565b60405161013e9190611148565b60405180910390f35b34801561015357600080fd5b5061015c61084a565b005b61017860048036038101906101739190610ea3565b6108d2565b005b34801561018657600080fd5b5061018f610ab4565b60405161019c91906110bf565b60405180910390f35b3480156101b157600080fd5b506101cc60048036038101906101c79190610f08565b610adc565b005b3480156101da57600080fd5b506101f560048036038101906101f09190610e51565b610c4f565b005b600260009054906101000a900473ffffffffffffffffffffffffffffffffffffffff1673ffffffffffffffffffffffffffffffffffffffff168173ffffffffffffffffffffffffffffffffffffffff1614806102a05750600360009054906101000a900473ffffffffffffffffffffffffffffffffffffffff1673ffffffffffffffffffffffffffffffffffffffff168173ffffffffffffffffffffffffffffffffffffffff16145b6102df576040517f08c379a00000000000000000000000000000000000000000000000000000000081526004016102d690611263565b60405180910390fd5b600060046000848152602001908152602001600020600301541015610339576040517f08c379a000000000000000000000000000000000000000000000000000000000815260040161033090611243565b60405180910390fd5b3373ffffffffffffffffffffffffffffffffffffffff166004600084815260200190815260200160002060020160009054906101000a900473ffffffffffffffffffffffffffffffffffffffff1673ffffffffffffffffffffffffffffffffffffffff16146103dd576040517f08c379a00000000000000000000000000000000000000000000000000000000081526004016103d490611223565b60405180910390fd5b8073ffffffffffffffffffffffffffffffffffffffff1663a9059cbb3360046000868152602001908152602001600020600301546040518363ffffffff1660e01b815260040161042e92919061111f565b602060405180830381600087803b15801561044857600080fd5b505af115801561045c573d6000803e3d6000fd5b505050506040513d601f19601f820116820180604052508101906104809190610e7a565b6104bf576040517f08c379a00000000000000000000000000000000000000000000000000000000081526004016104b6906111c3565b60405180910390fd5b3373ffffffffffffffffffffffffffffffffffffffff167f7fcf532c15f0a6db0bd6d0e038bea71d30d808c7d98cb3bf7268a95bf5081b65600460008581526020019081526020016000206003015460405161051b9190611283565b60405180910390a25050565b60046020528060005260406000206000915090508060000160009054906101000a900473ffffffffffffffffffffffffffffffffffffffff16908060010160009054906101000a900473ffffffffffffffffffffffffffffffffffffffff16908060020160009054906101000a900473ffffffffffffffffffffffffffffffffffffffff16908060030154905084565b6105bf610833565b156105ff576040517f08c379a00000000000000000000000000000000000000000000000000000000081526004016105f6906111a3565b60405180910390fd5b610607610d47565b73ffffffffffffffffffffffffffffffffffffffff16610625610ab4565b73ffffffffffffffffffffffffffffffffffffffff161461067b576040517f08c379a0000000000000000000000000000000000000000000000000000000008152600401610672906111e3565b60405180910390fd5b60006004600084815260200190815260200160002060000160009054906101000a900473ffffffffffffffffffffffffffffffffffffffff16905060006004600085815260200190815260200160002060010160009054906101000a900473ffffffffffffffffffffffffffffffffffffffff1690508273ffffffffffffffffffffffffffffffffffffffff168273ffffffffffffffffffffffffffffffffffffffff16148061075657508273ffffffffffffffffffffffffffffffffffffffff168173ffffffffffffffffffffffffffffffffffffffff16145b610795576040517f08c379a000000000000000000000000000000000000000000000000000000000815260040161078c90611203565b60405180910390fd5b826004600086815260200190815260200160002060020160006101000a81548173ffffffffffffffffffffffffffffffffffffffff021916908373ffffffffffffffffffffffffffffffffffffffff1602179055508273ffffffffffffffffffffffffffffffffffffffff167f745c90b656b4aafe296c8ca35aeacfe56cb96c90e1d320e5da643fff1051b6c060405160405180910390a250505050565b6000600160009054906101000a900460ff16905090565b610852610d47565b73ffffffffffffffffffffffffffffffffffffffff16610870610ab4565b73ffffffffffffffffffffffffffffffffffffffff16146108c6576040517f08c379a00000000000000000000000000000000000000000000000000000000081526004016108bd906111e3565b60405180910390fd5b6108d06000610d4f565b565b6108da610833565b1561091a576040517f08c379a0000000000000000000000000000000000000000000000000000000008152600401610911906111a3565b60405180910390fd5b60006004600083815260200190815260200160002060000160009054906101000a900473ffffffffffffffffffffffffffffffffffffffff16905060006004600084815260200190815260200160002060010160009054906101000a900473ffffffffffffffffffffffffffffffffffffffff1690503373ffffffffffffffffffffffffffffffffffffffff168273ffffffffffffffffffffffffffffffffffffffff1614806109f557503373ffffffffffffffffffffffffffffffffffffffff168173ffffffffffffffffffffffffffffffffffffffff16145b610a34576040517f08c379a0000000000000000000000000000000000000000000000000000000008152600401610a2b90611183565b60405180910390fd5b34600460008581526020019081526020016000206003016000828254610a5a91906112af565b925050819055503373ffffffffffffffffffffffffffffffffffffffff167f0b2f0aac459a59b2b4190c910f8458d1ff7fe0d91f512a43c21448ac2893e66734604051610aa79190611283565b60405180910390a2505050565b600060018054906101000a900473ffffffffffffffffffffffffffffffffffffffff16905090565b610ae4610833565b15610b24576040517f08c379a0000000000000000000000000000000000000000000000000000000008152600401610b1b906111a3565b60405180910390fd5b610b2c610d47565b73ffffffffffffffffffffffffffffffffffffffff16610b4a610ab4565b73ffffffffffffffffffffffffffffffffffffffff1614610ba0576040517f08c379a0000000000000000000000000000000000000000000000000000000008152600401610b97906111e3565b60405180910390fd5b816004600085815260200190815260200160002060000160006101000a81548173ffffffffffffffffffffffffffffffffffffffff021916908373ffffffffffffffffffffffffffffffffffffffff160217905550806004600085815260200190815260200160002060010160006101000a81548173ffffffffffffffffffffffffffffffffffffffff021916908373ffffffffffffffffffffffffffffffffffffffff160217905550505050565b610c57610d47565b73ffffffffffffffffffffffffffffffffffffffff16610c75610ab4565b73ffffffffffffffffffffffffffffffffffffffff1614610ccb576040517f08c379a0000000000000000000000000000000000000000000000000000000008152600401610cc2906111e3565b60405180910390fd5b600073ffffffffffffffffffffffffffffffffffffffff168173ffffffffffffffffffffffffffffffffffffffff161415610d3b576040517f08c379a0000000000000000000000000000000000000000000000000000000008152600401610d3290611163565b60405180910390fd5b610d4481610d4f565b50565b600033905090565b600060018054906101000a900473ffffffffffffffffffffffffffffffffffffffff169050816001806101000a81548173ffffffffffffffffffffffffffffffffffffffff021916908373ffffffffffffffffffffffffffffffffffffffff1602179055508173ffffffffffffffffffffffffffffffffffffffff168173ffffffffffffffffffffffffffffffffffffffff167f8be0079c531659141344cd1fd0a4f28419497f9722a3daafe3b4186f6b6457e060405160405180910390a35050565b600081359050610e2181611585565b92915050565b600081519050610e368161159c565b92915050565b600081359050610e4b816115b3565b92915050565b600060208284031215610e6357600080fd5b6000610e7184828501610e12565b91505092915050565b600060208284031215610e8c57600080fd5b6000610e9a84828501610e27565b91505092915050565b600060208284031215610eb557600080fd5b6000610ec384828501610e3c565b91505092915050565b60008060408385031215610edf57600080fd5b6000610eed85828601610e3c565b9250506020610efe85828601610e12565b9150509250929050565b600080600060608486031215610f1d57600080fd5b6000610f2b86828701610e3c565b9350506020610f3c86828701610e12565b9250506040610f4d86828701610e12565b9150509250925092565b610f6081611305565b82525050565b610f6f81611317565b82525050565b6000610f8260268361129e565b9150610f8d8261137c565b604082019050919050565b6000610fa5601f8361129e565b9150610fb0826113cb565b602082019050919050565b6000610fc860108361129e565b9150610fd3826113f4565b602082019050919050565b6000610feb60188361129e565b9150610ff68261141d565b602082019050919050565b600061100e60208361129e565b915061101982611446565b602082019050919050565b600061103160258361129e565b915061103c8261146f565b604082019050919050565b600061105460248361129e565b915061105f826114be565b604082019050919050565b600061107760228361129e565b91506110828261150d565b604082019050919050565b600061109a60198361129e565b91506110a58261155c565b602082019050919050565b6110b981611343565b82525050565b60006020820190506110d46000830184610f57565b92915050565b60006080820190506110ef6000830187610f57565b6110fc6020830186610f57565b6111096040830185610f57565b61111660608301846110b0565b95945050505050565b60006040820190506111346000830185610f57565b61114160208301846110b0565b9392505050565b600060208201905061115d6000830184610f66565b92915050565b6000602082019050818103600083015261117c81610f75565b9050919050565b6000602082019050818103600083015261119c81610f98565b9050919050565b600060208201905081810360008301526111bc81610fbb565b9050919050565b600060208201905081810360008301526111dc81610fde565b9050919050565b600060208201905081810360008301526111fc81611001565b9050919050565b6000602082019050818103600083015261121c81611024565b9050919050565b6000602082019050818103600083015261123c81611047565b9050919050565b6000602082019050818103600083015261125c8161106a565b9050919050565b6000602082019050818103600083015261127c8161108d565b9050919050565b600060208201905061129860008301846110b0565b92915050565b600082825260208201905092915050565b60006112ba82611343565b91506112c583611343565b9250827fffffffffffffffffffffffffffffffffffffffffffffffffffffffffffffffff038211156112fa576112f961134d565b5b828201905092915050565b600061131082611323565b9050919050565b60008115159050919050565b600073ffffffffffffffffffffffffffffffffffffffff82169050919050565b6000819050919050565b7f4e487b7100000000000000000000000000000000000000000000000000000000600052601160045260246000fd5b7f4f776e61626c653a206e6577206f776e657220697320746865207a65726f206160008201527f6464726573730000000000000000000000000000000000000000000000000000602082015250565b7f596f7520617265206e6f74206f6e65206f662074686520666967687465727300600082015250565b7f5061757361626c653a2070617573656400000000000000000000000000000000600082015250565b7f5769746864726177696e672063555344206661696c65642e0000000000000000600082015250565b7f4f776e61626c653a2063616c6c6572206973206e6f7420746865206f776e6572600082015250565b7f5468652077696e6e6572206973206e6f74206f6e65206f66207468652066696760008201527f6874657273000000000000000000000000000000000000000000000000000000602082015250565b7f596f7520617265206e6f7420776974682077696e6e6572206f6620746865206660008201527f6967687400000000000000000000000000000000000000000000000000000000602082015250565b7f5468657265206973206e6f2062616c616e636520666f7220746869732066696760008201527f6874000000000000000000000000000000000000000000000000000000000000602082015250565b7f746f6b656e206973206e6f742063656c6f206f72206355534400000000000000600082015250565b61158e81611305565b811461159957600080fd5b50565b6115a581611317565b81146115b057600080fd5b50565b6115bc81611343565b81146115c757600080fd5b5056fea2646970667358221220ad988e8296eba39ee69613265d71d6ad7e18fae6b984553dc3ab9e9a87f31ed964736f6c63430008020033",
  "immutableReferences": {},
  "source": "// contracts/Market.sol\n// SPDX-License-Identifier: MIT OR Apache-2.0\npragma solidity ^0.8.2;\nimport \"@openzeppelin/contracts/security/ReentrancyGuard.sol\";\nimport \"@openzeppelin/contracts/access/Ownable.sol\";\nimport \"@openzeppelin/contracts/token/ERC20/IERC20.sol\";\nimport \"@openzeppelin/contracts/security/Pausable.sol\";\nimport \"@openzeppelin/contracts/utils/math/SafeMath.sol\";\n\ncontract Fight is ReentrancyGuard, Pausable, Ownable {\n\n    using SafeMath for uint256;\n\n\n    address Celo = 0xF194afDf50B03e69Bd7D057c1Aa9e10c9954E4C9;\n    address cUSD = 0x874069Fa1Eb16D44d622F2e0Ca25eeA172369bC1;\n\n    struct FightInfo {\n        address fighter1;\n        address fighter2;\n        address winner;\n        uint256 deposit;\n    }\n\n    mapping(uint256 => FightInfo) public fights;\n\n    event Withdrawal(address indexed to, uint256 amount);\n    event Winner(address indexed winner);\n    event Ante(address indexed from, uint256 amount);\n\n    function createFight(uint256 fightId, address fighter1, address fighter2) public whenNotPaused onlyOwner {\n        fights[fightId].fighter1 = fighter1;\n        fights[fightId].fighter2 = fighter2;\n    }\n\n    function updateFight(uint256 fightId, address winner) public whenNotPaused onlyOwner {\n        address fighter1 = fights[fightId].fighter1;\n        address fighter2 = fights[fightId].fighter2;\n        require(fighter1 == winner || fighter2 == winner, \"The winner is not one of the fighters\");\n        fights[fightId].winner = winner;\n        emit Winner(winner);\n    }\n\n    function ante(uint256 fightId) public whenNotPaused payable {\n        address fighter1 = fights[fightId].fighter1;\n        address fighter2 = fights[fightId].fighter2;\n        require(fighter1 == msg.sender || fighter2 == msg.sender, \"You are not one of the fighters\");\n        fights[fightId].deposit += msg.value;\n        emit Ante(msg.sender, msg.value);\n    }\n\n    function withdraw(uint256 fightId, address token) public {\n        require(token == Celo || token == cUSD, \"token is not celo or cUSD\");\n        require(fights[fightId].deposit >= 0, \"There is no balance for this fight\");\n        require(fights[fightId].winner == msg.sender , \"You are not with winner of the fight\");\n\n        require(IERC20(token).transfer(msg.sender, fights[fightId].deposit), \"Withdrawing cUSD failed.\");\n        emit Withdrawal(msg.sender, fights[fightId].deposit);\n    }\n}\n",
  "sourcePath": "/home/seandevs/workspaces/celo-hackathon/nfts/robots/contracts/Fight.sol",
  "compiler": {
    "name": "solc",
    "version": "0.8.2+commit.661d1103.Emscripten.clang"
  },
  "schemaVersion": "3.4.1",
  "updatedAt": "2021-11-23T04:02:32.084Z",
  "networkType": "ethereum",
  "devdoc": {
    "kind": "dev",
    "methods": {
      "owner()": {
        "details": "Returns the address of the current owner."
      },
      "paused()": {
        "details": "Returns true if the contract is paused, and false otherwise."
      },
      "renounceOwnership()": {
        "details": "Leaves the contract without owner. It will not be possible to call `onlyOwner` functions anymore. Can only be called by the current owner. NOTE: Renouncing ownership will leave the contract without an owner, thereby removing any functionality that is only available to the owner."
      },
      "transferOwnership(address)": {
        "details": "Transfers ownership of the contract to a new account (`newOwner`). Can only be called by the current owner."
      }
    },
    "version": 1
  },
  "userdoc": {
    "kind": "user",
    "methods": {},
    "version": 1
  }
}