{
  "contractName": "Fight",
  "abi": [
    {
      "anonymous": false,
      "inputs": [
        {
          "indexed": true,
          "internalType": "address",
          "name": "from",
          "type": "address"
        },
        {
          "indexed": false,
          "internalType": "uint256",
          "name": "amount",
          "type": "uint256"
        }
      ],
      "name": "Ante",
      "type": "event"
    },
    {
      "anonymous": false,
      "inputs": [
        {
          "indexed": true,
          "internalType": "address",
          "name": "previousOwner",
          "type": "address"
        },
        {
          "indexed": true,
          "internalType": "address",
          "name": "newOwner",
          "type": "address"
        }
      ],
      "name": "OwnershipTransferred",
      "type": "event"
    },
    {
      "anonymous": false,
      "inputs": [
        {
          "indexed": false,
          "internalType": "address",
          "name": "account",
          "type": "address"
        }
      ],
      "name": "Paused",
      "type": "event"
    },
    {
      "anonymous": false,
      "inputs": [
        {
          "indexed": false,
          "internalType": "address",
          "name": "account",
          "type": "address"
        }
      ],
      "name": "Unpaused",
      "type": "event"
    },
    {
      "anonymous": false,
      "inputs": [
        {
          "indexed": true,
          "internalType": "address",
          "name": "winner",
          "type": "address"
        }
      ],
      "name": "Winner",
      "type": "event"
    },
    {
      "anonymous": false,
      "inputs": [
        {
          "indexed": true,
          "internalType": "address",
          "name": "to",
          "type": "address"
        },
        {
          "indexed": false,
          "internalType": "uint256",
          "name": "amount",
          "type": "uint256"
        }
      ],
      "name": "Withdrawal",
      "type": "event"
    },
    {
      "inputs": [],
      "name": "ANTE_PRICE",
      "outputs": [
        {
          "internalType": "uint256",
          "name": "",
          "type": "uint256"
        }
      ],
      "stateMutability": "view",
      "type": "function",
      "constant": true
    },
    {
      "inputs": [
        {
          "internalType": "uint256",
          "name": "",
          "type": "uint256"
        }
      ],
      "name": "fights",
      "outputs": [
        {
          "internalType": "address",
          "name": "fighter1",
          "type": "address"
        },
        {
          "internalType": "address",
          "name": "fighter2",
          "type": "address"
        },
        {
          "internalType": "address",
          "name": "winner",
          "type": "address"
        },
        {
          "internalType": "uint256",
          "name": "deposit",
          "type": "uint256"
        },
        {
          "internalType": "bool",
          "name": "isPaidOut",
          "type": "bool"
        }
      ],
      "stateMutability": "view",
      "type": "function",
      "constant": true
    },
    {
      "inputs": [],
      "name": "owner",
      "outputs": [
        {
          "internalType": "address",
          "name": "",
          "type": "address"
        }
      ],
      "stateMutability": "view",
      "type": "function",
      "constant": true
    },
    {
      "inputs": [],
      "name": "paused",
      "outputs": [
        {
          "internalType": "bool",
          "name": "",
          "type": "bool"
        }
      ],
      "stateMutability": "view",
      "type": "function",
      "constant": true
    },
    {
      "inputs": [],
      "name": "renounceOwnership",
      "outputs": [],
      "stateMutability": "nonpayable",
      "type": "function"
    },
    {
      "inputs": [
        {
          "internalType": "address",
          "name": "newOwner",
          "type": "address"
        }
      ],
      "name": "transferOwnership",
      "outputs": [],
      "stateMutability": "nonpayable",
      "type": "function"
    },
    {
      "inputs": [
        {
          "internalType": "uint256",
          "name": "fightId",
          "type": "uint256"
        },
        {
          "internalType": "address",
          "name": "fighter1",
          "type": "address"
        },
        {
          "internalType": "address",
          "name": "fighter2",
          "type": "address"
        }
      ],
      "name": "createFight",
      "outputs": [],
      "stateMutability": "nonpayable",
      "type": "function"
    },
    {
      "inputs": [
        {
          "internalType": "uint256",
          "name": "fightId",
          "type": "uint256"
        },
        {
          "internalType": "address",
          "name": "winner",
          "type": "address"
        }
      ],
      "name": "updateFight",
      "outputs": [],
      "stateMutability": "nonpayable",
      "type": "function"
    },
    {
      "inputs": [
        {
          "internalType": "uint256",
          "name": "fightId",
          "type": "uint256"
        }
      ],
      "name": "ante",
      "outputs": [],
      "stateMutability": "payable",
      "type": "function",
      "payable": true
    },
    {
      "inputs": [
        {
          "internalType": "uint256",
          "name": "fightId",
          "type": "uint256"
        },
        {
          "internalType": "address",
          "name": "token",
          "type": "address"
        }
      ],
      "name": "withdraw",
      "outputs": [],
      "stateMutability": "nonpayable",
      "type": "function"
    }
  ],
  "bytecode": "0x6080604052678ac7230489e8000060025573f194afdf50b03e69bd7d057c1aa9e10c9954e4c9600360006101000a81548173ffffffffffffffffffffffffffffffffffffffff021916908373ffffffffffffffffffffffffffffffffffffffff16021790555073874069fa1eb16d44d622f2e0ca25eea172369bc1600460006101000a81548173ffffffffffffffffffffffffffffffffffffffff021916908373ffffffffffffffffffffffffffffffffffffffff1602179055503480156100c657600080fd5b5060016000819055506000600160006101000a81548160ff0219169083151502179055506101066100fb61010b60201b60201c565b61011360201b60201c565b6101d6565b600033905090565b600060018054906101000a900473ffffffffffffffffffffffffffffffffffffffff169050816001806101000a81548173ffffffffffffffffffffffffffffffffffffffff021916908373ffffffffffffffffffffffffffffffffffffffff1602179055508173ffffffffffffffffffffffffffffffffffffffff168173ffffffffffffffffffffffffffffffffffffffff167f8be0079c531659141344cd1fd0a4f28419497f9722a3daafe3b4186f6b6457e060405160405180910390a35050565b6118a9806101e56000396000f3fe6080604052600436106100905760003560e01c8063715018a611610059578063715018a61461017e57806373f08a75146101955780638da5cb5b146101b1578063bbc501dd146101dc578063f2fde38b1461020557610090565b8062f714ce14610095578063172984fa146100be5780634315e723146100e957806348dc2ffa1461012a5780635c975abb14610153575b600080fd5b3480156100a157600080fd5b506100bc60048036038101906100b79190611069565b61022e565b005b3480156100ca57600080fd5b506100d36105f0565b6040516100e091906114b4565b60405180910390f35b3480156100f557600080fd5b50610110600480360381019061010b9190611040565b6105f6565b6040516101219594939291906112bd565b60405180910390f35b34801561013657600080fd5b50610151600480360381019061014c9190611069565b610699565b005b34801561015f57600080fd5b50610168610915565b6040516101759190611339565b60405180910390f35b34801561018a57600080fd5b5061019361092c565b005b6101af60048036038101906101aa9190611040565b6109b4565b005b3480156101bd57600080fd5b506101c6610c3b565b6040516101d391906112a2565b60405180910390f35b3480156101e857600080fd5b5061020360048036038101906101fe91906110a5565b610c63565b005b34801561021157600080fd5b5061022c60048036038101906102279190610fee565b610dd6565b005b6005600083815260200190815260200160002060040160009054906101000a900460ff1615610292576040517f08c379a0000000000000000000000000000000000000000000000000000000008152600401610289906113d4565b60405180910390fd5b600360009054906101000a900473ffffffffffffffffffffffffffffffffffffffff1673ffffffffffffffffffffffffffffffffffffffff168173ffffffffffffffffffffffffffffffffffffffff16148061033b5750600460009054906101000a900473ffffffffffffffffffffffffffffffffffffffff1673ffffffffffffffffffffffffffffffffffffffff168173ffffffffffffffffffffffffffffffffffffffff16145b61037a576040517f08c379a000000000000000000000000000000000000000000000000000000000815260040161037190611494565b60405180910390fd5b60006005600084815260200190815260200160002060030154116103d3576040517f08c379a00000000000000000000000000000000000000000000000000000000081526004016103ca90611474565b60405180910390fd5b3373ffffffffffffffffffffffffffffffffffffffff166005600084815260200190815260200160002060020160009054906101000a900473ffffffffffffffffffffffffffffffffffffffff1673ffffffffffffffffffffffffffffffffffffffff1614610477576040517f08c379a000000000000000000000000000000000000000000000000000000000815260040161046e90611454565b60405180910390fd5b60016005600084815260200190815260200160002060040160006101000a81548160ff0219169083151502179055508073ffffffffffffffffffffffffffffffffffffffff1663a9059cbb3360056000868152602001908152602001600020600301546040518363ffffffff1660e01b81526004016104f7929190611310565b602060405180830381600087803b15801561051157600080fd5b505af1158015610525573d6000803e3d6000fd5b505050506040513d601f19601f820116820180604052508101906105499190611017565b610588576040517f08c379a000000000000000000000000000000000000000000000000000000000815260040161057f906113f4565b60405180910390fd5b3373ffffffffffffffffffffffffffffffffffffffff167f7fcf532c15f0a6db0bd6d0e038bea71d30d808c7d98cb3bf7268a95bf5081b6560056000858152602001908152602001600020600301546040516105e491906114b4565b60405180910390a25050565b60025481565b60056020528060005260406000206000915090508060000160009054906101000a900473ffffffffffffffffffffffffffffffffffffffff16908060010160009054906101000a900473ffffffffffffffffffffffffffffffffffffffff16908060020160009054906101000a900473ffffffffffffffffffffffffffffffffffffffff16908060030154908060040160009054906101000a900460ff16905085565b6106a1610915565b156106e1576040517f08c379a00000000000000000000000000000000000000000000000000000000081526004016106d890611394565b60405180910390fd5b6106e9610ece565b73ffffffffffffffffffffffffffffffffffffffff16610707610c3b565b73ffffffffffffffffffffffffffffffffffffffff161461075d576040517f08c379a000000000000000000000000000000000000000000000000000000000815260040161075490611414565b60405180910390fd5b60006005600084815260200190815260200160002060000160009054906101000a900473ffffffffffffffffffffffffffffffffffffffff16905060006005600085815260200190815260200160002060010160009054906101000a900473ffffffffffffffffffffffffffffffffffffffff1690508273ffffffffffffffffffffffffffffffffffffffff168273ffffffffffffffffffffffffffffffffffffffff16148061083857508273ffffffffffffffffffffffffffffffffffffffff168173ffffffffffffffffffffffffffffffffffffffff16145b610877576040517f08c379a000000000000000000000000000000000000000000000000000000000815260040161086e90611434565b60405180910390fd5b826005600086815260200190815260200160002060020160006101000a81548173ffffffffffffffffffffffffffffffffffffffff021916908373ffffffffffffffffffffffffffffffffffffffff1602179055508273ffffffffffffffffffffffffffffffffffffffff167f745c90b656b4aafe296c8ca35aeacfe56cb96c90e1d320e5da643fff1051b6c060405160405180910390a250505050565b6000600160009054906101000a900460ff16905090565b610934610ece565b73ffffffffffffffffffffffffffffffffffffffff16610952610c3b565b73ffffffffffffffffffffffffffffffffffffffff16146109a8576040517f08c379a000000000000000000000000000000000000000000000000000000000815260040161099f90611414565b60405180910390fd5b6109b26000610ed6565b565b6109bc610915565b156109fc576040517f08c379a00000000000000000000000000000000000000000000000000000000081526004016109f390611394565b60405180910390fd5b60006005600083815260200190815260200160002060000160009054906101000a900473ffffffffffffffffffffffffffffffffffffffff16905060006005600084815260200190815260200160002060010160009054906101000a900473ffffffffffffffffffffffffffffffffffffffff1690506005600084815260200190815260200160002060040160009054906101000a900460ff1615610ad6576040517f08c379a0000000000000000000000000000000000000000000000000000000008152600401610acd906113d4565b60405180910390fd5b3373ffffffffffffffffffffffffffffffffffffffff168273ffffffffffffffffffffffffffffffffffffffff161480610b3b57503373ffffffffffffffffffffffffffffffffffffffff168173ffffffffffffffffffffffffffffffffffffffff16145b610b7a576040517f08c379a0000000000000000000000000000000000000000000000000000000008152600401610b7190611374565b60405180910390fd5b3460025414610bbe576040517f08c379a0000000000000000000000000000000000000000000000000000000008152600401610bb5906113b4565b60405180910390fd5b610be7346005600086815260200190815260200160002060030154610f9990919063ffffffff16565b503373ffffffffffffffffffffffffffffffffffffffff167f0b2f0aac459a59b2b4190c910f8458d1ff7fe0d91f512a43c21448ac2893e66734604051610c2e91906114b4565b60405180910390a2505050565b600060018054906101000a900473ffffffffffffffffffffffffffffffffffffffff16905090565b610c6b610915565b15610cab576040517f08c379a0000000000000000000000000000000000000000000000000000000008152600401610ca290611394565b60405180910390fd5b610cb3610ece565b73ffffffffffffffffffffffffffffffffffffffff16610cd1610c3b565b73ffffffffffffffffffffffffffffffffffffffff1614610d27576040517f08c379a0000000000000000000000000000000000000000000000000000000008152600401610d1e90611414565b60405180910390fd5b816005600085815260200190815260200160002060000160006101000a81548173ffffffffffffffffffffffffffffffffffffffff021916908373ffffffffffffffffffffffffffffffffffffffff160217905550806005600085815260200190815260200160002060010160006101000a81548173ffffffffffffffffffffffffffffffffffffffff021916908373ffffffffffffffffffffffffffffffffffffffff160217905550505050565b610dde610ece565b73ffffffffffffffffffffffffffffffffffffffff16610dfc610c3b565b73ffffffffffffffffffffffffffffffffffffffff1614610e52576040517f08c379a0000000000000000000000000000000000000000000000000000000008152600401610e4990611414565b60405180910390fd5b600073ffffffffffffffffffffffffffffffffffffffff168173ffffffffffffffffffffffffffffffffffffffff161415610ec2576040517f08c379a0000000000000000000000000000000000000000000000000000000008152600401610eb990611354565b60405180910390fd5b610ecb81610ed6565b50565b600033905090565b600060018054906101000a900473ffffffffffffffffffffffffffffffffffffffff169050816001806101000a81548173ffffffffffffffffffffffffffffffffffffffff021916908373ffffffffffffffffffffffffffffffffffffffff1602179055508173ffffffffffffffffffffffffffffffffffffffff168173ffffffffffffffffffffffffffffffffffffffff167f8be0079c531659141344cd1fd0a4f28419497f9722a3daafe3b4186f6b6457e060405160405180910390a35050565b60008183610fa791906114e0565b905092915050565b600081359050610fbe8161182e565b92915050565b600081519050610fd381611845565b92915050565b600081359050610fe88161185c565b92915050565b60006020828403121561100057600080fd5b600061100e84828501610faf565b91505092915050565b60006020828403121561102957600080fd5b600061103784828501610fc4565b91505092915050565b60006020828403121561105257600080fd5b600061106084828501610fd9565b91505092915050565b6000806040838503121561107c57600080fd5b600061108a85828601610fd9565b925050602061109b85828601610faf565b9150509250929050565b6000806000606084860312156110ba57600080fd5b60006110c886828701610fd9565b93505060206110d986828701610faf565b92505060406110ea86828701610faf565b9150509250925092565b6110fd81611536565b82525050565b61110c81611548565b82525050565b600061111f6026836114cf565b915061112a826115ad565b604082019050919050565b6000611142601f836114cf565b915061114d826115fc565b602082019050919050565b60006111656010836114cf565b915061117082611625565b602082019050919050565b60006111886023836114cf565b91506111938261164e565b604082019050919050565b60006111ab6016836114cf565b91506111b68261169d565b602082019050919050565b60006111ce6018836114cf565b91506111d9826116c6565b602082019050919050565b60006111f16020836114cf565b91506111fc826116ef565b602082019050919050565b60006112146025836114cf565b915061121f82611718565b604082019050919050565b60006112376024836114cf565b915061124282611767565b604082019050919050565b600061125a6022836114cf565b9150611265826117b6565b604082019050919050565b600061127d6019836114cf565b915061128882611805565b602082019050919050565b61129c81611574565b82525050565b60006020820190506112b760008301846110f4565b92915050565b600060a0820190506112d260008301886110f4565b6112df60208301876110f4565b6112ec60408301866110f4565b6112f96060830185611293565b6113066080830184611103565b9695505050505050565b600060408201905061132560008301856110f4565b6113326020830184611293565b9392505050565b600060208201905061134e6000830184611103565b92915050565b6000602082019050818103600083015261136d81611112565b9050919050565b6000602082019050818103600083015261138d81611135565b9050919050565b600060208201905081810360008301526113ad81611158565b9050919050565b600060208201905081810360008301526113cd8161117b565b9050919050565b600060208201905081810360008301526113ed8161119e565b9050919050565b6000602082019050818103600083015261140d816111c1565b9050919050565b6000602082019050818103600083015261142d816111e4565b9050919050565b6000602082019050818103600083015261144d81611207565b9050919050565b6000602082019050818103600083015261146d8161122a565b9050919050565b6000602082019050818103600083015261148d8161124d565b9050919050565b600060208201905081810360008301526114ad81611270565b9050919050565b60006020820190506114c96000830184611293565b92915050565b600082825260208201905092915050565b60006114eb82611574565b91506114f683611574565b9250827fffffffffffffffffffffffffffffffffffffffffffffffffffffffffffffffff0382111561152b5761152a61157e565b5b828201905092915050565b600061154182611554565b9050919050565b60008115159050919050565b600073ffffffffffffffffffffffffffffffffffffffff82169050919050565b6000819050919050565b7f4e487b7100000000000000000000000000000000000000000000000000000000600052601160045260246000fd5b7f4f776e61626c653a206e6577206f776e657220697320746865207a65726f206160008201527f6464726573730000000000000000000000000000000000000000000000000000602082015250565b7f596f7520617265206e6f74206f6e65206f662074686520666967687465727300600082015250565b7f5061757361626c653a2070617573656400000000000000000000000000000000600082015250565b7f596f75206e65656420746f20616e74652074686520636f727265637420616d6f60008201527f756e740000000000000000000000000000000000000000000000000000000000602082015250565b7f466967687420616c72656164792070616964206f757400000000000000000000600082015250565b7f5769746864726177696e672063555344206661696c65642e0000000000000000600082015250565b7f4f776e61626c653a2063616c6c6572206973206e6f7420746865206f776e6572600082015250565b7f5468652077696e6e6572206973206e6f74206f6e65206f66207468652066696760008201527f6874657273000000000000000000000000000000000000000000000000000000602082015250565b7f596f7520617265206e6f7420776974682077696e6e6572206f6620746865206660008201527f6967687400000000000000000000000000000000000000000000000000000000602082015250565b7f5468657265206973206e6f2062616c616e636520666f7220746869732066696760008201527f6874000000000000000000000000000000000000000000000000000000000000602082015250565b7f746f6b656e206973206e6f742063656c6f206f72206355534400000000000000600082015250565b61183781611536565b811461184257600080fd5b50565b61184e81611548565b811461185957600080fd5b50565b61186581611574565b811461187057600080fd5b5056fea264697066735822122047e55cf1e45a2307822dd6808681a8a9c36de7a12d223a5cf114b06da8f023c964736f6c63430008020033",
  "immutableReferences": {},
  "source": "// contracts/Market.sol\n// SPDX-License-Identifier: MIT OR Apache-2.0\npragma solidity ^0.8.2;\nimport \"@openzeppelin/contracts/security/ReentrancyGuard.sol\";\nimport \"@openzeppelin/contracts/access/Ownable.sol\";\nimport \"@openzeppelin/contracts/token/ERC20/IERC20.sol\";\nimport \"@openzeppelin/contracts/security/Pausable.sol\";\nimport \"@openzeppelin/contracts/utils/math/SafeMath.sol\";\n\ncontract Fight is ReentrancyGuard, Pausable, Ownable {\n\n    using SafeMath for uint256;\n\n    uint256 public ANTE_PRICE = 10 * 10**18;\n\n    address Celo = 0xF194afDf50B03e69Bd7D057c1Aa9e10c9954E4C9;\n    address cUSD = 0x874069Fa1Eb16D44d622F2e0Ca25eeA172369bC1;\n\n    struct FightInfo {\n        address fighter1;\n        address fighter2;\n        address winner;\n        uint256 deposit;\n        bool isPaidOut;\n    }\n\n    mapping(uint256 => FightInfo) public fights;\n\n    event Withdrawal(address indexed to, uint256 amount);\n    event Winner(address indexed winner);\n    event Ante(address indexed from, uint256 amount);\n\n    function createFight(uint256 fightId, address fighter1, address fighter2) public whenNotPaused onlyOwner {\n        fights[fightId].fighter1 = fighter1;\n        fights[fightId].fighter2 = fighter2;\n    }\n\n    function updateFight(uint256 fightId, address winner) public whenNotPaused onlyOwner {\n        address fighter1 = fights[fightId].fighter1;\n        address fighter2 = fights[fightId].fighter2;\n        require(fighter1 == winner || fighter2 == winner, \"The winner is not one of the fighters\");\n        fights[fightId].winner = winner;\n        emit Winner(winner);\n    }\n\n    function ante(uint256 fightId) public whenNotPaused payable {\n        address fighter1 = fights[fightId].fighter1;\n        address fighter2 = fights[fightId].fighter2;\n        require(!fights[fightId].isPaidOut, \"Fight already paid out\");\n        require(fighter1 == msg.sender || fighter2 == msg.sender, \"You are not one of the fighters\");\n        require(ANTE_PRICE == msg.value, \"You need to ante the correct amount\");\n        fights[fightId].deposit.add(msg.value);\n        emit Ante(msg.sender, msg.value);\n    }\n\n    function withdraw(uint256 fightId, address token) public {\n        require(!fights[fightId].isPaidOut, \"Fight already paid out\");\n        require(token == Celo || token == cUSD, \"token is not celo or cUSD\");\n        require(fights[fightId].deposit > 0, \"There is no balance for this fight\");\n        require(fights[fightId].winner == msg.sender , \"You are not with winner of the fight\");\n        fights[fightId].isPaidOut = true;\n        require(IERC20(token).transfer(msg.sender, fights[fightId].deposit), \"Withdrawing cUSD failed.\");\n        emit Withdrawal(msg.sender, fights[fightId].deposit);\n    }\n}\n",
  "sourcePath": "/home/seandevs/workspaces/celo-hackathon/nfts/robots/contracts/Fight.sol",
  "compiler": {
    "name": "solc",
    "version": "0.8.2+commit.661d1103.Emscripten.clang"
  },
  "schemaVersion": "3.4.1",
  "updatedAt": "2021-11-23T04:24:27.681Z",
  "networkType": "ethereum",
  "devdoc": {
    "kind": "dev",
    "methods": {
      "owner()": {
        "details": "Returns the address of the current owner."
      },
      "paused()": {
        "details": "Returns true if the contract is paused, and false otherwise."
      },
      "renounceOwnership()": {
        "details": "Leaves the contract without owner. It will not be possible to call `onlyOwner` functions anymore. Can only be called by the current owner. NOTE: Renouncing ownership will leave the contract without an owner, thereby removing any functionality that is only available to the owner."
      },
      "transferOwnership(address)": {
        "details": "Transfers ownership of the contract to a new account (`newOwner`). Can only be called by the current owner."
      }
    },
    "version": 1
  },
  "userdoc": {
    "kind": "user",
    "methods": {},
    "version": 1
  }
}