{
  "contractName": "Fight",
  "abi": [
    {
      "anonymous": false,
      "inputs": [
        {
          "indexed": true,
          "internalType": "address",
          "name": "from",
          "type": "address"
        },
        {
          "indexed": false,
          "internalType": "uint256",
          "name": "amount",
          "type": "uint256"
        }
      ],
      "name": "Ante",
      "type": "event"
    },
    {
      "anonymous": false,
      "inputs": [
        {
          "indexed": true,
          "internalType": "address",
          "name": "previousOwner",
          "type": "address"
        },
        {
          "indexed": true,
          "internalType": "address",
          "name": "newOwner",
          "type": "address"
        }
      ],
      "name": "OwnershipTransferred",
      "type": "event"
    },
    {
      "anonymous": false,
      "inputs": [
        {
          "indexed": false,
          "internalType": "address",
          "name": "account",
          "type": "address"
        }
      ],
      "name": "Paused",
      "type": "event"
    },
    {
      "anonymous": false,
      "inputs": [
        {
          "indexed": false,
          "internalType": "address",
          "name": "account",
          "type": "address"
        }
      ],
      "name": "Unpaused",
      "type": "event"
    },
    {
      "anonymous": false,
      "inputs": [
        {
          "indexed": true,
          "internalType": "address",
          "name": "winner",
          "type": "address"
        }
      ],
      "name": "Winner",
      "type": "event"
    },
    {
      "anonymous": false,
      "inputs": [
        {
          "indexed": true,
          "internalType": "address",
          "name": "to",
          "type": "address"
        },
        {
          "indexed": false,
          "internalType": "uint256",
          "name": "amount",
          "type": "uint256"
        }
      ],
      "name": "Withdrawal",
      "type": "event"
    },
    {
      "inputs": [
        {
          "internalType": "uint256",
          "name": "",
          "type": "uint256"
        }
      ],
      "name": "fights",
      "outputs": [
        {
          "internalType": "address",
          "name": "fighter1",
          "type": "address"
        },
        {
          "internalType": "address",
          "name": "fighter2",
          "type": "address"
        },
        {
          "internalType": "address",
          "name": "winner",
          "type": "address"
        },
        {
          "internalType": "uint256",
          "name": "deposit",
          "type": "uint256"
        },
        {
          "internalType": "bool",
          "name": "isPaidOut",
          "type": "bool"
        }
      ],
      "stateMutability": "view",
      "type": "function",
      "constant": true
    },
    {
      "inputs": [],
      "name": "owner",
      "outputs": [
        {
          "internalType": "address",
          "name": "",
          "type": "address"
        }
      ],
      "stateMutability": "view",
      "type": "function",
      "constant": true
    },
    {
      "inputs": [],
      "name": "paused",
      "outputs": [
        {
          "internalType": "bool",
          "name": "",
          "type": "bool"
        }
      ],
      "stateMutability": "view",
      "type": "function",
      "constant": true
    },
    {
      "inputs": [],
      "name": "renounceOwnership",
      "outputs": [],
      "stateMutability": "nonpayable",
      "type": "function"
    },
    {
      "inputs": [
        {
          "internalType": "address",
          "name": "newOwner",
          "type": "address"
        }
      ],
      "name": "transferOwnership",
      "outputs": [],
      "stateMutability": "nonpayable",
      "type": "function"
    },
    {
      "inputs": [
        {
          "internalType": "uint256",
          "name": "fightId",
          "type": "uint256"
        },
        {
          "internalType": "address",
          "name": "fighter1",
          "type": "address"
        },
        {
          "internalType": "address",
          "name": "fighter2",
          "type": "address"
        }
      ],
      "name": "createFight",
      "outputs": [],
      "stateMutability": "nonpayable",
      "type": "function"
    },
    {
      "inputs": [
        {
          "internalType": "uint256",
          "name": "fightId",
          "type": "uint256"
        },
        {
          "internalType": "address",
          "name": "winner",
          "type": "address"
        }
      ],
      "name": "updateFight",
      "outputs": [],
      "stateMutability": "nonpayable",
      "type": "function"
    },
    {
      "inputs": [
        {
          "internalType": "uint256",
          "name": "fightId",
          "type": "uint256"
        }
      ],
      "name": "ante",
      "outputs": [],
      "stateMutability": "payable",
      "type": "function",
      "payable": true
    },
    {
      "inputs": [
        {
          "internalType": "uint256",
          "name": "fightId",
          "type": "uint256"
        },
        {
          "internalType": "address",
          "name": "token",
          "type": "address"
        }
      ],
      "name": "withdraw",
      "outputs": [],
      "stateMutability": "nonpayable",
      "type": "function"
    }
  ],
  "bytecode": "0x608060405273f194afdf50b03e69bd7d057c1aa9e10c9954e4c9600260006101000a81548173ffffffffffffffffffffffffffffffffffffffff021916908373ffffffffffffffffffffffffffffffffffffffff16021790555073874069fa1eb16d44d622f2e0ca25eea172369bc1600360006101000a81548173ffffffffffffffffffffffffffffffffffffffff021916908373ffffffffffffffffffffffffffffffffffffffff1602179055503480156100ba57600080fd5b5060016000819055506000600160006101000a81548160ff0219169083151502179055506100fa6100ef6100ff60201b60201c565b61010760201b60201c565b6101ca565b600033905090565b600060018054906101000a900473ffffffffffffffffffffffffffffffffffffffff169050816001806101000a81548173ffffffffffffffffffffffffffffffffffffffff021916908373ffffffffffffffffffffffffffffffffffffffff1602179055508173ffffffffffffffffffffffffffffffffffffffff168173ffffffffffffffffffffffffffffffffffffffff167f8be0079c531659141344cd1fd0a4f28419497f9722a3daafe3b4186f6b6457e060405160405180910390a35050565b611798806101d96000396000f3fe6080604052600436106100855760003560e01c8063715018a611610059578063715018a61461014857806373f08a751461015f5780638da5cb5b1461017b578063bbc501dd146101a6578063f2fde38b146101cf57610085565b8062f714ce1461008a5780634315e723146100b357806348dc2ffa146100f45780635c975abb1461011d575b600080fd5b34801561009657600080fd5b506100b160048036038101906100ac9190610fea565b6101f8565b005b3480156100bf57600080fd5b506100da60048036038101906100d59190610fc1565b6105bb565b6040516100eb95949392919061121b565b60405180910390f35b34801561010057600080fd5b5061011b60048036038101906101169190610fea565b61065e565b005b34801561012957600080fd5b506101326108da565b60405161013f9190611297565b60405180910390f35b34801561015457600080fd5b5061015d6108f1565b005b61017960048036038101906101749190610fc1565b610979565b005b34801561018757600080fd5b50610190610bbc565b60405161019d9190611200565b60405180910390f35b3480156101b257600080fd5b506101cd60048036038101906101c89190611026565b610be4565b005b3480156101db57600080fd5b506101f660048036038101906101f19190610f6f565b610d57565b005b6004600083815260200190815260200160002060040160009054906101000a900460ff161561025c576040517f08c379a000000000000000000000000000000000000000000000000000000000815260040161025390611312565b60405180910390fd5b600260009054906101000a900473ffffffffffffffffffffffffffffffffffffffff1673ffffffffffffffffffffffffffffffffffffffff168173ffffffffffffffffffffffffffffffffffffffff1614806103055750600360009054906101000a900473ffffffffffffffffffffffffffffffffffffffff1673ffffffffffffffffffffffffffffffffffffffff168173ffffffffffffffffffffffffffffffffffffffff16145b610344576040517f08c379a000000000000000000000000000000000000000000000000000000000815260040161033b906113d2565b60405180910390fd5b60006004600084815260200190815260200160002060030154101561039e576040517f08c379a0000000000000000000000000000000000000000000000000000000008152600401610395906113b2565b60405180910390fd5b3373ffffffffffffffffffffffffffffffffffffffff166004600084815260200190815260200160002060020160009054906101000a900473ffffffffffffffffffffffffffffffffffffffff1673ffffffffffffffffffffffffffffffffffffffff1614610442576040517f08c379a000000000000000000000000000000000000000000000000000000000815260040161043990611392565b60405180910390fd5b60016004600084815260200190815260200160002060040160006101000a81548160ff0219169083151502179055508073ffffffffffffffffffffffffffffffffffffffff1663a9059cbb3360046000868152602001908152602001600020600301546040518363ffffffff1660e01b81526004016104c292919061126e565b602060405180830381600087803b1580156104dc57600080fd5b505af11580156104f0573d6000803e3d6000fd5b505050506040513d601f19601f820116820180604052508101906105149190610f98565b610553576040517f08c379a000000000000000000000000000000000000000000000000000000000815260040161054a90611332565b60405180910390fd5b3373ffffffffffffffffffffffffffffffffffffffff167f7fcf532c15f0a6db0bd6d0e038bea71d30d808c7d98cb3bf7268a95bf5081b6560046000858152602001908152602001600020600301546040516105af91906113f2565b60405180910390a25050565b60046020528060005260406000206000915090508060000160009054906101000a900473ffffffffffffffffffffffffffffffffffffffff16908060010160009054906101000a900473ffffffffffffffffffffffffffffffffffffffff16908060020160009054906101000a900473ffffffffffffffffffffffffffffffffffffffff16908060030154908060040160009054906101000a900460ff16905085565b6106666108da565b156106a6576040517f08c379a000000000000000000000000000000000000000000000000000000000815260040161069d906112f2565b60405180910390fd5b6106ae610e4f565b73ffffffffffffffffffffffffffffffffffffffff166106cc610bbc565b73ffffffffffffffffffffffffffffffffffffffff1614610722576040517f08c379a000000000000000000000000000000000000000000000000000000000815260040161071990611352565b60405180910390fd5b60006004600084815260200190815260200160002060000160009054906101000a900473ffffffffffffffffffffffffffffffffffffffff16905060006004600085815260200190815260200160002060010160009054906101000a900473ffffffffffffffffffffffffffffffffffffffff1690508273ffffffffffffffffffffffffffffffffffffffff168273ffffffffffffffffffffffffffffffffffffffff1614806107fd57508273ffffffffffffffffffffffffffffffffffffffff168173ffffffffffffffffffffffffffffffffffffffff16145b61083c576040517f08c379a000000000000000000000000000000000000000000000000000000000815260040161083390611372565b60405180910390fd5b826004600086815260200190815260200160002060020160006101000a81548173ffffffffffffffffffffffffffffffffffffffff021916908373ffffffffffffffffffffffffffffffffffffffff1602179055508273ffffffffffffffffffffffffffffffffffffffff167f745c90b656b4aafe296c8ca35aeacfe56cb96c90e1d320e5da643fff1051b6c060405160405180910390a250505050565b6000600160009054906101000a900460ff16905090565b6108f9610e4f565b73ffffffffffffffffffffffffffffffffffffffff16610917610bbc565b73ffffffffffffffffffffffffffffffffffffffff161461096d576040517f08c379a000000000000000000000000000000000000000000000000000000000815260040161096490611352565b60405180910390fd5b6109776000610e57565b565b6109816108da565b156109c1576040517f08c379a00000000000000000000000000000000000000000000000000000000081526004016109b8906112f2565b60405180910390fd5b60006004600083815260200190815260200160002060000160009054906101000a900473ffffffffffffffffffffffffffffffffffffffff16905060006004600084815260200190815260200160002060010160009054906101000a900473ffffffffffffffffffffffffffffffffffffffff1690506004600084815260200190815260200160002060040160009054906101000a900460ff1615610a9b576040517f08c379a0000000000000000000000000000000000000000000000000000000008152600401610a9290611312565b60405180910390fd5b3373ffffffffffffffffffffffffffffffffffffffff168273ffffffffffffffffffffffffffffffffffffffff161480610b0057503373ffffffffffffffffffffffffffffffffffffffff168173ffffffffffffffffffffffffffffffffffffffff16145b610b3f576040517f08c379a0000000000000000000000000000000000000000000000000000000008152600401610b36906112d2565b60405180910390fd5b610b68346004600086815260200190815260200160002060030154610f1a90919063ffffffff16565b503373ffffffffffffffffffffffffffffffffffffffff167f0b2f0aac459a59b2b4190c910f8458d1ff7fe0d91f512a43c21448ac2893e66734604051610baf91906113f2565b60405180910390a2505050565b600060018054906101000a900473ffffffffffffffffffffffffffffffffffffffff16905090565b610bec6108da565b15610c2c576040517f08c379a0000000000000000000000000000000000000000000000000000000008152600401610c23906112f2565b60405180910390fd5b610c34610e4f565b73ffffffffffffffffffffffffffffffffffffffff16610c52610bbc565b73ffffffffffffffffffffffffffffffffffffffff1614610ca8576040517f08c379a0000000000000000000000000000000000000000000000000000000008152600401610c9f90611352565b60405180910390fd5b816004600085815260200190815260200160002060000160006101000a81548173ffffffffffffffffffffffffffffffffffffffff021916908373ffffffffffffffffffffffffffffffffffffffff160217905550806004600085815260200190815260200160002060010160006101000a81548173ffffffffffffffffffffffffffffffffffffffff021916908373ffffffffffffffffffffffffffffffffffffffff160217905550505050565b610d5f610e4f565b73ffffffffffffffffffffffffffffffffffffffff16610d7d610bbc565b73ffffffffffffffffffffffffffffffffffffffff1614610dd3576040517f08c379a0000000000000000000000000000000000000000000000000000000008152600401610dca90611352565b60405180910390fd5b600073ffffffffffffffffffffffffffffffffffffffff168173ffffffffffffffffffffffffffffffffffffffff161415610e43576040517f08c379a0000000000000000000000000000000000000000000000000000000008152600401610e3a906112b2565b60405180910390fd5b610e4c81610e57565b50565b600033905090565b600060018054906101000a900473ffffffffffffffffffffffffffffffffffffffff169050816001806101000a81548173ffffffffffffffffffffffffffffffffffffffff021916908373ffffffffffffffffffffffffffffffffffffffff1602179055508173ffffffffffffffffffffffffffffffffffffffff168173ffffffffffffffffffffffffffffffffffffffff167f8be0079c531659141344cd1fd0a4f28419497f9722a3daafe3b4186f6b6457e060405160405180910390a35050565b60008183610f28919061141e565b905092915050565b600081359050610f3f8161171d565b92915050565b600081519050610f5481611734565b92915050565b600081359050610f698161174b565b92915050565b600060208284031215610f8157600080fd5b6000610f8f84828501610f30565b91505092915050565b600060208284031215610faa57600080fd5b6000610fb884828501610f45565b91505092915050565b600060208284031215610fd357600080fd5b6000610fe184828501610f5a565b91505092915050565b60008060408385031215610ffd57600080fd5b600061100b85828601610f5a565b925050602061101c85828601610f30565b9150509250929050565b60008060006060848603121561103b57600080fd5b600061104986828701610f5a565b935050602061105a86828701610f30565b925050604061106b86828701610f30565b9150509250925092565b61107e81611474565b82525050565b61108d81611486565b82525050565b60006110a060268361140d565b91506110ab826114eb565b604082019050919050565b60006110c3601f8361140d565b91506110ce8261153a565b602082019050919050565b60006110e660108361140d565b91506110f182611563565b602082019050919050565b600061110960168361140d565b91506111148261158c565b602082019050919050565b600061112c60188361140d565b9150611137826115b5565b602082019050919050565b600061114f60208361140d565b915061115a826115de565b602082019050919050565b600061117260258361140d565b915061117d82611607565b604082019050919050565b600061119560248361140d565b91506111a082611656565b604082019050919050565b60006111b860228361140d565b91506111c3826116a5565b604082019050919050565b60006111db60198361140d565b91506111e6826116f4565b602082019050919050565b6111fa816114b2565b82525050565b60006020820190506112156000830184611075565b92915050565b600060a0820190506112306000830188611075565b61123d6020830187611075565b61124a6040830186611075565b61125760608301856111f1565b6112646080830184611084565b9695505050505050565b60006040820190506112836000830185611075565b61129060208301846111f1565b9392505050565b60006020820190506112ac6000830184611084565b92915050565b600060208201905081810360008301526112cb81611093565b9050919050565b600060208201905081810360008301526112eb816110b6565b9050919050565b6000602082019050818103600083015261130b816110d9565b9050919050565b6000602082019050818103600083015261132b816110fc565b9050919050565b6000602082019050818103600083015261134b8161111f565b9050919050565b6000602082019050818103600083015261136b81611142565b9050919050565b6000602082019050818103600083015261138b81611165565b9050919050565b600060208201905081810360008301526113ab81611188565b9050919050565b600060208201905081810360008301526113cb816111ab565b9050919050565b600060208201905081810360008301526113eb816111ce565b9050919050565b600060208201905061140760008301846111f1565b92915050565b600082825260208201905092915050565b6000611429826114b2565b9150611434836114b2565b9250827fffffffffffffffffffffffffffffffffffffffffffffffffffffffffffffffff03821115611469576114686114bc565b5b828201905092915050565b600061147f82611492565b9050919050565b60008115159050919050565b600073ffffffffffffffffffffffffffffffffffffffff82169050919050565b6000819050919050565b7f4e487b7100000000000000000000000000000000000000000000000000000000600052601160045260246000fd5b7f4f776e61626c653a206e6577206f776e657220697320746865207a65726f206160008201527f6464726573730000000000000000000000000000000000000000000000000000602082015250565b7f596f7520617265206e6f74206f6e65206f662074686520666967687465727300600082015250565b7f5061757361626c653a2070617573656400000000000000000000000000000000600082015250565b7f466967687420616c72656164792070616964206f757400000000000000000000600082015250565b7f5769746864726177696e672063555344206661696c65642e0000000000000000600082015250565b7f4f776e61626c653a2063616c6c6572206973206e6f7420746865206f776e6572600082015250565b7f5468652077696e6e6572206973206e6f74206f6e65206f66207468652066696760008201527f6874657273000000000000000000000000000000000000000000000000000000602082015250565b7f596f7520617265206e6f7420776974682077696e6e6572206f6620746865206660008201527f6967687400000000000000000000000000000000000000000000000000000000602082015250565b7f5468657265206973206e6f2062616c616e636520666f7220746869732066696760008201527f6874000000000000000000000000000000000000000000000000000000000000602082015250565b7f746f6b656e206973206e6f742063656c6f206f72206355534400000000000000600082015250565b61172681611474565b811461173157600080fd5b50565b61173d81611486565b811461174857600080fd5b50565b611754816114b2565b811461175f57600080fd5b5056fea2646970667358221220d78f0688c3bbf3c24416197fb2f5a5144e261f4dc4e24dff1b343dc1ff99d62c64736f6c63430008020033",
  "immutableReferences": {},
  "source": "// contracts/Market.sol\n// SPDX-License-Identifier: MIT OR Apache-2.0\npragma solidity ^0.8.2;\nimport \"@openzeppelin/contracts/security/ReentrancyGuard.sol\";\nimport \"@openzeppelin/contracts/access/Ownable.sol\";\nimport \"@openzeppelin/contracts/token/ERC20/IERC20.sol\";\nimport \"@openzeppelin/contracts/security/Pausable.sol\";\nimport \"@openzeppelin/contracts/utils/math/SafeMath.sol\";\n\ncontract Fight is ReentrancyGuard, Pausable, Ownable {\n\n    using SafeMath for uint256;\n\n    address Celo = 0xF194afDf50B03e69Bd7D057c1Aa9e10c9954E4C9;\n    address cUSD = 0x874069Fa1Eb16D44d622F2e0Ca25eeA172369bC1;\n\n    struct FightInfo {\n        address fighter1;\n        address fighter2;\n        address winner;\n        uint256 deposit;\n        bool isPaidOut;\n    }\n\n    mapping(uint256 => FightInfo) public fights;\n\n    event Withdrawal(address indexed to, uint256 amount);\n    event Winner(address indexed winner);\n    event Ante(address indexed from, uint256 amount);\n\n    function createFight(uint256 fightId, address fighter1, address fighter2) public whenNotPaused onlyOwner {\n        fights[fightId].fighter1 = fighter1;\n        fights[fightId].fighter2 = fighter2;\n    }\n\n    function updateFight(uint256 fightId, address winner) public whenNotPaused onlyOwner {\n        address fighter1 = fights[fightId].fighter1;\n        address fighter2 = fights[fightId].fighter2;\n        require(fighter1 == winner || fighter2 == winner, \"The winner is not one of the fighters\");\n        fights[fightId].winner = winner;\n        emit Winner(winner);\n    }\n\n    function ante(uint256 fightId) public whenNotPaused payable {\n        address fighter1 = fights[fightId].fighter1;\n        address fighter2 = fights[fightId].fighter2;\n        require(!fights[fightId].isPaidOut, \"Fight already paid out\");\n        require(fighter1 == msg.sender || fighter2 == msg.sender, \"You are not one of the fighters\");\n        fights[fightId].deposit.add(msg.value);\n        emit Ante(msg.sender, msg.value);\n    }\n\n    function withdraw(uint256 fightId, address token) public {\n        require(!fights[fightId].isPaidOut, \"Fight already paid out\");\n        require(token == Celo || token == cUSD, \"token is not celo or cUSD\");\n        require(fights[fightId].deposit >= 0, \"There is no balance for this fight\");\n        require(fights[fightId].winner == msg.sender , \"You are not with winner of the fight\");\n        fights[fightId].isPaidOut = true;\n        require(IERC20(token).transfer(msg.sender, fights[fightId].deposit), \"Withdrawing cUSD failed.\");\n        emit Withdrawal(msg.sender, fights[fightId].deposit);\n    }\n}\n",
  "sourcePath": "/home/seandevs/workspaces/celo-hackathon/nfts/robots/contracts/Fight.sol",
  "compiler": {
    "name": "solc",
    "version": "0.8.2+commit.661d1103.Emscripten.clang"
  },
  "schemaVersion": "3.4.1",
  "updatedAt": "2021-11-23T04:17:34.531Z",
  "networkType": "ethereum",
  "devdoc": {
    "kind": "dev",
    "methods": {
      "owner()": {
        "details": "Returns the address of the current owner."
      },
      "paused()": {
        "details": "Returns true if the contract is paused, and false otherwise."
      },
      "renounceOwnership()": {
        "details": "Leaves the contract without owner. It will not be possible to call `onlyOwner` functions anymore. Can only be called by the current owner. NOTE: Renouncing ownership will leave the contract without an owner, thereby removing any functionality that is only available to the owner."
      },
      "transferOwnership(address)": {
        "details": "Transfers ownership of the contract to a new account (`newOwner`). Can only be called by the current owner."
      }
    },
    "version": 1
  },
  "userdoc": {
    "kind": "user",
    "methods": {},
    "version": 1
  }
}