{
  "contractName": "Robot",
  "abi": [
    {
      "inputs": [
        {
          "internalType": "string",
          "name": "baseURI",
          "type": "string"
        },
        {
          "internalType": "address payable",
          "name": "wallet",
          "type": "address"
        }
      ],
      "stateMutability": "nonpayable",
      "type": "constructor"
    },
    {
      "anonymous": false,
      "inputs": [
        {
          "indexed": true,
          "internalType": "address",
          "name": "owner",
          "type": "address"
        },
        {
          "indexed": true,
          "internalType": "address",
          "name": "approved",
          "type": "address"
        },
        {
          "indexed": true,
          "internalType": "uint256",
          "name": "tokenId",
          "type": "uint256"
        }
      ],
      "name": "Approval",
      "type": "event"
    },
    {
      "anonymous": false,
      "inputs": [
        {
          "indexed": true,
          "internalType": "address",
          "name": "owner",
          "type": "address"
        },
        {
          "indexed": true,
          "internalType": "address",
          "name": "operator",
          "type": "address"
        },
        {
          "indexed": false,
          "internalType": "bool",
          "name": "approved",
          "type": "bool"
        }
      ],
      "name": "ApprovalForAll",
      "type": "event"
    },
    {
      "anonymous": false,
      "inputs": [
        {
          "indexed": true,
          "internalType": "address",
          "name": "previousOwner",
          "type": "address"
        },
        {
          "indexed": true,
          "internalType": "address",
          "name": "newOwner",
          "type": "address"
        }
      ],
      "name": "OwnershipTransferred",
      "type": "event"
    },
    {
      "anonymous": false,
      "inputs": [
        {
          "indexed": false,
          "internalType": "address",
          "name": "account",
          "type": "address"
        }
      ],
      "name": "Paused",
      "type": "event"
    },
    {
      "anonymous": false,
      "inputs": [
        {
          "indexed": true,
          "internalType": "address",
          "name": "from",
          "type": "address"
        },
        {
          "indexed": true,
          "internalType": "address",
          "name": "to",
          "type": "address"
        },
        {
          "indexed": true,
          "internalType": "uint256",
          "name": "tokenId",
          "type": "uint256"
        }
      ],
      "name": "Transfer",
      "type": "event"
    },
    {
      "anonymous": false,
      "inputs": [
        {
          "indexed": false,
          "internalType": "address",
          "name": "account",
          "type": "address"
        }
      ],
      "name": "Unpaused",
      "type": "event"
    },
    {
      "anonymous": false,
      "inputs": [
        {
          "indexed": false,
          "internalType": "address",
          "name": "addr",
          "type": "address"
        }
      ],
      "name": "WhitelistedAddressAdded",
      "type": "event"
    },
    {
      "anonymous": false,
      "inputs": [
        {
          "indexed": false,
          "internalType": "address",
          "name": "addr",
          "type": "address"
        }
      ],
      "name": "WhitelistedAddressRemoved",
      "type": "event"
    },
    {
      "inputs": [],
      "name": "ROBOT_PRICE",
      "outputs": [
        {
          "internalType": "uint256",
          "name": "",
          "type": "uint256"
        }
      ],
      "stateMutability": "view",
      "type": "function",
      "constant": true
    },
    {
      "inputs": [
        {
          "internalType": "address",
          "name": "addr",
          "type": "address"
        }
      ],
      "name": "addAddressToWhitelist",
      "outputs": [
        {
          "internalType": "bool",
          "name": "success",
          "type": "bool"
        }
      ],
      "stateMutability": "nonpayable",
      "type": "function"
    },
    {
      "inputs": [
        {
          "internalType": "address[]",
          "name": "addrs",
          "type": "address[]"
        }
      ],
      "name": "addAddressesToWhitelist",
      "outputs": [
        {
          "internalType": "bool",
          "name": "success",
          "type": "bool"
        }
      ],
      "stateMutability": "nonpayable",
      "type": "function"
    },
    {
      "inputs": [
        {
          "internalType": "address",
          "name": "to",
          "type": "address"
        },
        {
          "internalType": "uint256",
          "name": "tokenId",
          "type": "uint256"
        }
      ],
      "name": "approve",
      "outputs": [],
      "stateMutability": "nonpayable",
      "type": "function"
    },
    {
      "inputs": [
        {
          "internalType": "address",
          "name": "owner",
          "type": "address"
        }
      ],
      "name": "balanceOf",
      "outputs": [
        {
          "internalType": "uint256",
          "name": "",
          "type": "uint256"
        }
      ],
      "stateMutability": "view",
      "type": "function",
      "constant": true
    },
    {
      "inputs": [
        {
          "internalType": "uint256",
          "name": "tokenId",
          "type": "uint256"
        }
      ],
      "name": "getApproved",
      "outputs": [
        {
          "internalType": "address",
          "name": "",
          "type": "address"
        }
      ],
      "stateMutability": "view",
      "type": "function",
      "constant": true
    },
    {
      "inputs": [
        {
          "internalType": "address",
          "name": "owner",
          "type": "address"
        },
        {
          "internalType": "address",
          "name": "operator",
          "type": "address"
        }
      ],
      "name": "isApprovedForAll",
      "outputs": [
        {
          "internalType": "bool",
          "name": "",
          "type": "bool"
        }
      ],
      "stateMutability": "view",
      "type": "function",
      "constant": true
    },
    {
      "inputs": [],
      "name": "name",
      "outputs": [
        {
          "internalType": "string",
          "name": "",
          "type": "string"
        }
      ],
      "stateMutability": "view",
      "type": "function",
      "constant": true
    },
    {
      "inputs": [],
      "name": "owner",
      "outputs": [
        {
          "internalType": "address",
          "name": "",
          "type": "address"
        }
      ],
      "stateMutability": "view",
      "type": "function",
      "constant": true
    },
    {
      "inputs": [
        {
          "internalType": "uint256",
          "name": "tokenId",
          "type": "uint256"
        }
      ],
      "name": "ownerOf",
      "outputs": [
        {
          "internalType": "address",
          "name": "",
          "type": "address"
        }
      ],
      "stateMutability": "view",
      "type": "function",
      "constant": true
    },
    {
      "inputs": [],
      "name": "paused",
      "outputs": [
        {
          "internalType": "bool",
          "name": "",
          "type": "bool"
        }
      ],
      "stateMutability": "view",
      "type": "function",
      "constant": true
    },
    {
      "inputs": [
        {
          "internalType": "address",
          "name": "addr",
          "type": "address"
        }
      ],
      "name": "removeAddressFromWhitelist",
      "outputs": [
        {
          "internalType": "bool",
          "name": "success",
          "type": "bool"
        }
      ],
      "stateMutability": "nonpayable",
      "type": "function"
    },
    {
      "inputs": [
        {
          "internalType": "address[]",
          "name": "addrs",
          "type": "address[]"
        }
      ],
      "name": "removeAddressesFromWhitelist",
      "outputs": [
        {
          "internalType": "bool",
          "name": "success",
          "type": "bool"
        }
      ],
      "stateMutability": "nonpayable",
      "type": "function"
    },
    {
      "inputs": [],
      "name": "renounceOwnership",
      "outputs": [],
      "stateMutability": "nonpayable",
      "type": "function"
    },
    {
      "inputs": [
        {
          "internalType": "uint256",
          "name": "",
          "type": "uint256"
        }
      ],
      "name": "robots",
      "outputs": [
        {
          "internalType": "uint256",
          "name": "robotIndex",
          "type": "uint256"
        },
        {
          "internalType": "string",
          "name": "imageURI",
          "type": "string"
        },
        {
          "internalType": "uint256",
          "name": "wins",
          "type": "uint256"
        },
        {
          "internalType": "uint256",
          "name": "losses",
          "type": "uint256"
        },
        {
          "internalType": "enum Robot.State",
          "name": "state",
          "type": "uint8"
        },
        {
          "internalType": "string",
          "name": "robotName",
          "type": "string"
        },
        {
          "internalType": "string",
          "name": "robotType",
          "type": "string"
        },
        {
          "internalType": "uint256",
          "name": "health",
          "type": "uint256"
        },
        {
          "internalType": "uint256",
          "name": "strength",
          "type": "uint256"
        },
        {
          "internalType": "uint256",
          "name": "agility",
          "type": "uint256"
        },
        {
          "internalType": "uint256",
          "name": "ai",
          "type": "uint256"
        },
        {
          "internalType": "uint256",
          "name": "defense",
          "type": "uint256"
        }
      ],
      "stateMutability": "view",
      "type": "function",
      "constant": true
    },
    {
      "inputs": [
        {
          "internalType": "address",
          "name": "from",
          "type": "address"
        },
        {
          "internalType": "address",
          "name": "to",
          "type": "address"
        },
        {
          "internalType": "uint256",
          "name": "tokenId",
          "type": "uint256"
        }
      ],
      "name": "safeTransferFrom",
      "outputs": [],
      "stateMutability": "nonpayable",
      "type": "function"
    },
    {
      "inputs": [
        {
          "internalType": "address",
          "name": "from",
          "type": "address"
        },
        {
          "internalType": "address",
          "name": "to",
          "type": "address"
        },
        {
          "internalType": "uint256",
          "name": "tokenId",
          "type": "uint256"
        },
        {
          "internalType": "bytes",
          "name": "_data",
          "type": "bytes"
        }
      ],
      "name": "safeTransferFrom",
      "outputs": [],
      "stateMutability": "nonpayable",
      "type": "function"
    },
    {
      "inputs": [
        {
          "internalType": "address",
          "name": "operator",
          "type": "address"
        },
        {
          "internalType": "bool",
          "name": "approved",
          "type": "bool"
        }
      ],
      "name": "setApprovalForAll",
      "outputs": [],
      "stateMutability": "nonpayable",
      "type": "function"
    },
    {
      "inputs": [],
      "name": "symbol",
      "outputs": [
        {
          "internalType": "string",
          "name": "",
          "type": "string"
        }
      ],
      "stateMutability": "view",
      "type": "function",
      "constant": true
    },
    {
      "inputs": [
        {
          "internalType": "uint256",
          "name": "index",
          "type": "uint256"
        }
      ],
      "name": "tokenByIndex",
      "outputs": [
        {
          "internalType": "uint256",
          "name": "",
          "type": "uint256"
        }
      ],
      "stateMutability": "view",
      "type": "function",
      "constant": true
    },
    {
      "inputs": [
        {
          "internalType": "address",
          "name": "owner",
          "type": "address"
        },
        {
          "internalType": "uint256",
          "name": "index",
          "type": "uint256"
        }
      ],
      "name": "tokenOfOwnerByIndex",
      "outputs": [
        {
          "internalType": "uint256",
          "name": "",
          "type": "uint256"
        }
      ],
      "stateMutability": "view",
      "type": "function",
      "constant": true
    },
    {
      "inputs": [
        {
          "internalType": "uint256",
          "name": "tokenId",
          "type": "uint256"
        }
      ],
      "name": "tokenURI",
      "outputs": [
        {
          "internalType": "string",
          "name": "",
          "type": "string"
        }
      ],
      "stateMutability": "view",
      "type": "function",
      "constant": true
    },
    {
      "inputs": [],
      "name": "totalSupply",
      "outputs": [
        {
          "internalType": "uint256",
          "name": "",
          "type": "uint256"
        }
      ],
      "stateMutability": "view",
      "type": "function",
      "constant": true
    },
    {
      "inputs": [
        {
          "internalType": "address",
          "name": "from",
          "type": "address"
        },
        {
          "internalType": "address",
          "name": "to",
          "type": "address"
        },
        {
          "internalType": "uint256",
          "name": "tokenId",
          "type": "uint256"
        }
      ],
      "name": "transferFrom",
      "outputs": [],
      "stateMutability": "nonpayable",
      "type": "function"
    },
    {
      "inputs": [
        {
          "internalType": "address",
          "name": "newOwner",
          "type": "address"
        }
      ],
      "name": "transferOwnership",
      "outputs": [],
      "stateMutability": "nonpayable",
      "type": "function"
    },
    {
      "inputs": [
        {
          "internalType": "address",
          "name": "",
          "type": "address"
        }
      ],
      "name": "whitelist",
      "outputs": [
        {
          "internalType": "bool",
          "name": "",
          "type": "bool"
        }
      ],
      "stateMutability": "view",
      "type": "function",
      "constant": true
    },
    {
      "inputs": [],
      "name": "pause",
      "outputs": [],
      "stateMutability": "nonpayable",
      "type": "function"
    },
    {
      "inputs": [],
      "name": "unpause",
      "outputs": [],
      "stateMutability": "nonpayable",
      "type": "function"
    },
    {
      "inputs": [
        {
          "internalType": "string",
          "name": "baseURI",
          "type": "string"
        }
      ],
      "name": "setBaseURI",
      "outputs": [],
      "stateMutability": "nonpayable",
      "type": "function"
    },
    {
      "inputs": [
        {
          "internalType": "bytes4",
          "name": "interfaceId",
          "type": "bytes4"
        }
      ],
      "name": "supportsInterface",
      "outputs": [
        {
          "internalType": "bool",
          "name": "",
          "type": "bool"
        }
      ],
      "stateMutability": "view",
      "type": "function",
      "constant": true
    },
    {
      "inputs": [
        {
          "internalType": "uint256",
          "name": "botType",
          "type": "uint256"
        }
      ],
      "name": "mint",
      "outputs": [],
      "stateMutability": "payable",
      "type": "function",
      "payable": true
    },
    {
      "inputs": [
        {
          "internalType": "uint256",
          "name": "winningRobotIndex",
          "type": "uint256"
        },
        {
          "internalType": "uint256",
          "name": "losingRobotIndex",
          "type": "uint256"
        }
      ],
      "name": "updateRobotsRecords",
      "outputs": [],
      "stateMutability": "nonpayable",
      "type": "function"
    },
    {
      "inputs": [
        {
          "internalType": "uint256",
          "name": "robotIndex",
          "type": "uint256"
        },
        {
          "internalType": "string",
          "name": "value",
          "type": "string"
        }
      ],
      "name": "updateRobotName",
      "outputs": [],
      "stateMutability": "nonpayable",
      "type": "function"
    },
    {
      "inputs": [
        {
          "internalType": "uint256",
          "name": "robotIndex",
          "type": "uint256"
        },
        {
          "internalType": "uint256",
          "name": "value",
          "type": "uint256"
        }
      ],
      "name": "updateRobotHealth",
      "outputs": [],
      "stateMutability": "nonpayable",
      "type": "function"
    },
    {
      "inputs": [
        {
          "internalType": "uint256",
          "name": "robotIndex",
          "type": "uint256"
        },
        {
          "internalType": "uint256",
          "name": "value",
          "type": "uint256"
        }
      ],
      "name": "updateRobotStrength",
      "outputs": [],
      "stateMutability": "nonpayable",
      "type": "function"
    },
    {
      "inputs": [
        {
          "internalType": "uint256",
          "name": "robotIndex",
          "type": "uint256"
        },
        {
          "internalType": "uint256",
          "name": "value",
          "type": "uint256"
        }
      ],
      "name": "updateRobotAgility",
      "outputs": [],
      "stateMutability": "nonpayable",
      "type": "function"
    },
    {
      "inputs": [
        {
          "internalType": "uint256",
          "name": "robotIndex",
          "type": "uint256"
        },
        {
          "internalType": "uint256",
          "name": "value",
          "type": "uint256"
        }
      ],
      "name": "updateRobotAi",
      "outputs": [],
      "stateMutability": "nonpayable",
      "type": "function"
    },
    {
      "inputs": [
        {
          "internalType": "uint256",
          "name": "robotIndex",
          "type": "uint256"
        },
        {
          "internalType": "uint256",
          "name": "value",
          "type": "uint256"
        }
      ],
      "name": "updateRobotDefense",
      "outputs": [],
      "stateMutability": "nonpayable",
      "type": "function"
    },
    {
      "inputs": [
        {
          "internalType": "uint256",
          "name": "robotIndex",
          "type": "uint256"
        }
      ],
      "name": "setRobotAsFighter",
      "outputs": [],
      "stateMutability": "nonpayable",
      "type": "function"
    },
    {
      "inputs": [
        {
          "internalType": "uint256",
          "name": "robotIndex",
          "type": "uint256"
        }
      ],
      "name": "setRobotAsTrainer",
      "outputs": [],
      "stateMutability": "nonpayable",
      "type": "function"
    },
    {
      "inputs": [
        {
          "internalType": "uint256",
          "name": "robotIndex",
          "type": "uint256"
        }
      ],
      "name": "setRobotAsRetired",
      "outputs": [],
      "stateMutability": "nonpayable",
      "type": "function"
    },
    {
      "inputs": [
        {
          "internalType": "uint256",
          "name": "robotIndex",
          "type": "uint256"
        }
      ],
      "name": "getRobotRecord",
      "outputs": [
        {
          "internalType": "uint256",
          "name": "",
          "type": "uint256"
        },
        {
          "internalType": "uint256",
          "name": "",
          "type": "uint256"
        }
      ],
      "stateMutability": "view",
      "type": "function",
      "constant": true
    },
    {
      "inputs": [
        {
          "internalType": "uint256",
          "name": "robotIndex",
          "type": "uint256"
        }
      ],
      "name": "getRobotState",
      "outputs": [
        {
          "internalType": "enum Robot.State",
          "name": "",
          "type": "uint8"
        }
      ],
      "stateMutability": "view",
      "type": "function",
      "constant": true
    },
    {
      "inputs": [
        {
          "internalType": "address",
          "name": "_owner",
          "type": "address"
        }
      ],
      "name": "walletOfOwner",
      "outputs": [
        {
          "internalType": "uint256[]",
          "name": "",
          "type": "uint256[]"
        }
      ],
      "stateMutability": "view",
      "type": "function",
      "constant": true
    },
    {
      "inputs": [],
      "name": "withdrawAll",
      "outputs": [],
      "stateMutability": "payable",
      "type": "function",
      "payable": true
    }
  ],
  "bytecode": "0x6080604052670de0b6b3a7640000600c5560405180608001604052806040518060400160405280600681526020017f526f626f7431000000000000000000000000000000000000000000000000000081525081526020016040518060400160405280600681526020017f526f626f7432000000000000000000000000000000000000000000000000000081525081526020016040518060400160405280600681526020017f526f626f7433000000000000000000000000000000000000000000000000000081525081526020016040518060400160405280600681526020017f526f626f74340000000000000000000000000000000000000000000000000000815250815250600f906004620001179291906200063b565b5060405180608001604052806040518060400160405280600481526020017f54616e6b0000000000000000000000000000000000000000000000000000000081525081526020016040518060400160405280600681526020017f537065656479000000000000000000000000000000000000000000000000000081525081526020016040518060400160405280600881526020017f446566656e64657200000000000000000000000000000000000000000000000081525081526020016040518060400160405280600881526020017f41747461636b657200000000000000000000000000000000000000000000000081525081525060109060046200021f9291906200063b565b506040518060800160405280601460ff168152602001600a60ff168152602001600a60ff168152602001601460ff16815250601190600462000263929190620006a2565b506040518060800160405280600a60ff168152602001601460ff168152602001600a60ff168152602001601460ff168152506012906004620002a7929190620006a2565b506040518060800160405280600a60ff168152602001601460ff168152602001601460ff168152602001600a60ff168152506013906004620002eb929190620006a2565b506040518060800160405280601460ff168152602001600a60ff168152602001601460ff168152602001600a60ff1681525060149060046200032f929190620006a2565b503480156200033d57600080fd5b5060405162006897380380620068978339818101604052810190620003639190620008a0565b6040518060400160405280600581526020017f526f626f740000000000000000000000000000000000000000000000000000008152506040518060400160405280600381526020017f52425400000000000000000000000000000000000000000000000000000000008152508160009080519060200190620003e7929190620006f9565b50806001908051906020019062000400929190620006f9565b5050506000600a60006101000a81548160ff0219169083151502179055506200043e620004326200049860201b60201c565b620004a060201b60201c565b6200044f826200056660201b60201c565b80600e60006101000a81548173ffffffffffffffffffffffffffffffffffffffff021916908373ffffffffffffffffffffffffffffffffffffffff160217905550505062000b3b565b600033905090565b6000600a60019054906101000a900473ffffffffffffffffffffffffffffffffffffffff16905081600a60016101000a81548173ffffffffffffffffffffffffffffffffffffffff021916908373ffffffffffffffffffffffffffffffffffffffff1602179055508173ffffffffffffffffffffffffffffffffffffffff168173ffffffffffffffffffffffffffffffffffffffff167f8be0079c531659141344cd1fd0a4f28419497f9722a3daafe3b4186f6b6457e060405160405180910390a35050565b620005766200049860201b60201c565b73ffffffffffffffffffffffffffffffffffffffff166200059c6200061160201b60201c565b73ffffffffffffffffffffffffffffffffffffffff1614620005f5576040517f08c379a0000000000000000000000000000000000000000000000000000000008152600401620005ec9062000921565b60405180910390fd5b80600d90805190602001906200060d929190620006f9565b5050565b6000600a60019054906101000a900473ffffffffffffffffffffffffffffffffffffffff16905090565b8280548282559060005260206000209081019282156200068f579160200282015b828111156200068e5782518290805190602001906200067d929190620006f9565b50916020019190600101906200065c565b5b5090506200069e91906200078a565b5090565b828054828255906000526020600020908101928215620006e6579160200282015b82811115620006e5578251829060ff16905591602001919060010190620006c3565b5b509050620006f59190620007b2565b5090565b828054620007079062000a1d565b90600052602060002090601f0160209004810192826200072b576000855562000777565b82601f106200074657805160ff191683800117855562000777565b8280016001018555821562000777579182015b828111156200077657825182559160200191906001019062000759565b5b509050620007869190620007b2565b5090565b5b80821115620007ae5760008181620007a49190620007d1565b506001016200078b565b5090565b5b80821115620007cd576000816000905550600101620007b3565b5090565b508054620007df9062000a1d565b6000825580601f10620007f3575062000814565b601f016020900490600052602060002090810190620008139190620007b2565b5b50565b60006200082e62000828846200096c565b62000943565b9050828152602081018484840111156200084757600080fd5b62000854848285620009e7565b509392505050565b6000815190506200086d8162000b21565b92915050565b600082601f8301126200088557600080fd5b81516200089784826020860162000817565b91505092915050565b60008060408385031215620008b457600080fd5b600083015167ffffffffffffffff811115620008cf57600080fd5b620008dd8582860162000873565b9250506020620008f0858286016200085c565b9150509250929050565b600062000909602083620009a2565b9150620009168262000af8565b602082019050919050565b600060208201905081810360008301526200093c81620008fa565b9050919050565b60006200094f62000962565b90506200095d828262000a53565b919050565b6000604051905090565b600067ffffffffffffffff8211156200098a576200098962000ab8565b5b620009958262000ae7565b9050602081019050919050565b600082825260208201905092915050565b6000620009c082620009c7565b9050919050565b600073ffffffffffffffffffffffffffffffffffffffff82169050919050565b60005b8381101562000a07578082015181840152602081019050620009ea565b8381111562000a17576000848401525b50505050565b6000600282049050600182168062000a3657607f821691505b6020821081141562000a4d5762000a4c62000a89565b5b50919050565b62000a5e8262000ae7565b810181811067ffffffffffffffff8211171562000a805762000a7f62000ab8565b5b80604052505050565b7f4e487b7100000000000000000000000000000000000000000000000000000000600052602260045260246000fd5b7f4e487b7100000000000000000000000000000000000000000000000000000000600052604160045260246000fd5b6000601f19601f8301169050919050565b7f4f776e61626c653a2063616c6c6572206973206e6f7420746865206f776e6572600082015250565b62000b2c81620009b3565b811462000b3857600080fd5b50565b615d4c8062000b4b6000396000f3fe6080604052600436106102725760003560e01c806370a082311161014f578063a899cbbb116100c1578063c87b56dd1161007a578063c87b56dd14610984578063db43c507146109c1578063e10d74fe146109ea578063e2ec6ec314610a13578063e985e9c514610a50578063f2fde38b14610a8d57610272565b8063a899cbbb1461087a578063aaea4fff146108b7578063abdb9bec146108e0578063b01d49d114610909578063b7a293ec14610932578063b88d4fde1461095b57610272565b80638da5cb5b116101135780638da5cb5b1461075a57806395d89b41146107855780639b19251a146107b0578063a03937c5146107ed578063a0712d6814610835578063a22cb4651461085157610272565b806370a08231146106a8578063715018a6146106e55780637b9417c8146106fc5780638456cb5914610739578063853828b61461075057610272565b80633f4ba83a116101e857806355f804b3116101ac57806355f804b31461059c57806357a6f5cf146105c55780635a44890a146105ee5780635c975abb146106175780636352211e146106425780636f027ef11461067f57610272565b80633f4ba83a146104b957806342842e0e146104d0578063438b6300146104f95780634f6ccce714610536578063508a99a11461057357610272565b806318160ddd1161023a57806318160ddd1461038357806321a4b2a0146103ae57806323b872dd146103d957806324953eaa14610402578063286dd3f51461043f5780632f745c591461047c57610272565b806301ffc9a71461027757806306fdde03146102b4578063081812fc146102df578063095ea7b31461031c5780630e9c54a114610345575b600080fd5b34801561028357600080fd5b5061029e600480360381019061029991906147be565b610ab6565b6040516102ab9190614e1d565b60405180910390f35b3480156102c057600080fd5b506102c9610ac8565b6040516102d69190614e53565b60405180910390f35b3480156102eb57600080fd5b5061030660048036038101906103019190614851565b610b5a565b6040516103139190614d94565b60405180910390f35b34801561032857600080fd5b50610343600480360381019061033e9190614741565b610bdf565b005b34801561035157600080fd5b5061036c60048036038101906103679190614851565b610cf7565b60405161037a92919061521f565b60405180910390f35b34801561038f57600080fd5b50610398610d31565b6040516103a59190615135565b60405180910390f35b3480156103ba57600080fd5b506103c3610d3e565b6040516103d09190615135565b60405180910390f35b3480156103e557600080fd5b5061040060048036038101906103fb919061463b565b610d44565b005b34801561040e57600080fd5b506104296004803603810190610424919061477d565b610da4565b6040516104369190614e1d565b60405180910390f35b34801561044b57600080fd5b50610466600480360381019061046191906145d6565b610e9a565b6040516104739190614e1d565b60405180910390f35b34801561048857600080fd5b506104a3600480360381019061049e9190614741565b611003565b6040516104b09190615135565b60405180910390f35b3480156104c557600080fd5b506104ce6110a8565b005b3480156104dc57600080fd5b506104f760048036038101906104f2919061463b565b61112e565b005b34801561050557600080fd5b50610520600480360381019061051b91906145d6565b61114e565b60405161052d9190614dfb565b60405180910390f35b34801561054257600080fd5b5061055d60048036038101906105589190614851565b6112ca565b60405161056a9190615135565b60405180910390f35b34801561057f57600080fd5b5061059a600480360381019061059591906148ce565b611361565b005b3480156105a857600080fd5b506105c360048036038101906105be9190614810565b61141e565b005b3480156105d157600080fd5b506105ec60048036038101906105e79190614851565b6114b4565b005b3480156105fa57600080fd5b50610615600480360381019061061091906148ce565b6115e0565b005b34801561062357600080fd5b5061062c61169d565b6040516106399190614e1d565b60405180910390f35b34801561064e57600080fd5b5061066960048036038101906106649190614851565b6116b4565b6040516106769190614d94565b60405180910390f35b34801561068b57600080fd5b506106a660048036038101906106a191906148ce565b611766565b005b3480156106b457600080fd5b506106cf60048036038101906106ca91906145d6565b611864565b6040516106dc9190615135565b60405180910390f35b3480156106f157600080fd5b506106fa61191c565b005b34801561070857600080fd5b50610723600480360381019061071e91906145d6565b6119a4565b6040516107309190614e1d565b60405180910390f35b34801561074557600080fd5b5061074e611b0c565b005b610758611b92565b005b34801561076657600080fd5b5061076f611c70565b60405161077c9190614d94565b60405180910390f35b34801561079157600080fd5b5061079a611c9a565b6040516107a79190614e53565b60405180910390f35b3480156107bc57600080fd5b506107d760048036038101906107d291906145d6565b611d2c565b6040516107e49190614e1d565b60405180910390f35b3480156107f957600080fd5b50610814600480360381019061080f9190614851565b611d4c565b60405161082c9c9b9a99989796959493929190615150565b60405180910390f35b61084f600480360381019061084a9190614851565b611f51565b005b34801561085d57600080fd5b5061087860048036038101906108739190614705565b61209b565b005b34801561088657600080fd5b506108a1600480360381019061089c9190614851565b61221c565b6040516108ae9190614e38565b60405180910390f35b3480156108c357600080fd5b506108de60048036038101906108d991906148ce565b612249565b005b3480156108ec57600080fd5b5061090760048036038101906109029190614851565b612306565b005b34801561091557600080fd5b50610930600480360381019061092b91906148ce565b612432565b005b34801561093e57600080fd5b50610959600480360381019061095491906148ce565b6124ef565b005b34801561096757600080fd5b50610982600480360381019061097d919061468a565b6125ac565b005b34801561099057600080fd5b506109ab60048036038101906109a69190614851565b61260e565b6040516109b89190614e53565b60405180910390f35b3480156109cd57600080fd5b506109e860048036038101906109e39190614851565b6126b5565b005b3480156109f657600080fd5b50610a116004803603810190610a0c919061487a565b6127e1565b005b348015610a1f57600080fd5b50610a3a6004803603810190610a35919061477d565b6128ae565b604051610a479190614e1d565b60405180910390f35b348015610a5c57600080fd5b50610a776004803603810190610a7291906145ff565b6129a4565b604051610a849190614e1d565b60405180910390f35b348015610a9957600080fd5b50610ab46004803603810190610aaf91906145d6565b612a38565b005b6000610ac182612b30565b9050919050565b606060008054610ad79061550d565b80601f0160208091040260200160405190810160405280929190818152602001828054610b039061550d565b8015610b505780601f10610b2557610100808354040283529160200191610b50565b820191906000526020600020905b815481529060010190602001808311610b3357829003601f168201915b5050505050905090565b6000610b6582612baa565b610ba4576040517f08c379a0000000000000000000000000000000000000000000000000000000008152600401610b9b90615055565b60405180910390fd5b6004600083815260200190815260200160002060009054906101000a900473ffffffffffffffffffffffffffffffffffffffff169050919050565b6000610bea826116b4565b90508073ffffffffffffffffffffffffffffffffffffffff168373ffffffffffffffffffffffffffffffffffffffff161415610c5b576040517f08c379a0000000000000000000000000000000000000000000000000000000008152600401610c52906150d5565b60405180910390fd5b8073ffffffffffffffffffffffffffffffffffffffff16610c7a612c16565b73ffffffffffffffffffffffffffffffffffffffff161480610ca95750610ca881610ca3612c16565b6129a4565b5b610ce8576040517f08c379a0000000000000000000000000000000000000000000000000000000008152600401610cdf90614fb5565b60405180910390fd5b610cf28383612c1e565b505050565b6000806015600084815260200190815260200160002060020154601560008581526020019081526020016000206003015491509150915091565b6000600880549050905090565b600c5481565b610d55610d4f612c16565b82612cd7565b610d94576040517f08c379a0000000000000000000000000000000000000000000000000000000008152600401610d8b906150f5565b60405180910390fd5b610d9f838383612db5565b505050565b6000610dae612c16565b73ffffffffffffffffffffffffffffffffffffffff16610dcc611c70565b73ffffffffffffffffffffffffffffffffffffffff1614610e22576040517f08c379a0000000000000000000000000000000000000000000000000000000008152600401610e1990615075565b60405180910390fd5b60005b8251811015610e9457610e77838281518110610e6a577f4e487b7100000000000000000000000000000000000000000000000000000000600052603260045260246000fd5b6020026020010151610e9a565b15610e8157600191505b8080610e8c90615570565b915050610e25565b50919050565b6000610ea4612c16565b73ffffffffffffffffffffffffffffffffffffffff16610ec2611c70565b73ffffffffffffffffffffffffffffffffffffffff1614610f18576040517f08c379a0000000000000000000000000000000000000000000000000000000008152600401610f0f90615075565b60405180910390fd5b600b60008373ffffffffffffffffffffffffffffffffffffffff1673ffffffffffffffffffffffffffffffffffffffff16815260200190815260200160002060009054906101000a900460ff1615610ffe576000600b60008473ffffffffffffffffffffffffffffffffffffffff1673ffffffffffffffffffffffffffffffffffffffff16815260200190815260200160002060006101000a81548160ff0219169083151502179055507ff1abf01a1043b7c244d128e8595cf0c1d10743b022b03a02dffd8ca3bf729f5a82604051610ff19190614d94565b60405180910390a1600190505b919050565b600061100e83611864565b821061104f576040517f08c379a000000000000000000000000000000000000000000000000000000000815260040161104690614eb5565b60405180910390fd5b600660008473ffffffffffffffffffffffffffffffffffffffff1673ffffffffffffffffffffffffffffffffffffffff168152602001908152602001600020600083815260200190815260200160002054905092915050565b6110b0612c16565b73ffffffffffffffffffffffffffffffffffffffff166110ce611c70565b73ffffffffffffffffffffffffffffffffffffffff1614611124576040517f08c379a000000000000000000000000000000000000000000000000000000000815260040161111b90615075565b60405180910390fd5b61112c613011565b565b611149838383604051806020016040528060008152506125ac565b505050565b6060600061115b83611864565b905060008114156111de57600067ffffffffffffffff8111156111a7577f4e487b7100000000000000000000000000000000000000000000000000000000600052604160045260246000fd5b6040519080825280602002602001820160405280156111d55781602001602082028036833780820191505090505b509150506112c5565b60008167ffffffffffffffff811115611220577f4e487b7100000000000000000000000000000000000000000000000000000000600052604160045260246000fd5b60405190808252806020026020018201604052801561124e5781602001602082028036833780820191505090505b50905060005b828110156112be576112668582611003565b82828151811061129f577f4e487b7100000000000000000000000000000000000000000000000000000000600052603260045260246000fd5b60200260200101818152505080806112b690615570565b915050611254565b5080925050505b919050565b60006112d4610d31565b8210611315576040517f08c379a000000000000000000000000000000000000000000000000000000000815260040161130c90615115565b60405180910390fd5b6008828154811061134f577f4e487b7100000000000000000000000000000000000000000000000000000000600052603260045260246000fd5b90600052602060002001549050919050565b61136961169d565b156113a9576040517f08c379a00000000000000000000000000000000000000000000000000000000081526004016113a090614f95565b60405180910390fd5b600b60003373ffffffffffffffffffffffffffffffffffffffff1673ffffffffffffffffffffffffffffffffffffffff16815260200190815260200160002060009054906101000a900460ff166113ff57600080fd5b8060156000848152602001908152602001600020600b01819055505050565b611426612c16565b73ffffffffffffffffffffffffffffffffffffffff16611444611c70565b73ffffffffffffffffffffffffffffffffffffffff161461149a576040517f08c379a000000000000000000000000000000000000000000000000000000000815260040161149190615075565b60405180910390fd5b80600d90805190602001906114b0929190614364565b5050565b6114bc61169d565b156114fc576040517f08c379a00000000000000000000000000000000000000000000000000000000081526004016114f390614f95565b60405180910390fd5b611504612c16565b73ffffffffffffffffffffffffffffffffffffffff16611522611c70565b73ffffffffffffffffffffffffffffffffffffffff1614611578576040517f08c379a000000000000000000000000000000000000000000000000000000000815260040161156f90615075565b60405180910390fd5b60006015600083815260200190815260200160002060040160006101000a81548160ff021916908360028111156115d8577f4e487b7100000000000000000000000000000000000000000000000000000000600052602160045260246000fd5b021790555050565b6115e861169d565b15611628576040517f08c379a000000000000000000000000000000000000000000000000000000000815260040161161f90614f95565b60405180910390fd5b600b60003373ffffffffffffffffffffffffffffffffffffffff1673ffffffffffffffffffffffffffffffffffffffff16815260200190815260200160002060009054906101000a900460ff1661167e57600080fd5b8060156000848152602001908152602001600020600801819055505050565b6000600a60009054906101000a900460ff16905090565b6000806002600084815260200190815260200160002060009054906101000a900473ffffffffffffffffffffffffffffffffffffffff169050600073ffffffffffffffffffffffffffffffffffffffff168173ffffffffffffffffffffffffffffffffffffffff16141561175d576040517f08c379a000000000000000000000000000000000000000000000000000000000815260040161175490614ff5565b60405180910390fd5b80915050919050565b61176e61169d565b156117ae576040517f08c379a00000000000000000000000000000000000000000000000000000000081526004016117a590614f95565b60405180910390fd5b600b60003373ffffffffffffffffffffffffffffffffffffffff1673ffffffffffffffffffffffffffffffffffffffff16815260200190815260200160002060009054906101000a900460ff1661180457600080fd5b600160156000848152602001908152602001600020600201600082825461182b9190615377565b9250508190555060016015600083815260200190815260200160002060030160008282546118599190615377565b925050819055505050565b60008073ffffffffffffffffffffffffffffffffffffffff168273ffffffffffffffffffffffffffffffffffffffff1614156118d5576040517f08c379a00000000000000000000000000000000000000000000000000000000081526004016118cc90614fd5565b60405180910390fd5b600360008373ffffffffffffffffffffffffffffffffffffffff1673ffffffffffffffffffffffffffffffffffffffff168152602001908152602001600020549050919050565b611924612c16565b73ffffffffffffffffffffffffffffffffffffffff16611942611c70565b73ffffffffffffffffffffffffffffffffffffffff1614611998576040517f08c379a000000000000000000000000000000000000000000000000000000000815260040161198f90615075565b60405180910390fd5b6119a260006130b3565b565b60006119ae612c16565b73ffffffffffffffffffffffffffffffffffffffff166119cc611c70565b73ffffffffffffffffffffffffffffffffffffffff1614611a22576040517f08c379a0000000000000000000000000000000000000000000000000000000008152600401611a1990615075565b60405180910390fd5b600b60008373ffffffffffffffffffffffffffffffffffffffff1673ffffffffffffffffffffffffffffffffffffffff16815260200190815260200160002060009054906101000a900460ff16611b07576001600b60008473ffffffffffffffffffffffffffffffffffffffff1673ffffffffffffffffffffffffffffffffffffffff16815260200190815260200160002060006101000a81548160ff0219169083151502179055507fd1bba68c128cc3f427e5831b3c6f99f480b6efa6b9e80c757768f6124158cc3f82604051611afa9190614d94565b60405180910390a1600190505b919050565b611b14612c16565b73ffffffffffffffffffffffffffffffffffffffff16611b32611c70565b73ffffffffffffffffffffffffffffffffffffffff1614611b88576040517f08c379a0000000000000000000000000000000000000000000000000000000008152600401611b7f90615075565b60405180910390fd5b611b90613179565b565b611b9a612c16565b73ffffffffffffffffffffffffffffffffffffffff16611bb8611c70565b73ffffffffffffffffffffffffffffffffffffffff1614611c0e576040517f08c379a0000000000000000000000000000000000000000000000000000000008152600401611c0590615075565b60405180910390fd5b600e60009054906101000a900473ffffffffffffffffffffffffffffffffffffffff1673ffffffffffffffffffffffffffffffffffffffff166108fc479081150290604051600060405180830381858888f19350505050611c6e57600080fd5b565b6000600a60019054906101000a900473ffffffffffffffffffffffffffffffffffffffff16905090565b606060018054611ca99061550d565b80601f0160208091040260200160405190810160405280929190818152602001828054611cd59061550d565b8015611d225780601f10611cf757610100808354040283529160200191611d22565b820191906000526020600020905b815481529060010190602001808311611d0557829003601f168201915b5050505050905090565b600b6020528060005260406000206000915054906101000a900460ff1681565b6015602052806000526040600020600091509050806000015490806001018054611d759061550d565b80601f0160208091040260200160405190810160405280929190818152602001828054611da19061550d565b8015611dee5780601f10611dc357610100808354040283529160200191611dee565b820191906000526020600020905b815481529060010190602001808311611dd157829003601f168201915b5050505050908060020154908060030154908060040160009054906101000a900460ff1690806005018054611e229061550d565b80601f0160208091040260200160405190810160405280929190818152602001828054611e4e9061550d565b8015611e9b5780601f10611e7057610100808354040283529160200191611e9b565b820191906000526020600020905b815481529060010190602001808311611e7e57829003601f168201915b505050505090806006018054611eb09061550d565b80601f0160208091040260200160405190810160405280929190818152602001828054611edc9061550d565b8015611f295780601f10611efe57610100808354040283529160200191611f29565b820191906000526020600020905b815481529060010190602001808311611f0c57829003601f168201915b50505050509080600701549080600801549080600901549080600a01549080600b015490508c565b611f5961169d565b15611f99576040517f08c379a0000000000000000000000000000000000000000000000000000000008152600401611f9090614f95565b60405180910390fd5b60048110611fdc576040517f08c379a0000000000000000000000000000000000000000000000000000000008152600401611fd390614e95565b60405180910390fd5b600c54341015806120265750611ff0612c16565b73ffffffffffffffffffffffffffffffffffffffff1661200e611c70565b73ffffffffffffffffffffffffffffffffffffffff16145b612065576040517f08c379a000000000000000000000000000000000000000000000000000000000815260040161205c90615015565b60405180910390fd5b600061206f610d31565b905060006001826120809190615377565b905061208c818461321c565b61209633826136a3565b505050565b6120a3612c16565b73ffffffffffffffffffffffffffffffffffffffff168273ffffffffffffffffffffffffffffffffffffffff161415612111576040517f08c379a000000000000000000000000000000000000000000000000000000000815260040161210890614f55565b60405180910390fd5b806005600061211e612c16565b73ffffffffffffffffffffffffffffffffffffffff1673ffffffffffffffffffffffffffffffffffffffff16815260200190815260200160002060008473ffffffffffffffffffffffffffffffffffffffff1673ffffffffffffffffffffffffffffffffffffffff16815260200190815260200160002060006101000a81548160ff0219169083151502179055508173ffffffffffffffffffffffffffffffffffffffff166121cb612c16565b73ffffffffffffffffffffffffffffffffffffffff167f17307eab39ab6107e8899845ad3d59bd9653f200f220920489ca2b5937696c31836040516122109190614e1d565b60405180910390a35050565b60006015600083815260200190815260200160002060040160009054906101000a900460ff169050919050565b61225161169d565b15612291576040517f08c379a000000000000000000000000000000000000000000000000000000000815260040161228890614f95565b60405180910390fd5b600b60003373ffffffffffffffffffffffffffffffffffffffff1673ffffffffffffffffffffffffffffffffffffffff16815260200190815260200160002060009054906101000a900460ff166122e757600080fd5b8060156000848152602001908152602001600020600901819055505050565b61230e61169d565b1561234e576040517f08c379a000000000000000000000000000000000000000000000000000000000815260040161234590614f95565b60405180910390fd5b612356612c16565b73ffffffffffffffffffffffffffffffffffffffff16612374611c70565b73ffffffffffffffffffffffffffffffffffffffff16146123ca576040517f08c379a00000000000000000000000000000000000000000000000000000000081526004016123c190615075565b60405180910390fd5b60016015600083815260200190815260200160002060040160006101000a81548160ff0219169083600281111561242a577f4e487b7100000000000000000000000000000000000000000000000000000000600052602160045260246000fd5b021790555050565b61243a61169d565b1561247a576040517f08c379a000000000000000000000000000000000000000000000000000000000815260040161247190614f95565b60405180910390fd5b600b60003373ffffffffffffffffffffffffffffffffffffffff1673ffffffffffffffffffffffffffffffffffffffff16815260200190815260200160002060009054906101000a900460ff166124d057600080fd5b8060156000848152602001908152602001600020600a01819055505050565b6124f761169d565b15612537576040517f08c379a000000000000000000000000000000000000000000000000000000000815260040161252e90614f95565b60405180910390fd5b600b60003373ffffffffffffffffffffffffffffffffffffffff1673ffffffffffffffffffffffffffffffffffffffff16815260200190815260200160002060009054906101000a900460ff1661258d57600080fd5b8060156000848152602001908152602001600020600701819055505050565b6125bd6125b7612c16565b83612cd7565b6125fc576040517f08c379a00000000000000000000000000000000000000000000000000000000081526004016125f3906150f5565b60405180910390fd5b612608848484846136c1565b50505050565b606061261982612baa565b612658576040517f08c379a000000000000000000000000000000000000000000000000000000000815260040161264f906150b5565b60405180910390fd5b600061266261371d565b9050600081511161268257604051806020016040528060008152506126ad565b8061268c846137af565b60405160200161269d929190614d70565b6040516020818303038152906040525b915050919050565b6126bd61169d565b156126fd576040517f08c379a00000000000000000000000000000000000000000000000000000000081526004016126f490614f95565b60405180910390fd5b612705612c16565b73ffffffffffffffffffffffffffffffffffffffff16612723611c70565b73ffffffffffffffffffffffffffffffffffffffff1614612779576040517f08c379a000000000000000000000000000000000000000000000000000000000815260040161277090615075565b60405180910390fd5b60026015600083815260200190815260200160002060040160006101000a81548160ff021916908360028111156127d9577f4e487b7100000000000000000000000000000000000000000000000000000000600052602160045260246000fd5b021790555050565b6127e961169d565b15612829576040517f08c379a000000000000000000000000000000000000000000000000000000000815260040161282090614f95565b60405180910390fd5b600b60003373ffffffffffffffffffffffffffffffffffffffff1673ffffffffffffffffffffffffffffffffffffffff16815260200190815260200160002060009054906101000a900460ff1661287f57600080fd5b806015600084815260200190815260200160002060050190805190602001906128a9929190614364565b505050565b60006128b8612c16565b73ffffffffffffffffffffffffffffffffffffffff166128d6611c70565b73ffffffffffffffffffffffffffffffffffffffff161461292c576040517f08c379a000000000000000000000000000000000000000000000000000000000815260040161292390615075565b60405180910390fd5b60005b825181101561299e57612981838281518110612974577f4e487b7100000000000000000000000000000000000000000000000000000000600052603260045260246000fd5b60200260200101516119a4565b1561298b57600191505b808061299690615570565b91505061292f565b50919050565b6000600560008473ffffffffffffffffffffffffffffffffffffffff1673ffffffffffffffffffffffffffffffffffffffff16815260200190815260200160002060008373ffffffffffffffffffffffffffffffffffffffff1673ffffffffffffffffffffffffffffffffffffffff16815260200190815260200160002060009054906101000a900460ff16905092915050565b612a40612c16565b73ffffffffffffffffffffffffffffffffffffffff16612a5e611c70565b73ffffffffffffffffffffffffffffffffffffffff1614612ab4576040517f08c379a0000000000000000000000000000000000000000000000000000000008152600401612aab90615075565b60405180910390fd5b600073ffffffffffffffffffffffffffffffffffffffff168173ffffffffffffffffffffffffffffffffffffffff161415612b24576040517f08c379a0000000000000000000000000000000000000000000000000000000008152600401612b1b90614ef5565b60405180910390fd5b612b2d816130b3565b50565b60007f780e9d63000000000000000000000000000000000000000000000000000000007bffffffffffffffffffffffffffffffffffffffffffffffffffffffff1916827bffffffffffffffffffffffffffffffffffffffffffffffffffffffff19161480612ba35750612ba28261395c565b5b9050919050565b60008073ffffffffffffffffffffffffffffffffffffffff166002600084815260200190815260200160002060009054906101000a900473ffffffffffffffffffffffffffffffffffffffff1673ffffffffffffffffffffffffffffffffffffffff1614159050919050565b600033905090565b816004600083815260200190815260200160002060006101000a81548173ffffffffffffffffffffffffffffffffffffffff021916908373ffffffffffffffffffffffffffffffffffffffff160217905550808273ffffffffffffffffffffffffffffffffffffffff16612c91836116b4565b73ffffffffffffffffffffffffffffffffffffffff167f8c5be1e5ebec7d5bd14f71427d1e84f3dd0314c0f7b2291e5b200ac8c7c3b92560405160405180910390a45050565b6000612ce282612baa565b612d21576040517f08c379a0000000000000000000000000000000000000000000000000000000008152600401612d1890614f75565b60405180910390fd5b6000612d2c836116b4565b90508073ffffffffffffffffffffffffffffffffffffffff168473ffffffffffffffffffffffffffffffffffffffff161480612d9b57508373ffffffffffffffffffffffffffffffffffffffff16612d8384610b5a565b73ffffffffffffffffffffffffffffffffffffffff16145b80612dac5750612dab81856129a4565b5b91505092915050565b8273ffffffffffffffffffffffffffffffffffffffff16612dd5826116b4565b73ffffffffffffffffffffffffffffffffffffffff1614612e2b576040517f08c379a0000000000000000000000000000000000000000000000000000000008152600401612e2290615095565b60405180910390fd5b600073ffffffffffffffffffffffffffffffffffffffff168273ffffffffffffffffffffffffffffffffffffffff161415612e9b576040517f08c379a0000000000000000000000000000000000000000000000000000000008152600401612e9290614f35565b60405180910390fd5b612ea6838383613a3e565b612eb1600082612c1e565b6001600360008573ffffffffffffffffffffffffffffffffffffffff1673ffffffffffffffffffffffffffffffffffffffff1681526020019081526020016000206000828254612f0191906153fe565b925050819055506001600360008473ffffffffffffffffffffffffffffffffffffffff1673ffffffffffffffffffffffffffffffffffffffff1681526020019081526020016000206000828254612f589190615377565b92505081905550816002600083815260200190815260200160002060006101000a81548173ffffffffffffffffffffffffffffffffffffffff021916908373ffffffffffffffffffffffffffffffffffffffff160217905550808273ffffffffffffffffffffffffffffffffffffffff168473ffffffffffffffffffffffffffffffffffffffff167fddf252ad1be2c89b69c2b068fc378daa952ba7f163c4a11628f55a4df523b3ef60405160405180910390a4505050565b61301961169d565b613058576040517f08c379a000000000000000000000000000000000000000000000000000000000815260040161304f90614e75565b60405180910390fd5b6000600a60006101000a81548160ff0219169083151502179055507f5db9ee0a495bf2e6ff9c91a7834c1ba4fdd244a5e8aa4e537bd38aeae4b073aa61309c612c16565b6040516130a99190614d94565b60405180910390a1565b6000600a60019054906101000a900473ffffffffffffffffffffffffffffffffffffffff16905081600a60016101000a81548173ffffffffffffffffffffffffffffffffffffffff021916908373ffffffffffffffffffffffffffffffffffffffff1602179055508173ffffffffffffffffffffffffffffffffffffffff168173ffffffffffffffffffffffffffffffffffffffff167f8be0079c531659141344cd1fd0a4f28419497f9722a3daafe3b4186f6b6457e060405160405180910390a35050565b61318161169d565b156131c1576040517f08c379a00000000000000000000000000000000000000000000000000000000081526004016131b890614f95565b60405180910390fd5b6001600a60006101000a81548160ff0219169083151502179055507f62e78cea01bee320cd4e420270b5ea74000d11b0c9f74754ebdbfc544b05a258613205612c16565b6040516132129190614d94565b60405180910390a1565b6040518061018001604052808381526020016040518060400160405280600181526020017f200000000000000000000000000000000000000000000000000000000000000081525081526020016000815260200160008152602001600060028111156132b1577f4e487b7100000000000000000000000000000000000000000000000000000000600052602160045260246000fd5b8152602001600f83815481106132f0577f4e487b7100000000000000000000000000000000000000000000000000000000600052603260045260246000fd5b9060005260206000200180546133059061550d565b80601f01602080910402602001604051908101604052809291908181526020018280546133319061550d565b801561337e5780601f106133535761010080835404028352916020019161337e565b820191906000526020600020905b81548152906001019060200180831161336157829003601f168201915b50505050508152602001601083815481106133c2577f4e487b7100000000000000000000000000000000000000000000000000000000600052603260045260246000fd5b9060005260206000200180546133d79061550d565b80601f01602080910402602001604051908101604052809291908181526020018280546134039061550d565b80156134505780601f1061342557610100808354040283529160200191613450565b820191906000526020600020905b81548152906001019060200180831161343357829003601f168201915b505050505081526020016103e881526020016011838154811061349c577f4e487b7100000000000000000000000000000000000000000000000000000000600052603260045260246000fd5b90600052602060002001548152602001601283815481106134e6577f4e487b7100000000000000000000000000000000000000000000000000000000600052603260045260246000fd5b9060005260206000200154815260200160138381548110613530577f4e487b7100000000000000000000000000000000000000000000000000000000600052603260045260246000fd5b906000526020600020015481526020016014838154811061357a577f4e487b7100000000000000000000000000000000000000000000000000000000600052603260045260246000fd5b9060005260206000200154815250601560008481526020019081526020016000206000820151816000015560208201518160010190805190602001906135c1929190614364565b50604082015181600201556060820151816003015560808201518160040160006101000a81548160ff02191690836002811115613627577f4e487b7100000000000000000000000000000000000000000000000000000000600052602160045260246000fd5b021790555060a0820151816005019080519060200190613648929190614364565b5060c0820151816006019080519060200190613665929190614364565b5060e082015181600701556101008201518160080155610120820151816009015561014082015181600a015561016082015181600b01559050505050565b6136bd828260405180602001604052806000815250613a96565b5050565b6136cc848484612db5565b6136d884848484613af1565b613717576040517f08c379a000000000000000000000000000000000000000000000000000000000815260040161370e90614ed5565b60405180910390fd5b50505050565b6060600d805461372c9061550d565b80601f01602080910402602001604051908101604052809291908181526020018280546137589061550d565b80156137a55780601f1061377a576101008083540402835291602001916137a5565b820191906000526020600020905b81548152906001019060200180831161378857829003601f168201915b5050505050905090565b606060008214156137f7576040518060400160405280600181526020017f30000000000000000000000000000000000000000000000000000000000000008152509050613957565b600082905060005b6000821461382957808061381290615570565b915050600a8261382291906153cd565b91506137ff565b60008167ffffffffffffffff81111561386b577f4e487b7100000000000000000000000000000000000000000000000000000000600052604160045260246000fd5b6040519080825280601f01601f19166020018201604052801561389d5781602001600182028036833780820191505090505b5090505b60008514613950576001826138b691906153fe565b9150600a856138c591906155b9565b60306138d19190615377565b60f81b81838151811061390d577f4e487b7100000000000000000000000000000000000000000000000000000000600052603260045260246000fd5b60200101907effffffffffffffffffffffffffffffffffffffffffffffffffffffffffffff1916908160001a905350600a8561394991906153cd565b94506138a1565b8093505050505b919050565b60007f80ac58cd000000000000000000000000000000000000000000000000000000007bffffffffffffffffffffffffffffffffffffffffffffffffffffffff1916827bffffffffffffffffffffffffffffffffffffffffffffffffffffffff19161480613a2757507f5b5e139f000000000000000000000000000000000000000000000000000000007bffffffffffffffffffffffffffffffffffffffffffffffffffffffff1916827bffffffffffffffffffffffffffffffffffffffffffffffffffffffff1916145b80613a375750613a3682613c88565b5b9050919050565b613a4661169d565b15613a86576040517f08c379a0000000000000000000000000000000000000000000000000000000008152600401613a7d90614f95565b60405180910390fd5b613a91838383613cf2565b505050565b613aa08383613e06565b613aad6000848484613af1565b613aec576040517f08c379a0000000000000000000000000000000000000000000000000000000008152600401613ae390614ed5565b60405180910390fd5b505050565b6000613b128473ffffffffffffffffffffffffffffffffffffffff16613fd4565b15613c7b578373ffffffffffffffffffffffffffffffffffffffff1663150b7a02613b3b612c16565b8786866040518563ffffffff1660e01b8152600401613b5d9493929190614daf565b602060405180830381600087803b158015613b7757600080fd5b505af1925050508015613ba857506040513d601f19601f82011682018060405250810190613ba591906147e7565b60015b613c2b573d8060008114613bd8576040519150601f19603f3d011682016040523d82523d6000602084013e613bdd565b606091505b50600081511415613c23576040517f08c379a0000000000000000000000000000000000000000000000000000000008152600401613c1a90614ed5565b60405180910390fd5b805181602001fd5b63150b7a0260e01b7bffffffffffffffffffffffffffffffffffffffffffffffffffffffff1916817bffffffffffffffffffffffffffffffffffffffffffffffffffffffff191614915050613c80565b600190505b949350505050565b60007f01ffc9a7000000000000000000000000000000000000000000000000000000007bffffffffffffffffffffffffffffffffffffffffffffffffffffffff1916827bffffffffffffffffffffffffffffffffffffffffffffffffffffffff1916149050919050565b613cfd838383613fe7565b600073ffffffffffffffffffffffffffffffffffffffff168373ffffffffffffffffffffffffffffffffffffffff161415613d4057613d3b81613fec565b613d7f565b8173ffffffffffffffffffffffffffffffffffffffff168373ffffffffffffffffffffffffffffffffffffffff1614613d7e57613d7d8382614035565b5b5b600073ffffffffffffffffffffffffffffffffffffffff168273ffffffffffffffffffffffffffffffffffffffff161415613dc257613dbd816141a2565b613e01565b8273ffffffffffffffffffffffffffffffffffffffff168273ffffffffffffffffffffffffffffffffffffffff1614613e0057613dff82826142e5565b5b5b505050565b600073ffffffffffffffffffffffffffffffffffffffff168273ffffffffffffffffffffffffffffffffffffffff161415613e76576040517f08c379a0000000000000000000000000000000000000000000000000000000008152600401613e6d90615035565b60405180910390fd5b613e7f81612baa565b15613ebf576040517f08c379a0000000000000000000000000000000000000000000000000000000008152600401613eb690614f15565b60405180910390fd5b613ecb60008383613a3e565b6001600360008473ffffffffffffffffffffffffffffffffffffffff1673ffffffffffffffffffffffffffffffffffffffff1681526020019081526020016000206000828254613f1b9190615377565b92505081905550816002600083815260200190815260200160002060006101000a81548173ffffffffffffffffffffffffffffffffffffffff021916908373ffffffffffffffffffffffffffffffffffffffff160217905550808273ffffffffffffffffffffffffffffffffffffffff16600073ffffffffffffffffffffffffffffffffffffffff167fddf252ad1be2c89b69c2b068fc378daa952ba7f163c4a11628f55a4df523b3ef60405160405180910390a45050565b600080823b905060008111915050919050565b505050565b6008805490506009600083815260200190815260200160002081905550600881908060018154018082558091505060019003906000526020600020016000909190919091505550565b6000600161404284611864565b61404c91906153fe565b9050600060076000848152602001908152602001600020549050818114614131576000600660008673ffffffffffffffffffffffffffffffffffffffff1673ffffffffffffffffffffffffffffffffffffffff168152602001908152602001600020600084815260200190815260200160002054905080600660008773ffffffffffffffffffffffffffffffffffffffff1673ffffffffffffffffffffffffffffffffffffffff168152602001908152602001600020600084815260200190815260200160002081905550816007600083815260200190815260200160002081905550505b6007600084815260200190815260200160002060009055600660008573ffffffffffffffffffffffffffffffffffffffff1673ffffffffffffffffffffffffffffffffffffffff16815260200190815260200160002060008381526020019081526020016000206000905550505050565b600060016008805490506141b691906153fe565b905060006009600084815260200190815260200160002054905060006008838154811061420c577f4e487b7100000000000000000000000000000000000000000000000000000000600052603260045260246000fd5b906000526020600020015490508060088381548110614254577f4e487b7100000000000000000000000000000000000000000000000000000000600052603260045260246000fd5b9060005260206000200181905550816009600083815260200190815260200160002081905550600960008581526020019081526020016000206000905560088054806142c9577f4e487b7100000000000000000000000000000000000000000000000000000000600052603160045260246000fd5b6001900381819060005260206000200160009055905550505050565b60006142f083611864565b905081600660008573ffffffffffffffffffffffffffffffffffffffff1673ffffffffffffffffffffffffffffffffffffffff168152602001908152602001600020600083815260200190815260200160002081905550806007600084815260200190815260200160002081905550505050565b8280546143709061550d565b90600052602060002090601f01602090048101928261439257600085556143d9565b82601f106143ab57805160ff19168380011785556143d9565b828001600101855582156143d9579182015b828111156143d85782518255916020019190600101906143bd565b5b5090506143e691906143ea565b5090565b5b808211156144035760008160009055506001016143eb565b5090565b600061441a6144158461526d565b615248565b9050808382526020820190508285602086028201111561443957600080fd5b60005b85811015614469578161444f88826144ef565b84526020840193506020830192505060018101905061443c565b5050509392505050565b600061448661448184615299565b615248565b90508281526020810184848401111561449e57600080fd5b6144a98482856154cb565b509392505050565b60006144c46144bf846152ca565b615248565b9050828152602081018484840111156144dc57600080fd5b6144e78482856154cb565b509392505050565b6000813590506144fe81615cba565b92915050565b600082601f83011261451557600080fd5b8135614525848260208601614407565b91505092915050565b60008135905061453d81615cd1565b92915050565b60008135905061455281615ce8565b92915050565b60008151905061456781615ce8565b92915050565b600082601f83011261457e57600080fd5b813561458e848260208601614473565b91505092915050565b600082601f8301126145a857600080fd5b81356145b88482602086016144b1565b91505092915050565b6000813590506145d081615cff565b92915050565b6000602082840312156145e857600080fd5b60006145f6848285016144ef565b91505092915050565b6000806040838503121561461257600080fd5b6000614620858286016144ef565b9250506020614631858286016144ef565b9150509250929050565b60008060006060848603121561465057600080fd5b600061465e868287016144ef565b935050602061466f868287016144ef565b9250506040614680868287016145c1565b9150509250925092565b600080600080608085870312156146a057600080fd5b60006146ae878288016144ef565b94505060206146bf878288016144ef565b93505060406146d0878288016145c1565b925050606085013567ffffffffffffffff8111156146ed57600080fd5b6146f98782880161456d565b91505092959194509250565b6000806040838503121561471857600080fd5b6000614726858286016144ef565b92505060206147378582860161452e565b9150509250929050565b6000806040838503121561475457600080fd5b6000614762858286016144ef565b9250506020614773858286016145c1565b9150509250929050565b60006020828403121561478f57600080fd5b600082013567ffffffffffffffff8111156147a957600080fd5b6147b584828501614504565b91505092915050565b6000602082840312156147d057600080fd5b60006147de84828501614543565b91505092915050565b6000602082840312156147f957600080fd5b600061480784828501614558565b91505092915050565b60006020828403121561482257600080fd5b600082013567ffffffffffffffff81111561483c57600080fd5b61484884828501614597565b91505092915050565b60006020828403121561486357600080fd5b6000614871848285016145c1565b91505092915050565b6000806040838503121561488d57600080fd5b600061489b858286016145c1565b925050602083013567ffffffffffffffff8111156148b857600080fd5b6148c485828601614597565b9150509250929050565b600080604083850312156148e157600080fd5b60006148ef858286016145c1565b9250506020614900858286016145c1565b9150509250929050565b60006149168383614d52565b60208301905092915050565b61492b81615432565b82525050565b600061493c8261530b565b6149468185615339565b9350614951836152fb565b8060005b83811015614982578151614969888261490a565b97506149748361532c565b925050600181019050614955565b5085935050505092915050565b61499881615444565b82525050565b60006149a982615316565b6149b3818561534a565b93506149c38185602086016154da565b6149cc816156d5565b840191505092915050565b6149e0816154b9565b82525050565b60006149f182615321565b6149fb818561535b565b9350614a0b8185602086016154da565b614a14816156d5565b840191505092915050565b6000614a2a82615321565b614a34818561536c565b9350614a448185602086016154da565b80840191505092915050565b6000614a5d60148361535b565b9150614a68826156e6565b602082019050919050565b6000614a80601e8361535b565b9150614a8b8261570f565b602082019050919050565b6000614aa3602b8361535b565b9150614aae82615738565b604082019050919050565b6000614ac660328361535b565b9150614ad182615787565b604082019050919050565b6000614ae960268361535b565b9150614af4826157d6565b604082019050919050565b6000614b0c601c8361535b565b9150614b1782615825565b602082019050919050565b6000614b2f60248361535b565b9150614b3a8261584e565b604082019050919050565b6000614b5260198361535b565b9150614b5d8261589d565b602082019050919050565b6000614b75602c8361535b565b9150614b80826158c6565b604082019050919050565b6000614b9860108361535b565b9150614ba382615915565b602082019050919050565b6000614bbb60388361535b565b9150614bc68261593e565b604082019050919050565b6000614bde602a8361535b565b9150614be98261598d565b604082019050919050565b6000614c0160298361535b565b9150614c0c826159dc565b604082019050919050565b6000614c2460358361535b565b9150614c2f82615a2b565b604082019050919050565b6000614c4760208361535b565b9150614c5282615a7a565b602082019050919050565b6000614c6a602c8361535b565b9150614c7582615aa3565b604082019050919050565b6000614c8d60208361535b565b9150614c9882615af2565b602082019050919050565b6000614cb060298361535b565b9150614cbb82615b1b565b604082019050919050565b6000614cd3602f8361535b565b9150614cde82615b6a565b604082019050919050565b6000614cf660218361535b565b9150614d0182615bb9565b604082019050919050565b6000614d1960318361535b565b9150614d2482615c08565b604082019050919050565b6000614d3c602c8361535b565b9150614d4782615c57565b604082019050919050565b614d5b816154af565b82525050565b614d6a816154af565b82525050565b6000614d7c8285614a1f565b9150614d888284614a1f565b91508190509392505050565b6000602082019050614da96000830184614922565b92915050565b6000608082019050614dc46000830187614922565b614dd16020830186614922565b614dde6040830185614d61565b8181036060830152614df0818461499e565b905095945050505050565b60006020820190508181036000830152614e158184614931565b905092915050565b6000602082019050614e32600083018461498f565b92915050565b6000602082019050614e4d60008301846149d7565b92915050565b60006020820190508181036000830152614e6d81846149e6565b905092915050565b60006020820190508181036000830152614e8e81614a50565b9050919050565b60006020820190508181036000830152614eae81614a73565b9050919050565b60006020820190508181036000830152614ece81614a96565b9050919050565b60006020820190508181036000830152614eee81614ab9565b9050919050565b60006020820190508181036000830152614f0e81614adc565b9050919050565b60006020820190508181036000830152614f2e81614aff565b9050919050565b60006020820190508181036000830152614f4e81614b22565b9050919050565b60006020820190508181036000830152614f6e81614b45565b9050919050565b60006020820190508181036000830152614f8e81614b68565b9050919050565b60006020820190508181036000830152614fae81614b8b565b9050919050565b60006020820190508181036000830152614fce81614bae565b9050919050565b60006020820190508181036000830152614fee81614bd1565b9050919050565b6000602082019050818103600083015261500e81614bf4565b9050919050565b6000602082019050818103600083015261502e81614c17565b9050919050565b6000602082019050818103600083015261504e81614c3a565b9050919050565b6000602082019050818103600083015261506e81614c5d565b9050919050565b6000602082019050818103600083015261508e81614c80565b9050919050565b600060208201905081810360008301526150ae81614ca3565b9050919050565b600060208201905081810360008301526150ce81614cc6565b9050919050565b600060208201905081810360008301526150ee81614ce9565b9050919050565b6000602082019050818103600083015261510e81614d0c565b9050919050565b6000602082019050818103600083015261512e81614d2f565b9050919050565b600060208201905061514a6000830184614d61565b92915050565b600061018082019050615166600083018f614d61565b8181036020830152615178818e6149e6565b9050615187604083018d614d61565b615194606083018c614d61565b6151a1608083018b6149d7565b81810360a08301526151b3818a6149e6565b905081810360c08301526151c781896149e6565b90506151d660e0830188614d61565b6151e4610100830187614d61565b6151f2610120830186614d61565b615200610140830185614d61565b61520e610160830184614d61565b9d9c50505050505050505050505050565b60006040820190506152346000830185614d61565b6152416020830184614d61565b9392505050565b6000615252615263565b905061525e828261553f565b919050565b6000604051905090565b600067ffffffffffffffff821115615288576152876156a6565b5b602082029050602081019050919050565b600067ffffffffffffffff8211156152b4576152b36156a6565b5b6152bd826156d5565b9050602081019050919050565b600067ffffffffffffffff8211156152e5576152e46156a6565b5b6152ee826156d5565b9050602081019050919050565b6000819050602082019050919050565b600081519050919050565b600081519050919050565b600081519050919050565b6000602082019050919050565b600082825260208201905092915050565b600082825260208201905092915050565b600082825260208201905092915050565b600081905092915050565b6000615382826154af565b915061538d836154af565b9250827fffffffffffffffffffffffffffffffffffffffffffffffffffffffffffffffff038211156153c2576153c16155ea565b5b828201905092915050565b60006153d8826154af565b91506153e3836154af565b9250826153f3576153f2615619565b5b828204905092915050565b6000615409826154af565b9150615414836154af565b925082821015615427576154266155ea565b5b828203905092915050565b600061543d8261548f565b9050919050565b60008115159050919050565b60007fffffffff0000000000000000000000000000000000000000000000000000000082169050919050565b600081905061548a82615ca6565b919050565b600073ffffffffffffffffffffffffffffffffffffffff82169050919050565b6000819050919050565b60006154c48261547c565b9050919050565b82818337600083830152505050565b60005b838110156154f85780820151818401526020810190506154dd565b83811115615507576000848401525b50505050565b6000600282049050600182168061552557607f821691505b6020821081141561553957615538615677565b5b50919050565b615548826156d5565b810181811067ffffffffffffffff82111715615567576155666156a6565b5b80604052505050565b600061557b826154af565b91507fffffffffffffffffffffffffffffffffffffffffffffffffffffffffffffffff8214156155ae576155ad6155ea565b5b600182019050919050565b60006155c4826154af565b91506155cf836154af565b9250826155df576155de615619565b5b828206905092915050565b7f4e487b7100000000000000000000000000000000000000000000000000000000600052601160045260246000fd5b7f4e487b7100000000000000000000000000000000000000000000000000000000600052601260045260246000fd5b7f4e487b7100000000000000000000000000000000000000000000000000000000600052602160045260246000fd5b7f4e487b7100000000000000000000000000000000000000000000000000000000600052602260045260246000fd5b7f4e487b7100000000000000000000000000000000000000000000000000000000600052604160045260246000fd5b6000601f19601f8301169050919050565b7f5061757361626c653a206e6f7420706175736564000000000000000000000000600082015250565b7f5468657265206973206e6f20726f626f74206f66207468617420747970650000600082015250565b7f455243373231456e756d657261626c653a206f776e657220696e646578206f7560008201527f74206f6620626f756e6473000000000000000000000000000000000000000000602082015250565b7f4552433732313a207472616e7366657220746f206e6f6e20455243373231526560008201527f63656976657220696d706c656d656e7465720000000000000000000000000000602082015250565b7f4f776e61626c653a206e6577206f776e657220697320746865207a65726f206160008201527f6464726573730000000000000000000000000000000000000000000000000000602082015250565b7f4552433732313a20746f6b656e20616c7265616479206d696e74656400000000600082015250565b7f4552433732313a207472616e7366657220746f20746865207a65726f2061646460008201527f7265737300000000000000000000000000000000000000000000000000000000602082015250565b7f4552433732313a20617070726f766520746f2063616c6c657200000000000000600082015250565b7f4552433732313a206f70657261746f7220717565727920666f72206e6f6e657860008201527f697374656e7420746f6b656e0000000000000000000000000000000000000000602082015250565b7f5061757361626c653a2070617573656400000000000000000000000000000000600082015250565b7f4552433732313a20617070726f76652063616c6c6572206973206e6f74206f7760008201527f6e6572206e6f7220617070726f76656420666f7220616c6c0000000000000000602082015250565b7f4552433732313a2062616c616e636520717565727920666f7220746865207a6560008201527f726f206164647265737300000000000000000000000000000000000000000000602082015250565b7f4552433732313a206f776e657220717565727920666f72206e6f6e657869737460008201527f656e7420746f6b656e0000000000000000000000000000000000000000000000602082015250565b7f5468652076616c7565207375626d69747465642077697468207468697320747260008201527f616e73616374696f6e20697320746f6f206c6f772e0000000000000000000000602082015250565b7f4552433732313a206d696e7420746f20746865207a65726f2061646472657373600082015250565b7f4552433732313a20617070726f76656420717565727920666f72206e6f6e657860008201527f697374656e7420746f6b656e0000000000000000000000000000000000000000602082015250565b7f4f776e61626c653a2063616c6c6572206973206e6f7420746865206f776e6572600082015250565b7f4552433732313a207472616e73666572206f6620746f6b656e2074686174206960008201527f73206e6f74206f776e0000000000000000000000000000000000000000000000602082015250565b7f4552433732314d657461646174613a2055524920717565727920666f72206e6f60008201527f6e6578697374656e7420746f6b656e0000000000000000000000000000000000602082015250565b7f4552433732313a20617070726f76616c20746f2063757272656e74206f776e6560008201527f7200000000000000000000000000000000000000000000000000000000000000602082015250565b7f4552433732313a207472616e736665722063616c6c6572206973206e6f74206f60008201527f776e6572206e6f7220617070726f766564000000000000000000000000000000602082015250565b7f455243373231456e756d657261626c653a20676c6f62616c20696e646578206f60008201527f7574206f6620626f756e64730000000000000000000000000000000000000000602082015250565b60038110615cb757615cb6615648565b5b50565b615cc381615432565b8114615cce57600080fd5b50565b615cda81615444565b8114615ce557600080fd5b50565b615cf181615450565b8114615cfc57600080fd5b50565b615d08816154af565b8114615d1357600080fd5b5056fea26469706673582212200aabe2475ece2ba7cb4b21141feac9b839c0420ce61cc63fca51ebab8b0db14464736f6c63430008020033",
  "immutableReferences": {},
  "source": "// contracts/Robot.sol\n// SPDX-License-Identifier: MIT\npragma solidity ^0.8.2;\n\nimport \"@openzeppelin/contracts/token/ERC721/ERC721.sol\";\nimport \"@openzeppelin/contracts/token/ERC721/extensions/ERC721Enumerable.sol\";\nimport \"@openzeppelin/contracts/token/ERC1155/IERC1155.sol\";\nimport \"@openzeppelin/contracts/utils/math/SafeMath.sol\";\nimport \"@openzeppelin/contracts/security/Pausable.sol\";\nimport \"./Whitelist.sol\";\n\ncontract Robot is ERC721, ERC721Enumerable, Pausable, Whitelist {\n\n    using SafeMath for uint256;\n\n    uint256 public ROBOT_PRICE = 1 * 10**18;\n\n    string private _baseTokenURI;\n\n    // Address where funds are collected\n    address payable private _wallet;\n\n    string[] private robotName = [\"Robot1\", \"Robot2\", \"Robot3\", \"Robot4\"];\n    string[] private robotType = [\"Tank\", \"Speedy\", \"Defender\", \"Attacker\"];\n    uint256[] private strength = [20, 10, 10, 20];\n    uint256[] private agility = [10, 20, 10, 20];\n    uint256[] private ai = [10, 20, 20, 10];\n    uint256[] private defense = [20, 10, 20, 10];\n\n    mapping(uint256 => RobotAttributes) public robots;\n\n    enum State {\n        Fighter, // 0\n        Trainer, // 1\n        Retired // 2\n    }\n\n    State constant defaultState = State.Fighter;\n\n    struct RobotAttributes {\n        uint256 robotIndex;\n        string imageURI;\n        uint256 wins;\n        uint256 losses;\n        State state;\n        string robotName;\n        string robotType;\n        uint256 health;\n        uint256 strength;\n        uint256 agility;\n        uint256 ai;\n        uint256 defense;\n    }\n\n    constructor(string memory baseURI, address payable wallet) ERC721(\"Robot\", \"RBT\") {\n        setBaseURI(baseURI);\n        _wallet = wallet;\n    }\n\n    function pause() public onlyOwner {\n        _pause();\n    }\n\n    function unpause() public onlyOwner {\n        _unpause();\n    }\n\n    function setBaseURI(string memory baseURI) public onlyOwner {\n        _baseTokenURI = baseURI;\n    }\n\n    function _baseURI() internal view virtual override returns (string memory) {\n        return _baseTokenURI;\n    }\n\n    function _beforeTokenTransfer(address from, address to, uint256 tokenId)\n        internal\n        whenNotPaused\n        override(ERC721, ERC721Enumerable)\n    {\n        super._beforeTokenTransfer(from, to, tokenId);\n    }\n\n   // The following function override required by Solidity.\n    function supportsInterface(bytes4 interfaceId)\n        public\n        view\n        override(ERC721, ERC721Enumerable)\n        returns (bool)\n    {\n        return super.supportsInterface(interfaceId);\n    }\n\n    function _createRobot(uint256 index, uint256 typeIndex) internal {\n        robots[index] = RobotAttributes({\n            robotIndex: index,\n            imageURI: \" \",\n            wins: 0,\n            losses: 0,\n            state: defaultState,\n            robotName: robotName[typeIndex],\n            robotType: robotType[typeIndex],\n            health: 1000,\n            strength: strength[typeIndex],\n            agility: agility[typeIndex],\n            ai: ai[typeIndex],\n            defense: defense[typeIndex]\n        });\n    }\n\n    // Count is how many they want to mint\n    function mint(uint256 botType) public whenNotPaused payable {\n        require(botType < 4, \"There is no robot of that type\");\n        require(\n            msg.value >= ROBOT_PRICE || owner() == _msgSender(),\n            \"The value submitted with this transaction is too low.\"\n        );\n\n        uint256 totalSupply = totalSupply();\n        uint256 index = totalSupply + 1;\n        _createRobot(index, botType);\n        _safeMint(msg.sender, index);\n    }\n\n    function updateRobotsRecords(uint256 winningRobotIndex, uint256 losingRobotIndex) public whenNotPaused onlyWhitelisted {\n        robots[winningRobotIndex].wins += 1;\n        robots[losingRobotIndex].losses += 1;\n    }\n\n    function updateRobotName(uint256 robotIndex, string memory value) public whenNotPaused onlyWhitelisted {\n        robots[robotIndex].robotName = value;\n    }\n\n    function updateRobotHealth(uint256 robotIndex, uint256 value) public whenNotPaused onlyWhitelisted {\n        robots[robotIndex].health = value;\n    }\n\n    function updateRobotStrength(uint256 robotIndex, uint256 value) public whenNotPaused onlyWhitelisted {\n        robots[robotIndex].strength = value;\n    }\n\n    function updateRobotAgility(uint256 robotIndex, uint256 value) public whenNotPaused onlyWhitelisted {\n        robots[robotIndex].agility = value;\n    }\n\n    function updateRobotAi(uint256 robotIndex, uint256 value) public whenNotPaused onlyWhitelisted {\n        robots[robotIndex].ai = value;\n    }\n\n    function updateRobotDefense(uint256 robotIndex, uint256 value) public whenNotPaused onlyWhitelisted {\n        robots[robotIndex].defense = value;\n    }\n\n    function setRobotAsFighter(uint256 robotIndex) public whenNotPaused onlyOwner {\n        robots[robotIndex].state = State.Fighter;\n    }\n\n    function setRobotAsTrainer(uint256 robotIndex) public whenNotPaused onlyOwner {\n        robots[robotIndex].state = State.Trainer;\n    }\n\n    function setRobotAsRetired(uint256 robotIndex) public whenNotPaused onlyOwner {\n        robots[robotIndex].state = State.Retired;\n    }\n\n    function getRobotRecord(uint256 robotIndex) public view returns(uint256, uint256) {\n        return(robots[robotIndex].wins, robots[robotIndex].losses);\n    }\n\n    function getRobotState(uint256 robotIndex) public view returns(State) {\n        return robots[robotIndex].state;\n    }\n\n    function walletOfOwner(address _owner)\n        public\n        view\n        returns (uint256[] memory)\n    {\n        uint256 tokenCount = balanceOf(_owner);\n\n        if (tokenCount == 0) {\n            // Return an empty array\n            return new uint256[](0);\n        }\n\n        uint256[] memory tokensId = new uint256[](tokenCount);\n        for (uint256 i; i < tokenCount; i++) {\n            tokensId[i] = tokenOfOwnerByIndex(_owner, i);\n        }\n        return tokensId;\n    }\n\n    function withdrawAll() public payable onlyOwner {\n        require(_wallet.send(address(this).balance));\n    }\n}\n",
  "sourcePath": "/home/seandevs/workspaces/celo-hackathon/nfts/robots/contracts/Robot.sol",
  "compiler": {
    "name": "solc",
    "version": "0.8.2+commit.661d1103.Emscripten.clang"
  },
  "schemaVersion": "3.4.1",
  "updatedAt": "2021-11-23T04:48:27.304Z",
  "networkType": "ethereum",
  "devdoc": {
    "kind": "dev",
    "methods": {
      "approve(address,uint256)": {
        "details": "See {IERC721-approve}."
      },
      "balanceOf(address)": {
        "details": "See {IERC721-balanceOf}."
      },
      "getApproved(uint256)": {
        "details": "See {IERC721-getApproved}."
      },
      "isApprovedForAll(address,address)": {
        "details": "See {IERC721-isApprovedForAll}."
      },
      "name()": {
        "details": "See {IERC721Metadata-name}."
      },
      "owner()": {
        "details": "Returns the address of the current owner."
      },
      "ownerOf(uint256)": {
        "details": "See {IERC721-ownerOf}."
      },
      "paused()": {
        "details": "Returns true if the contract is paused, and false otherwise."
      },
      "renounceOwnership()": {
        "details": "Leaves the contract without owner. It will not be possible to call `onlyOwner` functions anymore. Can only be called by the current owner. NOTE: Renouncing ownership will leave the contract without an owner, thereby removing any functionality that is only available to the owner."
      },
      "safeTransferFrom(address,address,uint256)": {
        "details": "See {IERC721-safeTransferFrom}."
      },
      "safeTransferFrom(address,address,uint256,bytes)": {
        "details": "See {IERC721-safeTransferFrom}."
      },
      "setApprovalForAll(address,bool)": {
        "details": "See {IERC721-setApprovalForAll}."
      },
      "symbol()": {
        "details": "See {IERC721Metadata-symbol}."
      },
      "tokenByIndex(uint256)": {
        "details": "See {IERC721Enumerable-tokenByIndex}."
      },
      "tokenOfOwnerByIndex(address,uint256)": {
        "details": "See {IERC721Enumerable-tokenOfOwnerByIndex}."
      },
      "tokenURI(uint256)": {
        "details": "See {IERC721Metadata-tokenURI}."
      },
      "totalSupply()": {
        "details": "See {IERC721Enumerable-totalSupply}."
      },
      "transferFrom(address,address,uint256)": {
        "details": "See {IERC721-transferFrom}."
      },
      "transferOwnership(address)": {
        "details": "Transfers ownership of the contract to a new account (`newOwner`). Can only be called by the current owner."
      }
    },
    "version": 1
  },
  "userdoc": {
    "kind": "user",
    "methods": {},
    "version": 1
  }
}