{
  "contractName": "Robot",
  "abi": [
    {
      "inputs": [
        {
          "internalType": "string",
          "name": "baseURI",
          "type": "string"
        },
        {
          "internalType": "address payable",
          "name": "wallet",
          "type": "address"
        }
      ],
      "stateMutability": "nonpayable",
      "type": "constructor"
    },
    {
      "anonymous": false,
      "inputs": [
        {
          "indexed": true,
          "internalType": "address",
          "name": "owner",
          "type": "address"
        },
        {
          "indexed": true,
          "internalType": "address",
          "name": "approved",
          "type": "address"
        },
        {
          "indexed": true,
          "internalType": "uint256",
          "name": "tokenId",
          "type": "uint256"
        }
      ],
      "name": "Approval",
      "type": "event"
    },
    {
      "anonymous": false,
      "inputs": [
        {
          "indexed": true,
          "internalType": "address",
          "name": "owner",
          "type": "address"
        },
        {
          "indexed": true,
          "internalType": "address",
          "name": "operator",
          "type": "address"
        },
        {
          "indexed": false,
          "internalType": "bool",
          "name": "approved",
          "type": "bool"
        }
      ],
      "name": "ApprovalForAll",
      "type": "event"
    },
    {
      "anonymous": false,
      "inputs": [
        {
          "indexed": true,
          "internalType": "address",
          "name": "previousOwner",
          "type": "address"
        },
        {
          "indexed": true,
          "internalType": "address",
          "name": "newOwner",
          "type": "address"
        }
      ],
      "name": "OwnershipTransferred",
      "type": "event"
    },
    {
      "anonymous": false,
      "inputs": [
        {
          "indexed": false,
          "internalType": "address",
          "name": "account",
          "type": "address"
        }
      ],
      "name": "Paused",
      "type": "event"
    },
    {
      "anonymous": false,
      "inputs": [
        {
          "indexed": true,
          "internalType": "address",
          "name": "from",
          "type": "address"
        },
        {
          "indexed": true,
          "internalType": "address",
          "name": "to",
          "type": "address"
        },
        {
          "indexed": true,
          "internalType": "uint256",
          "name": "tokenId",
          "type": "uint256"
        }
      ],
      "name": "Transfer",
      "type": "event"
    },
    {
      "anonymous": false,
      "inputs": [
        {
          "indexed": false,
          "internalType": "address",
          "name": "account",
          "type": "address"
        }
      ],
      "name": "Unpaused",
      "type": "event"
    },
    {
      "anonymous": false,
      "inputs": [
        {
          "indexed": false,
          "internalType": "address",
          "name": "addr",
          "type": "address"
        }
      ],
      "name": "WhitelistedAddressAdded",
      "type": "event"
    },
    {
      "anonymous": false,
      "inputs": [
        {
          "indexed": false,
          "internalType": "address",
          "name": "addr",
          "type": "address"
        }
      ],
      "name": "WhitelistedAddressRemoved",
      "type": "event"
    },
    {
      "inputs": [
        {
          "internalType": "address",
          "name": "addr",
          "type": "address"
        }
      ],
      "name": "addAddressToWhitelist",
      "outputs": [
        {
          "internalType": "bool",
          "name": "success",
          "type": "bool"
        }
      ],
      "stateMutability": "nonpayable",
      "type": "function"
    },
    {
      "inputs": [
        {
          "internalType": "address[]",
          "name": "addrs",
          "type": "address[]"
        }
      ],
      "name": "addAddressesToWhitelist",
      "outputs": [
        {
          "internalType": "bool",
          "name": "success",
          "type": "bool"
        }
      ],
      "stateMutability": "nonpayable",
      "type": "function"
    },
    {
      "inputs": [
        {
          "internalType": "address",
          "name": "to",
          "type": "address"
        },
        {
          "internalType": "uint256",
          "name": "tokenId",
          "type": "uint256"
        }
      ],
      "name": "approve",
      "outputs": [],
      "stateMutability": "nonpayable",
      "type": "function"
    },
    {
      "inputs": [
        {
          "internalType": "address",
          "name": "owner",
          "type": "address"
        }
      ],
      "name": "balanceOf",
      "outputs": [
        {
          "internalType": "uint256",
          "name": "",
          "type": "uint256"
        }
      ],
      "stateMutability": "view",
      "type": "function",
      "constant": true
    },
    {
      "inputs": [
        {
          "internalType": "uint256",
          "name": "tokenId",
          "type": "uint256"
        }
      ],
      "name": "getApproved",
      "outputs": [
        {
          "internalType": "address",
          "name": "",
          "type": "address"
        }
      ],
      "stateMutability": "view",
      "type": "function",
      "constant": true
    },
    {
      "inputs": [
        {
          "internalType": "address",
          "name": "owner",
          "type": "address"
        },
        {
          "internalType": "address",
          "name": "operator",
          "type": "address"
        }
      ],
      "name": "isApprovedForAll",
      "outputs": [
        {
          "internalType": "bool",
          "name": "",
          "type": "bool"
        }
      ],
      "stateMutability": "view",
      "type": "function",
      "constant": true
    },
    {
      "inputs": [],
      "name": "name",
      "outputs": [
        {
          "internalType": "string",
          "name": "",
          "type": "string"
        }
      ],
      "stateMutability": "view",
      "type": "function",
      "constant": true
    },
    {
      "inputs": [],
      "name": "owner",
      "outputs": [
        {
          "internalType": "address",
          "name": "",
          "type": "address"
        }
      ],
      "stateMutability": "view",
      "type": "function",
      "constant": true
    },
    {
      "inputs": [
        {
          "internalType": "uint256",
          "name": "tokenId",
          "type": "uint256"
        }
      ],
      "name": "ownerOf",
      "outputs": [
        {
          "internalType": "address",
          "name": "",
          "type": "address"
        }
      ],
      "stateMutability": "view",
      "type": "function",
      "constant": true
    },
    {
      "inputs": [],
      "name": "paused",
      "outputs": [
        {
          "internalType": "bool",
          "name": "",
          "type": "bool"
        }
      ],
      "stateMutability": "view",
      "type": "function",
      "constant": true
    },
    {
      "inputs": [
        {
          "internalType": "address",
          "name": "addr",
          "type": "address"
        }
      ],
      "name": "removeAddressFromWhitelist",
      "outputs": [
        {
          "internalType": "bool",
          "name": "success",
          "type": "bool"
        }
      ],
      "stateMutability": "nonpayable",
      "type": "function"
    },
    {
      "inputs": [
        {
          "internalType": "address[]",
          "name": "addrs",
          "type": "address[]"
        }
      ],
      "name": "removeAddressesFromWhitelist",
      "outputs": [
        {
          "internalType": "bool",
          "name": "success",
          "type": "bool"
        }
      ],
      "stateMutability": "nonpayable",
      "type": "function"
    },
    {
      "inputs": [],
      "name": "renounceOwnership",
      "outputs": [],
      "stateMutability": "nonpayable",
      "type": "function"
    },
    {
      "inputs": [
        {
          "internalType": "uint256",
          "name": "",
          "type": "uint256"
        }
      ],
      "name": "robots",
      "outputs": [
        {
          "internalType": "uint256",
          "name": "robotIndex",
          "type": "uint256"
        },
        {
          "internalType": "string",
          "name": "imageURI",
          "type": "string"
        },
        {
          "internalType": "uint256",
          "name": "wins",
          "type": "uint256"
        },
        {
          "internalType": "uint256",
          "name": "losses",
          "type": "uint256"
        },
        {
          "internalType": "enum Robot.State",
          "name": "state",
          "type": "uint8"
        }
      ],
      "stateMutability": "view",
      "type": "function",
      "constant": true
    },
    {
      "inputs": [
        {
          "internalType": "address",
          "name": "from",
          "type": "address"
        },
        {
          "internalType": "address",
          "name": "to",
          "type": "address"
        },
        {
          "internalType": "uint256",
          "name": "tokenId",
          "type": "uint256"
        }
      ],
      "name": "safeTransferFrom",
      "outputs": [],
      "stateMutability": "nonpayable",
      "type": "function"
    },
    {
      "inputs": [
        {
          "internalType": "address",
          "name": "from",
          "type": "address"
        },
        {
          "internalType": "address",
          "name": "to",
          "type": "address"
        },
        {
          "internalType": "uint256",
          "name": "tokenId",
          "type": "uint256"
        },
        {
          "internalType": "bytes",
          "name": "_data",
          "type": "bytes"
        }
      ],
      "name": "safeTransferFrom",
      "outputs": [],
      "stateMutability": "nonpayable",
      "type": "function"
    },
    {
      "inputs": [
        {
          "internalType": "address",
          "name": "operator",
          "type": "address"
        },
        {
          "internalType": "bool",
          "name": "approved",
          "type": "bool"
        }
      ],
      "name": "setApprovalForAll",
      "outputs": [],
      "stateMutability": "nonpayable",
      "type": "function"
    },
    {
      "inputs": [],
      "name": "symbol",
      "outputs": [
        {
          "internalType": "string",
          "name": "",
          "type": "string"
        }
      ],
      "stateMutability": "view",
      "type": "function",
      "constant": true
    },
    {
      "inputs": [
        {
          "internalType": "uint256",
          "name": "index",
          "type": "uint256"
        }
      ],
      "name": "tokenByIndex",
      "outputs": [
        {
          "internalType": "uint256",
          "name": "",
          "type": "uint256"
        }
      ],
      "stateMutability": "view",
      "type": "function",
      "constant": true
    },
    {
      "inputs": [
        {
          "internalType": "address",
          "name": "owner",
          "type": "address"
        },
        {
          "internalType": "uint256",
          "name": "index",
          "type": "uint256"
        }
      ],
      "name": "tokenOfOwnerByIndex",
      "outputs": [
        {
          "internalType": "uint256",
          "name": "",
          "type": "uint256"
        }
      ],
      "stateMutability": "view",
      "type": "function",
      "constant": true
    },
    {
      "inputs": [
        {
          "internalType": "uint256",
          "name": "tokenId",
          "type": "uint256"
        }
      ],
      "name": "tokenURI",
      "outputs": [
        {
          "internalType": "string",
          "name": "",
          "type": "string"
        }
      ],
      "stateMutability": "view",
      "type": "function",
      "constant": true
    },
    {
      "inputs": [],
      "name": "totalSupply",
      "outputs": [
        {
          "internalType": "uint256",
          "name": "",
          "type": "uint256"
        }
      ],
      "stateMutability": "view",
      "type": "function",
      "constant": true
    },
    {
      "inputs": [
        {
          "internalType": "address",
          "name": "from",
          "type": "address"
        },
        {
          "internalType": "address",
          "name": "to",
          "type": "address"
        },
        {
          "internalType": "uint256",
          "name": "tokenId",
          "type": "uint256"
        }
      ],
      "name": "transferFrom",
      "outputs": [],
      "stateMutability": "nonpayable",
      "type": "function"
    },
    {
      "inputs": [
        {
          "internalType": "address",
          "name": "newOwner",
          "type": "address"
        }
      ],
      "name": "transferOwnership",
      "outputs": [],
      "stateMutability": "nonpayable",
      "type": "function"
    },
    {
      "inputs": [
        {
          "internalType": "address",
          "name": "",
          "type": "address"
        }
      ],
      "name": "whitelist",
      "outputs": [
        {
          "internalType": "bool",
          "name": "",
          "type": "bool"
        }
      ],
      "stateMutability": "view",
      "type": "function",
      "constant": true
    },
    {
      "inputs": [],
      "name": "pause",
      "outputs": [],
      "stateMutability": "nonpayable",
      "type": "function"
    },
    {
      "inputs": [],
      "name": "unpause",
      "outputs": [],
      "stateMutability": "nonpayable",
      "type": "function"
    },
    {
      "inputs": [
        {
          "internalType": "uint256",
          "name": "time",
          "type": "uint256"
        }
      ],
      "name": "setSaleTime",
      "outputs": [],
      "stateMutability": "nonpayable",
      "type": "function"
    },
    {
      "inputs": [],
      "name": "getSaleTime",
      "outputs": [
        {
          "internalType": "uint256",
          "name": "",
          "type": "uint256"
        }
      ],
      "stateMutability": "view",
      "type": "function",
      "constant": true
    },
    {
      "inputs": [],
      "name": "isSaleOpen",
      "outputs": [
        {
          "internalType": "bool",
          "name": "",
          "type": "bool"
        }
      ],
      "stateMutability": "view",
      "type": "function",
      "constant": true
    },
    {
      "inputs": [
        {
          "internalType": "string",
          "name": "baseURI",
          "type": "string"
        }
      ],
      "name": "setBaseURI",
      "outputs": [],
      "stateMutability": "nonpayable",
      "type": "function"
    },
    {
      "inputs": [
        {
          "internalType": "bytes4",
          "name": "interfaceId",
          "type": "bytes4"
        }
      ],
      "name": "supportsInterface",
      "outputs": [
        {
          "internalType": "bool",
          "name": "",
          "type": "bool"
        }
      ],
      "stateMutability": "view",
      "type": "function",
      "constant": true
    },
    {
      "inputs": [
        {
          "internalType": "uint256",
          "name": "_count",
          "type": "uint256"
        }
      ],
      "name": "mint",
      "outputs": [],
      "stateMutability": "payable",
      "type": "function",
      "payable": true
    },
    {
      "inputs": [
        {
          "internalType": "uint256",
          "name": "winningRobotIndex",
          "type": "uint256"
        },
        {
          "internalType": "uint256",
          "name": "losingRobotIndex",
          "type": "uint256"
        }
      ],
      "name": "updateRobotsRecords",
      "outputs": [],
      "stateMutability": "nonpayable",
      "type": "function"
    },
    {
      "inputs": [
        {
          "internalType": "uint256",
          "name": "robotIndex",
          "type": "uint256"
        }
      ],
      "name": "setRobotAsFighter",
      "outputs": [],
      "stateMutability": "nonpayable",
      "type": "function"
    },
    {
      "inputs": [
        {
          "internalType": "uint256",
          "name": "robotIndex",
          "type": "uint256"
        }
      ],
      "name": "setRobotAsTrainer",
      "outputs": [],
      "stateMutability": "nonpayable",
      "type": "function"
    },
    {
      "inputs": [
        {
          "internalType": "uint256",
          "name": "robotIndex",
          "type": "uint256"
        }
      ],
      "name": "setRobotAsRetired",
      "outputs": [],
      "stateMutability": "nonpayable",
      "type": "function"
    },
    {
      "inputs": [
        {
          "internalType": "uint256",
          "name": "robotIndex",
          "type": "uint256"
        }
      ],
      "name": "getRobotRecord",
      "outputs": [
        {
          "internalType": "uint256",
          "name": "",
          "type": "uint256"
        },
        {
          "internalType": "uint256",
          "name": "",
          "type": "uint256"
        }
      ],
      "stateMutability": "view",
      "type": "function",
      "constant": true
    },
    {
      "inputs": [
        {
          "internalType": "uint256",
          "name": "robotIndex",
          "type": "uint256"
        }
      ],
      "name": "getRobotState",
      "outputs": [
        {
          "internalType": "enum Robot.State",
          "name": "",
          "type": "uint8"
        }
      ],
      "stateMutability": "view",
      "type": "function",
      "constant": true
    },
    {
      "inputs": [
        {
          "internalType": "address",
          "name": "_owner",
          "type": "address"
        }
      ],
      "name": "walletOfOwner",
      "outputs": [
        {
          "internalType": "uint256[]",
          "name": "",
          "type": "uint256[]"
        }
      ],
      "stateMutability": "view",
      "type": "function",
      "constant": true
    },
    {
      "inputs": [],
      "name": "withdrawAll",
      "outputs": [],
      "stateMutability": "payable",
      "type": "function",
      "payable": true
    }
  ],
  "bytecode": "0x608060405263616bc0a5600c5567011c37937e080000600d553480156200002557600080fd5b5060405162005b8938038062005b8983398181016040528101906200004b91906200045c565b6040518060400160405280600581526020017f526f626f740000000000000000000000000000000000000000000000000000008152506040518060400160405280600381526020017f52425400000000000000000000000000000000000000000000000000000000008152508160009080519060200190620000cf92919062000323565b508060019080519060200190620000e892919062000323565b5050506000600a60006101000a81548160ff021916908315150217905550620001266200011a6200018060201b60201c565b6200018860201b60201c565b62000137826200024e60201b60201c565b80600f60006101000a81548173ffffffffffffffffffffffffffffffffffffffff021916908373ffffffffffffffffffffffffffffffffffffffff1602179055505050620006f7565b600033905090565b6000600a60019054906101000a900473ffffffffffffffffffffffffffffffffffffffff16905081600a60016101000a81548173ffffffffffffffffffffffffffffffffffffffff021916908373ffffffffffffffffffffffffffffffffffffffff1602179055508173ffffffffffffffffffffffffffffffffffffffff168173ffffffffffffffffffffffffffffffffffffffff167f8be0079c531659141344cd1fd0a4f28419497f9722a3daafe3b4186f6b6457e060405160405180910390a35050565b6200025e6200018060201b60201c565b73ffffffffffffffffffffffffffffffffffffffff1662000284620002f960201b60201c565b73ffffffffffffffffffffffffffffffffffffffff1614620002dd576040517f08c379a0000000000000000000000000000000000000000000000000000000008152600401620002d490620004dd565b60405180910390fd5b80600e9080519060200190620002f592919062000323565b5050565b6000600a60019054906101000a900473ffffffffffffffffffffffffffffffffffffffff16905090565b8280546200033190620005d9565b90600052602060002090601f016020900481019282620003555760008555620003a1565b82601f106200037057805160ff1916838001178555620003a1565b82800160010185558215620003a1579182015b82811115620003a057825182559160200191906001019062000383565b5b509050620003b09190620003b4565b5090565b5b80821115620003cf576000816000905550600101620003b5565b5090565b6000620003ea620003e48462000528565b620004ff565b9050828152602081018484840111156200040357600080fd5b62000410848285620005a3565b509392505050565b6000815190506200042981620006dd565b92915050565b600082601f8301126200044157600080fd5b815162000453848260208601620003d3565b91505092915050565b600080604083850312156200047057600080fd5b600083015167ffffffffffffffff8111156200048b57600080fd5b62000499858286016200042f565b9250506020620004ac8582860162000418565b9150509250929050565b6000620004c56020836200055e565b9150620004d282620006b4565b602082019050919050565b60006020820190508181036000830152620004f881620004b6565b9050919050565b60006200050b6200051e565b90506200051982826200060f565b919050565b6000604051905090565b600067ffffffffffffffff82111562000546576200054562000674565b5b6200055182620006a3565b9050602081019050919050565b600082825260208201905092915050565b60006200057c8262000583565b9050919050565b600073ffffffffffffffffffffffffffffffffffffffff82169050919050565b60005b83811015620005c3578082015181840152602081019050620005a6565b83811115620005d3576000848401525b50505050565b60006002820490506001821680620005f257607f821691505b6020821081141562000609576200060862000645565b5b50919050565b6200061a82620006a3565b810181811067ffffffffffffffff821117156200063c576200063b62000674565b5b80604052505050565b7f4e487b7100000000000000000000000000000000000000000000000000000000600052602260045260246000fd5b7f4e487b7100000000000000000000000000000000000000000000000000000000600052604160045260246000fd5b6000601f19601f8301169050919050565b7f4f776e61626c653a2063616c6c6572206973206e6f7420746865206f776e6572600082015250565b620006e8816200056f565b8114620006f457600080fd5b50565b61548280620007076000396000f3fe6080604052600436106102465760003560e01c80636f027ef111610139578063a0712d68116100b6578063c87b56dd1161007a578063c87b56dd146108ad578063cbf21fe4146108ea578063db43c50714610915578063e2ec6ec31461093e578063e985e9c51461097b578063f2fde38b146109b857610246565b8063a0712d68146107d9578063a22cb465146107f5578063a899cbbb1461081e578063abdb9bec1461085b578063b88d4fde1461088457610246565b8063853828b6116100fd578063853828b6146106fb5780638da5cb5b1461070557806395d89b41146107305780639b19251a1461075b578063a03937c51461079857610246565b80636f027ef11461062a57806370a0823114610653578063715018a6146106905780637b9417c8146106a75780638456cb59146106e457610246565b80632f745c59116101c75780634f6ccce71161018b5780634f6ccce71461053357806355f804b31461057057806357a6f5cf146105995780635c975abb146105c25780636352211e146105ed57610246565b80632f745c59146104505780633bd2b67d1461048d5780633f4ba83a146104b657806342842e0e146104cd578063438b6300146104f657610246565b806318160ddd1161020e57806318160ddd146103575780631a0813301461038257806323b872dd146103ad57806324953eaa146103d6578063286dd3f51461041357610246565b806301ffc9a71461024b57806306fdde0314610288578063081812fc146102b3578063095ea7b3146102f05780630e9c54a114610319575b600080fd5b34801561025757600080fd5b50610272600480360381019061026d9190613eab565b6109e1565b60405161027f91906144d9565b60405180910390f35b34801561029457600080fd5b5061029d6109f3565b6040516102aa919061450f565b60405180910390f35b3480156102bf57600080fd5b506102da60048036038101906102d59190613f3e565b610a85565b6040516102e79190614450565b60405180910390f35b3480156102fc57600080fd5b5061031760048036038101906103129190613e2e565b610b0a565b005b34801561032557600080fd5b50610340600480360381019061033b9190613f3e565b610c22565b60405161034e929190614886565b60405180910390f35b34801561036357600080fd5b5061036c610c5c565b6040516103799190614811565b60405180910390f35b34801561038e57600080fd5b50610397610c69565b6040516103a491906144d9565b60405180910390f35b3480156103b957600080fd5b506103d460048036038101906103cf9190613d28565b610c76565b005b3480156103e257600080fd5b506103fd60048036038101906103f89190613e6a565b610cd6565b60405161040a91906144d9565b60405180910390f35b34801561041f57600080fd5b5061043a60048036038101906104359190613cc3565b610dcc565b60405161044791906144d9565b60405180910390f35b34801561045c57600080fd5b5061047760048036038101906104729190613e2e565b610f35565b6040516104849190614811565b60405180910390f35b34801561049957600080fd5b506104b460048036038101906104af9190613f3e565b610fda565b005b3480156104c257600080fd5b506104cb611060565b005b3480156104d957600080fd5b506104f460048036038101906104ef9190613d28565b6110e6565b005b34801561050257600080fd5b5061051d60048036038101906105189190613cc3565b611106565b60405161052a91906144b7565b60405180910390f35b34801561053f57600080fd5b5061055a60048036038101906105559190613f3e565b611282565b6040516105679190614811565b60405180910390f35b34801561057c57600080fd5b5061059760048036038101906105929190613efd565b611319565b005b3480156105a557600080fd5b506105c060048036038101906105bb9190613f3e565b6113af565b005b3480156105ce57600080fd5b506105d76114db565b6040516105e491906144d9565b60405180910390f35b3480156105f957600080fd5b50610614600480360381019061060f9190613f3e565b6114f2565b6040516106219190614450565b60405180910390f35b34801561063657600080fd5b50610651600480360381019061064c9190613f67565b6115a4565b005b34801561065f57600080fd5b5061067a60048036038101906106759190613cc3565b6116a2565b6040516106879190614811565b60405180910390f35b34801561069c57600080fd5b506106a561175a565b005b3480156106b357600080fd5b506106ce60048036038101906106c99190613cc3565b6117e2565b6040516106db91906144d9565b60405180910390f35b3480156106f057600080fd5b506106f961194a565b005b6107036119d0565b005b34801561071157600080fd5b5061071a611aae565b6040516107279190614450565b60405180910390f35b34801561073c57600080fd5b50610745611ad8565b604051610752919061450f565b60405180910390f35b34801561076757600080fd5b50610782600480360381019061077d9190613cc3565b611b6a565b60405161078f91906144d9565b60405180910390f35b3480156107a457600080fd5b506107bf60048036038101906107ba9190613f3e565b611b8a565b6040516107d095949392919061482c565b60405180910390f35b6107f360048036038101906107ee9190613f3e565b611c55565b005b34801561080157600080fd5b5061081c60048036038101906108179190613df2565b611dc8565b005b34801561082a57600080fd5b5061084560048036038101906108409190613f3e565b611f49565b60405161085291906144f4565b60405180910390f35b34801561086757600080fd5b50610882600480360381019061087d9190613f3e565b611f76565b005b34801561089057600080fd5b506108ab60048036038101906108a69190613d77565b6120a2565b005b3480156108b957600080fd5b506108d460048036038101906108cf9190613f3e565b612104565b6040516108e1919061450f565b60405180910390f35b3480156108f657600080fd5b506108ff6121ab565b60405161090c9190614811565b60405180910390f35b34801561092157600080fd5b5061093c60048036038101906109379190613f3e565b6121b5565b005b34801561094a57600080fd5b5061096560048036038101906109609190613e6a565b6122e1565b60405161097291906144d9565b60405180910390f35b34801561098757600080fd5b506109a2600480360381019061099d9190613cec565b6123d7565b6040516109af91906144d9565b60405180910390f35b3480156109c457600080fd5b506109df60048036038101906109da9190613cc3565b61246b565b005b60006109ec82612563565b9050919050565b606060008054610a0290614bce565b80601f0160208091040260200160405190810160405280929190818152602001828054610a2e90614bce565b8015610a7b5780601f10610a5057610100808354040283529160200191610a7b565b820191906000526020600020905b815481529060010190602001808311610a5e57829003601f168201915b5050505050905090565b6000610a90826125dd565b610acf576040517f08c379a0000000000000000000000000000000000000000000000000000000008152600401610ac690614731565b60405180910390fd5b6004600083815260200190815260200160002060009054906101000a900473ffffffffffffffffffffffffffffffffffffffff169050919050565b6000610b15826114f2565b90508073ffffffffffffffffffffffffffffffffffffffff168373ffffffffffffffffffffffffffffffffffffffff161415610b86576040517f08c379a0000000000000000000000000000000000000000000000000000000008152600401610b7d906147b1565b60405180910390fd5b8073ffffffffffffffffffffffffffffffffffffffff16610ba5612649565b73ffffffffffffffffffffffffffffffffffffffff161480610bd45750610bd381610bce612649565b6123d7565b5b610c13576040517f08c379a0000000000000000000000000000000000000000000000000000000008152600401610c0a90614691565b60405180910390fd5b610c1d8383612651565b505050565b6000806011600084815260200190815260200160002060020154601160008581526020019081526020016000206003015491509150915091565b6000600880549050905090565b6000600c54421015905090565b610c87610c81612649565b8261270a565b610cc6576040517f08c379a0000000000000000000000000000000000000000000000000000000008152600401610cbd906147d1565b60405180910390fd5b610cd18383836127e8565b505050565b6000610ce0612649565b73ffffffffffffffffffffffffffffffffffffffff16610cfe611aae565b73ffffffffffffffffffffffffffffffffffffffff1614610d54576040517f08c379a0000000000000000000000000000000000000000000000000000000008152600401610d4b90614751565b60405180910390fd5b60005b8251811015610dc657610da9838281518110610d9c577f4e487b7100000000000000000000000000000000000000000000000000000000600052603260045260246000fd5b6020026020010151610dcc565b15610db357600191505b8080610dbe90614c31565b915050610d57565b50919050565b6000610dd6612649565b73ffffffffffffffffffffffffffffffffffffffff16610df4611aae565b73ffffffffffffffffffffffffffffffffffffffff1614610e4a576040517f08c379a0000000000000000000000000000000000000000000000000000000008152600401610e4190614751565b60405180910390fd5b600b60008373ffffffffffffffffffffffffffffffffffffffff1673ffffffffffffffffffffffffffffffffffffffff16815260200190815260200160002060009054906101000a900460ff1615610f30576000600b60008473ffffffffffffffffffffffffffffffffffffffff1673ffffffffffffffffffffffffffffffffffffffff16815260200190815260200160002060006101000a81548160ff0219169083151502179055507ff1abf01a1043b7c244d128e8595cf0c1d10743b022b03a02dffd8ca3bf729f5a82604051610f239190614450565b60405180910390a1600190505b919050565b6000610f40836116a2565b8210610f81576040517f08c379a0000000000000000000000000000000000000000000000000000000008152600401610f7890614551565b60405180910390fd5b600660008473ffffffffffffffffffffffffffffffffffffffff1673ffffffffffffffffffffffffffffffffffffffff168152602001908152602001600020600083815260200190815260200160002054905092915050565b610fe2612649565b73ffffffffffffffffffffffffffffffffffffffff16611000611aae565b73ffffffffffffffffffffffffffffffffffffffff1614611056576040517f08c379a000000000000000000000000000000000000000000000000000000000815260040161104d90614751565b60405180910390fd5b80600c8190555050565b611068612649565b73ffffffffffffffffffffffffffffffffffffffff16611086611aae565b73ffffffffffffffffffffffffffffffffffffffff16146110dc576040517f08c379a00000000000000000000000000000000000000000000000000000000081526004016110d390614751565b60405180910390fd5b6110e4612a44565b565b611101838383604051806020016040528060008152506120a2565b505050565b60606000611113836116a2565b9050600081141561119657600067ffffffffffffffff81111561115f577f4e487b7100000000000000000000000000000000000000000000000000000000600052604160045260246000fd5b60405190808252806020026020018201604052801561118d5781602001602082028036833780820191505090505b5091505061127d565b60008167ffffffffffffffff8111156111d8577f4e487b7100000000000000000000000000000000000000000000000000000000600052604160045260246000fd5b6040519080825280602002602001820160405280156112065781602001602082028036833780820191505090505b50905060005b828110156112765761121e8582610f35565b828281518110611257577f4e487b7100000000000000000000000000000000000000000000000000000000600052603260045260246000fd5b602002602001018181525050808061126e90614c31565b91505061120c565b5080925050505b919050565b600061128c610c5c565b82106112cd576040517f08c379a00000000000000000000000000000000000000000000000000000000081526004016112c4906147f1565b60405180910390fd5b60088281548110611307577f4e487b7100000000000000000000000000000000000000000000000000000000600052603260045260246000fd5b90600052602060002001549050919050565b611321612649565b73ffffffffffffffffffffffffffffffffffffffff1661133f611aae565b73ffffffffffffffffffffffffffffffffffffffff1614611395576040517f08c379a000000000000000000000000000000000000000000000000000000000815260040161138c90614751565b60405180910390fd5b80600e90805190602001906113ab929190613a51565b5050565b6113b76114db565b156113f7576040517f08c379a00000000000000000000000000000000000000000000000000000000081526004016113ee90614651565b60405180910390fd5b6113ff612649565b73ffffffffffffffffffffffffffffffffffffffff1661141d611aae565b73ffffffffffffffffffffffffffffffffffffffff1614611473576040517f08c379a000000000000000000000000000000000000000000000000000000000815260040161146a90614751565b60405180910390fd5b60006011600083815260200190815260200160002060040160006101000a81548160ff021916908360028111156114d3577f4e487b7100000000000000000000000000000000000000000000000000000000600052602160045260246000fd5b021790555050565b6000600a60009054906101000a900460ff16905090565b6000806002600084815260200190815260200160002060009054906101000a900473ffffffffffffffffffffffffffffffffffffffff169050600073ffffffffffffffffffffffffffffffffffffffff168173ffffffffffffffffffffffffffffffffffffffff16141561159b576040517f08c379a0000000000000000000000000000000000000000000000000000000008152600401611592906146d1565b60405180910390fd5b80915050919050565b6115ac6114db565b156115ec576040517f08c379a00000000000000000000000000000000000000000000000000000000081526004016115e390614651565b60405180910390fd5b600b60003373ffffffffffffffffffffffffffffffffffffffff1673ffffffffffffffffffffffffffffffffffffffff16815260200190815260200160002060009054906101000a900460ff1661164257600080fd5b600160116000848152602001908152602001600020600201600082825461166991906149de565b92505081905550600160116000838152602001908152602001600020600301600082825461169791906149de565b925050819055505050565b60008073ffffffffffffffffffffffffffffffffffffffff168273ffffffffffffffffffffffffffffffffffffffff161415611713576040517f08c379a000000000000000000000000000000000000000000000000000000000815260040161170a906146b1565b60405180910390fd5b600360008373ffffffffffffffffffffffffffffffffffffffff1673ffffffffffffffffffffffffffffffffffffffff168152602001908152602001600020549050919050565b611762612649565b73ffffffffffffffffffffffffffffffffffffffff16611780611aae565b73ffffffffffffffffffffffffffffffffffffffff16146117d6576040517f08c379a00000000000000000000000000000000000000000000000000000000081526004016117cd90614751565b60405180910390fd5b6117e06000612ae6565b565b60006117ec612649565b73ffffffffffffffffffffffffffffffffffffffff1661180a611aae565b73ffffffffffffffffffffffffffffffffffffffff1614611860576040517f08c379a000000000000000000000000000000000000000000000000000000000815260040161185790614751565b60405180910390fd5b600b60008373ffffffffffffffffffffffffffffffffffffffff1673ffffffffffffffffffffffffffffffffffffffff16815260200190815260200160002060009054906101000a900460ff16611945576001600b60008473ffffffffffffffffffffffffffffffffffffffff1673ffffffffffffffffffffffffffffffffffffffff16815260200190815260200160002060006101000a81548160ff0219169083151502179055507fd1bba68c128cc3f427e5831b3c6f99f480b6efa6b9e80c757768f6124158cc3f826040516119389190614450565b60405180910390a1600190505b919050565b611952612649565b73ffffffffffffffffffffffffffffffffffffffff16611970611aae565b73ffffffffffffffffffffffffffffffffffffffff16146119c6576040517f08c379a00000000000000000000000000000000000000000000000000000000081526004016119bd90614751565b60405180910390fd5b6119ce612bac565b565b6119d8612649565b73ffffffffffffffffffffffffffffffffffffffff166119f6611aae565b73ffffffffffffffffffffffffffffffffffffffff1614611a4c576040517f08c379a0000000000000000000000000000000000000000000000000000000008152600401611a4390614751565b60405180910390fd5b600f60009054906101000a900473ffffffffffffffffffffffffffffffffffffffff1673ffffffffffffffffffffffffffffffffffffffff166108fc479081150290604051600060405180830381858888f19350505050611aac57600080fd5b565b6000600a60019054906101000a900473ffffffffffffffffffffffffffffffffffffffff16905090565b606060018054611ae790614bce565b80601f0160208091040260200160405190810160405280929190818152602001828054611b1390614bce565b8015611b605780601f10611b3557610100808354040283529160200191611b60565b820191906000526020600020905b815481529060010190602001808311611b4357829003601f168201915b5050505050905090565b600b6020528060005260406000206000915054906101000a900460ff1681565b6011602052806000526040600020600091509050806000015490806001018054611bb390614bce565b80601f0160208091040260200160405190810160405280929190818152602001828054611bdf90614bce565b8015611c2c5780601f10611c0157610100808354040283529160200191611c2c565b820191906000526020600020905b815481529060010190602001808311611c0f57829003601f168201915b5050505050908060020154908060030154908060040160009054906101000a900460ff16905085565b611c5d6114db565b15611c9d576040517f08c379a0000000000000000000000000000000000000000000000000000000008152600401611c9490614651565b60405180910390fd5b6000611ca7610c5c565b905060158210611cec576040517f08c379a0000000000000000000000000000000000000000000000000000000008152600401611ce390614671565b60405180910390fd5b81600d54611cfa9190614a65565b341015611d3c576040517f08c379a0000000000000000000000000000000000000000000000000000000008152600401611d33906146f1565b60405180910390fd5b600c54421015611d81576040517f08c379a0000000000000000000000000000000000000000000000000000000008152600401611d7890614611565b60405180910390fd5b60005b82811015611dc35760008183611d9a91906149de565b9050611da581612c4f565b611daf3382612d90565b508080611dbb90614c31565b915050611d84565b505050565b611dd0612649565b73ffffffffffffffffffffffffffffffffffffffff168273ffffffffffffffffffffffffffffffffffffffff161415611e3e576040517f08c379a0000000000000000000000000000000000000000000000000000000008152600401611e35906145f1565b60405180910390fd5b8060056000611e4b612649565b73ffffffffffffffffffffffffffffffffffffffff1673ffffffffffffffffffffffffffffffffffffffff16815260200190815260200160002060008473ffffffffffffffffffffffffffffffffffffffff1673ffffffffffffffffffffffffffffffffffffffff16815260200190815260200160002060006101000a81548160ff0219169083151502179055508173ffffffffffffffffffffffffffffffffffffffff16611ef8612649565b73ffffffffffffffffffffffffffffffffffffffff167f17307eab39ab6107e8899845ad3d59bd9653f200f220920489ca2b5937696c3183604051611f3d91906144d9565b60405180910390a35050565b60006011600083815260200190815260200160002060040160009054906101000a900460ff169050919050565b611f7e6114db565b15611fbe576040517f08c379a0000000000000000000000000000000000000000000000000000000008152600401611fb590614651565b60405180910390fd5b611fc6612649565b73ffffffffffffffffffffffffffffffffffffffff16611fe4611aae565b73ffffffffffffffffffffffffffffffffffffffff161461203a576040517f08c379a000000000000000000000000000000000000000000000000000000000815260040161203190614751565b60405180910390fd5b60016011600083815260200190815260200160002060040160006101000a81548160ff0219169083600281111561209a577f4e487b7100000000000000000000000000000000000000000000000000000000600052602160045260246000fd5b021790555050565b6120b36120ad612649565b8361270a565b6120f2576040517f08c379a00000000000000000000000000000000000000000000000000000000081526004016120e9906147d1565b60405180910390fd5b6120fe84848484612dae565b50505050565b606061210f826125dd565b61214e576040517f08c379a000000000000000000000000000000000000000000000000000000000815260040161214590614791565b60405180910390fd5b6000612158612e0a565b9050600081511161217857604051806020016040528060008152506121a3565b8061218284612e9c565b60405160200161219392919061442c565b6040516020818303038152906040525b915050919050565b6000600c54905090565b6121bd6114db565b156121fd576040517f08c379a00000000000000000000000000000000000000000000000000000000081526004016121f490614651565b60405180910390fd5b612205612649565b73ffffffffffffffffffffffffffffffffffffffff16612223611aae565b73ffffffffffffffffffffffffffffffffffffffff1614612279576040517f08c379a000000000000000000000000000000000000000000000000000000000815260040161227090614751565b60405180910390fd5b60026011600083815260200190815260200160002060040160006101000a81548160ff021916908360028111156122d9577f4e487b7100000000000000000000000000000000000000000000000000000000600052602160045260246000fd5b021790555050565b60006122eb612649565b73ffffffffffffffffffffffffffffffffffffffff16612309611aae565b73ffffffffffffffffffffffffffffffffffffffff161461235f576040517f08c379a000000000000000000000000000000000000000000000000000000000815260040161235690614751565b60405180910390fd5b60005b82518110156123d1576123b48382815181106123a7577f4e487b7100000000000000000000000000000000000000000000000000000000600052603260045260246000fd5b60200260200101516117e2565b156123be57600191505b80806123c990614c31565b915050612362565b50919050565b6000600560008473ffffffffffffffffffffffffffffffffffffffff1673ffffffffffffffffffffffffffffffffffffffff16815260200190815260200160002060008373ffffffffffffffffffffffffffffffffffffffff1673ffffffffffffffffffffffffffffffffffffffff16815260200190815260200160002060009054906101000a900460ff16905092915050565b612473612649565b73ffffffffffffffffffffffffffffffffffffffff16612491611aae565b73ffffffffffffffffffffffffffffffffffffffff16146124e7576040517f08c379a00000000000000000000000000000000000000000000000000000000081526004016124de90614751565b60405180910390fd5b600073ffffffffffffffffffffffffffffffffffffffff168173ffffffffffffffffffffffffffffffffffffffff161415612557576040517f08c379a000000000000000000000000000000000000000000000000000000000815260040161254e90614591565b60405180910390fd5b61256081612ae6565b50565b60007f780e9d63000000000000000000000000000000000000000000000000000000007bffffffffffffffffffffffffffffffffffffffffffffffffffffffff1916827bffffffffffffffffffffffffffffffffffffffffffffffffffffffff191614806125d657506125d582613049565b5b9050919050565b60008073ffffffffffffffffffffffffffffffffffffffff166002600084815260200190815260200160002060009054906101000a900473ffffffffffffffffffffffffffffffffffffffff1673ffffffffffffffffffffffffffffffffffffffff1614159050919050565b600033905090565b816004600083815260200190815260200160002060006101000a81548173ffffffffffffffffffffffffffffffffffffffff021916908373ffffffffffffffffffffffffffffffffffffffff160217905550808273ffffffffffffffffffffffffffffffffffffffff166126c4836114f2565b73ffffffffffffffffffffffffffffffffffffffff167f8c5be1e5ebec7d5bd14f71427d1e84f3dd0314c0f7b2291e5b200ac8c7c3b92560405160405180910390a45050565b6000612715826125dd565b612754576040517f08c379a000000000000000000000000000000000000000000000000000000000815260040161274b90614631565b60405180910390fd5b600061275f836114f2565b90508073ffffffffffffffffffffffffffffffffffffffff168473ffffffffffffffffffffffffffffffffffffffff1614806127ce57508373ffffffffffffffffffffffffffffffffffffffff166127b684610a85565b73ffffffffffffffffffffffffffffffffffffffff16145b806127df57506127de81856123d7565b5b91505092915050565b8273ffffffffffffffffffffffffffffffffffffffff16612808826114f2565b73ffffffffffffffffffffffffffffffffffffffff161461285e576040517f08c379a000000000000000000000000000000000000000000000000000000000815260040161285590614771565b60405180910390fd5b600073ffffffffffffffffffffffffffffffffffffffff168273ffffffffffffffffffffffffffffffffffffffff1614156128ce576040517f08c379a00000000000000000000000000000000000000000000000000000000081526004016128c5906145d1565b60405180910390fd5b6128d983838361312b565b6128e4600082612651565b6001600360008573ffffffffffffffffffffffffffffffffffffffff1673ffffffffffffffffffffffffffffffffffffffff16815260200190815260200160002060008282546129349190614abf565b925050819055506001600360008473ffffffffffffffffffffffffffffffffffffffff1673ffffffffffffffffffffffffffffffffffffffff168152602001908152602001600020600082825461298b91906149de565b92505081905550816002600083815260200190815260200160002060006101000a81548173ffffffffffffffffffffffffffffffffffffffff021916908373ffffffffffffffffffffffffffffffffffffffff160217905550808273ffffffffffffffffffffffffffffffffffffffff168473ffffffffffffffffffffffffffffffffffffffff167fddf252ad1be2c89b69c2b068fc378daa952ba7f163c4a11628f55a4df523b3ef60405160405180910390a4505050565b612a4c6114db565b612a8b576040517f08c379a0000000000000000000000000000000000000000000000000000000008152600401612a8290614531565b60405180910390fd5b6000600a60006101000a81548160ff0219169083151502179055507f5db9ee0a495bf2e6ff9c91a7834c1ba4fdd244a5e8aa4e537bd38aeae4b073aa612acf612649565b604051612adc9190614450565b60405180910390a1565b6000600a60019054906101000a900473ffffffffffffffffffffffffffffffffffffffff16905081600a60016101000a81548173ffffffffffffffffffffffffffffffffffffffff021916908373ffffffffffffffffffffffffffffffffffffffff1602179055508173ffffffffffffffffffffffffffffffffffffffff168173ffffffffffffffffffffffffffffffffffffffff167f8be0079c531659141344cd1fd0a4f28419497f9722a3daafe3b4186f6b6457e060405160405180910390a35050565b612bb46114db565b15612bf4576040517f08c379a0000000000000000000000000000000000000000000000000000000008152600401612beb90614651565b60405180910390fd5b6001600a60006101000a81548160ff0219169083151502179055507f62e78cea01bee320cd4e420270b5ea74000d11b0c9f74754ebdbfc544b05a258612c38612649565b604051612c459190614450565b60405180910390a1565b6040518060a001604052808281526020016040518060400160405280600181526020017f20000000000000000000000000000000000000000000000000000000000000008152508152602001600081526020016000815260200160006002811115612ce3577f4e487b7100000000000000000000000000000000000000000000000000000000600052602160045260246000fd5b81525060116000838152602001908152602001600020600082015181600001556020820151816001019080519060200190612d1f929190613a51565b50604082015181600201556060820151816003015560808201518160040160006101000a81548160ff02191690836002811115612d85577f4e487b7100000000000000000000000000000000000000000000000000000000600052602160045260246000fd5b021790555090505050565b612daa828260405180602001604052806000815250613183565b5050565b612db98484846127e8565b612dc5848484846131de565b612e04576040517f08c379a0000000000000000000000000000000000000000000000000000000008152600401612dfb90614571565b60405180910390fd5b50505050565b6060600e8054612e1990614bce565b80601f0160208091040260200160405190810160405280929190818152602001828054612e4590614bce565b8015612e925780601f10612e6757610100808354040283529160200191612e92565b820191906000526020600020905b815481529060010190602001808311612e7557829003601f168201915b5050505050905090565b60606000821415612ee4576040518060400160405280600181526020017f30000000000000000000000000000000000000000000000000000000000000008152509050613044565b600082905060005b60008214612f16578080612eff90614c31565b915050600a82612f0f9190614a34565b9150612eec565b60008167ffffffffffffffff811115612f58577f4e487b7100000000000000000000000000000000000000000000000000000000600052604160045260246000fd5b6040519080825280601f01601f191660200182016040528015612f8a5781602001600182028036833780820191505090505b5090505b6000851461303d57600182612fa39190614abf565b9150600a85612fb29190614c7a565b6030612fbe91906149de565b60f81b818381518110612ffa577f4e487b7100000000000000000000000000000000000000000000000000000000600052603260045260246000fd5b60200101907effffffffffffffffffffffffffffffffffffffffffffffffffffffffffffff1916908160001a905350600a856130369190614a34565b9450612f8e565b8093505050505b919050565b60007f80ac58cd000000000000000000000000000000000000000000000000000000007bffffffffffffffffffffffffffffffffffffffffffffffffffffffff1916827bffffffffffffffffffffffffffffffffffffffffffffffffffffffff1916148061311457507f5b5e139f000000000000000000000000000000000000000000000000000000007bffffffffffffffffffffffffffffffffffffffffffffffffffffffff1916827bffffffffffffffffffffffffffffffffffffffffffffffffffffffff1916145b80613124575061312382613375565b5b9050919050565b6131336114db565b15613173576040517f08c379a000000000000000000000000000000000000000000000000000000000815260040161316a90614651565b60405180910390fd5b61317e8383836133df565b505050565b61318d83836134f3565b61319a60008484846131de565b6131d9576040517f08c379a00000000000000000000000000000000000000000000000000000000081526004016131d090614571565b60405180910390fd5b505050565b60006131ff8473ffffffffffffffffffffffffffffffffffffffff166136c1565b15613368578373ffffffffffffffffffffffffffffffffffffffff1663150b7a02613228612649565b8786866040518563ffffffff1660e01b815260040161324a949392919061446b565b602060405180830381600087803b15801561326457600080fd5b505af192505050801561329557506040513d601f19601f820116820180604052508101906132929190613ed4565b60015b613318573d80600081146132c5576040519150601f19603f3d011682016040523d82523d6000602084013e6132ca565b606091505b50600081511415613310576040517f08c379a000000000000000000000000000000000000000000000000000000000815260040161330790614571565b60405180910390fd5b805181602001fd5b63150b7a0260e01b7bffffffffffffffffffffffffffffffffffffffffffffffffffffffff1916817bffffffffffffffffffffffffffffffffffffffffffffffffffffffff19161491505061336d565b600190505b949350505050565b60007f01ffc9a7000000000000000000000000000000000000000000000000000000007bffffffffffffffffffffffffffffffffffffffffffffffffffffffff1916827bffffffffffffffffffffffffffffffffffffffffffffffffffffffff1916149050919050565b6133ea8383836136d4565b600073ffffffffffffffffffffffffffffffffffffffff168373ffffffffffffffffffffffffffffffffffffffff16141561342d57613428816136d9565b61346c565b8173ffffffffffffffffffffffffffffffffffffffff168373ffffffffffffffffffffffffffffffffffffffff161461346b5761346a8382613722565b5b5b600073ffffffffffffffffffffffffffffffffffffffff168273ffffffffffffffffffffffffffffffffffffffff1614156134af576134aa8161388f565b6134ee565b8273ffffffffffffffffffffffffffffffffffffffff168273ffffffffffffffffffffffffffffffffffffffff16146134ed576134ec82826139d2565b5b5b505050565b600073ffffffffffffffffffffffffffffffffffffffff168273ffffffffffffffffffffffffffffffffffffffff161415613563576040517f08c379a000000000000000000000000000000000000000000000000000000000815260040161355a90614711565b60405180910390fd5b61356c816125dd565b156135ac576040517f08c379a00000000000000000000000000000000000000000000000000000000081526004016135a3906145b1565b60405180910390fd5b6135b86000838361312b565b6001600360008473ffffffffffffffffffffffffffffffffffffffff1673ffffffffffffffffffffffffffffffffffffffff168152602001908152602001600020600082825461360891906149de565b92505081905550816002600083815260200190815260200160002060006101000a81548173ffffffffffffffffffffffffffffffffffffffff021916908373ffffffffffffffffffffffffffffffffffffffff160217905550808273ffffffffffffffffffffffffffffffffffffffff16600073ffffffffffffffffffffffffffffffffffffffff167fddf252ad1be2c89b69c2b068fc378daa952ba7f163c4a11628f55a4df523b3ef60405160405180910390a45050565b600080823b905060008111915050919050565b505050565b6008805490506009600083815260200190815260200160002081905550600881908060018154018082558091505060019003906000526020600020016000909190919091505550565b6000600161372f846116a2565b6137399190614abf565b905060006007600084815260200190815260200160002054905081811461381e576000600660008673ffffffffffffffffffffffffffffffffffffffff1673ffffffffffffffffffffffffffffffffffffffff168152602001908152602001600020600084815260200190815260200160002054905080600660008773ffffffffffffffffffffffffffffffffffffffff1673ffffffffffffffffffffffffffffffffffffffff168152602001908152602001600020600084815260200190815260200160002081905550816007600083815260200190815260200160002081905550505b6007600084815260200190815260200160002060009055600660008573ffffffffffffffffffffffffffffffffffffffff1673ffffffffffffffffffffffffffffffffffffffff16815260200190815260200160002060008381526020019081526020016000206000905550505050565b600060016008805490506138a39190614abf565b90506000600960008481526020019081526020016000205490506000600883815481106138f9577f4e487b7100000000000000000000000000000000000000000000000000000000600052603260045260246000fd5b906000526020600020015490508060088381548110613941577f4e487b7100000000000000000000000000000000000000000000000000000000600052603260045260246000fd5b9060005260206000200181905550816009600083815260200190815260200160002081905550600960008581526020019081526020016000206000905560088054806139b6577f4e487b7100000000000000000000000000000000000000000000000000000000600052603160045260246000fd5b6001900381819060005260206000200160009055905550505050565b60006139dd836116a2565b905081600660008573ffffffffffffffffffffffffffffffffffffffff1673ffffffffffffffffffffffffffffffffffffffff168152602001908152602001600020600083815260200190815260200160002081905550806007600084815260200190815260200160002081905550505050565b828054613a5d90614bce565b90600052602060002090601f016020900481019282613a7f5760008555613ac6565b82601f10613a9857805160ff1916838001178555613ac6565b82800160010185558215613ac6579182015b82811115613ac5578251825591602001919060010190613aaa565b5b509050613ad39190613ad7565b5090565b5b80821115613af0576000816000905550600101613ad8565b5090565b6000613b07613b02846148d4565b6148af565b90508083825260208201905082856020860282011115613b2657600080fd5b60005b85811015613b565781613b3c8882613bdc565b845260208401935060208301925050600181019050613b29565b5050509392505050565b6000613b73613b6e84614900565b6148af565b905082815260208101848484011115613b8b57600080fd5b613b96848285614b8c565b509392505050565b6000613bb1613bac84614931565b6148af565b905082815260208101848484011115613bc957600080fd5b613bd4848285614b8c565b509392505050565b600081359050613beb816153f0565b92915050565b600082601f830112613c0257600080fd5b8135613c12848260208601613af4565b91505092915050565b600081359050613c2a81615407565b92915050565b600081359050613c3f8161541e565b92915050565b600081519050613c548161541e565b92915050565b600082601f830112613c6b57600080fd5b8135613c7b848260208601613b60565b91505092915050565b600082601f830112613c9557600080fd5b8135613ca5848260208601613b9e565b91505092915050565b600081359050613cbd81615435565b92915050565b600060208284031215613cd557600080fd5b6000613ce384828501613bdc565b91505092915050565b60008060408385031215613cff57600080fd5b6000613d0d85828601613bdc565b9250506020613d1e85828601613bdc565b9150509250929050565b600080600060608486031215613d3d57600080fd5b6000613d4b86828701613bdc565b9350506020613d5c86828701613bdc565b9250506040613d6d86828701613cae565b9150509250925092565b60008060008060808587031215613d8d57600080fd5b6000613d9b87828801613bdc565b9450506020613dac87828801613bdc565b9350506040613dbd87828801613cae565b925050606085013567ffffffffffffffff811115613dda57600080fd5b613de687828801613c5a565b91505092959194509250565b60008060408385031215613e0557600080fd5b6000613e1385828601613bdc565b9250506020613e2485828601613c1b565b9150509250929050565b60008060408385031215613e4157600080fd5b6000613e4f85828601613bdc565b9250506020613e6085828601613cae565b9150509250929050565b600060208284031215613e7c57600080fd5b600082013567ffffffffffffffff811115613e9657600080fd5b613ea284828501613bf1565b91505092915050565b600060208284031215613ebd57600080fd5b6000613ecb84828501613c30565b91505092915050565b600060208284031215613ee657600080fd5b6000613ef484828501613c45565b91505092915050565b600060208284031215613f0f57600080fd5b600082013567ffffffffffffffff811115613f2957600080fd5b613f3584828501613c84565b91505092915050565b600060208284031215613f5057600080fd5b6000613f5e84828501613cae565b91505092915050565b60008060408385031215613f7a57600080fd5b6000613f8885828601613cae565b9250506020613f9985828601613cae565b9150509250929050565b6000613faf838361440e565b60208301905092915050565b613fc481614af3565b82525050565b6000613fd582614972565b613fdf81856149a0565b9350613fea83614962565b8060005b8381101561401b5781516140028882613fa3565b975061400d83614993565b925050600181019050613fee565b5085935050505092915050565b61403181614b05565b82525050565b60006140428261497d565b61404c81856149b1565b935061405c818560208601614b9b565b61406581614d96565b840191505092915050565b61407981614b7a565b82525050565b600061408a82614988565b61409481856149c2565b93506140a4818560208601614b9b565b6140ad81614d96565b840191505092915050565b60006140c382614988565b6140cd81856149d3565b93506140dd818560208601614b9b565b80840191505092915050565b60006140f66014836149c2565b915061410182614da7565b602082019050919050565b6000614119602b836149c2565b915061412482614dd0565b604082019050919050565b600061413c6032836149c2565b915061414782614e1f565b604082019050919050565b600061415f6026836149c2565b915061416a82614e6e565b604082019050919050565b6000614182601c836149c2565b915061418d82614ebd565b602082019050919050565b60006141a56024836149c2565b91506141b082614ee6565b604082019050919050565b60006141c86019836149c2565b91506141d382614f35565b602082019050919050565b60006141eb6025836149c2565b91506141f682614f5e565b604082019050919050565b600061420e602c836149c2565b915061421982614fad565b604082019050919050565b60006142316010836149c2565b915061423c82614ffc565b602082019050919050565b6000614254602c836149c2565b915061425f82615025565b604082019050919050565b60006142776038836149c2565b915061428282615074565b604082019050919050565b600061429a602a836149c2565b91506142a5826150c3565b604082019050919050565b60006142bd6029836149c2565b91506142c882615112565b604082019050919050565b60006142e06035836149c2565b91506142eb82615161565b604082019050919050565b60006143036020836149c2565b915061430e826151b0565b602082019050919050565b6000614326602c836149c2565b9150614331826151d9565b604082019050919050565b60006143496020836149c2565b915061435482615228565b602082019050919050565b600061436c6029836149c2565b915061437782615251565b604082019050919050565b600061438f602f836149c2565b915061439a826152a0565b604082019050919050565b60006143b26021836149c2565b91506143bd826152ef565b604082019050919050565b60006143d56031836149c2565b91506143e08261533e565b604082019050919050565b60006143f8602c836149c2565b91506144038261538d565b604082019050919050565b61441781614b70565b82525050565b61442681614b70565b82525050565b600061443882856140b8565b915061444482846140b8565b91508190509392505050565b60006020820190506144656000830184613fbb565b92915050565b60006080820190506144806000830187613fbb565b61448d6020830186613fbb565b61449a604083018561441d565b81810360608301526144ac8184614037565b905095945050505050565b600060208201905081810360008301526144d18184613fca565b905092915050565b60006020820190506144ee6000830184614028565b92915050565b60006020820190506145096000830184614070565b92915050565b60006020820190508181036000830152614529818461407f565b905092915050565b6000602082019050818103600083015261454a816140e9565b9050919050565b6000602082019050818103600083015261456a8161410c565b9050919050565b6000602082019050818103600083015261458a8161412f565b9050919050565b600060208201905081810360008301526145aa81614152565b9050919050565b600060208201905081810360008301526145ca81614175565b9050919050565b600060208201905081810360008301526145ea81614198565b9050919050565b6000602082019050818103600083015261460a816141bb565b9050919050565b6000602082019050818103600083015261462a816141de565b9050919050565b6000602082019050818103600083015261464a81614201565b9050919050565b6000602082019050818103600083015261466a81614224565b9050919050565b6000602082019050818103600083015261468a81614247565b9050919050565b600060208201905081810360008301526146aa8161426a565b9050919050565b600060208201905081810360008301526146ca8161428d565b9050919050565b600060208201905081810360008301526146ea816142b0565b9050919050565b6000602082019050818103600083015261470a816142d3565b9050919050565b6000602082019050818103600083015261472a816142f6565b9050919050565b6000602082019050818103600083015261474a81614319565b9050919050565b6000602082019050818103600083015261476a8161433c565b9050919050565b6000602082019050818103600083015261478a8161435f565b9050919050565b600060208201905081810360008301526147aa81614382565b9050919050565b600060208201905081810360008301526147ca816143a5565b9050919050565b600060208201905081810360008301526147ea816143c8565b9050919050565b6000602082019050818103600083015261480a816143eb565b9050919050565b6000602082019050614826600083018461441d565b92915050565b600060a082019050614841600083018861441d565b8181036020830152614853818761407f565b9050614862604083018661441d565b61486f606083018561441d565b61487c6080830184614070565b9695505050505050565b600060408201905061489b600083018561441d565b6148a8602083018461441d565b9392505050565b60006148b96148ca565b90506148c58282614c00565b919050565b6000604051905090565b600067ffffffffffffffff8211156148ef576148ee614d67565b5b602082029050602081019050919050565b600067ffffffffffffffff82111561491b5761491a614d67565b5b61492482614d96565b9050602081019050919050565b600067ffffffffffffffff82111561494c5761494b614d67565b5b61495582614d96565b9050602081019050919050565b6000819050602082019050919050565b600081519050919050565b600081519050919050565b600081519050919050565b6000602082019050919050565b600082825260208201905092915050565b600082825260208201905092915050565b600082825260208201905092915050565b600081905092915050565b60006149e982614b70565b91506149f483614b70565b9250827fffffffffffffffffffffffffffffffffffffffffffffffffffffffffffffffff03821115614a2957614a28614cab565b5b828201905092915050565b6000614a3f82614b70565b9150614a4a83614b70565b925082614a5a57614a59614cda565b5b828204905092915050565b6000614a7082614b70565b9150614a7b83614b70565b9250817fffffffffffffffffffffffffffffffffffffffffffffffffffffffffffffffff0483118215151615614ab457614ab3614cab565b5b828202905092915050565b6000614aca82614b70565b9150614ad583614b70565b925082821015614ae857614ae7614cab565b5b828203905092915050565b6000614afe82614b50565b9050919050565b60008115159050919050565b60007fffffffff0000000000000000000000000000000000000000000000000000000082169050919050565b6000819050614b4b826153dc565b919050565b600073ffffffffffffffffffffffffffffffffffffffff82169050919050565b6000819050919050565b6000614b8582614b3d565b9050919050565b82818337600083830152505050565b60005b83811015614bb9578082015181840152602081019050614b9e565b83811115614bc8576000848401525b50505050565b60006002820490506001821680614be657607f821691505b60208210811415614bfa57614bf9614d38565b5b50919050565b614c0982614d96565b810181811067ffffffffffffffff82111715614c2857614c27614d67565b5b80604052505050565b6000614c3c82614b70565b91507fffffffffffffffffffffffffffffffffffffffffffffffffffffffffffffffff821415614c6f57614c6e614cab565b5b600182019050919050565b6000614c8582614b70565b9150614c9083614b70565b925082614ca057614c9f614cda565b5b828206905092915050565b7f4e487b7100000000000000000000000000000000000000000000000000000000600052601160045260246000fd5b7f4e487b7100000000000000000000000000000000000000000000000000000000600052601260045260246000fd5b7f4e487b7100000000000000000000000000000000000000000000000000000000600052602160045260246000fd5b7f4e487b7100000000000000000000000000000000000000000000000000000000600052602260045260246000fd5b7f4e487b7100000000000000000000000000000000000000000000000000000000600052604160045260246000fd5b6000601f19601f8301169050919050565b7f5061757361626c653a206e6f7420706175736564000000000000000000000000600082015250565b7f455243373231456e756d657261626c653a206f776e657220696e646578206f7560008201527f74206f6620626f756e6473000000000000000000000000000000000000000000602082015250565b7f4552433732313a207472616e7366657220746f206e6f6e20455243373231526560008201527f63656976657220696d706c656d656e7465720000000000000000000000000000602082015250565b7f4f776e61626c653a206e6577206f776e657220697320746865207a65726f206160008201527f6464726573730000000000000000000000000000000000000000000000000000602082015250565b7f4552433732313a20746f6b656e20616c7265616479206d696e74656400000000600082015250565b7f4552433732313a207472616e7366657220746f20746865207a65726f2061646460008201527f7265737300000000000000000000000000000000000000000000000000000000602082015250565b7f4552433732313a20617070726f766520746f2063616c6c657200000000000000600082015250565b7f54686520726f626f742073616c65206973206e6f742063757272656e746c792060008201527f6f70656e2e000000000000000000000000000000000000000000000000000000602082015250565b7f4552433732313a206f70657261746f7220717565727920666f72206e6f6e657860008201527f697374656e7420746f6b656e0000000000000000000000000000000000000000602082015250565b7f5061757361626c653a2070617573656400000000000000000000000000000000600082015250565b7f4578636565647320746865206d617820746f6b656e20706572207472616e736160008201527f6374696f6e206c696d69742e0000000000000000000000000000000000000000602082015250565b7f4552433732313a20617070726f76652063616c6c6572206973206e6f74206f7760008201527f6e6572206e6f7220617070726f76656420666f7220616c6c0000000000000000602082015250565b7f4552433732313a2062616c616e636520717565727920666f7220746865207a6560008201527f726f206164647265737300000000000000000000000000000000000000000000602082015250565b7f4552433732313a206f776e657220717565727920666f72206e6f6e657869737460008201527f656e7420746f6b656e0000000000000000000000000000000000000000000000602082015250565b7f5468652076616c7565207375626d69747465642077697468207468697320747260008201527f616e73616374696f6e20697320746f6f206c6f772e0000000000000000000000602082015250565b7f4552433732313a206d696e7420746f20746865207a65726f2061646472657373600082015250565b7f4552433732313a20617070726f76656420717565727920666f72206e6f6e657860008201527f697374656e7420746f6b656e0000000000000000000000000000000000000000602082015250565b7f4f776e61626c653a2063616c6c6572206973206e6f7420746865206f776e6572600082015250565b7f4552433732313a207472616e73666572206f6620746f6b656e2074686174206960008201527f73206e6f74206f776e0000000000000000000000000000000000000000000000602082015250565b7f4552433732314d657461646174613a2055524920717565727920666f72206e6f60008201527f6e6578697374656e7420746f6b656e0000000000000000000000000000000000602082015250565b7f4552433732313a20617070726f76616c20746f2063757272656e74206f776e6560008201527f7200000000000000000000000000000000000000000000000000000000000000602082015250565b7f4552433732313a207472616e736665722063616c6c6572206973206e6f74206f60008201527f776e6572206e6f7220617070726f766564000000000000000000000000000000602082015250565b7f455243373231456e756d657261626c653a20676c6f62616c20696e646578206f60008201527f7574206f6620626f756e64730000000000000000000000000000000000000000602082015250565b600381106153ed576153ec614d09565b5b50565b6153f981614af3565b811461540457600080fd5b50565b61541081614b05565b811461541b57600080fd5b50565b61542781614b11565b811461543257600080fd5b50565b61543e81614b70565b811461544957600080fd5b5056fea26469706673582212202d9bd39f1ca9cc33335e03e91873c366463ece2645d713d6acb283621b5053d164736f6c63430008020033",
  "immutableReferences": {},
  "source": "// contracts/Robot.sol\n// SPDX-License-Identifier: MIT\npragma solidity ^0.8.2;\n\nimport \"@openzeppelin/contracts/token/ERC721/ERC721.sol\";\nimport \"@openzeppelin/contracts/token/ERC721/extensions/ERC721Enumerable.sol\";\nimport \"@openzeppelin/contracts/token/ERC1155/IERC1155.sol\";\nimport \"@openzeppelin/contracts/utils/math/SafeMath.sol\";\n// import \"@openzeppelin/contracts/access/Ownable.sol\";\nimport \"@openzeppelin/contracts/security/Pausable.sol\";\nimport \"./Whitelist.sol\";\n\ncontract Robot is ERC721, ERC721Enumerable, Pausable, Whitelist {\n\n    using SafeMath for uint256;\n\n    uint256 private _saleTime = 1634451621; // 7PM EDT on November 1st\n    uint256 private _price = 8 * 10**16; // .08 eth\n\n    string private _baseTokenURI;\n\n    // Address where funds are collected\n    address payable private _wallet;\n\n    // The robot accessory contract\n    IERC1155 private _accessory;\n\n    mapping(uint256 => RobotAttributes) public robots;\n\n    enum State {\n        Fighter, // 0\n        Trainer, // 1\n        Retired // 2\n    }\n\n    State constant defaultState = State.Fighter;\n\n    struct RobotAttributes {\n        uint256 robotIndex;\n        string imageURI;\n        uint256 wins;\n        uint256 losses;\n        State state;\n    }\n\n    constructor(string memory baseURI, address payable wallet) ERC721(\"Robot\", \"RBT\") {\n        setBaseURI(baseURI);\n        _wallet = wallet;\n    }\n\n    function pause() public onlyOwner {\n        _pause();\n    }\n\n    function unpause() public onlyOwner {\n        _unpause();\n    }\n\n    function setSaleTime(uint256 time) public onlyOwner {\n        _saleTime = time;\n    }\n\n    function getSaleTime() public view returns (uint256) {\n        return _saleTime;\n    }\n\n    function isSaleOpen() public view returns (bool) {\n        return block.timestamp >= _saleTime;\n    }\n\n    function setBaseURI(string memory baseURI) public onlyOwner {\n        _baseTokenURI = baseURI;\n    }\n\n    function _baseURI() internal view virtual override returns (string memory) {\n        return _baseTokenURI;\n    }\n\n    function _beforeTokenTransfer(address from, address to, uint256 tokenId)\n        internal\n        whenNotPaused\n        override(ERC721, ERC721Enumerable)\n    {\n        super._beforeTokenTransfer(from, to, tokenId);\n    }\n\n   // The following function override required by Solidity.\n    function supportsInterface(bytes4 interfaceId)\n        public\n        view\n        override(ERC721, ERC721Enumerable)\n        returns (bool)\n    {\n        return super.supportsInterface(interfaceId);\n    }\n\n    function _createRobot(uint256 index) internal {\n        robots[index] = RobotAttributes({\n            robotIndex: index,\n            imageURI: \" \",\n            wins: 0,\n            losses: 0,\n            state: defaultState\n        });\n    }\n\n    // Count is how many they want to mint\n    function mint(uint256 _count) public whenNotPaused payable {\n        uint256 totalSupply = totalSupply();\n        require(_count < 21, \"Exceeds the max token per transaction limit.\");\n        require(\n            msg.value >= _price * _count,\n            \"The value submitted with this transaction is too low.\"\n        );\n        require(\n            block.timestamp >= _saleTime,\n            \"The robot sale is not currently open.\"\n        );\n\n        for (uint256 i; i < _count; i++) {\n            uint256 index = totalSupply + i;\n            _createRobot(index);\n            _safeMint(msg.sender, index);\n        }\n    }\n\n    function updateRobotsRecords(uint256 winningRobotIndex, uint256 losingRobotIndex) public whenNotPaused onlyWhitelisted {\n        robots[winningRobotIndex].wins += 1;\n        robots[losingRobotIndex].losses += 1;\n    }\n\n    function setRobotAsFighter(uint256 robotIndex) public whenNotPaused onlyOwner {\n        robots[robotIndex].state = State.Fighter;\n    }\n\n    function setRobotAsTrainer(uint256 robotIndex) public whenNotPaused onlyOwner {\n        robots[robotIndex].state = State.Trainer;\n    }\n\n    function setRobotAsRetired(uint256 robotIndex) public whenNotPaused onlyOwner {\n        robots[robotIndex].state = State.Retired;\n    }\n\n    function getRobotRecord(uint256 robotIndex) public view returns(uint256, uint256) {\n        return(robots[robotIndex].wins, robots[robotIndex].losses);\n    }\n\n    function getRobotState(uint256 robotIndex) public view returns(State) {\n        return robots[robotIndex].state;\n    }\n\n    function walletOfOwner(address _owner)\n        public\n        view\n        returns (uint256[] memory)\n    {\n        uint256 tokenCount = balanceOf(_owner);\n\n        if (tokenCount == 0) {\n            // Return an empty array\n            return new uint256[](0);\n        }\n\n        uint256[] memory tokensId = new uint256[](tokenCount);\n        for (uint256 i; i < tokenCount; i++) {\n            tokensId[i] = tokenOfOwnerByIndex(_owner, i);\n        }\n        return tokensId;\n    }\n\n    function withdrawAll() public payable onlyOwner {\n        require(_wallet.send(address(this).balance));\n    }\n}\n",
  "sourcePath": "/home/seandevs/workspaces/celo-hackathon/nfts/robots/contracts/Robot.sol",
  "compiler": {
    "name": "solc",
    "version": "0.8.2+commit.661d1103.Emscripten.clang"
  },
  "schemaVersion": "3.4.1",
  "updatedAt": "2021-11-02T17:44:46.920Z",
  "networkType": "ethereum",
  "devdoc": {
    "kind": "dev",
    "methods": {
      "approve(address,uint256)": {
        "details": "See {IERC721-approve}."
      },
      "balanceOf(address)": {
        "details": "See {IERC721-balanceOf}."
      },
      "getApproved(uint256)": {
        "details": "See {IERC721-getApproved}."
      },
      "isApprovedForAll(address,address)": {
        "details": "See {IERC721-isApprovedForAll}."
      },
      "name()": {
        "details": "See {IERC721Metadata-name}."
      },
      "owner()": {
        "details": "Returns the address of the current owner."
      },
      "ownerOf(uint256)": {
        "details": "See {IERC721-ownerOf}."
      },
      "paused()": {
        "details": "Returns true if the contract is paused, and false otherwise."
      },
      "renounceOwnership()": {
        "details": "Leaves the contract without owner. It will not be possible to call `onlyOwner` functions anymore. Can only be called by the current owner. NOTE: Renouncing ownership will leave the contract without an owner, thereby removing any functionality that is only available to the owner."
      },
      "safeTransferFrom(address,address,uint256)": {
        "details": "See {IERC721-safeTransferFrom}."
      },
      "safeTransferFrom(address,address,uint256,bytes)": {
        "details": "See {IERC721-safeTransferFrom}."
      },
      "setApprovalForAll(address,bool)": {
        "details": "See {IERC721-setApprovalForAll}."
      },
      "symbol()": {
        "details": "See {IERC721Metadata-symbol}."
      },
      "tokenByIndex(uint256)": {
        "details": "See {IERC721Enumerable-tokenByIndex}."
      },
      "tokenOfOwnerByIndex(address,uint256)": {
        "details": "See {IERC721Enumerable-tokenOfOwnerByIndex}."
      },
      "tokenURI(uint256)": {
        "details": "See {IERC721Metadata-tokenURI}."
      },
      "totalSupply()": {
        "details": "See {IERC721Enumerable-totalSupply}."
      },
      "transferFrom(address,address,uint256)": {
        "details": "See {IERC721-transferFrom}."
      },
      "transferOwnership(address)": {
        "details": "Transfers ownership of the contract to a new account (`newOwner`). Can only be called by the current owner."
      }
    },
    "version": 1
  },
  "userdoc": {
    "kind": "user",
    "methods": {},
    "version": 1
  }
}