{
  "contractName": "Robot",
  "abi": [
    {
      "inputs": [
        {
          "internalType": "string",
          "name": "baseURI",
          "type": "string"
        },
        {
          "internalType": "address payable",
          "name": "wallet",
          "type": "address"
        }
      ],
      "stateMutability": "nonpayable",
      "type": "constructor"
    },
    {
      "anonymous": false,
      "inputs": [
        {
          "indexed": true,
          "internalType": "address",
          "name": "owner",
          "type": "address"
        },
        {
          "indexed": true,
          "internalType": "address",
          "name": "approved",
          "type": "address"
        },
        {
          "indexed": true,
          "internalType": "uint256",
          "name": "tokenId",
          "type": "uint256"
        }
      ],
      "name": "Approval",
      "type": "event"
    },
    {
      "anonymous": false,
      "inputs": [
        {
          "indexed": true,
          "internalType": "address",
          "name": "owner",
          "type": "address"
        },
        {
          "indexed": true,
          "internalType": "address",
          "name": "operator",
          "type": "address"
        },
        {
          "indexed": false,
          "internalType": "bool",
          "name": "approved",
          "type": "bool"
        }
      ],
      "name": "ApprovalForAll",
      "type": "event"
    },
    {
      "anonymous": false,
      "inputs": [
        {
          "indexed": true,
          "internalType": "address",
          "name": "previousOwner",
          "type": "address"
        },
        {
          "indexed": true,
          "internalType": "address",
          "name": "newOwner",
          "type": "address"
        }
      ],
      "name": "OwnershipTransferred",
      "type": "event"
    },
    {
      "anonymous": false,
      "inputs": [
        {
          "indexed": false,
          "internalType": "address",
          "name": "account",
          "type": "address"
        }
      ],
      "name": "Paused",
      "type": "event"
    },
    {
      "anonymous": false,
      "inputs": [
        {
          "indexed": true,
          "internalType": "address",
          "name": "from",
          "type": "address"
        },
        {
          "indexed": true,
          "internalType": "address",
          "name": "to",
          "type": "address"
        },
        {
          "indexed": true,
          "internalType": "uint256",
          "name": "tokenId",
          "type": "uint256"
        }
      ],
      "name": "Transfer",
      "type": "event"
    },
    {
      "anonymous": false,
      "inputs": [
        {
          "indexed": false,
          "internalType": "address",
          "name": "account",
          "type": "address"
        }
      ],
      "name": "Unpaused",
      "type": "event"
    },
    {
      "anonymous": false,
      "inputs": [
        {
          "indexed": false,
          "internalType": "address",
          "name": "addr",
          "type": "address"
        }
      ],
      "name": "WhitelistedAddressAdded",
      "type": "event"
    },
    {
      "anonymous": false,
      "inputs": [
        {
          "indexed": false,
          "internalType": "address",
          "name": "addr",
          "type": "address"
        }
      ],
      "name": "WhitelistedAddressRemoved",
      "type": "event"
    },
    {
      "inputs": [],
      "name": "ROBOT_PRICE",
      "outputs": [
        {
          "internalType": "uint256",
          "name": "",
          "type": "uint256"
        }
      ],
      "stateMutability": "view",
      "type": "function",
      "constant": true
    },
    {
      "inputs": [
        {
          "internalType": "address",
          "name": "addr",
          "type": "address"
        }
      ],
      "name": "addAddressToWhitelist",
      "outputs": [
        {
          "internalType": "bool",
          "name": "success",
          "type": "bool"
        }
      ],
      "stateMutability": "nonpayable",
      "type": "function"
    },
    {
      "inputs": [
        {
          "internalType": "address[]",
          "name": "addrs",
          "type": "address[]"
        }
      ],
      "name": "addAddressesToWhitelist",
      "outputs": [
        {
          "internalType": "bool",
          "name": "success",
          "type": "bool"
        }
      ],
      "stateMutability": "nonpayable",
      "type": "function"
    },
    {
      "inputs": [
        {
          "internalType": "address",
          "name": "to",
          "type": "address"
        },
        {
          "internalType": "uint256",
          "name": "tokenId",
          "type": "uint256"
        }
      ],
      "name": "approve",
      "outputs": [],
      "stateMutability": "nonpayable",
      "type": "function"
    },
    {
      "inputs": [
        {
          "internalType": "address",
          "name": "owner",
          "type": "address"
        }
      ],
      "name": "balanceOf",
      "outputs": [
        {
          "internalType": "uint256",
          "name": "",
          "type": "uint256"
        }
      ],
      "stateMutability": "view",
      "type": "function",
      "constant": true
    },
    {
      "inputs": [
        {
          "internalType": "uint256",
          "name": "tokenId",
          "type": "uint256"
        }
      ],
      "name": "getApproved",
      "outputs": [
        {
          "internalType": "address",
          "name": "",
          "type": "address"
        }
      ],
      "stateMutability": "view",
      "type": "function",
      "constant": true
    },
    {
      "inputs": [
        {
          "internalType": "address",
          "name": "owner",
          "type": "address"
        },
        {
          "internalType": "address",
          "name": "operator",
          "type": "address"
        }
      ],
      "name": "isApprovedForAll",
      "outputs": [
        {
          "internalType": "bool",
          "name": "",
          "type": "bool"
        }
      ],
      "stateMutability": "view",
      "type": "function",
      "constant": true
    },
    {
      "inputs": [],
      "name": "name",
      "outputs": [
        {
          "internalType": "string",
          "name": "",
          "type": "string"
        }
      ],
      "stateMutability": "view",
      "type": "function",
      "constant": true
    },
    {
      "inputs": [],
      "name": "owner",
      "outputs": [
        {
          "internalType": "address",
          "name": "",
          "type": "address"
        }
      ],
      "stateMutability": "view",
      "type": "function",
      "constant": true
    },
    {
      "inputs": [
        {
          "internalType": "uint256",
          "name": "tokenId",
          "type": "uint256"
        }
      ],
      "name": "ownerOf",
      "outputs": [
        {
          "internalType": "address",
          "name": "",
          "type": "address"
        }
      ],
      "stateMutability": "view",
      "type": "function",
      "constant": true
    },
    {
      "inputs": [],
      "name": "paused",
      "outputs": [
        {
          "internalType": "bool",
          "name": "",
          "type": "bool"
        }
      ],
      "stateMutability": "view",
      "type": "function",
      "constant": true
    },
    {
      "inputs": [
        {
          "internalType": "address",
          "name": "addr",
          "type": "address"
        }
      ],
      "name": "removeAddressFromWhitelist",
      "outputs": [
        {
          "internalType": "bool",
          "name": "success",
          "type": "bool"
        }
      ],
      "stateMutability": "nonpayable",
      "type": "function"
    },
    {
      "inputs": [
        {
          "internalType": "address[]",
          "name": "addrs",
          "type": "address[]"
        }
      ],
      "name": "removeAddressesFromWhitelist",
      "outputs": [
        {
          "internalType": "bool",
          "name": "success",
          "type": "bool"
        }
      ],
      "stateMutability": "nonpayable",
      "type": "function"
    },
    {
      "inputs": [],
      "name": "renounceOwnership",
      "outputs": [],
      "stateMutability": "nonpayable",
      "type": "function"
    },
    {
      "inputs": [
        {
          "internalType": "uint256",
          "name": "",
          "type": "uint256"
        }
      ],
      "name": "robots",
      "outputs": [
        {
          "internalType": "uint256",
          "name": "robotIndex",
          "type": "uint256"
        },
        {
          "internalType": "uint256",
          "name": "wins",
          "type": "uint256"
        },
        {
          "internalType": "uint256",
          "name": "losses",
          "type": "uint256"
        },
        {
          "internalType": "enum Robot.State",
          "name": "state",
          "type": "uint8"
        },
        {
          "internalType": "string",
          "name": "robotName",
          "type": "string"
        },
        {
          "internalType": "string",
          "name": "robotType",
          "type": "string"
        },
        {
          "internalType": "uint256",
          "name": "health",
          "type": "uint256"
        },
        {
          "internalType": "uint256",
          "name": "strength",
          "type": "uint256"
        },
        {
          "internalType": "uint256",
          "name": "agility",
          "type": "uint256"
        },
        {
          "internalType": "uint256",
          "name": "ai",
          "type": "uint256"
        },
        {
          "internalType": "uint256",
          "name": "defense",
          "type": "uint256"
        }
      ],
      "stateMutability": "view",
      "type": "function",
      "constant": true
    },
    {
      "inputs": [
        {
          "internalType": "address",
          "name": "from",
          "type": "address"
        },
        {
          "internalType": "address",
          "name": "to",
          "type": "address"
        },
        {
          "internalType": "uint256",
          "name": "tokenId",
          "type": "uint256"
        }
      ],
      "name": "safeTransferFrom",
      "outputs": [],
      "stateMutability": "nonpayable",
      "type": "function"
    },
    {
      "inputs": [
        {
          "internalType": "address",
          "name": "from",
          "type": "address"
        },
        {
          "internalType": "address",
          "name": "to",
          "type": "address"
        },
        {
          "internalType": "uint256",
          "name": "tokenId",
          "type": "uint256"
        },
        {
          "internalType": "bytes",
          "name": "_data",
          "type": "bytes"
        }
      ],
      "name": "safeTransferFrom",
      "outputs": [],
      "stateMutability": "nonpayable",
      "type": "function"
    },
    {
      "inputs": [
        {
          "internalType": "address",
          "name": "operator",
          "type": "address"
        },
        {
          "internalType": "bool",
          "name": "approved",
          "type": "bool"
        }
      ],
      "name": "setApprovalForAll",
      "outputs": [],
      "stateMutability": "nonpayable",
      "type": "function"
    },
    {
      "inputs": [],
      "name": "symbol",
      "outputs": [
        {
          "internalType": "string",
          "name": "",
          "type": "string"
        }
      ],
      "stateMutability": "view",
      "type": "function",
      "constant": true
    },
    {
      "inputs": [
        {
          "internalType": "uint256",
          "name": "index",
          "type": "uint256"
        }
      ],
      "name": "tokenByIndex",
      "outputs": [
        {
          "internalType": "uint256",
          "name": "",
          "type": "uint256"
        }
      ],
      "stateMutability": "view",
      "type": "function",
      "constant": true
    },
    {
      "inputs": [
        {
          "internalType": "address",
          "name": "owner",
          "type": "address"
        },
        {
          "internalType": "uint256",
          "name": "index",
          "type": "uint256"
        }
      ],
      "name": "tokenOfOwnerByIndex",
      "outputs": [
        {
          "internalType": "uint256",
          "name": "",
          "type": "uint256"
        }
      ],
      "stateMutability": "view",
      "type": "function",
      "constant": true
    },
    {
      "inputs": [],
      "name": "totalSupply",
      "outputs": [
        {
          "internalType": "uint256",
          "name": "",
          "type": "uint256"
        }
      ],
      "stateMutability": "view",
      "type": "function",
      "constant": true
    },
    {
      "inputs": [
        {
          "internalType": "address",
          "name": "from",
          "type": "address"
        },
        {
          "internalType": "address",
          "name": "to",
          "type": "address"
        },
        {
          "internalType": "uint256",
          "name": "tokenId",
          "type": "uint256"
        }
      ],
      "name": "transferFrom",
      "outputs": [],
      "stateMutability": "nonpayable",
      "type": "function"
    },
    {
      "inputs": [
        {
          "internalType": "address",
          "name": "newOwner",
          "type": "address"
        }
      ],
      "name": "transferOwnership",
      "outputs": [],
      "stateMutability": "nonpayable",
      "type": "function"
    },
    {
      "inputs": [
        {
          "internalType": "address",
          "name": "",
          "type": "address"
        }
      ],
      "name": "whitelist",
      "outputs": [
        {
          "internalType": "bool",
          "name": "",
          "type": "bool"
        }
      ],
      "stateMutability": "view",
      "type": "function",
      "constant": true
    },
    {
      "inputs": [],
      "name": "pause",
      "outputs": [],
      "stateMutability": "nonpayable",
      "type": "function"
    },
    {
      "inputs": [],
      "name": "unpause",
      "outputs": [],
      "stateMutability": "nonpayable",
      "type": "function"
    },
    {
      "inputs": [
        {
          "internalType": "string",
          "name": "baseURI",
          "type": "string"
        }
      ],
      "name": "setBaseURI",
      "outputs": [],
      "stateMutability": "nonpayable",
      "type": "function"
    },
    {
      "inputs": [
        {
          "internalType": "uint256",
          "name": "tokenId",
          "type": "uint256"
        }
      ],
      "name": "tokenURI",
      "outputs": [
        {
          "internalType": "string",
          "name": "",
          "type": "string"
        }
      ],
      "stateMutability": "view",
      "type": "function",
      "constant": true
    },
    {
      "inputs": [
        {
          "internalType": "bytes4",
          "name": "interfaceId",
          "type": "bytes4"
        }
      ],
      "name": "supportsInterface",
      "outputs": [
        {
          "internalType": "bool",
          "name": "",
          "type": "bool"
        }
      ],
      "stateMutability": "view",
      "type": "function",
      "constant": true
    },
    {
      "inputs": [
        {
          "internalType": "uint256",
          "name": "botType",
          "type": "uint256"
        },
        {
          "internalType": "string",
          "name": "robotName",
          "type": "string"
        }
      ],
      "name": "mint",
      "outputs": [],
      "stateMutability": "payable",
      "type": "function",
      "payable": true
    },
    {
      "inputs": [
        {
          "internalType": "uint256",
          "name": "winningRobotIndex",
          "type": "uint256"
        },
        {
          "internalType": "uint256",
          "name": "losingRobotIndex",
          "type": "uint256"
        }
      ],
      "name": "updateRobotsRecords",
      "outputs": [],
      "stateMutability": "nonpayable",
      "type": "function"
    },
    {
      "inputs": [
        {
          "internalType": "uint256",
          "name": "robotIndex",
          "type": "uint256"
        },
        {
          "internalType": "string",
          "name": "value",
          "type": "string"
        }
      ],
      "name": "updateRobotName",
      "outputs": [],
      "stateMutability": "nonpayable",
      "type": "function"
    },
    {
      "inputs": [
        {
          "internalType": "uint256",
          "name": "robotIndex",
          "type": "uint256"
        },
        {
          "internalType": "uint256",
          "name": "value",
          "type": "uint256"
        }
      ],
      "name": "updateRobotHealth",
      "outputs": [],
      "stateMutability": "nonpayable",
      "type": "function"
    },
    {
      "inputs": [
        {
          "internalType": "uint256",
          "name": "robotIndex",
          "type": "uint256"
        },
        {
          "internalType": "uint256",
          "name": "value",
          "type": "uint256"
        }
      ],
      "name": "updateRobotStrength",
      "outputs": [],
      "stateMutability": "nonpayable",
      "type": "function"
    },
    {
      "inputs": [
        {
          "internalType": "uint256",
          "name": "robotIndex",
          "type": "uint256"
        },
        {
          "internalType": "uint256",
          "name": "value",
          "type": "uint256"
        }
      ],
      "name": "updateRobotAgility",
      "outputs": [],
      "stateMutability": "nonpayable",
      "type": "function"
    },
    {
      "inputs": [
        {
          "internalType": "uint256",
          "name": "robotIndex",
          "type": "uint256"
        },
        {
          "internalType": "uint256",
          "name": "value",
          "type": "uint256"
        }
      ],
      "name": "updateRobotAi",
      "outputs": [],
      "stateMutability": "nonpayable",
      "type": "function"
    },
    {
      "inputs": [
        {
          "internalType": "uint256",
          "name": "robotIndex",
          "type": "uint256"
        },
        {
          "internalType": "uint256",
          "name": "value",
          "type": "uint256"
        }
      ],
      "name": "updateRobotDefense",
      "outputs": [],
      "stateMutability": "nonpayable",
      "type": "function"
    },
    {
      "inputs": [
        {
          "internalType": "uint256",
          "name": "robotIndex",
          "type": "uint256"
        }
      ],
      "name": "setRobotAsFighter",
      "outputs": [],
      "stateMutability": "nonpayable",
      "type": "function"
    },
    {
      "inputs": [
        {
          "internalType": "uint256",
          "name": "robotIndex",
          "type": "uint256"
        }
      ],
      "name": "setRobotAsTrainer",
      "outputs": [],
      "stateMutability": "nonpayable",
      "type": "function"
    },
    {
      "inputs": [
        {
          "internalType": "uint256",
          "name": "robotIndex",
          "type": "uint256"
        }
      ],
      "name": "setRobotAsRetired",
      "outputs": [],
      "stateMutability": "nonpayable",
      "type": "function"
    },
    {
      "inputs": [
        {
          "internalType": "address",
          "name": "_owner",
          "type": "address"
        }
      ],
      "name": "walletOfOwner",
      "outputs": [
        {
          "internalType": "uint256[]",
          "name": "",
          "type": "uint256[]"
        }
      ],
      "stateMutability": "view",
      "type": "function",
      "constant": true
    },
    {
      "inputs": [],
      "name": "withdrawAll",
      "outputs": [],
      "stateMutability": "payable",
      "type": "function",
      "payable": true
    }
  ],
  "bytecode": "0x6080604052674563918244f40000600d5560405180608001604052806040518060400160405280600481526020017f54616e6b0000000000000000000000000000000000000000000000000000000081525081526020016040518060400160405280600681526020017f537065656479000000000000000000000000000000000000000000000000000081525081526020016040518060400160405280600881526020017f446566656e64657200000000000000000000000000000000000000000000000081525081526020016040518060400160405280600881526020017f41747461636b65720000000000000000000000000000000000000000000000008152508152506010906004620001179291906200063b565b506040518060800160405280601460ff168152602001600a60ff168152602001600a60ff168152602001601460ff1681525060119060046200015b929190620006a2565b506040518060800160405280600a60ff168152602001601460ff168152602001600a60ff168152602001601460ff1681525060129060046200019f929190620006a2565b506040518060800160405280600a60ff168152602001601460ff168152602001601460ff168152602001600a60ff168152506013906004620001e3929190620006a2565b506040518060800160405280601460ff168152602001600a60ff168152602001601460ff168152602001600a60ff16815250601490600462000227929190620006a2565b5060405180608001604052806040518060400160405280600681526020017f302e6a736f6e000000000000000000000000000000000000000000000000000081525081526020016040518060400160405280600681526020017f312e6a736f6e000000000000000000000000000000000000000000000000000081525081526020016040518060400160405280600681526020017f322e6a736f6e000000000000000000000000000000000000000000000000000081525081526020016040518060400160405280600681526020017f332e6a736f6e000000000000000000000000000000000000000000000000000081525081525060169060046200032f9291906200063b565b503480156200033d57600080fd5b506040516200696c3803806200696c8339818101604052810190620003639190620008a0565b6040518060400160405280600581526020017f526f626f740000000000000000000000000000000000000000000000000000008152506040518060400160405280600381526020017f52425400000000000000000000000000000000000000000000000000000000008152508160009080519060200190620003e7929190620006f9565b50806001908051906020019062000400929190620006f9565b5050506000600b60006101000a81548160ff0219169083151502179055506200043e620004326200049860201b60201c565b620004a060201b60201c565b6200044f826200056660201b60201c565b80600f60006101000a81548173ffffffffffffffffffffffffffffffffffffffff021916908373ffffffffffffffffffffffffffffffffffffffff160217905550505062000b3b565b600033905090565b6000600b60019054906101000a900473ffffffffffffffffffffffffffffffffffffffff16905081600b60016101000a81548173ffffffffffffffffffffffffffffffffffffffff021916908373ffffffffffffffffffffffffffffffffffffffff1602179055508173ffffffffffffffffffffffffffffffffffffffff168173ffffffffffffffffffffffffffffffffffffffff167f8be0079c531659141344cd1fd0a4f28419497f9722a3daafe3b4186f6b6457e060405160405180910390a35050565b620005766200049860201b60201c565b73ffffffffffffffffffffffffffffffffffffffff166200059c6200061160201b60201c565b73ffffffffffffffffffffffffffffffffffffffff1614620005f5576040517f08c379a0000000000000000000000000000000000000000000000000000000008152600401620005ec9062000921565b60405180910390fd5b80600e90805190602001906200060d929190620006f9565b5050565b6000600b60019054906101000a900473ffffffffffffffffffffffffffffffffffffffff16905090565b8280548282559060005260206000209081019282156200068f579160200282015b828111156200068e5782518290805190602001906200067d929190620006f9565b50916020019190600101906200065c565b5b5090506200069e91906200078a565b5090565b828054828255906000526020600020908101928215620006e6579160200282015b82811115620006e5578251829060ff16905591602001919060010190620006c3565b5b509050620006f59190620007b2565b5090565b828054620007079062000a1d565b90600052602060002090601f0160209004810192826200072b576000855562000777565b82601f106200074657805160ff191683800117855562000777565b8280016001018555821562000777579182015b828111156200077657825182559160200191906001019062000759565b5b509050620007869190620007b2565b5090565b5b80821115620007ae5760008181620007a49190620007d1565b506001016200078b565b5090565b5b80821115620007cd576000816000905550600101620007b3565b5090565b508054620007df9062000a1d565b6000825580601f10620007f3575062000814565b601f016020900490600052602060002090810190620008139190620007b2565b5b50565b60006200082e62000828846200096c565b62000943565b9050828152602081018484840111156200084757600080fd5b62000854848285620009e7565b509392505050565b6000815190506200086d8162000b21565b92915050565b600082601f8301126200088557600080fd5b81516200089784826020860162000817565b91505092915050565b60008060408385031215620008b457600080fd5b600083015167ffffffffffffffff811115620008cf57600080fd5b620008dd8582860162000873565b9250506020620008f0858286016200085c565b9150509250929050565b600062000909602083620009a2565b9150620009168262000af8565b602082019050919050565b600060208201905081810360008301526200093c81620008fa565b9050919050565b60006200094f62000962565b90506200095d828262000a53565b919050565b6000604051905090565b600067ffffffffffffffff8211156200098a576200098962000ab8565b5b620009958262000ae7565b9050602081019050919050565b600082825260208201905092915050565b6000620009c082620009c7565b9050919050565b600073ffffffffffffffffffffffffffffffffffffffff82169050919050565b60005b8381101562000a07578082015181840152602081019050620009ea565b8381111562000a17576000848401525b50505050565b6000600282049050600182168062000a3657607f821691505b6020821081141562000a4d5762000a4c62000a89565b5b50919050565b62000a5e8262000ae7565b810181811067ffffffffffffffff8211171562000a805762000a7f62000ab8565b5b80604052505050565b7f4e487b7100000000000000000000000000000000000000000000000000000000600052602260045260246000fd5b7f4e487b7100000000000000000000000000000000000000000000000000000000600052604160045260246000fd5b6000601f19601f8301169050919050565b7f4f776e61626c653a2063616c6c6572206973206e6f7420746865206f776e6572600082015250565b62000b2c81620009b3565b811462000b3857600080fd5b50565b615e218062000b4b6000396000f3fe60806040526004361061025c5760003560e01c806370a0823111610144578063aaea4fff116100b6578063c87b56dd1161007a578063c87b56dd146108f2578063db43c5071461092f578063e10d74fe14610958578063e2ec6ec314610981578063e985e9c5146109be578063f2fde38b146109fb5761025c565b8063aaea4fff14610825578063abdb9bec1461084e578063b01d49d114610877578063b7a293ec146108a0578063b88d4fde146108c95761025c565b8063853828b611610108578063853828b6146107185780638da5cb5b1461072257806395d89b411461074d5780639b19251a14610778578063a03937c5146107b5578063a22cb465146107fc5761025c565b806370a0823114610654578063715018a61461069157806377097fc8146106a85780637b9417c8146106c45780638456cb59146107015761025c565b80633f4ba83a116101dd57806355f804b3116101a157806355f804b31461054857806357a6f5cf146105715780635a44890a1461059a5780635c975abb146105c35780636352211e146105ee5780636f027ef11461062b5761025c565b80633f4ba83a1461046557806342842e0e1461047c578063438b6300146104a55780634f6ccce7146104e2578063508a99a11461051f5761025c565b806321a4b2a01161022457806321a4b2a01461035a57806323b872dd1461038557806324953eaa146103ae578063286dd3f5146103eb5780632f745c59146104285761025c565b806301ffc9a71461026157806306fdde031461029e578063081812fc146102c9578063095ea7b31461030657806318160ddd1461032f575b600080fd5b34801561026d57600080fd5b50610288600480360381019061028391906147c9565b610a24565b6040516102959190614e6e565b60405180910390f35b3480156102aa57600080fd5b506102b3610a36565b6040516102c09190614e89565b60405180910390f35b3480156102d557600080fd5b506102f060048036038101906102eb919061485c565b610ac8565b6040516102fd9190614de5565b60405180910390f35b34801561031257600080fd5b5061032d6004803603810190610328919061474c565b610b4d565b005b34801561033b57600080fd5b50610344610c65565b60405161035191906151ab565b60405180910390f35b34801561036657600080fd5b5061036f610c72565b60405161037c91906151ab565b60405180910390f35b34801561039157600080fd5b506103ac60048036038101906103a79190614646565b610c78565b005b3480156103ba57600080fd5b506103d560048036038101906103d09190614788565b610cd8565b6040516103e29190614e6e565b60405180910390f35b3480156103f757600080fd5b50610412600480360381019061040d91906145e1565b610dce565b60405161041f9190614e6e565b60405180910390f35b34801561043457600080fd5b5061044f600480360381019061044a919061474c565b610f37565b60405161045c91906151ab565b60405180910390f35b34801561047157600080fd5b5061047a610fdc565b005b34801561048857600080fd5b506104a3600480360381019061049e9190614646565b611062565b005b3480156104b157600080fd5b506104cc60048036038101906104c791906145e1565b611082565b6040516104d99190614e4c565b60405180910390f35b3480156104ee57600080fd5b506105096004803603810190610504919061485c565b6111fe565b60405161051691906151ab565b60405180910390f35b34801561052b57600080fd5b50610546600480360381019061054191906148d9565b611295565b005b34801561055457600080fd5b5061056f600480360381019061056a919061481b565b611352565b005b34801561057d57600080fd5b506105986004803603810190610593919061485c565b6113e8565b005b3480156105a657600080fd5b506105c160048036038101906105bc91906148d9565b611514565b005b3480156105cf57600080fd5b506105d86115d1565b6040516105e59190614e6e565b60405180910390f35b3480156105fa57600080fd5b506106156004803603810190610610919061485c565b6115e8565b6040516106229190614de5565b60405180910390f35b34801561063757600080fd5b50610652600480360381019061064d91906148d9565b61169a565b005b34801561066057600080fd5b5061067b600480360381019061067691906145e1565b611798565b60405161068891906151ab565b60405180910390f35b34801561069d57600080fd5b506106a6611850565b005b6106c260048036038101906106bd9190614885565b6118d8565b005b3480156106d057600080fd5b506106eb60048036038101906106e691906145e1565b611b00565b6040516106f89190614e6e565b60405180910390f35b34801561070d57600080fd5b50610716611c68565b005b610720611cee565b005b34801561072e57600080fd5b50610737611dcc565b6040516107449190614de5565b60405180910390f35b34801561075957600080fd5b50610762611df6565b60405161076f9190614e89565b60405180910390f35b34801561078457600080fd5b5061079f600480360381019061079a91906145e1565b611e88565b6040516107ac9190614e6e565b60405180910390f35b3480156107c157600080fd5b506107dc60048036038101906107d7919061485c565b611ea8565b6040516107f39b9a999897969594939291906151c6565b60405180910390f35b34801561080857600080fd5b50610823600480360381019061081e9190614710565b61201f565b005b34801561083157600080fd5b5061084c600480360381019061084791906148d9565b6121a0565b005b34801561085a57600080fd5b506108756004803603810190610870919061485c565b61225d565b005b34801561088357600080fd5b5061089e600480360381019061089991906148d9565b612389565b005b3480156108ac57600080fd5b506108c760048036038101906108c291906148d9565b612446565b005b3480156108d557600080fd5b506108f060048036038101906108eb9190614695565b612503565b005b3480156108fe57600080fd5b506109196004803603810190610914919061485c565b612565565b6040516109269190614e89565b60405180910390f35b34801561093b57600080fd5b506109566004803603810190610951919061485c565b612577565b005b34801561096457600080fd5b5061097f600480360381019061097a9190614885565b6126a3565b005b34801561098d57600080fd5b506109a860048036038101906109a39190614788565b612770565b6040516109b59190614e6e565b60405180910390f35b3480156109ca57600080fd5b506109e560048036038101906109e0919061460a565b612866565b6040516109f29190614e6e565b60405180910390f35b348015610a0757600080fd5b50610a226004803603810190610a1d91906145e1565b6128fa565b005b6000610a2f826129f2565b9050919050565b606060008054610a4590615544565b80601f0160208091040260200160405190810160405280929190818152602001828054610a7190615544565b8015610abe5780601f10610a9357610100808354040283529160200191610abe565b820191906000526020600020905b815481529060010190602001808311610aa157829003601f168201915b5050505050905090565b6000610ad382612a6c565b610b12576040517f08c379a0000000000000000000000000000000000000000000000000000000008152600401610b09906150cb565b60405180910390fd5b6004600083815260200190815260200160002060009054906101000a900473ffffffffffffffffffffffffffffffffffffffff169050919050565b6000610b58826115e8565b90508073ffffffffffffffffffffffffffffffffffffffff168373ffffffffffffffffffffffffffffffffffffffff161415610bc9576040517f08c379a0000000000000000000000000000000000000000000000000000000008152600401610bc09061514b565b60405180910390fd5b8073ffffffffffffffffffffffffffffffffffffffff16610be8612ad8565b73ffffffffffffffffffffffffffffffffffffffff161480610c175750610c1681610c11612ad8565b612866565b5b610c56576040517f08c379a0000000000000000000000000000000000000000000000000000000008152600401610c4d90614feb565b60405180910390fd5b610c608383612ae0565b505050565b6000600980549050905090565b600d5481565b610c89610c83612ad8565b82612b99565b610cc8576040517f08c379a0000000000000000000000000000000000000000000000000000000008152600401610cbf9061516b565b60405180910390fd5b610cd3838383612c77565b505050565b6000610ce2612ad8565b73ffffffffffffffffffffffffffffffffffffffff16610d00611dcc565b73ffffffffffffffffffffffffffffffffffffffff1614610d56576040517f08c379a0000000000000000000000000000000000000000000000000000000008152600401610d4d906150eb565b60405180910390fd5b60005b8251811015610dc857610dab838281518110610d9e577f4e487b7100000000000000000000000000000000000000000000000000000000600052603260045260246000fd5b6020026020010151610dce565b15610db557600191505b8080610dc0906155a7565b915050610d59565b50919050565b6000610dd8612ad8565b73ffffffffffffffffffffffffffffffffffffffff16610df6611dcc565b73ffffffffffffffffffffffffffffffffffffffff1614610e4c576040517f08c379a0000000000000000000000000000000000000000000000000000000008152600401610e43906150eb565b60405180910390fd5b600c60008373ffffffffffffffffffffffffffffffffffffffff1673ffffffffffffffffffffffffffffffffffffffff16815260200190815260200160002060009054906101000a900460ff1615610f32576000600c60008473ffffffffffffffffffffffffffffffffffffffff1673ffffffffffffffffffffffffffffffffffffffff16815260200190815260200160002060006101000a81548160ff0219169083151502179055507ff1abf01a1043b7c244d128e8595cf0c1d10743b022b03a02dffd8ca3bf729f5a82604051610f259190614de5565b60405180910390a1600190505b919050565b6000610f4283611798565b8210610f83576040517f08c379a0000000000000000000000000000000000000000000000000000000008152600401610f7a90614eeb565b60405180910390fd5b600760008473ffffffffffffffffffffffffffffffffffffffff1673ffffffffffffffffffffffffffffffffffffffff168152602001908152602001600020600083815260200190815260200160002054905092915050565b610fe4612ad8565b73ffffffffffffffffffffffffffffffffffffffff16611002611dcc565b73ffffffffffffffffffffffffffffffffffffffff1614611058576040517f08c379a000000000000000000000000000000000000000000000000000000000815260040161104f906150eb565b60405180910390fd5b611060612ed3565b565b61107d83838360405180602001604052806000815250612503565b505050565b6060600061108f83611798565b9050600081141561111257600067ffffffffffffffff8111156110db577f4e487b7100000000000000000000000000000000000000000000000000000000600052604160045260246000fd5b6040519080825280602002602001820160405280156111095781602001602082028036833780820191505090505b509150506111f9565b60008167ffffffffffffffff811115611154577f4e487b7100000000000000000000000000000000000000000000000000000000600052604160045260246000fd5b6040519080825280602002602001820160405280156111825781602001602082028036833780820191505090505b50905060005b828110156111f25761119a8582610f37565b8282815181106111d3577f4e487b7100000000000000000000000000000000000000000000000000000000600052603260045260246000fd5b60200260200101818152505080806111ea906155a7565b915050611188565b5080925050505b919050565b6000611208610c65565b8210611249576040517f08c379a00000000000000000000000000000000000000000000000000000000081526004016112409061518b565b60405180910390fd5b60098281548110611283577f4e487b7100000000000000000000000000000000000000000000000000000000600052603260045260246000fd5b90600052602060002001549050919050565b61129d6115d1565b156112dd576040517f08c379a00000000000000000000000000000000000000000000000000000000081526004016112d490614fcb565b60405180910390fd5b600c60003373ffffffffffffffffffffffffffffffffffffffff1673ffffffffffffffffffffffffffffffffffffffff16815260200190815260200160002060009054906101000a900460ff1661133357600080fd5b8060156000848152602001908152602001600020600a01819055505050565b61135a612ad8565b73ffffffffffffffffffffffffffffffffffffffff16611378611dcc565b73ffffffffffffffffffffffffffffffffffffffff16146113ce576040517f08c379a00000000000000000000000000000000000000000000000000000000081526004016113c5906150eb565b60405180910390fd5b80600e90805190602001906113e492919061436f565b5050565b6113f06115d1565b15611430576040517f08c379a000000000000000000000000000000000000000000000000000000000815260040161142790614fcb565b60405180910390fd5b611438612ad8565b73ffffffffffffffffffffffffffffffffffffffff16611456611dcc565b73ffffffffffffffffffffffffffffffffffffffff16146114ac576040517f08c379a00000000000000000000000000000000000000000000000000000000081526004016114a3906150eb565b60405180910390fd5b60006015600083815260200190815260200160002060030160006101000a81548160ff0219169083600281111561150c577f4e487b7100000000000000000000000000000000000000000000000000000000600052602160045260246000fd5b021790555050565b61151c6115d1565b1561155c576040517f08c379a000000000000000000000000000000000000000000000000000000000815260040161155390614fcb565b60405180910390fd5b600c60003373ffffffffffffffffffffffffffffffffffffffff1673ffffffffffffffffffffffffffffffffffffffff16815260200190815260200160002060009054906101000a900460ff166115b257600080fd5b8060156000848152602001908152602001600020600701819055505050565b6000600b60009054906101000a900460ff16905090565b6000806002600084815260200190815260200160002060009054906101000a900473ffffffffffffffffffffffffffffffffffffffff169050600073ffffffffffffffffffffffffffffffffffffffff168173ffffffffffffffffffffffffffffffffffffffff161415611691576040517f08c379a00000000000000000000000000000000000000000000000000000000081526004016116889061502b565b60405180910390fd5b80915050919050565b6116a26115d1565b156116e2576040517f08c379a00000000000000000000000000000000000000000000000000000000081526004016116d990614fcb565b60405180910390fd5b600c60003373ffffffffffffffffffffffffffffffffffffffff1673ffffffffffffffffffffffffffffffffffffffff16815260200190815260200160002060009054906101000a900460ff1661173857600080fd5b600160156000848152602001908152602001600020600101600082825461175f91906153ae565b92505081905550600160156000838152602001908152602001600020600201600082825461178d91906153ae565b925050819055505050565b60008073ffffffffffffffffffffffffffffffffffffffff168273ffffffffffffffffffffffffffffffffffffffff161415611809576040517f08c379a00000000000000000000000000000000000000000000000000000000081526004016118009061500b565b60405180910390fd5b600360008373ffffffffffffffffffffffffffffffffffffffff1673ffffffffffffffffffffffffffffffffffffffff168152602001908152602001600020549050919050565b611858612ad8565b73ffffffffffffffffffffffffffffffffffffffff16611876611dcc565b73ffffffffffffffffffffffffffffffffffffffff16146118cc576040517f08c379a00000000000000000000000000000000000000000000000000000000081526004016118c3906150eb565b60405180910390fd5b6118d66000612f75565b565b6118e06115d1565b15611920576040517f08c379a000000000000000000000000000000000000000000000000000000000815260040161191790614fcb565b60405180910390fd5b60048210611963576040517f08c379a000000000000000000000000000000000000000000000000000000000815260040161195a90614ecb565b60405180910390fd5b600d54341015806119ad5750611977612ad8565b73ffffffffffffffffffffffffffffffffffffffff16611995611dcc565b73ffffffffffffffffffffffffffffffffffffffff16145b6119ec576040517f08c379a00000000000000000000000000000000000000000000000000000000081526004016119e39061506b565b60405180910390fd5b60006119f6610c65565b90506000600182611a0791906153ae565b9050611a1481858561303b565b611a1e338261339e565b600060168581548110611a5a577f4e487b7100000000000000000000000000000000000000000000000000000000600052603260045260246000fd5b906000526020600020018054611a6f90615544565b80601f0160208091040260200160405190810160405280929190818152602001828054611a9b90615544565b8015611ae85780601f10611abd57610100808354040283529160200191611ae8565b820191906000526020600020905b815481529060010190602001808311611acb57829003601f168201915b50505050509050611af982826133bc565b5050505050565b6000611b0a612ad8565b73ffffffffffffffffffffffffffffffffffffffff16611b28611dcc565b73ffffffffffffffffffffffffffffffffffffffff1614611b7e576040517f08c379a0000000000000000000000000000000000000000000000000000000008152600401611b75906150eb565b60405180910390fd5b600c60008373ffffffffffffffffffffffffffffffffffffffff1673ffffffffffffffffffffffffffffffffffffffff16815260200190815260200160002060009054906101000a900460ff16611c63576001600c60008473ffffffffffffffffffffffffffffffffffffffff1673ffffffffffffffffffffffffffffffffffffffff16815260200190815260200160002060006101000a81548160ff0219169083151502179055507fd1bba68c128cc3f427e5831b3c6f99f480b6efa6b9e80c757768f6124158cc3f82604051611c569190614de5565b60405180910390a1600190505b919050565b611c70612ad8565b73ffffffffffffffffffffffffffffffffffffffff16611c8e611dcc565b73ffffffffffffffffffffffffffffffffffffffff1614611ce4576040517f08c379a0000000000000000000000000000000000000000000000000000000008152600401611cdb906150eb565b60405180910390fd5b611cec613430565b565b611cf6612ad8565b73ffffffffffffffffffffffffffffffffffffffff16611d14611dcc565b73ffffffffffffffffffffffffffffffffffffffff1614611d6a576040517f08c379a0000000000000000000000000000000000000000000000000000000008152600401611d61906150eb565b60405180910390fd5b600f60009054906101000a900473ffffffffffffffffffffffffffffffffffffffff1673ffffffffffffffffffffffffffffffffffffffff166108fc479081150290604051600060405180830381858888f19350505050611dca57600080fd5b565b6000600b60019054906101000a900473ffffffffffffffffffffffffffffffffffffffff16905090565b606060018054611e0590615544565b80601f0160208091040260200160405190810160405280929190818152602001828054611e3190615544565b8015611e7e5780601f10611e5357610100808354040283529160200191611e7e565b820191906000526020600020905b815481529060010190602001808311611e6157829003601f168201915b5050505050905090565b600c6020528060005260406000206000915054906101000a900460ff1681565b60156020528060005260406000206000915090508060000154908060010154908060020154908060030160009054906101000a900460ff1690806004018054611ef090615544565b80601f0160208091040260200160405190810160405280929190818152602001828054611f1c90615544565b8015611f695780601f10611f3e57610100808354040283529160200191611f69565b820191906000526020600020905b815481529060010190602001808311611f4c57829003601f168201915b505050505090806005018054611f7e90615544565b80601f0160208091040260200160405190810160405280929190818152602001828054611faa90615544565b8015611ff75780601f10611fcc57610100808354040283529160200191611ff7565b820191906000526020600020905b815481529060010190602001808311611fda57829003601f168201915b50505050509080600601549080600701549080600801549080600901549080600a015490508b565b612027612ad8565b73ffffffffffffffffffffffffffffffffffffffff168273ffffffffffffffffffffffffffffffffffffffff161415612095576040517f08c379a000000000000000000000000000000000000000000000000000000000815260040161208c90614f8b565b60405180910390fd5b80600560006120a2612ad8565b73ffffffffffffffffffffffffffffffffffffffff1673ffffffffffffffffffffffffffffffffffffffff16815260200190815260200160002060008473ffffffffffffffffffffffffffffffffffffffff1673ffffffffffffffffffffffffffffffffffffffff16815260200190815260200160002060006101000a81548160ff0219169083151502179055508173ffffffffffffffffffffffffffffffffffffffff1661214f612ad8565b73ffffffffffffffffffffffffffffffffffffffff167f17307eab39ab6107e8899845ad3d59bd9653f200f220920489ca2b5937696c31836040516121949190614e6e565b60405180910390a35050565b6121a86115d1565b156121e8576040517f08c379a00000000000000000000000000000000000000000000000000000000081526004016121df90614fcb565b60405180910390fd5b600c60003373ffffffffffffffffffffffffffffffffffffffff1673ffffffffffffffffffffffffffffffffffffffff16815260200190815260200160002060009054906101000a900460ff1661223e57600080fd5b8060156000848152602001908152602001600020600801819055505050565b6122656115d1565b156122a5576040517f08c379a000000000000000000000000000000000000000000000000000000000815260040161229c90614fcb565b60405180910390fd5b6122ad612ad8565b73ffffffffffffffffffffffffffffffffffffffff166122cb611dcc565b73ffffffffffffffffffffffffffffffffffffffff1614612321576040517f08c379a0000000000000000000000000000000000000000000000000000000008152600401612318906150eb565b60405180910390fd5b60016015600083815260200190815260200160002060030160006101000a81548160ff02191690836002811115612381577f4e487b7100000000000000000000000000000000000000000000000000000000600052602160045260246000fd5b021790555050565b6123916115d1565b156123d1576040517f08c379a00000000000000000000000000000000000000000000000000000000081526004016123c890614fcb565b60405180910390fd5b600c60003373ffffffffffffffffffffffffffffffffffffffff1673ffffffffffffffffffffffffffffffffffffffff16815260200190815260200160002060009054906101000a900460ff1661242757600080fd5b8060156000848152602001908152602001600020600901819055505050565b61244e6115d1565b1561248e576040517f08c379a000000000000000000000000000000000000000000000000000000000815260040161248590614fcb565b60405180910390fd5b600c60003373ffffffffffffffffffffffffffffffffffffffff1673ffffffffffffffffffffffffffffffffffffffff16815260200190815260200160002060009054906101000a900460ff166124e457600080fd5b8060156000848152602001908152602001600020600601819055505050565b61251461250e612ad8565b83612b99565b612553576040517f08c379a000000000000000000000000000000000000000000000000000000000815260040161254a9061516b565b60405180910390fd5b61255f848484846134d3565b50505050565b60606125708261352f565b9050919050565b61257f6115d1565b156125bf576040517f08c379a00000000000000000000000000000000000000000000000000000000081526004016125b690614fcb565b60405180910390fd5b6125c7612ad8565b73ffffffffffffffffffffffffffffffffffffffff166125e5611dcc565b73ffffffffffffffffffffffffffffffffffffffff161461263b576040517f08c379a0000000000000000000000000000000000000000000000000000000008152600401612632906150eb565b60405180910390fd5b60026015600083815260200190815260200160002060030160006101000a81548160ff0219169083600281111561269b577f4e487b7100000000000000000000000000000000000000000000000000000000600052602160045260246000fd5b021790555050565b6126ab6115d1565b156126eb576040517f08c379a00000000000000000000000000000000000000000000000000000000081526004016126e290614fcb565b60405180910390fd5b600c60003373ffffffffffffffffffffffffffffffffffffffff1673ffffffffffffffffffffffffffffffffffffffff16815260200190815260200160002060009054906101000a900460ff1661274157600080fd5b8060156000848152602001908152602001600020600401908051906020019061276b92919061436f565b505050565b600061277a612ad8565b73ffffffffffffffffffffffffffffffffffffffff16612798611dcc565b73ffffffffffffffffffffffffffffffffffffffff16146127ee576040517f08c379a00000000000000000000000000000000000000000000000000000000081526004016127e5906150eb565b60405180910390fd5b60005b825181101561286057612843838281518110612836577f4e487b7100000000000000000000000000000000000000000000000000000000600052603260045260246000fd5b6020026020010151611b00565b1561284d57600191505b8080612858906155a7565b9150506127f1565b50919050565b6000600560008473ffffffffffffffffffffffffffffffffffffffff1673ffffffffffffffffffffffffffffffffffffffff16815260200190815260200160002060008373ffffffffffffffffffffffffffffffffffffffff1673ffffffffffffffffffffffffffffffffffffffff16815260200190815260200160002060009054906101000a900460ff16905092915050565b612902612ad8565b73ffffffffffffffffffffffffffffffffffffffff16612920611dcc565b73ffffffffffffffffffffffffffffffffffffffff1614612976576040517f08c379a000000000000000000000000000000000000000000000000000000000815260040161296d906150eb565b60405180910390fd5b600073ffffffffffffffffffffffffffffffffffffffff168173ffffffffffffffffffffffffffffffffffffffff1614156129e6576040517f08c379a00000000000000000000000000000000000000000000000000000000081526004016129dd90614f2b565b60405180910390fd5b6129ef81612f75565b50565b60007f780e9d63000000000000000000000000000000000000000000000000000000007bffffffffffffffffffffffffffffffffffffffffffffffffffffffff1916827bffffffffffffffffffffffffffffffffffffffffffffffffffffffff19161480612a655750612a6482613681565b5b9050919050565b60008073ffffffffffffffffffffffffffffffffffffffff166002600084815260200190815260200160002060009054906101000a900473ffffffffffffffffffffffffffffffffffffffff1673ffffffffffffffffffffffffffffffffffffffff1614159050919050565b600033905090565b816004600083815260200190815260200160002060006101000a81548173ffffffffffffffffffffffffffffffffffffffff021916908373ffffffffffffffffffffffffffffffffffffffff160217905550808273ffffffffffffffffffffffffffffffffffffffff16612b53836115e8565b73ffffffffffffffffffffffffffffffffffffffff167f8c5be1e5ebec7d5bd14f71427d1e84f3dd0314c0f7b2291e5b200ac8c7c3b92560405160405180910390a45050565b6000612ba482612a6c565b612be3576040517f08c379a0000000000000000000000000000000000000000000000000000000008152600401612bda90614fab565b60405180910390fd5b6000612bee836115e8565b90508073ffffffffffffffffffffffffffffffffffffffff168473ffffffffffffffffffffffffffffffffffffffff161480612c5d57508373ffffffffffffffffffffffffffffffffffffffff16612c4584610ac8565b73ffffffffffffffffffffffffffffffffffffffff16145b80612c6e5750612c6d8185612866565b5b91505092915050565b8273ffffffffffffffffffffffffffffffffffffffff16612c97826115e8565b73ffffffffffffffffffffffffffffffffffffffff1614612ced576040517f08c379a0000000000000000000000000000000000000000000000000000000008152600401612ce49061510b565b60405180910390fd5b600073ffffffffffffffffffffffffffffffffffffffff168273ffffffffffffffffffffffffffffffffffffffff161415612d5d576040517f08c379a0000000000000000000000000000000000000000000000000000000008152600401612d5490614f6b565b60405180910390fd5b612d68838383613763565b612d73600082612ae0565b6001600360008573ffffffffffffffffffffffffffffffffffffffff1673ffffffffffffffffffffffffffffffffffffffff1681526020019081526020016000206000828254612dc39190615435565b925050819055506001600360008473ffffffffffffffffffffffffffffffffffffffff1673ffffffffffffffffffffffffffffffffffffffff1681526020019081526020016000206000828254612e1a91906153ae565b92505081905550816002600083815260200190815260200160002060006101000a81548173ffffffffffffffffffffffffffffffffffffffff021916908373ffffffffffffffffffffffffffffffffffffffff160217905550808273ffffffffffffffffffffffffffffffffffffffff168473ffffffffffffffffffffffffffffffffffffffff167fddf252ad1be2c89b69c2b068fc378daa952ba7f163c4a11628f55a4df523b3ef60405160405180910390a4505050565b612edb6115d1565b612f1a576040517f08c379a0000000000000000000000000000000000000000000000000000000008152600401612f1190614eab565b60405180910390fd5b6000600b60006101000a81548160ff0219169083151502179055507f5db9ee0a495bf2e6ff9c91a7834c1ba4fdd244a5e8aa4e537bd38aeae4b073aa612f5e612ad8565b604051612f6b9190614de5565b60405180910390a1565b6000600b60019054906101000a900473ffffffffffffffffffffffffffffffffffffffff16905081600b60016101000a81548173ffffffffffffffffffffffffffffffffffffffff021916908373ffffffffffffffffffffffffffffffffffffffff1602179055508173ffffffffffffffffffffffffffffffffffffffff168173ffffffffffffffffffffffffffffffffffffffff167f8be0079c531659141344cd1fd0a4f28419497f9722a3daafe3b4186f6b6457e060405160405180910390a35050565b604051806101600160405280848152602001600081526020016000815260200160006002811115613095577f4e487b7100000000000000000000000000000000000000000000000000000000600052602160045260246000fd5b8152602001828152602001601084815481106130da577f4e487b7100000000000000000000000000000000000000000000000000000000600052603260045260246000fd5b9060005260206000200180546130ef90615544565b80601f016020809104026020016040519081016040528092919081815260200182805461311b90615544565b80156131685780601f1061313d57610100808354040283529160200191613168565b820191906000526020600020905b81548152906001019060200180831161314b57829003601f168201915b505050505081526020016103e88152602001601184815481106131b4577f4e487b7100000000000000000000000000000000000000000000000000000000600052603260045260246000fd5b90600052602060002001548152602001601284815481106131fe577f4e487b7100000000000000000000000000000000000000000000000000000000600052603260045260246000fd5b9060005260206000200154815260200160138481548110613248577f4e487b7100000000000000000000000000000000000000000000000000000000600052603260045260246000fd5b9060005260206000200154815260200160148481548110613292577f4e487b7100000000000000000000000000000000000000000000000000000000600052603260045260246000fd5b90600052602060002001548152506015600085815260200190815260200160002060008201518160000155602082015181600101556040820151816002015560608201518160030160006101000a81548160ff02191690836002811115613322577f4e487b7100000000000000000000000000000000000000000000000000000000600052602160045260246000fd5b0217905550608082015181600401908051906020019061334392919061436f565b5060a082015181600501908051906020019061336092919061436f565b5060c0820151816006015560e082015181600701556101008201518160080155610120820151816009015561014082015181600a0155905050505050565b6133b88282604051806020016040528060008152506137bb565b5050565b6133c582612a6c565b613404576040517f08c379a00000000000000000000000000000000000000000000000000000000081526004016133fb9061504b565b60405180910390fd5b8060066000848152602001908152602001600020908051906020019061342b92919061436f565b505050565b6134386115d1565b15613478576040517f08c379a000000000000000000000000000000000000000000000000000000000815260040161346f90614fcb565b60405180910390fd5b6001600b60006101000a81548160ff0219169083151502179055507f62e78cea01bee320cd4e420270b5ea74000d11b0c9f74754ebdbfc544b05a2586134bc612ad8565b6040516134c99190614de5565b60405180910390a1565b6134de848484612c77565b6134ea84848484613816565b613529576040517f08c379a000000000000000000000000000000000000000000000000000000000815260040161352090614f0b565b60405180910390fd5b50505050565b606061353a82612a6c565b613579576040517f08c379a0000000000000000000000000000000000000000000000000000000008152600401613570906150ab565b60405180910390fd5b600060066000848152602001908152602001600020805461359990615544565b80601f01602080910402602001604051908101604052809291908181526020018280546135c590615544565b80156136125780601f106135e757610100808354040283529160200191613612565b820191906000526020600020905b8154815290600101906020018083116135f557829003601f168201915b5050505050905060006136236139ad565b905060008151141561363957819250505061367c565b60008251111561366e578082604051602001613656929190614dc1565b6040516020818303038152906040529250505061367c565b61367784613a3f565b925050505b919050565b60007f80ac58cd000000000000000000000000000000000000000000000000000000007bffffffffffffffffffffffffffffffffffffffffffffffffffffffff1916827bffffffffffffffffffffffffffffffffffffffffffffffffffffffff1916148061374c57507f5b5e139f000000000000000000000000000000000000000000000000000000007bffffffffffffffffffffffffffffffffffffffffffffffffffffffff1916827bffffffffffffffffffffffffffffffffffffffffffffffffffffffff1916145b8061375c575061375b82613ae6565b5b9050919050565b61376b6115d1565b156137ab576040517f08c379a00000000000000000000000000000000000000000000000000000000081526004016137a290614fcb565b60405180910390fd5b6137b6838383613b50565b505050565b6137c58383613c64565b6137d26000848484613816565b613811576040517f08c379a000000000000000000000000000000000000000000000000000000000815260040161380890614f0b565b60405180910390fd5b505050565b60006138378473ffffffffffffffffffffffffffffffffffffffff16613e32565b156139a0578373ffffffffffffffffffffffffffffffffffffffff1663150b7a02613860612ad8565b8786866040518563ffffffff1660e01b81526004016138829493929190614e00565b602060405180830381600087803b15801561389c57600080fd5b505af19250505080156138cd57506040513d601f19601f820116820180604052508101906138ca91906147f2565b60015b613950573d80600081146138fd576040519150601f19603f3d011682016040523d82523d6000602084013e613902565b606091505b50600081511415613948576040517f08c379a000000000000000000000000000000000000000000000000000000000815260040161393f90614f0b565b60405180910390fd5b805181602001fd5b63150b7a0260e01b7bffffffffffffffffffffffffffffffffffffffffffffffffffffffff1916817bffffffffffffffffffffffffffffffffffffffffffffffffffffffff1916149150506139a5565b600190505b949350505050565b6060600e80546139bc90615544565b80601f01602080910402602001604051908101604052809291908181526020018280546139e890615544565b8015613a355780601f10613a0a57610100808354040283529160200191613a35565b820191906000526020600020905b815481529060010190602001808311613a1857829003601f168201915b5050505050905090565b6060613a4a82612a6c565b613a89576040517f08c379a0000000000000000000000000000000000000000000000000000000008152600401613a809061512b565b60405180910390fd5b6000613a936139ad565b90506000815111613ab35760405180602001604052806000815250613ade565b80613abd84613e45565b604051602001613ace929190614dc1565b6040516020818303038152906040525b915050919050565b60007f01ffc9a7000000000000000000000000000000000000000000000000000000007bffffffffffffffffffffffffffffffffffffffffffffffffffffffff1916827bffffffffffffffffffffffffffffffffffffffffffffffffffffffff1916149050919050565b613b5b838383613ff2565b600073ffffffffffffffffffffffffffffffffffffffff168373ffffffffffffffffffffffffffffffffffffffff161415613b9e57613b9981613ff7565b613bdd565b8173ffffffffffffffffffffffffffffffffffffffff168373ffffffffffffffffffffffffffffffffffffffff1614613bdc57613bdb8382614040565b5b5b600073ffffffffffffffffffffffffffffffffffffffff168273ffffffffffffffffffffffffffffffffffffffff161415613c2057613c1b816141ad565b613c5f565b8273ffffffffffffffffffffffffffffffffffffffff168273ffffffffffffffffffffffffffffffffffffffff1614613c5e57613c5d82826142f0565b5b5b505050565b600073ffffffffffffffffffffffffffffffffffffffff168273ffffffffffffffffffffffffffffffffffffffff161415613cd4576040517f08c379a0000000000000000000000000000000000000000000000000000000008152600401613ccb9061508b565b60405180910390fd5b613cdd81612a6c565b15613d1d576040517f08c379a0000000000000000000000000000000000000000000000000000000008152600401613d1490614f4b565b60405180910390fd5b613d2960008383613763565b6001600360008473ffffffffffffffffffffffffffffffffffffffff1673ffffffffffffffffffffffffffffffffffffffff1681526020019081526020016000206000828254613d7991906153ae565b92505081905550816002600083815260200190815260200160002060006101000a81548173ffffffffffffffffffffffffffffffffffffffff021916908373ffffffffffffffffffffffffffffffffffffffff160217905550808273ffffffffffffffffffffffffffffffffffffffff16600073ffffffffffffffffffffffffffffffffffffffff167fddf252ad1be2c89b69c2b068fc378daa952ba7f163c4a11628f55a4df523b3ef60405160405180910390a45050565b600080823b905060008111915050919050565b60606000821415613e8d576040518060400160405280600181526020017f30000000000000000000000000000000000000000000000000000000000000008152509050613fed565b600082905060005b60008214613ebf578080613ea8906155a7565b915050600a82613eb89190615404565b9150613e95565b60008167ffffffffffffffff811115613f01577f4e487b7100000000000000000000000000000000000000000000000000000000600052604160045260246000fd5b6040519080825280601f01601f191660200182016040528015613f335781602001600182028036833780820191505090505b5090505b60008514613fe657600182613f4c9190615435565b9150600a85613f5b91906155f0565b6030613f6791906153ae565b60f81b818381518110613fa3577f4e487b7100000000000000000000000000000000000000000000000000000000600052603260045260246000fd5b60200101907effffffffffffffffffffffffffffffffffffffffffffffffffffffffffffff1916908160001a905350600a85613fdf9190615404565b9450613f37565b8093505050505b919050565b505050565b600980549050600a600083815260200190815260200160002081905550600981908060018154018082558091505060019003906000526020600020016000909190919091505550565b6000600161404d84611798565b6140579190615435565b905060006008600084815260200190815260200160002054905081811461413c576000600760008673ffffffffffffffffffffffffffffffffffffffff1673ffffffffffffffffffffffffffffffffffffffff168152602001908152602001600020600084815260200190815260200160002054905080600760008773ffffffffffffffffffffffffffffffffffffffff1673ffffffffffffffffffffffffffffffffffffffff168152602001908152602001600020600084815260200190815260200160002081905550816008600083815260200190815260200160002081905550505b6008600084815260200190815260200160002060009055600760008573ffffffffffffffffffffffffffffffffffffffff1673ffffffffffffffffffffffffffffffffffffffff16815260200190815260200160002060008381526020019081526020016000206000905550505050565b600060016009805490506141c19190615435565b90506000600a6000848152602001908152602001600020549050600060098381548110614217577f4e487b7100000000000000000000000000000000000000000000000000000000600052603260045260246000fd5b90600052602060002001549050806009838154811061425f577f4e487b7100000000000000000000000000000000000000000000000000000000600052603260045260246000fd5b906000526020600020018190555081600a600083815260200190815260200160002081905550600a60008581526020019081526020016000206000905560098054806142d4577f4e487b7100000000000000000000000000000000000000000000000000000000600052603160045260246000fd5b6001900381819060005260206000200160009055905550505050565b60006142fb83611798565b905081600760008573ffffffffffffffffffffffffffffffffffffffff1673ffffffffffffffffffffffffffffffffffffffff168152602001908152602001600020600083815260200190815260200160002081905550806008600084815260200190815260200160002081905550505050565b82805461437b90615544565b90600052602060002090601f01602090048101928261439d57600085556143e4565b82601f106143b657805160ff19168380011785556143e4565b828001600101855582156143e4579182015b828111156143e35782518255916020019190600101906143c8565b5b5090506143f191906143f5565b5090565b5b8082111561440e5760008160009055506001016143f6565b5090565b6000614425614420846152a4565b61527f565b9050808382526020820190508285602086028201111561444457600080fd5b60005b85811015614474578161445a88826144fa565b845260208401935060208301925050600181019050614447565b5050509392505050565b600061449161448c846152d0565b61527f565b9050828152602081018484840111156144a957600080fd5b6144b4848285615502565b509392505050565b60006144cf6144ca84615301565b61527f565b9050828152602081018484840111156144e757600080fd5b6144f2848285615502565b509392505050565b60008135905061450981615d8f565b92915050565b600082601f83011261452057600080fd5b8135614530848260208601614412565b91505092915050565b60008135905061454881615da6565b92915050565b60008135905061455d81615dbd565b92915050565b60008151905061457281615dbd565b92915050565b600082601f83011261458957600080fd5b813561459984826020860161447e565b91505092915050565b600082601f8301126145b357600080fd5b81356145c38482602086016144bc565b91505092915050565b6000813590506145db81615dd4565b92915050565b6000602082840312156145f357600080fd5b6000614601848285016144fa565b91505092915050565b6000806040838503121561461d57600080fd5b600061462b858286016144fa565b925050602061463c858286016144fa565b9150509250929050565b60008060006060848603121561465b57600080fd5b6000614669868287016144fa565b935050602061467a868287016144fa565b925050604061468b868287016145cc565b9150509250925092565b600080600080608085870312156146ab57600080fd5b60006146b9878288016144fa565b94505060206146ca878288016144fa565b93505060406146db878288016145cc565b925050606085013567ffffffffffffffff8111156146f857600080fd5b61470487828801614578565b91505092959194509250565b6000806040838503121561472357600080fd5b6000614731858286016144fa565b925050602061474285828601614539565b9150509250929050565b6000806040838503121561475f57600080fd5b600061476d858286016144fa565b925050602061477e858286016145cc565b9150509250929050565b60006020828403121561479a57600080fd5b600082013567ffffffffffffffff8111156147b457600080fd5b6147c08482850161450f565b91505092915050565b6000602082840312156147db57600080fd5b60006147e98482850161454e565b91505092915050565b60006020828403121561480457600080fd5b600061481284828501614563565b91505092915050565b60006020828403121561482d57600080fd5b600082013567ffffffffffffffff81111561484757600080fd5b614853848285016145a2565b91505092915050565b60006020828403121561486e57600080fd5b600061487c848285016145cc565b91505092915050565b6000806040838503121561489857600080fd5b60006148a6858286016145cc565b925050602083013567ffffffffffffffff8111156148c357600080fd5b6148cf858286016145a2565b9150509250929050565b600080604083850312156148ec57600080fd5b60006148fa858286016145cc565b925050602061490b858286016145cc565b9150509250929050565b60006149218383614da3565b60208301905092915050565b61493681615469565b82525050565b600061494782615342565b6149518185615370565b935061495c83615332565b8060005b8381101561498d5781516149748882614915565b975061497f83615363565b925050600181019050614960565b5085935050505092915050565b6149a38161547b565b82525050565b60006149b48261534d565b6149be8185615381565b93506149ce818560208601615511565b6149d78161570c565b840191505092915050565b6149eb816154f0565b82525050565b60006149fc82615358565b614a068185615392565b9350614a16818560208601615511565b614a1f8161570c565b840191505092915050565b6000614a3582615358565b614a3f81856153a3565b9350614a4f818560208601615511565b80840191505092915050565b6000614a68601483615392565b9150614a738261571d565b602082019050919050565b6000614a8b601e83615392565b9150614a9682615746565b602082019050919050565b6000614aae602b83615392565b9150614ab98261576f565b604082019050919050565b6000614ad1603283615392565b9150614adc826157be565b604082019050919050565b6000614af4602683615392565b9150614aff8261580d565b604082019050919050565b6000614b17601c83615392565b9150614b228261585c565b602082019050919050565b6000614b3a602483615392565b9150614b4582615885565b604082019050919050565b6000614b5d601983615392565b9150614b68826158d4565b602082019050919050565b6000614b80602c83615392565b9150614b8b826158fd565b604082019050919050565b6000614ba3601083615392565b9150614bae8261594c565b602082019050919050565b6000614bc6603883615392565b9150614bd182615975565b604082019050919050565b6000614be9602a83615392565b9150614bf4826159c4565b604082019050919050565b6000614c0c602983615392565b9150614c1782615a13565b604082019050919050565b6000614c2f602e83615392565b9150614c3a82615a62565b604082019050919050565b6000614c52603583615392565b9150614c5d82615ab1565b604082019050919050565b6000614c75602083615392565b9150614c8082615b00565b602082019050919050565b6000614c98603183615392565b9150614ca382615b29565b604082019050919050565b6000614cbb602c83615392565b9150614cc682615b78565b604082019050919050565b6000614cde602083615392565b9150614ce982615bc7565b602082019050919050565b6000614d01602983615392565b9150614d0c82615bf0565b604082019050919050565b6000614d24602f83615392565b9150614d2f82615c3f565b604082019050919050565b6000614d47602183615392565b9150614d5282615c8e565b604082019050919050565b6000614d6a603183615392565b9150614d7582615cdd565b604082019050919050565b6000614d8d602c83615392565b9150614d9882615d2c565b604082019050919050565b614dac816154e6565b82525050565b614dbb816154e6565b82525050565b6000614dcd8285614a2a565b9150614dd98284614a2a565b91508190509392505050565b6000602082019050614dfa600083018461492d565b92915050565b6000608082019050614e15600083018761492d565b614e22602083018661492d565b614e2f6040830185614db2565b8181036060830152614e4181846149a9565b905095945050505050565b60006020820190508181036000830152614e66818461493c565b905092915050565b6000602082019050614e83600083018461499a565b92915050565b60006020820190508181036000830152614ea381846149f1565b905092915050565b60006020820190508181036000830152614ec481614a5b565b9050919050565b60006020820190508181036000830152614ee481614a7e565b9050919050565b60006020820190508181036000830152614f0481614aa1565b9050919050565b60006020820190508181036000830152614f2481614ac4565b9050919050565b60006020820190508181036000830152614f4481614ae7565b9050919050565b60006020820190508181036000830152614f6481614b0a565b9050919050565b60006020820190508181036000830152614f8481614b2d565b9050919050565b60006020820190508181036000830152614fa481614b50565b9050919050565b60006020820190508181036000830152614fc481614b73565b9050919050565b60006020820190508181036000830152614fe481614b96565b9050919050565b6000602082019050818103600083015261500481614bb9565b9050919050565b6000602082019050818103600083015261502481614bdc565b9050919050565b6000602082019050818103600083015261504481614bff565b9050919050565b6000602082019050818103600083015261506481614c22565b9050919050565b6000602082019050818103600083015261508481614c45565b9050919050565b600060208201905081810360008301526150a481614c68565b9050919050565b600060208201905081810360008301526150c481614c8b565b9050919050565b600060208201905081810360008301526150e481614cae565b9050919050565b6000602082019050818103600083015261510481614cd1565b9050919050565b6000602082019050818103600083015261512481614cf4565b9050919050565b6000602082019050818103600083015261514481614d17565b9050919050565b6000602082019050818103600083015261516481614d3a565b9050919050565b6000602082019050818103600083015261518481614d5d565b9050919050565b600060208201905081810360008301526151a481614d80565b9050919050565b60006020820190506151c06000830184614db2565b92915050565b6000610160820190506151dc600083018e614db2565b6151e9602083018d614db2565b6151f6604083018c614db2565b615203606083018b6149e2565b8181036080830152615215818a6149f1565b905081810360a083015261522981896149f1565b905061523860c0830188614db2565b61524560e0830187614db2565b615253610100830186614db2565b615261610120830185614db2565b61526f610140830184614db2565b9c9b505050505050505050505050565b600061528961529a565b90506152958282615576565b919050565b6000604051905090565b600067ffffffffffffffff8211156152bf576152be6156dd565b5b602082029050602081019050919050565b600067ffffffffffffffff8211156152eb576152ea6156dd565b5b6152f48261570c565b9050602081019050919050565b600067ffffffffffffffff82111561531c5761531b6156dd565b5b6153258261570c565b9050602081019050919050565b6000819050602082019050919050565b600081519050919050565b600081519050919050565b600081519050919050565b6000602082019050919050565b600082825260208201905092915050565b600082825260208201905092915050565b600082825260208201905092915050565b600081905092915050565b60006153b9826154e6565b91506153c4836154e6565b9250827fffffffffffffffffffffffffffffffffffffffffffffffffffffffffffffffff038211156153f9576153f8615621565b5b828201905092915050565b600061540f826154e6565b915061541a836154e6565b92508261542a57615429615650565b5b828204905092915050565b6000615440826154e6565b915061544b836154e6565b92508282101561545e5761545d615621565b5b828203905092915050565b6000615474826154c6565b9050919050565b60008115159050919050565b60007fffffffff0000000000000000000000000000000000000000000000000000000082169050919050565b60008190506154c182615d7b565b919050565b600073ffffffffffffffffffffffffffffffffffffffff82169050919050565b6000819050919050565b60006154fb826154b3565b9050919050565b82818337600083830152505050565b60005b8381101561552f578082015181840152602081019050615514565b8381111561553e576000848401525b50505050565b6000600282049050600182168061555c57607f821691505b602082108114156155705761556f6156ae565b5b50919050565b61557f8261570c565b810181811067ffffffffffffffff8211171561559e5761559d6156dd565b5b80604052505050565b60006155b2826154e6565b91507fffffffffffffffffffffffffffffffffffffffffffffffffffffffffffffffff8214156155e5576155e4615621565b5b600182019050919050565b60006155fb826154e6565b9150615606836154e6565b92508261561657615615615650565b5b828206905092915050565b7f4e487b7100000000000000000000000000000000000000000000000000000000600052601160045260246000fd5b7f4e487b7100000000000000000000000000000000000000000000000000000000600052601260045260246000fd5b7f4e487b7100000000000000000000000000000000000000000000000000000000600052602160045260246000fd5b7f4e487b7100000000000000000000000000000000000000000000000000000000600052602260045260246000fd5b7f4e487b7100000000000000000000000000000000000000000000000000000000600052604160045260246000fd5b6000601f19601f8301169050919050565b7f5061757361626c653a206e6f7420706175736564000000000000000000000000600082015250565b7f5468657265206973206e6f20726f626f74206f66207468617420747970650000600082015250565b7f455243373231456e756d657261626c653a206f776e657220696e646578206f7560008201527f74206f6620626f756e6473000000000000000000000000000000000000000000602082015250565b7f4552433732313a207472616e7366657220746f206e6f6e20455243373231526560008201527f63656976657220696d706c656d656e7465720000000000000000000000000000602082015250565b7f4f776e61626c653a206e6577206f776e657220697320746865207a65726f206160008201527f6464726573730000000000000000000000000000000000000000000000000000602082015250565b7f4552433732313a20746f6b656e20616c7265616479206d696e74656400000000600082015250565b7f4552433732313a207472616e7366657220746f20746865207a65726f2061646460008201527f7265737300000000000000000000000000000000000000000000000000000000602082015250565b7f4552433732313a20617070726f766520746f2063616c6c657200000000000000600082015250565b7f4552433732313a206f70657261746f7220717565727920666f72206e6f6e657860008201527f697374656e7420746f6b656e0000000000000000000000000000000000000000602082015250565b7f5061757361626c653a2070617573656400000000000000000000000000000000600082015250565b7f4552433732313a20617070726f76652063616c6c6572206973206e6f74206f7760008201527f6e6572206e6f7220617070726f76656420666f7220616c6c0000000000000000602082015250565b7f4552433732313a2062616c616e636520717565727920666f7220746865207a6560008201527f726f206164647265737300000000000000000000000000000000000000000000602082015250565b7f4552433732313a206f776e657220717565727920666f72206e6f6e657869737460008201527f656e7420746f6b656e0000000000000000000000000000000000000000000000602082015250565b7f45524337323155524953746f726167653a2055524920736574206f66206e6f6e60008201527f6578697374656e7420746f6b656e000000000000000000000000000000000000602082015250565b7f5468652076616c7565207375626d69747465642077697468207468697320747260008201527f616e73616374696f6e20697320746f6f206c6f772e0000000000000000000000602082015250565b7f4552433732313a206d696e7420746f20746865207a65726f2061646472657373600082015250565b7f45524337323155524953746f726167653a2055524920717565727920666f722060008201527f6e6f6e6578697374656e7420746f6b656e000000000000000000000000000000602082015250565b7f4552433732313a20617070726f76656420717565727920666f72206e6f6e657860008201527f697374656e7420746f6b656e0000000000000000000000000000000000000000602082015250565b7f4f776e61626c653a2063616c6c6572206973206e6f7420746865206f776e6572600082015250565b7f4552433732313a207472616e73666572206f6620746f6b656e2074686174206960008201527f73206e6f74206f776e0000000000000000000000000000000000000000000000602082015250565b7f4552433732314d657461646174613a2055524920717565727920666f72206e6f60008201527f6e6578697374656e7420746f6b656e0000000000000000000000000000000000602082015250565b7f4552433732313a20617070726f76616c20746f2063757272656e74206f776e6560008201527f7200000000000000000000000000000000000000000000000000000000000000602082015250565b7f4552433732313a207472616e736665722063616c6c6572206973206e6f74206f60008201527f776e6572206e6f7220617070726f766564000000000000000000000000000000602082015250565b7f455243373231456e756d657261626c653a20676c6f62616c20696e646578206f60008201527f7574206f6620626f756e64730000000000000000000000000000000000000000602082015250565b60038110615d8c57615d8b61567f565b5b50565b615d9881615469565b8114615da357600080fd5b50565b615daf8161547b565b8114615dba57600080fd5b50565b615dc681615487565b8114615dd157600080fd5b50565b615ddd816154e6565b8114615de857600080fd5b5056fea26469706673582212207f9612b756f3e18d3d9827e3d3473dc7866c814d7e416c9d44e7db5aae9d0bce64736f6c63430008020033",
  "immutableReferences": {},
  "source": "// contracts/Robot.sol\n// SPDX-License-Identifier: MIT\npragma solidity ^0.8.2;\n\nimport \"@openzeppelin/contracts/token/ERC721/ERC721.sol\";\nimport \"@openzeppelin/contracts/token/ERC721/extensions/ERC721Enumerable.sol\";\nimport \"@openzeppelin/contracts/token/ERC721/extensions/ERC721URIStorage.sol\";\nimport \"@openzeppelin/contracts/token/ERC1155/IERC1155.sol\";\nimport \"@openzeppelin/contracts/utils/math/SafeMath.sol\";\nimport \"@openzeppelin/contracts/security/Pausable.sol\";\nimport \"./Whitelist.sol\";\n\ncontract Robot is ERC721, ERC721URIStorage, ERC721Enumerable, Pausable, Whitelist {\n    using SafeMath for uint256;\n\n    uint256 public ROBOT_PRICE = 5 * 10**18;\n\n    string private _baseTokenURI;\n\n    // Address where funds are collected\n    address payable private _wallet;\n\n    string[] private robotType = [\"Tank\", \"Speedy\", \"Defender\", \"Attacker\"];\n    uint256[] private strength = [20, 10, 10, 20];\n    uint256[] private agility = [10, 20, 10, 20];\n    uint256[] private ai = [10, 20, 20, 10];\n    uint256[] private defense = [20, 10, 20, 10];\n\n    mapping(uint256 => RobotAttributes) public robots;\n\n    string[] private robotURIs = [\"0.json\", \"1.json\", \"2.json\", \"3.json\"];\n\n    enum State {\n        Fighter, // 0\n        Trainer, // 1\n        Retired // 2\n    }\n\n    State constant defaultState = State.Fighter;\n\n    struct RobotAttributes {\n        uint256 robotIndex;\n        uint256 wins;\n        uint256 losses;\n        State state;\n        string robotName;\n        string robotType;\n        uint256 health;\n        uint256 strength;\n        uint256 agility;\n        uint256 ai;\n        uint256 defense;\n    }\n\n    constructor(string memory baseURI, address payable wallet) ERC721(\"Robot\", \"RBT\") {\n        setBaseURI(baseURI);\n        _wallet = wallet;\n    }\n\n    function pause() public onlyOwner {\n        _pause();\n    }\n\n    function unpause() public onlyOwner {\n        _unpause();\n    }\n\n    function setBaseURI(string memory baseURI) public onlyOwner {\n        _baseTokenURI = baseURI;\n    }\n\n    function _baseURI() internal view virtual override returns (string memory) {\n        return _baseTokenURI;\n    }\n\n    function _beforeTokenTransfer(address from, address to, uint256 tokenId)\n        internal\n        whenNotPaused\n        override(ERC721, ERC721Enumerable)\n    {\n        super._beforeTokenTransfer(from, to, tokenId);\n    }\n\n    // The following functions are overrides required by Solidity.\n    function _burn(uint256 tokenId) internal override(ERC721, ERC721URIStorage) {\n        super._burn(tokenId);\n    }\n\n    function tokenURI(uint256 tokenId)\n        public\n        view\n        override(ERC721, ERC721URIStorage)\n        returns (string memory)\n    {\n        return super.tokenURI(tokenId);\n    }\n\n   // The following function override required by Solidity.\n    function supportsInterface(bytes4 interfaceId)\n        public\n        view\n        override(ERC721, ERC721Enumerable)\n        returns (bool)\n    {\n        return super.supportsInterface(interfaceId);\n    }\n\n    function _createRobot(uint256 index, uint256 botType, string memory robotName) internal {\n        robots[index] = RobotAttributes({\n            robotIndex: index,\n            wins: 0,\n            losses: 0,\n            state: defaultState,\n            robotName: robotName,\n            robotType: robotType[botType],\n            health: 1000,\n            strength: strength[botType],\n            agility: agility[botType],\n            ai: ai[botType],\n            defense: defense[botType]\n        });\n    }\n\n    // Count is how many they want to mint\n    function mint(uint256 botType, string memory robotName) public whenNotPaused payable {\n        require(botType < 4, \"There is no robot of that type\");\n        require(\n            msg.value >= ROBOT_PRICE || owner() == _msgSender(),\n            \"The value submitted with this transaction is too low.\"\n        );\n\n        uint256 totalSupply = totalSupply();\n        uint256 tokenId = totalSupply + 1;\n        _createRobot(tokenId, botType, robotName);\n        _safeMint(msg.sender, tokenId);\n        string memory robotURI = robotURIs[botType];\n        _setTokenURI(tokenId, robotURI);\n    }\n\n    function updateRobotsRecords(uint256 winningRobotIndex, uint256 losingRobotIndex) public whenNotPaused onlyWhitelisted {\n        robots[winningRobotIndex].wins += 1;\n        robots[losingRobotIndex].losses += 1;\n    }\n\n    function updateRobotName(uint256 robotIndex, string memory value) public whenNotPaused onlyWhitelisted {\n        robots[robotIndex].robotName = value;\n    }\n\n    function updateRobotHealth(uint256 robotIndex, uint256 value) public whenNotPaused onlyWhitelisted {\n        robots[robotIndex].health = value;\n    }\n\n    function updateRobotStrength(uint256 robotIndex, uint256 value) public whenNotPaused onlyWhitelisted {\n        robots[robotIndex].strength = value;\n    }\n\n    function updateRobotAgility(uint256 robotIndex, uint256 value) public whenNotPaused onlyWhitelisted {\n        robots[robotIndex].agility = value;\n    }\n\n    function updateRobotAi(uint256 robotIndex, uint256 value) public whenNotPaused onlyWhitelisted {\n        robots[robotIndex].ai = value;\n    }\n\n    function updateRobotDefense(uint256 robotIndex, uint256 value) public whenNotPaused onlyWhitelisted {\n        robots[robotIndex].defense = value;\n    }\n\n    function setRobotAsFighter(uint256 robotIndex) public whenNotPaused onlyOwner {\n        robots[robotIndex].state = State.Fighter;\n    }\n\n    function setRobotAsTrainer(uint256 robotIndex) public whenNotPaused onlyOwner {\n        robots[robotIndex].state = State.Trainer;\n    }\n\n    function setRobotAsRetired(uint256 robotIndex) public whenNotPaused onlyOwner {\n        robots[robotIndex].state = State.Retired;\n    }\n\n    function walletOfOwner(address _owner)\n        public\n        view\n        returns (uint256[] memory)\n    {\n        uint256 tokenCount = balanceOf(_owner);\n\n        if (tokenCount == 0) {\n            // Return an empty array\n            return new uint256[](0);\n        }\n\n        uint256[] memory tokensId = new uint256[](tokenCount);\n        for (uint256 i; i < tokenCount; i++) {\n            tokensId[i] = tokenOfOwnerByIndex(_owner, i);\n        }\n        return tokensId;\n    }\n\n    function withdrawAll() public payable onlyOwner {\n        require(_wallet.send(address(this).balance));\n    }\n}\n",
  "sourcePath": "/home/seandevs/workspaces/celo-hackathon/nfts/robots/contracts/Robot.sol",
  "compiler": {
    "name": "solc",
    "version": "0.8.2+commit.661d1103.Emscripten.clang"
  },
  "schemaVersion": "3.4.1",
  "updatedAt": "2021-11-27T00:20:08.478Z",
  "networkType": "ethereum",
  "devdoc": {
    "kind": "dev",
    "methods": {
      "approve(address,uint256)": {
        "details": "See {IERC721-approve}."
      },
      "balanceOf(address)": {
        "details": "See {IERC721-balanceOf}."
      },
      "getApproved(uint256)": {
        "details": "See {IERC721-getApproved}."
      },
      "isApprovedForAll(address,address)": {
        "details": "See {IERC721-isApprovedForAll}."
      },
      "name()": {
        "details": "See {IERC721Metadata-name}."
      },
      "owner()": {
        "details": "Returns the address of the current owner."
      },
      "ownerOf(uint256)": {
        "details": "See {IERC721-ownerOf}."
      },
      "paused()": {
        "details": "Returns true if the contract is paused, and false otherwise."
      },
      "renounceOwnership()": {
        "details": "Leaves the contract without owner. It will not be possible to call `onlyOwner` functions anymore. Can only be called by the current owner. NOTE: Renouncing ownership will leave the contract without an owner, thereby removing any functionality that is only available to the owner."
      },
      "safeTransferFrom(address,address,uint256)": {
        "details": "See {IERC721-safeTransferFrom}."
      },
      "safeTransferFrom(address,address,uint256,bytes)": {
        "details": "See {IERC721-safeTransferFrom}."
      },
      "setApprovalForAll(address,bool)": {
        "details": "See {IERC721-setApprovalForAll}."
      },
      "symbol()": {
        "details": "See {IERC721Metadata-symbol}."
      },
      "tokenByIndex(uint256)": {
        "details": "See {IERC721Enumerable-tokenByIndex}."
      },
      "tokenOfOwnerByIndex(address,uint256)": {
        "details": "See {IERC721Enumerable-tokenOfOwnerByIndex}."
      },
      "totalSupply()": {
        "details": "See {IERC721Enumerable-totalSupply}."
      },
      "transferFrom(address,address,uint256)": {
        "details": "See {IERC721-transferFrom}."
      },
      "transferOwnership(address)": {
        "details": "Transfers ownership of the contract to a new account (`newOwner`). Can only be called by the current owner."
      }
    },
    "version": 1
  },
  "userdoc": {
    "kind": "user",
    "methods": {},
    "version": 1
  }
}