{
  "contractName": "Robot",
  "abi": [
    {
      "inputs": [
        {
          "internalType": "string",
          "name": "baseURI",
          "type": "string"
        },
        {
          "internalType": "address payable",
          "name": "wallet",
          "type": "address"
        }
      ],
      "stateMutability": "nonpayable",
      "type": "constructor"
    },
    {
      "anonymous": false,
      "inputs": [
        {
          "indexed": true,
          "internalType": "address",
          "name": "owner",
          "type": "address"
        },
        {
          "indexed": true,
          "internalType": "address",
          "name": "approved",
          "type": "address"
        },
        {
          "indexed": true,
          "internalType": "uint256",
          "name": "tokenId",
          "type": "uint256"
        }
      ],
      "name": "Approval",
      "type": "event"
    },
    {
      "anonymous": false,
      "inputs": [
        {
          "indexed": true,
          "internalType": "address",
          "name": "owner",
          "type": "address"
        },
        {
          "indexed": true,
          "internalType": "address",
          "name": "operator",
          "type": "address"
        },
        {
          "indexed": false,
          "internalType": "bool",
          "name": "approved",
          "type": "bool"
        }
      ],
      "name": "ApprovalForAll",
      "type": "event"
    },
    {
      "anonymous": false,
      "inputs": [
        {
          "indexed": true,
          "internalType": "address",
          "name": "previousOwner",
          "type": "address"
        },
        {
          "indexed": true,
          "internalType": "address",
          "name": "newOwner",
          "type": "address"
        }
      ],
      "name": "OwnershipTransferred",
      "type": "event"
    },
    {
      "anonymous": false,
      "inputs": [
        {
          "indexed": false,
          "internalType": "address",
          "name": "account",
          "type": "address"
        }
      ],
      "name": "Paused",
      "type": "event"
    },
    {
      "anonymous": false,
      "inputs": [
        {
          "indexed": true,
          "internalType": "address",
          "name": "from",
          "type": "address"
        },
        {
          "indexed": true,
          "internalType": "address",
          "name": "to",
          "type": "address"
        },
        {
          "indexed": true,
          "internalType": "uint256",
          "name": "tokenId",
          "type": "uint256"
        }
      ],
      "name": "Transfer",
      "type": "event"
    },
    {
      "anonymous": false,
      "inputs": [
        {
          "indexed": false,
          "internalType": "address",
          "name": "account",
          "type": "address"
        }
      ],
      "name": "Unpaused",
      "type": "event"
    },
    {
      "anonymous": false,
      "inputs": [
        {
          "indexed": false,
          "internalType": "address",
          "name": "addr",
          "type": "address"
        }
      ],
      "name": "WhitelistedAddressAdded",
      "type": "event"
    },
    {
      "anonymous": false,
      "inputs": [
        {
          "indexed": false,
          "internalType": "address",
          "name": "addr",
          "type": "address"
        }
      ],
      "name": "WhitelistedAddressRemoved",
      "type": "event"
    },
    {
      "inputs": [
        {
          "internalType": "address",
          "name": "addr",
          "type": "address"
        }
      ],
      "name": "addAddressToWhitelist",
      "outputs": [
        {
          "internalType": "bool",
          "name": "success",
          "type": "bool"
        }
      ],
      "stateMutability": "nonpayable",
      "type": "function"
    },
    {
      "inputs": [
        {
          "internalType": "address[]",
          "name": "addrs",
          "type": "address[]"
        }
      ],
      "name": "addAddressesToWhitelist",
      "outputs": [
        {
          "internalType": "bool",
          "name": "success",
          "type": "bool"
        }
      ],
      "stateMutability": "nonpayable",
      "type": "function"
    },
    {
      "inputs": [
        {
          "internalType": "address",
          "name": "to",
          "type": "address"
        },
        {
          "internalType": "uint256",
          "name": "tokenId",
          "type": "uint256"
        }
      ],
      "name": "approve",
      "outputs": [],
      "stateMutability": "nonpayable",
      "type": "function"
    },
    {
      "inputs": [
        {
          "internalType": "address",
          "name": "owner",
          "type": "address"
        }
      ],
      "name": "balanceOf",
      "outputs": [
        {
          "internalType": "uint256",
          "name": "",
          "type": "uint256"
        }
      ],
      "stateMutability": "view",
      "type": "function",
      "constant": true
    },
    {
      "inputs": [
        {
          "internalType": "uint256",
          "name": "tokenId",
          "type": "uint256"
        }
      ],
      "name": "getApproved",
      "outputs": [
        {
          "internalType": "address",
          "name": "",
          "type": "address"
        }
      ],
      "stateMutability": "view",
      "type": "function",
      "constant": true
    },
    {
      "inputs": [
        {
          "internalType": "address",
          "name": "owner",
          "type": "address"
        },
        {
          "internalType": "address",
          "name": "operator",
          "type": "address"
        }
      ],
      "name": "isApprovedForAll",
      "outputs": [
        {
          "internalType": "bool",
          "name": "",
          "type": "bool"
        }
      ],
      "stateMutability": "view",
      "type": "function",
      "constant": true
    },
    {
      "inputs": [],
      "name": "name",
      "outputs": [
        {
          "internalType": "string",
          "name": "",
          "type": "string"
        }
      ],
      "stateMutability": "view",
      "type": "function",
      "constant": true
    },
    {
      "inputs": [],
      "name": "owner",
      "outputs": [
        {
          "internalType": "address",
          "name": "",
          "type": "address"
        }
      ],
      "stateMutability": "view",
      "type": "function",
      "constant": true
    },
    {
      "inputs": [
        {
          "internalType": "uint256",
          "name": "tokenId",
          "type": "uint256"
        }
      ],
      "name": "ownerOf",
      "outputs": [
        {
          "internalType": "address",
          "name": "",
          "type": "address"
        }
      ],
      "stateMutability": "view",
      "type": "function",
      "constant": true
    },
    {
      "inputs": [],
      "name": "paused",
      "outputs": [
        {
          "internalType": "bool",
          "name": "",
          "type": "bool"
        }
      ],
      "stateMutability": "view",
      "type": "function",
      "constant": true
    },
    {
      "inputs": [
        {
          "internalType": "address",
          "name": "addr",
          "type": "address"
        }
      ],
      "name": "removeAddressFromWhitelist",
      "outputs": [
        {
          "internalType": "bool",
          "name": "success",
          "type": "bool"
        }
      ],
      "stateMutability": "nonpayable",
      "type": "function"
    },
    {
      "inputs": [
        {
          "internalType": "address[]",
          "name": "addrs",
          "type": "address[]"
        }
      ],
      "name": "removeAddressesFromWhitelist",
      "outputs": [
        {
          "internalType": "bool",
          "name": "success",
          "type": "bool"
        }
      ],
      "stateMutability": "nonpayable",
      "type": "function"
    },
    {
      "inputs": [],
      "name": "renounceOwnership",
      "outputs": [],
      "stateMutability": "nonpayable",
      "type": "function"
    },
    {
      "inputs": [
        {
          "internalType": "uint256",
          "name": "",
          "type": "uint256"
        }
      ],
      "name": "robots",
      "outputs": [
        {
          "internalType": "uint256",
          "name": "robotIndex",
          "type": "uint256"
        },
        {
          "internalType": "string",
          "name": "imageURI",
          "type": "string"
        },
        {
          "internalType": "uint256",
          "name": "wins",
          "type": "uint256"
        },
        {
          "internalType": "uint256",
          "name": "losses",
          "type": "uint256"
        },
        {
          "internalType": "enum Robot.State",
          "name": "state",
          "type": "uint8"
        },
        {
          "internalType": "string",
          "name": "robotName",
          "type": "string"
        },
        {
          "internalType": "string",
          "name": "robotType",
          "type": "string"
        },
        {
          "internalType": "uint256",
          "name": "health",
          "type": "uint256"
        },
        {
          "internalType": "uint256",
          "name": "strength",
          "type": "uint256"
        },
        {
          "internalType": "uint256",
          "name": "agility",
          "type": "uint256"
        },
        {
          "internalType": "uint256",
          "name": "ai",
          "type": "uint256"
        },
        {
          "internalType": "uint256",
          "name": "defense",
          "type": "uint256"
        }
      ],
      "stateMutability": "view",
      "type": "function",
      "constant": true
    },
    {
      "inputs": [
        {
          "internalType": "address",
          "name": "from",
          "type": "address"
        },
        {
          "internalType": "address",
          "name": "to",
          "type": "address"
        },
        {
          "internalType": "uint256",
          "name": "tokenId",
          "type": "uint256"
        }
      ],
      "name": "safeTransferFrom",
      "outputs": [],
      "stateMutability": "nonpayable",
      "type": "function"
    },
    {
      "inputs": [
        {
          "internalType": "address",
          "name": "from",
          "type": "address"
        },
        {
          "internalType": "address",
          "name": "to",
          "type": "address"
        },
        {
          "internalType": "uint256",
          "name": "tokenId",
          "type": "uint256"
        },
        {
          "internalType": "bytes",
          "name": "_data",
          "type": "bytes"
        }
      ],
      "name": "safeTransferFrom",
      "outputs": [],
      "stateMutability": "nonpayable",
      "type": "function"
    },
    {
      "inputs": [
        {
          "internalType": "address",
          "name": "operator",
          "type": "address"
        },
        {
          "internalType": "bool",
          "name": "approved",
          "type": "bool"
        }
      ],
      "name": "setApprovalForAll",
      "outputs": [],
      "stateMutability": "nonpayable",
      "type": "function"
    },
    {
      "inputs": [],
      "name": "symbol",
      "outputs": [
        {
          "internalType": "string",
          "name": "",
          "type": "string"
        }
      ],
      "stateMutability": "view",
      "type": "function",
      "constant": true
    },
    {
      "inputs": [
        {
          "internalType": "uint256",
          "name": "index",
          "type": "uint256"
        }
      ],
      "name": "tokenByIndex",
      "outputs": [
        {
          "internalType": "uint256",
          "name": "",
          "type": "uint256"
        }
      ],
      "stateMutability": "view",
      "type": "function",
      "constant": true
    },
    {
      "inputs": [
        {
          "internalType": "address",
          "name": "owner",
          "type": "address"
        },
        {
          "internalType": "uint256",
          "name": "index",
          "type": "uint256"
        }
      ],
      "name": "tokenOfOwnerByIndex",
      "outputs": [
        {
          "internalType": "uint256",
          "name": "",
          "type": "uint256"
        }
      ],
      "stateMutability": "view",
      "type": "function",
      "constant": true
    },
    {
      "inputs": [
        {
          "internalType": "uint256",
          "name": "tokenId",
          "type": "uint256"
        }
      ],
      "name": "tokenURI",
      "outputs": [
        {
          "internalType": "string",
          "name": "",
          "type": "string"
        }
      ],
      "stateMutability": "view",
      "type": "function",
      "constant": true
    },
    {
      "inputs": [],
      "name": "totalSupply",
      "outputs": [
        {
          "internalType": "uint256",
          "name": "",
          "type": "uint256"
        }
      ],
      "stateMutability": "view",
      "type": "function",
      "constant": true
    },
    {
      "inputs": [
        {
          "internalType": "address",
          "name": "from",
          "type": "address"
        },
        {
          "internalType": "address",
          "name": "to",
          "type": "address"
        },
        {
          "internalType": "uint256",
          "name": "tokenId",
          "type": "uint256"
        }
      ],
      "name": "transferFrom",
      "outputs": [],
      "stateMutability": "nonpayable",
      "type": "function"
    },
    {
      "inputs": [
        {
          "internalType": "address",
          "name": "newOwner",
          "type": "address"
        }
      ],
      "name": "transferOwnership",
      "outputs": [],
      "stateMutability": "nonpayable",
      "type": "function"
    },
    {
      "inputs": [
        {
          "internalType": "address",
          "name": "",
          "type": "address"
        }
      ],
      "name": "whitelist",
      "outputs": [
        {
          "internalType": "bool",
          "name": "",
          "type": "bool"
        }
      ],
      "stateMutability": "view",
      "type": "function",
      "constant": true
    },
    {
      "inputs": [],
      "name": "pause",
      "outputs": [],
      "stateMutability": "nonpayable",
      "type": "function"
    },
    {
      "inputs": [],
      "name": "unpause",
      "outputs": [],
      "stateMutability": "nonpayable",
      "type": "function"
    },
    {
      "inputs": [
        {
          "internalType": "uint256",
          "name": "time",
          "type": "uint256"
        }
      ],
      "name": "setSaleTime",
      "outputs": [],
      "stateMutability": "nonpayable",
      "type": "function"
    },
    {
      "inputs": [],
      "name": "getSaleTime",
      "outputs": [
        {
          "internalType": "uint256",
          "name": "",
          "type": "uint256"
        }
      ],
      "stateMutability": "view",
      "type": "function",
      "constant": true
    },
    {
      "inputs": [],
      "name": "isSaleOpen",
      "outputs": [
        {
          "internalType": "bool",
          "name": "",
          "type": "bool"
        }
      ],
      "stateMutability": "view",
      "type": "function",
      "constant": true
    },
    {
      "inputs": [
        {
          "internalType": "string",
          "name": "baseURI",
          "type": "string"
        }
      ],
      "name": "setBaseURI",
      "outputs": [],
      "stateMutability": "nonpayable",
      "type": "function"
    },
    {
      "inputs": [
        {
          "internalType": "bytes4",
          "name": "interfaceId",
          "type": "bytes4"
        }
      ],
      "name": "supportsInterface",
      "outputs": [
        {
          "internalType": "bool",
          "name": "",
          "type": "bool"
        }
      ],
      "stateMutability": "view",
      "type": "function",
      "constant": true
    },
    {
      "inputs": [
        {
          "internalType": "uint256",
          "name": "botType",
          "type": "uint256"
        }
      ],
      "name": "mint",
      "outputs": [],
      "stateMutability": "payable",
      "type": "function",
      "payable": true
    },
    {
      "inputs": [
        {
          "internalType": "uint256",
          "name": "winningRobotIndex",
          "type": "uint256"
        },
        {
          "internalType": "uint256",
          "name": "losingRobotIndex",
          "type": "uint256"
        }
      ],
      "name": "updateRobotsRecords",
      "outputs": [],
      "stateMutability": "nonpayable",
      "type": "function"
    },
    {
      "inputs": [
        {
          "internalType": "uint256",
          "name": "robotIndex",
          "type": "uint256"
        }
      ],
      "name": "setRobotAsFighter",
      "outputs": [],
      "stateMutability": "nonpayable",
      "type": "function"
    },
    {
      "inputs": [
        {
          "internalType": "uint256",
          "name": "robotIndex",
          "type": "uint256"
        }
      ],
      "name": "setRobotAsTrainer",
      "outputs": [],
      "stateMutability": "nonpayable",
      "type": "function"
    },
    {
      "inputs": [
        {
          "internalType": "uint256",
          "name": "robotIndex",
          "type": "uint256"
        }
      ],
      "name": "setRobotAsRetired",
      "outputs": [],
      "stateMutability": "nonpayable",
      "type": "function"
    },
    {
      "inputs": [
        {
          "internalType": "uint256",
          "name": "robotIndex",
          "type": "uint256"
        }
      ],
      "name": "getRobotRecord",
      "outputs": [
        {
          "internalType": "uint256",
          "name": "",
          "type": "uint256"
        },
        {
          "internalType": "uint256",
          "name": "",
          "type": "uint256"
        }
      ],
      "stateMutability": "view",
      "type": "function",
      "constant": true
    },
    {
      "inputs": [
        {
          "internalType": "uint256",
          "name": "robotIndex",
          "type": "uint256"
        }
      ],
      "name": "getRobotState",
      "outputs": [
        {
          "internalType": "enum Robot.State",
          "name": "",
          "type": "uint8"
        }
      ],
      "stateMutability": "view",
      "type": "function",
      "constant": true
    },
    {
      "inputs": [
        {
          "internalType": "address",
          "name": "_owner",
          "type": "address"
        }
      ],
      "name": "walletOfOwner",
      "outputs": [
        {
          "internalType": "uint256[]",
          "name": "",
          "type": "uint256[]"
        }
      ],
      "stateMutability": "view",
      "type": "function",
      "constant": true
    },
    {
      "inputs": [],
      "name": "withdrawAll",
      "outputs": [],
      "stateMutability": "payable",
      "type": "function",
      "payable": true
    }
  ],
  "bytecode": "0x608060405263616bc0a5600c5567011c37937e080000600d5560405180608001604052806040518060400160405280600681526020017f526f626f7431000000000000000000000000000000000000000000000000000081525081526020016040518060400160405280600681526020017f526f626f7432000000000000000000000000000000000000000000000000000081525081526020016040518060400160405280600681526020017f526f626f7433000000000000000000000000000000000000000000000000000081525081526020016040518060400160405280600681526020017f526f626f7434000000000000000000000000000000000000000000000000000081525081525060109060046200011f92919062000643565b5060405180608001604052806040518060400160405280600481526020017f54616e6b0000000000000000000000000000000000000000000000000000000081525081526020016040518060400160405280600681526020017f537065656479000000000000000000000000000000000000000000000000000081525081526020016040518060400160405280600881526020017f446566656e64657200000000000000000000000000000000000000000000000081525081526020016040518060400160405280600781526020017f526574697265640000000000000000000000000000000000000000000000000081525081525060119060046200022792919062000643565b506040518060800160405280601460ff168152602001600a60ff168152602001600a60ff168152602001601460ff1681525060129060046200026b929190620006aa565b506040518060800160405280600a60ff168152602001601460ff168152602001600a60ff168152602001601460ff168152506013906004620002af929190620006aa565b506040518060800160405280600a60ff168152602001601460ff168152602001601460ff168152602001600a60ff168152506014906004620002f3929190620006aa565b506040518060800160405280601460ff168152602001600a60ff168152602001601460ff168152602001600a60ff16815250601590600462000337929190620006aa565b503480156200034557600080fd5b506040516200646d3803806200646d83398181016040528101906200036b9190620008a8565b6040518060400160405280600581526020017f526f626f740000000000000000000000000000000000000000000000000000008152506040518060400160405280600381526020017f52425400000000000000000000000000000000000000000000000000000000008152508160009080519060200190620003ef92919062000701565b5080600190805190602001906200040892919062000701565b5050506000600a60006101000a81548160ff021916908315150217905550620004466200043a620004a060201b60201c565b620004a860201b60201c565b62000457826200056e60201b60201c565b80600f60006101000a81548173ffffffffffffffffffffffffffffffffffffffff021916908373ffffffffffffffffffffffffffffffffffffffff160217905550505062000b43565b600033905090565b6000600a60019054906101000a900473ffffffffffffffffffffffffffffffffffffffff16905081600a60016101000a81548173ffffffffffffffffffffffffffffffffffffffff021916908373ffffffffffffffffffffffffffffffffffffffff1602179055508173ffffffffffffffffffffffffffffffffffffffff168173ffffffffffffffffffffffffffffffffffffffff167f8be0079c531659141344cd1fd0a4f28419497f9722a3daafe3b4186f6b6457e060405160405180910390a35050565b6200057e620004a060201b60201c565b73ffffffffffffffffffffffffffffffffffffffff16620005a46200061960201b60201c565b73ffffffffffffffffffffffffffffffffffffffff1614620005fd576040517f08c379a0000000000000000000000000000000000000000000000000000000008152600401620005f49062000929565b60405180910390fd5b80600e90805190602001906200061592919062000701565b5050565b6000600a60019054906101000a900473ffffffffffffffffffffffffffffffffffffffff16905090565b82805482825590600052602060002090810192821562000697579160200282015b82811115620006965782518290805190602001906200068592919062000701565b509160200191906001019062000664565b5b509050620006a6919062000792565b5090565b828054828255906000526020600020908101928215620006ee579160200282015b82811115620006ed578251829060ff16905591602001919060010190620006cb565b5b509050620006fd9190620007ba565b5090565b8280546200070f9062000a25565b90600052602060002090601f0160209004810192826200073357600085556200077f565b82601f106200074e57805160ff19168380011785556200077f565b828001600101855582156200077f579182015b828111156200077e57825182559160200191906001019062000761565b5b5090506200078e9190620007ba565b5090565b5b80821115620007b65760008181620007ac9190620007d9565b5060010162000793565b5090565b5b80821115620007d5576000816000905550600101620007bb565b5090565b508054620007e79062000a25565b6000825580601f10620007fb57506200081c565b601f0160209004906000526020600020908101906200081b9190620007ba565b5b50565b600062000836620008308462000974565b6200094b565b9050828152602081018484840111156200084f57600080fd5b6200085c848285620009ef565b509392505050565b600081519050620008758162000b29565b92915050565b600082601f8301126200088d57600080fd5b81516200089f8482602086016200081f565b91505092915050565b60008060408385031215620008bc57600080fd5b600083015167ffffffffffffffff811115620008d757600080fd5b620008e5858286016200087b565b9250506020620008f88582860162000864565b9150509250929050565b600062000911602083620009aa565b91506200091e8262000b00565b602082019050919050565b60006020820190508181036000830152620009448162000902565b9050919050565b6000620009576200096a565b905062000965828262000a5b565b919050565b6000604051905090565b600067ffffffffffffffff82111562000992576200099162000ac0565b5b6200099d8262000aef565b9050602081019050919050565b600082825260208201905092915050565b6000620009c882620009cf565b9050919050565b600073ffffffffffffffffffffffffffffffffffffffff82169050919050565b60005b8381101562000a0f578082015181840152602081019050620009f2565b8381111562000a1f576000848401525b50505050565b6000600282049050600182168062000a3e57607f821691505b6020821081141562000a555762000a5462000a91565b5b50919050565b62000a668262000aef565b810181811067ffffffffffffffff8211171562000a885762000a8762000ac0565b5b80604052505050565b7f4e487b7100000000000000000000000000000000000000000000000000000000600052602260045260246000fd5b7f4e487b7100000000000000000000000000000000000000000000000000000000600052604160045260246000fd5b6000601f19601f8301169050919050565b7f4f776e61626c653a2063616c6c6572206973206e6f7420746865206f776e6572600082015250565b62000b3481620009bb565b811462000b4057600080fd5b50565b61591a8062000b536000396000f3fe6080604052600436106102465760003560e01c80636f027ef111610139578063a0712d68116100b6578063c87b56dd1161007a578063c87b56dd146108b4578063cbf21fe4146108f1578063db43c5071461091c578063e2ec6ec314610945578063e985e9c514610982578063f2fde38b146109bf57610246565b8063a0712d68146107e0578063a22cb465146107fc578063a899cbbb14610825578063abdb9bec14610862578063b88d4fde1461088b57610246565b8063853828b6116100fd578063853828b6146106fb5780638da5cb5b1461070557806395d89b41146107305780639b19251a1461075b578063a03937c51461079857610246565b80636f027ef11461062a57806370a0823114610653578063715018a6146106905780637b9417c8146106a75780638456cb59146106e457610246565b80632f745c59116101c75780634f6ccce71161018b5780634f6ccce71461053357806355f804b31461057057806357a6f5cf146105995780635c975abb146105c25780636352211e146105ed57610246565b80632f745c59146104505780633bd2b67d1461048d5780633f4ba83a146104b657806342842e0e146104cd578063438b6300146104f657610246565b806318160ddd1161020e57806318160ddd146103575780631a0813301461038257806323b872dd146103ad57806324953eaa146103d6578063286dd3f51461041357610246565b806301ffc9a71461024b57806306fdde0314610288578063081812fc146102b3578063095ea7b3146102f05780630e9c54a114610319575b600080fd5b34801561025757600080fd5b50610272600480360381019061026d919061434e565b6109e8565b60405161027f919061497c565b60405180910390f35b34801561029457600080fd5b5061029d6109fa565b6040516102aa91906149b2565b60405180910390f35b3480156102bf57600080fd5b506102da60048036038101906102d591906143e1565b610a8c565b6040516102e791906148f3565b60405180910390f35b3480156102fc57600080fd5b50610317600480360381019061031291906142d1565b610b11565b005b34801561032557600080fd5b50610340600480360381019061033b91906143e1565b610c29565b60405161034e929190614d9e565b60405180910390f35b34801561036357600080fd5b5061036c610c63565b6040516103799190614cb4565b60405180910390f35b34801561038e57600080fd5b50610397610c70565b6040516103a4919061497c565b60405180910390f35b3480156103b957600080fd5b506103d460048036038101906103cf91906141cb565b610c7d565b005b3480156103e257600080fd5b506103fd60048036038101906103f8919061430d565b610cdd565b60405161040a919061497c565b60405180910390f35b34801561041f57600080fd5b5061043a60048036038101906104359190614166565b610dd3565b604051610447919061497c565b60405180910390f35b34801561045c57600080fd5b50610477600480360381019061047291906142d1565b610f3c565b6040516104849190614cb4565b60405180910390f35b34801561049957600080fd5b506104b460048036038101906104af91906143e1565b610fe1565b005b3480156104c257600080fd5b506104cb611067565b005b3480156104d957600080fd5b506104f460048036038101906104ef91906141cb565b6110ed565b005b34801561050257600080fd5b5061051d60048036038101906105189190614166565b61110d565b60405161052a919061495a565b60405180910390f35b34801561053f57600080fd5b5061055a600480360381019061055591906143e1565b611289565b6040516105679190614cb4565b60405180910390f35b34801561057c57600080fd5b50610597600480360381019061059291906143a0565b611320565b005b3480156105a557600080fd5b506105c060048036038101906105bb91906143e1565b6113b6565b005b3480156105ce57600080fd5b506105d76114e2565b6040516105e4919061497c565b60405180910390f35b3480156105f957600080fd5b50610614600480360381019061060f91906143e1565b6114f9565b60405161062191906148f3565b60405180910390f35b34801561063657600080fd5b50610651600480360381019061064c919061440a565b6115ab565b005b34801561065f57600080fd5b5061067a60048036038101906106759190614166565b6116a9565b6040516106879190614cb4565b60405180910390f35b34801561069c57600080fd5b506106a5611761565b005b3480156106b357600080fd5b506106ce60048036038101906106c99190614166565b6117e9565b6040516106db919061497c565b60405180910390f35b3480156106f057600080fd5b506106f9611951565b005b6107036119d7565b005b34801561071157600080fd5b5061071a611ab5565b60405161072791906148f3565b60405180910390f35b34801561073c57600080fd5b50610745611adf565b60405161075291906149b2565b60405180910390f35b34801561076757600080fd5b50610782600480360381019061077d9190614166565b611b71565b60405161078f919061497c565b60405180910390f35b3480156107a457600080fd5b506107bf60048036038101906107ba91906143e1565b611b91565b6040516107d79c9b9a99989796959493929190614ccf565b60405180910390f35b6107fa60048036038101906107f591906143e1565b611d96565b005b34801561080857600080fd5b50610823600480360381019061081e9190614295565b611f25565b005b34801561083157600080fd5b5061084c600480360381019061084791906143e1565b6120a6565b6040516108599190614997565b60405180910390f35b34801561086e57600080fd5b50610889600480360381019061088491906143e1565b6120d3565b005b34801561089757600080fd5b506108b260048036038101906108ad919061421a565b6121ff565b005b3480156108c057600080fd5b506108db60048036038101906108d691906143e1565b612261565b6040516108e891906149b2565b60405180910390f35b3480156108fd57600080fd5b50610906612308565b6040516109139190614cb4565b60405180910390f35b34801561092857600080fd5b50610943600480360381019061093e91906143e1565b612312565b005b34801561095157600080fd5b5061096c6004803603810190610967919061430d565b61243e565b604051610979919061497c565b60405180910390f35b34801561098e57600080fd5b506109a960048036038101906109a4919061418f565b612534565b6040516109b6919061497c565b60405180910390f35b3480156109cb57600080fd5b506109e660048036038101906109e19190614166565b6125c8565b005b60006109f3826126c0565b9050919050565b606060008054610a099061508c565b80601f0160208091040260200160405190810160405280929190818152602001828054610a359061508c565b8015610a825780601f10610a5757610100808354040283529160200191610a82565b820191906000526020600020905b815481529060010190602001808311610a6557829003601f168201915b5050505050905090565b6000610a978261273a565b610ad6576040517f08c379a0000000000000000000000000000000000000000000000000000000008152600401610acd90614bd4565b60405180910390fd5b6004600083815260200190815260200160002060009054906101000a900473ffffffffffffffffffffffffffffffffffffffff169050919050565b6000610b1c826114f9565b90508073ffffffffffffffffffffffffffffffffffffffff168373ffffffffffffffffffffffffffffffffffffffff161415610b8d576040517f08c379a0000000000000000000000000000000000000000000000000000000008152600401610b8490614c54565b60405180910390fd5b8073ffffffffffffffffffffffffffffffffffffffff16610bac6127a6565b73ffffffffffffffffffffffffffffffffffffffff161480610bdb5750610bda81610bd56127a6565b612534565b5b610c1a576040517f08c379a0000000000000000000000000000000000000000000000000000000008152600401610c1190614b34565b60405180910390fd5b610c2483836127ae565b505050565b6000806016600084815260200190815260200160002060020154601660008581526020019081526020016000206003015491509150915091565b6000600880549050905090565b6000600c54421015905090565b610c8e610c886127a6565b82612867565b610ccd576040517f08c379a0000000000000000000000000000000000000000000000000000000008152600401610cc490614c74565b60405180910390fd5b610cd8838383612945565b505050565b6000610ce76127a6565b73ffffffffffffffffffffffffffffffffffffffff16610d05611ab5565b73ffffffffffffffffffffffffffffffffffffffff1614610d5b576040517f08c379a0000000000000000000000000000000000000000000000000000000008152600401610d5290614bf4565b60405180910390fd5b60005b8251811015610dcd57610db0838281518110610da3577f4e487b7100000000000000000000000000000000000000000000000000000000600052603260045260246000fd5b6020026020010151610dd3565b15610dba57600191505b8080610dc5906150ef565b915050610d5e565b50919050565b6000610ddd6127a6565b73ffffffffffffffffffffffffffffffffffffffff16610dfb611ab5565b73ffffffffffffffffffffffffffffffffffffffff1614610e51576040517f08c379a0000000000000000000000000000000000000000000000000000000008152600401610e4890614bf4565b60405180910390fd5b600b60008373ffffffffffffffffffffffffffffffffffffffff1673ffffffffffffffffffffffffffffffffffffffff16815260200190815260200160002060009054906101000a900460ff1615610f37576000600b60008473ffffffffffffffffffffffffffffffffffffffff1673ffffffffffffffffffffffffffffffffffffffff16815260200190815260200160002060006101000a81548160ff0219169083151502179055507ff1abf01a1043b7c244d128e8595cf0c1d10743b022b03a02dffd8ca3bf729f5a82604051610f2a91906148f3565b60405180910390a1600190505b919050565b6000610f47836116a9565b8210610f88576040517f08c379a0000000000000000000000000000000000000000000000000000000008152600401610f7f90614a14565b60405180910390fd5b600660008473ffffffffffffffffffffffffffffffffffffffff1673ffffffffffffffffffffffffffffffffffffffff168152602001908152602001600020600083815260200190815260200160002054905092915050565b610fe96127a6565b73ffffffffffffffffffffffffffffffffffffffff16611007611ab5565b73ffffffffffffffffffffffffffffffffffffffff161461105d576040517f08c379a000000000000000000000000000000000000000000000000000000000815260040161105490614bf4565b60405180910390fd5b80600c8190555050565b61106f6127a6565b73ffffffffffffffffffffffffffffffffffffffff1661108d611ab5565b73ffffffffffffffffffffffffffffffffffffffff16146110e3576040517f08c379a00000000000000000000000000000000000000000000000000000000081526004016110da90614bf4565b60405180910390fd5b6110eb612ba1565b565b611108838383604051806020016040528060008152506121ff565b505050565b6060600061111a836116a9565b9050600081141561119d57600067ffffffffffffffff811115611166577f4e487b7100000000000000000000000000000000000000000000000000000000600052604160045260246000fd5b6040519080825280602002602001820160405280156111945781602001602082028036833780820191505090505b50915050611284565b60008167ffffffffffffffff8111156111df577f4e487b7100000000000000000000000000000000000000000000000000000000600052604160045260246000fd5b60405190808252806020026020018201604052801561120d5781602001602082028036833780820191505090505b50905060005b8281101561127d576112258582610f3c565b82828151811061125e577f4e487b7100000000000000000000000000000000000000000000000000000000600052603260045260246000fd5b6020026020010181815250508080611275906150ef565b915050611213565b5080925050505b919050565b6000611293610c63565b82106112d4576040517f08c379a00000000000000000000000000000000000000000000000000000000081526004016112cb90614c94565b60405180910390fd5b6008828154811061130e577f4e487b7100000000000000000000000000000000000000000000000000000000600052603260045260246000fd5b90600052602060002001549050919050565b6113286127a6565b73ffffffffffffffffffffffffffffffffffffffff16611346611ab5565b73ffffffffffffffffffffffffffffffffffffffff161461139c576040517f08c379a000000000000000000000000000000000000000000000000000000000815260040161139390614bf4565b60405180910390fd5b80600e90805190602001906113b2929190613ef4565b5050565b6113be6114e2565b156113fe576040517f08c379a00000000000000000000000000000000000000000000000000000000081526004016113f590614b14565b60405180910390fd5b6114066127a6565b73ffffffffffffffffffffffffffffffffffffffff16611424611ab5565b73ffffffffffffffffffffffffffffffffffffffff161461147a576040517f08c379a000000000000000000000000000000000000000000000000000000000815260040161147190614bf4565b60405180910390fd5b60006016600083815260200190815260200160002060040160006101000a81548160ff021916908360028111156114da577f4e487b7100000000000000000000000000000000000000000000000000000000600052602160045260246000fd5b021790555050565b6000600a60009054906101000a900460ff16905090565b6000806002600084815260200190815260200160002060009054906101000a900473ffffffffffffffffffffffffffffffffffffffff169050600073ffffffffffffffffffffffffffffffffffffffff168173ffffffffffffffffffffffffffffffffffffffff1614156115a2576040517f08c379a000000000000000000000000000000000000000000000000000000000815260040161159990614b74565b60405180910390fd5b80915050919050565b6115b36114e2565b156115f3576040517f08c379a00000000000000000000000000000000000000000000000000000000081526004016115ea90614b14565b60405180910390fd5b600b60003373ffffffffffffffffffffffffffffffffffffffff1673ffffffffffffffffffffffffffffffffffffffff16815260200190815260200160002060009054906101000a900460ff1661164957600080fd5b60016016600084815260200190815260200160002060020160008282546116709190614ef6565b92505081905550600160166000838152602001908152602001600020600301600082825461169e9190614ef6565b925050819055505050565b60008073ffffffffffffffffffffffffffffffffffffffff168273ffffffffffffffffffffffffffffffffffffffff16141561171a576040517f08c379a000000000000000000000000000000000000000000000000000000000815260040161171190614b54565b60405180910390fd5b600360008373ffffffffffffffffffffffffffffffffffffffff1673ffffffffffffffffffffffffffffffffffffffff168152602001908152602001600020549050919050565b6117696127a6565b73ffffffffffffffffffffffffffffffffffffffff16611787611ab5565b73ffffffffffffffffffffffffffffffffffffffff16146117dd576040517f08c379a00000000000000000000000000000000000000000000000000000000081526004016117d490614bf4565b60405180910390fd5b6117e76000612c43565b565b60006117f36127a6565b73ffffffffffffffffffffffffffffffffffffffff16611811611ab5565b73ffffffffffffffffffffffffffffffffffffffff1614611867576040517f08c379a000000000000000000000000000000000000000000000000000000000815260040161185e90614bf4565b60405180910390fd5b600b60008373ffffffffffffffffffffffffffffffffffffffff1673ffffffffffffffffffffffffffffffffffffffff16815260200190815260200160002060009054906101000a900460ff1661194c576001600b60008473ffffffffffffffffffffffffffffffffffffffff1673ffffffffffffffffffffffffffffffffffffffff16815260200190815260200160002060006101000a81548160ff0219169083151502179055507fd1bba68c128cc3f427e5831b3c6f99f480b6efa6b9e80c757768f6124158cc3f8260405161193f91906148f3565b60405180910390a1600190505b919050565b6119596127a6565b73ffffffffffffffffffffffffffffffffffffffff16611977611ab5565b73ffffffffffffffffffffffffffffffffffffffff16146119cd576040517f08c379a00000000000000000000000000000000000000000000000000000000081526004016119c490614bf4565b60405180910390fd5b6119d5612d09565b565b6119df6127a6565b73ffffffffffffffffffffffffffffffffffffffff166119fd611ab5565b73ffffffffffffffffffffffffffffffffffffffff1614611a53576040517f08c379a0000000000000000000000000000000000000000000000000000000008152600401611a4a90614bf4565b60405180910390fd5b600f60009054906101000a900473ffffffffffffffffffffffffffffffffffffffff1673ffffffffffffffffffffffffffffffffffffffff166108fc479081150290604051600060405180830381858888f19350505050611ab357600080fd5b565b6000600a60019054906101000a900473ffffffffffffffffffffffffffffffffffffffff16905090565b606060018054611aee9061508c565b80601f0160208091040260200160405190810160405280929190818152602001828054611b1a9061508c565b8015611b675780601f10611b3c57610100808354040283529160200191611b67565b820191906000526020600020905b815481529060010190602001808311611b4a57829003601f168201915b5050505050905090565b600b6020528060005260406000206000915054906101000a900460ff1681565b6016602052806000526040600020600091509050806000015490806001018054611bba9061508c565b80601f0160208091040260200160405190810160405280929190818152602001828054611be69061508c565b8015611c335780601f10611c0857610100808354040283529160200191611c33565b820191906000526020600020905b815481529060010190602001808311611c1657829003601f168201915b5050505050908060020154908060030154908060040160009054906101000a900460ff1690806005018054611c679061508c565b80601f0160208091040260200160405190810160405280929190818152602001828054611c939061508c565b8015611ce05780601f10611cb557610100808354040283529160200191611ce0565b820191906000526020600020905b815481529060010190602001808311611cc357829003601f168201915b505050505090806006018054611cf59061508c565b80601f0160208091040260200160405190810160405280929190818152602001828054611d219061508c565b8015611d6e5780601f10611d4357610100808354040283529160200191611d6e565b820191906000526020600020905b815481529060010190602001808311611d5157829003601f168201915b50505050509080600701549080600801549080600901549080600a01549080600b015490508c565b611d9e6114e2565b15611dde576040517f08c379a0000000000000000000000000000000000000000000000000000000008152600401611dd590614b14565b60405180910390fd5b6000611de8610c63565b905060048210611e2d576040517f08c379a0000000000000000000000000000000000000000000000000000000008152600401611e24906149f4565b60405180910390fd5b600d5434101580611e775750611e416127a6565b73ffffffffffffffffffffffffffffffffffffffff16611e5f611ab5565b73ffffffffffffffffffffffffffffffffffffffff16145b611eb6576040517f08c379a0000000000000000000000000000000000000000000000000000000008152600401611ead90614b94565b60405180910390fd5b600c54421015611efb576040517f08c379a0000000000000000000000000000000000000000000000000000000008152600401611ef290614ad4565b60405180910390fd5b6000600182611f0a9190614ef6565b9050611f168184612dac565b611f203382613233565b505050565b611f2d6127a6565b73ffffffffffffffffffffffffffffffffffffffff168273ffffffffffffffffffffffffffffffffffffffff161415611f9b576040517f08c379a0000000000000000000000000000000000000000000000000000000008152600401611f9290614ab4565b60405180910390fd5b8060056000611fa86127a6565b73ffffffffffffffffffffffffffffffffffffffff1673ffffffffffffffffffffffffffffffffffffffff16815260200190815260200160002060008473ffffffffffffffffffffffffffffffffffffffff1673ffffffffffffffffffffffffffffffffffffffff16815260200190815260200160002060006101000a81548160ff0219169083151502179055508173ffffffffffffffffffffffffffffffffffffffff166120556127a6565b73ffffffffffffffffffffffffffffffffffffffff167f17307eab39ab6107e8899845ad3d59bd9653f200f220920489ca2b5937696c318360405161209a919061497c565b60405180910390a35050565b60006016600083815260200190815260200160002060040160009054906101000a900460ff169050919050565b6120db6114e2565b1561211b576040517f08c379a000000000000000000000000000000000000000000000000000000000815260040161211290614b14565b60405180910390fd5b6121236127a6565b73ffffffffffffffffffffffffffffffffffffffff16612141611ab5565b73ffffffffffffffffffffffffffffffffffffffff1614612197576040517f08c379a000000000000000000000000000000000000000000000000000000000815260040161218e90614bf4565b60405180910390fd5b60016016600083815260200190815260200160002060040160006101000a81548160ff021916908360028111156121f7577f4e487b7100000000000000000000000000000000000000000000000000000000600052602160045260246000fd5b021790555050565b61221061220a6127a6565b83612867565b61224f576040517f08c379a000000000000000000000000000000000000000000000000000000000815260040161224690614c74565b60405180910390fd5b61225b84848484613251565b50505050565b606061226c8261273a565b6122ab576040517f08c379a00000000000000000000000000000000000000000000000000000000081526004016122a290614c34565b60405180910390fd5b60006122b56132ad565b905060008151116122d55760405180602001604052806000815250612300565b806122df8461333f565b6040516020016122f09291906148cf565b6040516020818303038152906040525b915050919050565b6000600c54905090565b61231a6114e2565b1561235a576040517f08c379a000000000000000000000000000000000000000000000000000000000815260040161235190614b14565b60405180910390fd5b6123626127a6565b73ffffffffffffffffffffffffffffffffffffffff16612380611ab5565b73ffffffffffffffffffffffffffffffffffffffff16146123d6576040517f08c379a00000000000000000000000000000000000000000000000000000000081526004016123cd90614bf4565b60405180910390fd5b60026016600083815260200190815260200160002060040160006101000a81548160ff02191690836002811115612436577f4e487b7100000000000000000000000000000000000000000000000000000000600052602160045260246000fd5b021790555050565b60006124486127a6565b73ffffffffffffffffffffffffffffffffffffffff16612466611ab5565b73ffffffffffffffffffffffffffffffffffffffff16146124bc576040517f08c379a00000000000000000000000000000000000000000000000000000000081526004016124b390614bf4565b60405180910390fd5b60005b825181101561252e57612511838281518110612504577f4e487b7100000000000000000000000000000000000000000000000000000000600052603260045260246000fd5b60200260200101516117e9565b1561251b57600191505b8080612526906150ef565b9150506124bf565b50919050565b6000600560008473ffffffffffffffffffffffffffffffffffffffff1673ffffffffffffffffffffffffffffffffffffffff16815260200190815260200160002060008373ffffffffffffffffffffffffffffffffffffffff1673ffffffffffffffffffffffffffffffffffffffff16815260200190815260200160002060009054906101000a900460ff16905092915050565b6125d06127a6565b73ffffffffffffffffffffffffffffffffffffffff166125ee611ab5565b73ffffffffffffffffffffffffffffffffffffffff1614612644576040517f08c379a000000000000000000000000000000000000000000000000000000000815260040161263b90614bf4565b60405180910390fd5b600073ffffffffffffffffffffffffffffffffffffffff168173ffffffffffffffffffffffffffffffffffffffff1614156126b4576040517f08c379a00000000000000000000000000000000000000000000000000000000081526004016126ab90614a54565b60405180910390fd5b6126bd81612c43565b50565b60007f780e9d63000000000000000000000000000000000000000000000000000000007bffffffffffffffffffffffffffffffffffffffffffffffffffffffff1916827bffffffffffffffffffffffffffffffffffffffffffffffffffffffff191614806127335750612732826134ec565b5b9050919050565b60008073ffffffffffffffffffffffffffffffffffffffff166002600084815260200190815260200160002060009054906101000a900473ffffffffffffffffffffffffffffffffffffffff1673ffffffffffffffffffffffffffffffffffffffff1614159050919050565b600033905090565b816004600083815260200190815260200160002060006101000a81548173ffffffffffffffffffffffffffffffffffffffff021916908373ffffffffffffffffffffffffffffffffffffffff160217905550808273ffffffffffffffffffffffffffffffffffffffff16612821836114f9565b73ffffffffffffffffffffffffffffffffffffffff167f8c5be1e5ebec7d5bd14f71427d1e84f3dd0314c0f7b2291e5b200ac8c7c3b92560405160405180910390a45050565b60006128728261273a565b6128b1576040517f08c379a00000000000000000000000000000000000000000000000000000000081526004016128a890614af4565b60405180910390fd5b60006128bc836114f9565b90508073ffffffffffffffffffffffffffffffffffffffff168473ffffffffffffffffffffffffffffffffffffffff16148061292b57508373ffffffffffffffffffffffffffffffffffffffff1661291384610a8c565b73ffffffffffffffffffffffffffffffffffffffff16145b8061293c575061293b8185612534565b5b91505092915050565b8273ffffffffffffffffffffffffffffffffffffffff16612965826114f9565b73ffffffffffffffffffffffffffffffffffffffff16146129bb576040517f08c379a00000000000000000000000000000000000000000000000000000000081526004016129b290614c14565b60405180910390fd5b600073ffffffffffffffffffffffffffffffffffffffff168273ffffffffffffffffffffffffffffffffffffffff161415612a2b576040517f08c379a0000000000000000000000000000000000000000000000000000000008152600401612a2290614a94565b60405180910390fd5b612a368383836135ce565b612a416000826127ae565b6001600360008573ffffffffffffffffffffffffffffffffffffffff1673ffffffffffffffffffffffffffffffffffffffff1681526020019081526020016000206000828254612a919190614f7d565b925050819055506001600360008473ffffffffffffffffffffffffffffffffffffffff1673ffffffffffffffffffffffffffffffffffffffff1681526020019081526020016000206000828254612ae89190614ef6565b92505081905550816002600083815260200190815260200160002060006101000a81548173ffffffffffffffffffffffffffffffffffffffff021916908373ffffffffffffffffffffffffffffffffffffffff160217905550808273ffffffffffffffffffffffffffffffffffffffff168473ffffffffffffffffffffffffffffffffffffffff167fddf252ad1be2c89b69c2b068fc378daa952ba7f163c4a11628f55a4df523b3ef60405160405180910390a4505050565b612ba96114e2565b612be8576040517f08c379a0000000000000000000000000000000000000000000000000000000008152600401612bdf906149d4565b60405180910390fd5b6000600a60006101000a81548160ff0219169083151502179055507f5db9ee0a495bf2e6ff9c91a7834c1ba4fdd244a5e8aa4e537bd38aeae4b073aa612c2c6127a6565b604051612c3991906148f3565b60405180910390a1565b6000600a60019054906101000a900473ffffffffffffffffffffffffffffffffffffffff16905081600a60016101000a81548173ffffffffffffffffffffffffffffffffffffffff021916908373ffffffffffffffffffffffffffffffffffffffff1602179055508173ffffffffffffffffffffffffffffffffffffffff168173ffffffffffffffffffffffffffffffffffffffff167f8be0079c531659141344cd1fd0a4f28419497f9722a3daafe3b4186f6b6457e060405160405180910390a35050565b612d116114e2565b15612d51576040517f08c379a0000000000000000000000000000000000000000000000000000000008152600401612d4890614b14565b60405180910390fd5b6001600a60006101000a81548160ff0219169083151502179055507f62e78cea01bee320cd4e420270b5ea74000d11b0c9f74754ebdbfc544b05a258612d956127a6565b604051612da291906148f3565b60405180910390a1565b6040518061018001604052808381526020016040518060400160405280600181526020017f20000000000000000000000000000000000000000000000000000000000000008152508152602001600081526020016000815260200160006002811115612e41577f4e487b7100000000000000000000000000000000000000000000000000000000600052602160045260246000fd5b815260200160108381548110612e80577f4e487b7100000000000000000000000000000000000000000000000000000000600052603260045260246000fd5b906000526020600020018054612e959061508c565b80601f0160208091040260200160405190810160405280929190818152602001828054612ec19061508c565b8015612f0e5780601f10612ee357610100808354040283529160200191612f0e565b820191906000526020600020905b815481529060010190602001808311612ef157829003601f168201915b5050505050815260200160118381548110612f52577f4e487b7100000000000000000000000000000000000000000000000000000000600052603260045260246000fd5b906000526020600020018054612f679061508c565b80601f0160208091040260200160405190810160405280929190818152602001828054612f939061508c565b8015612fe05780601f10612fb557610100808354040283529160200191612fe0565b820191906000526020600020905b815481529060010190602001808311612fc357829003601f168201915b505050505081526020016103e881526020016012838154811061302c577f4e487b7100000000000000000000000000000000000000000000000000000000600052603260045260246000fd5b9060005260206000200154815260200160138381548110613076577f4e487b7100000000000000000000000000000000000000000000000000000000600052603260045260246000fd5b90600052602060002001548152602001601483815481106130c0577f4e487b7100000000000000000000000000000000000000000000000000000000600052603260045260246000fd5b906000526020600020015481526020016015838154811061310a577f4e487b7100000000000000000000000000000000000000000000000000000000600052603260045260246000fd5b906000526020600020015481525060166000848152602001908152602001600020600082015181600001556020820151816001019080519060200190613151929190613ef4565b50604082015181600201556060820151816003015560808201518160040160006101000a81548160ff021916908360028111156131b7577f4e487b7100000000000000000000000000000000000000000000000000000000600052602160045260246000fd5b021790555060a08201518160050190805190602001906131d8929190613ef4565b5060c08201518160060190805190602001906131f5929190613ef4565b5060e082015181600701556101008201518160080155610120820151816009015561014082015181600a015561016082015181600b01559050505050565b61324d828260405180602001604052806000815250613626565b5050565b61325c848484612945565b61326884848484613681565b6132a7576040517f08c379a000000000000000000000000000000000000000000000000000000000815260040161329e90614a34565b60405180910390fd5b50505050565b6060600e80546132bc9061508c565b80601f01602080910402602001604051908101604052809291908181526020018280546132e89061508c565b80156133355780601f1061330a57610100808354040283529160200191613335565b820191906000526020600020905b81548152906001019060200180831161331857829003601f168201915b5050505050905090565b60606000821415613387576040518060400160405280600181526020017f300000000000000000000000000000000000000000000000000000000000000081525090506134e7565b600082905060005b600082146133b95780806133a2906150ef565b915050600a826133b29190614f4c565b915061338f565b60008167ffffffffffffffff8111156133fb577f4e487b7100000000000000000000000000000000000000000000000000000000600052604160045260246000fd5b6040519080825280601f01601f19166020018201604052801561342d5781602001600182028036833780820191505090505b5090505b600085146134e0576001826134469190614f7d565b9150600a856134559190615138565b60306134619190614ef6565b60f81b81838151811061349d577f4e487b7100000000000000000000000000000000000000000000000000000000600052603260045260246000fd5b60200101907effffffffffffffffffffffffffffffffffffffffffffffffffffffffffffff1916908160001a905350600a856134d99190614f4c565b9450613431565b8093505050505b919050565b60007f80ac58cd000000000000000000000000000000000000000000000000000000007bffffffffffffffffffffffffffffffffffffffffffffffffffffffff1916827bffffffffffffffffffffffffffffffffffffffffffffffffffffffff191614806135b757507f5b5e139f000000000000000000000000000000000000000000000000000000007bffffffffffffffffffffffffffffffffffffffffffffffffffffffff1916827bffffffffffffffffffffffffffffffffffffffffffffffffffffffff1916145b806135c757506135c682613818565b5b9050919050565b6135d66114e2565b15613616576040517f08c379a000000000000000000000000000000000000000000000000000000000815260040161360d90614b14565b60405180910390fd5b613621838383613882565b505050565b6136308383613996565b61363d6000848484613681565b61367c576040517f08c379a000000000000000000000000000000000000000000000000000000000815260040161367390614a34565b60405180910390fd5b505050565b60006136a28473ffffffffffffffffffffffffffffffffffffffff16613b64565b1561380b578373ffffffffffffffffffffffffffffffffffffffff1663150b7a026136cb6127a6565b8786866040518563ffffffff1660e01b81526004016136ed949392919061490e565b602060405180830381600087803b15801561370757600080fd5b505af192505050801561373857506040513d601f19601f820116820180604052508101906137359190614377565b60015b6137bb573d8060008114613768576040519150601f19603f3d011682016040523d82523d6000602084013e61376d565b606091505b506000815114156137b3576040517f08c379a00000000000000000000000000000000000000000000000000000000081526004016137aa90614a34565b60405180910390fd5b805181602001fd5b63150b7a0260e01b7bffffffffffffffffffffffffffffffffffffffffffffffffffffffff1916817bffffffffffffffffffffffffffffffffffffffffffffffffffffffff191614915050613810565b600190505b949350505050565b60007f01ffc9a7000000000000000000000000000000000000000000000000000000007bffffffffffffffffffffffffffffffffffffffffffffffffffffffff1916827bffffffffffffffffffffffffffffffffffffffffffffffffffffffff1916149050919050565b61388d838383613b77565b600073ffffffffffffffffffffffffffffffffffffffff168373ffffffffffffffffffffffffffffffffffffffff1614156138d0576138cb81613b7c565b61390f565b8173ffffffffffffffffffffffffffffffffffffffff168373ffffffffffffffffffffffffffffffffffffffff161461390e5761390d8382613bc5565b5b5b600073ffffffffffffffffffffffffffffffffffffffff168273ffffffffffffffffffffffffffffffffffffffff1614156139525761394d81613d32565b613991565b8273ffffffffffffffffffffffffffffffffffffffff168273ffffffffffffffffffffffffffffffffffffffff16146139905761398f8282613e75565b5b5b505050565b600073ffffffffffffffffffffffffffffffffffffffff168273ffffffffffffffffffffffffffffffffffffffff161415613a06576040517f08c379a00000000000000000000000000000000000000000000000000000000081526004016139fd90614bb4565b60405180910390fd5b613a0f8161273a565b15613a4f576040517f08c379a0000000000000000000000000000000000000000000000000000000008152600401613a4690614a74565b60405180910390fd5b613a5b600083836135ce565b6001600360008473ffffffffffffffffffffffffffffffffffffffff1673ffffffffffffffffffffffffffffffffffffffff1681526020019081526020016000206000828254613aab9190614ef6565b92505081905550816002600083815260200190815260200160002060006101000a81548173ffffffffffffffffffffffffffffffffffffffff021916908373ffffffffffffffffffffffffffffffffffffffff160217905550808273ffffffffffffffffffffffffffffffffffffffff16600073ffffffffffffffffffffffffffffffffffffffff167fddf252ad1be2c89b69c2b068fc378daa952ba7f163c4a11628f55a4df523b3ef60405160405180910390a45050565b600080823b905060008111915050919050565b505050565b6008805490506009600083815260200190815260200160002081905550600881908060018154018082558091505060019003906000526020600020016000909190919091505550565b60006001613bd2846116a9565b613bdc9190614f7d565b9050600060076000848152602001908152602001600020549050818114613cc1576000600660008673ffffffffffffffffffffffffffffffffffffffff1673ffffffffffffffffffffffffffffffffffffffff168152602001908152602001600020600084815260200190815260200160002054905080600660008773ffffffffffffffffffffffffffffffffffffffff1673ffffffffffffffffffffffffffffffffffffffff168152602001908152602001600020600084815260200190815260200160002081905550816007600083815260200190815260200160002081905550505b6007600084815260200190815260200160002060009055600660008573ffffffffffffffffffffffffffffffffffffffff1673ffffffffffffffffffffffffffffffffffffffff16815260200190815260200160002060008381526020019081526020016000206000905550505050565b60006001600880549050613d469190614f7d565b9050600060096000848152602001908152602001600020549050600060088381548110613d9c577f4e487b7100000000000000000000000000000000000000000000000000000000600052603260045260246000fd5b906000526020600020015490508060088381548110613de4577f4e487b7100000000000000000000000000000000000000000000000000000000600052603260045260246000fd5b906000526020600020018190555081600960008381526020019081526020016000208190555060096000858152602001908152602001600020600090556008805480613e59577f4e487b7100000000000000000000000000000000000000000000000000000000600052603160045260246000fd5b6001900381819060005260206000200160009055905550505050565b6000613e80836116a9565b905081600660008573ffffffffffffffffffffffffffffffffffffffff1673ffffffffffffffffffffffffffffffffffffffff168152602001908152602001600020600083815260200190815260200160002081905550806007600084815260200190815260200160002081905550505050565b828054613f009061508c565b90600052602060002090601f016020900481019282613f225760008555613f69565b82601f10613f3b57805160ff1916838001178555613f69565b82800160010185558215613f69579182015b82811115613f68578251825591602001919060010190613f4d565b5b509050613f769190613f7a565b5090565b5b80821115613f93576000816000905550600101613f7b565b5090565b6000613faa613fa584614dec565b614dc7565b90508083825260208201905082856020860282011115613fc957600080fd5b60005b85811015613ff95781613fdf888261407f565b845260208401935060208301925050600181019050613fcc565b5050509392505050565b600061401661401184614e18565b614dc7565b90508281526020810184848401111561402e57600080fd5b61403984828561504a565b509392505050565b600061405461404f84614e49565b614dc7565b90508281526020810184848401111561406c57600080fd5b61407784828561504a565b509392505050565b60008135905061408e81615888565b92915050565b600082601f8301126140a557600080fd5b81356140b5848260208601613f97565b91505092915050565b6000813590506140cd8161589f565b92915050565b6000813590506140e2816158b6565b92915050565b6000815190506140f7816158b6565b92915050565b600082601f83011261410e57600080fd5b813561411e848260208601614003565b91505092915050565b600082601f83011261413857600080fd5b8135614148848260208601614041565b91505092915050565b600081359050614160816158cd565b92915050565b60006020828403121561417857600080fd5b60006141868482850161407f565b91505092915050565b600080604083850312156141a257600080fd5b60006141b08582860161407f565b92505060206141c18582860161407f565b9150509250929050565b6000806000606084860312156141e057600080fd5b60006141ee8682870161407f565b93505060206141ff8682870161407f565b925050604061421086828701614151565b9150509250925092565b6000806000806080858703121561423057600080fd5b600061423e8782880161407f565b945050602061424f8782880161407f565b935050604061426087828801614151565b925050606085013567ffffffffffffffff81111561427d57600080fd5b614289878288016140fd565b91505092959194509250565b600080604083850312156142a857600080fd5b60006142b68582860161407f565b92505060206142c7858286016140be565b9150509250929050565b600080604083850312156142e457600080fd5b60006142f28582860161407f565b925050602061430385828601614151565b9150509250929050565b60006020828403121561431f57600080fd5b600082013567ffffffffffffffff81111561433957600080fd5b61434584828501614094565b91505092915050565b60006020828403121561436057600080fd5b600061436e848285016140d3565b91505092915050565b60006020828403121561438957600080fd5b6000614397848285016140e8565b91505092915050565b6000602082840312156143b257600080fd5b600082013567ffffffffffffffff8111156143cc57600080fd5b6143d884828501614127565b91505092915050565b6000602082840312156143f357600080fd5b600061440184828501614151565b91505092915050565b6000806040838503121561441d57600080fd5b600061442b85828601614151565b925050602061443c85828601614151565b9150509250929050565b600061445283836148b1565b60208301905092915050565b61446781614fb1565b82525050565b600061447882614e8a565b6144828185614eb8565b935061448d83614e7a565b8060005b838110156144be5781516144a58882614446565b97506144b083614eab565b925050600181019050614491565b5085935050505092915050565b6144d481614fc3565b82525050565b60006144e582614e95565b6144ef8185614ec9565b93506144ff818560208601615059565b61450881615254565b840191505092915050565b61451c81615038565b82525050565b600061452d82614ea0565b6145378185614eda565b9350614547818560208601615059565b61455081615254565b840191505092915050565b600061456682614ea0565b6145708185614eeb565b9350614580818560208601615059565b80840191505092915050565b6000614599601483614eda565b91506145a482615265565b602082019050919050565b60006145bc601e83614eda565b91506145c78261528e565b602082019050919050565b60006145df602b83614eda565b91506145ea826152b7565b604082019050919050565b6000614602603283614eda565b915061460d82615306565b604082019050919050565b6000614625602683614eda565b915061463082615355565b604082019050919050565b6000614648601c83614eda565b9150614653826153a4565b602082019050919050565b600061466b602483614eda565b9150614676826153cd565b604082019050919050565b600061468e601983614eda565b91506146998261541c565b602082019050919050565b60006146b1602583614eda565b91506146bc82615445565b604082019050919050565b60006146d4602c83614eda565b91506146df82615494565b604082019050919050565b60006146f7601083614eda565b9150614702826154e3565b602082019050919050565b600061471a603883614eda565b91506147258261550c565b604082019050919050565b600061473d602a83614eda565b91506147488261555b565b604082019050919050565b6000614760602983614eda565b915061476b826155aa565b604082019050919050565b6000614783603583614eda565b915061478e826155f9565b604082019050919050565b60006147a6602083614eda565b91506147b182615648565b602082019050919050565b60006147c9602c83614eda565b91506147d482615671565b604082019050919050565b60006147ec602083614eda565b91506147f7826156c0565b602082019050919050565b600061480f602983614eda565b915061481a826156e9565b604082019050919050565b6000614832602f83614eda565b915061483d82615738565b604082019050919050565b6000614855602183614eda565b915061486082615787565b604082019050919050565b6000614878603183614eda565b9150614883826157d6565b604082019050919050565b600061489b602c83614eda565b91506148a682615825565b604082019050919050565b6148ba8161502e565b82525050565b6148c98161502e565b82525050565b60006148db828561455b565b91506148e7828461455b565b91508190509392505050565b6000602082019050614908600083018461445e565b92915050565b6000608082019050614923600083018761445e565b614930602083018661445e565b61493d60408301856148c0565b818103606083015261494f81846144da565b905095945050505050565b60006020820190508181036000830152614974818461446d565b905092915050565b600060208201905061499160008301846144cb565b92915050565b60006020820190506149ac6000830184614513565b92915050565b600060208201905081810360008301526149cc8184614522565b905092915050565b600060208201905081810360008301526149ed8161458c565b9050919050565b60006020820190508181036000830152614a0d816145af565b9050919050565b60006020820190508181036000830152614a2d816145d2565b9050919050565b60006020820190508181036000830152614a4d816145f5565b9050919050565b60006020820190508181036000830152614a6d81614618565b9050919050565b60006020820190508181036000830152614a8d8161463b565b9050919050565b60006020820190508181036000830152614aad8161465e565b9050919050565b60006020820190508181036000830152614acd81614681565b9050919050565b60006020820190508181036000830152614aed816146a4565b9050919050565b60006020820190508181036000830152614b0d816146c7565b9050919050565b60006020820190508181036000830152614b2d816146ea565b9050919050565b60006020820190508181036000830152614b4d8161470d565b9050919050565b60006020820190508181036000830152614b6d81614730565b9050919050565b60006020820190508181036000830152614b8d81614753565b9050919050565b60006020820190508181036000830152614bad81614776565b9050919050565b60006020820190508181036000830152614bcd81614799565b9050919050565b60006020820190508181036000830152614bed816147bc565b9050919050565b60006020820190508181036000830152614c0d816147df565b9050919050565b60006020820190508181036000830152614c2d81614802565b9050919050565b60006020820190508181036000830152614c4d81614825565b9050919050565b60006020820190508181036000830152614c6d81614848565b9050919050565b60006020820190508181036000830152614c8d8161486b565b9050919050565b60006020820190508181036000830152614cad8161488e565b9050919050565b6000602082019050614cc960008301846148c0565b92915050565b600061018082019050614ce5600083018f6148c0565b8181036020830152614cf7818e614522565b9050614d06604083018d6148c0565b614d13606083018c6148c0565b614d20608083018b614513565b81810360a0830152614d32818a614522565b905081810360c0830152614d468189614522565b9050614d5560e08301886148c0565b614d636101008301876148c0565b614d716101208301866148c0565b614d7f6101408301856148c0565b614d8d6101608301846148c0565b9d9c50505050505050505050505050565b6000604082019050614db360008301856148c0565b614dc060208301846148c0565b9392505050565b6000614dd1614de2565b9050614ddd82826150be565b919050565b6000604051905090565b600067ffffffffffffffff821115614e0757614e06615225565b5b602082029050602081019050919050565b600067ffffffffffffffff821115614e3357614e32615225565b5b614e3c82615254565b9050602081019050919050565b600067ffffffffffffffff821115614e6457614e63615225565b5b614e6d82615254565b9050602081019050919050565b6000819050602082019050919050565b600081519050919050565b600081519050919050565b600081519050919050565b6000602082019050919050565b600082825260208201905092915050565b600082825260208201905092915050565b600082825260208201905092915050565b600081905092915050565b6000614f018261502e565b9150614f0c8361502e565b9250827fffffffffffffffffffffffffffffffffffffffffffffffffffffffffffffffff03821115614f4157614f40615169565b5b828201905092915050565b6000614f578261502e565b9150614f628361502e565b925082614f7257614f71615198565b5b828204905092915050565b6000614f888261502e565b9150614f938361502e565b925082821015614fa657614fa5615169565b5b828203905092915050565b6000614fbc8261500e565b9050919050565b60008115159050919050565b60007fffffffff0000000000000000000000000000000000000000000000000000000082169050919050565b600081905061500982615874565b919050565b600073ffffffffffffffffffffffffffffffffffffffff82169050919050565b6000819050919050565b600061504382614ffb565b9050919050565b82818337600083830152505050565b60005b8381101561507757808201518184015260208101905061505c565b83811115615086576000848401525b50505050565b600060028204905060018216806150a457607f821691505b602082108114156150b8576150b76151f6565b5b50919050565b6150c782615254565b810181811067ffffffffffffffff821117156150e6576150e5615225565b5b80604052505050565b60006150fa8261502e565b91507fffffffffffffffffffffffffffffffffffffffffffffffffffffffffffffffff82141561512d5761512c615169565b5b600182019050919050565b60006151438261502e565b915061514e8361502e565b92508261515e5761515d615198565b5b828206905092915050565b7f4e487b7100000000000000000000000000000000000000000000000000000000600052601160045260246000fd5b7f4e487b7100000000000000000000000000000000000000000000000000000000600052601260045260246000fd5b7f4e487b7100000000000000000000000000000000000000000000000000000000600052602160045260246000fd5b7f4e487b7100000000000000000000000000000000000000000000000000000000600052602260045260246000fd5b7f4e487b7100000000000000000000000000000000000000000000000000000000600052604160045260246000fd5b6000601f19601f8301169050919050565b7f5061757361626c653a206e6f7420706175736564000000000000000000000000600082015250565b7f5468657265206973206e6f20726f626f74206f66207468617420747970650000600082015250565b7f455243373231456e756d657261626c653a206f776e657220696e646578206f7560008201527f74206f6620626f756e6473000000000000000000000000000000000000000000602082015250565b7f4552433732313a207472616e7366657220746f206e6f6e20455243373231526560008201527f63656976657220696d706c656d656e7465720000000000000000000000000000602082015250565b7f4f776e61626c653a206e6577206f776e657220697320746865207a65726f206160008201527f6464726573730000000000000000000000000000000000000000000000000000602082015250565b7f4552433732313a20746f6b656e20616c7265616479206d696e74656400000000600082015250565b7f4552433732313a207472616e7366657220746f20746865207a65726f2061646460008201527f7265737300000000000000000000000000000000000000000000000000000000602082015250565b7f4552433732313a20617070726f766520746f2063616c6c657200000000000000600082015250565b7f54686520726f626f742073616c65206973206e6f742063757272656e746c792060008201527f6f70656e2e000000000000000000000000000000000000000000000000000000602082015250565b7f4552433732313a206f70657261746f7220717565727920666f72206e6f6e657860008201527f697374656e7420746f6b656e0000000000000000000000000000000000000000602082015250565b7f5061757361626c653a2070617573656400000000000000000000000000000000600082015250565b7f4552433732313a20617070726f76652063616c6c6572206973206e6f74206f7760008201527f6e6572206e6f7220617070726f76656420666f7220616c6c0000000000000000602082015250565b7f4552433732313a2062616c616e636520717565727920666f7220746865207a6560008201527f726f206164647265737300000000000000000000000000000000000000000000602082015250565b7f4552433732313a206f776e657220717565727920666f72206e6f6e657869737460008201527f656e7420746f6b656e0000000000000000000000000000000000000000000000602082015250565b7f5468652076616c7565207375626d69747465642077697468207468697320747260008201527f616e73616374696f6e20697320746f6f206c6f772e0000000000000000000000602082015250565b7f4552433732313a206d696e7420746f20746865207a65726f2061646472657373600082015250565b7f4552433732313a20617070726f76656420717565727920666f72206e6f6e657860008201527f697374656e7420746f6b656e0000000000000000000000000000000000000000602082015250565b7f4f776e61626c653a2063616c6c6572206973206e6f7420746865206f776e6572600082015250565b7f4552433732313a207472616e73666572206f6620746f6b656e2074686174206960008201527f73206e6f74206f776e0000000000000000000000000000000000000000000000602082015250565b7f4552433732314d657461646174613a2055524920717565727920666f72206e6f60008201527f6e6578697374656e7420746f6b656e0000000000000000000000000000000000602082015250565b7f4552433732313a20617070726f76616c20746f2063757272656e74206f776e6560008201527f7200000000000000000000000000000000000000000000000000000000000000602082015250565b7f4552433732313a207472616e736665722063616c6c6572206973206e6f74206f60008201527f776e6572206e6f7220617070726f766564000000000000000000000000000000602082015250565b7f455243373231456e756d657261626c653a20676c6f62616c20696e646578206f60008201527f7574206f6620626f756e64730000000000000000000000000000000000000000602082015250565b60038110615885576158846151c7565b5b50565b61589181614fb1565b811461589c57600080fd5b50565b6158a881614fc3565b81146158b357600080fd5b50565b6158bf81614fcf565b81146158ca57600080fd5b50565b6158d68161502e565b81146158e157600080fd5b5056fea2646970667358221220800def559584c20cdf1db17d9993d5c6d24aa28ba6ee83eb61c578afb6205d6164736f6c63430008020033",
  "immutableReferences": {},
  "source": "// contracts/Robot.sol\n// SPDX-License-Identifier: MIT\npragma solidity ^0.8.2;\n\nimport \"@openzeppelin/contracts/token/ERC721/ERC721.sol\";\nimport \"@openzeppelin/contracts/token/ERC721/extensions/ERC721Enumerable.sol\";\nimport \"@openzeppelin/contracts/token/ERC1155/IERC1155.sol\";\nimport \"@openzeppelin/contracts/utils/math/SafeMath.sol\";\nimport \"@openzeppelin/contracts/security/Pausable.sol\";\nimport \"./Whitelist.sol\";\n\ncontract Robot is ERC721, ERC721Enumerable, Pausable, Whitelist {\n\n    using SafeMath for uint256;\n\n    uint256 private _saleTime = 1634451621; // 7PM EDT on November 1st\n    uint256 private _price = 8 * 10**16; // .08 eth\n\n    string private _baseTokenURI;\n\n    // Address where funds are collected\n    address payable private _wallet;\n\n    string[] private robotName = [\"Robot1\", \"Robot2\", \"Robot3\", \"Robot4\"];\n    string[] private robotType = [\"Tank\", \"Speedy\", \"Defender\", \"Retired\"];\n    uint256[] private strength = [20, 10, 10, 20];\n    uint256[] private agility = [10, 20, 10, 20];\n    uint256[] private ai = [10, 20, 20, 10];\n    uint256[] private defense = [20, 10, 20, 10];\n\n    mapping(uint256 => RobotAttributes) public robots;\n\n    enum State {\n        Fighter, // 0\n        Trainer, // 1\n        Retired // 2\n    }\n\n    State constant defaultState = State.Fighter;\n\n    struct RobotAttributes {\n        uint256 robotIndex;\n        string imageURI;\n        uint256 wins;\n        uint256 losses;\n        State state;\n        string robotName;\n        string robotType;\n        uint256 health;\n        uint256 strength;\n        uint256 agility;\n        uint256 ai;\n        uint256 defense;\n    }\n\n    constructor(string memory baseURI, address payable wallet) ERC721(\"Robot\", \"RBT\") {\n        setBaseURI(baseURI);\n        _wallet = wallet;\n    }\n\n    function pause() public onlyOwner {\n        _pause();\n    }\n\n    function unpause() public onlyOwner {\n        _unpause();\n    }\n\n    function setSaleTime(uint256 time) public onlyOwner {\n        _saleTime = time;\n    }\n\n    function getSaleTime() public view returns (uint256) {\n        return _saleTime;\n    }\n\n    function isSaleOpen() public view returns (bool) {\n        return block.timestamp >= _saleTime;\n    }\n\n    function setBaseURI(string memory baseURI) public onlyOwner {\n        _baseTokenURI = baseURI;\n    }\n\n    function _baseURI() internal view virtual override returns (string memory) {\n        return _baseTokenURI;\n    }\n\n    function _beforeTokenTransfer(address from, address to, uint256 tokenId)\n        internal\n        whenNotPaused\n        override(ERC721, ERC721Enumerable)\n    {\n        super._beforeTokenTransfer(from, to, tokenId);\n    }\n\n   // The following function override required by Solidity.\n    function supportsInterface(bytes4 interfaceId)\n        public\n        view\n        override(ERC721, ERC721Enumerable)\n        returns (bool)\n    {\n        return super.supportsInterface(interfaceId);\n    }\n\n    function _createRobot(uint256 index, uint256 typeIndex) internal {\n        robots[index] = RobotAttributes({\n            robotIndex: index,\n            imageURI: \" \",\n            wins: 0,\n            losses: 0,\n            state: defaultState,\n            robotName: robotName[typeIndex],\n            robotType: robotType[typeIndex],\n            health: 1000,\n            strength: strength[typeIndex],\n            agility: agility[typeIndex],\n            ai: ai[typeIndex],\n            defense: defense[typeIndex]\n        });\n    }\n\n    // Count is how many they want to mint\n    function mint(uint256 botType) public whenNotPaused payable {\n        uint256 totalSupply = totalSupply();\n        require(botType < 4, \"There is no robot of that type\");\n        require(\n            msg.value >= _price || owner() == _msgSender(),\n            \"The value submitted with this transaction is too low.\"\n        );\n        require(\n            block.timestamp >= _saleTime,\n            \"The robot sale is not currently open.\"\n        );\n\n        uint256 index = totalSupply + 1;\n        _createRobot(index, botType);\n        _safeMint(msg.sender, index);\n    }\n\n    function updateRobotsRecords(uint256 winningRobotIndex, uint256 losingRobotIndex) public whenNotPaused onlyWhitelisted {\n        robots[winningRobotIndex].wins += 1;\n        robots[losingRobotIndex].losses += 1;\n    }\n\n    function setRobotAsFighter(uint256 robotIndex) public whenNotPaused onlyOwner {\n        robots[robotIndex].state = State.Fighter;\n    }\n\n    function setRobotAsTrainer(uint256 robotIndex) public whenNotPaused onlyOwner {\n        robots[robotIndex].state = State.Trainer;\n    }\n\n    function setRobotAsRetired(uint256 robotIndex) public whenNotPaused onlyOwner {\n        robots[robotIndex].state = State.Retired;\n    }\n\n    function getRobotRecord(uint256 robotIndex) public view returns(uint256, uint256) {\n        return(robots[robotIndex].wins, robots[robotIndex].losses);\n    }\n\n    function getRobotState(uint256 robotIndex) public view returns(State) {\n        return robots[robotIndex].state;\n    }\n\n    function walletOfOwner(address _owner)\n        public\n        view\n        returns (uint256[] memory)\n    {\n        uint256 tokenCount = balanceOf(_owner);\n\n        if (tokenCount == 0) {\n            // Return an empty array\n            return new uint256[](0);\n        }\n\n        uint256[] memory tokensId = new uint256[](tokenCount);\n        for (uint256 i; i < tokenCount; i++) {\n            tokensId[i] = tokenOfOwnerByIndex(_owner, i);\n        }\n        return tokensId;\n    }\n\n    function withdrawAll() public payable onlyOwner {\n        require(_wallet.send(address(this).balance));\n    }\n}\n",
  "sourcePath": "/home/seandevs/workspaces/celo-hackathon/nfts/robots/contracts/Robot.sol",
  "compiler": {
    "name": "solc",
    "version": "0.8.2+commit.661d1103.Emscripten.clang"
  },
  "schemaVersion": "3.4.1",
  "updatedAt": "2021-11-04T02:44:00.805Z",
  "networkType": "ethereum",
  "devdoc": {
    "kind": "dev",
    "methods": {
      "approve(address,uint256)": {
        "details": "See {IERC721-approve}."
      },
      "balanceOf(address)": {
        "details": "See {IERC721-balanceOf}."
      },
      "getApproved(uint256)": {
        "details": "See {IERC721-getApproved}."
      },
      "isApprovedForAll(address,address)": {
        "details": "See {IERC721-isApprovedForAll}."
      },
      "name()": {
        "details": "See {IERC721Metadata-name}."
      },
      "owner()": {
        "details": "Returns the address of the current owner."
      },
      "ownerOf(uint256)": {
        "details": "See {IERC721-ownerOf}."
      },
      "paused()": {
        "details": "Returns true if the contract is paused, and false otherwise."
      },
      "renounceOwnership()": {
        "details": "Leaves the contract without owner. It will not be possible to call `onlyOwner` functions anymore. Can only be called by the current owner. NOTE: Renouncing ownership will leave the contract without an owner, thereby removing any functionality that is only available to the owner."
      },
      "safeTransferFrom(address,address,uint256)": {
        "details": "See {IERC721-safeTransferFrom}."
      },
      "safeTransferFrom(address,address,uint256,bytes)": {
        "details": "See {IERC721-safeTransferFrom}."
      },
      "setApprovalForAll(address,bool)": {
        "details": "See {IERC721-setApprovalForAll}."
      },
      "symbol()": {
        "details": "See {IERC721Metadata-symbol}."
      },
      "tokenByIndex(uint256)": {
        "details": "See {IERC721Enumerable-tokenByIndex}."
      },
      "tokenOfOwnerByIndex(address,uint256)": {
        "details": "See {IERC721Enumerable-tokenOfOwnerByIndex}."
      },
      "tokenURI(uint256)": {
        "details": "See {IERC721Metadata-tokenURI}."
      },
      "totalSupply()": {
        "details": "See {IERC721Enumerable-totalSupply}."
      },
      "transferFrom(address,address,uint256)": {
        "details": "See {IERC721-transferFrom}."
      },
      "transferOwnership(address)": {
        "details": "Transfers ownership of the contract to a new account (`newOwner`). Can only be called by the current owner."
      }
    },
    "version": 1
  },
  "userdoc": {
    "kind": "user",
    "methods": {},
    "version": 1
  }
}