{
  "contractName": "Robot",
  "abi": [
    {
      "inputs": [
        {
          "internalType": "string",
          "name": "baseURI",
          "type": "string"
        }
      ],
      "stateMutability": "nonpayable",
      "type": "constructor"
    },
    {
      "anonymous": false,
      "inputs": [
        {
          "indexed": true,
          "internalType": "address",
          "name": "owner",
          "type": "address"
        },
        {
          "indexed": true,
          "internalType": "address",
          "name": "approved",
          "type": "address"
        },
        {
          "indexed": true,
          "internalType": "uint256",
          "name": "tokenId",
          "type": "uint256"
        }
      ],
      "name": "Approval",
      "type": "event"
    },
    {
      "anonymous": false,
      "inputs": [
        {
          "indexed": true,
          "internalType": "address",
          "name": "owner",
          "type": "address"
        },
        {
          "indexed": true,
          "internalType": "address",
          "name": "operator",
          "type": "address"
        },
        {
          "indexed": false,
          "internalType": "bool",
          "name": "approved",
          "type": "bool"
        }
      ],
      "name": "ApprovalForAll",
      "type": "event"
    },
    {
      "anonymous": false,
      "inputs": [
        {
          "indexed": true,
          "internalType": "address",
          "name": "previousOwner",
          "type": "address"
        },
        {
          "indexed": true,
          "internalType": "address",
          "name": "newOwner",
          "type": "address"
        }
      ],
      "name": "OwnershipTransferred",
      "type": "event"
    },
    {
      "anonymous": false,
      "inputs": [
        {
          "indexed": false,
          "internalType": "address",
          "name": "account",
          "type": "address"
        }
      ],
      "name": "Paused",
      "type": "event"
    },
    {
      "anonymous": false,
      "inputs": [
        {
          "indexed": true,
          "internalType": "address",
          "name": "from",
          "type": "address"
        },
        {
          "indexed": true,
          "internalType": "address",
          "name": "to",
          "type": "address"
        },
        {
          "indexed": true,
          "internalType": "uint256",
          "name": "tokenId",
          "type": "uint256"
        }
      ],
      "name": "Transfer",
      "type": "event"
    },
    {
      "anonymous": false,
      "inputs": [
        {
          "indexed": false,
          "internalType": "address",
          "name": "account",
          "type": "address"
        }
      ],
      "name": "Unpaused",
      "type": "event"
    },
    {
      "inputs": [
        {
          "internalType": "address",
          "name": "to",
          "type": "address"
        },
        {
          "internalType": "uint256",
          "name": "tokenId",
          "type": "uint256"
        }
      ],
      "name": "approve",
      "outputs": [],
      "stateMutability": "nonpayable",
      "type": "function"
    },
    {
      "inputs": [
        {
          "internalType": "address",
          "name": "owner",
          "type": "address"
        }
      ],
      "name": "balanceOf",
      "outputs": [
        {
          "internalType": "uint256",
          "name": "",
          "type": "uint256"
        }
      ],
      "stateMutability": "view",
      "type": "function",
      "constant": true
    },
    {
      "inputs": [
        {
          "internalType": "uint256",
          "name": "tokenId",
          "type": "uint256"
        }
      ],
      "name": "getApproved",
      "outputs": [
        {
          "internalType": "address",
          "name": "",
          "type": "address"
        }
      ],
      "stateMutability": "view",
      "type": "function",
      "constant": true
    },
    {
      "inputs": [
        {
          "internalType": "address",
          "name": "owner",
          "type": "address"
        },
        {
          "internalType": "address",
          "name": "operator",
          "type": "address"
        }
      ],
      "name": "isApprovedForAll",
      "outputs": [
        {
          "internalType": "bool",
          "name": "",
          "type": "bool"
        }
      ],
      "stateMutability": "view",
      "type": "function",
      "constant": true
    },
    {
      "inputs": [],
      "name": "name",
      "outputs": [
        {
          "internalType": "string",
          "name": "",
          "type": "string"
        }
      ],
      "stateMutability": "view",
      "type": "function",
      "constant": true
    },
    {
      "inputs": [],
      "name": "owner",
      "outputs": [
        {
          "internalType": "address",
          "name": "",
          "type": "address"
        }
      ],
      "stateMutability": "view",
      "type": "function",
      "constant": true
    },
    {
      "inputs": [
        {
          "internalType": "uint256",
          "name": "tokenId",
          "type": "uint256"
        }
      ],
      "name": "ownerOf",
      "outputs": [
        {
          "internalType": "address",
          "name": "",
          "type": "address"
        }
      ],
      "stateMutability": "view",
      "type": "function",
      "constant": true
    },
    {
      "inputs": [],
      "name": "paused",
      "outputs": [
        {
          "internalType": "bool",
          "name": "",
          "type": "bool"
        }
      ],
      "stateMutability": "view",
      "type": "function",
      "constant": true
    },
    {
      "inputs": [],
      "name": "renounceOwnership",
      "outputs": [],
      "stateMutability": "nonpayable",
      "type": "function"
    },
    {
      "inputs": [
        {
          "internalType": "address",
          "name": "from",
          "type": "address"
        },
        {
          "internalType": "address",
          "name": "to",
          "type": "address"
        },
        {
          "internalType": "uint256",
          "name": "tokenId",
          "type": "uint256"
        }
      ],
      "name": "safeTransferFrom",
      "outputs": [],
      "stateMutability": "nonpayable",
      "type": "function"
    },
    {
      "inputs": [
        {
          "internalType": "address",
          "name": "from",
          "type": "address"
        },
        {
          "internalType": "address",
          "name": "to",
          "type": "address"
        },
        {
          "internalType": "uint256",
          "name": "tokenId",
          "type": "uint256"
        },
        {
          "internalType": "bytes",
          "name": "_data",
          "type": "bytes"
        }
      ],
      "name": "safeTransferFrom",
      "outputs": [],
      "stateMutability": "nonpayable",
      "type": "function"
    },
    {
      "inputs": [
        {
          "internalType": "address",
          "name": "operator",
          "type": "address"
        },
        {
          "internalType": "bool",
          "name": "approved",
          "type": "bool"
        }
      ],
      "name": "setApprovalForAll",
      "outputs": [],
      "stateMutability": "nonpayable",
      "type": "function"
    },
    {
      "inputs": [],
      "name": "symbol",
      "outputs": [
        {
          "internalType": "string",
          "name": "",
          "type": "string"
        }
      ],
      "stateMutability": "view",
      "type": "function",
      "constant": true
    },
    {
      "inputs": [
        {
          "internalType": "uint256",
          "name": "index",
          "type": "uint256"
        }
      ],
      "name": "tokenByIndex",
      "outputs": [
        {
          "internalType": "uint256",
          "name": "",
          "type": "uint256"
        }
      ],
      "stateMutability": "view",
      "type": "function",
      "constant": true
    },
    {
      "inputs": [
        {
          "internalType": "address",
          "name": "owner",
          "type": "address"
        },
        {
          "internalType": "uint256",
          "name": "index",
          "type": "uint256"
        }
      ],
      "name": "tokenOfOwnerByIndex",
      "outputs": [
        {
          "internalType": "uint256",
          "name": "",
          "type": "uint256"
        }
      ],
      "stateMutability": "view",
      "type": "function",
      "constant": true
    },
    {
      "inputs": [
        {
          "internalType": "uint256",
          "name": "tokenId",
          "type": "uint256"
        }
      ],
      "name": "tokenURI",
      "outputs": [
        {
          "internalType": "string",
          "name": "",
          "type": "string"
        }
      ],
      "stateMutability": "view",
      "type": "function",
      "constant": true
    },
    {
      "inputs": [],
      "name": "totalSupply",
      "outputs": [
        {
          "internalType": "uint256",
          "name": "",
          "type": "uint256"
        }
      ],
      "stateMutability": "view",
      "type": "function",
      "constant": true
    },
    {
      "inputs": [
        {
          "internalType": "address",
          "name": "from",
          "type": "address"
        },
        {
          "internalType": "address",
          "name": "to",
          "type": "address"
        },
        {
          "internalType": "uint256",
          "name": "tokenId",
          "type": "uint256"
        }
      ],
      "name": "transferFrom",
      "outputs": [],
      "stateMutability": "nonpayable",
      "type": "function"
    },
    {
      "inputs": [
        {
          "internalType": "address",
          "name": "newOwner",
          "type": "address"
        }
      ],
      "name": "transferOwnership",
      "outputs": [],
      "stateMutability": "nonpayable",
      "type": "function"
    },
    {
      "inputs": [],
      "name": "pause",
      "outputs": [],
      "stateMutability": "nonpayable",
      "type": "function"
    },
    {
      "inputs": [],
      "name": "unpause",
      "outputs": [],
      "stateMutability": "nonpayable",
      "type": "function"
    },
    {
      "inputs": [
        {
          "internalType": "uint256",
          "name": "time",
          "type": "uint256"
        }
      ],
      "name": "setSaleTime",
      "outputs": [],
      "stateMutability": "nonpayable",
      "type": "function"
    },
    {
      "inputs": [],
      "name": "getSaleTime",
      "outputs": [
        {
          "internalType": "uint256",
          "name": "",
          "type": "uint256"
        }
      ],
      "stateMutability": "view",
      "type": "function",
      "constant": true
    },
    {
      "inputs": [],
      "name": "isSaleOpen",
      "outputs": [
        {
          "internalType": "bool",
          "name": "",
          "type": "bool"
        }
      ],
      "stateMutability": "view",
      "type": "function",
      "constant": true
    },
    {
      "inputs": [
        {
          "internalType": "string",
          "name": "baseURI",
          "type": "string"
        }
      ],
      "name": "setBaseURI",
      "outputs": [],
      "stateMutability": "nonpayable",
      "type": "function"
    },
    {
      "inputs": [
        {
          "internalType": "bytes4",
          "name": "interfaceId",
          "type": "bytes4"
        }
      ],
      "name": "supportsInterface",
      "outputs": [
        {
          "internalType": "bool",
          "name": "",
          "type": "bool"
        }
      ],
      "stateMutability": "view",
      "type": "function",
      "constant": true
    },
    {
      "inputs": [
        {
          "internalType": "uint256",
          "name": "_count",
          "type": "uint256"
        }
      ],
      "name": "mint",
      "outputs": [],
      "stateMutability": "payable",
      "type": "function",
      "payable": true
    },
    {
      "inputs": [
        {
          "internalType": "address",
          "name": "_owner",
          "type": "address"
        }
      ],
      "name": "walletOfOwner",
      "outputs": [
        {
          "internalType": "uint256[]",
          "name": "",
          "type": "uint256[]"
        }
      ],
      "stateMutability": "view",
      "type": "function",
      "constant": true
    },
    {
      "inputs": [],
      "name": "withdrawAll",
      "outputs": [],
      "stateMutability": "payable",
      "type": "function",
      "payable": true
    }
  ],
  "bytecode": "0x608060405263616bc0a5600b5567011c37937e080000600c553480156200002557600080fd5b50604051620047713803806200477183398181016040528101906200004b919062000403565b6040518060400160405280600581526020017f526f626f740000000000000000000000000000000000000000000000000000008152506040518060400160405280600381526020017f52425400000000000000000000000000000000000000000000000000000000008152508160009080519060200190620000cf929190620002e1565b508060019080519060200190620000e8929190620002e1565b5050506000600a60006101000a81548160ff021916908315150217905550620001266200011a6200013e60201b60201c565b6200014660201b60201c565b62000137816200020c60201b60201c565b50620005ee565b600033905090565b6000600a60019054906101000a900473ffffffffffffffffffffffffffffffffffffffff16905081600a60016101000a81548173ffffffffffffffffffffffffffffffffffffffff021916908373ffffffffffffffffffffffffffffffffffffffff1602179055508173ffffffffffffffffffffffffffffffffffffffff168173ffffffffffffffffffffffffffffffffffffffff167f8be0079c531659141344cd1fd0a4f28419497f9722a3daafe3b4186f6b6457e060405160405180910390a35050565b6200021c6200013e60201b60201c565b73ffffffffffffffffffffffffffffffffffffffff1662000242620002b760201b60201c565b73ffffffffffffffffffffffffffffffffffffffff16146200029b576040517f08c379a000000000000000000000000000000000000000000000000000000000815260040162000292906200048a565b60405180910390fd5b80600d9080519060200190620002b3929190620002e1565b5050565b6000600a60019054906101000a900473ffffffffffffffffffffffffffffffffffffffff16905090565b828054620002ef906200055a565b90600052602060002090601f0160209004810192826200031357600085556200035f565b82601f106200032e57805160ff19168380011785556200035f565b828001600101855582156200035f579182015b828111156200035e57825182559160200191906001019062000341565b5b5090506200036e919062000372565b5090565b5b808211156200038d57600081600090555060010162000373565b5090565b6000620003a8620003a284620004e0565b620004ac565b905082815260208101848484011115620003c157600080fd5b620003ce84828562000524565b509392505050565b600082601f830112620003e857600080fd5b8151620003fa84826020860162000391565b91505092915050565b6000602082840312156200041657600080fd5b600082015167ffffffffffffffff8111156200043157600080fd5b6200043f84828501620003d6565b91505092915050565b60006200045760208362000513565b91507f4f776e61626c653a2063616c6c6572206973206e6f7420746865206f776e65726000830152602082019050919050565b60006020820190508181036000830152620004a58162000448565b9050919050565b6000604051905081810181811067ffffffffffffffff82111715620004d657620004d5620005bf565b5b8060405250919050565b600067ffffffffffffffff821115620004fe57620004fd620005bf565b5b601f19601f8301169050602081019050919050565b600082825260208201905092915050565b60005b838110156200054457808201518184015260208101905062000527565b8381111562000554576000848401525b50505050565b600060028204905060018216806200057357607f821691505b602082108114156200058a576200058962000590565b5b50919050565b7f4e487b7100000000000000000000000000000000000000000000000000000000600052602260045260246000fd5b7f4e487b7100000000000000000000000000000000000000000000000000000000600052604160045260246000fd5b61417380620005fe6000396000f3fe6080604052600436106101c25760003560e01c80635c975abb116100f757806395d89b4111610095578063c87b56dd11610064578063c87b56dd146105fe578063cbf21fe41461063b578063e985e9c514610666578063f2fde38b146106a3576101c2565b806395d89b4114610565578063a0712d6814610590578063a22cb465146105ac578063b88d4fde146105d5576101c2565b8063715018a6116100d1578063715018a6146105025780638456cb5914610519578063853828b6146105305780638da5cb5b1461053a576101c2565b80635c975abb1461045d5780636352211e1461048857806370a08231146104c5576101c2565b80632f745c591161016457806342842e0e1161013e57806342842e0e14610391578063438b6300146103ba5780634f6ccce7146103f757806355f804b314610434576101c2565b80632f745c59146103145780633bd2b67d146103515780633f4ba83a1461037a576101c2565b8063095ea7b3116101a0578063095ea7b31461026c57806318160ddd146102955780631a081330146102c057806323b872dd146102eb576101c2565b806301ffc9a7146101c757806306fdde0314610204578063081812fc1461022f575b600080fd5b3480156101d357600080fd5b506101ee60048036038101906101e99190612e54565b6106cc565b6040516101fb9190613958565b60405180910390f35b34801561021057600080fd5b506102196106de565b6040516102269190613973565b60405180910390f35b34801561023b57600080fd5b5061025660048036038101906102519190612ee7565b610770565b60405161026391906138cf565b60405180910390f35b34801561027857600080fd5b50610293600480360381019061028e9190612e18565b6107f5565b005b3480156102a157600080fd5b506102aa61090d565b6040516102b79190613c75565b60405180910390f35b3480156102cc57600080fd5b506102d561091a565b6040516102e29190613958565b60405180910390f35b3480156102f757600080fd5b50610312600480360381019061030d9190612d12565b610927565b005b34801561032057600080fd5b5061033b60048036038101906103369190612e18565b610987565b6040516103489190613c75565b60405180910390f35b34801561035d57600080fd5b5061037860048036038101906103739190612ee7565b610a2c565b005b34801561038657600080fd5b5061038f610ab2565b005b34801561039d57600080fd5b506103b860048036038101906103b39190612d12565b610b38565b005b3480156103c657600080fd5b506103e160048036038101906103dc9190612cad565b610b58565b6040516103ee9190613936565b60405180910390f35b34801561040357600080fd5b5061041e60048036038101906104199190612ee7565b610cd4565b60405161042b9190613c75565b60405180910390f35b34801561044057600080fd5b5061045b60048036038101906104569190612ea6565b610d6b565b005b34801561046957600080fd5b50610472610e01565b60405161047f9190613958565b60405180910390f35b34801561049457600080fd5b506104af60048036038101906104aa9190612ee7565b610e18565b6040516104bc91906138cf565b60405180910390f35b3480156104d157600080fd5b506104ec60048036038101906104e79190612cad565b610eca565b6040516104f99190613c75565b60405180910390f35b34801561050e57600080fd5b50610517610f82565b005b34801561052557600080fd5b5061052e61100a565b005b610538611090565b005b34801561054657600080fd5b5061054f6110e4565b60405161055c91906138cf565b60405180910390f35b34801561057157600080fd5b5061057a61110e565b6040516105879190613973565b60405180910390f35b6105aa60048036038101906105a59190612ee7565b6111a0565b005b3480156105b857600080fd5b506105d360048036038101906105ce9190612ddc565b611304565b005b3480156105e157600080fd5b506105fc60048036038101906105f79190612d61565b611485565b005b34801561060a57600080fd5b5061062560048036038101906106209190612ee7565b6114e7565b6040516106329190613973565b60405180910390f35b34801561064757600080fd5b5061065061158e565b60405161065d9190613c75565b60405180910390f35b34801561067257600080fd5b5061068d60048036038101906106889190612cd6565b611598565b60405161069a9190613958565b60405180910390f35b3480156106af57600080fd5b506106ca60048036038101906106c59190612cad565b61162c565b005b60006106d782611724565b9050919050565b6060600080546106ed90613f68565b80601f016020809104026020016040519081016040528092919081815260200182805461071990613f68565b80156107665780601f1061073b57610100808354040283529160200191610766565b820191906000526020600020905b81548152906001019060200180831161074957829003601f168201915b5050505050905090565b600061077b8261179e565b6107ba576040517f08c379a00000000000000000000000000000000000000000000000000000000081526004016107b190613b95565b60405180910390fd5b6004600083815260200190815260200160002060009054906101000a900473ffffffffffffffffffffffffffffffffffffffff169050919050565b600061080082610e18565b90508073ffffffffffffffffffffffffffffffffffffffff168373ffffffffffffffffffffffffffffffffffffffff161415610871576040517f08c379a000000000000000000000000000000000000000000000000000000000815260040161086890613c15565b60405180910390fd5b8073ffffffffffffffffffffffffffffffffffffffff1661089061180a565b73ffffffffffffffffffffffffffffffffffffffff1614806108bf57506108be816108b961180a565b611598565b5b6108fe576040517f08c379a00000000000000000000000000000000000000000000000000000000081526004016108f590613af5565b60405180910390fd5b6109088383611812565b505050565b6000600880549050905090565b6000600b54421015905090565b61093861093261180a565b826118cb565b610977576040517f08c379a000000000000000000000000000000000000000000000000000000000815260040161096e90613c35565b60405180910390fd5b6109828383836119a9565b505050565b600061099283610eca565b82106109d3576040517f08c379a00000000000000000000000000000000000000000000000000000000081526004016109ca906139b5565b60405180910390fd5b600660008473ffffffffffffffffffffffffffffffffffffffff1673ffffffffffffffffffffffffffffffffffffffff168152602001908152602001600020600083815260200190815260200160002054905092915050565b610a3461180a565b73ffffffffffffffffffffffffffffffffffffffff16610a526110e4565b73ffffffffffffffffffffffffffffffffffffffff1614610aa8576040517f08c379a0000000000000000000000000000000000000000000000000000000008152600401610a9f90613bb5565b60405180910390fd5b80600b8190555050565b610aba61180a565b73ffffffffffffffffffffffffffffffffffffffff16610ad86110e4565b73ffffffffffffffffffffffffffffffffffffffff1614610b2e576040517f08c379a0000000000000000000000000000000000000000000000000000000008152600401610b2590613bb5565b60405180910390fd5b610b36611c05565b565b610b5383838360405180602001604052806000815250611485565b505050565b60606000610b6583610eca565b90506000811415610be857600067ffffffffffffffff811115610bb1577f4e487b7100000000000000000000000000000000000000000000000000000000600052604160045260246000fd5b604051908082528060200260200182016040528015610bdf5781602001602082028036833780820191505090505b50915050610ccf565b60008167ffffffffffffffff811115610c2a577f4e487b7100000000000000000000000000000000000000000000000000000000600052604160045260246000fd5b604051908082528060200260200182016040528015610c585781602001602082028036833780820191505090505b50905060005b82811015610cc857610c708582610987565b828281518110610ca9577f4e487b7100000000000000000000000000000000000000000000000000000000600052603260045260246000fd5b6020026020010181815250508080610cc090613f9a565b915050610c5e565b5080925050505b919050565b6000610cde61090d565b8210610d1f576040517f08c379a0000000000000000000000000000000000000000000000000000000008152600401610d1690613c55565b60405180910390fd5b60088281548110610d59577f4e487b7100000000000000000000000000000000000000000000000000000000600052603260045260246000fd5b90600052602060002001549050919050565b610d7361180a565b73ffffffffffffffffffffffffffffffffffffffff16610d916110e4565b73ffffffffffffffffffffffffffffffffffffffff1614610de7576040517f08c379a0000000000000000000000000000000000000000000000000000000008152600401610dde90613bb5565b60405180910390fd5b80600d9080519060200190610dfd929190612ad1565b5050565b6000600a60009054906101000a900460ff16905090565b6000806002600084815260200190815260200160002060009054906101000a900473ffffffffffffffffffffffffffffffffffffffff169050600073ffffffffffffffffffffffffffffffffffffffff168173ffffffffffffffffffffffffffffffffffffffff161415610ec1576040517f08c379a0000000000000000000000000000000000000000000000000000000008152600401610eb890613b35565b60405180910390fd5b80915050919050565b60008073ffffffffffffffffffffffffffffffffffffffff168273ffffffffffffffffffffffffffffffffffffffff161415610f3b576040517f08c379a0000000000000000000000000000000000000000000000000000000008152600401610f3290613b15565b60405180910390fd5b600360008373ffffffffffffffffffffffffffffffffffffffff1673ffffffffffffffffffffffffffffffffffffffff168152602001908152602001600020549050919050565b610f8a61180a565b73ffffffffffffffffffffffffffffffffffffffff16610fa86110e4565b73ffffffffffffffffffffffffffffffffffffffff1614610ffe576040517f08c379a0000000000000000000000000000000000000000000000000000000008152600401610ff590613bb5565b60405180910390fd5b6110086000611ca7565b565b61101261180a565b73ffffffffffffffffffffffffffffffffffffffff166110306110e4565b73ffffffffffffffffffffffffffffffffffffffff1614611086576040517f08c379a000000000000000000000000000000000000000000000000000000000815260040161107d90613bb5565b60405180910390fd5b61108e611d6d565b565b732b25a827c40ca0c22f2906b3c262b834e147c4fe73ffffffffffffffffffffffffffffffffffffffff166108fc479081150290604051600060405180830381858888f193505050506110e257600080fd5b565b6000600a60019054906101000a900473ffffffffffffffffffffffffffffffffffffffff16905090565b60606001805461111d90613f68565b80601f016020809104026020016040519081016040528092919081815260200182805461114990613f68565b80156111965780601f1061116b57610100808354040283529160200191611196565b820191906000526020600020905b81548152906001019060200180831161117957829003601f168201915b5050505050905090565b6111a8610e01565b156111e8576040517f08c379a00000000000000000000000000000000000000000000000000000000081526004016111df90613ab5565b60405180910390fd5b60006111f261090d565b905060158210611237576040517f08c379a000000000000000000000000000000000000000000000000000000000815260040161122e90613ad5565b60405180910390fd5b81600c546112459190613e24565b341015611287576040517f08c379a000000000000000000000000000000000000000000000000000000000815260040161127e90613b55565b60405180910390fd5b600b544210156112cc576040517f08c379a00000000000000000000000000000000000000000000000000000000081526004016112c390613a75565b60405180910390fd5b60005b828110156112ff576112ec3382846112e79190613d9d565b611e10565b80806112f790613f9a565b9150506112cf565b505050565b61130c61180a565b73ffffffffffffffffffffffffffffffffffffffff168273ffffffffffffffffffffffffffffffffffffffff16141561137a576040517f08c379a000000000000000000000000000000000000000000000000000000000815260040161137190613a55565b60405180910390fd5b806005600061138761180a565b73ffffffffffffffffffffffffffffffffffffffff1673ffffffffffffffffffffffffffffffffffffffff16815260200190815260200160002060008473ffffffffffffffffffffffffffffffffffffffff1673ffffffffffffffffffffffffffffffffffffffff16815260200190815260200160002060006101000a81548160ff0219169083151502179055508173ffffffffffffffffffffffffffffffffffffffff1661143461180a565b73ffffffffffffffffffffffffffffffffffffffff167f17307eab39ab6107e8899845ad3d59bd9653f200f220920489ca2b5937696c31836040516114799190613958565b60405180910390a35050565b61149661149061180a565b836118cb565b6114d5576040517f08c379a00000000000000000000000000000000000000000000000000000000081526004016114cc90613c35565b60405180910390fd5b6114e184848484611e2e565b50505050565b60606114f28261179e565b611531576040517f08c379a000000000000000000000000000000000000000000000000000000000815260040161152890613bf5565b60405180910390fd5b600061153b611e8a565b9050600081511161155b5760405180602001604052806000815250611586565b8061156584611f1c565b6040516020016115769291906138ab565b6040516020818303038152906040525b915050919050565b6000600b54905090565b6000600560008473ffffffffffffffffffffffffffffffffffffffff1673ffffffffffffffffffffffffffffffffffffffff16815260200190815260200160002060008373ffffffffffffffffffffffffffffffffffffffff1673ffffffffffffffffffffffffffffffffffffffff16815260200190815260200160002060009054906101000a900460ff16905092915050565b61163461180a565b73ffffffffffffffffffffffffffffffffffffffff166116526110e4565b73ffffffffffffffffffffffffffffffffffffffff16146116a8576040517f08c379a000000000000000000000000000000000000000000000000000000000815260040161169f90613bb5565b60405180910390fd5b600073ffffffffffffffffffffffffffffffffffffffff168173ffffffffffffffffffffffffffffffffffffffff161415611718576040517f08c379a000000000000000000000000000000000000000000000000000000000815260040161170f906139f5565b60405180910390fd5b61172181611ca7565b50565b60007f780e9d63000000000000000000000000000000000000000000000000000000007bffffffffffffffffffffffffffffffffffffffffffffffffffffffff1916827bffffffffffffffffffffffffffffffffffffffffffffffffffffffff191614806117975750611796826120c9565b5b9050919050565b60008073ffffffffffffffffffffffffffffffffffffffff166002600084815260200190815260200160002060009054906101000a900473ffffffffffffffffffffffffffffffffffffffff1673ffffffffffffffffffffffffffffffffffffffff1614159050919050565b600033905090565b816004600083815260200190815260200160002060006101000a81548173ffffffffffffffffffffffffffffffffffffffff021916908373ffffffffffffffffffffffffffffffffffffffff160217905550808273ffffffffffffffffffffffffffffffffffffffff1661188583610e18565b73ffffffffffffffffffffffffffffffffffffffff167f8c5be1e5ebec7d5bd14f71427d1e84f3dd0314c0f7b2291e5b200ac8c7c3b92560405160405180910390a45050565b60006118d68261179e565b611915576040517f08c379a000000000000000000000000000000000000000000000000000000000815260040161190c90613a95565b60405180910390fd5b600061192083610e18565b90508073ffffffffffffffffffffffffffffffffffffffff168473ffffffffffffffffffffffffffffffffffffffff16148061198f57508373ffffffffffffffffffffffffffffffffffffffff1661197784610770565b73ffffffffffffffffffffffffffffffffffffffff16145b806119a0575061199f8185611598565b5b91505092915050565b8273ffffffffffffffffffffffffffffffffffffffff166119c982610e18565b73ffffffffffffffffffffffffffffffffffffffff1614611a1f576040517f08c379a0000000000000000000000000000000000000000000000000000000008152600401611a1690613bd5565b60405180910390fd5b600073ffffffffffffffffffffffffffffffffffffffff168273ffffffffffffffffffffffffffffffffffffffff161415611a8f576040517f08c379a0000000000000000000000000000000000000000000000000000000008152600401611a8690613a35565b60405180910390fd5b611a9a8383836121ab565b611aa5600082611812565b6001600360008573ffffffffffffffffffffffffffffffffffffffff1673ffffffffffffffffffffffffffffffffffffffff1681526020019081526020016000206000828254611af59190613e7e565b925050819055506001600360008473ffffffffffffffffffffffffffffffffffffffff1673ffffffffffffffffffffffffffffffffffffffff1681526020019081526020016000206000828254611b4c9190613d9d565b92505081905550816002600083815260200190815260200160002060006101000a81548173ffffffffffffffffffffffffffffffffffffffff021916908373ffffffffffffffffffffffffffffffffffffffff160217905550808273ffffffffffffffffffffffffffffffffffffffff168473ffffffffffffffffffffffffffffffffffffffff167fddf252ad1be2c89b69c2b068fc378daa952ba7f163c4a11628f55a4df523b3ef60405160405180910390a4505050565b611c0d610e01565b611c4c576040517f08c379a0000000000000000000000000000000000000000000000000000000008152600401611c4390613995565b60405180910390fd5b6000600a60006101000a81548160ff0219169083151502179055507f5db9ee0a495bf2e6ff9c91a7834c1ba4fdd244a5e8aa4e537bd38aeae4b073aa611c9061180a565b604051611c9d91906138cf565b60405180910390a1565b6000600a60019054906101000a900473ffffffffffffffffffffffffffffffffffffffff16905081600a60016101000a81548173ffffffffffffffffffffffffffffffffffffffff021916908373ffffffffffffffffffffffffffffffffffffffff1602179055508173ffffffffffffffffffffffffffffffffffffffff168173ffffffffffffffffffffffffffffffffffffffff167f8be0079c531659141344cd1fd0a4f28419497f9722a3daafe3b4186f6b6457e060405160405180910390a35050565b611d75610e01565b15611db5576040517f08c379a0000000000000000000000000000000000000000000000000000000008152600401611dac90613ab5565b60405180910390fd5b6001600a60006101000a81548160ff0219169083151502179055507f62e78cea01bee320cd4e420270b5ea74000d11b0c9f74754ebdbfc544b05a258611df961180a565b604051611e0691906138cf565b60405180910390a1565b611e2a828260405180602001604052806000815250612203565b5050565b611e398484846119a9565b611e458484848461225e565b611e84576040517f08c379a0000000000000000000000000000000000000000000000000000000008152600401611e7b906139d5565b60405180910390fd5b50505050565b6060600d8054611e9990613f68565b80601f0160208091040260200160405190810160405280929190818152602001828054611ec590613f68565b8015611f125780601f10611ee757610100808354040283529160200191611f12565b820191906000526020600020905b815481529060010190602001808311611ef557829003601f168201915b5050505050905090565b60606000821415611f64576040518060400160405280600181526020017f300000000000000000000000000000000000000000000000000000000000000081525090506120c4565b600082905060005b60008214611f96578080611f7f90613f9a565b915050600a82611f8f9190613df3565b9150611f6c565b60008167ffffffffffffffff811115611fd8577f4e487b7100000000000000000000000000000000000000000000000000000000600052604160045260246000fd5b6040519080825280601f01601f19166020018201604052801561200a5781602001600182028036833780820191505090505b5090505b600085146120bd576001826120239190613e7e565b9150600a856120329190613fe3565b603061203e9190613d9d565b60f81b81838151811061207a577f4e487b7100000000000000000000000000000000000000000000000000000000600052603260045260246000fd5b60200101907effffffffffffffffffffffffffffffffffffffffffffffffffffffffffffff1916908160001a905350600a856120b69190613df3565b945061200e565b8093505050505b919050565b60007f80ac58cd000000000000000000000000000000000000000000000000000000007bffffffffffffffffffffffffffffffffffffffffffffffffffffffff1916827bffffffffffffffffffffffffffffffffffffffffffffffffffffffff1916148061219457507f5b5e139f000000000000000000000000000000000000000000000000000000007bffffffffffffffffffffffffffffffffffffffffffffffffffffffff1916827bffffffffffffffffffffffffffffffffffffffffffffffffffffffff1916145b806121a457506121a3826123f5565b5b9050919050565b6121b3610e01565b156121f3576040517f08c379a00000000000000000000000000000000000000000000000000000000081526004016121ea90613ab5565b60405180910390fd5b6121fe83838361245f565b505050565b61220d8383612573565b61221a600084848461225e565b612259576040517f08c379a0000000000000000000000000000000000000000000000000000000008152600401612250906139d5565b60405180910390fd5b505050565b600061227f8473ffffffffffffffffffffffffffffffffffffffff16612741565b156123e8578373ffffffffffffffffffffffffffffffffffffffff1663150b7a026122a861180a565b8786866040518563ffffffff1660e01b81526004016122ca94939291906138ea565b602060405180830381600087803b1580156122e457600080fd5b505af192505050801561231557506040513d601f19601f820116820180604052508101906123129190612e7d565b60015b612398573d8060008114612345576040519150601f19603f3d011682016040523d82523d6000602084013e61234a565b606091505b50600081511415612390576040517f08c379a0000000000000000000000000000000000000000000000000000000008152600401612387906139d5565b60405180910390fd5b805181602001fd5b63150b7a0260e01b7bffffffffffffffffffffffffffffffffffffffffffffffffffffffff1916817bffffffffffffffffffffffffffffffffffffffffffffffffffffffff1916149150506123ed565b600190505b949350505050565b60007f01ffc9a7000000000000000000000000000000000000000000000000000000007bffffffffffffffffffffffffffffffffffffffffffffffffffffffff1916827bffffffffffffffffffffffffffffffffffffffffffffffffffffffff1916149050919050565b61246a838383612754565b600073ffffffffffffffffffffffffffffffffffffffff168373ffffffffffffffffffffffffffffffffffffffff1614156124ad576124a881612759565b6124ec565b8173ffffffffffffffffffffffffffffffffffffffff168373ffffffffffffffffffffffffffffffffffffffff16146124eb576124ea83826127a2565b5b5b600073ffffffffffffffffffffffffffffffffffffffff168273ffffffffffffffffffffffffffffffffffffffff16141561252f5761252a8161290f565b61256e565b8273ffffffffffffffffffffffffffffffffffffffff168273ffffffffffffffffffffffffffffffffffffffff161461256d5761256c8282612a52565b5b5b505050565b600073ffffffffffffffffffffffffffffffffffffffff168273ffffffffffffffffffffffffffffffffffffffff1614156125e3576040517f08c379a00000000000000000000000000000000000000000000000000000000081526004016125da90613b75565b60405180910390fd5b6125ec8161179e565b1561262c576040517f08c379a000000000000000000000000000000000000000000000000000000000815260040161262390613a15565b60405180910390fd5b612638600083836121ab565b6001600360008473ffffffffffffffffffffffffffffffffffffffff1673ffffffffffffffffffffffffffffffffffffffff16815260200190815260200160002060008282546126889190613d9d565b92505081905550816002600083815260200190815260200160002060006101000a81548173ffffffffffffffffffffffffffffffffffffffff021916908373ffffffffffffffffffffffffffffffffffffffff160217905550808273ffffffffffffffffffffffffffffffffffffffff16600073ffffffffffffffffffffffffffffffffffffffff167fddf252ad1be2c89b69c2b068fc378daa952ba7f163c4a11628f55a4df523b3ef60405160405180910390a45050565b600080823b905060008111915050919050565b505050565b6008805490506009600083815260200190815260200160002081905550600881908060018154018082558091505060019003906000526020600020016000909190919091505550565b600060016127af84610eca565b6127b99190613e7e565b905060006007600084815260200190815260200160002054905081811461289e576000600660008673ffffffffffffffffffffffffffffffffffffffff1673ffffffffffffffffffffffffffffffffffffffff168152602001908152602001600020600084815260200190815260200160002054905080600660008773ffffffffffffffffffffffffffffffffffffffff1673ffffffffffffffffffffffffffffffffffffffff168152602001908152602001600020600084815260200190815260200160002081905550816007600083815260200190815260200160002081905550505b6007600084815260200190815260200160002060009055600660008573ffffffffffffffffffffffffffffffffffffffff1673ffffffffffffffffffffffffffffffffffffffff16815260200190815260200160002060008381526020019081526020016000206000905550505050565b600060016008805490506129239190613e7e565b9050600060096000848152602001908152602001600020549050600060088381548110612979577f4e487b7100000000000000000000000000000000000000000000000000000000600052603260045260246000fd5b9060005260206000200154905080600883815481106129c1577f4e487b7100000000000000000000000000000000000000000000000000000000600052603260045260246000fd5b906000526020600020018190555081600960008381526020019081526020016000208190555060096000858152602001908152602001600020600090556008805480612a36577f4e487b7100000000000000000000000000000000000000000000000000000000600052603160045260246000fd5b6001900381819060005260206000200160009055905550505050565b6000612a5d83610eca565b905081600660008573ffffffffffffffffffffffffffffffffffffffff1673ffffffffffffffffffffffffffffffffffffffff168152602001908152602001600020600083815260200190815260200160002081905550806007600084815260200190815260200160002081905550505050565b828054612add90613f68565b90600052602060002090601f016020900481019282612aff5760008555612b46565b82601f10612b1857805160ff1916838001178555612b46565b82800160010185558215612b46579182015b82811115612b45578251825591602001919060010190612b2a565b5b509050612b539190612b57565b5090565b5b80821115612b70576000816000905550600101612b58565b5090565b6000612b87612b8284613cc1565b613c90565b905082815260208101848484011115612b9f57600080fd5b612baa848285613f26565b509392505050565b6000612bc5612bc084613cf1565b613c90565b905082815260208101848484011115612bdd57600080fd5b612be8848285613f26565b509392505050565b600081359050612bff816140e1565b92915050565b600081359050612c14816140f8565b92915050565b600081359050612c298161410f565b92915050565b600081519050612c3e8161410f565b92915050565b600082601f830112612c5557600080fd5b8135612c65848260208601612b74565b91505092915050565b600082601f830112612c7f57600080fd5b8135612c8f848260208601612bb2565b91505092915050565b600081359050612ca781614126565b92915050565b600060208284031215612cbf57600080fd5b6000612ccd84828501612bf0565b91505092915050565b60008060408385031215612ce957600080fd5b6000612cf785828601612bf0565b9250506020612d0885828601612bf0565b9150509250929050565b600080600060608486031215612d2757600080fd5b6000612d3586828701612bf0565b9350506020612d4686828701612bf0565b9250506040612d5786828701612c98565b9150509250925092565b60008060008060808587031215612d7757600080fd5b6000612d8587828801612bf0565b9450506020612d9687828801612bf0565b9350506040612da787828801612c98565b925050606085013567ffffffffffffffff811115612dc457600080fd5b612dd087828801612c44565b91505092959194509250565b60008060408385031215612def57600080fd5b6000612dfd85828601612bf0565b9250506020612e0e85828601612c05565b9150509250929050565b60008060408385031215612e2b57600080fd5b6000612e3985828601612bf0565b9250506020612e4a85828601612c98565b9150509250929050565b600060208284031215612e6657600080fd5b6000612e7484828501612c1a565b91505092915050565b600060208284031215612e8f57600080fd5b6000612e9d84828501612c2f565b91505092915050565b600060208284031215612eb857600080fd5b600082013567ffffffffffffffff811115612ed257600080fd5b612ede84828501612c6e565b91505092915050565b600060208284031215612ef957600080fd5b6000612f0784828501612c98565b91505092915050565b6000612f1c838361388d565b60208301905092915050565b612f3181613eb2565b82525050565b6000612f4282613d31565b612f4c8185613d5f565b9350612f5783613d21565b8060005b83811015612f88578151612f6f8882612f10565b9750612f7a83613d52565b925050600181019050612f5b565b5085935050505092915050565b612f9e81613ec4565b82525050565b6000612faf82613d3c565b612fb98185613d70565b9350612fc9818560208601613f35565b612fd2816140d0565b840191505092915050565b6000612fe882613d47565b612ff28185613d81565b9350613002818560208601613f35565b61300b816140d0565b840191505092915050565b600061302182613d47565b61302b8185613d92565b935061303b818560208601613f35565b80840191505092915050565b6000613054601483613d81565b91507f5061757361626c653a206e6f74207061757365640000000000000000000000006000830152602082019050919050565b6000613094602b83613d81565b91507f455243373231456e756d657261626c653a206f776e657220696e646578206f7560008301527f74206f6620626f756e64730000000000000000000000000000000000000000006020830152604082019050919050565b60006130fa603283613d81565b91507f4552433732313a207472616e7366657220746f206e6f6e20455243373231526560008301527f63656976657220696d706c656d656e74657200000000000000000000000000006020830152604082019050919050565b6000613160602683613d81565b91507f4f776e61626c653a206e6577206f776e657220697320746865207a65726f206160008301527f64647265737300000000000000000000000000000000000000000000000000006020830152604082019050919050565b60006131c6601c83613d81565b91507f4552433732313a20746f6b656e20616c7265616479206d696e746564000000006000830152602082019050919050565b6000613206602483613d81565b91507f4552433732313a207472616e7366657220746f20746865207a65726f2061646460008301527f72657373000000000000000000000000000000000000000000000000000000006020830152604082019050919050565b600061326c601983613d81565b91507f4552433732313a20617070726f766520746f2063616c6c6572000000000000006000830152602082019050919050565b60006132ac602583613d81565b91507f54686520726f626f742073616c65206973206e6f742063757272656e746c792060008301527f6f70656e2e0000000000000000000000000000000000000000000000000000006020830152604082019050919050565b6000613312602c83613d81565b91507f4552433732313a206f70657261746f7220717565727920666f72206e6f6e657860008301527f697374656e7420746f6b656e00000000000000000000000000000000000000006020830152604082019050919050565b6000613378601083613d81565b91507f5061757361626c653a20706175736564000000000000000000000000000000006000830152602082019050919050565b60006133b8602c83613d81565b91507f4578636565647320746865206d617820746f6b656e20706572207472616e736160008301527f6374696f6e206c696d69742e00000000000000000000000000000000000000006020830152604082019050919050565b600061341e603883613d81565b91507f4552433732313a20617070726f76652063616c6c6572206973206e6f74206f7760008301527f6e6572206e6f7220617070726f76656420666f7220616c6c00000000000000006020830152604082019050919050565b6000613484602a83613d81565b91507f4552433732313a2062616c616e636520717565727920666f7220746865207a6560008301527f726f2061646472657373000000000000000000000000000000000000000000006020830152604082019050919050565b60006134ea602983613d81565b91507f4552433732313a206f776e657220717565727920666f72206e6f6e657869737460008301527f656e7420746f6b656e00000000000000000000000000000000000000000000006020830152604082019050919050565b6000613550603583613d81565b91507f5468652076616c7565207375626d69747465642077697468207468697320747260008301527f616e73616374696f6e20697320746f6f206c6f772e00000000000000000000006020830152604082019050919050565b60006135b6602083613d81565b91507f4552433732313a206d696e7420746f20746865207a65726f20616464726573736000830152602082019050919050565b60006135f6602c83613d81565b91507f4552433732313a20617070726f76656420717565727920666f72206e6f6e657860008301527f697374656e7420746f6b656e00000000000000000000000000000000000000006020830152604082019050919050565b600061365c602083613d81565b91507f4f776e61626c653a2063616c6c6572206973206e6f7420746865206f776e65726000830152602082019050919050565b600061369c602983613d81565b91507f4552433732313a207472616e73666572206f6620746f6b656e2074686174206960008301527f73206e6f74206f776e00000000000000000000000000000000000000000000006020830152604082019050919050565b6000613702602f83613d81565b91507f4552433732314d657461646174613a2055524920717565727920666f72206e6f60008301527f6e6578697374656e7420746f6b656e00000000000000000000000000000000006020830152604082019050919050565b6000613768602183613d81565b91507f4552433732313a20617070726f76616c20746f2063757272656e74206f776e6560008301527f72000000000000000000000000000000000000000000000000000000000000006020830152604082019050919050565b60006137ce603183613d81565b91507f4552433732313a207472616e736665722063616c6c6572206973206e6f74206f60008301527f776e6572206e6f7220617070726f7665640000000000000000000000000000006020830152604082019050919050565b6000613834602c83613d81565b91507f455243373231456e756d657261626c653a20676c6f62616c20696e646578206f60008301527f7574206f6620626f756e647300000000000000000000000000000000000000006020830152604082019050919050565b61389681613f1c565b82525050565b6138a581613f1c565b82525050565b60006138b78285613016565b91506138c38284613016565b91508190509392505050565b60006020820190506138e46000830184612f28565b92915050565b60006080820190506138ff6000830187612f28565b61390c6020830186612f28565b613919604083018561389c565b818103606083015261392b8184612fa4565b905095945050505050565b600060208201905081810360008301526139508184612f37565b905092915050565b600060208201905061396d6000830184612f95565b92915050565b6000602082019050818103600083015261398d8184612fdd565b905092915050565b600060208201905081810360008301526139ae81613047565b9050919050565b600060208201905081810360008301526139ce81613087565b9050919050565b600060208201905081810360008301526139ee816130ed565b9050919050565b60006020820190508181036000830152613a0e81613153565b9050919050565b60006020820190508181036000830152613a2e816131b9565b9050919050565b60006020820190508181036000830152613a4e816131f9565b9050919050565b60006020820190508181036000830152613a6e8161325f565b9050919050565b60006020820190508181036000830152613a8e8161329f565b9050919050565b60006020820190508181036000830152613aae81613305565b9050919050565b60006020820190508181036000830152613ace8161336b565b9050919050565b60006020820190508181036000830152613aee816133ab565b9050919050565b60006020820190508181036000830152613b0e81613411565b9050919050565b60006020820190508181036000830152613b2e81613477565b9050919050565b60006020820190508181036000830152613b4e816134dd565b9050919050565b60006020820190508181036000830152613b6e81613543565b9050919050565b60006020820190508181036000830152613b8e816135a9565b9050919050565b60006020820190508181036000830152613bae816135e9565b9050919050565b60006020820190508181036000830152613bce8161364f565b9050919050565b60006020820190508181036000830152613bee8161368f565b9050919050565b60006020820190508181036000830152613c0e816136f5565b9050919050565b60006020820190508181036000830152613c2e8161375b565b9050919050565b60006020820190508181036000830152613c4e816137c1565b9050919050565b60006020820190508181036000830152613c6e81613827565b9050919050565b6000602082019050613c8a600083018461389c565b92915050565b6000604051905081810181811067ffffffffffffffff82111715613cb757613cb66140a1565b5b8060405250919050565b600067ffffffffffffffff821115613cdc57613cdb6140a1565b5b601f19601f8301169050602081019050919050565b600067ffffffffffffffff821115613d0c57613d0b6140a1565b5b601f19601f8301169050602081019050919050565b6000819050602082019050919050565b600081519050919050565b600081519050919050565b600081519050919050565b6000602082019050919050565b600082825260208201905092915050565b600082825260208201905092915050565b600082825260208201905092915050565b600081905092915050565b6000613da882613f1c565b9150613db383613f1c565b9250827fffffffffffffffffffffffffffffffffffffffffffffffffffffffffffffffff03821115613de857613de7614014565b5b828201905092915050565b6000613dfe82613f1c565b9150613e0983613f1c565b925082613e1957613e18614043565b5b828204905092915050565b6000613e2f82613f1c565b9150613e3a83613f1c565b9250817fffffffffffffffffffffffffffffffffffffffffffffffffffffffffffffffff0483118215151615613e7357613e72614014565b5b828202905092915050565b6000613e8982613f1c565b9150613e9483613f1c565b925082821015613ea757613ea6614014565b5b828203905092915050565b6000613ebd82613efc565b9050919050565b60008115159050919050565b60007fffffffff0000000000000000000000000000000000000000000000000000000082169050919050565b600073ffffffffffffffffffffffffffffffffffffffff82169050919050565b6000819050919050565b82818337600083830152505050565b60005b83811015613f53578082015181840152602081019050613f38565b83811115613f62576000848401525b50505050565b60006002820490506001821680613f8057607f821691505b60208210811415613f9457613f93614072565b5b50919050565b6000613fa582613f1c565b91507fffffffffffffffffffffffffffffffffffffffffffffffffffffffffffffffff821415613fd857613fd7614014565b5b600182019050919050565b6000613fee82613f1c565b9150613ff983613f1c565b92508261400957614008614043565b5b828206905092915050565b7f4e487b7100000000000000000000000000000000000000000000000000000000600052601160045260246000fd5b7f4e487b7100000000000000000000000000000000000000000000000000000000600052601260045260246000fd5b7f4e487b7100000000000000000000000000000000000000000000000000000000600052602260045260246000fd5b7f4e487b7100000000000000000000000000000000000000000000000000000000600052604160045260246000fd5b6000601f19601f8301169050919050565b6140ea81613eb2565b81146140f557600080fd5b50565b61410181613ec4565b811461410c57600080fd5b50565b61411881613ed0565b811461412357600080fd5b50565b61412f81613f1c565b811461413a57600080fd5b5056fea2646970667358221220d328a43d51631c0f8e710b125d87ac49c76fb148e8096ac0c8d2f3d27e70de5b64736f6c63430008000033",
  "immutableReferences": {},
  "source": "// contracts/Robot.sol\n// SPDX-License-Identifier: MIT\npragma solidity ^0.8.0;\n\nimport \"@openzeppelin/contracts/token/ERC721/ERC721.sol\";\nimport \"@openzeppelin/contracts/token/ERC721/extensions/ERC721Enumerable.sol\";\nimport \"@openzeppelin/contracts/access/Ownable.sol\";\nimport \"@openzeppelin/contracts/security/Pausable.sol\";\n\ncontract Robot is ERC721, ERC721Enumerable, Pausable, Ownable {\n\n    uint256 private _saleTime = 1634451621; // 7PM EDT on November 1st\n    uint256 private _price = 8 * 10**16; // .08 eth\n\n    string private _baseTokenURI;\n\n    constructor(string memory baseURI) ERC721(\"Robot\", \"RBT\") {\n        setBaseURI(baseURI);\n    }\n\n    function pause() public onlyOwner {\n        _pause();\n    }\n\n    function unpause() public onlyOwner {\n        _unpause();\n    }\n\n    function setSaleTime(uint256 time) public onlyOwner {\n        _saleTime = time;\n    }\n\n    function getSaleTime() public view returns (uint256) {\n        return _saleTime;\n    }\n\n    function isSaleOpen() public view returns (bool) {\n        return block.timestamp >= _saleTime;\n    }\n\n    function setBaseURI(string memory baseURI) public onlyOwner {\n        _baseTokenURI = baseURI;\n    }\n\n    function _baseURI() internal view virtual override returns (string memory) {\n        return _baseTokenURI;\n    }\n\n    function _beforeTokenTransfer(address from, address to, uint256 tokenId)\n        internal\n        whenNotPaused\n        override(ERC721, ERC721Enumerable)\n    {\n        super._beforeTokenTransfer(from, to, tokenId);\n    }\n\n   // The following functions are overrides required by Solidity.\n    function supportsInterface(bytes4 interfaceId)\n        public\n        view\n        override(ERC721, ERC721Enumerable)\n        returns (bool)\n    {\n        return super.supportsInterface(interfaceId);\n    }\n\n    // Count is how many they want to mint\n    function mint(uint256 _count) public whenNotPaused payable {\n        uint256 totalSupply = totalSupply();\n        require(_count < 21, \"Exceeds the max token per transaction limit.\");\n        require(\n            msg.value >= _price * _count,\n            \"The value submitted with this transaction is too low.\"\n        );\n        require(\n            block.timestamp >= _saleTime,\n            \"The robot sale is not currently open.\"\n        );\n\n        for (uint256 i; i < _count; i++) {\n            _safeMint(msg.sender, totalSupply + i);\n        }\n    }\n\n    function walletOfOwner(address _owner)\n        public\n        view\n        returns (uint256[] memory)\n    {\n        uint256 tokenCount = balanceOf(_owner);\n\n        if (tokenCount == 0) {\n            // Return an empty array\n            return new uint256[](0);\n        }\n\n        uint256[] memory tokensId = new uint256[](tokenCount);\n        for (uint256 i; i < tokenCount; i++) {\n            tokensId[i] = tokenOfOwnerByIndex(_owner, i);\n        }\n        return tokensId;\n    }\n\n    function withdrawAll() public payable {\n        require(payable(0x2B25A827C40CA0c22F2906b3c262B834E147C4fE).send(address(this).balance));\n    }\n}\n",
  "sourcePath": "/home/seandevs/workspaces/celo-hackathon/nfts/robots/contracts/Robot.sol",
  "compiler": {
    "name": "solc",
    "version": "0.8.0+commit.c7dfd78e.Emscripten.clang"
  },
  "schemaVersion": "3.4.1",
  "updatedAt": "2021-10-19T02:15:30.541Z",
  "networkType": "ethereum",
  "devdoc": {
    "kind": "dev",
    "methods": {
      "approve(address,uint256)": {
        "details": "See {IERC721-approve}."
      },
      "balanceOf(address)": {
        "details": "See {IERC721-balanceOf}."
      },
      "getApproved(uint256)": {
        "details": "See {IERC721-getApproved}."
      },
      "isApprovedForAll(address,address)": {
        "details": "See {IERC721-isApprovedForAll}."
      },
      "name()": {
        "details": "See {IERC721Metadata-name}."
      },
      "owner()": {
        "details": "Returns the address of the current owner."
      },
      "ownerOf(uint256)": {
        "details": "See {IERC721-ownerOf}."
      },
      "paused()": {
        "details": "Returns true if the contract is paused, and false otherwise."
      },
      "renounceOwnership()": {
        "details": "Leaves the contract without owner. It will not be possible to call `onlyOwner` functions anymore. Can only be called by the current owner. NOTE: Renouncing ownership will leave the contract without an owner, thereby removing any functionality that is only available to the owner."
      },
      "safeTransferFrom(address,address,uint256)": {
        "details": "See {IERC721-safeTransferFrom}."
      },
      "safeTransferFrom(address,address,uint256,bytes)": {
        "details": "See {IERC721-safeTransferFrom}."
      },
      "setApprovalForAll(address,bool)": {
        "details": "See {IERC721-setApprovalForAll}."
      },
      "symbol()": {
        "details": "See {IERC721Metadata-symbol}."
      },
      "tokenByIndex(uint256)": {
        "details": "See {IERC721Enumerable-tokenByIndex}."
      },
      "tokenOfOwnerByIndex(address,uint256)": {
        "details": "See {IERC721Enumerable-tokenOfOwnerByIndex}."
      },
      "tokenURI(uint256)": {
        "details": "See {IERC721Metadata-tokenURI}."
      },
      "totalSupply()": {
        "details": "See {IERC721Enumerable-totalSupply}."
      },
      "transferFrom(address,address,uint256)": {
        "details": "See {IERC721-transferFrom}."
      },
      "transferOwnership(address)": {
        "details": "Transfers ownership of the contract to a new account (`newOwner`). Can only be called by the current owner."
      }
    },
    "version": 1
  },
  "userdoc": {
    "kind": "user",
    "methods": {},
    "version": 1
  }
}