{
  "contractName": "Robot",
  "abi": [
    {
      "inputs": [
        {
          "internalType": "string",
          "name": "baseURI",
          "type": "string"
        },
        {
          "internalType": "address payable",
          "name": "wallet",
          "type": "address"
        }
      ],
      "stateMutability": "nonpayable",
      "type": "constructor"
    },
    {
      "anonymous": false,
      "inputs": [
        {
          "indexed": true,
          "internalType": "address",
          "name": "owner",
          "type": "address"
        },
        {
          "indexed": true,
          "internalType": "address",
          "name": "approved",
          "type": "address"
        },
        {
          "indexed": true,
          "internalType": "uint256",
          "name": "tokenId",
          "type": "uint256"
        }
      ],
      "name": "Approval",
      "type": "event"
    },
    {
      "anonymous": false,
      "inputs": [
        {
          "indexed": true,
          "internalType": "address",
          "name": "owner",
          "type": "address"
        },
        {
          "indexed": true,
          "internalType": "address",
          "name": "operator",
          "type": "address"
        },
        {
          "indexed": false,
          "internalType": "bool",
          "name": "approved",
          "type": "bool"
        }
      ],
      "name": "ApprovalForAll",
      "type": "event"
    },
    {
      "anonymous": false,
      "inputs": [
        {
          "indexed": true,
          "internalType": "address",
          "name": "previousOwner",
          "type": "address"
        },
        {
          "indexed": true,
          "internalType": "address",
          "name": "newOwner",
          "type": "address"
        }
      ],
      "name": "OwnershipTransferred",
      "type": "event"
    },
    {
      "anonymous": false,
      "inputs": [
        {
          "indexed": false,
          "internalType": "address",
          "name": "account",
          "type": "address"
        }
      ],
      "name": "Paused",
      "type": "event"
    },
    {
      "anonymous": false,
      "inputs": [
        {
          "indexed": true,
          "internalType": "address",
          "name": "from",
          "type": "address"
        },
        {
          "indexed": true,
          "internalType": "address",
          "name": "to",
          "type": "address"
        },
        {
          "indexed": true,
          "internalType": "uint256",
          "name": "tokenId",
          "type": "uint256"
        }
      ],
      "name": "Transfer",
      "type": "event"
    },
    {
      "anonymous": false,
      "inputs": [
        {
          "indexed": false,
          "internalType": "address",
          "name": "account",
          "type": "address"
        }
      ],
      "name": "Unpaused",
      "type": "event"
    },
    {
      "anonymous": false,
      "inputs": [
        {
          "indexed": false,
          "internalType": "address",
          "name": "addr",
          "type": "address"
        }
      ],
      "name": "WhitelistedAddressAdded",
      "type": "event"
    },
    {
      "anonymous": false,
      "inputs": [
        {
          "indexed": false,
          "internalType": "address",
          "name": "addr",
          "type": "address"
        }
      ],
      "name": "WhitelistedAddressRemoved",
      "type": "event"
    },
    {
      "inputs": [
        {
          "internalType": "address",
          "name": "addr",
          "type": "address"
        }
      ],
      "name": "addAddressToWhitelist",
      "outputs": [
        {
          "internalType": "bool",
          "name": "success",
          "type": "bool"
        }
      ],
      "stateMutability": "nonpayable",
      "type": "function"
    },
    {
      "inputs": [
        {
          "internalType": "address[]",
          "name": "addrs",
          "type": "address[]"
        }
      ],
      "name": "addAddressesToWhitelist",
      "outputs": [
        {
          "internalType": "bool",
          "name": "success",
          "type": "bool"
        }
      ],
      "stateMutability": "nonpayable",
      "type": "function"
    },
    {
      "inputs": [
        {
          "internalType": "address",
          "name": "to",
          "type": "address"
        },
        {
          "internalType": "uint256",
          "name": "tokenId",
          "type": "uint256"
        }
      ],
      "name": "approve",
      "outputs": [],
      "stateMutability": "nonpayable",
      "type": "function"
    },
    {
      "inputs": [
        {
          "internalType": "address",
          "name": "owner",
          "type": "address"
        }
      ],
      "name": "balanceOf",
      "outputs": [
        {
          "internalType": "uint256",
          "name": "",
          "type": "uint256"
        }
      ],
      "stateMutability": "view",
      "type": "function",
      "constant": true
    },
    {
      "inputs": [
        {
          "internalType": "uint256",
          "name": "tokenId",
          "type": "uint256"
        }
      ],
      "name": "getApproved",
      "outputs": [
        {
          "internalType": "address",
          "name": "",
          "type": "address"
        }
      ],
      "stateMutability": "view",
      "type": "function",
      "constant": true
    },
    {
      "inputs": [
        {
          "internalType": "address",
          "name": "owner",
          "type": "address"
        },
        {
          "internalType": "address",
          "name": "operator",
          "type": "address"
        }
      ],
      "name": "isApprovedForAll",
      "outputs": [
        {
          "internalType": "bool",
          "name": "",
          "type": "bool"
        }
      ],
      "stateMutability": "view",
      "type": "function",
      "constant": true
    },
    {
      "inputs": [],
      "name": "name",
      "outputs": [
        {
          "internalType": "string",
          "name": "",
          "type": "string"
        }
      ],
      "stateMutability": "view",
      "type": "function",
      "constant": true
    },
    {
      "inputs": [],
      "name": "owner",
      "outputs": [
        {
          "internalType": "address",
          "name": "",
          "type": "address"
        }
      ],
      "stateMutability": "view",
      "type": "function",
      "constant": true
    },
    {
      "inputs": [
        {
          "internalType": "uint256",
          "name": "tokenId",
          "type": "uint256"
        }
      ],
      "name": "ownerOf",
      "outputs": [
        {
          "internalType": "address",
          "name": "",
          "type": "address"
        }
      ],
      "stateMutability": "view",
      "type": "function",
      "constant": true
    },
    {
      "inputs": [],
      "name": "paused",
      "outputs": [
        {
          "internalType": "bool",
          "name": "",
          "type": "bool"
        }
      ],
      "stateMutability": "view",
      "type": "function",
      "constant": true
    },
    {
      "inputs": [
        {
          "internalType": "address",
          "name": "addr",
          "type": "address"
        }
      ],
      "name": "removeAddressFromWhitelist",
      "outputs": [
        {
          "internalType": "bool",
          "name": "success",
          "type": "bool"
        }
      ],
      "stateMutability": "nonpayable",
      "type": "function"
    },
    {
      "inputs": [
        {
          "internalType": "address[]",
          "name": "addrs",
          "type": "address[]"
        }
      ],
      "name": "removeAddressesFromWhitelist",
      "outputs": [
        {
          "internalType": "bool",
          "name": "success",
          "type": "bool"
        }
      ],
      "stateMutability": "nonpayable",
      "type": "function"
    },
    {
      "inputs": [],
      "name": "renounceOwnership",
      "outputs": [],
      "stateMutability": "nonpayable",
      "type": "function"
    },
    {
      "inputs": [
        {
          "internalType": "uint256",
          "name": "",
          "type": "uint256"
        }
      ],
      "name": "robots",
      "outputs": [
        {
          "internalType": "uint256",
          "name": "robotIndex",
          "type": "uint256"
        },
        {
          "internalType": "string",
          "name": "imageURI",
          "type": "string"
        },
        {
          "internalType": "uint256",
          "name": "wins",
          "type": "uint256"
        },
        {
          "internalType": "uint256",
          "name": "losses",
          "type": "uint256"
        },
        {
          "internalType": "enum Robot.State",
          "name": "state",
          "type": "uint8"
        },
        {
          "internalType": "string",
          "name": "robotName",
          "type": "string"
        },
        {
          "internalType": "string",
          "name": "robotType",
          "type": "string"
        },
        {
          "internalType": "uint256",
          "name": "health",
          "type": "uint256"
        },
        {
          "internalType": "uint256",
          "name": "strength",
          "type": "uint256"
        },
        {
          "internalType": "uint256",
          "name": "agility",
          "type": "uint256"
        },
        {
          "internalType": "uint256",
          "name": "ai",
          "type": "uint256"
        },
        {
          "internalType": "uint256",
          "name": "defense",
          "type": "uint256"
        }
      ],
      "stateMutability": "view",
      "type": "function",
      "constant": true
    },
    {
      "inputs": [
        {
          "internalType": "address",
          "name": "from",
          "type": "address"
        },
        {
          "internalType": "address",
          "name": "to",
          "type": "address"
        },
        {
          "internalType": "uint256",
          "name": "tokenId",
          "type": "uint256"
        }
      ],
      "name": "safeTransferFrom",
      "outputs": [],
      "stateMutability": "nonpayable",
      "type": "function"
    },
    {
      "inputs": [
        {
          "internalType": "address",
          "name": "from",
          "type": "address"
        },
        {
          "internalType": "address",
          "name": "to",
          "type": "address"
        },
        {
          "internalType": "uint256",
          "name": "tokenId",
          "type": "uint256"
        },
        {
          "internalType": "bytes",
          "name": "_data",
          "type": "bytes"
        }
      ],
      "name": "safeTransferFrom",
      "outputs": [],
      "stateMutability": "nonpayable",
      "type": "function"
    },
    {
      "inputs": [
        {
          "internalType": "address",
          "name": "operator",
          "type": "address"
        },
        {
          "internalType": "bool",
          "name": "approved",
          "type": "bool"
        }
      ],
      "name": "setApprovalForAll",
      "outputs": [],
      "stateMutability": "nonpayable",
      "type": "function"
    },
    {
      "inputs": [],
      "name": "symbol",
      "outputs": [
        {
          "internalType": "string",
          "name": "",
          "type": "string"
        }
      ],
      "stateMutability": "view",
      "type": "function",
      "constant": true
    },
    {
      "inputs": [
        {
          "internalType": "uint256",
          "name": "index",
          "type": "uint256"
        }
      ],
      "name": "tokenByIndex",
      "outputs": [
        {
          "internalType": "uint256",
          "name": "",
          "type": "uint256"
        }
      ],
      "stateMutability": "view",
      "type": "function",
      "constant": true
    },
    {
      "inputs": [
        {
          "internalType": "address",
          "name": "owner",
          "type": "address"
        },
        {
          "internalType": "uint256",
          "name": "index",
          "type": "uint256"
        }
      ],
      "name": "tokenOfOwnerByIndex",
      "outputs": [
        {
          "internalType": "uint256",
          "name": "",
          "type": "uint256"
        }
      ],
      "stateMutability": "view",
      "type": "function",
      "constant": true
    },
    {
      "inputs": [
        {
          "internalType": "uint256",
          "name": "tokenId",
          "type": "uint256"
        }
      ],
      "name": "tokenURI",
      "outputs": [
        {
          "internalType": "string",
          "name": "",
          "type": "string"
        }
      ],
      "stateMutability": "view",
      "type": "function",
      "constant": true
    },
    {
      "inputs": [],
      "name": "totalSupply",
      "outputs": [
        {
          "internalType": "uint256",
          "name": "",
          "type": "uint256"
        }
      ],
      "stateMutability": "view",
      "type": "function",
      "constant": true
    },
    {
      "inputs": [
        {
          "internalType": "address",
          "name": "from",
          "type": "address"
        },
        {
          "internalType": "address",
          "name": "to",
          "type": "address"
        },
        {
          "internalType": "uint256",
          "name": "tokenId",
          "type": "uint256"
        }
      ],
      "name": "transferFrom",
      "outputs": [],
      "stateMutability": "nonpayable",
      "type": "function"
    },
    {
      "inputs": [
        {
          "internalType": "address",
          "name": "newOwner",
          "type": "address"
        }
      ],
      "name": "transferOwnership",
      "outputs": [],
      "stateMutability": "nonpayable",
      "type": "function"
    },
    {
      "inputs": [
        {
          "internalType": "address",
          "name": "",
          "type": "address"
        }
      ],
      "name": "whitelist",
      "outputs": [
        {
          "internalType": "bool",
          "name": "",
          "type": "bool"
        }
      ],
      "stateMutability": "view",
      "type": "function",
      "constant": true
    },
    {
      "inputs": [],
      "name": "pause",
      "outputs": [],
      "stateMutability": "nonpayable",
      "type": "function"
    },
    {
      "inputs": [],
      "name": "unpause",
      "outputs": [],
      "stateMutability": "nonpayable",
      "type": "function"
    },
    {
      "inputs": [
        {
          "internalType": "uint256",
          "name": "time",
          "type": "uint256"
        }
      ],
      "name": "setSaleTime",
      "outputs": [],
      "stateMutability": "nonpayable",
      "type": "function"
    },
    {
      "inputs": [],
      "name": "getSaleTime",
      "outputs": [
        {
          "internalType": "uint256",
          "name": "",
          "type": "uint256"
        }
      ],
      "stateMutability": "view",
      "type": "function",
      "constant": true
    },
    {
      "inputs": [],
      "name": "isSaleOpen",
      "outputs": [
        {
          "internalType": "bool",
          "name": "",
          "type": "bool"
        }
      ],
      "stateMutability": "view",
      "type": "function",
      "constant": true
    },
    {
      "inputs": [
        {
          "internalType": "string",
          "name": "baseURI",
          "type": "string"
        }
      ],
      "name": "setBaseURI",
      "outputs": [],
      "stateMutability": "nonpayable",
      "type": "function"
    },
    {
      "inputs": [
        {
          "internalType": "bytes4",
          "name": "interfaceId",
          "type": "bytes4"
        }
      ],
      "name": "supportsInterface",
      "outputs": [
        {
          "internalType": "bool",
          "name": "",
          "type": "bool"
        }
      ],
      "stateMutability": "view",
      "type": "function",
      "constant": true
    },
    {
      "inputs": [
        {
          "internalType": "uint256",
          "name": "botType",
          "type": "uint256"
        }
      ],
      "name": "mint",
      "outputs": [],
      "stateMutability": "payable",
      "type": "function",
      "payable": true
    },
    {
      "inputs": [
        {
          "internalType": "uint256",
          "name": "winningRobotIndex",
          "type": "uint256"
        },
        {
          "internalType": "uint256",
          "name": "losingRobotIndex",
          "type": "uint256"
        }
      ],
      "name": "updateRobotsRecords",
      "outputs": [],
      "stateMutability": "nonpayable",
      "type": "function"
    },
    {
      "inputs": [
        {
          "internalType": "uint256",
          "name": "robotIndex",
          "type": "uint256"
        },
        {
          "internalType": "string",
          "name": "value",
          "type": "string"
        }
      ],
      "name": "updateRobotName",
      "outputs": [],
      "stateMutability": "nonpayable",
      "type": "function"
    },
    {
      "inputs": [
        {
          "internalType": "uint256",
          "name": "robotIndex",
          "type": "uint256"
        },
        {
          "internalType": "uint256",
          "name": "value",
          "type": "uint256"
        }
      ],
      "name": "updateRobotHealth",
      "outputs": [],
      "stateMutability": "nonpayable",
      "type": "function"
    },
    {
      "inputs": [
        {
          "internalType": "uint256",
          "name": "robotIndex",
          "type": "uint256"
        },
        {
          "internalType": "uint256",
          "name": "value",
          "type": "uint256"
        }
      ],
      "name": "updateRobotStrength",
      "outputs": [],
      "stateMutability": "nonpayable",
      "type": "function"
    },
    {
      "inputs": [
        {
          "internalType": "uint256",
          "name": "robotIndex",
          "type": "uint256"
        },
        {
          "internalType": "uint256",
          "name": "value",
          "type": "uint256"
        }
      ],
      "name": "updateRobotAgility",
      "outputs": [],
      "stateMutability": "nonpayable",
      "type": "function"
    },
    {
      "inputs": [
        {
          "internalType": "uint256",
          "name": "robotIndex",
          "type": "uint256"
        },
        {
          "internalType": "uint256",
          "name": "value",
          "type": "uint256"
        }
      ],
      "name": "updateRobotAi",
      "outputs": [],
      "stateMutability": "nonpayable",
      "type": "function"
    },
    {
      "inputs": [
        {
          "internalType": "uint256",
          "name": "robotIndex",
          "type": "uint256"
        },
        {
          "internalType": "uint256",
          "name": "value",
          "type": "uint256"
        }
      ],
      "name": "updateRobotDefense",
      "outputs": [],
      "stateMutability": "nonpayable",
      "type": "function"
    },
    {
      "inputs": [
        {
          "internalType": "uint256",
          "name": "robotIndex",
          "type": "uint256"
        }
      ],
      "name": "setRobotAsFighter",
      "outputs": [],
      "stateMutability": "nonpayable",
      "type": "function"
    },
    {
      "inputs": [
        {
          "internalType": "uint256",
          "name": "robotIndex",
          "type": "uint256"
        }
      ],
      "name": "setRobotAsTrainer",
      "outputs": [],
      "stateMutability": "nonpayable",
      "type": "function"
    },
    {
      "inputs": [
        {
          "internalType": "uint256",
          "name": "robotIndex",
          "type": "uint256"
        }
      ],
      "name": "setRobotAsRetired",
      "outputs": [],
      "stateMutability": "nonpayable",
      "type": "function"
    },
    {
      "inputs": [
        {
          "internalType": "uint256",
          "name": "robotIndex",
          "type": "uint256"
        }
      ],
      "name": "getRobotRecord",
      "outputs": [
        {
          "internalType": "uint256",
          "name": "",
          "type": "uint256"
        },
        {
          "internalType": "uint256",
          "name": "",
          "type": "uint256"
        }
      ],
      "stateMutability": "view",
      "type": "function",
      "constant": true
    },
    {
      "inputs": [
        {
          "internalType": "uint256",
          "name": "robotIndex",
          "type": "uint256"
        }
      ],
      "name": "getRobotState",
      "outputs": [
        {
          "internalType": "enum Robot.State",
          "name": "",
          "type": "uint8"
        }
      ],
      "stateMutability": "view",
      "type": "function",
      "constant": true
    },
    {
      "inputs": [
        {
          "internalType": "address",
          "name": "_owner",
          "type": "address"
        }
      ],
      "name": "walletOfOwner",
      "outputs": [
        {
          "internalType": "uint256[]",
          "name": "",
          "type": "uint256[]"
        }
      ],
      "stateMutability": "view",
      "type": "function",
      "constant": true
    },
    {
      "inputs": [],
      "name": "withdrawAll",
      "outputs": [],
      "stateMutability": "payable",
      "type": "function",
      "payable": true
    }
  ],
  "bytecode": "0x608060405263616bc0a5600c5567011c37937e080000600d5560405180608001604052806040518060400160405280600681526020017f526f626f7431000000000000000000000000000000000000000000000000000081525081526020016040518060400160405280600681526020017f526f626f7432000000000000000000000000000000000000000000000000000081525081526020016040518060400160405280600681526020017f526f626f7433000000000000000000000000000000000000000000000000000081525081526020016040518060400160405280600681526020017f526f626f7434000000000000000000000000000000000000000000000000000081525081525060109060046200011f92919062000643565b5060405180608001604052806040518060400160405280600481526020017f54616e6b0000000000000000000000000000000000000000000000000000000081525081526020016040518060400160405280600681526020017f537065656479000000000000000000000000000000000000000000000000000081525081526020016040518060400160405280600881526020017f446566656e64657200000000000000000000000000000000000000000000000081525081526020016040518060400160405280600781526020017f526574697265640000000000000000000000000000000000000000000000000081525081525060119060046200022792919062000643565b506040518060800160405280601460ff168152602001600a60ff168152602001600a60ff168152602001601460ff1681525060129060046200026b929190620006aa565b506040518060800160405280600a60ff168152602001601460ff168152602001600a60ff168152602001601460ff168152506013906004620002af929190620006aa565b506040518060800160405280600a60ff168152602001601460ff168152602001601460ff168152602001600a60ff168152506014906004620002f3929190620006aa565b506040518060800160405280601460ff168152602001600a60ff168152602001601460ff168152602001600a60ff16815250601590600462000337929190620006aa565b503480156200034557600080fd5b5060405162006a7738038062006a7783398181016040528101906200036b9190620008a8565b6040518060400160405280600581526020017f526f626f740000000000000000000000000000000000000000000000000000008152506040518060400160405280600381526020017f52425400000000000000000000000000000000000000000000000000000000008152508160009080519060200190620003ef92919062000701565b5080600190805190602001906200040892919062000701565b5050506000600a60006101000a81548160ff021916908315150217905550620004466200043a620004a060201b60201c565b620004a860201b60201c565b62000457826200056e60201b60201c565b80600f60006101000a81548173ffffffffffffffffffffffffffffffffffffffff021916908373ffffffffffffffffffffffffffffffffffffffff160217905550505062000b43565b600033905090565b6000600a60019054906101000a900473ffffffffffffffffffffffffffffffffffffffff16905081600a60016101000a81548173ffffffffffffffffffffffffffffffffffffffff021916908373ffffffffffffffffffffffffffffffffffffffff1602179055508173ffffffffffffffffffffffffffffffffffffffff168173ffffffffffffffffffffffffffffffffffffffff167f8be0079c531659141344cd1fd0a4f28419497f9722a3daafe3b4186f6b6457e060405160405180910390a35050565b6200057e620004a060201b60201c565b73ffffffffffffffffffffffffffffffffffffffff16620005a46200061960201b60201c565b73ffffffffffffffffffffffffffffffffffffffff1614620005fd576040517f08c379a0000000000000000000000000000000000000000000000000000000008152600401620005f49062000929565b60405180910390fd5b80600e90805190602001906200061592919062000701565b5050565b6000600a60019054906101000a900473ffffffffffffffffffffffffffffffffffffffff16905090565b82805482825590600052602060002090810192821562000697579160200282015b82811115620006965782518290805190602001906200068592919062000701565b509160200191906001019062000664565b5b509050620006a6919062000792565b5090565b828054828255906000526020600020908101928215620006ee579160200282015b82811115620006ed578251829060ff16905591602001919060010190620006cb565b5b509050620006fd9190620007ba565b5090565b8280546200070f9062000a25565b90600052602060002090601f0160209004810192826200073357600085556200077f565b82601f106200074e57805160ff19168380011785556200077f565b828001600101855582156200077f579182015b828111156200077e57825182559160200191906001019062000761565b5b5090506200078e9190620007ba565b5090565b5b80821115620007b65760008181620007ac9190620007d9565b5060010162000793565b5090565b5b80821115620007d5576000816000905550600101620007bb565b5090565b508054620007e79062000a25565b6000825580601f10620007fb57506200081c565b601f0160209004906000526020600020908101906200081b9190620007ba565b5b50565b600062000836620008308462000974565b6200094b565b9050828152602081018484840111156200084f57600080fd5b6200085c848285620009ef565b509392505050565b600081519050620008758162000b29565b92915050565b600082601f8301126200088d57600080fd5b81516200089f8482602086016200081f565b91505092915050565b60008060408385031215620008bc57600080fd5b600083015167ffffffffffffffff811115620008d757600080fd5b620008e5858286016200087b565b9250506020620008f88582860162000864565b9150509250929050565b600062000911602083620009aa565b91506200091e8262000b00565b602082019050919050565b60006020820190508181036000830152620009448162000902565b9050919050565b6000620009576200096a565b905062000965828262000a5b565b919050565b6000604051905090565b600067ffffffffffffffff82111562000992576200099162000ac0565b5b6200099d8262000aef565b9050602081019050919050565b600082825260208201905092915050565b6000620009c882620009cf565b9050919050565b600073ffffffffffffffffffffffffffffffffffffffff82169050919050565b60005b8381101562000a0f578082015181840152602081019050620009f2565b8381111562000a1f576000848401525b50505050565b6000600282049050600182168062000a3e57607f821691505b6020821081141562000a555762000a5462000a91565b5b50919050565b62000a668262000aef565b810181811067ffffffffffffffff8211171562000a885762000a8762000ac0565b5b80604052505050565b7f4e487b7100000000000000000000000000000000000000000000000000000000600052602260045260246000fd5b7f4e487b7100000000000000000000000000000000000000000000000000000000600052604160045260246000fd5b6000601f19601f8301169050919050565b7f4f776e61626c653a2063616c6c6572206973206e6f7420746865206f776e6572600082015250565b62000b3481620009bb565b811462000b4057600080fd5b50565b615f248062000b536000396000f3fe6080604052600436106102885760003560e01c806370a082311161015a578063aaea4fff116100c1578063cbf21fe41161007a578063cbf21fe414610a00578063db43c50714610a2b578063e10d74fe14610a54578063e2ec6ec314610a7d578063e985e9c514610aba578063f2fde38b14610af757610288565b8063aaea4fff146108f6578063abdb9bec1461091f578063b01d49d114610948578063b7a293ec14610971578063b88d4fde1461099a578063c87b56dd146109c357610288565b806395d89b411161011357806395d89b41146107c45780639b19251a146107ef578063a03937c51461082c578063a0712d6814610874578063a22cb46514610890578063a899cbbb146108b957610288565b806370a08231146106e7578063715018a6146107245780637b9417c81461073b5780638456cb5914610778578063853828b61461078f5780638da5cb5b1461079957610288565b80633bd2b67d116101fe57806355f804b3116101b757806355f804b3146105db57806357a6f5cf146106045780635a44890a1461062d5780635c975abb146106565780636352211e146106815780636f027ef1146106be57610288565b80633bd2b67d146104cf5780633f4ba83a146104f857806342842e0e1461050f578063438b6300146105385780634f6ccce714610575578063508a99a1146105b257610288565b806318160ddd1161025057806318160ddd146103995780631a081330146103c457806323b872dd146103ef57806324953eaa14610418578063286dd3f5146104555780632f745c591461049257610288565b806301ffc9a71461028d57806306fdde03146102ca578063081812fc146102f5578063095ea7b3146103325780630e9c54a11461035b575b600080fd5b34801561029957600080fd5b506102b460048036038101906102af9190614904565b610b20565b6040516102c19190614f86565b60405180910390f35b3480156102d657600080fd5b506102df610b32565b6040516102ec9190614fbc565b60405180910390f35b34801561030157600080fd5b5061031c60048036038101906103179190614997565b610bc4565b6040516103299190614efd565b60405180910390f35b34801561033e57600080fd5b5061035960048036038101906103549190614887565b610c49565b005b34801561036757600080fd5b50610382600480360381019061037d9190614997565b610d61565b6040516103909291906153a8565b60405180910390f35b3480156103a557600080fd5b506103ae610d9b565b6040516103bb91906152be565b60405180910390f35b3480156103d057600080fd5b506103d9610da8565b6040516103e69190614f86565b60405180910390f35b3480156103fb57600080fd5b5061041660048036038101906104119190614781565b610db5565b005b34801561042457600080fd5b5061043f600480360381019061043a91906148c3565b610e15565b60405161044c9190614f86565b60405180910390f35b34801561046157600080fd5b5061047c6004803603810190610477919061471c565b610f0b565b6040516104899190614f86565b60405180910390f35b34801561049e57600080fd5b506104b960048036038101906104b49190614887565b611074565b6040516104c691906152be565b60405180910390f35b3480156104db57600080fd5b506104f660048036038101906104f19190614997565b611119565b005b34801561050457600080fd5b5061050d61119f565b005b34801561051b57600080fd5b5061053660048036038101906105319190614781565b611225565b005b34801561054457600080fd5b5061055f600480360381019061055a919061471c565b611245565b60405161056c9190614f64565b60405180910390f35b34801561058157600080fd5b5061059c60048036038101906105979190614997565b6113c1565b6040516105a991906152be565b60405180910390f35b3480156105be57600080fd5b506105d960048036038101906105d49190614a14565b611458565b005b3480156105e757600080fd5b5061060260048036038101906105fd9190614956565b611515565b005b34801561061057600080fd5b5061062b60048036038101906106269190614997565b6115ab565b005b34801561063957600080fd5b50610654600480360381019061064f9190614a14565b6116d7565b005b34801561066257600080fd5b5061066b611794565b6040516106789190614f86565b60405180910390f35b34801561068d57600080fd5b506106a860048036038101906106a39190614997565b6117ab565b6040516106b59190614efd565b60405180910390f35b3480156106ca57600080fd5b506106e560048036038101906106e09190614a14565b61185d565b005b3480156106f357600080fd5b5061070e6004803603810190610709919061471c565b61195b565b60405161071b91906152be565b60405180910390f35b34801561073057600080fd5b50610739611a13565b005b34801561074757600080fd5b50610762600480360381019061075d919061471c565b611a9b565b60405161076f9190614f86565b60405180910390f35b34801561078457600080fd5b5061078d611c03565b005b610797611c89565b005b3480156107a557600080fd5b506107ae611d67565b6040516107bb9190614efd565b60405180910390f35b3480156107d057600080fd5b506107d9611d91565b6040516107e69190614fbc565b60405180910390f35b3480156107fb57600080fd5b506108166004803603810190610811919061471c565b611e23565b6040516108239190614f86565b60405180910390f35b34801561083857600080fd5b50610853600480360381019061084e9190614997565b611e43565b60405161086b9c9b9a999897969594939291906152d9565b60405180910390f35b61088e60048036038101906108899190614997565b612048565b005b34801561089c57600080fd5b506108b760048036038101906108b2919061484b565b6121d7565b005b3480156108c557600080fd5b506108e060048036038101906108db9190614997565b612358565b6040516108ed9190614fa1565b60405180910390f35b34801561090257600080fd5b5061091d60048036038101906109189190614a14565b612385565b005b34801561092b57600080fd5b5061094660048036038101906109419190614997565b612442565b005b34801561095457600080fd5b5061096f600480360381019061096a9190614a14565b61256e565b005b34801561097d57600080fd5b5061099860048036038101906109939190614a14565b61262b565b005b3480156109a657600080fd5b506109c160048036038101906109bc91906147d0565b6126e8565b005b3480156109cf57600080fd5b506109ea60048036038101906109e59190614997565b61274a565b6040516109f79190614fbc565b60405180910390f35b348015610a0c57600080fd5b50610a156127f1565b604051610a2291906152be565b60405180910390f35b348015610a3757600080fd5b50610a526004803603810190610a4d9190614997565b6127fb565b005b348015610a6057600080fd5b50610a7b6004803603810190610a7691906149c0565b612927565b005b348015610a8957600080fd5b50610aa46004803603810190610a9f91906148c3565b6129f4565b604051610ab19190614f86565b60405180910390f35b348015610ac657600080fd5b50610ae16004803603810190610adc9190614745565b612aea565b604051610aee9190614f86565b60405180910390f35b348015610b0357600080fd5b50610b1e6004803603810190610b19919061471c565b612b7e565b005b6000610b2b82612c76565b9050919050565b606060008054610b4190615696565b80601f0160208091040260200160405190810160405280929190818152602001828054610b6d90615696565b8015610bba5780601f10610b8f57610100808354040283529160200191610bba565b820191906000526020600020905b815481529060010190602001808311610b9d57829003601f168201915b5050505050905090565b6000610bcf82612cf0565b610c0e576040517f08c379a0000000000000000000000000000000000000000000000000000000008152600401610c05906151de565b60405180910390fd5b6004600083815260200190815260200160002060009054906101000a900473ffffffffffffffffffffffffffffffffffffffff169050919050565b6000610c54826117ab565b90508073ffffffffffffffffffffffffffffffffffffffff168373ffffffffffffffffffffffffffffffffffffffff161415610cc5576040517f08c379a0000000000000000000000000000000000000000000000000000000008152600401610cbc9061525e565b60405180910390fd5b8073ffffffffffffffffffffffffffffffffffffffff16610ce4612d5c565b73ffffffffffffffffffffffffffffffffffffffff161480610d135750610d1281610d0d612d5c565b612aea565b5b610d52576040517f08c379a0000000000000000000000000000000000000000000000000000000008152600401610d499061513e565b60405180910390fd5b610d5c8383612d64565b505050565b6000806016600084815260200190815260200160002060020154601660008581526020019081526020016000206003015491509150915091565b6000600880549050905090565b6000600c54421015905090565b610dc6610dc0612d5c565b82612e1d565b610e05576040517f08c379a0000000000000000000000000000000000000000000000000000000008152600401610dfc9061527e565b60405180910390fd5b610e10838383612efb565b505050565b6000610e1f612d5c565b73ffffffffffffffffffffffffffffffffffffffff16610e3d611d67565b73ffffffffffffffffffffffffffffffffffffffff1614610e93576040517f08c379a0000000000000000000000000000000000000000000000000000000008152600401610e8a906151fe565b60405180910390fd5b60005b8251811015610f0557610ee8838281518110610edb577f4e487b7100000000000000000000000000000000000000000000000000000000600052603260045260246000fd5b6020026020010151610f0b565b15610ef257600191505b8080610efd906156f9565b915050610e96565b50919050565b6000610f15612d5c565b73ffffffffffffffffffffffffffffffffffffffff16610f33611d67565b73ffffffffffffffffffffffffffffffffffffffff1614610f89576040517f08c379a0000000000000000000000000000000000000000000000000000000008152600401610f80906151fe565b60405180910390fd5b600b60008373ffffffffffffffffffffffffffffffffffffffff1673ffffffffffffffffffffffffffffffffffffffff16815260200190815260200160002060009054906101000a900460ff161561106f576000600b60008473ffffffffffffffffffffffffffffffffffffffff1673ffffffffffffffffffffffffffffffffffffffff16815260200190815260200160002060006101000a81548160ff0219169083151502179055507ff1abf01a1043b7c244d128e8595cf0c1d10743b022b03a02dffd8ca3bf729f5a826040516110629190614efd565b60405180910390a1600190505b919050565b600061107f8361195b565b82106110c0576040517f08c379a00000000000000000000000000000000000000000000000000000000081526004016110b79061501e565b60405180910390fd5b600660008473ffffffffffffffffffffffffffffffffffffffff1673ffffffffffffffffffffffffffffffffffffffff168152602001908152602001600020600083815260200190815260200160002054905092915050565b611121612d5c565b73ffffffffffffffffffffffffffffffffffffffff1661113f611d67565b73ffffffffffffffffffffffffffffffffffffffff1614611195576040517f08c379a000000000000000000000000000000000000000000000000000000000815260040161118c906151fe565b60405180910390fd5b80600c8190555050565b6111a7612d5c565b73ffffffffffffffffffffffffffffffffffffffff166111c5611d67565b73ffffffffffffffffffffffffffffffffffffffff161461121b576040517f08c379a0000000000000000000000000000000000000000000000000000000008152600401611212906151fe565b60405180910390fd5b611223613157565b565b611240838383604051806020016040528060008152506126e8565b505050565b606060006112528361195b565b905060008114156112d557600067ffffffffffffffff81111561129e577f4e487b7100000000000000000000000000000000000000000000000000000000600052604160045260246000fd5b6040519080825280602002602001820160405280156112cc5781602001602082028036833780820191505090505b509150506113bc565b60008167ffffffffffffffff811115611317577f4e487b7100000000000000000000000000000000000000000000000000000000600052604160045260246000fd5b6040519080825280602002602001820160405280156113455781602001602082028036833780820191505090505b50905060005b828110156113b55761135d8582611074565b828281518110611396577f4e487b7100000000000000000000000000000000000000000000000000000000600052603260045260246000fd5b60200260200101818152505080806113ad906156f9565b91505061134b565b5080925050505b919050565b60006113cb610d9b565b821061140c576040517f08c379a00000000000000000000000000000000000000000000000000000000081526004016114039061529e565b60405180910390fd5b60088281548110611446577f4e487b7100000000000000000000000000000000000000000000000000000000600052603260045260246000fd5b90600052602060002001549050919050565b611460611794565b156114a0576040517f08c379a00000000000000000000000000000000000000000000000000000000081526004016114979061511e565b60405180910390fd5b600b60003373ffffffffffffffffffffffffffffffffffffffff1673ffffffffffffffffffffffffffffffffffffffff16815260200190815260200160002060009054906101000a900460ff166114f657600080fd5b8060166000848152602001908152602001600020600b01819055505050565b61151d612d5c565b73ffffffffffffffffffffffffffffffffffffffff1661153b611d67565b73ffffffffffffffffffffffffffffffffffffffff1614611591576040517f08c379a0000000000000000000000000000000000000000000000000000000008152600401611588906151fe565b60405180910390fd5b80600e90805190602001906115a79291906144aa565b5050565b6115b3611794565b156115f3576040517f08c379a00000000000000000000000000000000000000000000000000000000081526004016115ea9061511e565b60405180910390fd5b6115fb612d5c565b73ffffffffffffffffffffffffffffffffffffffff16611619611d67565b73ffffffffffffffffffffffffffffffffffffffff161461166f576040517f08c379a0000000000000000000000000000000000000000000000000000000008152600401611666906151fe565b60405180910390fd5b60006016600083815260200190815260200160002060040160006101000a81548160ff021916908360028111156116cf577f4e487b7100000000000000000000000000000000000000000000000000000000600052602160045260246000fd5b021790555050565b6116df611794565b1561171f576040517f08c379a00000000000000000000000000000000000000000000000000000000081526004016117169061511e565b60405180910390fd5b600b60003373ffffffffffffffffffffffffffffffffffffffff1673ffffffffffffffffffffffffffffffffffffffff16815260200190815260200160002060009054906101000a900460ff1661177557600080fd5b8060166000848152602001908152602001600020600801819055505050565b6000600a60009054906101000a900460ff16905090565b6000806002600084815260200190815260200160002060009054906101000a900473ffffffffffffffffffffffffffffffffffffffff169050600073ffffffffffffffffffffffffffffffffffffffff168173ffffffffffffffffffffffffffffffffffffffff161415611854576040517f08c379a000000000000000000000000000000000000000000000000000000000815260040161184b9061517e565b60405180910390fd5b80915050919050565b611865611794565b156118a5576040517f08c379a000000000000000000000000000000000000000000000000000000000815260040161189c9061511e565b60405180910390fd5b600b60003373ffffffffffffffffffffffffffffffffffffffff1673ffffffffffffffffffffffffffffffffffffffff16815260200190815260200160002060009054906101000a900460ff166118fb57600080fd5b60016016600084815260200190815260200160002060020160008282546119229190615500565b9250508190555060016016600083815260200190815260200160002060030160008282546119509190615500565b925050819055505050565b60008073ffffffffffffffffffffffffffffffffffffffff168273ffffffffffffffffffffffffffffffffffffffff1614156119cc576040517f08c379a00000000000000000000000000000000000000000000000000000000081526004016119c39061515e565b60405180910390fd5b600360008373ffffffffffffffffffffffffffffffffffffffff1673ffffffffffffffffffffffffffffffffffffffff168152602001908152602001600020549050919050565b611a1b612d5c565b73ffffffffffffffffffffffffffffffffffffffff16611a39611d67565b73ffffffffffffffffffffffffffffffffffffffff1614611a8f576040517f08c379a0000000000000000000000000000000000000000000000000000000008152600401611a86906151fe565b60405180910390fd5b611a9960006131f9565b565b6000611aa5612d5c565b73ffffffffffffffffffffffffffffffffffffffff16611ac3611d67565b73ffffffffffffffffffffffffffffffffffffffff1614611b19576040517f08c379a0000000000000000000000000000000000000000000000000000000008152600401611b10906151fe565b60405180910390fd5b600b60008373ffffffffffffffffffffffffffffffffffffffff1673ffffffffffffffffffffffffffffffffffffffff16815260200190815260200160002060009054906101000a900460ff16611bfe576001600b60008473ffffffffffffffffffffffffffffffffffffffff1673ffffffffffffffffffffffffffffffffffffffff16815260200190815260200160002060006101000a81548160ff0219169083151502179055507fd1bba68c128cc3f427e5831b3c6f99f480b6efa6b9e80c757768f6124158cc3f82604051611bf19190614efd565b60405180910390a1600190505b919050565b611c0b612d5c565b73ffffffffffffffffffffffffffffffffffffffff16611c29611d67565b73ffffffffffffffffffffffffffffffffffffffff1614611c7f576040517f08c379a0000000000000000000000000000000000000000000000000000000008152600401611c76906151fe565b60405180910390fd5b611c876132bf565b565b611c91612d5c565b73ffffffffffffffffffffffffffffffffffffffff16611caf611d67565b73ffffffffffffffffffffffffffffffffffffffff1614611d05576040517f08c379a0000000000000000000000000000000000000000000000000000000008152600401611cfc906151fe565b60405180910390fd5b600f60009054906101000a900473ffffffffffffffffffffffffffffffffffffffff1673ffffffffffffffffffffffffffffffffffffffff166108fc479081150290604051600060405180830381858888f19350505050611d6557600080fd5b565b6000600a60019054906101000a900473ffffffffffffffffffffffffffffffffffffffff16905090565b606060018054611da090615696565b80601f0160208091040260200160405190810160405280929190818152602001828054611dcc90615696565b8015611e195780601f10611dee57610100808354040283529160200191611e19565b820191906000526020600020905b815481529060010190602001808311611dfc57829003601f168201915b5050505050905090565b600b6020528060005260406000206000915054906101000a900460ff1681565b6016602052806000526040600020600091509050806000015490806001018054611e6c90615696565b80601f0160208091040260200160405190810160405280929190818152602001828054611e9890615696565b8015611ee55780601f10611eba57610100808354040283529160200191611ee5565b820191906000526020600020905b815481529060010190602001808311611ec857829003601f168201915b5050505050908060020154908060030154908060040160009054906101000a900460ff1690806005018054611f1990615696565b80601f0160208091040260200160405190810160405280929190818152602001828054611f4590615696565b8015611f925780601f10611f6757610100808354040283529160200191611f92565b820191906000526020600020905b815481529060010190602001808311611f7557829003601f168201915b505050505090806006018054611fa790615696565b80601f0160208091040260200160405190810160405280929190818152602001828054611fd390615696565b80156120205780601f10611ff557610100808354040283529160200191612020565b820191906000526020600020905b81548152906001019060200180831161200357829003601f168201915b50505050509080600701549080600801549080600901549080600a01549080600b015490508c565b612050611794565b15612090576040517f08c379a00000000000000000000000000000000000000000000000000000000081526004016120879061511e565b60405180910390fd5b600481106120d3576040517f08c379a00000000000000000000000000000000000000000000000000000000081526004016120ca90614ffe565b60405180910390fd5b600d543410158061211d57506120e7612d5c565b73ffffffffffffffffffffffffffffffffffffffff16612105611d67565b73ffffffffffffffffffffffffffffffffffffffff16145b61215c576040517f08c379a00000000000000000000000000000000000000000000000000000000081526004016121539061519e565b60405180910390fd5b600c544210156121a1576040517f08c379a0000000000000000000000000000000000000000000000000000000008152600401612198906150de565b60405180910390fd5b60006121ab610d9b565b905060006001826121bc9190615500565b90506121c88184613362565b6121d233826137e9565b505050565b6121df612d5c565b73ffffffffffffffffffffffffffffffffffffffff168273ffffffffffffffffffffffffffffffffffffffff16141561224d576040517f08c379a0000000000000000000000000000000000000000000000000000000008152600401612244906150be565b60405180910390fd5b806005600061225a612d5c565b73ffffffffffffffffffffffffffffffffffffffff1673ffffffffffffffffffffffffffffffffffffffff16815260200190815260200160002060008473ffffffffffffffffffffffffffffffffffffffff1673ffffffffffffffffffffffffffffffffffffffff16815260200190815260200160002060006101000a81548160ff0219169083151502179055508173ffffffffffffffffffffffffffffffffffffffff16612307612d5c565b73ffffffffffffffffffffffffffffffffffffffff167f17307eab39ab6107e8899845ad3d59bd9653f200f220920489ca2b5937696c318360405161234c9190614f86565b60405180910390a35050565b60006016600083815260200190815260200160002060040160009054906101000a900460ff169050919050565b61238d611794565b156123cd576040517f08c379a00000000000000000000000000000000000000000000000000000000081526004016123c49061511e565b60405180910390fd5b600b60003373ffffffffffffffffffffffffffffffffffffffff1673ffffffffffffffffffffffffffffffffffffffff16815260200190815260200160002060009054906101000a900460ff1661242357600080fd5b8060166000848152602001908152602001600020600901819055505050565b61244a611794565b1561248a576040517f08c379a00000000000000000000000000000000000000000000000000000000081526004016124819061511e565b60405180910390fd5b612492612d5c565b73ffffffffffffffffffffffffffffffffffffffff166124b0611d67565b73ffffffffffffffffffffffffffffffffffffffff1614612506576040517f08c379a00000000000000000000000000000000000000000000000000000000081526004016124fd906151fe565b60405180910390fd5b60016016600083815260200190815260200160002060040160006101000a81548160ff02191690836002811115612566577f4e487b7100000000000000000000000000000000000000000000000000000000600052602160045260246000fd5b021790555050565b612576611794565b156125b6576040517f08c379a00000000000000000000000000000000000000000000000000000000081526004016125ad9061511e565b60405180910390fd5b600b60003373ffffffffffffffffffffffffffffffffffffffff1673ffffffffffffffffffffffffffffffffffffffff16815260200190815260200160002060009054906101000a900460ff1661260c57600080fd5b8060166000848152602001908152602001600020600a01819055505050565b612633611794565b15612673576040517f08c379a000000000000000000000000000000000000000000000000000000000815260040161266a9061511e565b60405180910390fd5b600b60003373ffffffffffffffffffffffffffffffffffffffff1673ffffffffffffffffffffffffffffffffffffffff16815260200190815260200160002060009054906101000a900460ff166126c957600080fd5b8060166000848152602001908152602001600020600701819055505050565b6126f96126f3612d5c565b83612e1d565b612738576040517f08c379a000000000000000000000000000000000000000000000000000000000815260040161272f9061527e565b60405180910390fd5b61274484848484613807565b50505050565b606061275582612cf0565b612794576040517f08c379a000000000000000000000000000000000000000000000000000000000815260040161278b9061523e565b60405180910390fd5b600061279e613863565b905060008151116127be57604051806020016040528060008152506127e9565b806127c8846138f5565b6040516020016127d9929190614ed9565b6040516020818303038152906040525b915050919050565b6000600c54905090565b612803611794565b15612843576040517f08c379a000000000000000000000000000000000000000000000000000000000815260040161283a9061511e565b60405180910390fd5b61284b612d5c565b73ffffffffffffffffffffffffffffffffffffffff16612869611d67565b73ffffffffffffffffffffffffffffffffffffffff16146128bf576040517f08c379a00000000000000000000000000000000000000000000000000000000081526004016128b6906151fe565b60405180910390fd5b60026016600083815260200190815260200160002060040160006101000a81548160ff0219169083600281111561291f577f4e487b7100000000000000000000000000000000000000000000000000000000600052602160045260246000fd5b021790555050565b61292f611794565b1561296f576040517f08c379a00000000000000000000000000000000000000000000000000000000081526004016129669061511e565b60405180910390fd5b600b60003373ffffffffffffffffffffffffffffffffffffffff1673ffffffffffffffffffffffffffffffffffffffff16815260200190815260200160002060009054906101000a900460ff166129c557600080fd5b806016600084815260200190815260200160002060050190805190602001906129ef9291906144aa565b505050565b60006129fe612d5c565b73ffffffffffffffffffffffffffffffffffffffff16612a1c611d67565b73ffffffffffffffffffffffffffffffffffffffff1614612a72576040517f08c379a0000000000000000000000000000000000000000000000000000000008152600401612a69906151fe565b60405180910390fd5b60005b8251811015612ae457612ac7838281518110612aba577f4e487b7100000000000000000000000000000000000000000000000000000000600052603260045260246000fd5b6020026020010151611a9b565b15612ad157600191505b8080612adc906156f9565b915050612a75565b50919050565b6000600560008473ffffffffffffffffffffffffffffffffffffffff1673ffffffffffffffffffffffffffffffffffffffff16815260200190815260200160002060008373ffffffffffffffffffffffffffffffffffffffff1673ffffffffffffffffffffffffffffffffffffffff16815260200190815260200160002060009054906101000a900460ff16905092915050565b612b86612d5c565b73ffffffffffffffffffffffffffffffffffffffff16612ba4611d67565b73ffffffffffffffffffffffffffffffffffffffff1614612bfa576040517f08c379a0000000000000000000000000000000000000000000000000000000008152600401612bf1906151fe565b60405180910390fd5b600073ffffffffffffffffffffffffffffffffffffffff168173ffffffffffffffffffffffffffffffffffffffff161415612c6a576040517f08c379a0000000000000000000000000000000000000000000000000000000008152600401612c619061505e565b60405180910390fd5b612c73816131f9565b50565b60007f780e9d63000000000000000000000000000000000000000000000000000000007bffffffffffffffffffffffffffffffffffffffffffffffffffffffff1916827bffffffffffffffffffffffffffffffffffffffffffffffffffffffff19161480612ce95750612ce882613aa2565b5b9050919050565b60008073ffffffffffffffffffffffffffffffffffffffff166002600084815260200190815260200160002060009054906101000a900473ffffffffffffffffffffffffffffffffffffffff1673ffffffffffffffffffffffffffffffffffffffff1614159050919050565b600033905090565b816004600083815260200190815260200160002060006101000a81548173ffffffffffffffffffffffffffffffffffffffff021916908373ffffffffffffffffffffffffffffffffffffffff160217905550808273ffffffffffffffffffffffffffffffffffffffff16612dd7836117ab565b73ffffffffffffffffffffffffffffffffffffffff167f8c5be1e5ebec7d5bd14f71427d1e84f3dd0314c0f7b2291e5b200ac8c7c3b92560405160405180910390a45050565b6000612e2882612cf0565b612e67576040517f08c379a0000000000000000000000000000000000000000000000000000000008152600401612e5e906150fe565b60405180910390fd5b6000612e72836117ab565b90508073ffffffffffffffffffffffffffffffffffffffff168473ffffffffffffffffffffffffffffffffffffffff161480612ee157508373ffffffffffffffffffffffffffffffffffffffff16612ec984610bc4565b73ffffffffffffffffffffffffffffffffffffffff16145b80612ef25750612ef18185612aea565b5b91505092915050565b8273ffffffffffffffffffffffffffffffffffffffff16612f1b826117ab565b73ffffffffffffffffffffffffffffffffffffffff1614612f71576040517f08c379a0000000000000000000000000000000000000000000000000000000008152600401612f689061521e565b60405180910390fd5b600073ffffffffffffffffffffffffffffffffffffffff168273ffffffffffffffffffffffffffffffffffffffff161415612fe1576040517f08c379a0000000000000000000000000000000000000000000000000000000008152600401612fd89061509e565b60405180910390fd5b612fec838383613b84565b612ff7600082612d64565b6001600360008573ffffffffffffffffffffffffffffffffffffffff1673ffffffffffffffffffffffffffffffffffffffff16815260200190815260200160002060008282546130479190615587565b925050819055506001600360008473ffffffffffffffffffffffffffffffffffffffff1673ffffffffffffffffffffffffffffffffffffffff168152602001908152602001600020600082825461309e9190615500565b92505081905550816002600083815260200190815260200160002060006101000a81548173ffffffffffffffffffffffffffffffffffffffff021916908373ffffffffffffffffffffffffffffffffffffffff160217905550808273ffffffffffffffffffffffffffffffffffffffff168473ffffffffffffffffffffffffffffffffffffffff167fddf252ad1be2c89b69c2b068fc378daa952ba7f163c4a11628f55a4df523b3ef60405160405180910390a4505050565b61315f611794565b61319e576040517f08c379a000000000000000000000000000000000000000000000000000000000815260040161319590614fde565b60405180910390fd5b6000600a60006101000a81548160ff0219169083151502179055507f5db9ee0a495bf2e6ff9c91a7834c1ba4fdd244a5e8aa4e537bd38aeae4b073aa6131e2612d5c565b6040516131ef9190614efd565b60405180910390a1565b6000600a60019054906101000a900473ffffffffffffffffffffffffffffffffffffffff16905081600a60016101000a81548173ffffffffffffffffffffffffffffffffffffffff021916908373ffffffffffffffffffffffffffffffffffffffff1602179055508173ffffffffffffffffffffffffffffffffffffffff168173ffffffffffffffffffffffffffffffffffffffff167f8be0079c531659141344cd1fd0a4f28419497f9722a3daafe3b4186f6b6457e060405160405180910390a35050565b6132c7611794565b15613307576040517f08c379a00000000000000000000000000000000000000000000000000000000081526004016132fe9061511e565b60405180910390fd5b6001600a60006101000a81548160ff0219169083151502179055507f62e78cea01bee320cd4e420270b5ea74000d11b0c9f74754ebdbfc544b05a25861334b612d5c565b6040516133589190614efd565b60405180910390a1565b6040518061018001604052808381526020016040518060400160405280600181526020017f200000000000000000000000000000000000000000000000000000000000000081525081526020016000815260200160008152602001600060028111156133f7577f4e487b7100000000000000000000000000000000000000000000000000000000600052602160045260246000fd5b815260200160108381548110613436577f4e487b7100000000000000000000000000000000000000000000000000000000600052603260045260246000fd5b90600052602060002001805461344b90615696565b80601f016020809104026020016040519081016040528092919081815260200182805461347790615696565b80156134c45780601f10613499576101008083540402835291602001916134c4565b820191906000526020600020905b8154815290600101906020018083116134a757829003601f168201915b5050505050815260200160118381548110613508577f4e487b7100000000000000000000000000000000000000000000000000000000600052603260045260246000fd5b90600052602060002001805461351d90615696565b80601f016020809104026020016040519081016040528092919081815260200182805461354990615696565b80156135965780601f1061356b57610100808354040283529160200191613596565b820191906000526020600020905b81548152906001019060200180831161357957829003601f168201915b505050505081526020016103e88152602001601283815481106135e2577f4e487b7100000000000000000000000000000000000000000000000000000000600052603260045260246000fd5b906000526020600020015481526020016013838154811061362c577f4e487b7100000000000000000000000000000000000000000000000000000000600052603260045260246000fd5b9060005260206000200154815260200160148381548110613676577f4e487b7100000000000000000000000000000000000000000000000000000000600052603260045260246000fd5b90600052602060002001548152602001601583815481106136c0577f4e487b7100000000000000000000000000000000000000000000000000000000600052603260045260246000fd5b9060005260206000200154815250601660008481526020019081526020016000206000820151816000015560208201518160010190805190602001906137079291906144aa565b50604082015181600201556060820151816003015560808201518160040160006101000a81548160ff0219169083600281111561376d577f4e487b7100000000000000000000000000000000000000000000000000000000600052602160045260246000fd5b021790555060a082015181600501908051906020019061378e9291906144aa565b5060c08201518160060190805190602001906137ab9291906144aa565b5060e082015181600701556101008201518160080155610120820151816009015561014082015181600a015561016082015181600b01559050505050565b613803828260405180602001604052806000815250613bdc565b5050565b613812848484612efb565b61381e84848484613c37565b61385d576040517f08c379a00000000000000000000000000000000000000000000000000000000081526004016138549061503e565b60405180910390fd5b50505050565b6060600e805461387290615696565b80601f016020809104026020016040519081016040528092919081815260200182805461389e90615696565b80156138eb5780601f106138c0576101008083540402835291602001916138eb565b820191906000526020600020905b8154815290600101906020018083116138ce57829003601f168201915b5050505050905090565b6060600082141561393d576040518060400160405280600181526020017f30000000000000000000000000000000000000000000000000000000000000008152509050613a9d565b600082905060005b6000821461396f578080613958906156f9565b915050600a826139689190615556565b9150613945565b60008167ffffffffffffffff8111156139b1577f4e487b7100000000000000000000000000000000000000000000000000000000600052604160045260246000fd5b6040519080825280601f01601f1916602001820160405280156139e35781602001600182028036833780820191505090505b5090505b60008514613a96576001826139fc9190615587565b9150600a85613a0b9190615742565b6030613a179190615500565b60f81b818381518110613a53577f4e487b7100000000000000000000000000000000000000000000000000000000600052603260045260246000fd5b60200101907effffffffffffffffffffffffffffffffffffffffffffffffffffffffffffff1916908160001a905350600a85613a8f9190615556565b94506139e7565b8093505050505b919050565b60007f80ac58cd000000000000000000000000000000000000000000000000000000007bffffffffffffffffffffffffffffffffffffffffffffffffffffffff1916827bffffffffffffffffffffffffffffffffffffffffffffffffffffffff19161480613b6d57507f5b5e139f000000000000000000000000000000000000000000000000000000007bffffffffffffffffffffffffffffffffffffffffffffffffffffffff1916827bffffffffffffffffffffffffffffffffffffffffffffffffffffffff1916145b80613b7d5750613b7c82613dce565b5b9050919050565b613b8c611794565b15613bcc576040517f08c379a0000000000000000000000000000000000000000000000000000000008152600401613bc39061511e565b60405180910390fd5b613bd7838383613e38565b505050565b613be68383613f4c565b613bf36000848484613c37565b613c32576040517f08c379a0000000000000000000000000000000000000000000000000000000008152600401613c299061503e565b60405180910390fd5b505050565b6000613c588473ffffffffffffffffffffffffffffffffffffffff1661411a565b15613dc1578373ffffffffffffffffffffffffffffffffffffffff1663150b7a02613c81612d5c565b8786866040518563ffffffff1660e01b8152600401613ca39493929190614f18565b602060405180830381600087803b158015613cbd57600080fd5b505af1925050508015613cee57506040513d601f19601f82011682018060405250810190613ceb919061492d565b60015b613d71573d8060008114613d1e576040519150601f19603f3d011682016040523d82523d6000602084013e613d23565b606091505b50600081511415613d69576040517f08c379a0000000000000000000000000000000000000000000000000000000008152600401613d609061503e565b60405180910390fd5b805181602001fd5b63150b7a0260e01b7bffffffffffffffffffffffffffffffffffffffffffffffffffffffff1916817bffffffffffffffffffffffffffffffffffffffffffffffffffffffff191614915050613dc6565b600190505b949350505050565b60007f01ffc9a7000000000000000000000000000000000000000000000000000000007bffffffffffffffffffffffffffffffffffffffffffffffffffffffff1916827bffffffffffffffffffffffffffffffffffffffffffffffffffffffff1916149050919050565b613e4383838361412d565b600073ffffffffffffffffffffffffffffffffffffffff168373ffffffffffffffffffffffffffffffffffffffff161415613e8657613e8181614132565b613ec5565b8173ffffffffffffffffffffffffffffffffffffffff168373ffffffffffffffffffffffffffffffffffffffff1614613ec457613ec3838261417b565b5b5b600073ffffffffffffffffffffffffffffffffffffffff168273ffffffffffffffffffffffffffffffffffffffff161415613f0857613f03816142e8565b613f47565b8273ffffffffffffffffffffffffffffffffffffffff168273ffffffffffffffffffffffffffffffffffffffff1614613f4657613f45828261442b565b5b5b505050565b600073ffffffffffffffffffffffffffffffffffffffff168273ffffffffffffffffffffffffffffffffffffffff161415613fbc576040517f08c379a0000000000000000000000000000000000000000000000000000000008152600401613fb3906151be565b60405180910390fd5b613fc581612cf0565b15614005576040517f08c379a0000000000000000000000000000000000000000000000000000000008152600401613ffc9061507e565b60405180910390fd5b61401160008383613b84565b6001600360008473ffffffffffffffffffffffffffffffffffffffff1673ffffffffffffffffffffffffffffffffffffffff16815260200190815260200160002060008282546140619190615500565b92505081905550816002600083815260200190815260200160002060006101000a81548173ffffffffffffffffffffffffffffffffffffffff021916908373ffffffffffffffffffffffffffffffffffffffff160217905550808273ffffffffffffffffffffffffffffffffffffffff16600073ffffffffffffffffffffffffffffffffffffffff167fddf252ad1be2c89b69c2b068fc378daa952ba7f163c4a11628f55a4df523b3ef60405160405180910390a45050565b600080823b905060008111915050919050565b505050565b6008805490506009600083815260200190815260200160002081905550600881908060018154018082558091505060019003906000526020600020016000909190919091505550565b600060016141888461195b565b6141929190615587565b9050600060076000848152602001908152602001600020549050818114614277576000600660008673ffffffffffffffffffffffffffffffffffffffff1673ffffffffffffffffffffffffffffffffffffffff168152602001908152602001600020600084815260200190815260200160002054905080600660008773ffffffffffffffffffffffffffffffffffffffff1673ffffffffffffffffffffffffffffffffffffffff168152602001908152602001600020600084815260200190815260200160002081905550816007600083815260200190815260200160002081905550505b6007600084815260200190815260200160002060009055600660008573ffffffffffffffffffffffffffffffffffffffff1673ffffffffffffffffffffffffffffffffffffffff16815260200190815260200160002060008381526020019081526020016000206000905550505050565b600060016008805490506142fc9190615587565b9050600060096000848152602001908152602001600020549050600060088381548110614352577f4e487b7100000000000000000000000000000000000000000000000000000000600052603260045260246000fd5b90600052602060002001549050806008838154811061439a577f4e487b7100000000000000000000000000000000000000000000000000000000600052603260045260246000fd5b90600052602060002001819055508160096000838152602001908152602001600020819055506009600085815260200190815260200160002060009055600880548061440f577f4e487b7100000000000000000000000000000000000000000000000000000000600052603160045260246000fd5b6001900381819060005260206000200160009055905550505050565b60006144368361195b565b905081600660008573ffffffffffffffffffffffffffffffffffffffff1673ffffffffffffffffffffffffffffffffffffffff168152602001908152602001600020600083815260200190815260200160002081905550806007600084815260200190815260200160002081905550505050565b8280546144b690615696565b90600052602060002090601f0160209004810192826144d8576000855561451f565b82601f106144f157805160ff191683800117855561451f565b8280016001018555821561451f579182015b8281111561451e578251825591602001919060010190614503565b5b50905061452c9190614530565b5090565b5b80821115614549576000816000905550600101614531565b5090565b600061456061455b846153f6565b6153d1565b9050808382526020820190508285602086028201111561457f57600080fd5b60005b858110156145af57816145958882614635565b845260208401935060208301925050600181019050614582565b5050509392505050565b60006145cc6145c784615422565b6153d1565b9050828152602081018484840111156145e457600080fd5b6145ef848285615654565b509392505050565b600061460a61460584615453565b6153d1565b90508281526020810184848401111561462257600080fd5b61462d848285615654565b509392505050565b60008135905061464481615e92565b92915050565b600082601f83011261465b57600080fd5b813561466b84826020860161454d565b91505092915050565b60008135905061468381615ea9565b92915050565b60008135905061469881615ec0565b92915050565b6000815190506146ad81615ec0565b92915050565b600082601f8301126146c457600080fd5b81356146d48482602086016145b9565b91505092915050565b600082601f8301126146ee57600080fd5b81356146fe8482602086016145f7565b91505092915050565b60008135905061471681615ed7565b92915050565b60006020828403121561472e57600080fd5b600061473c84828501614635565b91505092915050565b6000806040838503121561475857600080fd5b600061476685828601614635565b925050602061477785828601614635565b9150509250929050565b60008060006060848603121561479657600080fd5b60006147a486828701614635565b93505060206147b586828701614635565b92505060406147c686828701614707565b9150509250925092565b600080600080608085870312156147e657600080fd5b60006147f487828801614635565b945050602061480587828801614635565b935050604061481687828801614707565b925050606085013567ffffffffffffffff81111561483357600080fd5b61483f878288016146b3565b91505092959194509250565b6000806040838503121561485e57600080fd5b600061486c85828601614635565b925050602061487d85828601614674565b9150509250929050565b6000806040838503121561489a57600080fd5b60006148a885828601614635565b92505060206148b985828601614707565b9150509250929050565b6000602082840312156148d557600080fd5b600082013567ffffffffffffffff8111156148ef57600080fd5b6148fb8482850161464a565b91505092915050565b60006020828403121561491657600080fd5b600061492484828501614689565b91505092915050565b60006020828403121561493f57600080fd5b600061494d8482850161469e565b91505092915050565b60006020828403121561496857600080fd5b600082013567ffffffffffffffff81111561498257600080fd5b61498e848285016146dd565b91505092915050565b6000602082840312156149a957600080fd5b60006149b784828501614707565b91505092915050565b600080604083850312156149d357600080fd5b60006149e185828601614707565b925050602083013567ffffffffffffffff8111156149fe57600080fd5b614a0a858286016146dd565b9150509250929050565b60008060408385031215614a2757600080fd5b6000614a3585828601614707565b9250506020614a4685828601614707565b9150509250929050565b6000614a5c8383614ebb565b60208301905092915050565b614a71816155bb565b82525050565b6000614a8282615494565b614a8c81856154c2565b9350614a9783615484565b8060005b83811015614ac8578151614aaf8882614a50565b9750614aba836154b5565b925050600181019050614a9b565b5085935050505092915050565b614ade816155cd565b82525050565b6000614aef8261549f565b614af981856154d3565b9350614b09818560208601615663565b614b128161585e565b840191505092915050565b614b2681615642565b82525050565b6000614b37826154aa565b614b4181856154e4565b9350614b51818560208601615663565b614b5a8161585e565b840191505092915050565b6000614b70826154aa565b614b7a81856154f5565b9350614b8a818560208601615663565b80840191505092915050565b6000614ba36014836154e4565b9150614bae8261586f565b602082019050919050565b6000614bc6601e836154e4565b9150614bd182615898565b602082019050919050565b6000614be9602b836154e4565b9150614bf4826158c1565b604082019050919050565b6000614c0c6032836154e4565b9150614c1782615910565b604082019050919050565b6000614c2f6026836154e4565b9150614c3a8261595f565b604082019050919050565b6000614c52601c836154e4565b9150614c5d826159ae565b602082019050919050565b6000614c756024836154e4565b9150614c80826159d7565b604082019050919050565b6000614c986019836154e4565b9150614ca382615a26565b602082019050919050565b6000614cbb6025836154e4565b9150614cc682615a4f565b604082019050919050565b6000614cde602c836154e4565b9150614ce982615a9e565b604082019050919050565b6000614d016010836154e4565b9150614d0c82615aed565b602082019050919050565b6000614d246038836154e4565b9150614d2f82615b16565b604082019050919050565b6000614d47602a836154e4565b9150614d5282615b65565b604082019050919050565b6000614d6a6029836154e4565b9150614d7582615bb4565b604082019050919050565b6000614d8d6035836154e4565b9150614d9882615c03565b604082019050919050565b6000614db06020836154e4565b9150614dbb82615c52565b602082019050919050565b6000614dd3602c836154e4565b9150614dde82615c7b565b604082019050919050565b6000614df66020836154e4565b9150614e0182615cca565b602082019050919050565b6000614e196029836154e4565b9150614e2482615cf3565b604082019050919050565b6000614e3c602f836154e4565b9150614e4782615d42565b604082019050919050565b6000614e5f6021836154e4565b9150614e6a82615d91565b604082019050919050565b6000614e826031836154e4565b9150614e8d82615de0565b604082019050919050565b6000614ea5602c836154e4565b9150614eb082615e2f565b604082019050919050565b614ec481615638565b82525050565b614ed381615638565b82525050565b6000614ee58285614b65565b9150614ef18284614b65565b91508190509392505050565b6000602082019050614f126000830184614a68565b92915050565b6000608082019050614f2d6000830187614a68565b614f3a6020830186614a68565b614f476040830185614eca565b8181036060830152614f598184614ae4565b905095945050505050565b60006020820190508181036000830152614f7e8184614a77565b905092915050565b6000602082019050614f9b6000830184614ad5565b92915050565b6000602082019050614fb66000830184614b1d565b92915050565b60006020820190508181036000830152614fd68184614b2c565b905092915050565b60006020820190508181036000830152614ff781614b96565b9050919050565b6000602082019050818103600083015261501781614bb9565b9050919050565b6000602082019050818103600083015261503781614bdc565b9050919050565b6000602082019050818103600083015261505781614bff565b9050919050565b6000602082019050818103600083015261507781614c22565b9050919050565b6000602082019050818103600083015261509781614c45565b9050919050565b600060208201905081810360008301526150b781614c68565b9050919050565b600060208201905081810360008301526150d781614c8b565b9050919050565b600060208201905081810360008301526150f781614cae565b9050919050565b6000602082019050818103600083015261511781614cd1565b9050919050565b6000602082019050818103600083015261513781614cf4565b9050919050565b6000602082019050818103600083015261515781614d17565b9050919050565b6000602082019050818103600083015261517781614d3a565b9050919050565b6000602082019050818103600083015261519781614d5d565b9050919050565b600060208201905081810360008301526151b781614d80565b9050919050565b600060208201905081810360008301526151d781614da3565b9050919050565b600060208201905081810360008301526151f781614dc6565b9050919050565b6000602082019050818103600083015261521781614de9565b9050919050565b6000602082019050818103600083015261523781614e0c565b9050919050565b6000602082019050818103600083015261525781614e2f565b9050919050565b6000602082019050818103600083015261527781614e52565b9050919050565b6000602082019050818103600083015261529781614e75565b9050919050565b600060208201905081810360008301526152b781614e98565b9050919050565b60006020820190506152d36000830184614eca565b92915050565b6000610180820190506152ef600083018f614eca565b8181036020830152615301818e614b2c565b9050615310604083018d614eca565b61531d606083018c614eca565b61532a608083018b614b1d565b81810360a083015261533c818a614b2c565b905081810360c08301526153508189614b2c565b905061535f60e0830188614eca565b61536d610100830187614eca565b61537b610120830186614eca565b615389610140830185614eca565b615397610160830184614eca565b9d9c50505050505050505050505050565b60006040820190506153bd6000830185614eca565b6153ca6020830184614eca565b9392505050565b60006153db6153ec565b90506153e782826156c8565b919050565b6000604051905090565b600067ffffffffffffffff8211156154115761541061582f565b5b602082029050602081019050919050565b600067ffffffffffffffff82111561543d5761543c61582f565b5b6154468261585e565b9050602081019050919050565b600067ffffffffffffffff82111561546e5761546d61582f565b5b6154778261585e565b9050602081019050919050565b6000819050602082019050919050565b600081519050919050565b600081519050919050565b600081519050919050565b6000602082019050919050565b600082825260208201905092915050565b600082825260208201905092915050565b600082825260208201905092915050565b600081905092915050565b600061550b82615638565b915061551683615638565b9250827fffffffffffffffffffffffffffffffffffffffffffffffffffffffffffffffff0382111561554b5761554a615773565b5b828201905092915050565b600061556182615638565b915061556c83615638565b92508261557c5761557b6157a2565b5b828204905092915050565b600061559282615638565b915061559d83615638565b9250828210156155b0576155af615773565b5b828203905092915050565b60006155c682615618565b9050919050565b60008115159050919050565b60007fffffffff0000000000000000000000000000000000000000000000000000000082169050919050565b600081905061561382615e7e565b919050565b600073ffffffffffffffffffffffffffffffffffffffff82169050919050565b6000819050919050565b600061564d82615605565b9050919050565b82818337600083830152505050565b60005b83811015615681578082015181840152602081019050615666565b83811115615690576000848401525b50505050565b600060028204905060018216806156ae57607f821691505b602082108114156156c2576156c1615800565b5b50919050565b6156d18261585e565b810181811067ffffffffffffffff821117156156f0576156ef61582f565b5b80604052505050565b600061570482615638565b91507fffffffffffffffffffffffffffffffffffffffffffffffffffffffffffffffff82141561573757615736615773565b5b600182019050919050565b600061574d82615638565b915061575883615638565b925082615768576157676157a2565b5b828206905092915050565b7f4e487b7100000000000000000000000000000000000000000000000000000000600052601160045260246000fd5b7f4e487b7100000000000000000000000000000000000000000000000000000000600052601260045260246000fd5b7f4e487b7100000000000000000000000000000000000000000000000000000000600052602160045260246000fd5b7f4e487b7100000000000000000000000000000000000000000000000000000000600052602260045260246000fd5b7f4e487b7100000000000000000000000000000000000000000000000000000000600052604160045260246000fd5b6000601f19601f8301169050919050565b7f5061757361626c653a206e6f7420706175736564000000000000000000000000600082015250565b7f5468657265206973206e6f20726f626f74206f66207468617420747970650000600082015250565b7f455243373231456e756d657261626c653a206f776e657220696e646578206f7560008201527f74206f6620626f756e6473000000000000000000000000000000000000000000602082015250565b7f4552433732313a207472616e7366657220746f206e6f6e20455243373231526560008201527f63656976657220696d706c656d656e7465720000000000000000000000000000602082015250565b7f4f776e61626c653a206e6577206f776e657220697320746865207a65726f206160008201527f6464726573730000000000000000000000000000000000000000000000000000602082015250565b7f4552433732313a20746f6b656e20616c7265616479206d696e74656400000000600082015250565b7f4552433732313a207472616e7366657220746f20746865207a65726f2061646460008201527f7265737300000000000000000000000000000000000000000000000000000000602082015250565b7f4552433732313a20617070726f766520746f2063616c6c657200000000000000600082015250565b7f54686520726f626f742073616c65206973206e6f742063757272656e746c792060008201527f6f70656e2e000000000000000000000000000000000000000000000000000000602082015250565b7f4552433732313a206f70657261746f7220717565727920666f72206e6f6e657860008201527f697374656e7420746f6b656e0000000000000000000000000000000000000000602082015250565b7f5061757361626c653a2070617573656400000000000000000000000000000000600082015250565b7f4552433732313a20617070726f76652063616c6c6572206973206e6f74206f7760008201527f6e6572206e6f7220617070726f76656420666f7220616c6c0000000000000000602082015250565b7f4552433732313a2062616c616e636520717565727920666f7220746865207a6560008201527f726f206164647265737300000000000000000000000000000000000000000000602082015250565b7f4552433732313a206f776e657220717565727920666f72206e6f6e657869737460008201527f656e7420746f6b656e0000000000000000000000000000000000000000000000602082015250565b7f5468652076616c7565207375626d69747465642077697468207468697320747260008201527f616e73616374696f6e20697320746f6f206c6f772e0000000000000000000000602082015250565b7f4552433732313a206d696e7420746f20746865207a65726f2061646472657373600082015250565b7f4552433732313a20617070726f76656420717565727920666f72206e6f6e657860008201527f697374656e7420746f6b656e0000000000000000000000000000000000000000602082015250565b7f4f776e61626c653a2063616c6c6572206973206e6f7420746865206f776e6572600082015250565b7f4552433732313a207472616e73666572206f6620746f6b656e2074686174206960008201527f73206e6f74206f776e0000000000000000000000000000000000000000000000602082015250565b7f4552433732314d657461646174613a2055524920717565727920666f72206e6f60008201527f6e6578697374656e7420746f6b656e0000000000000000000000000000000000602082015250565b7f4552433732313a20617070726f76616c20746f2063757272656e74206f776e6560008201527f7200000000000000000000000000000000000000000000000000000000000000602082015250565b7f4552433732313a207472616e736665722063616c6c6572206973206e6f74206f60008201527f776e6572206e6f7220617070726f766564000000000000000000000000000000602082015250565b7f455243373231456e756d657261626c653a20676c6f62616c20696e646578206f60008201527f7574206f6620626f756e64730000000000000000000000000000000000000000602082015250565b60038110615e8f57615e8e6157d1565b5b50565b615e9b816155bb565b8114615ea657600080fd5b50565b615eb2816155cd565b8114615ebd57600080fd5b50565b615ec9816155d9565b8114615ed457600080fd5b50565b615ee081615638565b8114615eeb57600080fd5b5056fea2646970667358221220f133b45021b24a451021e076b3c746db13a133daa492221263dff461b51a868764736f6c63430008020033",
  "immutableReferences": {},
  "source": "// contracts/Robot.sol\n// SPDX-License-Identifier: MIT\npragma solidity ^0.8.2;\n\nimport \"@openzeppelin/contracts/token/ERC721/ERC721.sol\";\nimport \"@openzeppelin/contracts/token/ERC721/extensions/ERC721Enumerable.sol\";\nimport \"@openzeppelin/contracts/token/ERC1155/IERC1155.sol\";\nimport \"@openzeppelin/contracts/utils/math/SafeMath.sol\";\nimport \"@openzeppelin/contracts/security/Pausable.sol\";\nimport \"./Whitelist.sol\";\n\ncontract Robot is ERC721, ERC721Enumerable, Pausable, Whitelist {\n\n    using SafeMath for uint256;\n\n    uint256 private _saleTime = 1634451621; // 7PM EDT on November 1st\n    uint256 private _price = 8 * 10**16; // .08 eth\n\n    string private _baseTokenURI;\n\n    // Address where funds are collected\n    address payable private _wallet;\n\n    string[] private robotName = [\"Robot1\", \"Robot2\", \"Robot3\", \"Robot4\"];\n    string[] private robotType = [\"Tank\", \"Speedy\", \"Defender\", \"Retired\"];\n    uint256[] private strength = [20, 10, 10, 20];\n    uint256[] private agility = [10, 20, 10, 20];\n    uint256[] private ai = [10, 20, 20, 10];\n    uint256[] private defense = [20, 10, 20, 10];\n\n    mapping(uint256 => RobotAttributes) public robots;\n\n    enum State {\n        Fighter, // 0\n        Trainer, // 1\n        Retired // 2\n    }\n\n    State constant defaultState = State.Fighter;\n\n    struct RobotAttributes {\n        uint256 robotIndex;\n        string imageURI;\n        uint256 wins;\n        uint256 losses;\n        State state;\n        string robotName;\n        string robotType;\n        uint256 health;\n        uint256 strength;\n        uint256 agility;\n        uint256 ai;\n        uint256 defense;\n    }\n\n    constructor(string memory baseURI, address payable wallet) ERC721(\"Robot\", \"RBT\") {\n        setBaseURI(baseURI);\n        _wallet = wallet;\n    }\n\n    function pause() public onlyOwner {\n        _pause();\n    }\n\n    function unpause() public onlyOwner {\n        _unpause();\n    }\n\n    function setSaleTime(uint256 time) public onlyOwner {\n        _saleTime = time;\n    }\n\n    function getSaleTime() public view returns (uint256) {\n        return _saleTime;\n    }\n\n    function isSaleOpen() public view returns (bool) {\n        return block.timestamp >= _saleTime;\n    }\n\n    function setBaseURI(string memory baseURI) public onlyOwner {\n        _baseTokenURI = baseURI;\n    }\n\n    function _baseURI() internal view virtual override returns (string memory) {\n        return _baseTokenURI;\n    }\n\n    function _beforeTokenTransfer(address from, address to, uint256 tokenId)\n        internal\n        whenNotPaused\n        override(ERC721, ERC721Enumerable)\n    {\n        super._beforeTokenTransfer(from, to, tokenId);\n    }\n\n   // The following function override required by Solidity.\n    function supportsInterface(bytes4 interfaceId)\n        public\n        view\n        override(ERC721, ERC721Enumerable)\n        returns (bool)\n    {\n        return super.supportsInterface(interfaceId);\n    }\n\n    function _createRobot(uint256 index, uint256 typeIndex) internal {\n        robots[index] = RobotAttributes({\n            robotIndex: index,\n            imageURI: \" \",\n            wins: 0,\n            losses: 0,\n            state: defaultState,\n            robotName: robotName[typeIndex],\n            robotType: robotType[typeIndex],\n            health: 1000,\n            strength: strength[typeIndex],\n            agility: agility[typeIndex],\n            ai: ai[typeIndex],\n            defense: defense[typeIndex]\n        });\n    }\n\n    // Count is how many they want to mint\n    function mint(uint256 botType) public whenNotPaused payable {\n        require(botType < 4, \"There is no robot of that type\");\n        require(\n            msg.value >= _price || owner() == _msgSender(),\n            \"The value submitted with this transaction is too low.\"\n        );\n        require(\n            block.timestamp >= _saleTime,\n            \"The robot sale is not currently open.\"\n        );\n\n        uint256 totalSupply = totalSupply();\n        uint256 index = totalSupply + 1;\n        _createRobot(index, botType);\n        _safeMint(msg.sender, index);\n    }\n\n    function updateRobotsRecords(uint256 winningRobotIndex, uint256 losingRobotIndex) public whenNotPaused onlyWhitelisted {\n        robots[winningRobotIndex].wins += 1;\n        robots[losingRobotIndex].losses += 1;\n    }\n\n    function updateRobotName(uint256 robotIndex, string memory value) public whenNotPaused onlyWhitelisted {\n        robots[robotIndex].robotName = value;\n    }\n\n    function updateRobotHealth(uint256 robotIndex, uint256 value) public whenNotPaused onlyWhitelisted {\n        robots[robotIndex].health = value;\n    }\n\n    function updateRobotStrength(uint256 robotIndex, uint256 value) public whenNotPaused onlyWhitelisted {\n        robots[robotIndex].strength = value;\n    }\n\n    function updateRobotAgility(uint256 robotIndex, uint256 value) public whenNotPaused onlyWhitelisted {\n        robots[robotIndex].agility = value;\n    }\n\n    function updateRobotAi(uint256 robotIndex, uint256 value) public whenNotPaused onlyWhitelisted {\n        robots[robotIndex].ai = value;\n    }\n\n    function updateRobotDefense(uint256 robotIndex, uint256 value) public whenNotPaused onlyWhitelisted {\n        robots[robotIndex].defense = value;\n    }\n\n    function setRobotAsFighter(uint256 robotIndex) public whenNotPaused onlyOwner {\n        robots[robotIndex].state = State.Fighter;\n    }\n\n    function setRobotAsTrainer(uint256 robotIndex) public whenNotPaused onlyOwner {\n        robots[robotIndex].state = State.Trainer;\n    }\n\n    function setRobotAsRetired(uint256 robotIndex) public whenNotPaused onlyOwner {\n        robots[robotIndex].state = State.Retired;\n    }\n\n    function getRobotRecord(uint256 robotIndex) public view returns(uint256, uint256) {\n        return(robots[robotIndex].wins, robots[robotIndex].losses);\n    }\n\n    function getRobotState(uint256 robotIndex) public view returns(State) {\n        return robots[robotIndex].state;\n    }\n\n    function walletOfOwner(address _owner)\n        public\n        view\n        returns (uint256[] memory)\n    {\n        uint256 tokenCount = balanceOf(_owner);\n\n        if (tokenCount == 0) {\n            // Return an empty array\n            return new uint256[](0);\n        }\n\n        uint256[] memory tokensId = new uint256[](tokenCount);\n        for (uint256 i; i < tokenCount; i++) {\n            tokensId[i] = tokenOfOwnerByIndex(_owner, i);\n        }\n        return tokensId;\n    }\n\n    function withdrawAll() public payable onlyOwner {\n        require(_wallet.send(address(this).balance));\n    }\n}\n",
  "sourcePath": "/home/seandevs/workspaces/celo-hackathon/nfts/robots/contracts/Robot.sol",
  "compiler": {
    "name": "solc",
    "version": "0.8.2+commit.661d1103.Emscripten.clang"
  },
  "schemaVersion": "3.4.1",
  "updatedAt": "2021-11-15T16:59:37.758Z",
  "networkType": "ethereum",
  "devdoc": {
    "kind": "dev",
    "methods": {
      "approve(address,uint256)": {
        "details": "See {IERC721-approve}."
      },
      "balanceOf(address)": {
        "details": "See {IERC721-balanceOf}."
      },
      "getApproved(uint256)": {
        "details": "See {IERC721-getApproved}."
      },
      "isApprovedForAll(address,address)": {
        "details": "See {IERC721-isApprovedForAll}."
      },
      "name()": {
        "details": "See {IERC721Metadata-name}."
      },
      "owner()": {
        "details": "Returns the address of the current owner."
      },
      "ownerOf(uint256)": {
        "details": "See {IERC721-ownerOf}."
      },
      "paused()": {
        "details": "Returns true if the contract is paused, and false otherwise."
      },
      "renounceOwnership()": {
        "details": "Leaves the contract without owner. It will not be possible to call `onlyOwner` functions anymore. Can only be called by the current owner. NOTE: Renouncing ownership will leave the contract without an owner, thereby removing any functionality that is only available to the owner."
      },
      "safeTransferFrom(address,address,uint256)": {
        "details": "See {IERC721-safeTransferFrom}."
      },
      "safeTransferFrom(address,address,uint256,bytes)": {
        "details": "See {IERC721-safeTransferFrom}."
      },
      "setApprovalForAll(address,bool)": {
        "details": "See {IERC721-setApprovalForAll}."
      },
      "symbol()": {
        "details": "See {IERC721Metadata-symbol}."
      },
      "tokenByIndex(uint256)": {
        "details": "See {IERC721Enumerable-tokenByIndex}."
      },
      "tokenOfOwnerByIndex(address,uint256)": {
        "details": "See {IERC721Enumerable-tokenOfOwnerByIndex}."
      },
      "tokenURI(uint256)": {
        "details": "See {IERC721Metadata-tokenURI}."
      },
      "totalSupply()": {
        "details": "See {IERC721Enumerable-totalSupply}."
      },
      "transferFrom(address,address,uint256)": {
        "details": "See {IERC721-transferFrom}."
      },
      "transferOwnership(address)": {
        "details": "Transfers ownership of the contract to a new account (`newOwner`). Can only be called by the current owner."
      }
    },
    "version": 1
  },
  "userdoc": {
    "kind": "user",
    "methods": {},
    "version": 1
  }
}