{
  "contractName": "Robot",
  "abi": [
    {
      "inputs": [
        {
          "internalType": "string",
          "name": "baseURI",
          "type": "string"
        },
        {
          "internalType": "address payable",
          "name": "wallet",
          "type": "address"
        }
      ],
      "stateMutability": "nonpayable",
      "type": "constructor"
    },
    {
      "anonymous": false,
      "inputs": [
        {
          "indexed": true,
          "internalType": "address",
          "name": "owner",
          "type": "address"
        },
        {
          "indexed": true,
          "internalType": "address",
          "name": "approved",
          "type": "address"
        },
        {
          "indexed": true,
          "internalType": "uint256",
          "name": "tokenId",
          "type": "uint256"
        }
      ],
      "name": "Approval",
      "type": "event"
    },
    {
      "anonymous": false,
      "inputs": [
        {
          "indexed": true,
          "internalType": "address",
          "name": "owner",
          "type": "address"
        },
        {
          "indexed": true,
          "internalType": "address",
          "name": "operator",
          "type": "address"
        },
        {
          "indexed": false,
          "internalType": "bool",
          "name": "approved",
          "type": "bool"
        }
      ],
      "name": "ApprovalForAll",
      "type": "event"
    },
    {
      "anonymous": false,
      "inputs": [
        {
          "indexed": true,
          "internalType": "address",
          "name": "previousOwner",
          "type": "address"
        },
        {
          "indexed": true,
          "internalType": "address",
          "name": "newOwner",
          "type": "address"
        }
      ],
      "name": "OwnershipTransferred",
      "type": "event"
    },
    {
      "anonymous": false,
      "inputs": [
        {
          "indexed": false,
          "internalType": "address",
          "name": "account",
          "type": "address"
        }
      ],
      "name": "Paused",
      "type": "event"
    },
    {
      "anonymous": false,
      "inputs": [
        {
          "indexed": true,
          "internalType": "address",
          "name": "from",
          "type": "address"
        },
        {
          "indexed": true,
          "internalType": "address",
          "name": "to",
          "type": "address"
        },
        {
          "indexed": true,
          "internalType": "uint256",
          "name": "tokenId",
          "type": "uint256"
        }
      ],
      "name": "Transfer",
      "type": "event"
    },
    {
      "anonymous": false,
      "inputs": [
        {
          "indexed": false,
          "internalType": "address",
          "name": "account",
          "type": "address"
        }
      ],
      "name": "Unpaused",
      "type": "event"
    },
    {
      "inputs": [
        {
          "internalType": "address",
          "name": "to",
          "type": "address"
        },
        {
          "internalType": "uint256",
          "name": "tokenId",
          "type": "uint256"
        }
      ],
      "name": "approve",
      "outputs": [],
      "stateMutability": "nonpayable",
      "type": "function"
    },
    {
      "inputs": [
        {
          "internalType": "address",
          "name": "owner",
          "type": "address"
        }
      ],
      "name": "balanceOf",
      "outputs": [
        {
          "internalType": "uint256",
          "name": "",
          "type": "uint256"
        }
      ],
      "stateMutability": "view",
      "type": "function",
      "constant": true
    },
    {
      "inputs": [
        {
          "internalType": "uint256",
          "name": "tokenId",
          "type": "uint256"
        }
      ],
      "name": "getApproved",
      "outputs": [
        {
          "internalType": "address",
          "name": "",
          "type": "address"
        }
      ],
      "stateMutability": "view",
      "type": "function",
      "constant": true
    },
    {
      "inputs": [
        {
          "internalType": "address",
          "name": "owner",
          "type": "address"
        },
        {
          "internalType": "address",
          "name": "operator",
          "type": "address"
        }
      ],
      "name": "isApprovedForAll",
      "outputs": [
        {
          "internalType": "bool",
          "name": "",
          "type": "bool"
        }
      ],
      "stateMutability": "view",
      "type": "function",
      "constant": true
    },
    {
      "inputs": [],
      "name": "name",
      "outputs": [
        {
          "internalType": "string",
          "name": "",
          "type": "string"
        }
      ],
      "stateMutability": "view",
      "type": "function",
      "constant": true
    },
    {
      "inputs": [],
      "name": "owner",
      "outputs": [
        {
          "internalType": "address",
          "name": "",
          "type": "address"
        }
      ],
      "stateMutability": "view",
      "type": "function",
      "constant": true
    },
    {
      "inputs": [
        {
          "internalType": "uint256",
          "name": "tokenId",
          "type": "uint256"
        }
      ],
      "name": "ownerOf",
      "outputs": [
        {
          "internalType": "address",
          "name": "",
          "type": "address"
        }
      ],
      "stateMutability": "view",
      "type": "function",
      "constant": true
    },
    {
      "inputs": [],
      "name": "paused",
      "outputs": [
        {
          "internalType": "bool",
          "name": "",
          "type": "bool"
        }
      ],
      "stateMutability": "view",
      "type": "function",
      "constant": true
    },
    {
      "inputs": [],
      "name": "renounceOwnership",
      "outputs": [],
      "stateMutability": "nonpayable",
      "type": "function"
    },
    {
      "inputs": [
        {
          "internalType": "uint256",
          "name": "",
          "type": "uint256"
        }
      ],
      "name": "robots",
      "outputs": [
        {
          "internalType": "uint256",
          "name": "robotIndex",
          "type": "uint256"
        },
        {
          "internalType": "string",
          "name": "imageURI",
          "type": "string"
        },
        {
          "internalType": "uint256",
          "name": "wins",
          "type": "uint256"
        },
        {
          "internalType": "uint256",
          "name": "losses",
          "type": "uint256"
        },
        {
          "internalType": "enum Robot.State",
          "name": "state",
          "type": "uint8"
        }
      ],
      "stateMutability": "view",
      "type": "function",
      "constant": true
    },
    {
      "inputs": [
        {
          "internalType": "address",
          "name": "from",
          "type": "address"
        },
        {
          "internalType": "address",
          "name": "to",
          "type": "address"
        },
        {
          "internalType": "uint256",
          "name": "tokenId",
          "type": "uint256"
        }
      ],
      "name": "safeTransferFrom",
      "outputs": [],
      "stateMutability": "nonpayable",
      "type": "function"
    },
    {
      "inputs": [
        {
          "internalType": "address",
          "name": "from",
          "type": "address"
        },
        {
          "internalType": "address",
          "name": "to",
          "type": "address"
        },
        {
          "internalType": "uint256",
          "name": "tokenId",
          "type": "uint256"
        },
        {
          "internalType": "bytes",
          "name": "_data",
          "type": "bytes"
        }
      ],
      "name": "safeTransferFrom",
      "outputs": [],
      "stateMutability": "nonpayable",
      "type": "function"
    },
    {
      "inputs": [
        {
          "internalType": "address",
          "name": "operator",
          "type": "address"
        },
        {
          "internalType": "bool",
          "name": "approved",
          "type": "bool"
        }
      ],
      "name": "setApprovalForAll",
      "outputs": [],
      "stateMutability": "nonpayable",
      "type": "function"
    },
    {
      "inputs": [],
      "name": "symbol",
      "outputs": [
        {
          "internalType": "string",
          "name": "",
          "type": "string"
        }
      ],
      "stateMutability": "view",
      "type": "function",
      "constant": true
    },
    {
      "inputs": [
        {
          "internalType": "uint256",
          "name": "index",
          "type": "uint256"
        }
      ],
      "name": "tokenByIndex",
      "outputs": [
        {
          "internalType": "uint256",
          "name": "",
          "type": "uint256"
        }
      ],
      "stateMutability": "view",
      "type": "function",
      "constant": true
    },
    {
      "inputs": [
        {
          "internalType": "address",
          "name": "owner",
          "type": "address"
        },
        {
          "internalType": "uint256",
          "name": "index",
          "type": "uint256"
        }
      ],
      "name": "tokenOfOwnerByIndex",
      "outputs": [
        {
          "internalType": "uint256",
          "name": "",
          "type": "uint256"
        }
      ],
      "stateMutability": "view",
      "type": "function",
      "constant": true
    },
    {
      "inputs": [
        {
          "internalType": "uint256",
          "name": "tokenId",
          "type": "uint256"
        }
      ],
      "name": "tokenURI",
      "outputs": [
        {
          "internalType": "string",
          "name": "",
          "type": "string"
        }
      ],
      "stateMutability": "view",
      "type": "function",
      "constant": true
    },
    {
      "inputs": [],
      "name": "totalSupply",
      "outputs": [
        {
          "internalType": "uint256",
          "name": "",
          "type": "uint256"
        }
      ],
      "stateMutability": "view",
      "type": "function",
      "constant": true
    },
    {
      "inputs": [
        {
          "internalType": "address",
          "name": "from",
          "type": "address"
        },
        {
          "internalType": "address",
          "name": "to",
          "type": "address"
        },
        {
          "internalType": "uint256",
          "name": "tokenId",
          "type": "uint256"
        }
      ],
      "name": "transferFrom",
      "outputs": [],
      "stateMutability": "nonpayable",
      "type": "function"
    },
    {
      "inputs": [
        {
          "internalType": "address",
          "name": "newOwner",
          "type": "address"
        }
      ],
      "name": "transferOwnership",
      "outputs": [],
      "stateMutability": "nonpayable",
      "type": "function"
    },
    {
      "inputs": [],
      "name": "pause",
      "outputs": [],
      "stateMutability": "nonpayable",
      "type": "function"
    },
    {
      "inputs": [],
      "name": "unpause",
      "outputs": [],
      "stateMutability": "nonpayable",
      "type": "function"
    },
    {
      "inputs": [
        {
          "internalType": "uint256",
          "name": "time",
          "type": "uint256"
        }
      ],
      "name": "setSaleTime",
      "outputs": [],
      "stateMutability": "nonpayable",
      "type": "function"
    },
    {
      "inputs": [],
      "name": "getSaleTime",
      "outputs": [
        {
          "internalType": "uint256",
          "name": "",
          "type": "uint256"
        }
      ],
      "stateMutability": "view",
      "type": "function",
      "constant": true
    },
    {
      "inputs": [],
      "name": "isSaleOpen",
      "outputs": [
        {
          "internalType": "bool",
          "name": "",
          "type": "bool"
        }
      ],
      "stateMutability": "view",
      "type": "function",
      "constant": true
    },
    {
      "inputs": [
        {
          "internalType": "string",
          "name": "baseURI",
          "type": "string"
        }
      ],
      "name": "setBaseURI",
      "outputs": [],
      "stateMutability": "nonpayable",
      "type": "function"
    },
    {
      "inputs": [
        {
          "internalType": "bytes4",
          "name": "interfaceId",
          "type": "bytes4"
        }
      ],
      "name": "supportsInterface",
      "outputs": [
        {
          "internalType": "bool",
          "name": "",
          "type": "bool"
        }
      ],
      "stateMutability": "view",
      "type": "function",
      "constant": true
    },
    {
      "inputs": [
        {
          "internalType": "uint256",
          "name": "_count",
          "type": "uint256"
        }
      ],
      "name": "mint",
      "outputs": [],
      "stateMutability": "payable",
      "type": "function",
      "payable": true
    },
    {
      "inputs": [
        {
          "internalType": "uint256",
          "name": "winningRobotIndex",
          "type": "uint256"
        },
        {
          "internalType": "uint256",
          "name": "losingRobotIndex",
          "type": "uint256"
        }
      ],
      "name": "updateRobotsRecords",
      "outputs": [],
      "stateMutability": "nonpayable",
      "type": "function"
    },
    {
      "inputs": [
        {
          "internalType": "uint256",
          "name": "robotIndex",
          "type": "uint256"
        }
      ],
      "name": "setRobotAsFighter",
      "outputs": [],
      "stateMutability": "nonpayable",
      "type": "function"
    },
    {
      "inputs": [
        {
          "internalType": "uint256",
          "name": "robotIndex",
          "type": "uint256"
        }
      ],
      "name": "setRobotAsTrainer",
      "outputs": [],
      "stateMutability": "nonpayable",
      "type": "function"
    },
    {
      "inputs": [
        {
          "internalType": "uint256",
          "name": "robotIndex",
          "type": "uint256"
        }
      ],
      "name": "setRobotAsRetired",
      "outputs": [],
      "stateMutability": "nonpayable",
      "type": "function"
    },
    {
      "inputs": [
        {
          "internalType": "uint256",
          "name": "robotIndex",
          "type": "uint256"
        }
      ],
      "name": "getRobotRecord",
      "outputs": [
        {
          "internalType": "uint256",
          "name": "",
          "type": "uint256"
        },
        {
          "internalType": "uint256",
          "name": "",
          "type": "uint256"
        }
      ],
      "stateMutability": "view",
      "type": "function",
      "constant": true
    },
    {
      "inputs": [
        {
          "internalType": "uint256",
          "name": "robotIndex",
          "type": "uint256"
        }
      ],
      "name": "getRobotState",
      "outputs": [
        {
          "internalType": "enum Robot.State",
          "name": "",
          "type": "uint8"
        }
      ],
      "stateMutability": "view",
      "type": "function",
      "constant": true
    },
    {
      "inputs": [
        {
          "internalType": "address",
          "name": "_owner",
          "type": "address"
        }
      ],
      "name": "walletOfOwner",
      "outputs": [
        {
          "internalType": "uint256[]",
          "name": "",
          "type": "uint256[]"
        }
      ],
      "stateMutability": "view",
      "type": "function",
      "constant": true
    },
    {
      "inputs": [],
      "name": "withdrawAll",
      "outputs": [],
      "stateMutability": "payable",
      "type": "function",
      "payable": true
    }
  ],
  "bytecode": "0x608060405263616bc0a5600b5567011c37937e080000600c553480156200002557600080fd5b50604051620054673803806200546783398181016040528101906200004b91906200045c565b6040518060400160405280600581526020017f526f626f740000000000000000000000000000000000000000000000000000008152506040518060400160405280600381526020017f52425400000000000000000000000000000000000000000000000000000000008152508160009080519060200190620000cf92919062000323565b508060019080519060200190620000e892919062000323565b5050506000600a60006101000a81548160ff021916908315150217905550620001266200011a6200018060201b60201c565b6200018860201b60201c565b62000137826200024e60201b60201c565b80600e60006101000a81548173ffffffffffffffffffffffffffffffffffffffff021916908373ffffffffffffffffffffffffffffffffffffffff1602179055505050620006f7565b600033905090565b6000600a60019054906101000a900473ffffffffffffffffffffffffffffffffffffffff16905081600a60016101000a81548173ffffffffffffffffffffffffffffffffffffffff021916908373ffffffffffffffffffffffffffffffffffffffff1602179055508173ffffffffffffffffffffffffffffffffffffffff168173ffffffffffffffffffffffffffffffffffffffff167f8be0079c531659141344cd1fd0a4f28419497f9722a3daafe3b4186f6b6457e060405160405180910390a35050565b6200025e6200018060201b60201c565b73ffffffffffffffffffffffffffffffffffffffff1662000284620002f960201b60201c565b73ffffffffffffffffffffffffffffffffffffffff1614620002dd576040517f08c379a0000000000000000000000000000000000000000000000000000000008152600401620002d490620004dd565b60405180910390fd5b80600d9080519060200190620002f592919062000323565b5050565b6000600a60019054906101000a900473ffffffffffffffffffffffffffffffffffffffff16905090565b8280546200033190620005d9565b90600052602060002090601f016020900481019282620003555760008555620003a1565b82601f106200037057805160ff1916838001178555620003a1565b82800160010185558215620003a1579182015b82811115620003a057825182559160200191906001019062000383565b5b509050620003b09190620003b4565b5090565b5b80821115620003cf576000816000905550600101620003b5565b5090565b6000620003ea620003e48462000528565b620004ff565b9050828152602081018484840111156200040357600080fd5b62000410848285620005a3565b509392505050565b6000815190506200042981620006dd565b92915050565b600082601f8301126200044157600080fd5b815162000453848260208601620003d3565b91505092915050565b600080604083850312156200047057600080fd5b600083015167ffffffffffffffff8111156200048b57600080fd5b62000499858286016200042f565b9250506020620004ac8582860162000418565b9150509250929050565b6000620004c56020836200055e565b9150620004d282620006b4565b602082019050919050565b60006020820190508181036000830152620004f881620004b6565b9050919050565b60006200050b6200051e565b90506200051982826200060f565b919050565b6000604051905090565b600067ffffffffffffffff82111562000546576200054562000674565b5b6200055182620006a3565b9050602081019050919050565b600082825260208201905092915050565b60006200057c8262000583565b9050919050565b600073ffffffffffffffffffffffffffffffffffffffff82169050919050565b60005b83811015620005c3578082015181840152602081019050620005a6565b83811115620005d3576000848401525b50505050565b60006002820490506001821680620005f257607f821691505b6020821081141562000609576200060862000645565b5b50919050565b6200061a82620006a3565b810181811067ffffffffffffffff821117156200063c576200063b62000674565b5b80604052505050565b7f4e487b7100000000000000000000000000000000000000000000000000000000600052602260045260246000fd5b7f4e487b7100000000000000000000000000000000000000000000000000000000600052604160045260246000fd5b6000601f19601f8301169050919050565b7f4f776e61626c653a2063616c6c6572206973206e6f7420746865206f776e6572600082015250565b620006e8816200056f565b8114620006f457600080fd5b50565b614d6080620007076000396000f3fe60806040526004361061020f5760003560e01c80636f027ef111610118578063a22cb465116100a0578063c87b56dd1161006f578063c87b56dd14610782578063cbf21fe4146107bf578063db43c507146107ea578063e985e9c514610813578063f2fde38b146108505761020f565b8063a22cb465146106ca578063a899cbbb146106f3578063abdb9bec14610730578063b88d4fde146107595761020f565b8063853828b6116100e7578063853828b61461060d5780638da5cb5b1461061757806395d89b4114610642578063a03937c51461066d578063a0712d68146106ae5761020f565b80636f027ef11461057957806370a08231146105a2578063715018a6146105df5780638456cb59146105f65761020f565b80633bd2b67d1161019b5780634f6ccce71161016a5780634f6ccce71461048257806355f804b3146104bf57806357a6f5cf146104e85780635c975abb146105115780636352211e1461053c5761020f565b80633bd2b67d146103dc5780633f4ba83a1461040557806342842e0e1461041c578063438b6300146104455761020f565b80630e9c54a1116101e25780630e9c54a1146102e257806318160ddd146103205780631a0813301461034b57806323b872dd146103765780632f745c591461039f5761020f565b806301ffc9a71461021457806306fdde0314610251578063081812fc1461027c578063095ea7b3146102b9575b600080fd5b34801561022057600080fd5b5061023b600480360381019061023691906137b5565b610879565b6040516102489190613de3565b60405180910390f35b34801561025d57600080fd5b5061026661088b565b6040516102739190613e19565b60405180910390f35b34801561028857600080fd5b506102a3600480360381019061029e9190613848565b61091d565b6040516102b09190613d5a565b60405180910390f35b3480156102c557600080fd5b506102e060048036038101906102db9190613779565b6109a2565b005b3480156102ee57600080fd5b5061030960048036038101906103049190613848565b610aba565b604051610317929190614190565b60405180910390f35b34801561032c57600080fd5b50610335610af4565b604051610342919061411b565b60405180910390f35b34801561035757600080fd5b50610360610b01565b60405161036d9190613de3565b60405180910390f35b34801561038257600080fd5b5061039d60048036038101906103989190613673565b610b0e565b005b3480156103ab57600080fd5b506103c660048036038101906103c19190613779565b610b6e565b6040516103d3919061411b565b60405180910390f35b3480156103e857600080fd5b5061040360048036038101906103fe9190613848565b610c13565b005b34801561041157600080fd5b5061041a610c99565b005b34801561042857600080fd5b50610443600480360381019061043e9190613673565b610d1f565b005b34801561045157600080fd5b5061046c6004803603810190610467919061360e565b610d3f565b6040516104799190613dc1565b60405180910390f35b34801561048e57600080fd5b506104a960048036038101906104a49190613848565b610ebb565b6040516104b6919061411b565b60405180910390f35b3480156104cb57600080fd5b506104e660048036038101906104e19190613807565b610f52565b005b3480156104f457600080fd5b5061050f600480360381019061050a9190613848565b610fe8565b005b34801561051d57600080fd5b50610526611114565b6040516105339190613de3565b60405180910390f35b34801561054857600080fd5b50610563600480360381019061055e9190613848565b61112b565b6040516105709190613d5a565b60405180910390f35b34801561058557600080fd5b506105a0600480360381019061059b9190613871565b6111dd565b005b3480156105ae57600080fd5b506105c960048036038101906105c4919061360e565b611301565b6040516105d6919061411b565b60405180910390f35b3480156105eb57600080fd5b506105f46113b9565b005b34801561060257600080fd5b5061060b611441565b005b6106156114c7565b005b34801561062357600080fd5b5061062c6115a5565b6040516106399190613d5a565b60405180910390f35b34801561064e57600080fd5b506106576115cf565b6040516106649190613e19565b60405180910390f35b34801561067957600080fd5b50610694600480360381019061068f9190613848565b611661565b6040516106a5959493929190614136565b60405180910390f35b6106c860048036038101906106c39190613848565b61172c565b005b3480156106d657600080fd5b506106f160048036038101906106ec919061373d565b61189f565b005b3480156106ff57600080fd5b5061071a60048036038101906107159190613848565b611a20565b6040516107279190613dfe565b60405180910390f35b34801561073c57600080fd5b5061075760048036038101906107529190613848565b611a4d565b005b34801561076557600080fd5b50610780600480360381019061077b91906136c2565b611b79565b005b34801561078e57600080fd5b506107a960048036038101906107a49190613848565b611bdb565b6040516107b69190613e19565b60405180910390f35b3480156107cb57600080fd5b506107d4611c82565b6040516107e1919061411b565b60405180910390f35b3480156107f657600080fd5b50610811600480360381019061080c9190613848565b611c8c565b005b34801561081f57600080fd5b5061083a60048036038101906108359190613637565b611db8565b6040516108479190613de3565b60405180910390f35b34801561085c57600080fd5b506108776004803603810190610872919061360e565b611e4c565b005b600061088482611f44565b9050919050565b60606000805461089a906144ac565b80601f01602080910402602001604051908101604052809291908181526020018280546108c6906144ac565b80156109135780601f106108e857610100808354040283529160200191610913565b820191906000526020600020905b8154815290600101906020018083116108f657829003601f168201915b5050505050905090565b600061092882611fbe565b610967576040517f08c379a000000000000000000000000000000000000000000000000000000000815260040161095e9061403b565b60405180910390fd5b6004600083815260200190815260200160002060009054906101000a900473ffffffffffffffffffffffffffffffffffffffff169050919050565b60006109ad8261112b565b90508073ffffffffffffffffffffffffffffffffffffffff168373ffffffffffffffffffffffffffffffffffffffff161415610a1e576040517f08c379a0000000000000000000000000000000000000000000000000000000008152600401610a15906140bb565b60405180910390fd5b8073ffffffffffffffffffffffffffffffffffffffff16610a3d61202a565b73ffffffffffffffffffffffffffffffffffffffff161480610a6c5750610a6b81610a6661202a565b611db8565b5b610aab576040517f08c379a0000000000000000000000000000000000000000000000000000000008152600401610aa290613f9b565b60405180910390fd5b610ab58383612032565b505050565b6000806010600084815260200190815260200160002060020154601060008581526020019081526020016000206003015491509150915091565b6000600880549050905090565b6000600b54421015905090565b610b1f610b1961202a565b826120eb565b610b5e576040517f08c379a0000000000000000000000000000000000000000000000000000000008152600401610b55906140db565b60405180910390fd5b610b698383836121c9565b505050565b6000610b7983611301565b8210610bba576040517f08c379a0000000000000000000000000000000000000000000000000000000008152600401610bb190613e5b565b60405180910390fd5b600660008473ffffffffffffffffffffffffffffffffffffffff1673ffffffffffffffffffffffffffffffffffffffff168152602001908152602001600020600083815260200190815260200160002054905092915050565b610c1b61202a565b73ffffffffffffffffffffffffffffffffffffffff16610c396115a5565b73ffffffffffffffffffffffffffffffffffffffff1614610c8f576040517f08c379a0000000000000000000000000000000000000000000000000000000008152600401610c869061405b565b60405180910390fd5b80600b8190555050565b610ca161202a565b73ffffffffffffffffffffffffffffffffffffffff16610cbf6115a5565b73ffffffffffffffffffffffffffffffffffffffff1614610d15576040517f08c379a0000000000000000000000000000000000000000000000000000000008152600401610d0c9061405b565b60405180910390fd5b610d1d612425565b565b610d3a83838360405180602001604052806000815250611b79565b505050565b60606000610d4c83611301565b90506000811415610dcf57600067ffffffffffffffff811115610d98577f4e487b7100000000000000000000000000000000000000000000000000000000600052604160045260246000fd5b604051908082528060200260200182016040528015610dc65781602001602082028036833780820191505090505b50915050610eb6565b60008167ffffffffffffffff811115610e11577f4e487b7100000000000000000000000000000000000000000000000000000000600052604160045260246000fd5b604051908082528060200260200182016040528015610e3f5781602001602082028036833780820191505090505b50905060005b82811015610eaf57610e578582610b6e565b828281518110610e90577f4e487b7100000000000000000000000000000000000000000000000000000000600052603260045260246000fd5b6020026020010181815250508080610ea79061450f565b915050610e45565b5080925050505b919050565b6000610ec5610af4565b8210610f06576040517f08c379a0000000000000000000000000000000000000000000000000000000008152600401610efd906140fb565b60405180910390fd5b60088281548110610f40577f4e487b7100000000000000000000000000000000000000000000000000000000600052603260045260246000fd5b90600052602060002001549050919050565b610f5a61202a565b73ffffffffffffffffffffffffffffffffffffffff16610f786115a5565b73ffffffffffffffffffffffffffffffffffffffff1614610fce576040517f08c379a0000000000000000000000000000000000000000000000000000000008152600401610fc59061405b565b60405180910390fd5b80600d9080519060200190610fe4929190613432565b5050565b610ff0611114565b15611030576040517f08c379a000000000000000000000000000000000000000000000000000000000815260040161102790613f5b565b60405180910390fd5b61103861202a565b73ffffffffffffffffffffffffffffffffffffffff166110566115a5565b73ffffffffffffffffffffffffffffffffffffffff16146110ac576040517f08c379a00000000000000000000000000000000000000000000000000000000081526004016110a39061405b565b60405180910390fd5b60006010600083815260200190815260200160002060040160006101000a81548160ff0219169083600281111561110c577f4e487b7100000000000000000000000000000000000000000000000000000000600052602160045260246000fd5b021790555050565b6000600a60009054906101000a900460ff16905090565b6000806002600084815260200190815260200160002060009054906101000a900473ffffffffffffffffffffffffffffffffffffffff169050600073ffffffffffffffffffffffffffffffffffffffff168173ffffffffffffffffffffffffffffffffffffffff1614156111d4576040517f08c379a00000000000000000000000000000000000000000000000000000000081526004016111cb90613fdb565b60405180910390fd5b80915050919050565b6111e5611114565b15611225576040517f08c379a000000000000000000000000000000000000000000000000000000000815260040161121c90613f5b565b60405180910390fd5b61122d61202a565b73ffffffffffffffffffffffffffffffffffffffff1661124b6115a5565b73ffffffffffffffffffffffffffffffffffffffff16146112a1576040517f08c379a00000000000000000000000000000000000000000000000000000000081526004016112989061405b565b60405180910390fd5b60016010600084815260200190815260200160002060020160008282546112c891906142bc565b9250508190555060016010600083815260200190815260200160002060030160008282546112f691906142bc565b925050819055505050565b60008073ffffffffffffffffffffffffffffffffffffffff168273ffffffffffffffffffffffffffffffffffffffff161415611372576040517f08c379a000000000000000000000000000000000000000000000000000000000815260040161136990613fbb565b60405180910390fd5b600360008373ffffffffffffffffffffffffffffffffffffffff1673ffffffffffffffffffffffffffffffffffffffff168152602001908152602001600020549050919050565b6113c161202a565b73ffffffffffffffffffffffffffffffffffffffff166113df6115a5565b73ffffffffffffffffffffffffffffffffffffffff1614611435576040517f08c379a000000000000000000000000000000000000000000000000000000000815260040161142c9061405b565b60405180910390fd5b61143f60006124c7565b565b61144961202a565b73ffffffffffffffffffffffffffffffffffffffff166114676115a5565b73ffffffffffffffffffffffffffffffffffffffff16146114bd576040517f08c379a00000000000000000000000000000000000000000000000000000000081526004016114b49061405b565b60405180910390fd5b6114c561258d565b565b6114cf61202a565b73ffffffffffffffffffffffffffffffffffffffff166114ed6115a5565b73ffffffffffffffffffffffffffffffffffffffff1614611543576040517f08c379a000000000000000000000000000000000000000000000000000000000815260040161153a9061405b565b60405180910390fd5b600e60009054906101000a900473ffffffffffffffffffffffffffffffffffffffff1673ffffffffffffffffffffffffffffffffffffffff166108fc479081150290604051600060405180830381858888f193505050506115a357600080fd5b565b6000600a60019054906101000a900473ffffffffffffffffffffffffffffffffffffffff16905090565b6060600180546115de906144ac565b80601f016020809104026020016040519081016040528092919081815260200182805461160a906144ac565b80156116575780601f1061162c57610100808354040283529160200191611657565b820191906000526020600020905b81548152906001019060200180831161163a57829003601f168201915b5050505050905090565b601060205280600052604060002060009150905080600001549080600101805461168a906144ac565b80601f01602080910402602001604051908101604052809291908181526020018280546116b6906144ac565b80156117035780601f106116d857610100808354040283529160200191611703565b820191906000526020600020905b8154815290600101906020018083116116e657829003601f168201915b5050505050908060020154908060030154908060040160009054906101000a900460ff16905085565b611734611114565b15611774576040517f08c379a000000000000000000000000000000000000000000000000000000000815260040161176b90613f5b565b60405180910390fd5b600061177e610af4565b9050601582106117c3576040517f08c379a00000000000000000000000000000000000000000000000000000000081526004016117ba90613f7b565b60405180910390fd5b81600c546117d19190614343565b341015611813576040517f08c379a000000000000000000000000000000000000000000000000000000000815260040161180a90613ffb565b60405180910390fd5b600b54421015611858576040517f08c379a000000000000000000000000000000000000000000000000000000000815260040161184f90613f1b565b60405180910390fd5b60005b8281101561189a576000818361187191906142bc565b905061187c81612630565b6118863382612771565b5080806118929061450f565b91505061185b565b505050565b6118a761202a565b73ffffffffffffffffffffffffffffffffffffffff168273ffffffffffffffffffffffffffffffffffffffff161415611915576040517f08c379a000000000000000000000000000000000000000000000000000000000815260040161190c90613efb565b60405180910390fd5b806005600061192261202a565b73ffffffffffffffffffffffffffffffffffffffff1673ffffffffffffffffffffffffffffffffffffffff16815260200190815260200160002060008473ffffffffffffffffffffffffffffffffffffffff1673ffffffffffffffffffffffffffffffffffffffff16815260200190815260200160002060006101000a81548160ff0219169083151502179055508173ffffffffffffffffffffffffffffffffffffffff166119cf61202a565b73ffffffffffffffffffffffffffffffffffffffff167f17307eab39ab6107e8899845ad3d59bd9653f200f220920489ca2b5937696c3183604051611a149190613de3565b60405180910390a35050565b60006010600083815260200190815260200160002060040160009054906101000a900460ff169050919050565b611a55611114565b15611a95576040517f08c379a0000000000000000000000000000000000000000000000000000000008152600401611a8c90613f5b565b60405180910390fd5b611a9d61202a565b73ffffffffffffffffffffffffffffffffffffffff16611abb6115a5565b73ffffffffffffffffffffffffffffffffffffffff1614611b11576040517f08c379a0000000000000000000000000000000000000000000000000000000008152600401611b089061405b565b60405180910390fd5b60016010600083815260200190815260200160002060040160006101000a81548160ff02191690836002811115611b71577f4e487b7100000000000000000000000000000000000000000000000000000000600052602160045260246000fd5b021790555050565b611b8a611b8461202a565b836120eb565b611bc9576040517f08c379a0000000000000000000000000000000000000000000000000000000008152600401611bc0906140db565b60405180910390fd5b611bd58484848461278f565b50505050565b6060611be682611fbe565b611c25576040517f08c379a0000000000000000000000000000000000000000000000000000000008152600401611c1c9061409b565b60405180910390fd5b6000611c2f6127eb565b90506000815111611c4f5760405180602001604052806000815250611c7a565b80611c598461287d565b604051602001611c6a929190613d36565b6040516020818303038152906040525b915050919050565b6000600b54905090565b611c94611114565b15611cd4576040517f08c379a0000000000000000000000000000000000000000000000000000000008152600401611ccb90613f5b565b60405180910390fd5b611cdc61202a565b73ffffffffffffffffffffffffffffffffffffffff16611cfa6115a5565b73ffffffffffffffffffffffffffffffffffffffff1614611d50576040517f08c379a0000000000000000000000000000000000000000000000000000000008152600401611d479061405b565b60405180910390fd5b60026010600083815260200190815260200160002060040160006101000a81548160ff02191690836002811115611db0577f4e487b7100000000000000000000000000000000000000000000000000000000600052602160045260246000fd5b021790555050565b6000600560008473ffffffffffffffffffffffffffffffffffffffff1673ffffffffffffffffffffffffffffffffffffffff16815260200190815260200160002060008373ffffffffffffffffffffffffffffffffffffffff1673ffffffffffffffffffffffffffffffffffffffff16815260200190815260200160002060009054906101000a900460ff16905092915050565b611e5461202a565b73ffffffffffffffffffffffffffffffffffffffff16611e726115a5565b73ffffffffffffffffffffffffffffffffffffffff1614611ec8576040517f08c379a0000000000000000000000000000000000000000000000000000000008152600401611ebf9061405b565b60405180910390fd5b600073ffffffffffffffffffffffffffffffffffffffff168173ffffffffffffffffffffffffffffffffffffffff161415611f38576040517f08c379a0000000000000000000000000000000000000000000000000000000008152600401611f2f90613e9b565b60405180910390fd5b611f41816124c7565b50565b60007f780e9d63000000000000000000000000000000000000000000000000000000007bffffffffffffffffffffffffffffffffffffffffffffffffffffffff1916827bffffffffffffffffffffffffffffffffffffffffffffffffffffffff19161480611fb75750611fb682612a2a565b5b9050919050565b60008073ffffffffffffffffffffffffffffffffffffffff166002600084815260200190815260200160002060009054906101000a900473ffffffffffffffffffffffffffffffffffffffff1673ffffffffffffffffffffffffffffffffffffffff1614159050919050565b600033905090565b816004600083815260200190815260200160002060006101000a81548173ffffffffffffffffffffffffffffffffffffffff021916908373ffffffffffffffffffffffffffffffffffffffff160217905550808273ffffffffffffffffffffffffffffffffffffffff166120a58361112b565b73ffffffffffffffffffffffffffffffffffffffff167f8c5be1e5ebec7d5bd14f71427d1e84f3dd0314c0f7b2291e5b200ac8c7c3b92560405160405180910390a45050565b60006120f682611fbe565b612135576040517f08c379a000000000000000000000000000000000000000000000000000000000815260040161212c90613f3b565b60405180910390fd5b60006121408361112b565b90508073ffffffffffffffffffffffffffffffffffffffff168473ffffffffffffffffffffffffffffffffffffffff1614806121af57508373ffffffffffffffffffffffffffffffffffffffff166121978461091d565b73ffffffffffffffffffffffffffffffffffffffff16145b806121c057506121bf8185611db8565b5b91505092915050565b8273ffffffffffffffffffffffffffffffffffffffff166121e98261112b565b73ffffffffffffffffffffffffffffffffffffffff161461223f576040517f08c379a00000000000000000000000000000000000000000000000000000000081526004016122369061407b565b60405180910390fd5b600073ffffffffffffffffffffffffffffffffffffffff168273ffffffffffffffffffffffffffffffffffffffff1614156122af576040517f08c379a00000000000000000000000000000000000000000000000000000000081526004016122a690613edb565b60405180910390fd5b6122ba838383612b0c565b6122c5600082612032565b6001600360008573ffffffffffffffffffffffffffffffffffffffff1673ffffffffffffffffffffffffffffffffffffffff1681526020019081526020016000206000828254612315919061439d565b925050819055506001600360008473ffffffffffffffffffffffffffffffffffffffff1673ffffffffffffffffffffffffffffffffffffffff168152602001908152602001600020600082825461236c91906142bc565b92505081905550816002600083815260200190815260200160002060006101000a81548173ffffffffffffffffffffffffffffffffffffffff021916908373ffffffffffffffffffffffffffffffffffffffff160217905550808273ffffffffffffffffffffffffffffffffffffffff168473ffffffffffffffffffffffffffffffffffffffff167fddf252ad1be2c89b69c2b068fc378daa952ba7f163c4a11628f55a4df523b3ef60405160405180910390a4505050565b61242d611114565b61246c576040517f08c379a000000000000000000000000000000000000000000000000000000000815260040161246390613e3b565b60405180910390fd5b6000600a60006101000a81548160ff0219169083151502179055507f5db9ee0a495bf2e6ff9c91a7834c1ba4fdd244a5e8aa4e537bd38aeae4b073aa6124b061202a565b6040516124bd9190613d5a565b60405180910390a1565b6000600a60019054906101000a900473ffffffffffffffffffffffffffffffffffffffff16905081600a60016101000a81548173ffffffffffffffffffffffffffffffffffffffff021916908373ffffffffffffffffffffffffffffffffffffffff1602179055508173ffffffffffffffffffffffffffffffffffffffff168173ffffffffffffffffffffffffffffffffffffffff167f8be0079c531659141344cd1fd0a4f28419497f9722a3daafe3b4186f6b6457e060405160405180910390a35050565b612595611114565b156125d5576040517f08c379a00000000000000000000000000000000000000000000000000000000081526004016125cc90613f5b565b60405180910390fd5b6001600a60006101000a81548160ff0219169083151502179055507f62e78cea01bee320cd4e420270b5ea74000d11b0c9f74754ebdbfc544b05a25861261961202a565b6040516126269190613d5a565b60405180910390a1565b6040518060a001604052808281526020016040518060400160405280600181526020017f200000000000000000000000000000000000000000000000000000000000000081525081526020016000815260200160008152602001600060028111156126c4577f4e487b7100000000000000000000000000000000000000000000000000000000600052602160045260246000fd5b81525060106000838152602001908152602001600020600082015181600001556020820151816001019080519060200190612700929190613432565b50604082015181600201556060820151816003015560808201518160040160006101000a81548160ff02191690836002811115612766577f4e487b7100000000000000000000000000000000000000000000000000000000600052602160045260246000fd5b021790555090505050565b61278b828260405180602001604052806000815250612b64565b5050565b61279a8484846121c9565b6127a684848484612bbf565b6127e5576040517f08c379a00000000000000000000000000000000000000000000000000000000081526004016127dc90613e7b565b60405180910390fd5b50505050565b6060600d80546127fa906144ac565b80601f0160208091040260200160405190810160405280929190818152602001828054612826906144ac565b80156128735780601f1061284857610100808354040283529160200191612873565b820191906000526020600020905b81548152906001019060200180831161285657829003601f168201915b5050505050905090565b606060008214156128c5576040518060400160405280600181526020017f30000000000000000000000000000000000000000000000000000000000000008152509050612a25565b600082905060005b600082146128f75780806128e09061450f565b915050600a826128f09190614312565b91506128cd565b60008167ffffffffffffffff811115612939577f4e487b7100000000000000000000000000000000000000000000000000000000600052604160045260246000fd5b6040519080825280601f01601f19166020018201604052801561296b5781602001600182028036833780820191505090505b5090505b60008514612a1e57600182612984919061439d565b9150600a856129939190614558565b603061299f91906142bc565b60f81b8183815181106129db577f4e487b7100000000000000000000000000000000000000000000000000000000600052603260045260246000fd5b60200101907effffffffffffffffffffffffffffffffffffffffffffffffffffffffffffff1916908160001a905350600a85612a179190614312565b945061296f565b8093505050505b919050565b60007f80ac58cd000000000000000000000000000000000000000000000000000000007bffffffffffffffffffffffffffffffffffffffffffffffffffffffff1916827bffffffffffffffffffffffffffffffffffffffffffffffffffffffff19161480612af557507f5b5e139f000000000000000000000000000000000000000000000000000000007bffffffffffffffffffffffffffffffffffffffffffffffffffffffff1916827bffffffffffffffffffffffffffffffffffffffffffffffffffffffff1916145b80612b055750612b0482612d56565b5b9050919050565b612b14611114565b15612b54576040517f08c379a0000000000000000000000000000000000000000000000000000000008152600401612b4b90613f5b565b60405180910390fd5b612b5f838383612dc0565b505050565b612b6e8383612ed4565b612b7b6000848484612bbf565b612bba576040517f08c379a0000000000000000000000000000000000000000000000000000000008152600401612bb190613e7b565b60405180910390fd5b505050565b6000612be08473ffffffffffffffffffffffffffffffffffffffff166130a2565b15612d49578373ffffffffffffffffffffffffffffffffffffffff1663150b7a02612c0961202a565b8786866040518563ffffffff1660e01b8152600401612c2b9493929190613d75565b602060405180830381600087803b158015612c4557600080fd5b505af1925050508015612c7657506040513d601f19601f82011682018060405250810190612c7391906137de565b60015b612cf9573d8060008114612ca6576040519150601f19603f3d011682016040523d82523d6000602084013e612cab565b606091505b50600081511415612cf1576040517f08c379a0000000000000000000000000000000000000000000000000000000008152600401612ce890613e7b565b60405180910390fd5b805181602001fd5b63150b7a0260e01b7bffffffffffffffffffffffffffffffffffffffffffffffffffffffff1916817bffffffffffffffffffffffffffffffffffffffffffffffffffffffff191614915050612d4e565b600190505b949350505050565b60007f01ffc9a7000000000000000000000000000000000000000000000000000000007bffffffffffffffffffffffffffffffffffffffffffffffffffffffff1916827bffffffffffffffffffffffffffffffffffffffffffffffffffffffff1916149050919050565b612dcb8383836130b5565b600073ffffffffffffffffffffffffffffffffffffffff168373ffffffffffffffffffffffffffffffffffffffff161415612e0e57612e09816130ba565b612e4d565b8173ffffffffffffffffffffffffffffffffffffffff168373ffffffffffffffffffffffffffffffffffffffff1614612e4c57612e4b8382613103565b5b5b600073ffffffffffffffffffffffffffffffffffffffff168273ffffffffffffffffffffffffffffffffffffffff161415612e9057612e8b81613270565b612ecf565b8273ffffffffffffffffffffffffffffffffffffffff168273ffffffffffffffffffffffffffffffffffffffff1614612ece57612ecd82826133b3565b5b5b505050565b600073ffffffffffffffffffffffffffffffffffffffff168273ffffffffffffffffffffffffffffffffffffffff161415612f44576040517f08c379a0000000000000000000000000000000000000000000000000000000008152600401612f3b9061401b565b60405180910390fd5b612f4d81611fbe565b15612f8d576040517f08c379a0000000000000000000000000000000000000000000000000000000008152600401612f8490613ebb565b60405180910390fd5b612f9960008383612b0c565b6001600360008473ffffffffffffffffffffffffffffffffffffffff1673ffffffffffffffffffffffffffffffffffffffff1681526020019081526020016000206000828254612fe991906142bc565b92505081905550816002600083815260200190815260200160002060006101000a81548173ffffffffffffffffffffffffffffffffffffffff021916908373ffffffffffffffffffffffffffffffffffffffff160217905550808273ffffffffffffffffffffffffffffffffffffffff16600073ffffffffffffffffffffffffffffffffffffffff167fddf252ad1be2c89b69c2b068fc378daa952ba7f163c4a11628f55a4df523b3ef60405160405180910390a45050565b600080823b905060008111915050919050565b505050565b6008805490506009600083815260200190815260200160002081905550600881908060018154018082558091505060019003906000526020600020016000909190919091505550565b6000600161311084611301565b61311a919061439d565b90506000600760008481526020019081526020016000205490508181146131ff576000600660008673ffffffffffffffffffffffffffffffffffffffff1673ffffffffffffffffffffffffffffffffffffffff168152602001908152602001600020600084815260200190815260200160002054905080600660008773ffffffffffffffffffffffffffffffffffffffff1673ffffffffffffffffffffffffffffffffffffffff168152602001908152602001600020600084815260200190815260200160002081905550816007600083815260200190815260200160002081905550505b6007600084815260200190815260200160002060009055600660008573ffffffffffffffffffffffffffffffffffffffff1673ffffffffffffffffffffffffffffffffffffffff16815260200190815260200160002060008381526020019081526020016000206000905550505050565b60006001600880549050613284919061439d565b90506000600960008481526020019081526020016000205490506000600883815481106132da577f4e487b7100000000000000000000000000000000000000000000000000000000600052603260045260246000fd5b906000526020600020015490508060088381548110613322577f4e487b7100000000000000000000000000000000000000000000000000000000600052603260045260246000fd5b906000526020600020018190555081600960008381526020019081526020016000208190555060096000858152602001908152602001600020600090556008805480613397577f4e487b7100000000000000000000000000000000000000000000000000000000600052603160045260246000fd5b6001900381819060005260206000200160009055905550505050565b60006133be83611301565b905081600660008573ffffffffffffffffffffffffffffffffffffffff1673ffffffffffffffffffffffffffffffffffffffff168152602001908152602001600020600083815260200190815260200160002081905550806007600084815260200190815260200160002081905550505050565b82805461343e906144ac565b90600052602060002090601f01602090048101928261346057600085556134a7565b82601f1061347957805160ff19168380011785556134a7565b828001600101855582156134a7579182015b828111156134a657825182559160200191906001019061348b565b5b5090506134b491906134b8565b5090565b5b808211156134d15760008160009055506001016134b9565b5090565b60006134e86134e3846141de565b6141b9565b90508281526020810184848401111561350057600080fd5b61350b84828561446a565b509392505050565b60006135266135218461420f565b6141b9565b90508281526020810184848401111561353e57600080fd5b61354984828561446a565b509392505050565b60008135905061356081614cce565b92915050565b60008135905061357581614ce5565b92915050565b60008135905061358a81614cfc565b92915050565b60008151905061359f81614cfc565b92915050565b600082601f8301126135b657600080fd5b81356135c68482602086016134d5565b91505092915050565b600082601f8301126135e057600080fd5b81356135f0848260208601613513565b91505092915050565b60008135905061360881614d13565b92915050565b60006020828403121561362057600080fd5b600061362e84828501613551565b91505092915050565b6000806040838503121561364a57600080fd5b600061365885828601613551565b925050602061366985828601613551565b9150509250929050565b60008060006060848603121561368857600080fd5b600061369686828701613551565b93505060206136a786828701613551565b92505060406136b8868287016135f9565b9150509250925092565b600080600080608085870312156136d857600080fd5b60006136e687828801613551565b94505060206136f787828801613551565b9350506040613708878288016135f9565b925050606085013567ffffffffffffffff81111561372557600080fd5b613731878288016135a5565b91505092959194509250565b6000806040838503121561375057600080fd5b600061375e85828601613551565b925050602061376f85828601613566565b9150509250929050565b6000806040838503121561378c57600080fd5b600061379a85828601613551565b92505060206137ab858286016135f9565b9150509250929050565b6000602082840312156137c757600080fd5b60006137d58482850161357b565b91505092915050565b6000602082840312156137f057600080fd5b60006137fe84828501613590565b91505092915050565b60006020828403121561381957600080fd5b600082013567ffffffffffffffff81111561383357600080fd5b61383f848285016135cf565b91505092915050565b60006020828403121561385a57600080fd5b6000613868848285016135f9565b91505092915050565b6000806040838503121561388457600080fd5b6000613892858286016135f9565b92505060206138a3858286016135f9565b9150509250929050565b60006138b98383613d18565b60208301905092915050565b6138ce816143d1565b82525050565b60006138df82614250565b6138e9818561427e565b93506138f483614240565b8060005b8381101561392557815161390c88826138ad565b975061391783614271565b9250506001810190506138f8565b5085935050505092915050565b61393b816143e3565b82525050565b600061394c8261425b565b613956818561428f565b9350613966818560208601614479565b61396f81614674565b840191505092915050565b61398381614458565b82525050565b600061399482614266565b61399e81856142a0565b93506139ae818560208601614479565b6139b781614674565b840191505092915050565b60006139cd82614266565b6139d781856142b1565b93506139e7818560208601614479565b80840191505092915050565b6000613a006014836142a0565b9150613a0b82614685565b602082019050919050565b6000613a23602b836142a0565b9150613a2e826146ae565b604082019050919050565b6000613a466032836142a0565b9150613a51826146fd565b604082019050919050565b6000613a696026836142a0565b9150613a748261474c565b604082019050919050565b6000613a8c601c836142a0565b9150613a978261479b565b602082019050919050565b6000613aaf6024836142a0565b9150613aba826147c4565b604082019050919050565b6000613ad26019836142a0565b9150613add82614813565b602082019050919050565b6000613af56025836142a0565b9150613b008261483c565b604082019050919050565b6000613b18602c836142a0565b9150613b238261488b565b604082019050919050565b6000613b3b6010836142a0565b9150613b46826148da565b602082019050919050565b6000613b5e602c836142a0565b9150613b6982614903565b604082019050919050565b6000613b816038836142a0565b9150613b8c82614952565b604082019050919050565b6000613ba4602a836142a0565b9150613baf826149a1565b604082019050919050565b6000613bc76029836142a0565b9150613bd2826149f0565b604082019050919050565b6000613bea6035836142a0565b9150613bf582614a3f565b604082019050919050565b6000613c0d6020836142a0565b9150613c1882614a8e565b602082019050919050565b6000613c30602c836142a0565b9150613c3b82614ab7565b604082019050919050565b6000613c536020836142a0565b9150613c5e82614b06565b602082019050919050565b6000613c766029836142a0565b9150613c8182614b2f565b604082019050919050565b6000613c99602f836142a0565b9150613ca482614b7e565b604082019050919050565b6000613cbc6021836142a0565b9150613cc782614bcd565b604082019050919050565b6000613cdf6031836142a0565b9150613cea82614c1c565b604082019050919050565b6000613d02602c836142a0565b9150613d0d82614c6b565b604082019050919050565b613d218161444e565b82525050565b613d308161444e565b82525050565b6000613d4282856139c2565b9150613d4e82846139c2565b91508190509392505050565b6000602082019050613d6f60008301846138c5565b92915050565b6000608082019050613d8a60008301876138c5565b613d9760208301866138c5565b613da46040830185613d27565b8181036060830152613db68184613941565b905095945050505050565b60006020820190508181036000830152613ddb81846138d4565b905092915050565b6000602082019050613df86000830184613932565b92915050565b6000602082019050613e13600083018461397a565b92915050565b60006020820190508181036000830152613e338184613989565b905092915050565b60006020820190508181036000830152613e54816139f3565b9050919050565b60006020820190508181036000830152613e7481613a16565b9050919050565b60006020820190508181036000830152613e9481613a39565b9050919050565b60006020820190508181036000830152613eb481613a5c565b9050919050565b60006020820190508181036000830152613ed481613a7f565b9050919050565b60006020820190508181036000830152613ef481613aa2565b9050919050565b60006020820190508181036000830152613f1481613ac5565b9050919050565b60006020820190508181036000830152613f3481613ae8565b9050919050565b60006020820190508181036000830152613f5481613b0b565b9050919050565b60006020820190508181036000830152613f7481613b2e565b9050919050565b60006020820190508181036000830152613f9481613b51565b9050919050565b60006020820190508181036000830152613fb481613b74565b9050919050565b60006020820190508181036000830152613fd481613b97565b9050919050565b60006020820190508181036000830152613ff481613bba565b9050919050565b6000602082019050818103600083015261401481613bdd565b9050919050565b6000602082019050818103600083015261403481613c00565b9050919050565b6000602082019050818103600083015261405481613c23565b9050919050565b6000602082019050818103600083015261407481613c46565b9050919050565b6000602082019050818103600083015261409481613c69565b9050919050565b600060208201905081810360008301526140b481613c8c565b9050919050565b600060208201905081810360008301526140d481613caf565b9050919050565b600060208201905081810360008301526140f481613cd2565b9050919050565b6000602082019050818103600083015261411481613cf5565b9050919050565b60006020820190506141306000830184613d27565b92915050565b600060a08201905061414b6000830188613d27565b818103602083015261415d8187613989565b905061416c6040830186613d27565b6141796060830185613d27565b614186608083018461397a565b9695505050505050565b60006040820190506141a56000830185613d27565b6141b26020830184613d27565b9392505050565b60006141c36141d4565b90506141cf82826144de565b919050565b6000604051905090565b600067ffffffffffffffff8211156141f9576141f8614645565b5b61420282614674565b9050602081019050919050565b600067ffffffffffffffff82111561422a57614229614645565b5b61423382614674565b9050602081019050919050565b6000819050602082019050919050565b600081519050919050565b600081519050919050565b600081519050919050565b6000602082019050919050565b600082825260208201905092915050565b600082825260208201905092915050565b600082825260208201905092915050565b600081905092915050565b60006142c78261444e565b91506142d28361444e565b9250827fffffffffffffffffffffffffffffffffffffffffffffffffffffffffffffffff0382111561430757614306614589565b5b828201905092915050565b600061431d8261444e565b91506143288361444e565b925082614338576143376145b8565b5b828204905092915050565b600061434e8261444e565b91506143598361444e565b9250817fffffffffffffffffffffffffffffffffffffffffffffffffffffffffffffffff048311821515161561439257614391614589565b5b828202905092915050565b60006143a88261444e565b91506143b38361444e565b9250828210156143c6576143c5614589565b5b828203905092915050565b60006143dc8261442e565b9050919050565b60008115159050919050565b60007fffffffff0000000000000000000000000000000000000000000000000000000082169050919050565b600081905061442982614cba565b919050565b600073ffffffffffffffffffffffffffffffffffffffff82169050919050565b6000819050919050565b60006144638261441b565b9050919050565b82818337600083830152505050565b60005b8381101561449757808201518184015260208101905061447c565b838111156144a6576000848401525b50505050565b600060028204905060018216806144c457607f821691505b602082108114156144d8576144d7614616565b5b50919050565b6144e782614674565b810181811067ffffffffffffffff8211171561450657614505614645565b5b80604052505050565b600061451a8261444e565b91507fffffffffffffffffffffffffffffffffffffffffffffffffffffffffffffffff82141561454d5761454c614589565b5b600182019050919050565b60006145638261444e565b915061456e8361444e565b92508261457e5761457d6145b8565b5b828206905092915050565b7f4e487b7100000000000000000000000000000000000000000000000000000000600052601160045260246000fd5b7f4e487b7100000000000000000000000000000000000000000000000000000000600052601260045260246000fd5b7f4e487b7100000000000000000000000000000000000000000000000000000000600052602160045260246000fd5b7f4e487b7100000000000000000000000000000000000000000000000000000000600052602260045260246000fd5b7f4e487b7100000000000000000000000000000000000000000000000000000000600052604160045260246000fd5b6000601f19601f8301169050919050565b7f5061757361626c653a206e6f7420706175736564000000000000000000000000600082015250565b7f455243373231456e756d657261626c653a206f776e657220696e646578206f7560008201527f74206f6620626f756e6473000000000000000000000000000000000000000000602082015250565b7f4552433732313a207472616e7366657220746f206e6f6e20455243373231526560008201527f63656976657220696d706c656d656e7465720000000000000000000000000000602082015250565b7f4f776e61626c653a206e6577206f776e657220697320746865207a65726f206160008201527f6464726573730000000000000000000000000000000000000000000000000000602082015250565b7f4552433732313a20746f6b656e20616c7265616479206d696e74656400000000600082015250565b7f4552433732313a207472616e7366657220746f20746865207a65726f2061646460008201527f7265737300000000000000000000000000000000000000000000000000000000602082015250565b7f4552433732313a20617070726f766520746f2063616c6c657200000000000000600082015250565b7f54686520726f626f742073616c65206973206e6f742063757272656e746c792060008201527f6f70656e2e000000000000000000000000000000000000000000000000000000602082015250565b7f4552433732313a206f70657261746f7220717565727920666f72206e6f6e657860008201527f697374656e7420746f6b656e0000000000000000000000000000000000000000602082015250565b7f5061757361626c653a2070617573656400000000000000000000000000000000600082015250565b7f4578636565647320746865206d617820746f6b656e20706572207472616e736160008201527f6374696f6e206c696d69742e0000000000000000000000000000000000000000602082015250565b7f4552433732313a20617070726f76652063616c6c6572206973206e6f74206f7760008201527f6e6572206e6f7220617070726f76656420666f7220616c6c0000000000000000602082015250565b7f4552433732313a2062616c616e636520717565727920666f7220746865207a6560008201527f726f206164647265737300000000000000000000000000000000000000000000602082015250565b7f4552433732313a206f776e657220717565727920666f72206e6f6e657869737460008201527f656e7420746f6b656e0000000000000000000000000000000000000000000000602082015250565b7f5468652076616c7565207375626d69747465642077697468207468697320747260008201527f616e73616374696f6e20697320746f6f206c6f772e0000000000000000000000602082015250565b7f4552433732313a206d696e7420746f20746865207a65726f2061646472657373600082015250565b7f4552433732313a20617070726f76656420717565727920666f72206e6f6e657860008201527f697374656e7420746f6b656e0000000000000000000000000000000000000000602082015250565b7f4f776e61626c653a2063616c6c6572206973206e6f7420746865206f776e6572600082015250565b7f4552433732313a207472616e73666572206f6620746f6b656e2074686174206960008201527f73206e6f74206f776e0000000000000000000000000000000000000000000000602082015250565b7f4552433732314d657461646174613a2055524920717565727920666f72206e6f60008201527f6e6578697374656e7420746f6b656e0000000000000000000000000000000000602082015250565b7f4552433732313a20617070726f76616c20746f2063757272656e74206f776e6560008201527f7200000000000000000000000000000000000000000000000000000000000000602082015250565b7f4552433732313a207472616e736665722063616c6c6572206973206e6f74206f60008201527f776e6572206e6f7220617070726f766564000000000000000000000000000000602082015250565b7f455243373231456e756d657261626c653a20676c6f62616c20696e646578206f60008201527f7574206f6620626f756e64730000000000000000000000000000000000000000602082015250565b60038110614ccb57614cca6145e7565b5b50565b614cd7816143d1565b8114614ce257600080fd5b50565b614cee816143e3565b8114614cf957600080fd5b50565b614d05816143ef565b8114614d1057600080fd5b50565b614d1c8161444e565b8114614d2757600080fd5b5056fea264697066735822122028b7a4faafb59099bf0dfcf7b4c42c86eb8c70a025d9d2c019cf73b516137aaa64736f6c63430008020033",
  "immutableReferences": {},
  "source": "// contracts/Robot.sol\n// SPDX-License-Identifier: MIT\npragma solidity ^0.8.2;\n\nimport \"@openzeppelin/contracts/token/ERC721/ERC721.sol\";\nimport \"@openzeppelin/contracts/token/ERC721/extensions/ERC721Enumerable.sol\";\nimport \"@openzeppelin/contracts/token/ERC1155/IERC1155.sol\";\nimport \"@openzeppelin/contracts/utils/math/SafeMath.sol\";\nimport \"@openzeppelin/contracts/access/Ownable.sol\";\nimport \"@openzeppelin/contracts/security/Pausable.sol\";\n\ncontract Robot is ERC721, ERC721Enumerable, Pausable, Ownable {\n\n    using SafeMath for uint256;\n\n    uint256 private _saleTime = 1634451621; // 7PM EDT on November 1st\n    uint256 private _price = 8 * 10**16; // .08 eth\n\n    string private _baseTokenURI;\n\n    // Address where funds are collected\n    address payable private _wallet;\n\n    // The robot accessory contract\n    IERC1155 private _accessory;\n\n    mapping(uint256 => RobotAttributes) public robots;\n\n    enum State {\n        Fighter, // 0\n        Trainer, // 1\n        Retired // 2\n    }\n\n    State constant defaultState = State.Fighter;\n\n    struct RobotAttributes {\n        uint256 robotIndex;\n        string imageURI;\n        uint256 wins;\n        uint256 losses;\n        State state;\n    }\n\n    constructor(string memory baseURI, address payable wallet) ERC721(\"Robot\", \"RBT\") {\n        setBaseURI(baseURI);\n        _wallet = wallet;\n    }\n\n    function pause() public onlyOwner {\n        _pause();\n    }\n\n    function unpause() public onlyOwner {\n        _unpause();\n    }\n\n    function setSaleTime(uint256 time) public onlyOwner {\n        _saleTime = time;\n    }\n\n    function getSaleTime() public view returns (uint256) {\n        return _saleTime;\n    }\n\n    function isSaleOpen() public view returns (bool) {\n        return block.timestamp >= _saleTime;\n    }\n\n    function setBaseURI(string memory baseURI) public onlyOwner {\n        _baseTokenURI = baseURI;\n    }\n\n    function _baseURI() internal view virtual override returns (string memory) {\n        return _baseTokenURI;\n    }\n\n    function _beforeTokenTransfer(address from, address to, uint256 tokenId)\n        internal\n        whenNotPaused\n        override(ERC721, ERC721Enumerable)\n    {\n        super._beforeTokenTransfer(from, to, tokenId);\n    }\n\n   // The following function override required by Solidity.\n    function supportsInterface(bytes4 interfaceId)\n        public\n        view\n        override(ERC721, ERC721Enumerable)\n        returns (bool)\n    {\n        return super.supportsInterface(interfaceId);\n    }\n\n    function _createRobot(uint256 index) internal {\n        robots[index] = RobotAttributes({\n            robotIndex: index,\n            imageURI: \" \",\n            wins: 0,\n            losses: 0,\n            state: defaultState\n        });\n    }\n\n    // Count is how many they want to mint\n    function mint(uint256 _count) public whenNotPaused payable {\n        uint256 totalSupply = totalSupply();\n        require(_count < 21, \"Exceeds the max token per transaction limit.\");\n        require(\n            msg.value >= _price * _count,\n            \"The value submitted with this transaction is too low.\"\n        );\n        require(\n            block.timestamp >= _saleTime,\n            \"The robot sale is not currently open.\"\n        );\n\n        for (uint256 i; i < _count; i++) {\n            uint256 index = totalSupply + i;\n            _createRobot(index);\n            _safeMint(msg.sender, index);\n        }\n    }\n\n    function updateRobotsRecords(uint256 winningRobotIndex, uint256 losingRobotIndex) public whenNotPaused onlyOwner {\n        robots[winningRobotIndex].wins += 1;\n        robots[losingRobotIndex].losses += 1;\n    }\n\n    function setRobotAsFighter(uint256 robotIndex) public whenNotPaused onlyOwner {\n        robots[robotIndex].state = State.Fighter;\n    }\n\n    function setRobotAsTrainer(uint256 robotIndex) public whenNotPaused onlyOwner {\n        robots[robotIndex].state = State.Trainer;\n    }\n\n    function setRobotAsRetired(uint256 robotIndex) public whenNotPaused onlyOwner {\n        robots[robotIndex].state = State.Retired;\n    }\n\n    function getRobotRecord(uint256 robotIndex) public view returns(uint256, uint256) {\n        return(robots[robotIndex].wins, robots[robotIndex].losses);\n    }\n\n    function getRobotState(uint256 robotIndex) public view returns(State) {\n        return robots[robotIndex].state;\n    }\n\n    function walletOfOwner(address _owner)\n        public\n        view\n        returns (uint256[] memory)\n    {\n        uint256 tokenCount = balanceOf(_owner);\n\n        if (tokenCount == 0) {\n            // Return an empty array\n            return new uint256[](0);\n        }\n\n        uint256[] memory tokensId = new uint256[](tokenCount);\n        for (uint256 i; i < tokenCount; i++) {\n            tokensId[i] = tokenOfOwnerByIndex(_owner, i);\n        }\n        return tokensId;\n    }\n\n    function withdrawAll() public payable onlyOwner {\n        require(_wallet.send(address(this).balance));\n    }\n}\n",
  "sourcePath": "/home/seandevs/workspaces/celo-hackathon/nfts/robots/contracts/Robot.sol",
  "compiler": {
    "name": "solc",
    "version": "0.8.2+commit.661d1103.Emscripten.clang"
  },
  "schemaVersion": "3.4.1",
  "updatedAt": "2021-11-01T22:54:02.102Z",
  "networkType": "ethereum",
  "devdoc": {
    "kind": "dev",
    "methods": {
      "approve(address,uint256)": {
        "details": "See {IERC721-approve}."
      },
      "balanceOf(address)": {
        "details": "See {IERC721-balanceOf}."
      },
      "getApproved(uint256)": {
        "details": "See {IERC721-getApproved}."
      },
      "isApprovedForAll(address,address)": {
        "details": "See {IERC721-isApprovedForAll}."
      },
      "name()": {
        "details": "See {IERC721Metadata-name}."
      },
      "owner()": {
        "details": "Returns the address of the current owner."
      },
      "ownerOf(uint256)": {
        "details": "See {IERC721-ownerOf}."
      },
      "paused()": {
        "details": "Returns true if the contract is paused, and false otherwise."
      },
      "renounceOwnership()": {
        "details": "Leaves the contract without owner. It will not be possible to call `onlyOwner` functions anymore. Can only be called by the current owner. NOTE: Renouncing ownership will leave the contract without an owner, thereby removing any functionality that is only available to the owner."
      },
      "safeTransferFrom(address,address,uint256)": {
        "details": "See {IERC721-safeTransferFrom}."
      },
      "safeTransferFrom(address,address,uint256,bytes)": {
        "details": "See {IERC721-safeTransferFrom}."
      },
      "setApprovalForAll(address,bool)": {
        "details": "See {IERC721-setApprovalForAll}."
      },
      "symbol()": {
        "details": "See {IERC721Metadata-symbol}."
      },
      "tokenByIndex(uint256)": {
        "details": "See {IERC721Enumerable-tokenByIndex}."
      },
      "tokenOfOwnerByIndex(address,uint256)": {
        "details": "See {IERC721Enumerable-tokenOfOwnerByIndex}."
      },
      "tokenURI(uint256)": {
        "details": "See {IERC721Metadata-tokenURI}."
      },
      "totalSupply()": {
        "details": "See {IERC721Enumerable-totalSupply}."
      },
      "transferFrom(address,address,uint256)": {
        "details": "See {IERC721-transferFrom}."
      },
      "transferOwnership(address)": {
        "details": "Transfers ownership of the contract to a new account (`newOwner`). Can only be called by the current owner."
      }
    },
    "version": 1
  },
  "userdoc": {
    "kind": "user",
    "methods": {},
    "version": 1
  }
}