{
  "contractName": "Robot",
  "abi": [
    {
      "inputs": [
        {
          "internalType": "string",
          "name": "baseURI",
          "type": "string"
        }
      ],
      "stateMutability": "nonpayable",
      "type": "constructor"
    },
    {
      "anonymous": false,
      "inputs": [
        {
          "indexed": true,
          "internalType": "address",
          "name": "owner",
          "type": "address"
        },
        {
          "indexed": true,
          "internalType": "address",
          "name": "approved",
          "type": "address"
        },
        {
          "indexed": true,
          "internalType": "uint256",
          "name": "tokenId",
          "type": "uint256"
        }
      ],
      "name": "Approval",
      "type": "event"
    },
    {
      "anonymous": false,
      "inputs": [
        {
          "indexed": true,
          "internalType": "address",
          "name": "owner",
          "type": "address"
        },
        {
          "indexed": true,
          "internalType": "address",
          "name": "operator",
          "type": "address"
        },
        {
          "indexed": false,
          "internalType": "bool",
          "name": "approved",
          "type": "bool"
        }
      ],
      "name": "ApprovalForAll",
      "type": "event"
    },
    {
      "anonymous": false,
      "inputs": [
        {
          "indexed": true,
          "internalType": "address",
          "name": "previousOwner",
          "type": "address"
        },
        {
          "indexed": true,
          "internalType": "address",
          "name": "newOwner",
          "type": "address"
        }
      ],
      "name": "OwnershipTransferred",
      "type": "event"
    },
    {
      "anonymous": false,
      "inputs": [
        {
          "indexed": true,
          "internalType": "address",
          "name": "from",
          "type": "address"
        },
        {
          "indexed": true,
          "internalType": "address",
          "name": "to",
          "type": "address"
        },
        {
          "indexed": true,
          "internalType": "uint256",
          "name": "tokenId",
          "type": "uint256"
        }
      ],
      "name": "Transfer",
      "type": "event"
    },
    {
      "inputs": [
        {
          "internalType": "address",
          "name": "to",
          "type": "address"
        },
        {
          "internalType": "uint256",
          "name": "tokenId",
          "type": "uint256"
        }
      ],
      "name": "approve",
      "outputs": [],
      "stateMutability": "nonpayable",
      "type": "function"
    },
    {
      "inputs": [
        {
          "internalType": "address",
          "name": "owner",
          "type": "address"
        }
      ],
      "name": "balanceOf",
      "outputs": [
        {
          "internalType": "uint256",
          "name": "",
          "type": "uint256"
        }
      ],
      "stateMutability": "view",
      "type": "function",
      "constant": true
    },
    {
      "inputs": [
        {
          "internalType": "uint256",
          "name": "tokenId",
          "type": "uint256"
        }
      ],
      "name": "getApproved",
      "outputs": [
        {
          "internalType": "address",
          "name": "",
          "type": "address"
        }
      ],
      "stateMutability": "view",
      "type": "function",
      "constant": true
    },
    {
      "inputs": [
        {
          "internalType": "address",
          "name": "owner",
          "type": "address"
        },
        {
          "internalType": "address",
          "name": "operator",
          "type": "address"
        }
      ],
      "name": "isApprovedForAll",
      "outputs": [
        {
          "internalType": "bool",
          "name": "",
          "type": "bool"
        }
      ],
      "stateMutability": "view",
      "type": "function",
      "constant": true
    },
    {
      "inputs": [],
      "name": "name",
      "outputs": [
        {
          "internalType": "string",
          "name": "",
          "type": "string"
        }
      ],
      "stateMutability": "view",
      "type": "function",
      "constant": true
    },
    {
      "inputs": [],
      "name": "owner",
      "outputs": [
        {
          "internalType": "address",
          "name": "",
          "type": "address"
        }
      ],
      "stateMutability": "view",
      "type": "function",
      "constant": true
    },
    {
      "inputs": [
        {
          "internalType": "uint256",
          "name": "tokenId",
          "type": "uint256"
        }
      ],
      "name": "ownerOf",
      "outputs": [
        {
          "internalType": "address",
          "name": "",
          "type": "address"
        }
      ],
      "stateMutability": "view",
      "type": "function",
      "constant": true
    },
    {
      "inputs": [],
      "name": "renounceOwnership",
      "outputs": [],
      "stateMutability": "nonpayable",
      "type": "function"
    },
    {
      "inputs": [
        {
          "internalType": "address",
          "name": "from",
          "type": "address"
        },
        {
          "internalType": "address",
          "name": "to",
          "type": "address"
        },
        {
          "internalType": "uint256",
          "name": "tokenId",
          "type": "uint256"
        }
      ],
      "name": "safeTransferFrom",
      "outputs": [],
      "stateMutability": "nonpayable",
      "type": "function"
    },
    {
      "inputs": [
        {
          "internalType": "address",
          "name": "from",
          "type": "address"
        },
        {
          "internalType": "address",
          "name": "to",
          "type": "address"
        },
        {
          "internalType": "uint256",
          "name": "tokenId",
          "type": "uint256"
        },
        {
          "internalType": "bytes",
          "name": "_data",
          "type": "bytes"
        }
      ],
      "name": "safeTransferFrom",
      "outputs": [],
      "stateMutability": "nonpayable",
      "type": "function"
    },
    {
      "inputs": [
        {
          "internalType": "address",
          "name": "operator",
          "type": "address"
        },
        {
          "internalType": "bool",
          "name": "approved",
          "type": "bool"
        }
      ],
      "name": "setApprovalForAll",
      "outputs": [],
      "stateMutability": "nonpayable",
      "type": "function"
    },
    {
      "inputs": [
        {
          "internalType": "bytes4",
          "name": "interfaceId",
          "type": "bytes4"
        }
      ],
      "name": "supportsInterface",
      "outputs": [
        {
          "internalType": "bool",
          "name": "",
          "type": "bool"
        }
      ],
      "stateMutability": "view",
      "type": "function",
      "constant": true
    },
    {
      "inputs": [],
      "name": "symbol",
      "outputs": [
        {
          "internalType": "string",
          "name": "",
          "type": "string"
        }
      ],
      "stateMutability": "view",
      "type": "function",
      "constant": true
    },
    {
      "inputs": [
        {
          "internalType": "uint256",
          "name": "index",
          "type": "uint256"
        }
      ],
      "name": "tokenByIndex",
      "outputs": [
        {
          "internalType": "uint256",
          "name": "",
          "type": "uint256"
        }
      ],
      "stateMutability": "view",
      "type": "function",
      "constant": true
    },
    {
      "inputs": [
        {
          "internalType": "address",
          "name": "owner",
          "type": "address"
        },
        {
          "internalType": "uint256",
          "name": "index",
          "type": "uint256"
        }
      ],
      "name": "tokenOfOwnerByIndex",
      "outputs": [
        {
          "internalType": "uint256",
          "name": "",
          "type": "uint256"
        }
      ],
      "stateMutability": "view",
      "type": "function",
      "constant": true
    },
    {
      "inputs": [
        {
          "internalType": "uint256",
          "name": "tokenId",
          "type": "uint256"
        }
      ],
      "name": "tokenURI",
      "outputs": [
        {
          "internalType": "string",
          "name": "",
          "type": "string"
        }
      ],
      "stateMutability": "view",
      "type": "function",
      "constant": true
    },
    {
      "inputs": [],
      "name": "totalSupply",
      "outputs": [
        {
          "internalType": "uint256",
          "name": "",
          "type": "uint256"
        }
      ],
      "stateMutability": "view",
      "type": "function",
      "constant": true
    },
    {
      "inputs": [
        {
          "internalType": "address",
          "name": "from",
          "type": "address"
        },
        {
          "internalType": "address",
          "name": "to",
          "type": "address"
        },
        {
          "internalType": "uint256",
          "name": "tokenId",
          "type": "uint256"
        }
      ],
      "name": "transferFrom",
      "outputs": [],
      "stateMutability": "nonpayable",
      "type": "function"
    },
    {
      "inputs": [
        {
          "internalType": "address",
          "name": "newOwner",
          "type": "address"
        }
      ],
      "name": "transferOwnership",
      "outputs": [],
      "stateMutability": "nonpayable",
      "type": "function"
    },
    {
      "inputs": [
        {
          "internalType": "uint256",
          "name": "time",
          "type": "uint256"
        }
      ],
      "name": "setSaleTime",
      "outputs": [],
      "stateMutability": "nonpayable",
      "type": "function"
    },
    {
      "inputs": [],
      "name": "getSaleTime",
      "outputs": [
        {
          "internalType": "uint256",
          "name": "",
          "type": "uint256"
        }
      ],
      "stateMutability": "view",
      "type": "function",
      "constant": true
    },
    {
      "inputs": [],
      "name": "isSaleOpen",
      "outputs": [
        {
          "internalType": "bool",
          "name": "",
          "type": "bool"
        }
      ],
      "stateMutability": "view",
      "type": "function",
      "constant": true
    },
    {
      "inputs": [
        {
          "internalType": "string",
          "name": "baseURI",
          "type": "string"
        }
      ],
      "name": "setBaseURI",
      "outputs": [],
      "stateMutability": "nonpayable",
      "type": "function"
    },
    {
      "inputs": [
        {
          "internalType": "uint256",
          "name": "_count",
          "type": "uint256"
        }
      ],
      "name": "mint",
      "outputs": [],
      "stateMutability": "payable",
      "type": "function",
      "payable": true
    },
    {
      "inputs": [
        {
          "internalType": "address",
          "name": "_owner",
          "type": "address"
        }
      ],
      "name": "walletOfOwner",
      "outputs": [
        {
          "internalType": "uint256[]",
          "name": "",
          "type": "uint256[]"
        }
      ],
      "stateMutability": "view",
      "type": "function",
      "constant": true
    },
    {
      "inputs": [],
      "name": "withdrawAll",
      "outputs": [],
      "stateMutability": "payable",
      "type": "function",
      "payable": true
    }
  ],
  "bytecode": "0x608060405263616bc0a5600b5567011c37937e080000600c553480156200002557600080fd5b50604051620042e2380380620042e283398181016040528101906200004b9190620003e8565b6040518060400160405280600581526020017f526f626f740000000000000000000000000000000000000000000000000000008152506040518060400160405280600381526020017f52425400000000000000000000000000000000000000000000000000000000008152508160009080519060200190620000cf929190620002c6565b508060019080519060200190620000e8929190620002c6565b5050506200010b620000ff6200012360201b60201c565b6200012b60201b60201c565b6200011c81620001f160201b60201c565b50620005d3565b600033905090565b6000600a60009054906101000a900473ffffffffffffffffffffffffffffffffffffffff16905081600a60006101000a81548173ffffffffffffffffffffffffffffffffffffffff021916908373ffffffffffffffffffffffffffffffffffffffff1602179055508173ffffffffffffffffffffffffffffffffffffffff168173ffffffffffffffffffffffffffffffffffffffff167f8be0079c531659141344cd1fd0a4f28419497f9722a3daafe3b4186f6b6457e060405160405180910390a35050565b620002016200012360201b60201c565b73ffffffffffffffffffffffffffffffffffffffff16620002276200029c60201b60201c565b73ffffffffffffffffffffffffffffffffffffffff161462000280576040517f08c379a000000000000000000000000000000000000000000000000000000000815260040162000277906200046f565b60405180910390fd5b80600d908051906020019062000298929190620002c6565b5050565b6000600a60009054906101000a900473ffffffffffffffffffffffffffffffffffffffff16905090565b828054620002d4906200053f565b90600052602060002090601f016020900481019282620002f8576000855562000344565b82601f106200031357805160ff191683800117855562000344565b8280016001018555821562000344579182015b828111156200034357825182559160200191906001019062000326565b5b50905062000353919062000357565b5090565b5b808211156200037257600081600090555060010162000358565b5090565b60006200038d6200038784620004c5565b62000491565b905082815260208101848484011115620003a657600080fd5b620003b384828562000509565b509392505050565b600082601f830112620003cd57600080fd5b8151620003df84826020860162000376565b91505092915050565b600060208284031215620003fb57600080fd5b600082015167ffffffffffffffff8111156200041657600080fd5b6200042484828501620003bb565b91505092915050565b60006200043c602083620004f8565b91507f4f776e61626c653a2063616c6c6572206973206e6f7420746865206f776e65726000830152602082019050919050565b600060208201905081810360008301526200048a816200042d565b9050919050565b6000604051905081810181811067ffffffffffffffff82111715620004bb57620004ba620005a4565b5b8060405250919050565b600067ffffffffffffffff821115620004e357620004e2620005a4565b5b601f19601f8301169050602081019050919050565b600082825260208201905092915050565b60005b83811015620005295780820151818401526020810190506200050c565b8381111562000539576000848401525b50505050565b600060028204905060018216806200055857607f821691505b602082108114156200056f576200056e62000575565b5b50919050565b7f4e487b7100000000000000000000000000000000000000000000000000000000600052602260045260246000fd5b7f4e487b7100000000000000000000000000000000000000000000000000000000600052604160045260246000fd5b613cff80620005e36000396000f3fe6080604052600436106101815760003560e01c80636352211e116100d1578063a0712d681161008a578063c87b56dd11610064578063c87b56dd14610564578063cbf21fe4146105a1578063e985e9c5146105cc578063f2fde38b1461060957610181565b8063a0712d68146104f6578063a22cb46514610512578063b88d4fde1461053b57610181565b80636352211e1461040557806370a0823114610442578063715018a61461047f578063853828b6146104965780638da5cb5b146104a057806395d89b41146104cb57610181565b806323b872dd1161013e57806342842e0e1161011857806342842e0e14610339578063438b6300146103625780634f6ccce71461039f57806355f804b3146103dc57610181565b806323b872dd146102aa5780632f745c59146102d35780633bd2b67d1461031057610181565b806301ffc9a71461018657806306fdde03146101c3578063081812fc146101ee578063095ea7b31461022b57806318160ddd146102545780631a0813301461027f575b600080fd5b34801561019257600080fd5b506101ad60048036038101906101a89190612aa0565b610632565b6040516101ba9190613524565b60405180910390f35b3480156101cf57600080fd5b506101d86106ac565b6040516101e5919061353f565b60405180910390f35b3480156101fa57600080fd5b5061021560048036038101906102109190612b33565b61073e565b604051610222919061349b565b60405180910390f35b34801561023757600080fd5b50610252600480360381019061024d9190612a64565b6107c3565b005b34801561026057600080fd5b506102696108db565b6040516102769190613801565b60405180910390f35b34801561028b57600080fd5b506102946108e8565b6040516102a19190613524565b60405180910390f35b3480156102b657600080fd5b506102d160048036038101906102cc919061295e565b6108f5565b005b3480156102df57600080fd5b506102fa60048036038101906102f59190612a64565b610955565b6040516103079190613801565b60405180910390f35b34801561031c57600080fd5b5061033760048036038101906103329190612b33565b6109fa565b005b34801561034557600080fd5b50610360600480360381019061035b919061295e565b610a80565b005b34801561036e57600080fd5b50610389600480360381019061038491906128f9565b610aa0565b6040516103969190613502565b60405180910390f35b3480156103ab57600080fd5b506103c660048036038101906103c19190612b33565b610c1c565b6040516103d39190613801565b60405180910390f35b3480156103e857600080fd5b5061040360048036038101906103fe9190612af2565b610cb3565b005b34801561041157600080fd5b5061042c60048036038101906104279190612b33565b610d49565b604051610439919061349b565b60405180910390f35b34801561044e57600080fd5b50610469600480360381019061046491906128f9565b610dfb565b6040516104769190613801565b60405180910390f35b34801561048b57600080fd5b50610494610eb3565b005b61049e610f3b565b005b3480156104ac57600080fd5b506104b5610f8f565b6040516104c2919061349b565b60405180910390f35b3480156104d757600080fd5b506104e0610fb9565b6040516104ed919061353f565b60405180910390f35b610510600480360381019061050b9190612b33565b61104b565b005b34801561051e57600080fd5b5061053960048036038101906105349190612a28565b611167565b005b34801561054757600080fd5b50610562600480360381019061055d91906129ad565b6112e8565b005b34801561057057600080fd5b5061058b60048036038101906105869190612b33565b61134a565b604051610598919061353f565b60405180910390f35b3480156105ad57600080fd5b506105b66113f1565b6040516105c39190613801565b60405180910390f35b3480156105d857600080fd5b506105f360048036038101906105ee9190612922565b6113fb565b6040516106009190613524565b60405180910390f35b34801561061557600080fd5b50610630600480360381019061062b91906128f9565b61148f565b005b60007f780e9d63000000000000000000000000000000000000000000000000000000007bffffffffffffffffffffffffffffffffffffffffffffffffffffffff1916827bffffffffffffffffffffffffffffffffffffffffffffffffffffffff191614806106a557506106a482611587565b5b9050919050565b6060600080546106bb90613af4565b80601f01602080910402602001604051908101604052809291908181526020018280546106e790613af4565b80156107345780601f1061070957610100808354040283529160200191610734565b820191906000526020600020905b81548152906001019060200180831161071757829003601f168201915b5050505050905090565b600061074982611669565b610788576040517f08c379a000000000000000000000000000000000000000000000000000000000815260040161077f90613721565b60405180910390fd5b6004600083815260200190815260200160002060009054906101000a900473ffffffffffffffffffffffffffffffffffffffff169050919050565b60006107ce82610d49565b90508073ffffffffffffffffffffffffffffffffffffffff168373ffffffffffffffffffffffffffffffffffffffff16141561083f576040517f08c379a0000000000000000000000000000000000000000000000000000000008152600401610836906137a1565b60405180910390fd5b8073ffffffffffffffffffffffffffffffffffffffff1661085e6116d5565b73ffffffffffffffffffffffffffffffffffffffff16148061088d575061088c816108876116d5565b6113fb565b5b6108cc576040517f08c379a00000000000000000000000000000000000000000000000000000000081526004016108c390613681565b60405180910390fd5b6108d683836116dd565b505050565b6000600880549050905090565b6000600b54421015905090565b6109066109006116d5565b82611796565b610945576040517f08c379a000000000000000000000000000000000000000000000000000000000815260040161093c906137c1565b60405180910390fd5b610950838383611874565b505050565b600061096083610dfb565b82106109a1576040517f08c379a000000000000000000000000000000000000000000000000000000000815260040161099890613561565b60405180910390fd5b600660008473ffffffffffffffffffffffffffffffffffffffff1673ffffffffffffffffffffffffffffffffffffffff168152602001908152602001600020600083815260200190815260200160002054905092915050565b610a026116d5565b73ffffffffffffffffffffffffffffffffffffffff16610a20610f8f565b73ffffffffffffffffffffffffffffffffffffffff1614610a76576040517f08c379a0000000000000000000000000000000000000000000000000000000008152600401610a6d90613741565b60405180910390fd5b80600b8190555050565b610a9b838383604051806020016040528060008152506112e8565b505050565b60606000610aad83610dfb565b90506000811415610b3057600067ffffffffffffffff811115610af9577f4e487b7100000000000000000000000000000000000000000000000000000000600052604160045260246000fd5b604051908082528060200260200182016040528015610b275781602001602082028036833780820191505090505b50915050610c17565b60008167ffffffffffffffff811115610b72577f4e487b7100000000000000000000000000000000000000000000000000000000600052604160045260246000fd5b604051908082528060200260200182016040528015610ba05781602001602082028036833780820191505090505b50905060005b82811015610c1057610bb88582610955565b828281518110610bf1577f4e487b7100000000000000000000000000000000000000000000000000000000600052603260045260246000fd5b6020026020010181815250508080610c0890613b26565b915050610ba6565b5080925050505b919050565b6000610c266108db565b8210610c67576040517f08c379a0000000000000000000000000000000000000000000000000000000008152600401610c5e906137e1565b60405180910390fd5b60088281548110610ca1577f4e487b7100000000000000000000000000000000000000000000000000000000600052603260045260246000fd5b90600052602060002001549050919050565b610cbb6116d5565b73ffffffffffffffffffffffffffffffffffffffff16610cd9610f8f565b73ffffffffffffffffffffffffffffffffffffffff1614610d2f576040517f08c379a0000000000000000000000000000000000000000000000000000000008152600401610d2690613741565b60405180910390fd5b80600d9080519060200190610d4592919061271d565b5050565b6000806002600084815260200190815260200160002060009054906101000a900473ffffffffffffffffffffffffffffffffffffffff169050600073ffffffffffffffffffffffffffffffffffffffff168173ffffffffffffffffffffffffffffffffffffffff161415610df2576040517f08c379a0000000000000000000000000000000000000000000000000000000008152600401610de9906136c1565b60405180910390fd5b80915050919050565b60008073ffffffffffffffffffffffffffffffffffffffff168273ffffffffffffffffffffffffffffffffffffffff161415610e6c576040517f08c379a0000000000000000000000000000000000000000000000000000000008152600401610e63906136a1565b60405180910390fd5b600360008373ffffffffffffffffffffffffffffffffffffffff1673ffffffffffffffffffffffffffffffffffffffff168152602001908152602001600020549050919050565b610ebb6116d5565b73ffffffffffffffffffffffffffffffffffffffff16610ed9610f8f565b73ffffffffffffffffffffffffffffffffffffffff1614610f2f576040517f08c379a0000000000000000000000000000000000000000000000000000000008152600401610f2690613741565b60405180910390fd5b610f396000611ad0565b565b732b25a827c40ca0c22f2906b3c262b834e147c4fe73ffffffffffffffffffffffffffffffffffffffff166108fc479081150290604051600060405180830381858888f19350505050610f8d57600080fd5b565b6000600a60009054906101000a900473ffffffffffffffffffffffffffffffffffffffff16905090565b606060018054610fc890613af4565b80601f0160208091040260200160405190810160405280929190818152602001828054610ff490613af4565b80156110415780601f1061101657610100808354040283529160200191611041565b820191906000526020600020905b81548152906001019060200180831161102457829003601f168201915b5050505050905090565b60006110556108db565b90506015821061109a576040517f08c379a000000000000000000000000000000000000000000000000000000000815260040161109190613661565b60405180910390fd5b81600c546110a891906139b0565b3410156110ea576040517f08c379a00000000000000000000000000000000000000000000000000000000081526004016110e1906136e1565b60405180910390fd5b600b5442101561112f576040517f08c379a000000000000000000000000000000000000000000000000000000000815260040161112690613621565b60405180910390fd5b60005b828110156111625761114f33828461114a9190613929565b611b96565b808061115a90613b26565b915050611132565b505050565b61116f6116d5565b73ffffffffffffffffffffffffffffffffffffffff168273ffffffffffffffffffffffffffffffffffffffff1614156111dd576040517f08c379a00000000000000000000000000000000000000000000000000000000081526004016111d490613601565b60405180910390fd5b80600560006111ea6116d5565b73ffffffffffffffffffffffffffffffffffffffff1673ffffffffffffffffffffffffffffffffffffffff16815260200190815260200160002060008473ffffffffffffffffffffffffffffffffffffffff1673ffffffffffffffffffffffffffffffffffffffff16815260200190815260200160002060006101000a81548160ff0219169083151502179055508173ffffffffffffffffffffffffffffffffffffffff166112976116d5565b73ffffffffffffffffffffffffffffffffffffffff167f17307eab39ab6107e8899845ad3d59bd9653f200f220920489ca2b5937696c31836040516112dc9190613524565b60405180910390a35050565b6112f96112f36116d5565b83611796565b611338576040517f08c379a000000000000000000000000000000000000000000000000000000000815260040161132f906137c1565b60405180910390fd5b61134484848484611bb4565b50505050565b606061135582611669565b611394576040517f08c379a000000000000000000000000000000000000000000000000000000000815260040161138b90613781565b60405180910390fd5b600061139e611c10565b905060008151116113be57604051806020016040528060008152506113e9565b806113c884611ca2565b6040516020016113d9929190613477565b6040516020818303038152906040525b915050919050565b6000600b54905090565b6000600560008473ffffffffffffffffffffffffffffffffffffffff1673ffffffffffffffffffffffffffffffffffffffff16815260200190815260200160002060008373ffffffffffffffffffffffffffffffffffffffff1673ffffffffffffffffffffffffffffffffffffffff16815260200190815260200160002060009054906101000a900460ff16905092915050565b6114976116d5565b73ffffffffffffffffffffffffffffffffffffffff166114b5610f8f565b73ffffffffffffffffffffffffffffffffffffffff161461150b576040517f08c379a000000000000000000000000000000000000000000000000000000000815260040161150290613741565b60405180910390fd5b600073ffffffffffffffffffffffffffffffffffffffff168173ffffffffffffffffffffffffffffffffffffffff16141561157b576040517f08c379a0000000000000000000000000000000000000000000000000000000008152600401611572906135a1565b60405180910390fd5b61158481611ad0565b50565b60007f80ac58cd000000000000000000000000000000000000000000000000000000007bffffffffffffffffffffffffffffffffffffffffffffffffffffffff1916827bffffffffffffffffffffffffffffffffffffffffffffffffffffffff1916148061165257507f5b5e139f000000000000000000000000000000000000000000000000000000007bffffffffffffffffffffffffffffffffffffffffffffffffffffffff1916827bffffffffffffffffffffffffffffffffffffffffffffffffffffffff1916145b80611662575061166182611e4f565b5b9050919050565b60008073ffffffffffffffffffffffffffffffffffffffff166002600084815260200190815260200160002060009054906101000a900473ffffffffffffffffffffffffffffffffffffffff1673ffffffffffffffffffffffffffffffffffffffff1614159050919050565b600033905090565b816004600083815260200190815260200160002060006101000a81548173ffffffffffffffffffffffffffffffffffffffff021916908373ffffffffffffffffffffffffffffffffffffffff160217905550808273ffffffffffffffffffffffffffffffffffffffff1661175083610d49565b73ffffffffffffffffffffffffffffffffffffffff167f8c5be1e5ebec7d5bd14f71427d1e84f3dd0314c0f7b2291e5b200ac8c7c3b92560405160405180910390a45050565b60006117a182611669565b6117e0576040517f08c379a00000000000000000000000000000000000000000000000000000000081526004016117d790613641565b60405180910390fd5b60006117eb83610d49565b90508073ffffffffffffffffffffffffffffffffffffffff168473ffffffffffffffffffffffffffffffffffffffff16148061185a57508373ffffffffffffffffffffffffffffffffffffffff166118428461073e565b73ffffffffffffffffffffffffffffffffffffffff16145b8061186b575061186a81856113fb565b5b91505092915050565b8273ffffffffffffffffffffffffffffffffffffffff1661189482610d49565b73ffffffffffffffffffffffffffffffffffffffff16146118ea576040517f08c379a00000000000000000000000000000000000000000000000000000000081526004016118e190613761565b60405180910390fd5b600073ffffffffffffffffffffffffffffffffffffffff168273ffffffffffffffffffffffffffffffffffffffff16141561195a576040517f08c379a0000000000000000000000000000000000000000000000000000000008152600401611951906135e1565b60405180910390fd5b611965838383611eb9565b6119706000826116dd565b6001600360008573ffffffffffffffffffffffffffffffffffffffff1673ffffffffffffffffffffffffffffffffffffffff16815260200190815260200160002060008282546119c09190613a0a565b925050819055506001600360008473ffffffffffffffffffffffffffffffffffffffff1673ffffffffffffffffffffffffffffffffffffffff1681526020019081526020016000206000828254611a179190613929565b92505081905550816002600083815260200190815260200160002060006101000a81548173ffffffffffffffffffffffffffffffffffffffff021916908373ffffffffffffffffffffffffffffffffffffffff160217905550808273ffffffffffffffffffffffffffffffffffffffff168473ffffffffffffffffffffffffffffffffffffffff167fddf252ad1be2c89b69c2b068fc378daa952ba7f163c4a11628f55a4df523b3ef60405160405180910390a4505050565b6000600a60009054906101000a900473ffffffffffffffffffffffffffffffffffffffff16905081600a60006101000a81548173ffffffffffffffffffffffffffffffffffffffff021916908373ffffffffffffffffffffffffffffffffffffffff1602179055508173ffffffffffffffffffffffffffffffffffffffff168173ffffffffffffffffffffffffffffffffffffffff167f8be0079c531659141344cd1fd0a4f28419497f9722a3daafe3b4186f6b6457e060405160405180910390a35050565b611bb0828260405180602001604052806000815250611fcd565b5050565b611bbf848484611874565b611bcb84848484612028565b611c0a576040517f08c379a0000000000000000000000000000000000000000000000000000000008152600401611c0190613581565b60405180910390fd5b50505050565b6060600d8054611c1f90613af4565b80601f0160208091040260200160405190810160405280929190818152602001828054611c4b90613af4565b8015611c985780601f10611c6d57610100808354040283529160200191611c98565b820191906000526020600020905b815481529060010190602001808311611c7b57829003601f168201915b5050505050905090565b60606000821415611cea576040518060400160405280600181526020017f30000000000000000000000000000000000000000000000000000000000000008152509050611e4a565b600082905060005b60008214611d1c578080611d0590613b26565b915050600a82611d15919061397f565b9150611cf2565b60008167ffffffffffffffff811115611d5e577f4e487b7100000000000000000000000000000000000000000000000000000000600052604160045260246000fd5b6040519080825280601f01601f191660200182016040528015611d905781602001600182028036833780820191505090505b5090505b60008514611e4357600182611da99190613a0a565b9150600a85611db89190613b6f565b6030611dc49190613929565b60f81b818381518110611e00577f4e487b7100000000000000000000000000000000000000000000000000000000600052603260045260246000fd5b60200101907effffffffffffffffffffffffffffffffffffffffffffffffffffffffffffff1916908160001a905350600a85611e3c919061397f565b9450611d94565b8093505050505b919050565b60007f01ffc9a7000000000000000000000000000000000000000000000000000000007bffffffffffffffffffffffffffffffffffffffffffffffffffffffff1916827bffffffffffffffffffffffffffffffffffffffffffffffffffffffff1916149050919050565b611ec48383836121bf565b600073ffffffffffffffffffffffffffffffffffffffff168373ffffffffffffffffffffffffffffffffffffffff161415611f0757611f02816121c4565b611f46565b8173ffffffffffffffffffffffffffffffffffffffff168373ffffffffffffffffffffffffffffffffffffffff1614611f4557611f44838261220d565b5b5b600073ffffffffffffffffffffffffffffffffffffffff168273ffffffffffffffffffffffffffffffffffffffff161415611f8957611f848161237a565b611fc8565b8273ffffffffffffffffffffffffffffffffffffffff168273ffffffffffffffffffffffffffffffffffffffff1614611fc757611fc682826124bd565b5b5b505050565b611fd7838361253c565b611fe46000848484612028565b612023576040517f08c379a000000000000000000000000000000000000000000000000000000000815260040161201a90613581565b60405180910390fd5b505050565b60006120498473ffffffffffffffffffffffffffffffffffffffff1661270a565b156121b2578373ffffffffffffffffffffffffffffffffffffffff1663150b7a026120726116d5565b8786866040518563ffffffff1660e01b815260040161209494939291906134b6565b602060405180830381600087803b1580156120ae57600080fd5b505af19250505080156120df57506040513d601f19601f820116820180604052508101906120dc9190612ac9565b60015b612162573d806000811461210f576040519150601f19603f3d011682016040523d82523d6000602084013e612114565b606091505b5060008151141561215a576040517f08c379a000000000000000000000000000000000000000000000000000000000815260040161215190613581565b60405180910390fd5b805181602001fd5b63150b7a0260e01b7bffffffffffffffffffffffffffffffffffffffffffffffffffffffff1916817bffffffffffffffffffffffffffffffffffffffffffffffffffffffff1916149150506121b7565b600190505b949350505050565b505050565b6008805490506009600083815260200190815260200160002081905550600881908060018154018082558091505060019003906000526020600020016000909190919091505550565b6000600161221a84610dfb565b6122249190613a0a565b9050600060076000848152602001908152602001600020549050818114612309576000600660008673ffffffffffffffffffffffffffffffffffffffff1673ffffffffffffffffffffffffffffffffffffffff168152602001908152602001600020600084815260200190815260200160002054905080600660008773ffffffffffffffffffffffffffffffffffffffff1673ffffffffffffffffffffffffffffffffffffffff168152602001908152602001600020600084815260200190815260200160002081905550816007600083815260200190815260200160002081905550505b6007600084815260200190815260200160002060009055600660008573ffffffffffffffffffffffffffffffffffffffff1673ffffffffffffffffffffffffffffffffffffffff16815260200190815260200160002060008381526020019081526020016000206000905550505050565b6000600160088054905061238e9190613a0a565b90506000600960008481526020019081526020016000205490506000600883815481106123e4577f4e487b7100000000000000000000000000000000000000000000000000000000600052603260045260246000fd5b90600052602060002001549050806008838154811061242c577f4e487b7100000000000000000000000000000000000000000000000000000000600052603260045260246000fd5b9060005260206000200181905550816009600083815260200190815260200160002081905550600960008581526020019081526020016000206000905560088054806124a1577f4e487b7100000000000000000000000000000000000000000000000000000000600052603160045260246000fd5b6001900381819060005260206000200160009055905550505050565b60006124c883610dfb565b905081600660008573ffffffffffffffffffffffffffffffffffffffff1673ffffffffffffffffffffffffffffffffffffffff168152602001908152602001600020600083815260200190815260200160002081905550806007600084815260200190815260200160002081905550505050565b600073ffffffffffffffffffffffffffffffffffffffff168273ffffffffffffffffffffffffffffffffffffffff1614156125ac576040517f08c379a00000000000000000000000000000000000000000000000000000000081526004016125a390613701565b60405180910390fd5b6125b581611669565b156125f5576040517f08c379a00000000000000000000000000000000000000000000000000000000081526004016125ec906135c1565b60405180910390fd5b61260160008383611eb9565b6001600360008473ffffffffffffffffffffffffffffffffffffffff1673ffffffffffffffffffffffffffffffffffffffff16815260200190815260200160002060008282546126519190613929565b92505081905550816002600083815260200190815260200160002060006101000a81548173ffffffffffffffffffffffffffffffffffffffff021916908373ffffffffffffffffffffffffffffffffffffffff160217905550808273ffffffffffffffffffffffffffffffffffffffff16600073ffffffffffffffffffffffffffffffffffffffff167fddf252ad1be2c89b69c2b068fc378daa952ba7f163c4a11628f55a4df523b3ef60405160405180910390a45050565b600080823b905060008111915050919050565b82805461272990613af4565b90600052602060002090601f01602090048101928261274b5760008555612792565b82601f1061276457805160ff1916838001178555612792565b82800160010185558215612792579182015b82811115612791578251825591602001919060010190612776565b5b50905061279f91906127a3565b5090565b5b808211156127bc5760008160009055506001016127a4565b5090565b60006127d36127ce8461384d565b61381c565b9050828152602081018484840111156127eb57600080fd5b6127f6848285613ab2565b509392505050565b600061281161280c8461387d565b61381c565b90508281526020810184848401111561282957600080fd5b612834848285613ab2565b509392505050565b60008135905061284b81613c6d565b92915050565b60008135905061286081613c84565b92915050565b60008135905061287581613c9b565b92915050565b60008151905061288a81613c9b565b92915050565b600082601f8301126128a157600080fd5b81356128b18482602086016127c0565b91505092915050565b600082601f8301126128cb57600080fd5b81356128db8482602086016127fe565b91505092915050565b6000813590506128f381613cb2565b92915050565b60006020828403121561290b57600080fd5b60006129198482850161283c565b91505092915050565b6000806040838503121561293557600080fd5b60006129438582860161283c565b92505060206129548582860161283c565b9150509250929050565b60008060006060848603121561297357600080fd5b60006129818682870161283c565b93505060206129928682870161283c565b92505060406129a3868287016128e4565b9150509250925092565b600080600080608085870312156129c357600080fd5b60006129d18782880161283c565b94505060206129e28782880161283c565b93505060406129f3878288016128e4565b925050606085013567ffffffffffffffff811115612a1057600080fd5b612a1c87828801612890565b91505092959194509250565b60008060408385031215612a3b57600080fd5b6000612a498582860161283c565b9250506020612a5a85828601612851565b9150509250929050565b60008060408385031215612a7757600080fd5b6000612a858582860161283c565b9250506020612a96858286016128e4565b9150509250929050565b600060208284031215612ab257600080fd5b6000612ac084828501612866565b91505092915050565b600060208284031215612adb57600080fd5b6000612ae98482850161287b565b91505092915050565b600060208284031215612b0457600080fd5b600082013567ffffffffffffffff811115612b1e57600080fd5b612b2a848285016128ba565b91505092915050565b600060208284031215612b4557600080fd5b6000612b53848285016128e4565b91505092915050565b6000612b688383613459565b60208301905092915050565b612b7d81613a3e565b82525050565b6000612b8e826138bd565b612b9881856138eb565b9350612ba3836138ad565b8060005b83811015612bd4578151612bbb8882612b5c565b9750612bc6836138de565b925050600181019050612ba7565b5085935050505092915050565b612bea81613a50565b82525050565b6000612bfb826138c8565b612c0581856138fc565b9350612c15818560208601613ac1565b612c1e81613c5c565b840191505092915050565b6000612c34826138d3565b612c3e818561390d565b9350612c4e818560208601613ac1565b612c5781613c5c565b840191505092915050565b6000612c6d826138d3565b612c77818561391e565b9350612c87818560208601613ac1565b80840191505092915050565b6000612ca0602b8361390d565b91507f455243373231456e756d657261626c653a206f776e657220696e646578206f7560008301527f74206f6620626f756e64730000000000000000000000000000000000000000006020830152604082019050919050565b6000612d0660328361390d565b91507f4552433732313a207472616e7366657220746f206e6f6e20455243373231526560008301527f63656976657220696d706c656d656e74657200000000000000000000000000006020830152604082019050919050565b6000612d6c60268361390d565b91507f4f776e61626c653a206e6577206f776e657220697320746865207a65726f206160008301527f64647265737300000000000000000000000000000000000000000000000000006020830152604082019050919050565b6000612dd2601c8361390d565b91507f4552433732313a20746f6b656e20616c7265616479206d696e746564000000006000830152602082019050919050565b6000612e1260248361390d565b91507f4552433732313a207472616e7366657220746f20746865207a65726f2061646460008301527f72657373000000000000000000000000000000000000000000000000000000006020830152604082019050919050565b6000612e7860198361390d565b91507f4552433732313a20617070726f766520746f2063616c6c6572000000000000006000830152602082019050919050565b6000612eb860258361390d565b91507f54686520726f626f742073616c65206973206e6f742063757272656e746c792060008301527f6f70656e2e0000000000000000000000000000000000000000000000000000006020830152604082019050919050565b6000612f1e602c8361390d565b91507f4552433732313a206f70657261746f7220717565727920666f72206e6f6e657860008301527f697374656e7420746f6b656e00000000000000000000000000000000000000006020830152604082019050919050565b6000612f84602c8361390d565b91507f4578636565647320746865206d617820746f6b656e20706572207472616e736160008301527f6374696f6e206c696d69742e00000000000000000000000000000000000000006020830152604082019050919050565b6000612fea60388361390d565b91507f4552433732313a20617070726f76652063616c6c6572206973206e6f74206f7760008301527f6e6572206e6f7220617070726f76656420666f7220616c6c00000000000000006020830152604082019050919050565b6000613050602a8361390d565b91507f4552433732313a2062616c616e636520717565727920666f7220746865207a6560008301527f726f2061646472657373000000000000000000000000000000000000000000006020830152604082019050919050565b60006130b660298361390d565b91507f4552433732313a206f776e657220717565727920666f72206e6f6e657869737460008301527f656e7420746f6b656e00000000000000000000000000000000000000000000006020830152604082019050919050565b600061311c60358361390d565b91507f5468652076616c7565207375626d69747465642077697468207468697320747260008301527f616e73616374696f6e20697320746f6f206c6f772e00000000000000000000006020830152604082019050919050565b600061318260208361390d565b91507f4552433732313a206d696e7420746f20746865207a65726f20616464726573736000830152602082019050919050565b60006131c2602c8361390d565b91507f4552433732313a20617070726f76656420717565727920666f72206e6f6e657860008301527f697374656e7420746f6b656e00000000000000000000000000000000000000006020830152604082019050919050565b600061322860208361390d565b91507f4f776e61626c653a2063616c6c6572206973206e6f7420746865206f776e65726000830152602082019050919050565b600061326860298361390d565b91507f4552433732313a207472616e73666572206f6620746f6b656e2074686174206960008301527f73206e6f74206f776e00000000000000000000000000000000000000000000006020830152604082019050919050565b60006132ce602f8361390d565b91507f4552433732314d657461646174613a2055524920717565727920666f72206e6f60008301527f6e6578697374656e7420746f6b656e00000000000000000000000000000000006020830152604082019050919050565b600061333460218361390d565b91507f4552433732313a20617070726f76616c20746f2063757272656e74206f776e6560008301527f72000000000000000000000000000000000000000000000000000000000000006020830152604082019050919050565b600061339a60318361390d565b91507f4552433732313a207472616e736665722063616c6c6572206973206e6f74206f60008301527f776e6572206e6f7220617070726f7665640000000000000000000000000000006020830152604082019050919050565b6000613400602c8361390d565b91507f455243373231456e756d657261626c653a20676c6f62616c20696e646578206f60008301527f7574206f6620626f756e647300000000000000000000000000000000000000006020830152604082019050919050565b61346281613aa8565b82525050565b61347181613aa8565b82525050565b60006134838285612c62565b915061348f8284612c62565b91508190509392505050565b60006020820190506134b06000830184612b74565b92915050565b60006080820190506134cb6000830187612b74565b6134d86020830186612b74565b6134e56040830185613468565b81810360608301526134f78184612bf0565b905095945050505050565b6000602082019050818103600083015261351c8184612b83565b905092915050565b60006020820190506135396000830184612be1565b92915050565b600060208201905081810360008301526135598184612c29565b905092915050565b6000602082019050818103600083015261357a81612c93565b9050919050565b6000602082019050818103600083015261359a81612cf9565b9050919050565b600060208201905081810360008301526135ba81612d5f565b9050919050565b600060208201905081810360008301526135da81612dc5565b9050919050565b600060208201905081810360008301526135fa81612e05565b9050919050565b6000602082019050818103600083015261361a81612e6b565b9050919050565b6000602082019050818103600083015261363a81612eab565b9050919050565b6000602082019050818103600083015261365a81612f11565b9050919050565b6000602082019050818103600083015261367a81612f77565b9050919050565b6000602082019050818103600083015261369a81612fdd565b9050919050565b600060208201905081810360008301526136ba81613043565b9050919050565b600060208201905081810360008301526136da816130a9565b9050919050565b600060208201905081810360008301526136fa8161310f565b9050919050565b6000602082019050818103600083015261371a81613175565b9050919050565b6000602082019050818103600083015261373a816131b5565b9050919050565b6000602082019050818103600083015261375a8161321b565b9050919050565b6000602082019050818103600083015261377a8161325b565b9050919050565b6000602082019050818103600083015261379a816132c1565b9050919050565b600060208201905081810360008301526137ba81613327565b9050919050565b600060208201905081810360008301526137da8161338d565b9050919050565b600060208201905081810360008301526137fa816133f3565b9050919050565b60006020820190506138166000830184613468565b92915050565b6000604051905081810181811067ffffffffffffffff8211171561384357613842613c2d565b5b8060405250919050565b600067ffffffffffffffff82111561386857613867613c2d565b5b601f19601f8301169050602081019050919050565b600067ffffffffffffffff82111561389857613897613c2d565b5b601f19601f8301169050602081019050919050565b6000819050602082019050919050565b600081519050919050565b600081519050919050565b600081519050919050565b6000602082019050919050565b600082825260208201905092915050565b600082825260208201905092915050565b600082825260208201905092915050565b600081905092915050565b600061393482613aa8565b915061393f83613aa8565b9250827fffffffffffffffffffffffffffffffffffffffffffffffffffffffffffffffff0382111561397457613973613ba0565b5b828201905092915050565b600061398a82613aa8565b915061399583613aa8565b9250826139a5576139a4613bcf565b5b828204905092915050565b60006139bb82613aa8565b91506139c683613aa8565b9250817fffffffffffffffffffffffffffffffffffffffffffffffffffffffffffffffff04831182151516156139ff576139fe613ba0565b5b828202905092915050565b6000613a1582613aa8565b9150613a2083613aa8565b925082821015613a3357613a32613ba0565b5b828203905092915050565b6000613a4982613a88565b9050919050565b60008115159050919050565b60007fffffffff0000000000000000000000000000000000000000000000000000000082169050919050565b600073ffffffffffffffffffffffffffffffffffffffff82169050919050565b6000819050919050565b82818337600083830152505050565b60005b83811015613adf578082015181840152602081019050613ac4565b83811115613aee576000848401525b50505050565b60006002820490506001821680613b0c57607f821691505b60208210811415613b2057613b1f613bfe565b5b50919050565b6000613b3182613aa8565b91507fffffffffffffffffffffffffffffffffffffffffffffffffffffffffffffffff821415613b6457613b63613ba0565b5b600182019050919050565b6000613b7a82613aa8565b9150613b8583613aa8565b925082613b9557613b94613bcf565b5b828206905092915050565b7f4e487b7100000000000000000000000000000000000000000000000000000000600052601160045260246000fd5b7f4e487b7100000000000000000000000000000000000000000000000000000000600052601260045260246000fd5b7f4e487b7100000000000000000000000000000000000000000000000000000000600052602260045260246000fd5b7f4e487b7100000000000000000000000000000000000000000000000000000000600052604160045260246000fd5b6000601f19601f8301169050919050565b613c7681613a3e565b8114613c8157600080fd5b50565b613c8d81613a50565b8114613c9857600080fd5b50565b613ca481613a5c565b8114613caf57600080fd5b50565b613cbb81613aa8565b8114613cc657600080fd5b5056fea2646970667358221220d70be50cd8e3bf232cde476788db7e420d873cc1d1b00a8b188f775ceabc527d64736f6c63430008000033",
  "immutableReferences": {},
  "source": "// contracts/Robot.sol\n// SPDX-License-Identifier: MIT\npragma solidity ^0.8.0;\n\nimport \"@openzeppelin/contracts/token/ERC721/extensions/ERC721Enumerable.sol\";\nimport \"@openzeppelin/contracts/access/Ownable.sol\";\n\ncontract Robot is ERC721Enumerable, Ownable {\n\n    uint256 private _saleTime = 1634451621; // 7PM EDT on November 1st\n    uint256 private _price = 8 * 10**16; // .08 eth\n\n    string private _baseTokenURI;\n\n    constructor(string memory baseURI) ERC721(\"Robot\", \"RBT\") {\n        setBaseURI(baseURI);\n    }\n\n    function setSaleTime(uint256 time) public onlyOwner {\n        _saleTime = time;\n    }\n\n    function getSaleTime() public view returns (uint256) {\n        return _saleTime;\n    }\n\n    function isSaleOpen() public view returns (bool) {\n        return block.timestamp >= _saleTime;\n    }\n\n    function setBaseURI(string memory baseURI) public onlyOwner {\n        _baseTokenURI = baseURI;\n    }\n\n    function _baseURI() internal view virtual override returns (string memory) {\n        return _baseTokenURI;\n    }\n\n    // Count is how many they want to mint\n    function mint(uint256 _count) public payable {\n        uint256 totalSupply = totalSupply();\n        require(_count < 21, \"Exceeds the max token per transaction limit.\");\n        require(\n            msg.value >= _price * _count,\n            \"The value submitted with this transaction is too low.\"\n        );\n        require(\n            block.timestamp >= _saleTime,\n            \"The robot sale is not currently open.\"\n        );\n\n        for (uint256 i; i < _count; i++) {\n            _safeMint(msg.sender, totalSupply + i);\n        }\n    }\n\n    function walletOfOwner(address _owner)\n        public\n        view\n        returns (uint256[] memory)\n    {\n        uint256 tokenCount = balanceOf(_owner);\n\n        if (tokenCount == 0) {\n            // Return an empty array\n            return new uint256[](0);\n        }\n\n        uint256[] memory tokensId = new uint256[](tokenCount);\n        for (uint256 i; i < tokenCount; i++) {\n            tokensId[i] = tokenOfOwnerByIndex(_owner, i);\n        }\n        return tokensId;\n    }\n\n    function withdrawAll() public payable {\n        require(payable(0x2B25A827C40CA0c22F2906b3c262B834E147C4fE).send(address(this).balance));\n    }\n}\n",
  "sourcePath": "/home/seandevs/workspaces/celo-hackathon/nfts/contracts/Robots.sol",
  "compiler": {
    "name": "solc",
    "version": "0.8.0+commit.c7dfd78e.Emscripten.clang"
  },
  "schemaVersion": "3.4.1",
  "updatedAt": "2021-10-18T03:07:34.169Z",
  "networkType": "ethereum",
  "devdoc": {
    "kind": "dev",
    "methods": {
      "approve(address,uint256)": {
        "details": "See {IERC721-approve}."
      },
      "balanceOf(address)": {
        "details": "See {IERC721-balanceOf}."
      },
      "getApproved(uint256)": {
        "details": "See {IERC721-getApproved}."
      },
      "isApprovedForAll(address,address)": {
        "details": "See {IERC721-isApprovedForAll}."
      },
      "name()": {
        "details": "See {IERC721Metadata-name}."
      },
      "owner()": {
        "details": "Returns the address of the current owner."
      },
      "ownerOf(uint256)": {
        "details": "See {IERC721-ownerOf}."
      },
      "renounceOwnership()": {
        "details": "Leaves the contract without owner. It will not be possible to call `onlyOwner` functions anymore. Can only be called by the current owner. NOTE: Renouncing ownership will leave the contract without an owner, thereby removing any functionality that is only available to the owner."
      },
      "safeTransferFrom(address,address,uint256)": {
        "details": "See {IERC721-safeTransferFrom}."
      },
      "safeTransferFrom(address,address,uint256,bytes)": {
        "details": "See {IERC721-safeTransferFrom}."
      },
      "setApprovalForAll(address,bool)": {
        "details": "See {IERC721-setApprovalForAll}."
      },
      "supportsInterface(bytes4)": {
        "details": "See {IERC165-supportsInterface}."
      },
      "symbol()": {
        "details": "See {IERC721Metadata-symbol}."
      },
      "tokenByIndex(uint256)": {
        "details": "See {IERC721Enumerable-tokenByIndex}."
      },
      "tokenOfOwnerByIndex(address,uint256)": {
        "details": "See {IERC721Enumerable-tokenOfOwnerByIndex}."
      },
      "tokenURI(uint256)": {
        "details": "See {IERC721Metadata-tokenURI}."
      },
      "totalSupply()": {
        "details": "See {IERC721Enumerable-totalSupply}."
      },
      "transferFrom(address,address,uint256)": {
        "details": "See {IERC721-transferFrom}."
      },
      "transferOwnership(address)": {
        "details": "Transfers ownership of the contract to a new account (`newOwner`). Can only be called by the current owner."
      }
    },
    "version": 1
  },
  "userdoc": {
    "kind": "user",
    "methods": {},
    "version": 1
  }
}