{
  "contractName": "Robot",
  "abi": [
    {
      "inputs": [
        {
          "internalType": "string",
          "name": "baseURI",
          "type": "string"
        },
        {
          "internalType": "address payable",
          "name": "wallet",
          "type": "address"
        }
      ],
      "stateMutability": "nonpayable",
      "type": "constructor"
    },
    {
      "anonymous": false,
      "inputs": [
        {
          "indexed": true,
          "internalType": "address",
          "name": "owner",
          "type": "address"
        },
        {
          "indexed": true,
          "internalType": "address",
          "name": "approved",
          "type": "address"
        },
        {
          "indexed": true,
          "internalType": "uint256",
          "name": "tokenId",
          "type": "uint256"
        }
      ],
      "name": "Approval",
      "type": "event"
    },
    {
      "anonymous": false,
      "inputs": [
        {
          "indexed": true,
          "internalType": "address",
          "name": "owner",
          "type": "address"
        },
        {
          "indexed": true,
          "internalType": "address",
          "name": "operator",
          "type": "address"
        },
        {
          "indexed": false,
          "internalType": "bool",
          "name": "approved",
          "type": "bool"
        }
      ],
      "name": "ApprovalForAll",
      "type": "event"
    },
    {
      "anonymous": false,
      "inputs": [
        {
          "indexed": true,
          "internalType": "address",
          "name": "previousOwner",
          "type": "address"
        },
        {
          "indexed": true,
          "internalType": "address",
          "name": "newOwner",
          "type": "address"
        }
      ],
      "name": "OwnershipTransferred",
      "type": "event"
    },
    {
      "anonymous": false,
      "inputs": [
        {
          "indexed": false,
          "internalType": "address",
          "name": "account",
          "type": "address"
        }
      ],
      "name": "Paused",
      "type": "event"
    },
    {
      "anonymous": false,
      "inputs": [
        {
          "indexed": true,
          "internalType": "address",
          "name": "from",
          "type": "address"
        },
        {
          "indexed": true,
          "internalType": "address",
          "name": "to",
          "type": "address"
        },
        {
          "indexed": true,
          "internalType": "uint256",
          "name": "tokenId",
          "type": "uint256"
        }
      ],
      "name": "Transfer",
      "type": "event"
    },
    {
      "anonymous": false,
      "inputs": [
        {
          "indexed": false,
          "internalType": "address",
          "name": "account",
          "type": "address"
        }
      ],
      "name": "Unpaused",
      "type": "event"
    },
    {
      "anonymous": false,
      "inputs": [
        {
          "indexed": false,
          "internalType": "address",
          "name": "addr",
          "type": "address"
        }
      ],
      "name": "WhitelistedAddressAdded",
      "type": "event"
    },
    {
      "anonymous": false,
      "inputs": [
        {
          "indexed": false,
          "internalType": "address",
          "name": "addr",
          "type": "address"
        }
      ],
      "name": "WhitelistedAddressRemoved",
      "type": "event"
    },
    {
      "inputs": [],
      "name": "ROBOT_PRICE",
      "outputs": [
        {
          "internalType": "uint256",
          "name": "",
          "type": "uint256"
        }
      ],
      "stateMutability": "view",
      "type": "function",
      "constant": true
    },
    {
      "inputs": [
        {
          "internalType": "address",
          "name": "addr",
          "type": "address"
        }
      ],
      "name": "addAddressToWhitelist",
      "outputs": [
        {
          "internalType": "bool",
          "name": "success",
          "type": "bool"
        }
      ],
      "stateMutability": "nonpayable",
      "type": "function"
    },
    {
      "inputs": [
        {
          "internalType": "address[]",
          "name": "addrs",
          "type": "address[]"
        }
      ],
      "name": "addAddressesToWhitelist",
      "outputs": [
        {
          "internalType": "bool",
          "name": "success",
          "type": "bool"
        }
      ],
      "stateMutability": "nonpayable",
      "type": "function"
    },
    {
      "inputs": [
        {
          "internalType": "address",
          "name": "to",
          "type": "address"
        },
        {
          "internalType": "uint256",
          "name": "tokenId",
          "type": "uint256"
        }
      ],
      "name": "approve",
      "outputs": [],
      "stateMutability": "nonpayable",
      "type": "function"
    },
    {
      "inputs": [
        {
          "internalType": "address",
          "name": "owner",
          "type": "address"
        }
      ],
      "name": "balanceOf",
      "outputs": [
        {
          "internalType": "uint256",
          "name": "",
          "type": "uint256"
        }
      ],
      "stateMutability": "view",
      "type": "function",
      "constant": true
    },
    {
      "inputs": [
        {
          "internalType": "uint256",
          "name": "tokenId",
          "type": "uint256"
        }
      ],
      "name": "getApproved",
      "outputs": [
        {
          "internalType": "address",
          "name": "",
          "type": "address"
        }
      ],
      "stateMutability": "view",
      "type": "function",
      "constant": true
    },
    {
      "inputs": [
        {
          "internalType": "address",
          "name": "owner",
          "type": "address"
        },
        {
          "internalType": "address",
          "name": "operator",
          "type": "address"
        }
      ],
      "name": "isApprovedForAll",
      "outputs": [
        {
          "internalType": "bool",
          "name": "",
          "type": "bool"
        }
      ],
      "stateMutability": "view",
      "type": "function",
      "constant": true
    },
    {
      "inputs": [],
      "name": "name",
      "outputs": [
        {
          "internalType": "string",
          "name": "",
          "type": "string"
        }
      ],
      "stateMutability": "view",
      "type": "function",
      "constant": true
    },
    {
      "inputs": [],
      "name": "owner",
      "outputs": [
        {
          "internalType": "address",
          "name": "",
          "type": "address"
        }
      ],
      "stateMutability": "view",
      "type": "function",
      "constant": true
    },
    {
      "inputs": [
        {
          "internalType": "uint256",
          "name": "tokenId",
          "type": "uint256"
        }
      ],
      "name": "ownerOf",
      "outputs": [
        {
          "internalType": "address",
          "name": "",
          "type": "address"
        }
      ],
      "stateMutability": "view",
      "type": "function",
      "constant": true
    },
    {
      "inputs": [],
      "name": "paused",
      "outputs": [
        {
          "internalType": "bool",
          "name": "",
          "type": "bool"
        }
      ],
      "stateMutability": "view",
      "type": "function",
      "constant": true
    },
    {
      "inputs": [
        {
          "internalType": "address",
          "name": "addr",
          "type": "address"
        }
      ],
      "name": "removeAddressFromWhitelist",
      "outputs": [
        {
          "internalType": "bool",
          "name": "success",
          "type": "bool"
        }
      ],
      "stateMutability": "nonpayable",
      "type": "function"
    },
    {
      "inputs": [
        {
          "internalType": "address[]",
          "name": "addrs",
          "type": "address[]"
        }
      ],
      "name": "removeAddressesFromWhitelist",
      "outputs": [
        {
          "internalType": "bool",
          "name": "success",
          "type": "bool"
        }
      ],
      "stateMutability": "nonpayable",
      "type": "function"
    },
    {
      "inputs": [],
      "name": "renounceOwnership",
      "outputs": [],
      "stateMutability": "nonpayable",
      "type": "function"
    },
    {
      "inputs": [
        {
          "internalType": "uint256",
          "name": "",
          "type": "uint256"
        }
      ],
      "name": "robots",
      "outputs": [
        {
          "internalType": "uint256",
          "name": "robotIndex",
          "type": "uint256"
        },
        {
          "internalType": "string",
          "name": "imageURI",
          "type": "string"
        },
        {
          "internalType": "uint256",
          "name": "wins",
          "type": "uint256"
        },
        {
          "internalType": "uint256",
          "name": "losses",
          "type": "uint256"
        },
        {
          "internalType": "enum Robot.State",
          "name": "state",
          "type": "uint8"
        },
        {
          "internalType": "string",
          "name": "robotName",
          "type": "string"
        },
        {
          "internalType": "string",
          "name": "robotType",
          "type": "string"
        },
        {
          "internalType": "uint256",
          "name": "health",
          "type": "uint256"
        },
        {
          "internalType": "uint256",
          "name": "strength",
          "type": "uint256"
        },
        {
          "internalType": "uint256",
          "name": "agility",
          "type": "uint256"
        },
        {
          "internalType": "uint256",
          "name": "ai",
          "type": "uint256"
        },
        {
          "internalType": "uint256",
          "name": "defense",
          "type": "uint256"
        }
      ],
      "stateMutability": "view",
      "type": "function",
      "constant": true
    },
    {
      "inputs": [
        {
          "internalType": "address",
          "name": "from",
          "type": "address"
        },
        {
          "internalType": "address",
          "name": "to",
          "type": "address"
        },
        {
          "internalType": "uint256",
          "name": "tokenId",
          "type": "uint256"
        }
      ],
      "name": "safeTransferFrom",
      "outputs": [],
      "stateMutability": "nonpayable",
      "type": "function"
    },
    {
      "inputs": [
        {
          "internalType": "address",
          "name": "from",
          "type": "address"
        },
        {
          "internalType": "address",
          "name": "to",
          "type": "address"
        },
        {
          "internalType": "uint256",
          "name": "tokenId",
          "type": "uint256"
        },
        {
          "internalType": "bytes",
          "name": "_data",
          "type": "bytes"
        }
      ],
      "name": "safeTransferFrom",
      "outputs": [],
      "stateMutability": "nonpayable",
      "type": "function"
    },
    {
      "inputs": [
        {
          "internalType": "address",
          "name": "operator",
          "type": "address"
        },
        {
          "internalType": "bool",
          "name": "approved",
          "type": "bool"
        }
      ],
      "name": "setApprovalForAll",
      "outputs": [],
      "stateMutability": "nonpayable",
      "type": "function"
    },
    {
      "inputs": [],
      "name": "symbol",
      "outputs": [
        {
          "internalType": "string",
          "name": "",
          "type": "string"
        }
      ],
      "stateMutability": "view",
      "type": "function",
      "constant": true
    },
    {
      "inputs": [
        {
          "internalType": "uint256",
          "name": "index",
          "type": "uint256"
        }
      ],
      "name": "tokenByIndex",
      "outputs": [
        {
          "internalType": "uint256",
          "name": "",
          "type": "uint256"
        }
      ],
      "stateMutability": "view",
      "type": "function",
      "constant": true
    },
    {
      "inputs": [
        {
          "internalType": "address",
          "name": "owner",
          "type": "address"
        },
        {
          "internalType": "uint256",
          "name": "index",
          "type": "uint256"
        }
      ],
      "name": "tokenOfOwnerByIndex",
      "outputs": [
        {
          "internalType": "uint256",
          "name": "",
          "type": "uint256"
        }
      ],
      "stateMutability": "view",
      "type": "function",
      "constant": true
    },
    {
      "inputs": [],
      "name": "totalSupply",
      "outputs": [
        {
          "internalType": "uint256",
          "name": "",
          "type": "uint256"
        }
      ],
      "stateMutability": "view",
      "type": "function",
      "constant": true
    },
    {
      "inputs": [
        {
          "internalType": "address",
          "name": "from",
          "type": "address"
        },
        {
          "internalType": "address",
          "name": "to",
          "type": "address"
        },
        {
          "internalType": "uint256",
          "name": "tokenId",
          "type": "uint256"
        }
      ],
      "name": "transferFrom",
      "outputs": [],
      "stateMutability": "nonpayable",
      "type": "function"
    },
    {
      "inputs": [
        {
          "internalType": "address",
          "name": "newOwner",
          "type": "address"
        }
      ],
      "name": "transferOwnership",
      "outputs": [],
      "stateMutability": "nonpayable",
      "type": "function"
    },
    {
      "inputs": [
        {
          "internalType": "address",
          "name": "",
          "type": "address"
        }
      ],
      "name": "whitelist",
      "outputs": [
        {
          "internalType": "bool",
          "name": "",
          "type": "bool"
        }
      ],
      "stateMutability": "view",
      "type": "function",
      "constant": true
    },
    {
      "inputs": [],
      "name": "pause",
      "outputs": [],
      "stateMutability": "nonpayable",
      "type": "function"
    },
    {
      "inputs": [],
      "name": "unpause",
      "outputs": [],
      "stateMutability": "nonpayable",
      "type": "function"
    },
    {
      "inputs": [
        {
          "internalType": "string",
          "name": "baseURI",
          "type": "string"
        }
      ],
      "name": "setBaseURI",
      "outputs": [],
      "stateMutability": "nonpayable",
      "type": "function"
    },
    {
      "inputs": [
        {
          "internalType": "uint256",
          "name": "tokenId",
          "type": "uint256"
        }
      ],
      "name": "tokenURI",
      "outputs": [
        {
          "internalType": "string",
          "name": "",
          "type": "string"
        }
      ],
      "stateMutability": "view",
      "type": "function",
      "constant": true
    },
    {
      "inputs": [
        {
          "internalType": "bytes4",
          "name": "interfaceId",
          "type": "bytes4"
        }
      ],
      "name": "supportsInterface",
      "outputs": [
        {
          "internalType": "bool",
          "name": "",
          "type": "bool"
        }
      ],
      "stateMutability": "view",
      "type": "function",
      "constant": true
    },
    {
      "inputs": [
        {
          "internalType": "uint256",
          "name": "botType",
          "type": "uint256"
        }
      ],
      "name": "mint",
      "outputs": [],
      "stateMutability": "payable",
      "type": "function",
      "payable": true
    },
    {
      "inputs": [
        {
          "internalType": "uint256",
          "name": "winningRobotIndex",
          "type": "uint256"
        },
        {
          "internalType": "uint256",
          "name": "losingRobotIndex",
          "type": "uint256"
        }
      ],
      "name": "updateRobotsRecords",
      "outputs": [],
      "stateMutability": "nonpayable",
      "type": "function"
    },
    {
      "inputs": [
        {
          "internalType": "uint256",
          "name": "robotIndex",
          "type": "uint256"
        },
        {
          "internalType": "string",
          "name": "value",
          "type": "string"
        }
      ],
      "name": "updateRobotName",
      "outputs": [],
      "stateMutability": "nonpayable",
      "type": "function"
    },
    {
      "inputs": [
        {
          "internalType": "uint256",
          "name": "robotIndex",
          "type": "uint256"
        },
        {
          "internalType": "uint256",
          "name": "value",
          "type": "uint256"
        }
      ],
      "name": "updateRobotHealth",
      "outputs": [],
      "stateMutability": "nonpayable",
      "type": "function"
    },
    {
      "inputs": [
        {
          "internalType": "uint256",
          "name": "robotIndex",
          "type": "uint256"
        },
        {
          "internalType": "uint256",
          "name": "value",
          "type": "uint256"
        }
      ],
      "name": "updateRobotStrength",
      "outputs": [],
      "stateMutability": "nonpayable",
      "type": "function"
    },
    {
      "inputs": [
        {
          "internalType": "uint256",
          "name": "robotIndex",
          "type": "uint256"
        },
        {
          "internalType": "uint256",
          "name": "value",
          "type": "uint256"
        }
      ],
      "name": "updateRobotAgility",
      "outputs": [],
      "stateMutability": "nonpayable",
      "type": "function"
    },
    {
      "inputs": [
        {
          "internalType": "uint256",
          "name": "robotIndex",
          "type": "uint256"
        },
        {
          "internalType": "uint256",
          "name": "value",
          "type": "uint256"
        }
      ],
      "name": "updateRobotAi",
      "outputs": [],
      "stateMutability": "nonpayable",
      "type": "function"
    },
    {
      "inputs": [
        {
          "internalType": "uint256",
          "name": "robotIndex",
          "type": "uint256"
        },
        {
          "internalType": "uint256",
          "name": "value",
          "type": "uint256"
        }
      ],
      "name": "updateRobotDefense",
      "outputs": [],
      "stateMutability": "nonpayable",
      "type": "function"
    },
    {
      "inputs": [
        {
          "internalType": "uint256",
          "name": "robotIndex",
          "type": "uint256"
        }
      ],
      "name": "setRobotAsFighter",
      "outputs": [],
      "stateMutability": "nonpayable",
      "type": "function"
    },
    {
      "inputs": [
        {
          "internalType": "uint256",
          "name": "robotIndex",
          "type": "uint256"
        }
      ],
      "name": "setRobotAsTrainer",
      "outputs": [],
      "stateMutability": "nonpayable",
      "type": "function"
    },
    {
      "inputs": [
        {
          "internalType": "uint256",
          "name": "robotIndex",
          "type": "uint256"
        }
      ],
      "name": "setRobotAsRetired",
      "outputs": [],
      "stateMutability": "nonpayable",
      "type": "function"
    },
    {
      "inputs": [
        {
          "internalType": "address",
          "name": "_owner",
          "type": "address"
        }
      ],
      "name": "walletOfOwner",
      "outputs": [
        {
          "internalType": "uint256[]",
          "name": "",
          "type": "uint256[]"
        }
      ],
      "stateMutability": "view",
      "type": "function",
      "constant": true
    },
    {
      "inputs": [],
      "name": "withdrawAll",
      "outputs": [],
      "stateMutability": "payable",
      "type": "function",
      "payable": true
    }
  ],
  "bytecode": "0x6080604052674563918244f40000600d5560405180608001604052806040518060400160405280600681526020017f526f626f7431000000000000000000000000000000000000000000000000000081525081526020016040518060400160405280600681526020017f526f626f7432000000000000000000000000000000000000000000000000000081525081526020016040518060400160405280600681526020017f526f626f7433000000000000000000000000000000000000000000000000000081525081526020016040518060400160405280600681526020017f526f626f7434000000000000000000000000000000000000000000000000000081525081525060109060046200011792919062000743565b5060405180608001604052806040518060400160405280600481526020017f54616e6b0000000000000000000000000000000000000000000000000000000081525081526020016040518060400160405280600681526020017f537065656479000000000000000000000000000000000000000000000000000081525081526020016040518060400160405280600881526020017f446566656e64657200000000000000000000000000000000000000000000000081525081526020016040518060400160405280600881526020017f41747461636b657200000000000000000000000000000000000000000000000081525081525060119060046200021f92919062000743565b506040518060800160405280601460ff168152602001600a60ff168152602001600a60ff168152602001601460ff16815250601290600462000263929190620007aa565b506040518060800160405280600a60ff168152602001601460ff168152602001600a60ff168152602001601460ff168152506013906004620002a7929190620007aa565b506040518060800160405280600a60ff168152602001601460ff168152602001601460ff168152602001600a60ff168152506014906004620002eb929190620007aa565b506040518060800160405280601460ff168152602001600a60ff168152602001601460ff168152602001600a60ff1681525060159060046200032f929190620007aa565b5060405180608001604052806040518060400160405280600681526020017f302e6a736f6e000000000000000000000000000000000000000000000000000081525081526020016040518060400160405280600681526020017f312e6a736f6e000000000000000000000000000000000000000000000000000081525081526020016040518060400160405280600681526020017f322e6a736f6e000000000000000000000000000000000000000000000000000081525081526020016040518060400160405280600681526020017f332e6a736f6e000000000000000000000000000000000000000000000000000081525081525060179060046200043792919062000743565b503480156200044557600080fd5b5060405162006c3b38038062006c3b83398181016040528101906200046b9190620009a8565b6040518060400160405280600581526020017f526f626f740000000000000000000000000000000000000000000000000000008152506040518060400160405280600381526020017f52425400000000000000000000000000000000000000000000000000000000008152508160009080519060200190620004ef92919062000801565b5080600190805190602001906200050892919062000801565b5050506000600b60006101000a81548160ff021916908315150217905550620005466200053a620005a060201b60201c565b620005a860201b60201c565b62000557826200066e60201b60201c565b80600f60006101000a81548173ffffffffffffffffffffffffffffffffffffffff021916908373ffffffffffffffffffffffffffffffffffffffff160217905550505062000c43565b600033905090565b6000600b60019054906101000a900473ffffffffffffffffffffffffffffffffffffffff16905081600b60016101000a81548173ffffffffffffffffffffffffffffffffffffffff021916908373ffffffffffffffffffffffffffffffffffffffff1602179055508173ffffffffffffffffffffffffffffffffffffffff168173ffffffffffffffffffffffffffffffffffffffff167f8be0079c531659141344cd1fd0a4f28419497f9722a3daafe3b4186f6b6457e060405160405180910390a35050565b6200067e620005a060201b60201c565b73ffffffffffffffffffffffffffffffffffffffff16620006a46200071960201b60201c565b73ffffffffffffffffffffffffffffffffffffffff1614620006fd576040517f08c379a0000000000000000000000000000000000000000000000000000000008152600401620006f49062000a29565b60405180910390fd5b80600e90805190602001906200071592919062000801565b5050565b6000600b60019054906101000a900473ffffffffffffffffffffffffffffffffffffffff16905090565b82805482825590600052602060002090810192821562000797579160200282015b82811115620007965782518290805190602001906200078592919062000801565b509160200191906001019062000764565b5b509050620007a6919062000892565b5090565b828054828255906000526020600020908101928215620007ee579160200282015b82811115620007ed578251829060ff16905591602001919060010190620007cb565b5b509050620007fd9190620008ba565b5090565b8280546200080f9062000b25565b90600052602060002090601f0160209004810192826200083357600085556200087f565b82601f106200084e57805160ff19168380011785556200087f565b828001600101855582156200087f579182015b828111156200087e57825182559160200191906001019062000861565b5b5090506200088e9190620008ba565b5090565b5b80821115620008b65760008181620008ac9190620008d9565b5060010162000893565b5090565b5b80821115620008d5576000816000905550600101620008bb565b5090565b508054620008e79062000b25565b6000825580601f10620008fb57506200091c565b601f0160209004906000526020600020908101906200091b9190620008ba565b5b50565b600062000936620009308462000a74565b62000a4b565b9050828152602081018484840111156200094f57600080fd5b6200095c84828562000aef565b509392505050565b600081519050620009758162000c29565b92915050565b600082601f8301126200098d57600080fd5b81516200099f8482602086016200091f565b91505092915050565b60008060408385031215620009bc57600080fd5b600083015167ffffffffffffffff811115620009d757600080fd5b620009e5858286016200097b565b9250506020620009f88582860162000964565b9150509250929050565b600062000a1160208362000aaa565b915062000a1e8262000c00565b602082019050919050565b6000602082019050818103600083015262000a448162000a02565b9050919050565b600062000a5762000a6a565b905062000a65828262000b5b565b919050565b6000604051905090565b600067ffffffffffffffff82111562000a925762000a9162000bc0565b5b62000a9d8262000bef565b9050602081019050919050565b600082825260208201905092915050565b600062000ac88262000acf565b9050919050565b600073ffffffffffffffffffffffffffffffffffffffff82169050919050565b60005b8381101562000b0f57808201518184015260208101905062000af2565b8381111562000b1f576000848401525b50505050565b6000600282049050600182168062000b3e57607f821691505b6020821081141562000b555762000b5462000b91565b5b50919050565b62000b668262000bef565b810181811067ffffffffffffffff8211171562000b885762000b8762000bc0565b5b80604052505050565b7f4e487b7100000000000000000000000000000000000000000000000000000000600052602260045260246000fd5b7f4e487b7100000000000000000000000000000000000000000000000000000000600052604160045260246000fd5b6000601f19601f8301169050919050565b7f4f776e61626c653a2063616c6c6572206973206e6f7420746865206f776e6572600082015250565b62000c348162000abb565b811462000c4057600080fd5b50565b615fe88062000c536000396000f3fe60806040526004361061025c5760003560e01c806370a0823111610144578063aaea4fff116100b6578063c87b56dd1161007a578063c87b56dd146108f3578063db43c50714610930578063e10d74fe14610959578063e2ec6ec314610982578063e985e9c5146109bf578063f2fde38b146109fc5761025c565b8063aaea4fff14610826578063abdb9bec1461084f578063b01d49d114610878578063b7a293ec146108a1578063b88d4fde146108ca5761025c565b80638da5cb5b116101085780638da5cb5b1461070657806395d89b41146107315780639b19251a1461075c578063a03937c514610799578063a0712d68146107e1578063a22cb465146107fd5761025c565b806370a0823114610654578063715018a6146106915780637b9417c8146106a85780638456cb59146106e5578063853828b6146106fc5761025c565b80633f4ba83a116101dd57806355f804b3116101a157806355f804b31461054857806357a6f5cf146105715780635a44890a1461059a5780635c975abb146105c35780636352211e146105ee5780636f027ef11461062b5761025c565b80633f4ba83a1461046557806342842e0e1461047c578063438b6300146104a55780634f6ccce7146104e2578063508a99a11461051f5761025c565b806321a4b2a01161022457806321a4b2a01461035a57806323b872dd1461038557806324953eaa146103ae578063286dd3f5146103eb5780632f745c59146104285761025c565b806301ffc9a71461026157806306fdde031461029e578063081812fc146102c9578063095ea7b31461030657806318160ddd1461032f575b600080fd5b34801561026d57600080fd5b506102886004803603810190610283919061497a565b610a25565b604051610295919061501f565b60405180910390f35b3480156102aa57600080fd5b506102b3610a37565b6040516102c0919061503a565b60405180910390f35b3480156102d557600080fd5b506102f060048036038101906102eb9190614a0d565b610ac9565b6040516102fd9190614f96565b60405180910390f35b34801561031257600080fd5b5061032d600480360381019061032891906148fd565b610b4e565b005b34801561033b57600080fd5b50610344610c66565b604051610351919061535c565b60405180910390f35b34801561036657600080fd5b5061036f610c73565b60405161037c919061535c565b60405180910390f35b34801561039157600080fd5b506103ac60048036038101906103a791906147f7565b610c79565b005b3480156103ba57600080fd5b506103d560048036038101906103d09190614939565b610cd9565b6040516103e2919061501f565b60405180910390f35b3480156103f757600080fd5b50610412600480360381019061040d9190614792565b610dcf565b60405161041f919061501f565b60405180910390f35b34801561043457600080fd5b5061044f600480360381019061044a91906148fd565b610f38565b60405161045c919061535c565b60405180910390f35b34801561047157600080fd5b5061047a610fdd565b005b34801561048857600080fd5b506104a3600480360381019061049e91906147f7565b611063565b005b3480156104b157600080fd5b506104cc60048036038101906104c79190614792565b611083565b6040516104d99190614ffd565b60405180910390f35b3480156104ee57600080fd5b5061050960048036038101906105049190614a0d565b6111ff565b604051610516919061535c565b60405180910390f35b34801561052b57600080fd5b5061054660048036038101906105419190614a8a565b611296565b005b34801561055457600080fd5b5061056f600480360381019061056a91906149cc565b611353565b005b34801561057d57600080fd5b5061059860048036038101906105939190614a0d565b6113e9565b005b3480156105a657600080fd5b506105c160048036038101906105bc9190614a8a565b611515565b005b3480156105cf57600080fd5b506105d86115d2565b6040516105e5919061501f565b60405180910390f35b3480156105fa57600080fd5b5061061560048036038101906106109190614a0d565b6115e9565b6040516106229190614f96565b60405180910390f35b34801561063757600080fd5b50610652600480360381019061064d9190614a8a565b61169b565b005b34801561066057600080fd5b5061067b60048036038101906106769190614792565b611799565b604051610688919061535c565b60405180910390f35b34801561069d57600080fd5b506106a6611851565b005b3480156106b457600080fd5b506106cf60048036038101906106ca9190614792565b6118d9565b6040516106dc919061501f565b60405180910390f35b3480156106f157600080fd5b506106fa611a41565b005b610704611ac7565b005b34801561071257600080fd5b5061071b611ba5565b6040516107289190614f96565b60405180910390f35b34801561073d57600080fd5b50610746611bcf565b604051610753919061503a565b60405180910390f35b34801561076857600080fd5b50610783600480360381019061077e9190614792565b611c61565b604051610790919061501f565b60405180910390f35b3480156107a557600080fd5b506107c060048036038101906107bb9190614a0d565b611c81565b6040516107d89c9b9a99989796959493929190615377565b60405180910390f35b6107fb60048036038101906107f69190614a0d565b611e86565b005b34801561080957600080fd5b50610824600480360381019061081f91906148c1565b6120ac565b005b34801561083257600080fd5b5061084d60048036038101906108489190614a8a565b61222d565b005b34801561085b57600080fd5b5061087660048036038101906108719190614a0d565b6122ea565b005b34801561088457600080fd5b5061089f600480360381019061089a9190614a8a565b612416565b005b3480156108ad57600080fd5b506108c860048036038101906108c39190614a8a565b6124d3565b005b3480156108d657600080fd5b506108f160048036038101906108ec9190614846565b612590565b005b3480156108ff57600080fd5b5061091a60048036038101906109159190614a0d565b6125f2565b604051610927919061503a565b60405180910390f35b34801561093c57600080fd5b5061095760048036038101906109529190614a0d565b612604565b005b34801561096557600080fd5b50610980600480360381019061097b9190614a36565b612730565b005b34801561098e57600080fd5b506109a960048036038101906109a49190614939565b6127fd565b6040516109b6919061501f565b60405180910390f35b3480156109cb57600080fd5b506109e660048036038101906109e191906147bb565b6128f3565b6040516109f3919061501f565b60405180910390f35b348015610a0857600080fd5b50610a236004803603810190610a1e9190614792565b612987565b005b6000610a3082612a7f565b9050919050565b606060008054610a469061570b565b80601f0160208091040260200160405190810160405280929190818152602001828054610a729061570b565b8015610abf5780601f10610a9457610100808354040283529160200191610abf565b820191906000526020600020905b815481529060010190602001808311610aa257829003601f168201915b5050505050905090565b6000610ad482612af9565b610b13576040517f08c379a0000000000000000000000000000000000000000000000000000000008152600401610b0a9061527c565b60405180910390fd5b6004600083815260200190815260200160002060009054906101000a900473ffffffffffffffffffffffffffffffffffffffff169050919050565b6000610b59826115e9565b90508073ffffffffffffffffffffffffffffffffffffffff168373ffffffffffffffffffffffffffffffffffffffff161415610bca576040517f08c379a0000000000000000000000000000000000000000000000000000000008152600401610bc1906152fc565b60405180910390fd5b8073ffffffffffffffffffffffffffffffffffffffff16610be9612b65565b73ffffffffffffffffffffffffffffffffffffffff161480610c185750610c1781610c12612b65565b6128f3565b5b610c57576040517f08c379a0000000000000000000000000000000000000000000000000000000008152600401610c4e9061519c565b60405180910390fd5b610c618383612b6d565b505050565b6000600980549050905090565b600d5481565b610c8a610c84612b65565b82612c26565b610cc9576040517f08c379a0000000000000000000000000000000000000000000000000000000008152600401610cc09061531c565b60405180910390fd5b610cd4838383612d04565b505050565b6000610ce3612b65565b73ffffffffffffffffffffffffffffffffffffffff16610d01611ba5565b73ffffffffffffffffffffffffffffffffffffffff1614610d57576040517f08c379a0000000000000000000000000000000000000000000000000000000008152600401610d4e9061529c565b60405180910390fd5b60005b8251811015610dc957610dac838281518110610d9f577f4e487b7100000000000000000000000000000000000000000000000000000000600052603260045260246000fd5b6020026020010151610dcf565b15610db657600191505b8080610dc19061576e565b915050610d5a565b50919050565b6000610dd9612b65565b73ffffffffffffffffffffffffffffffffffffffff16610df7611ba5565b73ffffffffffffffffffffffffffffffffffffffff1614610e4d576040517f08c379a0000000000000000000000000000000000000000000000000000000008152600401610e449061529c565b60405180910390fd5b600c60008373ffffffffffffffffffffffffffffffffffffffff1673ffffffffffffffffffffffffffffffffffffffff16815260200190815260200160002060009054906101000a900460ff1615610f33576000600c60008473ffffffffffffffffffffffffffffffffffffffff1673ffffffffffffffffffffffffffffffffffffffff16815260200190815260200160002060006101000a81548160ff0219169083151502179055507ff1abf01a1043b7c244d128e8595cf0c1d10743b022b03a02dffd8ca3bf729f5a82604051610f269190614f96565b60405180910390a1600190505b919050565b6000610f4383611799565b8210610f84576040517f08c379a0000000000000000000000000000000000000000000000000000000008152600401610f7b9061509c565b60405180910390fd5b600760008473ffffffffffffffffffffffffffffffffffffffff1673ffffffffffffffffffffffffffffffffffffffff168152602001908152602001600020600083815260200190815260200160002054905092915050565b610fe5612b65565b73ffffffffffffffffffffffffffffffffffffffff16611003611ba5565b73ffffffffffffffffffffffffffffffffffffffff1614611059576040517f08c379a00000000000000000000000000000000000000000000000000000000081526004016110509061529c565b60405180910390fd5b611061612f60565b565b61107e83838360405180602001604052806000815250612590565b505050565b6060600061109083611799565b9050600081141561111357600067ffffffffffffffff8111156110dc577f4e487b7100000000000000000000000000000000000000000000000000000000600052604160045260246000fd5b60405190808252806020026020018201604052801561110a5781602001602082028036833780820191505090505b509150506111fa565b60008167ffffffffffffffff811115611155577f4e487b7100000000000000000000000000000000000000000000000000000000600052604160045260246000fd5b6040519080825280602002602001820160405280156111835781602001602082028036833780820191505090505b50905060005b828110156111f35761119b8582610f38565b8282815181106111d4577f4e487b7100000000000000000000000000000000000000000000000000000000600052603260045260246000fd5b60200260200101818152505080806111eb9061576e565b915050611189565b5080925050505b919050565b6000611209610c66565b821061124a576040517f08c379a00000000000000000000000000000000000000000000000000000000081526004016112419061533c565b60405180910390fd5b60098281548110611284577f4e487b7100000000000000000000000000000000000000000000000000000000600052603260045260246000fd5b90600052602060002001549050919050565b61129e6115d2565b156112de576040517f08c379a00000000000000000000000000000000000000000000000000000000081526004016112d59061517c565b60405180910390fd5b600c60003373ffffffffffffffffffffffffffffffffffffffff1673ffffffffffffffffffffffffffffffffffffffff16815260200190815260200160002060009054906101000a900460ff1661133457600080fd5b8060166000848152602001908152602001600020600b01819055505050565b61135b612b65565b73ffffffffffffffffffffffffffffffffffffffff16611379611ba5565b73ffffffffffffffffffffffffffffffffffffffff16146113cf576040517f08c379a00000000000000000000000000000000000000000000000000000000081526004016113c69061529c565b60405180910390fd5b80600e90805190602001906113e5929190614520565b5050565b6113f16115d2565b15611431576040517f08c379a00000000000000000000000000000000000000000000000000000000081526004016114289061517c565b60405180910390fd5b611439612b65565b73ffffffffffffffffffffffffffffffffffffffff16611457611ba5565b73ffffffffffffffffffffffffffffffffffffffff16146114ad576040517f08c379a00000000000000000000000000000000000000000000000000000000081526004016114a49061529c565b60405180910390fd5b60006016600083815260200190815260200160002060040160006101000a81548160ff0219169083600281111561150d577f4e487b7100000000000000000000000000000000000000000000000000000000600052602160045260246000fd5b021790555050565b61151d6115d2565b1561155d576040517f08c379a00000000000000000000000000000000000000000000000000000000081526004016115549061517c565b60405180910390fd5b600c60003373ffffffffffffffffffffffffffffffffffffffff1673ffffffffffffffffffffffffffffffffffffffff16815260200190815260200160002060009054906101000a900460ff166115b357600080fd5b8060166000848152602001908152602001600020600801819055505050565b6000600b60009054906101000a900460ff16905090565b6000806002600084815260200190815260200160002060009054906101000a900473ffffffffffffffffffffffffffffffffffffffff169050600073ffffffffffffffffffffffffffffffffffffffff168173ffffffffffffffffffffffffffffffffffffffff161415611692576040517f08c379a0000000000000000000000000000000000000000000000000000000008152600401611689906151dc565b60405180910390fd5b80915050919050565b6116a36115d2565b156116e3576040517f08c379a00000000000000000000000000000000000000000000000000000000081526004016116da9061517c565b60405180910390fd5b600c60003373ffffffffffffffffffffffffffffffffffffffff1673ffffffffffffffffffffffffffffffffffffffff16815260200190815260200160002060009054906101000a900460ff1661173957600080fd5b60016016600084815260200190815260200160002060020160008282546117609190615575565b92505081905550600160166000838152602001908152602001600020600301600082825461178e9190615575565b925050819055505050565b60008073ffffffffffffffffffffffffffffffffffffffff168273ffffffffffffffffffffffffffffffffffffffff16141561180a576040517f08c379a0000000000000000000000000000000000000000000000000000000008152600401611801906151bc565b60405180910390fd5b600360008373ffffffffffffffffffffffffffffffffffffffff1673ffffffffffffffffffffffffffffffffffffffff168152602001908152602001600020549050919050565b611859612b65565b73ffffffffffffffffffffffffffffffffffffffff16611877611ba5565b73ffffffffffffffffffffffffffffffffffffffff16146118cd576040517f08c379a00000000000000000000000000000000000000000000000000000000081526004016118c49061529c565b60405180910390fd5b6118d76000613002565b565b60006118e3612b65565b73ffffffffffffffffffffffffffffffffffffffff16611901611ba5565b73ffffffffffffffffffffffffffffffffffffffff1614611957576040517f08c379a000000000000000000000000000000000000000000000000000000000815260040161194e9061529c565b60405180910390fd5b600c60008373ffffffffffffffffffffffffffffffffffffffff1673ffffffffffffffffffffffffffffffffffffffff16815260200190815260200160002060009054906101000a900460ff16611a3c576001600c60008473ffffffffffffffffffffffffffffffffffffffff1673ffffffffffffffffffffffffffffffffffffffff16815260200190815260200160002060006101000a81548160ff0219169083151502179055507fd1bba68c128cc3f427e5831b3c6f99f480b6efa6b9e80c757768f6124158cc3f82604051611a2f9190614f96565b60405180910390a1600190505b919050565b611a49612b65565b73ffffffffffffffffffffffffffffffffffffffff16611a67611ba5565b73ffffffffffffffffffffffffffffffffffffffff1614611abd576040517f08c379a0000000000000000000000000000000000000000000000000000000008152600401611ab49061529c565b60405180910390fd5b611ac56130c8565b565b611acf612b65565b73ffffffffffffffffffffffffffffffffffffffff16611aed611ba5565b73ffffffffffffffffffffffffffffffffffffffff1614611b43576040517f08c379a0000000000000000000000000000000000000000000000000000000008152600401611b3a9061529c565b60405180910390fd5b600f60009054906101000a900473ffffffffffffffffffffffffffffffffffffffff1673ffffffffffffffffffffffffffffffffffffffff166108fc479081150290604051600060405180830381858888f19350505050611ba357600080fd5b565b6000600b60019054906101000a900473ffffffffffffffffffffffffffffffffffffffff16905090565b606060018054611bde9061570b565b80601f0160208091040260200160405190810160405280929190818152602001828054611c0a9061570b565b8015611c575780601f10611c2c57610100808354040283529160200191611c57565b820191906000526020600020905b815481529060010190602001808311611c3a57829003601f168201915b5050505050905090565b600c6020528060005260406000206000915054906101000a900460ff1681565b6016602052806000526040600020600091509050806000015490806001018054611caa9061570b565b80601f0160208091040260200160405190810160405280929190818152602001828054611cd69061570b565b8015611d235780601f10611cf857610100808354040283529160200191611d23565b820191906000526020600020905b815481529060010190602001808311611d0657829003601f168201915b5050505050908060020154908060030154908060040160009054906101000a900460ff1690806005018054611d579061570b565b80601f0160208091040260200160405190810160405280929190818152602001828054611d839061570b565b8015611dd05780601f10611da557610100808354040283529160200191611dd0565b820191906000526020600020905b815481529060010190602001808311611db357829003601f168201915b505050505090806006018054611de59061570b565b80601f0160208091040260200160405190810160405280929190818152602001828054611e119061570b565b8015611e5e5780601f10611e3357610100808354040283529160200191611e5e565b820191906000526020600020905b815481529060010190602001808311611e4157829003601f168201915b50505050509080600701549080600801549080600901549080600a01549080600b015490508c565b611e8e6115d2565b15611ece576040517f08c379a0000000000000000000000000000000000000000000000000000000008152600401611ec59061517c565b60405180910390fd5b60048110611f11576040517f08c379a0000000000000000000000000000000000000000000000000000000008152600401611f089061507c565b60405180910390fd5b600d5434101580611f5b5750611f25612b65565b73ffffffffffffffffffffffffffffffffffffffff16611f43611ba5565b73ffffffffffffffffffffffffffffffffffffffff16145b611f9a576040517f08c379a0000000000000000000000000000000000000000000000000000000008152600401611f919061521c565b60405180910390fd5b6000611fa4610c66565b90506000600182611fb59190615575565b9050611fc1818461316b565b611fcb33826135f2565b600060178481548110612007577f4e487b7100000000000000000000000000000000000000000000000000000000600052603260045260246000fd5b90600052602060002001805461201c9061570b565b80601f01602080910402602001604051908101604052809291908181526020018280546120489061570b565b80156120955780601f1061206a57610100808354040283529160200191612095565b820191906000526020600020905b81548152906001019060200180831161207857829003601f168201915b505050505090506120a68282613610565b50505050565b6120b4612b65565b73ffffffffffffffffffffffffffffffffffffffff168273ffffffffffffffffffffffffffffffffffffffff161415612122576040517f08c379a00000000000000000000000000000000000000000000000000000000081526004016121199061513c565b60405180910390fd5b806005600061212f612b65565b73ffffffffffffffffffffffffffffffffffffffff1673ffffffffffffffffffffffffffffffffffffffff16815260200190815260200160002060008473ffffffffffffffffffffffffffffffffffffffff1673ffffffffffffffffffffffffffffffffffffffff16815260200190815260200160002060006101000a81548160ff0219169083151502179055508173ffffffffffffffffffffffffffffffffffffffff166121dc612b65565b73ffffffffffffffffffffffffffffffffffffffff167f17307eab39ab6107e8899845ad3d59bd9653f200f220920489ca2b5937696c3183604051612221919061501f565b60405180910390a35050565b6122356115d2565b15612275576040517f08c379a000000000000000000000000000000000000000000000000000000000815260040161226c9061517c565b60405180910390fd5b600c60003373ffffffffffffffffffffffffffffffffffffffff1673ffffffffffffffffffffffffffffffffffffffff16815260200190815260200160002060009054906101000a900460ff166122cb57600080fd5b8060166000848152602001908152602001600020600901819055505050565b6122f26115d2565b15612332576040517f08c379a00000000000000000000000000000000000000000000000000000000081526004016123299061517c565b60405180910390fd5b61233a612b65565b73ffffffffffffffffffffffffffffffffffffffff16612358611ba5565b73ffffffffffffffffffffffffffffffffffffffff16146123ae576040517f08c379a00000000000000000000000000000000000000000000000000000000081526004016123a59061529c565b60405180910390fd5b60016016600083815260200190815260200160002060040160006101000a81548160ff0219169083600281111561240e577f4e487b7100000000000000000000000000000000000000000000000000000000600052602160045260246000fd5b021790555050565b61241e6115d2565b1561245e576040517f08c379a00000000000000000000000000000000000000000000000000000000081526004016124559061517c565b60405180910390fd5b600c60003373ffffffffffffffffffffffffffffffffffffffff1673ffffffffffffffffffffffffffffffffffffffff16815260200190815260200160002060009054906101000a900460ff166124b457600080fd5b8060166000848152602001908152602001600020600a01819055505050565b6124db6115d2565b1561251b576040517f08c379a00000000000000000000000000000000000000000000000000000000081526004016125129061517c565b60405180910390fd5b600c60003373ffffffffffffffffffffffffffffffffffffffff1673ffffffffffffffffffffffffffffffffffffffff16815260200190815260200160002060009054906101000a900460ff1661257157600080fd5b8060166000848152602001908152602001600020600701819055505050565b6125a161259b612b65565b83612c26565b6125e0576040517f08c379a00000000000000000000000000000000000000000000000000000000081526004016125d79061531c565b60405180910390fd5b6125ec84848484613684565b50505050565b60606125fd826136e0565b9050919050565b61260c6115d2565b1561264c576040517f08c379a00000000000000000000000000000000000000000000000000000000081526004016126439061517c565b60405180910390fd5b612654612b65565b73ffffffffffffffffffffffffffffffffffffffff16612672611ba5565b73ffffffffffffffffffffffffffffffffffffffff16146126c8576040517f08c379a00000000000000000000000000000000000000000000000000000000081526004016126bf9061529c565b60405180910390fd5b60026016600083815260200190815260200160002060040160006101000a81548160ff02191690836002811115612728577f4e487b7100000000000000000000000000000000000000000000000000000000600052602160045260246000fd5b021790555050565b6127386115d2565b15612778576040517f08c379a000000000000000000000000000000000000000000000000000000000815260040161276f9061517c565b60405180910390fd5b600c60003373ffffffffffffffffffffffffffffffffffffffff1673ffffffffffffffffffffffffffffffffffffffff16815260200190815260200160002060009054906101000a900460ff166127ce57600080fd5b806016600084815260200190815260200160002060050190805190602001906127f8929190614520565b505050565b6000612807612b65565b73ffffffffffffffffffffffffffffffffffffffff16612825611ba5565b73ffffffffffffffffffffffffffffffffffffffff161461287b576040517f08c379a00000000000000000000000000000000000000000000000000000000081526004016128729061529c565b60405180910390fd5b60005b82518110156128ed576128d08382815181106128c3577f4e487b7100000000000000000000000000000000000000000000000000000000600052603260045260246000fd5b60200260200101516118d9565b156128da57600191505b80806128e59061576e565b91505061287e565b50919050565b6000600560008473ffffffffffffffffffffffffffffffffffffffff1673ffffffffffffffffffffffffffffffffffffffff16815260200190815260200160002060008373ffffffffffffffffffffffffffffffffffffffff1673ffffffffffffffffffffffffffffffffffffffff16815260200190815260200160002060009054906101000a900460ff16905092915050565b61298f612b65565b73ffffffffffffffffffffffffffffffffffffffff166129ad611ba5565b73ffffffffffffffffffffffffffffffffffffffff1614612a03576040517f08c379a00000000000000000000000000000000000000000000000000000000081526004016129fa9061529c565b60405180910390fd5b600073ffffffffffffffffffffffffffffffffffffffff168173ffffffffffffffffffffffffffffffffffffffff161415612a73576040517f08c379a0000000000000000000000000000000000000000000000000000000008152600401612a6a906150dc565b60405180910390fd5b612a7c81613002565b50565b60007f780e9d63000000000000000000000000000000000000000000000000000000007bffffffffffffffffffffffffffffffffffffffffffffffffffffffff1916827bffffffffffffffffffffffffffffffffffffffffffffffffffffffff19161480612af25750612af182613832565b5b9050919050565b60008073ffffffffffffffffffffffffffffffffffffffff166002600084815260200190815260200160002060009054906101000a900473ffffffffffffffffffffffffffffffffffffffff1673ffffffffffffffffffffffffffffffffffffffff1614159050919050565b600033905090565b816004600083815260200190815260200160002060006101000a81548173ffffffffffffffffffffffffffffffffffffffff021916908373ffffffffffffffffffffffffffffffffffffffff160217905550808273ffffffffffffffffffffffffffffffffffffffff16612be0836115e9565b73ffffffffffffffffffffffffffffffffffffffff167f8c5be1e5ebec7d5bd14f71427d1e84f3dd0314c0f7b2291e5b200ac8c7c3b92560405160405180910390a45050565b6000612c3182612af9565b612c70576040517f08c379a0000000000000000000000000000000000000000000000000000000008152600401612c679061515c565b60405180910390fd5b6000612c7b836115e9565b90508073ffffffffffffffffffffffffffffffffffffffff168473ffffffffffffffffffffffffffffffffffffffff161480612cea57508373ffffffffffffffffffffffffffffffffffffffff16612cd284610ac9565b73ffffffffffffffffffffffffffffffffffffffff16145b80612cfb5750612cfa81856128f3565b5b91505092915050565b8273ffffffffffffffffffffffffffffffffffffffff16612d24826115e9565b73ffffffffffffffffffffffffffffffffffffffff1614612d7a576040517f08c379a0000000000000000000000000000000000000000000000000000000008152600401612d71906152bc565b60405180910390fd5b600073ffffffffffffffffffffffffffffffffffffffff168273ffffffffffffffffffffffffffffffffffffffff161415612dea576040517f08c379a0000000000000000000000000000000000000000000000000000000008152600401612de19061511c565b60405180910390fd5b612df5838383613914565b612e00600082612b6d565b6001600360008573ffffffffffffffffffffffffffffffffffffffff1673ffffffffffffffffffffffffffffffffffffffff1681526020019081526020016000206000828254612e5091906155fc565b925050819055506001600360008473ffffffffffffffffffffffffffffffffffffffff1673ffffffffffffffffffffffffffffffffffffffff1681526020019081526020016000206000828254612ea79190615575565b92505081905550816002600083815260200190815260200160002060006101000a81548173ffffffffffffffffffffffffffffffffffffffff021916908373ffffffffffffffffffffffffffffffffffffffff160217905550808273ffffffffffffffffffffffffffffffffffffffff168473ffffffffffffffffffffffffffffffffffffffff167fddf252ad1be2c89b69c2b068fc378daa952ba7f163c4a11628f55a4df523b3ef60405160405180910390a4505050565b612f686115d2565b612fa7576040517f08c379a0000000000000000000000000000000000000000000000000000000008152600401612f9e9061505c565b60405180910390fd5b6000600b60006101000a81548160ff0219169083151502179055507f5db9ee0a495bf2e6ff9c91a7834c1ba4fdd244a5e8aa4e537bd38aeae4b073aa612feb612b65565b604051612ff89190614f96565b60405180910390a1565b6000600b60019054906101000a900473ffffffffffffffffffffffffffffffffffffffff16905081600b60016101000a81548173ffffffffffffffffffffffffffffffffffffffff021916908373ffffffffffffffffffffffffffffffffffffffff1602179055508173ffffffffffffffffffffffffffffffffffffffff168173ffffffffffffffffffffffffffffffffffffffff167f8be0079c531659141344cd1fd0a4f28419497f9722a3daafe3b4186f6b6457e060405160405180910390a35050565b6130d06115d2565b15613110576040517f08c379a00000000000000000000000000000000000000000000000000000000081526004016131079061517c565b60405180910390fd5b6001600b60006101000a81548160ff0219169083151502179055507f62e78cea01bee320cd4e420270b5ea74000d11b0c9f74754ebdbfc544b05a258613154612b65565b6040516131619190614f96565b60405180910390a1565b6040518061018001604052808381526020016040518060400160405280600181526020017f20000000000000000000000000000000000000000000000000000000000000008152508152602001600081526020016000815260200160006002811115613200577f4e487b7100000000000000000000000000000000000000000000000000000000600052602160045260246000fd5b81526020016010838154811061323f577f4e487b7100000000000000000000000000000000000000000000000000000000600052603260045260246000fd5b9060005260206000200180546132549061570b565b80601f01602080910402602001604051908101604052809291908181526020018280546132809061570b565b80156132cd5780601f106132a2576101008083540402835291602001916132cd565b820191906000526020600020905b8154815290600101906020018083116132b057829003601f168201915b5050505050815260200160118381548110613311577f4e487b7100000000000000000000000000000000000000000000000000000000600052603260045260246000fd5b9060005260206000200180546133269061570b565b80601f01602080910402602001604051908101604052809291908181526020018280546133529061570b565b801561339f5780601f106133745761010080835404028352916020019161339f565b820191906000526020600020905b81548152906001019060200180831161338257829003601f168201915b505050505081526020016103e88152602001601283815481106133eb577f4e487b7100000000000000000000000000000000000000000000000000000000600052603260045260246000fd5b9060005260206000200154815260200160138381548110613435577f4e487b7100000000000000000000000000000000000000000000000000000000600052603260045260246000fd5b906000526020600020015481526020016014838154811061347f577f4e487b7100000000000000000000000000000000000000000000000000000000600052603260045260246000fd5b90600052602060002001548152602001601583815481106134c9577f4e487b7100000000000000000000000000000000000000000000000000000000600052603260045260246000fd5b906000526020600020015481525060166000848152602001908152602001600020600082015181600001556020820151816001019080519060200190613510929190614520565b50604082015181600201556060820151816003015560808201518160040160006101000a81548160ff02191690836002811115613576577f4e487b7100000000000000000000000000000000000000000000000000000000600052602160045260246000fd5b021790555060a0820151816005019080519060200190613597929190614520565b5060c08201518160060190805190602001906135b4929190614520565b5060e082015181600701556101008201518160080155610120820151816009015561014082015181600a015561016082015181600b01559050505050565b61360c82826040518060200160405280600081525061396c565b5050565b61361982612af9565b613658576040517f08c379a000000000000000000000000000000000000000000000000000000000815260040161364f906151fc565b60405180910390fd5b8060066000848152602001908152602001600020908051906020019061367f929190614520565b505050565b61368f848484612d04565b61369b848484846139c7565b6136da576040517f08c379a00000000000000000000000000000000000000000000000000000000081526004016136d1906150bc565b60405180910390fd5b50505050565b60606136eb82612af9565b61372a576040517f08c379a00000000000000000000000000000000000000000000000000000000081526004016137219061525c565b60405180910390fd5b600060066000848152602001908152602001600020805461374a9061570b565b80601f01602080910402602001604051908101604052809291908181526020018280546137769061570b565b80156137c35780601f10613798576101008083540402835291602001916137c3565b820191906000526020600020905b8154815290600101906020018083116137a657829003601f168201915b5050505050905060006137d4613b5e565b90506000815114156137ea57819250505061382d565b60008251111561381f578082604051602001613807929190614f72565b6040516020818303038152906040529250505061382d565b61382884613bf0565b925050505b919050565b60007f80ac58cd000000000000000000000000000000000000000000000000000000007bffffffffffffffffffffffffffffffffffffffffffffffffffffffff1916827bffffffffffffffffffffffffffffffffffffffffffffffffffffffff191614806138fd57507f5b5e139f000000000000000000000000000000000000000000000000000000007bffffffffffffffffffffffffffffffffffffffffffffffffffffffff1916827bffffffffffffffffffffffffffffffffffffffffffffffffffffffff1916145b8061390d575061390c82613c97565b5b9050919050565b61391c6115d2565b1561395c576040517f08c379a00000000000000000000000000000000000000000000000000000000081526004016139539061517c565b60405180910390fd5b613967838383613d01565b505050565b6139768383613e15565b61398360008484846139c7565b6139c2576040517f08c379a00000000000000000000000000000000000000000000000000000000081526004016139b9906150bc565b60405180910390fd5b505050565b60006139e88473ffffffffffffffffffffffffffffffffffffffff16613fe3565b15613b51578373ffffffffffffffffffffffffffffffffffffffff1663150b7a02613a11612b65565b8786866040518563ffffffff1660e01b8152600401613a339493929190614fb1565b602060405180830381600087803b158015613a4d57600080fd5b505af1925050508015613a7e57506040513d601f19601f82011682018060405250810190613a7b91906149a3565b60015b613b01573d8060008114613aae576040519150601f19603f3d011682016040523d82523d6000602084013e613ab3565b606091505b50600081511415613af9576040517f08c379a0000000000000000000000000000000000000000000000000000000008152600401613af0906150bc565b60405180910390fd5b805181602001fd5b63150b7a0260e01b7bffffffffffffffffffffffffffffffffffffffffffffffffffffffff1916817bffffffffffffffffffffffffffffffffffffffffffffffffffffffff191614915050613b56565b600190505b949350505050565b6060600e8054613b6d9061570b565b80601f0160208091040260200160405190810160405280929190818152602001828054613b999061570b565b8015613be65780601f10613bbb57610100808354040283529160200191613be6565b820191906000526020600020905b815481529060010190602001808311613bc957829003601f168201915b5050505050905090565b6060613bfb82612af9565b613c3a576040517f08c379a0000000000000000000000000000000000000000000000000000000008152600401613c31906152dc565b60405180910390fd5b6000613c44613b5e565b90506000815111613c645760405180602001604052806000815250613c8f565b80613c6e84613ff6565b604051602001613c7f929190614f72565b6040516020818303038152906040525b915050919050565b60007f01ffc9a7000000000000000000000000000000000000000000000000000000007bffffffffffffffffffffffffffffffffffffffffffffffffffffffff1916827bffffffffffffffffffffffffffffffffffffffffffffffffffffffff1916149050919050565b613d0c8383836141a3565b600073ffffffffffffffffffffffffffffffffffffffff168373ffffffffffffffffffffffffffffffffffffffff161415613d4f57613d4a816141a8565b613d8e565b8173ffffffffffffffffffffffffffffffffffffffff168373ffffffffffffffffffffffffffffffffffffffff1614613d8d57613d8c83826141f1565b5b5b600073ffffffffffffffffffffffffffffffffffffffff168273ffffffffffffffffffffffffffffffffffffffff161415613dd157613dcc8161435e565b613e10565b8273ffffffffffffffffffffffffffffffffffffffff168273ffffffffffffffffffffffffffffffffffffffff1614613e0f57613e0e82826144a1565b5b5b505050565b600073ffffffffffffffffffffffffffffffffffffffff168273ffffffffffffffffffffffffffffffffffffffff161415613e85576040517f08c379a0000000000000000000000000000000000000000000000000000000008152600401613e7c9061523c565b60405180910390fd5b613e8e81612af9565b15613ece576040517f08c379a0000000000000000000000000000000000000000000000000000000008152600401613ec5906150fc565b60405180910390fd5b613eda60008383613914565b6001600360008473ffffffffffffffffffffffffffffffffffffffff1673ffffffffffffffffffffffffffffffffffffffff1681526020019081526020016000206000828254613f2a9190615575565b92505081905550816002600083815260200190815260200160002060006101000a81548173ffffffffffffffffffffffffffffffffffffffff021916908373ffffffffffffffffffffffffffffffffffffffff160217905550808273ffffffffffffffffffffffffffffffffffffffff16600073ffffffffffffffffffffffffffffffffffffffff167fddf252ad1be2c89b69c2b068fc378daa952ba7f163c4a11628f55a4df523b3ef60405160405180910390a45050565b600080823b905060008111915050919050565b6060600082141561403e576040518060400160405280600181526020017f3000000000000000000000000000000000000000000000000000000000000000815250905061419e565b600082905060005b600082146140705780806140599061576e565b915050600a8261406991906155cb565b9150614046565b60008167ffffffffffffffff8111156140b2577f4e487b7100000000000000000000000000000000000000000000000000000000600052604160045260246000fd5b6040519080825280601f01601f1916602001820160405280156140e45781602001600182028036833780820191505090505b5090505b60008514614197576001826140fd91906155fc565b9150600a8561410c91906157b7565b60306141189190615575565b60f81b818381518110614154577f4e487b7100000000000000000000000000000000000000000000000000000000600052603260045260246000fd5b60200101907effffffffffffffffffffffffffffffffffffffffffffffffffffffffffffff1916908160001a905350600a8561419091906155cb565b94506140e8565b8093505050505b919050565b505050565b600980549050600a600083815260200190815260200160002081905550600981908060018154018082558091505060019003906000526020600020016000909190919091505550565b600060016141fe84611799565b61420891906155fc565b90506000600860008481526020019081526020016000205490508181146142ed576000600760008673ffffffffffffffffffffffffffffffffffffffff1673ffffffffffffffffffffffffffffffffffffffff168152602001908152602001600020600084815260200190815260200160002054905080600760008773ffffffffffffffffffffffffffffffffffffffff1673ffffffffffffffffffffffffffffffffffffffff168152602001908152602001600020600084815260200190815260200160002081905550816008600083815260200190815260200160002081905550505b6008600084815260200190815260200160002060009055600760008573ffffffffffffffffffffffffffffffffffffffff1673ffffffffffffffffffffffffffffffffffffffff16815260200190815260200160002060008381526020019081526020016000206000905550505050565b6000600160098054905061437291906155fc565b90506000600a60008481526020019081526020016000205490506000600983815481106143c8577f4e487b7100000000000000000000000000000000000000000000000000000000600052603260045260246000fd5b906000526020600020015490508060098381548110614410577f4e487b7100000000000000000000000000000000000000000000000000000000600052603260045260246000fd5b906000526020600020018190555081600a600083815260200190815260200160002081905550600a6000858152602001908152602001600020600090556009805480614485577f4e487b7100000000000000000000000000000000000000000000000000000000600052603160045260246000fd5b6001900381819060005260206000200160009055905550505050565b60006144ac83611799565b905081600760008573ffffffffffffffffffffffffffffffffffffffff1673ffffffffffffffffffffffffffffffffffffffff168152602001908152602001600020600083815260200190815260200160002081905550806008600084815260200190815260200160002081905550505050565b82805461452c9061570b565b90600052602060002090601f01602090048101928261454e5760008555614595565b82601f1061456757805160ff1916838001178555614595565b82800160010185558215614595579182015b82811115614594578251825591602001919060010190614579565b5b5090506145a291906145a6565b5090565b5b808211156145bf5760008160009055506001016145a7565b5090565b60006145d66145d18461546b565b615446565b905080838252602082019050828560208602820111156145f557600080fd5b60005b85811015614625578161460b88826146ab565b8452602084019350602083019250506001810190506145f8565b5050509392505050565b600061464261463d84615497565b615446565b90508281526020810184848401111561465a57600080fd5b6146658482856156c9565b509392505050565b600061468061467b846154c8565b615446565b90508281526020810184848401111561469857600080fd5b6146a38482856156c9565b509392505050565b6000813590506146ba81615f56565b92915050565b600082601f8301126146d157600080fd5b81356146e18482602086016145c3565b91505092915050565b6000813590506146f981615f6d565b92915050565b60008135905061470e81615f84565b92915050565b60008151905061472381615f84565b92915050565b600082601f83011261473a57600080fd5b813561474a84826020860161462f565b91505092915050565b600082601f83011261476457600080fd5b813561477484826020860161466d565b91505092915050565b60008135905061478c81615f9b565b92915050565b6000602082840312156147a457600080fd5b60006147b2848285016146ab565b91505092915050565b600080604083850312156147ce57600080fd5b60006147dc858286016146ab565b92505060206147ed858286016146ab565b9150509250929050565b60008060006060848603121561480c57600080fd5b600061481a868287016146ab565b935050602061482b868287016146ab565b925050604061483c8682870161477d565b9150509250925092565b6000806000806080858703121561485c57600080fd5b600061486a878288016146ab565b945050602061487b878288016146ab565b935050604061488c8782880161477d565b925050606085013567ffffffffffffffff8111156148a957600080fd5b6148b587828801614729565b91505092959194509250565b600080604083850312156148d457600080fd5b60006148e2858286016146ab565b92505060206148f3858286016146ea565b9150509250929050565b6000806040838503121561491057600080fd5b600061491e858286016146ab565b925050602061492f8582860161477d565b9150509250929050565b60006020828403121561494b57600080fd5b600082013567ffffffffffffffff81111561496557600080fd5b614971848285016146c0565b91505092915050565b60006020828403121561498c57600080fd5b600061499a848285016146ff565b91505092915050565b6000602082840312156149b557600080fd5b60006149c384828501614714565b91505092915050565b6000602082840312156149de57600080fd5b600082013567ffffffffffffffff8111156149f857600080fd5b614a0484828501614753565b91505092915050565b600060208284031215614a1f57600080fd5b6000614a2d8482850161477d565b91505092915050565b60008060408385031215614a4957600080fd5b6000614a578582860161477d565b925050602083013567ffffffffffffffff811115614a7457600080fd5b614a8085828601614753565b9150509250929050565b60008060408385031215614a9d57600080fd5b6000614aab8582860161477d565b9250506020614abc8582860161477d565b9150509250929050565b6000614ad28383614f54565b60208301905092915050565b614ae781615630565b82525050565b6000614af882615509565b614b028185615537565b9350614b0d836154f9565b8060005b83811015614b3e578151614b258882614ac6565b9750614b308361552a565b925050600181019050614b11565b5085935050505092915050565b614b5481615642565b82525050565b6000614b6582615514565b614b6f8185615548565b9350614b7f8185602086016156d8565b614b88816158d3565b840191505092915050565b614b9c816156b7565b82525050565b6000614bad8261551f565b614bb78185615559565b9350614bc78185602086016156d8565b614bd0816158d3565b840191505092915050565b6000614be68261551f565b614bf0818561556a565b9350614c008185602086016156d8565b80840191505092915050565b6000614c19601483615559565b9150614c24826158e4565b602082019050919050565b6000614c3c601e83615559565b9150614c478261590d565b602082019050919050565b6000614c5f602b83615559565b9150614c6a82615936565b604082019050919050565b6000614c82603283615559565b9150614c8d82615985565b604082019050919050565b6000614ca5602683615559565b9150614cb0826159d4565b604082019050919050565b6000614cc8601c83615559565b9150614cd382615a23565b602082019050919050565b6000614ceb602483615559565b9150614cf682615a4c565b604082019050919050565b6000614d0e601983615559565b9150614d1982615a9b565b602082019050919050565b6000614d31602c83615559565b9150614d3c82615ac4565b604082019050919050565b6000614d54601083615559565b9150614d5f82615b13565b602082019050919050565b6000614d77603883615559565b9150614d8282615b3c565b604082019050919050565b6000614d9a602a83615559565b9150614da582615b8b565b604082019050919050565b6000614dbd602983615559565b9150614dc882615bda565b604082019050919050565b6000614de0602e83615559565b9150614deb82615c29565b604082019050919050565b6000614e03603583615559565b9150614e0e82615c78565b604082019050919050565b6000614e26602083615559565b9150614e3182615cc7565b602082019050919050565b6000614e49603183615559565b9150614e5482615cf0565b604082019050919050565b6000614e6c602c83615559565b9150614e7782615d3f565b604082019050919050565b6000614e8f602083615559565b9150614e9a82615d8e565b602082019050919050565b6000614eb2602983615559565b9150614ebd82615db7565b604082019050919050565b6000614ed5602f83615559565b9150614ee082615e06565b604082019050919050565b6000614ef8602183615559565b9150614f0382615e55565b604082019050919050565b6000614f1b603183615559565b9150614f2682615ea4565b604082019050919050565b6000614f3e602c83615559565b9150614f4982615ef3565b604082019050919050565b614f5d816156ad565b82525050565b614f6c816156ad565b82525050565b6000614f7e8285614bdb565b9150614f8a8284614bdb565b91508190509392505050565b6000602082019050614fab6000830184614ade565b92915050565b6000608082019050614fc66000830187614ade565b614fd36020830186614ade565b614fe06040830185614f63565b8181036060830152614ff28184614b5a565b905095945050505050565b600060208201905081810360008301526150178184614aed565b905092915050565b60006020820190506150346000830184614b4b565b92915050565b600060208201905081810360008301526150548184614ba2565b905092915050565b6000602082019050818103600083015261507581614c0c565b9050919050565b6000602082019050818103600083015261509581614c2f565b9050919050565b600060208201905081810360008301526150b581614c52565b9050919050565b600060208201905081810360008301526150d581614c75565b9050919050565b600060208201905081810360008301526150f581614c98565b9050919050565b6000602082019050818103600083015261511581614cbb565b9050919050565b6000602082019050818103600083015261513581614cde565b9050919050565b6000602082019050818103600083015261515581614d01565b9050919050565b6000602082019050818103600083015261517581614d24565b9050919050565b6000602082019050818103600083015261519581614d47565b9050919050565b600060208201905081810360008301526151b581614d6a565b9050919050565b600060208201905081810360008301526151d581614d8d565b9050919050565b600060208201905081810360008301526151f581614db0565b9050919050565b6000602082019050818103600083015261521581614dd3565b9050919050565b6000602082019050818103600083015261523581614df6565b9050919050565b6000602082019050818103600083015261525581614e19565b9050919050565b6000602082019050818103600083015261527581614e3c565b9050919050565b6000602082019050818103600083015261529581614e5f565b9050919050565b600060208201905081810360008301526152b581614e82565b9050919050565b600060208201905081810360008301526152d581614ea5565b9050919050565b600060208201905081810360008301526152f581614ec8565b9050919050565b6000602082019050818103600083015261531581614eeb565b9050919050565b6000602082019050818103600083015261533581614f0e565b9050919050565b6000602082019050818103600083015261535581614f31565b9050919050565b60006020820190506153716000830184614f63565b92915050565b60006101808201905061538d600083018f614f63565b818103602083015261539f818e614ba2565b90506153ae604083018d614f63565b6153bb606083018c614f63565b6153c8608083018b614b93565b81810360a08301526153da818a614ba2565b905081810360c08301526153ee8189614ba2565b90506153fd60e0830188614f63565b61540b610100830187614f63565b615419610120830186614f63565b615427610140830185614f63565b615435610160830184614f63565b9d9c50505050505050505050505050565b6000615450615461565b905061545c828261573d565b919050565b6000604051905090565b600067ffffffffffffffff821115615486576154856158a4565b5b602082029050602081019050919050565b600067ffffffffffffffff8211156154b2576154b16158a4565b5b6154bb826158d3565b9050602081019050919050565b600067ffffffffffffffff8211156154e3576154e26158a4565b5b6154ec826158d3565b9050602081019050919050565b6000819050602082019050919050565b600081519050919050565b600081519050919050565b600081519050919050565b6000602082019050919050565b600082825260208201905092915050565b600082825260208201905092915050565b600082825260208201905092915050565b600081905092915050565b6000615580826156ad565b915061558b836156ad565b9250827fffffffffffffffffffffffffffffffffffffffffffffffffffffffffffffffff038211156155c0576155bf6157e8565b5b828201905092915050565b60006155d6826156ad565b91506155e1836156ad565b9250826155f1576155f0615817565b5b828204905092915050565b6000615607826156ad565b9150615612836156ad565b925082821015615625576156246157e8565b5b828203905092915050565b600061563b8261568d565b9050919050565b60008115159050919050565b60007fffffffff0000000000000000000000000000000000000000000000000000000082169050919050565b600081905061568882615f42565b919050565b600073ffffffffffffffffffffffffffffffffffffffff82169050919050565b6000819050919050565b60006156c28261567a565b9050919050565b82818337600083830152505050565b60005b838110156156f65780820151818401526020810190506156db565b83811115615705576000848401525b50505050565b6000600282049050600182168061572357607f821691505b6020821081141561573757615736615875565b5b50919050565b615746826158d3565b810181811067ffffffffffffffff82111715615765576157646158a4565b5b80604052505050565b6000615779826156ad565b91507fffffffffffffffffffffffffffffffffffffffffffffffffffffffffffffffff8214156157ac576157ab6157e8565b5b600182019050919050565b60006157c2826156ad565b91506157cd836156ad565b9250826157dd576157dc615817565b5b828206905092915050565b7f4e487b7100000000000000000000000000000000000000000000000000000000600052601160045260246000fd5b7f4e487b7100000000000000000000000000000000000000000000000000000000600052601260045260246000fd5b7f4e487b7100000000000000000000000000000000000000000000000000000000600052602160045260246000fd5b7f4e487b7100000000000000000000000000000000000000000000000000000000600052602260045260246000fd5b7f4e487b7100000000000000000000000000000000000000000000000000000000600052604160045260246000fd5b6000601f19601f8301169050919050565b7f5061757361626c653a206e6f7420706175736564000000000000000000000000600082015250565b7f5468657265206973206e6f20726f626f74206f66207468617420747970650000600082015250565b7f455243373231456e756d657261626c653a206f776e657220696e646578206f7560008201527f74206f6620626f756e6473000000000000000000000000000000000000000000602082015250565b7f4552433732313a207472616e7366657220746f206e6f6e20455243373231526560008201527f63656976657220696d706c656d656e7465720000000000000000000000000000602082015250565b7f4f776e61626c653a206e6577206f776e657220697320746865207a65726f206160008201527f6464726573730000000000000000000000000000000000000000000000000000602082015250565b7f4552433732313a20746f6b656e20616c7265616479206d696e74656400000000600082015250565b7f4552433732313a207472616e7366657220746f20746865207a65726f2061646460008201527f7265737300000000000000000000000000000000000000000000000000000000602082015250565b7f4552433732313a20617070726f766520746f2063616c6c657200000000000000600082015250565b7f4552433732313a206f70657261746f7220717565727920666f72206e6f6e657860008201527f697374656e7420746f6b656e0000000000000000000000000000000000000000602082015250565b7f5061757361626c653a2070617573656400000000000000000000000000000000600082015250565b7f4552433732313a20617070726f76652063616c6c6572206973206e6f74206f7760008201527f6e6572206e6f7220617070726f76656420666f7220616c6c0000000000000000602082015250565b7f4552433732313a2062616c616e636520717565727920666f7220746865207a6560008201527f726f206164647265737300000000000000000000000000000000000000000000602082015250565b7f4552433732313a206f776e657220717565727920666f72206e6f6e657869737460008201527f656e7420746f6b656e0000000000000000000000000000000000000000000000602082015250565b7f45524337323155524953746f726167653a2055524920736574206f66206e6f6e60008201527f6578697374656e7420746f6b656e000000000000000000000000000000000000602082015250565b7f5468652076616c7565207375626d69747465642077697468207468697320747260008201527f616e73616374696f6e20697320746f6f206c6f772e0000000000000000000000602082015250565b7f4552433732313a206d696e7420746f20746865207a65726f2061646472657373600082015250565b7f45524337323155524953746f726167653a2055524920717565727920666f722060008201527f6e6f6e6578697374656e7420746f6b656e000000000000000000000000000000602082015250565b7f4552433732313a20617070726f76656420717565727920666f72206e6f6e657860008201527f697374656e7420746f6b656e0000000000000000000000000000000000000000602082015250565b7f4f776e61626c653a2063616c6c6572206973206e6f7420746865206f776e6572600082015250565b7f4552433732313a207472616e73666572206f6620746f6b656e2074686174206960008201527f73206e6f74206f776e0000000000000000000000000000000000000000000000602082015250565b7f4552433732314d657461646174613a2055524920717565727920666f72206e6f60008201527f6e6578697374656e7420746f6b656e0000000000000000000000000000000000602082015250565b7f4552433732313a20617070726f76616c20746f2063757272656e74206f776e6560008201527f7200000000000000000000000000000000000000000000000000000000000000602082015250565b7f4552433732313a207472616e736665722063616c6c6572206973206e6f74206f60008201527f776e6572206e6f7220617070726f766564000000000000000000000000000000602082015250565b7f455243373231456e756d657261626c653a20676c6f62616c20696e646578206f60008201527f7574206f6620626f756e64730000000000000000000000000000000000000000602082015250565b60038110615f5357615f52615846565b5b50565b615f5f81615630565b8114615f6a57600080fd5b50565b615f7681615642565b8114615f8157600080fd5b50565b615f8d8161564e565b8114615f9857600080fd5b50565b615fa4816156ad565b8114615faf57600080fd5b5056fea2646970667358221220f9f370e3be3a181ae3335f25f5e49d269c1a6307dd8c395b18d88dee104010eb64736f6c63430008020033",
  "immutableReferences": {},
  "source": "// contracts/Robot.sol\n// SPDX-License-Identifier: MIT\npragma solidity ^0.8.2;\n\nimport \"@openzeppelin/contracts/token/ERC721/ERC721.sol\";\nimport \"@openzeppelin/contracts/token/ERC721/extensions/ERC721Enumerable.sol\";\nimport \"@openzeppelin/contracts/token/ERC721/extensions/ERC721URIStorage.sol\";\nimport \"@openzeppelin/contracts/token/ERC1155/IERC1155.sol\";\nimport \"@openzeppelin/contracts/utils/math/SafeMath.sol\";\nimport \"@openzeppelin/contracts/security/Pausable.sol\";\nimport \"./Whitelist.sol\";\n\ncontract Robot is ERC721, ERC721URIStorage, ERC721Enumerable, Pausable, Whitelist {\n    using SafeMath for uint256;\n\n    uint256 public ROBOT_PRICE = 5 * 10**18;\n\n    string private _baseTokenURI;\n\n    // Address where funds are collected\n    address payable private _wallet;\n\n    string[] private robotName = [\"Robot1\", \"Robot2\", \"Robot3\", \"Robot4\"];\n    string[] private robotType = [\"Tank\", \"Speedy\", \"Defender\", \"Attacker\"];\n    uint256[] private strength = [20, 10, 10, 20];\n    uint256[] private agility = [10, 20, 10, 20];\n    uint256[] private ai = [10, 20, 20, 10];\n    uint256[] private defense = [20, 10, 20, 10];\n\n    mapping(uint256 => RobotAttributes) public robots;\n\n    string[] private robotURIs = [\"0.json\", \"1.json\", \"2.json\", \"3.json\"];\n\n    enum State {\n        Fighter, // 0\n        Trainer, // 1\n        Retired // 2\n    }\n\n    State constant defaultState = State.Fighter;\n\n    struct RobotAttributes {\n        uint256 robotIndex;\n        string imageURI;\n        uint256 wins;\n        uint256 losses;\n        State state;\n        string robotName;\n        string robotType;\n        uint256 health;\n        uint256 strength;\n        uint256 agility;\n        uint256 ai;\n        uint256 defense;\n    }\n\n    constructor(string memory baseURI, address payable wallet) ERC721(\"Robot\", \"RBT\") {\n        setBaseURI(baseURI);\n        _wallet = wallet;\n    }\n\n    function pause() public onlyOwner {\n        _pause();\n    }\n\n    function unpause() public onlyOwner {\n        _unpause();\n    }\n\n    function setBaseURI(string memory baseURI) public onlyOwner {\n        _baseTokenURI = baseURI;\n    }\n\n    function _baseURI() internal view virtual override returns (string memory) {\n        return _baseTokenURI;\n    }\n\n    function _beforeTokenTransfer(address from, address to, uint256 tokenId)\n        internal\n        whenNotPaused\n        override(ERC721, ERC721Enumerable)\n    {\n        super._beforeTokenTransfer(from, to, tokenId);\n    }\n\n    // The following functions are overrides required by Solidity.\n    function _burn(uint256 tokenId) internal override(ERC721, ERC721URIStorage) {\n        super._burn(tokenId);\n    }\n\n    function tokenURI(uint256 tokenId)\n        public\n        view\n        override(ERC721, ERC721URIStorage)\n        returns (string memory)\n    {\n        return super.tokenURI(tokenId);\n    }\n\n   // The following function override required by Solidity.\n    function supportsInterface(bytes4 interfaceId)\n        public\n        view\n        override(ERC721, ERC721Enumerable)\n        returns (bool)\n    {\n        return super.supportsInterface(interfaceId);\n    }\n\n    function _createRobot(uint256 index, uint256 typeIndex) internal {\n        robots[index] = RobotAttributes({\n            robotIndex: index,\n            imageURI: \" \",\n            wins: 0,\n            losses: 0,\n            state: defaultState,\n            robotName: robotName[typeIndex],\n            robotType: robotType[typeIndex],\n            health: 1000,\n            strength: strength[typeIndex],\n            agility: agility[typeIndex],\n            ai: ai[typeIndex],\n            defense: defense[typeIndex]\n        });\n    }\n\n    // Count is how many they want to mint\n    function mint(uint256 botType) public whenNotPaused payable {\n        require(botType < 4, \"There is no robot of that type\");\n        require(\n            msg.value >= ROBOT_PRICE || owner() == _msgSender(),\n            \"The value submitted with this transaction is too low.\"\n        );\n\n        uint256 totalSupply = totalSupply();\n        uint256 tokenId = totalSupply + 1;\n        _createRobot(tokenId, botType);\n        _safeMint(msg.sender, tokenId);\n        string memory robotURI = robotURIs[botType];\n        _setTokenURI(tokenId, robotURI);\n    }\n\n    function updateRobotsRecords(uint256 winningRobotIndex, uint256 losingRobotIndex) public whenNotPaused onlyWhitelisted {\n        robots[winningRobotIndex].wins += 1;\n        robots[losingRobotIndex].losses += 1;\n    }\n\n    function updateRobotName(uint256 robotIndex, string memory value) public whenNotPaused onlyWhitelisted {\n        robots[robotIndex].robotName = value;\n    }\n\n    function updateRobotHealth(uint256 robotIndex, uint256 value) public whenNotPaused onlyWhitelisted {\n        robots[robotIndex].health = value;\n    }\n\n    function updateRobotStrength(uint256 robotIndex, uint256 value) public whenNotPaused onlyWhitelisted {\n        robots[robotIndex].strength = value;\n    }\n\n    function updateRobotAgility(uint256 robotIndex, uint256 value) public whenNotPaused onlyWhitelisted {\n        robots[robotIndex].agility = value;\n    }\n\n    function updateRobotAi(uint256 robotIndex, uint256 value) public whenNotPaused onlyWhitelisted {\n        robots[robotIndex].ai = value;\n    }\n\n    function updateRobotDefense(uint256 robotIndex, uint256 value) public whenNotPaused onlyWhitelisted {\n        robots[robotIndex].defense = value;\n    }\n\n    function setRobotAsFighter(uint256 robotIndex) public whenNotPaused onlyOwner {\n        robots[robotIndex].state = State.Fighter;\n    }\n\n    function setRobotAsTrainer(uint256 robotIndex) public whenNotPaused onlyOwner {\n        robots[robotIndex].state = State.Trainer;\n    }\n\n    function setRobotAsRetired(uint256 robotIndex) public whenNotPaused onlyOwner {\n        robots[robotIndex].state = State.Retired;\n    }\n\n    function walletOfOwner(address _owner)\n        public\n        view\n        returns (uint256[] memory)\n    {\n        uint256 tokenCount = balanceOf(_owner);\n\n        if (tokenCount == 0) {\n            // Return an empty array\n            return new uint256[](0);\n        }\n\n        uint256[] memory tokensId = new uint256[](tokenCount);\n        for (uint256 i; i < tokenCount; i++) {\n            tokensId[i] = tokenOfOwnerByIndex(_owner, i);\n        }\n        return tokensId;\n    }\n\n    function withdrawAll() public payable onlyOwner {\n        require(_wallet.send(address(this).balance));\n    }\n}\n",
  "sourcePath": "/home/seandevs/workspaces/celo-hackathon/nfts/robots/contracts/Robot.sol",
  "compiler": {
    "name": "solc",
    "version": "0.8.2+commit.661d1103.Emscripten.clang"
  },
  "schemaVersion": "3.4.1",
  "updatedAt": "2021-11-26T18:54:53.264Z",
  "networkType": "ethereum",
  "devdoc": {
    "kind": "dev",
    "methods": {
      "approve(address,uint256)": {
        "details": "See {IERC721-approve}."
      },
      "balanceOf(address)": {
        "details": "See {IERC721-balanceOf}."
      },
      "getApproved(uint256)": {
        "details": "See {IERC721-getApproved}."
      },
      "isApprovedForAll(address,address)": {
        "details": "See {IERC721-isApprovedForAll}."
      },
      "name()": {
        "details": "See {IERC721Metadata-name}."
      },
      "owner()": {
        "details": "Returns the address of the current owner."
      },
      "ownerOf(uint256)": {
        "details": "See {IERC721-ownerOf}."
      },
      "paused()": {
        "details": "Returns true if the contract is paused, and false otherwise."
      },
      "renounceOwnership()": {
        "details": "Leaves the contract without owner. It will not be possible to call `onlyOwner` functions anymore. Can only be called by the current owner. NOTE: Renouncing ownership will leave the contract without an owner, thereby removing any functionality that is only available to the owner."
      },
      "safeTransferFrom(address,address,uint256)": {
        "details": "See {IERC721-safeTransferFrom}."
      },
      "safeTransferFrom(address,address,uint256,bytes)": {
        "details": "See {IERC721-safeTransferFrom}."
      },
      "setApprovalForAll(address,bool)": {
        "details": "See {IERC721-setApprovalForAll}."
      },
      "symbol()": {
        "details": "See {IERC721Metadata-symbol}."
      },
      "tokenByIndex(uint256)": {
        "details": "See {IERC721Enumerable-tokenByIndex}."
      },
      "tokenOfOwnerByIndex(address,uint256)": {
        "details": "See {IERC721Enumerable-tokenOfOwnerByIndex}."
      },
      "totalSupply()": {
        "details": "See {IERC721Enumerable-totalSupply}."
      },
      "transferFrom(address,address,uint256)": {
        "details": "See {IERC721-transferFrom}."
      },
      "transferOwnership(address)": {
        "details": "Transfers ownership of the contract to a new account (`newOwner`). Can only be called by the current owner."
      }
    },
    "version": 1
  },
  "userdoc": {
    "kind": "user",
    "methods": {},
    "version": 1
  }
}