{
  "contractName": "Robot",
  "abi": [
    {
      "inputs": [
        {
          "internalType": "string",
          "name": "baseURI",
          "type": "string"
        },
        {
          "internalType": "address payable",
          "name": "wallet",
          "type": "address"
        }
      ],
      "stateMutability": "nonpayable",
      "type": "constructor"
    },
    {
      "anonymous": false,
      "inputs": [
        {
          "indexed": true,
          "internalType": "address",
          "name": "owner",
          "type": "address"
        },
        {
          "indexed": true,
          "internalType": "address",
          "name": "approved",
          "type": "address"
        },
        {
          "indexed": true,
          "internalType": "uint256",
          "name": "tokenId",
          "type": "uint256"
        }
      ],
      "name": "Approval",
      "type": "event"
    },
    {
      "anonymous": false,
      "inputs": [
        {
          "indexed": true,
          "internalType": "address",
          "name": "owner",
          "type": "address"
        },
        {
          "indexed": true,
          "internalType": "address",
          "name": "operator",
          "type": "address"
        },
        {
          "indexed": false,
          "internalType": "bool",
          "name": "approved",
          "type": "bool"
        }
      ],
      "name": "ApprovalForAll",
      "type": "event"
    },
    {
      "anonymous": false,
      "inputs": [
        {
          "indexed": true,
          "internalType": "address",
          "name": "previousOwner",
          "type": "address"
        },
        {
          "indexed": true,
          "internalType": "address",
          "name": "newOwner",
          "type": "address"
        }
      ],
      "name": "OwnershipTransferred",
      "type": "event"
    },
    {
      "anonymous": false,
      "inputs": [
        {
          "indexed": false,
          "internalType": "address",
          "name": "account",
          "type": "address"
        }
      ],
      "name": "Paused",
      "type": "event"
    },
    {
      "anonymous": false,
      "inputs": [
        {
          "indexed": true,
          "internalType": "address",
          "name": "from",
          "type": "address"
        },
        {
          "indexed": true,
          "internalType": "address",
          "name": "to",
          "type": "address"
        },
        {
          "indexed": true,
          "internalType": "uint256",
          "name": "tokenId",
          "type": "uint256"
        }
      ],
      "name": "Transfer",
      "type": "event"
    },
    {
      "anonymous": false,
      "inputs": [
        {
          "indexed": false,
          "internalType": "address",
          "name": "account",
          "type": "address"
        }
      ],
      "name": "Unpaused",
      "type": "event"
    },
    {
      "anonymous": false,
      "inputs": [
        {
          "indexed": false,
          "internalType": "address",
          "name": "addr",
          "type": "address"
        }
      ],
      "name": "WhitelistedAddressAdded",
      "type": "event"
    },
    {
      "anonymous": false,
      "inputs": [
        {
          "indexed": false,
          "internalType": "address",
          "name": "addr",
          "type": "address"
        }
      ],
      "name": "WhitelistedAddressRemoved",
      "type": "event"
    },
    {
      "inputs": [
        {
          "internalType": "address",
          "name": "addr",
          "type": "address"
        }
      ],
      "name": "addAddressToWhitelist",
      "outputs": [
        {
          "internalType": "bool",
          "name": "success",
          "type": "bool"
        }
      ],
      "stateMutability": "nonpayable",
      "type": "function"
    },
    {
      "inputs": [
        {
          "internalType": "address[]",
          "name": "addrs",
          "type": "address[]"
        }
      ],
      "name": "addAddressesToWhitelist",
      "outputs": [
        {
          "internalType": "bool",
          "name": "success",
          "type": "bool"
        }
      ],
      "stateMutability": "nonpayable",
      "type": "function"
    },
    {
      "inputs": [
        {
          "internalType": "address",
          "name": "to",
          "type": "address"
        },
        {
          "internalType": "uint256",
          "name": "tokenId",
          "type": "uint256"
        }
      ],
      "name": "approve",
      "outputs": [],
      "stateMutability": "nonpayable",
      "type": "function"
    },
    {
      "inputs": [
        {
          "internalType": "address",
          "name": "owner",
          "type": "address"
        }
      ],
      "name": "balanceOf",
      "outputs": [
        {
          "internalType": "uint256",
          "name": "",
          "type": "uint256"
        }
      ],
      "stateMutability": "view",
      "type": "function",
      "constant": true
    },
    {
      "inputs": [
        {
          "internalType": "uint256",
          "name": "tokenId",
          "type": "uint256"
        }
      ],
      "name": "getApproved",
      "outputs": [
        {
          "internalType": "address",
          "name": "",
          "type": "address"
        }
      ],
      "stateMutability": "view",
      "type": "function",
      "constant": true
    },
    {
      "inputs": [
        {
          "internalType": "address",
          "name": "owner",
          "type": "address"
        },
        {
          "internalType": "address",
          "name": "operator",
          "type": "address"
        }
      ],
      "name": "isApprovedForAll",
      "outputs": [
        {
          "internalType": "bool",
          "name": "",
          "type": "bool"
        }
      ],
      "stateMutability": "view",
      "type": "function",
      "constant": true
    },
    {
      "inputs": [],
      "name": "name",
      "outputs": [
        {
          "internalType": "string",
          "name": "",
          "type": "string"
        }
      ],
      "stateMutability": "view",
      "type": "function",
      "constant": true
    },
    {
      "inputs": [],
      "name": "owner",
      "outputs": [
        {
          "internalType": "address",
          "name": "",
          "type": "address"
        }
      ],
      "stateMutability": "view",
      "type": "function",
      "constant": true
    },
    {
      "inputs": [
        {
          "internalType": "uint256",
          "name": "tokenId",
          "type": "uint256"
        }
      ],
      "name": "ownerOf",
      "outputs": [
        {
          "internalType": "address",
          "name": "",
          "type": "address"
        }
      ],
      "stateMutability": "view",
      "type": "function",
      "constant": true
    },
    {
      "inputs": [],
      "name": "paused",
      "outputs": [
        {
          "internalType": "bool",
          "name": "",
          "type": "bool"
        }
      ],
      "stateMutability": "view",
      "type": "function",
      "constant": true
    },
    {
      "inputs": [
        {
          "internalType": "address",
          "name": "addr",
          "type": "address"
        }
      ],
      "name": "removeAddressFromWhitelist",
      "outputs": [
        {
          "internalType": "bool",
          "name": "success",
          "type": "bool"
        }
      ],
      "stateMutability": "nonpayable",
      "type": "function"
    },
    {
      "inputs": [
        {
          "internalType": "address[]",
          "name": "addrs",
          "type": "address[]"
        }
      ],
      "name": "removeAddressesFromWhitelist",
      "outputs": [
        {
          "internalType": "bool",
          "name": "success",
          "type": "bool"
        }
      ],
      "stateMutability": "nonpayable",
      "type": "function"
    },
    {
      "inputs": [],
      "name": "renounceOwnership",
      "outputs": [],
      "stateMutability": "nonpayable",
      "type": "function"
    },
    {
      "inputs": [
        {
          "internalType": "uint256",
          "name": "",
          "type": "uint256"
        }
      ],
      "name": "robots",
      "outputs": [
        {
          "internalType": "uint256",
          "name": "robotIndex",
          "type": "uint256"
        },
        {
          "internalType": "string",
          "name": "imageURI",
          "type": "string"
        },
        {
          "internalType": "uint256",
          "name": "wins",
          "type": "uint256"
        },
        {
          "internalType": "uint256",
          "name": "losses",
          "type": "uint256"
        },
        {
          "internalType": "enum Robot.State",
          "name": "state",
          "type": "uint8"
        },
        {
          "internalType": "string",
          "name": "robotName",
          "type": "string"
        },
        {
          "internalType": "string",
          "name": "robotType",
          "type": "string"
        },
        {
          "internalType": "uint256",
          "name": "health",
          "type": "uint256"
        },
        {
          "internalType": "uint256",
          "name": "strength",
          "type": "uint256"
        },
        {
          "internalType": "uint256",
          "name": "agility",
          "type": "uint256"
        },
        {
          "internalType": "uint256",
          "name": "ai",
          "type": "uint256"
        },
        {
          "internalType": "uint256",
          "name": "defense",
          "type": "uint256"
        }
      ],
      "stateMutability": "view",
      "type": "function",
      "constant": true
    },
    {
      "inputs": [
        {
          "internalType": "address",
          "name": "from",
          "type": "address"
        },
        {
          "internalType": "address",
          "name": "to",
          "type": "address"
        },
        {
          "internalType": "uint256",
          "name": "tokenId",
          "type": "uint256"
        }
      ],
      "name": "safeTransferFrom",
      "outputs": [],
      "stateMutability": "nonpayable",
      "type": "function"
    },
    {
      "inputs": [
        {
          "internalType": "address",
          "name": "from",
          "type": "address"
        },
        {
          "internalType": "address",
          "name": "to",
          "type": "address"
        },
        {
          "internalType": "uint256",
          "name": "tokenId",
          "type": "uint256"
        },
        {
          "internalType": "bytes",
          "name": "_data",
          "type": "bytes"
        }
      ],
      "name": "safeTransferFrom",
      "outputs": [],
      "stateMutability": "nonpayable",
      "type": "function"
    },
    {
      "inputs": [
        {
          "internalType": "address",
          "name": "operator",
          "type": "address"
        },
        {
          "internalType": "bool",
          "name": "approved",
          "type": "bool"
        }
      ],
      "name": "setApprovalForAll",
      "outputs": [],
      "stateMutability": "nonpayable",
      "type": "function"
    },
    {
      "inputs": [],
      "name": "symbol",
      "outputs": [
        {
          "internalType": "string",
          "name": "",
          "type": "string"
        }
      ],
      "stateMutability": "view",
      "type": "function",
      "constant": true
    },
    {
      "inputs": [
        {
          "internalType": "uint256",
          "name": "index",
          "type": "uint256"
        }
      ],
      "name": "tokenByIndex",
      "outputs": [
        {
          "internalType": "uint256",
          "name": "",
          "type": "uint256"
        }
      ],
      "stateMutability": "view",
      "type": "function",
      "constant": true
    },
    {
      "inputs": [
        {
          "internalType": "address",
          "name": "owner",
          "type": "address"
        },
        {
          "internalType": "uint256",
          "name": "index",
          "type": "uint256"
        }
      ],
      "name": "tokenOfOwnerByIndex",
      "outputs": [
        {
          "internalType": "uint256",
          "name": "",
          "type": "uint256"
        }
      ],
      "stateMutability": "view",
      "type": "function",
      "constant": true
    },
    {
      "inputs": [
        {
          "internalType": "uint256",
          "name": "tokenId",
          "type": "uint256"
        }
      ],
      "name": "tokenURI",
      "outputs": [
        {
          "internalType": "string",
          "name": "",
          "type": "string"
        }
      ],
      "stateMutability": "view",
      "type": "function",
      "constant": true
    },
    {
      "inputs": [],
      "name": "totalSupply",
      "outputs": [
        {
          "internalType": "uint256",
          "name": "",
          "type": "uint256"
        }
      ],
      "stateMutability": "view",
      "type": "function",
      "constant": true
    },
    {
      "inputs": [
        {
          "internalType": "address",
          "name": "from",
          "type": "address"
        },
        {
          "internalType": "address",
          "name": "to",
          "type": "address"
        },
        {
          "internalType": "uint256",
          "name": "tokenId",
          "type": "uint256"
        }
      ],
      "name": "transferFrom",
      "outputs": [],
      "stateMutability": "nonpayable",
      "type": "function"
    },
    {
      "inputs": [
        {
          "internalType": "address",
          "name": "newOwner",
          "type": "address"
        }
      ],
      "name": "transferOwnership",
      "outputs": [],
      "stateMutability": "nonpayable",
      "type": "function"
    },
    {
      "inputs": [
        {
          "internalType": "address",
          "name": "",
          "type": "address"
        }
      ],
      "name": "whitelist",
      "outputs": [
        {
          "internalType": "bool",
          "name": "",
          "type": "bool"
        }
      ],
      "stateMutability": "view",
      "type": "function",
      "constant": true
    },
    {
      "inputs": [],
      "name": "pause",
      "outputs": [],
      "stateMutability": "nonpayable",
      "type": "function"
    },
    {
      "inputs": [],
      "name": "unpause",
      "outputs": [],
      "stateMutability": "nonpayable",
      "type": "function"
    },
    {
      "inputs": [
        {
          "internalType": "string",
          "name": "baseURI",
          "type": "string"
        }
      ],
      "name": "setBaseURI",
      "outputs": [],
      "stateMutability": "nonpayable",
      "type": "function"
    },
    {
      "inputs": [
        {
          "internalType": "bytes4",
          "name": "interfaceId",
          "type": "bytes4"
        }
      ],
      "name": "supportsInterface",
      "outputs": [
        {
          "internalType": "bool",
          "name": "",
          "type": "bool"
        }
      ],
      "stateMutability": "view",
      "type": "function",
      "constant": true
    },
    {
      "inputs": [
        {
          "internalType": "uint256",
          "name": "botType",
          "type": "uint256"
        }
      ],
      "name": "mint",
      "outputs": [],
      "stateMutability": "payable",
      "type": "function",
      "payable": true
    },
    {
      "inputs": [
        {
          "internalType": "uint256",
          "name": "winningRobotIndex",
          "type": "uint256"
        },
        {
          "internalType": "uint256",
          "name": "losingRobotIndex",
          "type": "uint256"
        }
      ],
      "name": "updateRobotsRecords",
      "outputs": [],
      "stateMutability": "nonpayable",
      "type": "function"
    },
    {
      "inputs": [
        {
          "internalType": "uint256",
          "name": "robotIndex",
          "type": "uint256"
        },
        {
          "internalType": "string",
          "name": "value",
          "type": "string"
        }
      ],
      "name": "updateRobotName",
      "outputs": [],
      "stateMutability": "nonpayable",
      "type": "function"
    },
    {
      "inputs": [
        {
          "internalType": "uint256",
          "name": "robotIndex",
          "type": "uint256"
        },
        {
          "internalType": "uint256",
          "name": "value",
          "type": "uint256"
        }
      ],
      "name": "updateRobotHealth",
      "outputs": [],
      "stateMutability": "nonpayable",
      "type": "function"
    },
    {
      "inputs": [
        {
          "internalType": "uint256",
          "name": "robotIndex",
          "type": "uint256"
        },
        {
          "internalType": "uint256",
          "name": "value",
          "type": "uint256"
        }
      ],
      "name": "updateRobotStrength",
      "outputs": [],
      "stateMutability": "nonpayable",
      "type": "function"
    },
    {
      "inputs": [
        {
          "internalType": "uint256",
          "name": "robotIndex",
          "type": "uint256"
        },
        {
          "internalType": "uint256",
          "name": "value",
          "type": "uint256"
        }
      ],
      "name": "updateRobotAgility",
      "outputs": [],
      "stateMutability": "nonpayable",
      "type": "function"
    },
    {
      "inputs": [
        {
          "internalType": "uint256",
          "name": "robotIndex",
          "type": "uint256"
        },
        {
          "internalType": "uint256",
          "name": "value",
          "type": "uint256"
        }
      ],
      "name": "updateRobotAi",
      "outputs": [],
      "stateMutability": "nonpayable",
      "type": "function"
    },
    {
      "inputs": [
        {
          "internalType": "uint256",
          "name": "robotIndex",
          "type": "uint256"
        },
        {
          "internalType": "uint256",
          "name": "value",
          "type": "uint256"
        }
      ],
      "name": "updateRobotDefense",
      "outputs": [],
      "stateMutability": "nonpayable",
      "type": "function"
    },
    {
      "inputs": [
        {
          "internalType": "uint256",
          "name": "robotIndex",
          "type": "uint256"
        }
      ],
      "name": "setRobotAsFighter",
      "outputs": [],
      "stateMutability": "nonpayable",
      "type": "function"
    },
    {
      "inputs": [
        {
          "internalType": "uint256",
          "name": "robotIndex",
          "type": "uint256"
        }
      ],
      "name": "setRobotAsTrainer",
      "outputs": [],
      "stateMutability": "nonpayable",
      "type": "function"
    },
    {
      "inputs": [
        {
          "internalType": "uint256",
          "name": "robotIndex",
          "type": "uint256"
        }
      ],
      "name": "setRobotAsRetired",
      "outputs": [],
      "stateMutability": "nonpayable",
      "type": "function"
    },
    {
      "inputs": [
        {
          "internalType": "uint256",
          "name": "robotIndex",
          "type": "uint256"
        }
      ],
      "name": "getRobotRecord",
      "outputs": [
        {
          "internalType": "uint256",
          "name": "",
          "type": "uint256"
        },
        {
          "internalType": "uint256",
          "name": "",
          "type": "uint256"
        }
      ],
      "stateMutability": "view",
      "type": "function",
      "constant": true
    },
    {
      "inputs": [
        {
          "internalType": "uint256",
          "name": "robotIndex",
          "type": "uint256"
        }
      ],
      "name": "getRobotState",
      "outputs": [
        {
          "internalType": "enum Robot.State",
          "name": "",
          "type": "uint8"
        }
      ],
      "stateMutability": "view",
      "type": "function",
      "constant": true
    },
    {
      "inputs": [
        {
          "internalType": "address",
          "name": "_owner",
          "type": "address"
        }
      ],
      "name": "walletOfOwner",
      "outputs": [
        {
          "internalType": "uint256[]",
          "name": "",
          "type": "uint256[]"
        }
      ],
      "stateMutability": "view",
      "type": "function",
      "constant": true
    },
    {
      "inputs": [],
      "name": "withdrawAll",
      "outputs": [],
      "stateMutability": "payable",
      "type": "function",
      "payable": true
    }
  ],
  "bytecode": "0x608060405267011c37937e080000600c5560405180608001604052806040518060400160405280600681526020017f526f626f7431000000000000000000000000000000000000000000000000000081525081526020016040518060400160405280600681526020017f526f626f7432000000000000000000000000000000000000000000000000000081525081526020016040518060400160405280600681526020017f526f626f7433000000000000000000000000000000000000000000000000000081525081526020016040518060400160405280600681526020017f526f626f74340000000000000000000000000000000000000000000000000000815250815250600f906004620001179291906200063b565b5060405180608001604052806040518060400160405280600481526020017f54616e6b0000000000000000000000000000000000000000000000000000000081525081526020016040518060400160405280600681526020017f537065656479000000000000000000000000000000000000000000000000000081525081526020016040518060400160405280600881526020017f446566656e64657200000000000000000000000000000000000000000000000081525081526020016040518060400160405280600781526020017f526574697265640000000000000000000000000000000000000000000000000081525081525060109060046200021f9291906200063b565b506040518060800160405280601460ff168152602001600a60ff168152602001600a60ff168152602001601460ff16815250601190600462000263929190620006a2565b506040518060800160405280600a60ff168152602001601460ff168152602001600a60ff168152602001601460ff168152506012906004620002a7929190620006a2565b506040518060800160405280600a60ff168152602001601460ff168152602001601460ff168152602001600a60ff168152506013906004620002eb929190620006a2565b506040518060800160405280601460ff168152602001600a60ff168152602001601460ff168152602001600a60ff1681525060149060046200032f929190620006a2565b503480156200033d57600080fd5b506040516200685b3803806200685b8339818101604052810190620003639190620008a0565b6040518060400160405280600581526020017f526f626f740000000000000000000000000000000000000000000000000000008152506040518060400160405280600381526020017f52425400000000000000000000000000000000000000000000000000000000008152508160009080519060200190620003e7929190620006f9565b50806001908051906020019062000400929190620006f9565b5050506000600a60006101000a81548160ff0219169083151502179055506200043e620004326200049860201b60201c565b620004a060201b60201c565b6200044f826200056660201b60201c565b80600e60006101000a81548173ffffffffffffffffffffffffffffffffffffffff021916908373ffffffffffffffffffffffffffffffffffffffff160217905550505062000b3b565b600033905090565b6000600a60019054906101000a900473ffffffffffffffffffffffffffffffffffffffff16905081600a60016101000a81548173ffffffffffffffffffffffffffffffffffffffff021916908373ffffffffffffffffffffffffffffffffffffffff1602179055508173ffffffffffffffffffffffffffffffffffffffff168173ffffffffffffffffffffffffffffffffffffffff167f8be0079c531659141344cd1fd0a4f28419497f9722a3daafe3b4186f6b6457e060405160405180910390a35050565b620005766200049860201b60201c565b73ffffffffffffffffffffffffffffffffffffffff166200059c6200061160201b60201c565b73ffffffffffffffffffffffffffffffffffffffff1614620005f5576040517f08c379a0000000000000000000000000000000000000000000000000000000008152600401620005ec9062000921565b60405180910390fd5b80600d90805190602001906200060d929190620006f9565b5050565b6000600a60019054906101000a900473ffffffffffffffffffffffffffffffffffffffff16905090565b8280548282559060005260206000209081019282156200068f579160200282015b828111156200068e5782518290805190602001906200067d929190620006f9565b50916020019190600101906200065c565b5b5090506200069e91906200078a565b5090565b828054828255906000526020600020908101928215620006e6579160200282015b82811115620006e5578251829060ff16905591602001919060010190620006c3565b5b509050620006f59190620007b2565b5090565b828054620007079062000a1d565b90600052602060002090601f0160209004810192826200072b576000855562000777565b82601f106200074657805160ff191683800117855562000777565b8280016001018555821562000777579182015b828111156200077657825182559160200191906001019062000759565b5b509050620007869190620007b2565b5090565b5b80821115620007ae5760008181620007a49190620007d1565b506001016200078b565b5090565b5b80821115620007cd576000816000905550600101620007b3565b5090565b508054620007df9062000a1d565b6000825580601f10620007f3575062000814565b601f016020900490600052602060002090810190620008139190620007b2565b5b50565b60006200082e62000828846200096c565b62000943565b9050828152602081018484840111156200084757600080fd5b62000854848285620009e7565b509392505050565b6000815190506200086d8162000b21565b92915050565b600082601f8301126200088557600080fd5b81516200089784826020860162000817565b91505092915050565b60008060408385031215620008b457600080fd5b600083015167ffffffffffffffff811115620008cf57600080fd5b620008dd8582860162000873565b9250506020620008f0858286016200085c565b9150509250929050565b600062000909602083620009a2565b9150620009168262000af8565b602082019050919050565b600060208201905081810360008301526200093c81620008fa565b9050919050565b60006200094f62000962565b90506200095d828262000a53565b919050565b6000604051905090565b600067ffffffffffffffff8211156200098a576200098962000ab8565b5b620009958262000ae7565b9050602081019050919050565b600082825260208201905092915050565b6000620009c082620009c7565b9050919050565b600073ffffffffffffffffffffffffffffffffffffffff82169050919050565b60005b8381101562000a07578082015181840152602081019050620009ea565b8381111562000a17576000848401525b50505050565b6000600282049050600182168062000a3657607f821691505b6020821081141562000a4d5762000a4c62000a89565b5b50919050565b62000a5e8262000ae7565b810181811067ffffffffffffffff8211171562000a805762000a7f62000ab8565b5b80604052505050565b7f4e487b7100000000000000000000000000000000000000000000000000000000600052602260045260246000fd5b7f4e487b7100000000000000000000000000000000000000000000000000000000600052604160045260246000fd5b6000601f19601f8301169050919050565b7f4f776e61626c653a2063616c6c6572206973206e6f7420746865206f776e6572600082015250565b62000b2c81620009b3565b811462000b3857600080fd5b50565b615d108062000b4b6000396000f3fe6080604052600436106102675760003560e01c8063715018a611610144578063aaea4fff116100b6578063c87b56dd1161007a578063c87b56dd1461094e578063db43c5071461098b578063e10d74fe146109b4578063e2ec6ec3146109dd578063e985e9c514610a1a578063f2fde38b14610a5757610267565b8063aaea4fff14610881578063abdb9bec146108aa578063b01d49d1146108d3578063b7a293ec146108fc578063b88d4fde1461092557610267565b806395d89b411161010857806395d89b411461074f5780639b19251a1461077a578063a03937c5146107b7578063a0712d68146107ff578063a22cb4651461081b578063a899cbbb1461084457610267565b8063715018a6146106af5780637b9417c8146106c65780638456cb5914610703578063853828b61461071a5780638da5cb5b1461072457610267565b806342842e0e116101dd57806357a6f5cf116101a157806357a6f5cf1461058f5780635a44890a146105b85780635c975abb146105e15780636352211e1461060c5780636f027ef11461064957806370a082311461067257610267565b806342842e0e1461049a578063438b6300146104c35780634f6ccce714610500578063508a99a11461053d57806355f804b31461056657610267565b806318160ddd1161022f57806318160ddd1461037857806323b872dd146103a357806324953eaa146103cc578063286dd3f5146104095780632f745c59146104465780633f4ba83a1461048357610267565b806301ffc9a71461026c57806306fdde03146102a9578063081812fc146102d4578063095ea7b3146103115780630e9c54a11461033a575b600080fd5b34801561027857600080fd5b50610293600480360381019061028e9190614782565b610a80565b6040516102a09190614de1565b60405180910390f35b3480156102b557600080fd5b506102be610a92565b6040516102cb9190614e17565b60405180910390f35b3480156102e057600080fd5b506102fb60048036038101906102f69190614815565b610b24565b6040516103089190614d58565b60405180910390f35b34801561031d57600080fd5b5061033860048036038101906103339190614705565b610ba9565b005b34801561034657600080fd5b50610361600480360381019061035c9190614815565b610cc1565b60405161036f9291906151e3565b60405180910390f35b34801561038457600080fd5b5061038d610cfb565b60405161039a91906150f9565b60405180910390f35b3480156103af57600080fd5b506103ca60048036038101906103c591906145ff565b610d08565b005b3480156103d857600080fd5b506103f360048036038101906103ee9190614741565b610d68565b6040516104009190614de1565b60405180910390f35b34801561041557600080fd5b50610430600480360381019061042b919061459a565b610e5e565b60405161043d9190614de1565b60405180910390f35b34801561045257600080fd5b5061046d60048036038101906104689190614705565b610fc7565b60405161047a91906150f9565b60405180910390f35b34801561048f57600080fd5b5061049861106c565b005b3480156104a657600080fd5b506104c160048036038101906104bc91906145ff565b6110f2565b005b3480156104cf57600080fd5b506104ea60048036038101906104e5919061459a565b611112565b6040516104f79190614dbf565b60405180910390f35b34801561050c57600080fd5b5061052760048036038101906105229190614815565b61128e565b60405161053491906150f9565b60405180910390f35b34801561054957600080fd5b50610564600480360381019061055f9190614892565b611325565b005b34801561057257600080fd5b5061058d600480360381019061058891906147d4565b6113e2565b005b34801561059b57600080fd5b506105b660048036038101906105b19190614815565b611478565b005b3480156105c457600080fd5b506105df60048036038101906105da9190614892565b6115a4565b005b3480156105ed57600080fd5b506105f6611661565b6040516106039190614de1565b60405180910390f35b34801561061857600080fd5b50610633600480360381019061062e9190614815565b611678565b6040516106409190614d58565b60405180910390f35b34801561065557600080fd5b50610670600480360381019061066b9190614892565b61172a565b005b34801561067e57600080fd5b506106996004803603810190610694919061459a565b611828565b6040516106a691906150f9565b60405180910390f35b3480156106bb57600080fd5b506106c46118e0565b005b3480156106d257600080fd5b506106ed60048036038101906106e8919061459a565b611968565b6040516106fa9190614de1565b60405180910390f35b34801561070f57600080fd5b50610718611ad0565b005b610722611b56565b005b34801561073057600080fd5b50610739611c34565b6040516107469190614d58565b60405180910390f35b34801561075b57600080fd5b50610764611c5e565b6040516107719190614e17565b60405180910390f35b34801561078657600080fd5b506107a1600480360381019061079c919061459a565b611cf0565b6040516107ae9190614de1565b60405180910390f35b3480156107c357600080fd5b506107de60048036038101906107d99190614815565b611d10565b6040516107f69c9b9a99989796959493929190615114565b60405180910390f35b61081960048036038101906108149190614815565b611f15565b005b34801561082757600080fd5b50610842600480360381019061083d91906146c9565b61205f565b005b34801561085057600080fd5b5061086b60048036038101906108669190614815565b6121e0565b6040516108789190614dfc565b60405180910390f35b34801561088d57600080fd5b506108a860048036038101906108a39190614892565b61220d565b005b3480156108b657600080fd5b506108d160048036038101906108cc9190614815565b6122ca565b005b3480156108df57600080fd5b506108fa60048036038101906108f59190614892565b6123f6565b005b34801561090857600080fd5b50610923600480360381019061091e9190614892565b6124b3565b005b34801561093157600080fd5b5061094c6004803603810190610947919061464e565b612570565b005b34801561095a57600080fd5b5061097560048036038101906109709190614815565b6125d2565b6040516109829190614e17565b60405180910390f35b34801561099757600080fd5b506109b260048036038101906109ad9190614815565b612679565b005b3480156109c057600080fd5b506109db60048036038101906109d6919061483e565b6127a5565b005b3480156109e957600080fd5b50610a0460048036038101906109ff9190614741565b612872565b604051610a119190614de1565b60405180910390f35b348015610a2657600080fd5b50610a416004803603810190610a3c91906145c3565b612968565b604051610a4e9190614de1565b60405180910390f35b348015610a6357600080fd5b50610a7e6004803603810190610a79919061459a565b6129fc565b005b6000610a8b82612af4565b9050919050565b606060008054610aa1906154d1565b80601f0160208091040260200160405190810160405280929190818152602001828054610acd906154d1565b8015610b1a5780601f10610aef57610100808354040283529160200191610b1a565b820191906000526020600020905b815481529060010190602001808311610afd57829003601f168201915b5050505050905090565b6000610b2f82612b6e565b610b6e576040517f08c379a0000000000000000000000000000000000000000000000000000000008152600401610b6590615019565b60405180910390fd5b6004600083815260200190815260200160002060009054906101000a900473ffffffffffffffffffffffffffffffffffffffff169050919050565b6000610bb482611678565b90508073ffffffffffffffffffffffffffffffffffffffff168373ffffffffffffffffffffffffffffffffffffffff161415610c25576040517f08c379a0000000000000000000000000000000000000000000000000000000008152600401610c1c90615099565b60405180910390fd5b8073ffffffffffffffffffffffffffffffffffffffff16610c44612bda565b73ffffffffffffffffffffffffffffffffffffffff161480610c735750610c7281610c6d612bda565b612968565b5b610cb2576040517f08c379a0000000000000000000000000000000000000000000000000000000008152600401610ca990614f79565b60405180910390fd5b610cbc8383612be2565b505050565b6000806015600084815260200190815260200160002060020154601560008581526020019081526020016000206003015491509150915091565b6000600880549050905090565b610d19610d13612bda565b82612c9b565b610d58576040517f08c379a0000000000000000000000000000000000000000000000000000000008152600401610d4f906150b9565b60405180910390fd5b610d63838383612d79565b505050565b6000610d72612bda565b73ffffffffffffffffffffffffffffffffffffffff16610d90611c34565b73ffffffffffffffffffffffffffffffffffffffff1614610de6576040517f08c379a0000000000000000000000000000000000000000000000000000000008152600401610ddd90615039565b60405180910390fd5b60005b8251811015610e5857610e3b838281518110610e2e577f4e487b7100000000000000000000000000000000000000000000000000000000600052603260045260246000fd5b6020026020010151610e5e565b15610e4557600191505b8080610e5090615534565b915050610de9565b50919050565b6000610e68612bda565b73ffffffffffffffffffffffffffffffffffffffff16610e86611c34565b73ffffffffffffffffffffffffffffffffffffffff1614610edc576040517f08c379a0000000000000000000000000000000000000000000000000000000008152600401610ed390615039565b60405180910390fd5b600b60008373ffffffffffffffffffffffffffffffffffffffff1673ffffffffffffffffffffffffffffffffffffffff16815260200190815260200160002060009054906101000a900460ff1615610fc2576000600b60008473ffffffffffffffffffffffffffffffffffffffff1673ffffffffffffffffffffffffffffffffffffffff16815260200190815260200160002060006101000a81548160ff0219169083151502179055507ff1abf01a1043b7c244d128e8595cf0c1d10743b022b03a02dffd8ca3bf729f5a82604051610fb59190614d58565b60405180910390a1600190505b919050565b6000610fd283611828565b8210611013576040517f08c379a000000000000000000000000000000000000000000000000000000000815260040161100a90614e79565b60405180910390fd5b600660008473ffffffffffffffffffffffffffffffffffffffff1673ffffffffffffffffffffffffffffffffffffffff168152602001908152602001600020600083815260200190815260200160002054905092915050565b611074612bda565b73ffffffffffffffffffffffffffffffffffffffff16611092611c34565b73ffffffffffffffffffffffffffffffffffffffff16146110e8576040517f08c379a00000000000000000000000000000000000000000000000000000000081526004016110df90615039565b60405180910390fd5b6110f0612fd5565b565b61110d83838360405180602001604052806000815250612570565b505050565b6060600061111f83611828565b905060008114156111a257600067ffffffffffffffff81111561116b577f4e487b7100000000000000000000000000000000000000000000000000000000600052604160045260246000fd5b6040519080825280602002602001820160405280156111995781602001602082028036833780820191505090505b50915050611289565b60008167ffffffffffffffff8111156111e4577f4e487b7100000000000000000000000000000000000000000000000000000000600052604160045260246000fd5b6040519080825280602002602001820160405280156112125781602001602082028036833780820191505090505b50905060005b828110156112825761122a8582610fc7565b828281518110611263577f4e487b7100000000000000000000000000000000000000000000000000000000600052603260045260246000fd5b602002602001018181525050808061127a90615534565b915050611218565b5080925050505b919050565b6000611298610cfb565b82106112d9576040517f08c379a00000000000000000000000000000000000000000000000000000000081526004016112d0906150d9565b60405180910390fd5b60088281548110611313577f4e487b7100000000000000000000000000000000000000000000000000000000600052603260045260246000fd5b90600052602060002001549050919050565b61132d611661565b1561136d576040517f08c379a000000000000000000000000000000000000000000000000000000000815260040161136490614f59565b60405180910390fd5b600b60003373ffffffffffffffffffffffffffffffffffffffff1673ffffffffffffffffffffffffffffffffffffffff16815260200190815260200160002060009054906101000a900460ff166113c357600080fd5b8060156000848152602001908152602001600020600b01819055505050565b6113ea612bda565b73ffffffffffffffffffffffffffffffffffffffff16611408611c34565b73ffffffffffffffffffffffffffffffffffffffff161461145e576040517f08c379a000000000000000000000000000000000000000000000000000000000815260040161145590615039565b60405180910390fd5b80600d9080519060200190611474929190614328565b5050565b611480611661565b156114c0576040517f08c379a00000000000000000000000000000000000000000000000000000000081526004016114b790614f59565b60405180910390fd5b6114c8612bda565b73ffffffffffffffffffffffffffffffffffffffff166114e6611c34565b73ffffffffffffffffffffffffffffffffffffffff161461153c576040517f08c379a000000000000000000000000000000000000000000000000000000000815260040161153390615039565b60405180910390fd5b60006015600083815260200190815260200160002060040160006101000a81548160ff0219169083600281111561159c577f4e487b7100000000000000000000000000000000000000000000000000000000600052602160045260246000fd5b021790555050565b6115ac611661565b156115ec576040517f08c379a00000000000000000000000000000000000000000000000000000000081526004016115e390614f59565b60405180910390fd5b600b60003373ffffffffffffffffffffffffffffffffffffffff1673ffffffffffffffffffffffffffffffffffffffff16815260200190815260200160002060009054906101000a900460ff1661164257600080fd5b8060156000848152602001908152602001600020600801819055505050565b6000600a60009054906101000a900460ff16905090565b6000806002600084815260200190815260200160002060009054906101000a900473ffffffffffffffffffffffffffffffffffffffff169050600073ffffffffffffffffffffffffffffffffffffffff168173ffffffffffffffffffffffffffffffffffffffff161415611721576040517f08c379a000000000000000000000000000000000000000000000000000000000815260040161171890614fb9565b60405180910390fd5b80915050919050565b611732611661565b15611772576040517f08c379a000000000000000000000000000000000000000000000000000000000815260040161176990614f59565b60405180910390fd5b600b60003373ffffffffffffffffffffffffffffffffffffffff1673ffffffffffffffffffffffffffffffffffffffff16815260200190815260200160002060009054906101000a900460ff166117c857600080fd5b60016015600084815260200190815260200160002060020160008282546117ef919061533b565b92505081905550600160156000838152602001908152602001600020600301600082825461181d919061533b565b925050819055505050565b60008073ffffffffffffffffffffffffffffffffffffffff168273ffffffffffffffffffffffffffffffffffffffff161415611899576040517f08c379a000000000000000000000000000000000000000000000000000000000815260040161189090614f99565b60405180910390fd5b600360008373ffffffffffffffffffffffffffffffffffffffff1673ffffffffffffffffffffffffffffffffffffffff168152602001908152602001600020549050919050565b6118e8612bda565b73ffffffffffffffffffffffffffffffffffffffff16611906611c34565b73ffffffffffffffffffffffffffffffffffffffff161461195c576040517f08c379a000000000000000000000000000000000000000000000000000000000815260040161195390615039565b60405180910390fd5b6119666000613077565b565b6000611972612bda565b73ffffffffffffffffffffffffffffffffffffffff16611990611c34565b73ffffffffffffffffffffffffffffffffffffffff16146119e6576040517f08c379a00000000000000000000000000000000000000000000000000000000081526004016119dd90615039565b60405180910390fd5b600b60008373ffffffffffffffffffffffffffffffffffffffff1673ffffffffffffffffffffffffffffffffffffffff16815260200190815260200160002060009054906101000a900460ff16611acb576001600b60008473ffffffffffffffffffffffffffffffffffffffff1673ffffffffffffffffffffffffffffffffffffffff16815260200190815260200160002060006101000a81548160ff0219169083151502179055507fd1bba68c128cc3f427e5831b3c6f99f480b6efa6b9e80c757768f6124158cc3f82604051611abe9190614d58565b60405180910390a1600190505b919050565b611ad8612bda565b73ffffffffffffffffffffffffffffffffffffffff16611af6611c34565b73ffffffffffffffffffffffffffffffffffffffff1614611b4c576040517f08c379a0000000000000000000000000000000000000000000000000000000008152600401611b4390615039565b60405180910390fd5b611b5461313d565b565b611b5e612bda565b73ffffffffffffffffffffffffffffffffffffffff16611b7c611c34565b73ffffffffffffffffffffffffffffffffffffffff1614611bd2576040517f08c379a0000000000000000000000000000000000000000000000000000000008152600401611bc990615039565b60405180910390fd5b600e60009054906101000a900473ffffffffffffffffffffffffffffffffffffffff1673ffffffffffffffffffffffffffffffffffffffff166108fc479081150290604051600060405180830381858888f19350505050611c3257600080fd5b565b6000600a60019054906101000a900473ffffffffffffffffffffffffffffffffffffffff16905090565b606060018054611c6d906154d1565b80601f0160208091040260200160405190810160405280929190818152602001828054611c99906154d1565b8015611ce65780601f10611cbb57610100808354040283529160200191611ce6565b820191906000526020600020905b815481529060010190602001808311611cc957829003601f168201915b5050505050905090565b600b6020528060005260406000206000915054906101000a900460ff1681565b6015602052806000526040600020600091509050806000015490806001018054611d39906154d1565b80601f0160208091040260200160405190810160405280929190818152602001828054611d65906154d1565b8015611db25780601f10611d8757610100808354040283529160200191611db2565b820191906000526020600020905b815481529060010190602001808311611d9557829003601f168201915b5050505050908060020154908060030154908060040160009054906101000a900460ff1690806005018054611de6906154d1565b80601f0160208091040260200160405190810160405280929190818152602001828054611e12906154d1565b8015611e5f5780601f10611e3457610100808354040283529160200191611e5f565b820191906000526020600020905b815481529060010190602001808311611e4257829003601f168201915b505050505090806006018054611e74906154d1565b80601f0160208091040260200160405190810160405280929190818152602001828054611ea0906154d1565b8015611eed5780601f10611ec257610100808354040283529160200191611eed565b820191906000526020600020905b815481529060010190602001808311611ed057829003601f168201915b50505050509080600701549080600801549080600901549080600a01549080600b015490508c565b611f1d611661565b15611f5d576040517f08c379a0000000000000000000000000000000000000000000000000000000008152600401611f5490614f59565b60405180910390fd5b60048110611fa0576040517f08c379a0000000000000000000000000000000000000000000000000000000008152600401611f9790614e59565b60405180910390fd5b600c5434101580611fea5750611fb4612bda565b73ffffffffffffffffffffffffffffffffffffffff16611fd2611c34565b73ffffffffffffffffffffffffffffffffffffffff16145b612029576040517f08c379a000000000000000000000000000000000000000000000000000000000815260040161202090614fd9565b60405180910390fd5b6000612033610cfb565b90506000600182612044919061533b565b905061205081846131e0565b61205a3382613667565b505050565b612067612bda565b73ffffffffffffffffffffffffffffffffffffffff168273ffffffffffffffffffffffffffffffffffffffff1614156120d5576040517f08c379a00000000000000000000000000000000000000000000000000000000081526004016120cc90614f19565b60405180910390fd5b80600560006120e2612bda565b73ffffffffffffffffffffffffffffffffffffffff1673ffffffffffffffffffffffffffffffffffffffff16815260200190815260200160002060008473ffffffffffffffffffffffffffffffffffffffff1673ffffffffffffffffffffffffffffffffffffffff16815260200190815260200160002060006101000a81548160ff0219169083151502179055508173ffffffffffffffffffffffffffffffffffffffff1661218f612bda565b73ffffffffffffffffffffffffffffffffffffffff167f17307eab39ab6107e8899845ad3d59bd9653f200f220920489ca2b5937696c31836040516121d49190614de1565b60405180910390a35050565b60006015600083815260200190815260200160002060040160009054906101000a900460ff169050919050565b612215611661565b15612255576040517f08c379a000000000000000000000000000000000000000000000000000000000815260040161224c90614f59565b60405180910390fd5b600b60003373ffffffffffffffffffffffffffffffffffffffff1673ffffffffffffffffffffffffffffffffffffffff16815260200190815260200160002060009054906101000a900460ff166122ab57600080fd5b8060156000848152602001908152602001600020600901819055505050565b6122d2611661565b15612312576040517f08c379a000000000000000000000000000000000000000000000000000000000815260040161230990614f59565b60405180910390fd5b61231a612bda565b73ffffffffffffffffffffffffffffffffffffffff16612338611c34565b73ffffffffffffffffffffffffffffffffffffffff161461238e576040517f08c379a000000000000000000000000000000000000000000000000000000000815260040161238590615039565b60405180910390fd5b60016015600083815260200190815260200160002060040160006101000a81548160ff021916908360028111156123ee577f4e487b7100000000000000000000000000000000000000000000000000000000600052602160045260246000fd5b021790555050565b6123fe611661565b1561243e576040517f08c379a000000000000000000000000000000000000000000000000000000000815260040161243590614f59565b60405180910390fd5b600b60003373ffffffffffffffffffffffffffffffffffffffff1673ffffffffffffffffffffffffffffffffffffffff16815260200190815260200160002060009054906101000a900460ff1661249457600080fd5b8060156000848152602001908152602001600020600a01819055505050565b6124bb611661565b156124fb576040517f08c379a00000000000000000000000000000000000000000000000000000000081526004016124f290614f59565b60405180910390fd5b600b60003373ffffffffffffffffffffffffffffffffffffffff1673ffffffffffffffffffffffffffffffffffffffff16815260200190815260200160002060009054906101000a900460ff1661255157600080fd5b8060156000848152602001908152602001600020600701819055505050565b61258161257b612bda565b83612c9b565b6125c0576040517f08c379a00000000000000000000000000000000000000000000000000000000081526004016125b7906150b9565b60405180910390fd5b6125cc84848484613685565b50505050565b60606125dd82612b6e565b61261c576040517f08c379a000000000000000000000000000000000000000000000000000000000815260040161261390615079565b60405180910390fd5b60006126266136e1565b905060008151116126465760405180602001604052806000815250612671565b8061265084613773565b604051602001612661929190614d34565b6040516020818303038152906040525b915050919050565b612681611661565b156126c1576040517f08c379a00000000000000000000000000000000000000000000000000000000081526004016126b890614f59565b60405180910390fd5b6126c9612bda565b73ffffffffffffffffffffffffffffffffffffffff166126e7611c34565b73ffffffffffffffffffffffffffffffffffffffff161461273d576040517f08c379a000000000000000000000000000000000000000000000000000000000815260040161273490615039565b60405180910390fd5b60026015600083815260200190815260200160002060040160006101000a81548160ff0219169083600281111561279d577f4e487b7100000000000000000000000000000000000000000000000000000000600052602160045260246000fd5b021790555050565b6127ad611661565b156127ed576040517f08c379a00000000000000000000000000000000000000000000000000000000081526004016127e490614f59565b60405180910390fd5b600b60003373ffffffffffffffffffffffffffffffffffffffff1673ffffffffffffffffffffffffffffffffffffffff16815260200190815260200160002060009054906101000a900460ff1661284357600080fd5b8060156000848152602001908152602001600020600501908051906020019061286d929190614328565b505050565b600061287c612bda565b73ffffffffffffffffffffffffffffffffffffffff1661289a611c34565b73ffffffffffffffffffffffffffffffffffffffff16146128f0576040517f08c379a00000000000000000000000000000000000000000000000000000000081526004016128e790615039565b60405180910390fd5b60005b825181101561296257612945838281518110612938577f4e487b7100000000000000000000000000000000000000000000000000000000600052603260045260246000fd5b6020026020010151611968565b1561294f57600191505b808061295a90615534565b9150506128f3565b50919050565b6000600560008473ffffffffffffffffffffffffffffffffffffffff1673ffffffffffffffffffffffffffffffffffffffff16815260200190815260200160002060008373ffffffffffffffffffffffffffffffffffffffff1673ffffffffffffffffffffffffffffffffffffffff16815260200190815260200160002060009054906101000a900460ff16905092915050565b612a04612bda565b73ffffffffffffffffffffffffffffffffffffffff16612a22611c34565b73ffffffffffffffffffffffffffffffffffffffff1614612a78576040517f08c379a0000000000000000000000000000000000000000000000000000000008152600401612a6f90615039565b60405180910390fd5b600073ffffffffffffffffffffffffffffffffffffffff168173ffffffffffffffffffffffffffffffffffffffff161415612ae8576040517f08c379a0000000000000000000000000000000000000000000000000000000008152600401612adf90614eb9565b60405180910390fd5b612af181613077565b50565b60007f780e9d63000000000000000000000000000000000000000000000000000000007bffffffffffffffffffffffffffffffffffffffffffffffffffffffff1916827bffffffffffffffffffffffffffffffffffffffffffffffffffffffff19161480612b675750612b6682613920565b5b9050919050565b60008073ffffffffffffffffffffffffffffffffffffffff166002600084815260200190815260200160002060009054906101000a900473ffffffffffffffffffffffffffffffffffffffff1673ffffffffffffffffffffffffffffffffffffffff1614159050919050565b600033905090565b816004600083815260200190815260200160002060006101000a81548173ffffffffffffffffffffffffffffffffffffffff021916908373ffffffffffffffffffffffffffffffffffffffff160217905550808273ffffffffffffffffffffffffffffffffffffffff16612c5583611678565b73ffffffffffffffffffffffffffffffffffffffff167f8c5be1e5ebec7d5bd14f71427d1e84f3dd0314c0f7b2291e5b200ac8c7c3b92560405160405180910390a45050565b6000612ca682612b6e565b612ce5576040517f08c379a0000000000000000000000000000000000000000000000000000000008152600401612cdc90614f39565b60405180910390fd5b6000612cf083611678565b90508073ffffffffffffffffffffffffffffffffffffffff168473ffffffffffffffffffffffffffffffffffffffff161480612d5f57508373ffffffffffffffffffffffffffffffffffffffff16612d4784610b24565b73ffffffffffffffffffffffffffffffffffffffff16145b80612d705750612d6f8185612968565b5b91505092915050565b8273ffffffffffffffffffffffffffffffffffffffff16612d9982611678565b73ffffffffffffffffffffffffffffffffffffffff1614612def576040517f08c379a0000000000000000000000000000000000000000000000000000000008152600401612de690615059565b60405180910390fd5b600073ffffffffffffffffffffffffffffffffffffffff168273ffffffffffffffffffffffffffffffffffffffff161415612e5f576040517f08c379a0000000000000000000000000000000000000000000000000000000008152600401612e5690614ef9565b60405180910390fd5b612e6a838383613a02565b612e75600082612be2565b6001600360008573ffffffffffffffffffffffffffffffffffffffff1673ffffffffffffffffffffffffffffffffffffffff1681526020019081526020016000206000828254612ec591906153c2565b925050819055506001600360008473ffffffffffffffffffffffffffffffffffffffff1673ffffffffffffffffffffffffffffffffffffffff1681526020019081526020016000206000828254612f1c919061533b565b92505081905550816002600083815260200190815260200160002060006101000a81548173ffffffffffffffffffffffffffffffffffffffff021916908373ffffffffffffffffffffffffffffffffffffffff160217905550808273ffffffffffffffffffffffffffffffffffffffff168473ffffffffffffffffffffffffffffffffffffffff167fddf252ad1be2c89b69c2b068fc378daa952ba7f163c4a11628f55a4df523b3ef60405160405180910390a4505050565b612fdd611661565b61301c576040517f08c379a000000000000000000000000000000000000000000000000000000000815260040161301390614e39565b60405180910390fd5b6000600a60006101000a81548160ff0219169083151502179055507f5db9ee0a495bf2e6ff9c91a7834c1ba4fdd244a5e8aa4e537bd38aeae4b073aa613060612bda565b60405161306d9190614d58565b60405180910390a1565b6000600a60019054906101000a900473ffffffffffffffffffffffffffffffffffffffff16905081600a60016101000a81548173ffffffffffffffffffffffffffffffffffffffff021916908373ffffffffffffffffffffffffffffffffffffffff1602179055508173ffffffffffffffffffffffffffffffffffffffff168173ffffffffffffffffffffffffffffffffffffffff167f8be0079c531659141344cd1fd0a4f28419497f9722a3daafe3b4186f6b6457e060405160405180910390a35050565b613145611661565b15613185576040517f08c379a000000000000000000000000000000000000000000000000000000000815260040161317c90614f59565b60405180910390fd5b6001600a60006101000a81548160ff0219169083151502179055507f62e78cea01bee320cd4e420270b5ea74000d11b0c9f74754ebdbfc544b05a2586131c9612bda565b6040516131d69190614d58565b60405180910390a1565b6040518061018001604052808381526020016040518060400160405280600181526020017f20000000000000000000000000000000000000000000000000000000000000008152508152602001600081526020016000815260200160006002811115613275577f4e487b7100000000000000000000000000000000000000000000000000000000600052602160045260246000fd5b8152602001600f83815481106132b4577f4e487b7100000000000000000000000000000000000000000000000000000000600052603260045260246000fd5b9060005260206000200180546132c9906154d1565b80601f01602080910402602001604051908101604052809291908181526020018280546132f5906154d1565b80156133425780601f1061331757610100808354040283529160200191613342565b820191906000526020600020905b81548152906001019060200180831161332557829003601f168201915b5050505050815260200160108381548110613386577f4e487b7100000000000000000000000000000000000000000000000000000000600052603260045260246000fd5b90600052602060002001805461339b906154d1565b80601f01602080910402602001604051908101604052809291908181526020018280546133c7906154d1565b80156134145780601f106133e957610100808354040283529160200191613414565b820191906000526020600020905b8154815290600101906020018083116133f757829003601f168201915b505050505081526020016103e8815260200160118381548110613460577f4e487b7100000000000000000000000000000000000000000000000000000000600052603260045260246000fd5b90600052602060002001548152602001601283815481106134aa577f4e487b7100000000000000000000000000000000000000000000000000000000600052603260045260246000fd5b90600052602060002001548152602001601383815481106134f4577f4e487b7100000000000000000000000000000000000000000000000000000000600052603260045260246000fd5b906000526020600020015481526020016014838154811061353e577f4e487b7100000000000000000000000000000000000000000000000000000000600052603260045260246000fd5b906000526020600020015481525060156000848152602001908152602001600020600082015181600001556020820151816001019080519060200190613585929190614328565b50604082015181600201556060820151816003015560808201518160040160006101000a81548160ff021916908360028111156135eb577f4e487b7100000000000000000000000000000000000000000000000000000000600052602160045260246000fd5b021790555060a082015181600501908051906020019061360c929190614328565b5060c0820151816006019080519060200190613629929190614328565b5060e082015181600701556101008201518160080155610120820151816009015561014082015181600a015561016082015181600b01559050505050565b613681828260405180602001604052806000815250613a5a565b5050565b613690848484612d79565b61369c84848484613ab5565b6136db576040517f08c379a00000000000000000000000000000000000000000000000000000000081526004016136d290614e99565b60405180910390fd5b50505050565b6060600d80546136f0906154d1565b80601f016020809104026020016040519081016040528092919081815260200182805461371c906154d1565b80156137695780601f1061373e57610100808354040283529160200191613769565b820191906000526020600020905b81548152906001019060200180831161374c57829003601f168201915b5050505050905090565b606060008214156137bb576040518060400160405280600181526020017f3000000000000000000000000000000000000000000000000000000000000000815250905061391b565b600082905060005b600082146137ed5780806137d690615534565b915050600a826137e69190615391565b91506137c3565b60008167ffffffffffffffff81111561382f577f4e487b7100000000000000000000000000000000000000000000000000000000600052604160045260246000fd5b6040519080825280601f01601f1916602001820160405280156138615781602001600182028036833780820191505090505b5090505b600085146139145760018261387a91906153c2565b9150600a85613889919061557d565b6030613895919061533b565b60f81b8183815181106138d1577f4e487b7100000000000000000000000000000000000000000000000000000000600052603260045260246000fd5b60200101907effffffffffffffffffffffffffffffffffffffffffffffffffffffffffffff1916908160001a905350600a8561390d9190615391565b9450613865565b8093505050505b919050565b60007f80ac58cd000000000000000000000000000000000000000000000000000000007bffffffffffffffffffffffffffffffffffffffffffffffffffffffff1916827bffffffffffffffffffffffffffffffffffffffffffffffffffffffff191614806139eb57507f5b5e139f000000000000000000000000000000000000000000000000000000007bffffffffffffffffffffffffffffffffffffffffffffffffffffffff1916827bffffffffffffffffffffffffffffffffffffffffffffffffffffffff1916145b806139fb57506139fa82613c4c565b5b9050919050565b613a0a611661565b15613a4a576040517f08c379a0000000000000000000000000000000000000000000000000000000008152600401613a4190614f59565b60405180910390fd5b613a55838383613cb6565b505050565b613a648383613dca565b613a716000848484613ab5565b613ab0576040517f08c379a0000000000000000000000000000000000000000000000000000000008152600401613aa790614e99565b60405180910390fd5b505050565b6000613ad68473ffffffffffffffffffffffffffffffffffffffff16613f98565b15613c3f578373ffffffffffffffffffffffffffffffffffffffff1663150b7a02613aff612bda565b8786866040518563ffffffff1660e01b8152600401613b219493929190614d73565b602060405180830381600087803b158015613b3b57600080fd5b505af1925050508015613b6c57506040513d601f19601f82011682018060405250810190613b6991906147ab565b60015b613bef573d8060008114613b9c576040519150601f19603f3d011682016040523d82523d6000602084013e613ba1565b606091505b50600081511415613be7576040517f08c379a0000000000000000000000000000000000000000000000000000000008152600401613bde90614e99565b60405180910390fd5b805181602001fd5b63150b7a0260e01b7bffffffffffffffffffffffffffffffffffffffffffffffffffffffff1916817bffffffffffffffffffffffffffffffffffffffffffffffffffffffff191614915050613c44565b600190505b949350505050565b60007f01ffc9a7000000000000000000000000000000000000000000000000000000007bffffffffffffffffffffffffffffffffffffffffffffffffffffffff1916827bffffffffffffffffffffffffffffffffffffffffffffffffffffffff1916149050919050565b613cc1838383613fab565b600073ffffffffffffffffffffffffffffffffffffffff168373ffffffffffffffffffffffffffffffffffffffff161415613d0457613cff81613fb0565b613d43565b8173ffffffffffffffffffffffffffffffffffffffff168373ffffffffffffffffffffffffffffffffffffffff1614613d4257613d418382613ff9565b5b5b600073ffffffffffffffffffffffffffffffffffffffff168273ffffffffffffffffffffffffffffffffffffffff161415613d8657613d8181614166565b613dc5565b8273ffffffffffffffffffffffffffffffffffffffff168273ffffffffffffffffffffffffffffffffffffffff1614613dc457613dc382826142a9565b5b5b505050565b600073ffffffffffffffffffffffffffffffffffffffff168273ffffffffffffffffffffffffffffffffffffffff161415613e3a576040517f08c379a0000000000000000000000000000000000000000000000000000000008152600401613e3190614ff9565b60405180910390fd5b613e4381612b6e565b15613e83576040517f08c379a0000000000000000000000000000000000000000000000000000000008152600401613e7a90614ed9565b60405180910390fd5b613e8f60008383613a02565b6001600360008473ffffffffffffffffffffffffffffffffffffffff1673ffffffffffffffffffffffffffffffffffffffff1681526020019081526020016000206000828254613edf919061533b565b92505081905550816002600083815260200190815260200160002060006101000a81548173ffffffffffffffffffffffffffffffffffffffff021916908373ffffffffffffffffffffffffffffffffffffffff160217905550808273ffffffffffffffffffffffffffffffffffffffff16600073ffffffffffffffffffffffffffffffffffffffff167fddf252ad1be2c89b69c2b068fc378daa952ba7f163c4a11628f55a4df523b3ef60405160405180910390a45050565b600080823b905060008111915050919050565b505050565b6008805490506009600083815260200190815260200160002081905550600881908060018154018082558091505060019003906000526020600020016000909190919091505550565b6000600161400684611828565b61401091906153c2565b90506000600760008481526020019081526020016000205490508181146140f5576000600660008673ffffffffffffffffffffffffffffffffffffffff1673ffffffffffffffffffffffffffffffffffffffff168152602001908152602001600020600084815260200190815260200160002054905080600660008773ffffffffffffffffffffffffffffffffffffffff1673ffffffffffffffffffffffffffffffffffffffff168152602001908152602001600020600084815260200190815260200160002081905550816007600083815260200190815260200160002081905550505b6007600084815260200190815260200160002060009055600660008573ffffffffffffffffffffffffffffffffffffffff1673ffffffffffffffffffffffffffffffffffffffff16815260200190815260200160002060008381526020019081526020016000206000905550505050565b6000600160088054905061417a91906153c2565b90506000600960008481526020019081526020016000205490506000600883815481106141d0577f4e487b7100000000000000000000000000000000000000000000000000000000600052603260045260246000fd5b906000526020600020015490508060088381548110614218577f4e487b7100000000000000000000000000000000000000000000000000000000600052603260045260246000fd5b90600052602060002001819055508160096000838152602001908152602001600020819055506009600085815260200190815260200160002060009055600880548061428d577f4e487b7100000000000000000000000000000000000000000000000000000000600052603160045260246000fd5b6001900381819060005260206000200160009055905550505050565b60006142b483611828565b905081600660008573ffffffffffffffffffffffffffffffffffffffff1673ffffffffffffffffffffffffffffffffffffffff168152602001908152602001600020600083815260200190815260200160002081905550806007600084815260200190815260200160002081905550505050565b828054614334906154d1565b90600052602060002090601f016020900481019282614356576000855561439d565b82601f1061436f57805160ff191683800117855561439d565b8280016001018555821561439d579182015b8281111561439c578251825591602001919060010190614381565b5b5090506143aa91906143ae565b5090565b5b808211156143c75760008160009055506001016143af565b5090565b60006143de6143d984615231565b61520c565b905080838252602082019050828560208602820111156143fd57600080fd5b60005b8581101561442d578161441388826144b3565b845260208401935060208301925050600181019050614400565b5050509392505050565b600061444a6144458461525d565b61520c565b90508281526020810184848401111561446257600080fd5b61446d84828561548f565b509392505050565b60006144886144838461528e565b61520c565b9050828152602081018484840111156144a057600080fd5b6144ab84828561548f565b509392505050565b6000813590506144c281615c7e565b92915050565b600082601f8301126144d957600080fd5b81356144e98482602086016143cb565b91505092915050565b60008135905061450181615c95565b92915050565b60008135905061451681615cac565b92915050565b60008151905061452b81615cac565b92915050565b600082601f83011261454257600080fd5b8135614552848260208601614437565b91505092915050565b600082601f83011261456c57600080fd5b813561457c848260208601614475565b91505092915050565b60008135905061459481615cc3565b92915050565b6000602082840312156145ac57600080fd5b60006145ba848285016144b3565b91505092915050565b600080604083850312156145d657600080fd5b60006145e4858286016144b3565b92505060206145f5858286016144b3565b9150509250929050565b60008060006060848603121561461457600080fd5b6000614622868287016144b3565b9350506020614633868287016144b3565b925050604061464486828701614585565b9150509250925092565b6000806000806080858703121561466457600080fd5b6000614672878288016144b3565b9450506020614683878288016144b3565b935050604061469487828801614585565b925050606085013567ffffffffffffffff8111156146b157600080fd5b6146bd87828801614531565b91505092959194509250565b600080604083850312156146dc57600080fd5b60006146ea858286016144b3565b92505060206146fb858286016144f2565b9150509250929050565b6000806040838503121561471857600080fd5b6000614726858286016144b3565b925050602061473785828601614585565b9150509250929050565b60006020828403121561475357600080fd5b600082013567ffffffffffffffff81111561476d57600080fd5b614779848285016144c8565b91505092915050565b60006020828403121561479457600080fd5b60006147a284828501614507565b91505092915050565b6000602082840312156147bd57600080fd5b60006147cb8482850161451c565b91505092915050565b6000602082840312156147e657600080fd5b600082013567ffffffffffffffff81111561480057600080fd5b61480c8482850161455b565b91505092915050565b60006020828403121561482757600080fd5b600061483584828501614585565b91505092915050565b6000806040838503121561485157600080fd5b600061485f85828601614585565b925050602083013567ffffffffffffffff81111561487c57600080fd5b6148888582860161455b565b9150509250929050565b600080604083850312156148a557600080fd5b60006148b385828601614585565b92505060206148c485828601614585565b9150509250929050565b60006148da8383614d16565b60208301905092915050565b6148ef816153f6565b82525050565b6000614900826152cf565b61490a81856152fd565b9350614915836152bf565b8060005b8381101561494657815161492d88826148ce565b9750614938836152f0565b925050600181019050614919565b5085935050505092915050565b61495c81615408565b82525050565b600061496d826152da565b614977818561530e565b935061498781856020860161549e565b61499081615699565b840191505092915050565b6149a48161547d565b82525050565b60006149b5826152e5565b6149bf818561531f565b93506149cf81856020860161549e565b6149d881615699565b840191505092915050565b60006149ee826152e5565b6149f88185615330565b9350614a0881856020860161549e565b80840191505092915050565b6000614a2160148361531f565b9150614a2c826156aa565b602082019050919050565b6000614a44601e8361531f565b9150614a4f826156d3565b602082019050919050565b6000614a67602b8361531f565b9150614a72826156fc565b604082019050919050565b6000614a8a60328361531f565b9150614a958261574b565b604082019050919050565b6000614aad60268361531f565b9150614ab88261579a565b604082019050919050565b6000614ad0601c8361531f565b9150614adb826157e9565b602082019050919050565b6000614af360248361531f565b9150614afe82615812565b604082019050919050565b6000614b1660198361531f565b9150614b2182615861565b602082019050919050565b6000614b39602c8361531f565b9150614b448261588a565b604082019050919050565b6000614b5c60108361531f565b9150614b67826158d9565b602082019050919050565b6000614b7f60388361531f565b9150614b8a82615902565b604082019050919050565b6000614ba2602a8361531f565b9150614bad82615951565b604082019050919050565b6000614bc560298361531f565b9150614bd0826159a0565b604082019050919050565b6000614be860358361531f565b9150614bf3826159ef565b604082019050919050565b6000614c0b60208361531f565b9150614c1682615a3e565b602082019050919050565b6000614c2e602c8361531f565b9150614c3982615a67565b604082019050919050565b6000614c5160208361531f565b9150614c5c82615ab6565b602082019050919050565b6000614c7460298361531f565b9150614c7f82615adf565b604082019050919050565b6000614c97602f8361531f565b9150614ca282615b2e565b604082019050919050565b6000614cba60218361531f565b9150614cc582615b7d565b604082019050919050565b6000614cdd60318361531f565b9150614ce882615bcc565b604082019050919050565b6000614d00602c8361531f565b9150614d0b82615c1b565b604082019050919050565b614d1f81615473565b82525050565b614d2e81615473565b82525050565b6000614d4082856149e3565b9150614d4c82846149e3565b91508190509392505050565b6000602082019050614d6d60008301846148e6565b92915050565b6000608082019050614d8860008301876148e6565b614d9560208301866148e6565b614da26040830185614d25565b8181036060830152614db48184614962565b905095945050505050565b60006020820190508181036000830152614dd981846148f5565b905092915050565b6000602082019050614df66000830184614953565b92915050565b6000602082019050614e11600083018461499b565b92915050565b60006020820190508181036000830152614e3181846149aa565b905092915050565b60006020820190508181036000830152614e5281614a14565b9050919050565b60006020820190508181036000830152614e7281614a37565b9050919050565b60006020820190508181036000830152614e9281614a5a565b9050919050565b60006020820190508181036000830152614eb281614a7d565b9050919050565b60006020820190508181036000830152614ed281614aa0565b9050919050565b60006020820190508181036000830152614ef281614ac3565b9050919050565b60006020820190508181036000830152614f1281614ae6565b9050919050565b60006020820190508181036000830152614f3281614b09565b9050919050565b60006020820190508181036000830152614f5281614b2c565b9050919050565b60006020820190508181036000830152614f7281614b4f565b9050919050565b60006020820190508181036000830152614f9281614b72565b9050919050565b60006020820190508181036000830152614fb281614b95565b9050919050565b60006020820190508181036000830152614fd281614bb8565b9050919050565b60006020820190508181036000830152614ff281614bdb565b9050919050565b6000602082019050818103600083015261501281614bfe565b9050919050565b6000602082019050818103600083015261503281614c21565b9050919050565b6000602082019050818103600083015261505281614c44565b9050919050565b6000602082019050818103600083015261507281614c67565b9050919050565b6000602082019050818103600083015261509281614c8a565b9050919050565b600060208201905081810360008301526150b281614cad565b9050919050565b600060208201905081810360008301526150d281614cd0565b9050919050565b600060208201905081810360008301526150f281614cf3565b9050919050565b600060208201905061510e6000830184614d25565b92915050565b60006101808201905061512a600083018f614d25565b818103602083015261513c818e6149aa565b905061514b604083018d614d25565b615158606083018c614d25565b615165608083018b61499b565b81810360a0830152615177818a6149aa565b905081810360c083015261518b81896149aa565b905061519a60e0830188614d25565b6151a8610100830187614d25565b6151b6610120830186614d25565b6151c4610140830185614d25565b6151d2610160830184614d25565b9d9c50505050505050505050505050565b60006040820190506151f86000830185614d25565b6152056020830184614d25565b9392505050565b6000615216615227565b90506152228282615503565b919050565b6000604051905090565b600067ffffffffffffffff82111561524c5761524b61566a565b5b602082029050602081019050919050565b600067ffffffffffffffff8211156152785761527761566a565b5b61528182615699565b9050602081019050919050565b600067ffffffffffffffff8211156152a9576152a861566a565b5b6152b282615699565b9050602081019050919050565b6000819050602082019050919050565b600081519050919050565b600081519050919050565b600081519050919050565b6000602082019050919050565b600082825260208201905092915050565b600082825260208201905092915050565b600082825260208201905092915050565b600081905092915050565b600061534682615473565b915061535183615473565b9250827fffffffffffffffffffffffffffffffffffffffffffffffffffffffffffffffff03821115615386576153856155ae565b5b828201905092915050565b600061539c82615473565b91506153a783615473565b9250826153b7576153b66155dd565b5b828204905092915050565b60006153cd82615473565b91506153d883615473565b9250828210156153eb576153ea6155ae565b5b828203905092915050565b600061540182615453565b9050919050565b60008115159050919050565b60007fffffffff0000000000000000000000000000000000000000000000000000000082169050919050565b600081905061544e82615c6a565b919050565b600073ffffffffffffffffffffffffffffffffffffffff82169050919050565b6000819050919050565b600061548882615440565b9050919050565b82818337600083830152505050565b60005b838110156154bc5780820151818401526020810190506154a1565b838111156154cb576000848401525b50505050565b600060028204905060018216806154e957607f821691505b602082108114156154fd576154fc61563b565b5b50919050565b61550c82615699565b810181811067ffffffffffffffff8211171561552b5761552a61566a565b5b80604052505050565b600061553f82615473565b91507fffffffffffffffffffffffffffffffffffffffffffffffffffffffffffffffff821415615572576155716155ae565b5b600182019050919050565b600061558882615473565b915061559383615473565b9250826155a3576155a26155dd565b5b828206905092915050565b7f4e487b7100000000000000000000000000000000000000000000000000000000600052601160045260246000fd5b7f4e487b7100000000000000000000000000000000000000000000000000000000600052601260045260246000fd5b7f4e487b7100000000000000000000000000000000000000000000000000000000600052602160045260246000fd5b7f4e487b7100000000000000000000000000000000000000000000000000000000600052602260045260246000fd5b7f4e487b7100000000000000000000000000000000000000000000000000000000600052604160045260246000fd5b6000601f19601f8301169050919050565b7f5061757361626c653a206e6f7420706175736564000000000000000000000000600082015250565b7f5468657265206973206e6f20726f626f74206f66207468617420747970650000600082015250565b7f455243373231456e756d657261626c653a206f776e657220696e646578206f7560008201527f74206f6620626f756e6473000000000000000000000000000000000000000000602082015250565b7f4552433732313a207472616e7366657220746f206e6f6e20455243373231526560008201527f63656976657220696d706c656d656e7465720000000000000000000000000000602082015250565b7f4f776e61626c653a206e6577206f776e657220697320746865207a65726f206160008201527f6464726573730000000000000000000000000000000000000000000000000000602082015250565b7f4552433732313a20746f6b656e20616c7265616479206d696e74656400000000600082015250565b7f4552433732313a207472616e7366657220746f20746865207a65726f2061646460008201527f7265737300000000000000000000000000000000000000000000000000000000602082015250565b7f4552433732313a20617070726f766520746f2063616c6c657200000000000000600082015250565b7f4552433732313a206f70657261746f7220717565727920666f72206e6f6e657860008201527f697374656e7420746f6b656e0000000000000000000000000000000000000000602082015250565b7f5061757361626c653a2070617573656400000000000000000000000000000000600082015250565b7f4552433732313a20617070726f76652063616c6c6572206973206e6f74206f7760008201527f6e6572206e6f7220617070726f76656420666f7220616c6c0000000000000000602082015250565b7f4552433732313a2062616c616e636520717565727920666f7220746865207a6560008201527f726f206164647265737300000000000000000000000000000000000000000000602082015250565b7f4552433732313a206f776e657220717565727920666f72206e6f6e657869737460008201527f656e7420746f6b656e0000000000000000000000000000000000000000000000602082015250565b7f5468652076616c7565207375626d69747465642077697468207468697320747260008201527f616e73616374696f6e20697320746f6f206c6f772e0000000000000000000000602082015250565b7f4552433732313a206d696e7420746f20746865207a65726f2061646472657373600082015250565b7f4552433732313a20617070726f76656420717565727920666f72206e6f6e657860008201527f697374656e7420746f6b656e0000000000000000000000000000000000000000602082015250565b7f4f776e61626c653a2063616c6c6572206973206e6f7420746865206f776e6572600082015250565b7f4552433732313a207472616e73666572206f6620746f6b656e2074686174206960008201527f73206e6f74206f776e0000000000000000000000000000000000000000000000602082015250565b7f4552433732314d657461646174613a2055524920717565727920666f72206e6f60008201527f6e6578697374656e7420746f6b656e0000000000000000000000000000000000602082015250565b7f4552433732313a20617070726f76616c20746f2063757272656e74206f776e6560008201527f7200000000000000000000000000000000000000000000000000000000000000602082015250565b7f4552433732313a207472616e736665722063616c6c6572206973206e6f74206f60008201527f776e6572206e6f7220617070726f766564000000000000000000000000000000602082015250565b7f455243373231456e756d657261626c653a20676c6f62616c20696e646578206f60008201527f7574206f6620626f756e64730000000000000000000000000000000000000000602082015250565b60038110615c7b57615c7a61560c565b5b50565b615c87816153f6565b8114615c9257600080fd5b50565b615c9e81615408565b8114615ca957600080fd5b50565b615cb581615414565b8114615cc057600080fd5b50565b615ccc81615473565b8114615cd757600080fd5b5056fea26469706673582212204e7337bad09b92a80c28c7661d3165c0ce03c184f54705b471b3d6ac2b8713ab64736f6c63430008020033",
  "immutableReferences": {},
  "source": "// contracts/Robot.sol\n// SPDX-License-Identifier: MIT\npragma solidity ^0.8.2;\n\nimport \"@openzeppelin/contracts/token/ERC721/ERC721.sol\";\nimport \"@openzeppelin/contracts/token/ERC721/extensions/ERC721Enumerable.sol\";\nimport \"@openzeppelin/contracts/token/ERC1155/IERC1155.sol\";\nimport \"@openzeppelin/contracts/utils/math/SafeMath.sol\";\nimport \"@openzeppelin/contracts/security/Pausable.sol\";\nimport \"./Whitelist.sol\";\n\ncontract Robot is ERC721, ERC721Enumerable, Pausable, Whitelist {\n\n    using SafeMath for uint256;\n\n    uint256 private _price = 8 * 10**16; // .08 eth\n\n    string private _baseTokenURI;\n\n    // Address where funds are collected\n    address payable private _wallet;\n\n    string[] private robotName = [\"Robot1\", \"Robot2\", \"Robot3\", \"Robot4\"];\n    string[] private robotType = [\"Tank\", \"Speedy\", \"Defender\", \"Retired\"];\n    uint256[] private strength = [20, 10, 10, 20];\n    uint256[] private agility = [10, 20, 10, 20];\n    uint256[] private ai = [10, 20, 20, 10];\n    uint256[] private defense = [20, 10, 20, 10];\n\n    mapping(uint256 => RobotAttributes) public robots;\n\n    enum State {\n        Fighter, // 0\n        Trainer, // 1\n        Retired // 2\n    }\n\n    State constant defaultState = State.Fighter;\n\n    struct RobotAttributes {\n        uint256 robotIndex;\n        string imageURI;\n        uint256 wins;\n        uint256 losses;\n        State state;\n        string robotName;\n        string robotType;\n        uint256 health;\n        uint256 strength;\n        uint256 agility;\n        uint256 ai;\n        uint256 defense;\n    }\n\n    constructor(string memory baseURI, address payable wallet) ERC721(\"Robot\", \"RBT\") {\n        setBaseURI(baseURI);\n        _wallet = wallet;\n    }\n\n    function pause() public onlyOwner {\n        _pause();\n    }\n\n    function unpause() public onlyOwner {\n        _unpause();\n    }\n\n    function setBaseURI(string memory baseURI) public onlyOwner {\n        _baseTokenURI = baseURI;\n    }\n\n    function _baseURI() internal view virtual override returns (string memory) {\n        return _baseTokenURI;\n    }\n\n    function _beforeTokenTransfer(address from, address to, uint256 tokenId)\n        internal\n        whenNotPaused\n        override(ERC721, ERC721Enumerable)\n    {\n        super._beforeTokenTransfer(from, to, tokenId);\n    }\n\n   // The following function override required by Solidity.\n    function supportsInterface(bytes4 interfaceId)\n        public\n        view\n        override(ERC721, ERC721Enumerable)\n        returns (bool)\n    {\n        return super.supportsInterface(interfaceId);\n    }\n\n    function _createRobot(uint256 index, uint256 typeIndex) internal {\n        robots[index] = RobotAttributes({\n            robotIndex: index,\n            imageURI: \" \",\n            wins: 0,\n            losses: 0,\n            state: defaultState,\n            robotName: robotName[typeIndex],\n            robotType: robotType[typeIndex],\n            health: 1000,\n            strength: strength[typeIndex],\n            agility: agility[typeIndex],\n            ai: ai[typeIndex],\n            defense: defense[typeIndex]\n        });\n    }\n\n    // Count is how many they want to mint\n    function mint(uint256 botType) public whenNotPaused payable {\n        require(botType < 4, \"There is no robot of that type\");\n        require(\n            msg.value >= _price || owner() == _msgSender(),\n            \"The value submitted with this transaction is too low.\"\n        );\n\n        uint256 totalSupply = totalSupply();\n        uint256 index = totalSupply + 1;\n        _createRobot(index, botType);\n        _safeMint(msg.sender, index);\n    }\n\n    function updateRobotsRecords(uint256 winningRobotIndex, uint256 losingRobotIndex) public whenNotPaused onlyWhitelisted {\n        robots[winningRobotIndex].wins += 1;\n        robots[losingRobotIndex].losses += 1;\n    }\n\n    function updateRobotName(uint256 robotIndex, string memory value) public whenNotPaused onlyWhitelisted {\n        robots[robotIndex].robotName = value;\n    }\n\n    function updateRobotHealth(uint256 robotIndex, uint256 value) public whenNotPaused onlyWhitelisted {\n        robots[robotIndex].health = value;\n    }\n\n    function updateRobotStrength(uint256 robotIndex, uint256 value) public whenNotPaused onlyWhitelisted {\n        robots[robotIndex].strength = value;\n    }\n\n    function updateRobotAgility(uint256 robotIndex, uint256 value) public whenNotPaused onlyWhitelisted {\n        robots[robotIndex].agility = value;\n    }\n\n    function updateRobotAi(uint256 robotIndex, uint256 value) public whenNotPaused onlyWhitelisted {\n        robots[robotIndex].ai = value;\n    }\n\n    function updateRobotDefense(uint256 robotIndex, uint256 value) public whenNotPaused onlyWhitelisted {\n        robots[robotIndex].defense = value;\n    }\n\n    function setRobotAsFighter(uint256 robotIndex) public whenNotPaused onlyOwner {\n        robots[robotIndex].state = State.Fighter;\n    }\n\n    function setRobotAsTrainer(uint256 robotIndex) public whenNotPaused onlyOwner {\n        robots[robotIndex].state = State.Trainer;\n    }\n\n    function setRobotAsRetired(uint256 robotIndex) public whenNotPaused onlyOwner {\n        robots[robotIndex].state = State.Retired;\n    }\n\n    function getRobotRecord(uint256 robotIndex) public view returns(uint256, uint256) {\n        return(robots[robotIndex].wins, robots[robotIndex].losses);\n    }\n\n    function getRobotState(uint256 robotIndex) public view returns(State) {\n        return robots[robotIndex].state;\n    }\n\n    function walletOfOwner(address _owner)\n        public\n        view\n        returns (uint256[] memory)\n    {\n        uint256 tokenCount = balanceOf(_owner);\n\n        if (tokenCount == 0) {\n            // Return an empty array\n            return new uint256[](0);\n        }\n\n        uint256[] memory tokensId = new uint256[](tokenCount);\n        for (uint256 i; i < tokenCount; i++) {\n            tokensId[i] = tokenOfOwnerByIndex(_owner, i);\n        }\n        return tokensId;\n    }\n\n    function withdrawAll() public payable onlyOwner {\n        require(_wallet.send(address(this).balance));\n    }\n}\n",
  "sourcePath": "/home/seandevs/workspaces/celo-hackathon/nfts/robots/contracts/Robot.sol",
  "compiler": {
    "name": "solc",
    "version": "0.8.2+commit.661d1103.Emscripten.clang"
  },
  "schemaVersion": "3.4.1",
  "updatedAt": "2021-11-15T17:21:57.386Z",
  "networkType": "ethereum",
  "devdoc": {
    "kind": "dev",
    "methods": {
      "approve(address,uint256)": {
        "details": "See {IERC721-approve}."
      },
      "balanceOf(address)": {
        "details": "See {IERC721-balanceOf}."
      },
      "getApproved(uint256)": {
        "details": "See {IERC721-getApproved}."
      },
      "isApprovedForAll(address,address)": {
        "details": "See {IERC721-isApprovedForAll}."
      },
      "name()": {
        "details": "See {IERC721Metadata-name}."
      },
      "owner()": {
        "details": "Returns the address of the current owner."
      },
      "ownerOf(uint256)": {
        "details": "See {IERC721-ownerOf}."
      },
      "paused()": {
        "details": "Returns true if the contract is paused, and false otherwise."
      },
      "renounceOwnership()": {
        "details": "Leaves the contract without owner. It will not be possible to call `onlyOwner` functions anymore. Can only be called by the current owner. NOTE: Renouncing ownership will leave the contract without an owner, thereby removing any functionality that is only available to the owner."
      },
      "safeTransferFrom(address,address,uint256)": {
        "details": "See {IERC721-safeTransferFrom}."
      },
      "safeTransferFrom(address,address,uint256,bytes)": {
        "details": "See {IERC721-safeTransferFrom}."
      },
      "setApprovalForAll(address,bool)": {
        "details": "See {IERC721-setApprovalForAll}."
      },
      "symbol()": {
        "details": "See {IERC721Metadata-symbol}."
      },
      "tokenByIndex(uint256)": {
        "details": "See {IERC721Enumerable-tokenByIndex}."
      },
      "tokenOfOwnerByIndex(address,uint256)": {
        "details": "See {IERC721Enumerable-tokenOfOwnerByIndex}."
      },
      "tokenURI(uint256)": {
        "details": "See {IERC721Metadata-tokenURI}."
      },
      "totalSupply()": {
        "details": "See {IERC721Enumerable-totalSupply}."
      },
      "transferFrom(address,address,uint256)": {
        "details": "See {IERC721-transferFrom}."
      },
      "transferOwnership(address)": {
        "details": "Transfers ownership of the contract to a new account (`newOwner`). Can only be called by the current owner."
      }
    },
    "version": 1
  },
  "userdoc": {
    "kind": "user",
    "methods": {},
    "version": 1
  }
}