{
  "contractName": "Robot",
  "abi": [
    {
      "inputs": [
        {
          "internalType": "string",
          "name": "baseURI",
          "type": "string"
        }
      ],
      "stateMutability": "nonpayable",
      "type": "constructor"
    },
    {
      "anonymous": false,
      "inputs": [
        {
          "indexed": true,
          "internalType": "address",
          "name": "owner",
          "type": "address"
        },
        {
          "indexed": true,
          "internalType": "address",
          "name": "approved",
          "type": "address"
        },
        {
          "indexed": true,
          "internalType": "uint256",
          "name": "tokenId",
          "type": "uint256"
        }
      ],
      "name": "Approval",
      "type": "event"
    },
    {
      "anonymous": false,
      "inputs": [
        {
          "indexed": true,
          "internalType": "address",
          "name": "owner",
          "type": "address"
        },
        {
          "indexed": true,
          "internalType": "address",
          "name": "operator",
          "type": "address"
        },
        {
          "indexed": false,
          "internalType": "bool",
          "name": "approved",
          "type": "bool"
        }
      ],
      "name": "ApprovalForAll",
      "type": "event"
    },
    {
      "anonymous": false,
      "inputs": [
        {
          "indexed": true,
          "internalType": "address",
          "name": "previousOwner",
          "type": "address"
        },
        {
          "indexed": true,
          "internalType": "address",
          "name": "newOwner",
          "type": "address"
        }
      ],
      "name": "OwnershipTransferred",
      "type": "event"
    },
    {
      "anonymous": false,
      "inputs": [
        {
          "indexed": false,
          "internalType": "address",
          "name": "account",
          "type": "address"
        }
      ],
      "name": "Paused",
      "type": "event"
    },
    {
      "anonymous": false,
      "inputs": [
        {
          "indexed": true,
          "internalType": "address",
          "name": "from",
          "type": "address"
        },
        {
          "indexed": true,
          "internalType": "address",
          "name": "to",
          "type": "address"
        },
        {
          "indexed": true,
          "internalType": "uint256",
          "name": "tokenId",
          "type": "uint256"
        }
      ],
      "name": "Transfer",
      "type": "event"
    },
    {
      "anonymous": false,
      "inputs": [
        {
          "indexed": false,
          "internalType": "address",
          "name": "account",
          "type": "address"
        }
      ],
      "name": "Unpaused",
      "type": "event"
    },
    {
      "inputs": [
        {
          "internalType": "address",
          "name": "to",
          "type": "address"
        },
        {
          "internalType": "uint256",
          "name": "tokenId",
          "type": "uint256"
        }
      ],
      "name": "approve",
      "outputs": [],
      "stateMutability": "nonpayable",
      "type": "function"
    },
    {
      "inputs": [
        {
          "internalType": "address",
          "name": "owner",
          "type": "address"
        }
      ],
      "name": "balanceOf",
      "outputs": [
        {
          "internalType": "uint256",
          "name": "",
          "type": "uint256"
        }
      ],
      "stateMutability": "view",
      "type": "function",
      "constant": true
    },
    {
      "inputs": [
        {
          "internalType": "uint256",
          "name": "tokenId",
          "type": "uint256"
        }
      ],
      "name": "getApproved",
      "outputs": [
        {
          "internalType": "address",
          "name": "",
          "type": "address"
        }
      ],
      "stateMutability": "view",
      "type": "function",
      "constant": true
    },
    {
      "inputs": [
        {
          "internalType": "address",
          "name": "owner",
          "type": "address"
        },
        {
          "internalType": "address",
          "name": "operator",
          "type": "address"
        }
      ],
      "name": "isApprovedForAll",
      "outputs": [
        {
          "internalType": "bool",
          "name": "",
          "type": "bool"
        }
      ],
      "stateMutability": "view",
      "type": "function",
      "constant": true
    },
    {
      "inputs": [],
      "name": "name",
      "outputs": [
        {
          "internalType": "string",
          "name": "",
          "type": "string"
        }
      ],
      "stateMutability": "view",
      "type": "function",
      "constant": true
    },
    {
      "inputs": [],
      "name": "owner",
      "outputs": [
        {
          "internalType": "address",
          "name": "",
          "type": "address"
        }
      ],
      "stateMutability": "view",
      "type": "function",
      "constant": true
    },
    {
      "inputs": [
        {
          "internalType": "uint256",
          "name": "tokenId",
          "type": "uint256"
        }
      ],
      "name": "ownerOf",
      "outputs": [
        {
          "internalType": "address",
          "name": "",
          "type": "address"
        }
      ],
      "stateMutability": "view",
      "type": "function",
      "constant": true
    },
    {
      "inputs": [],
      "name": "paused",
      "outputs": [
        {
          "internalType": "bool",
          "name": "",
          "type": "bool"
        }
      ],
      "stateMutability": "view",
      "type": "function",
      "constant": true
    },
    {
      "inputs": [],
      "name": "renounceOwnership",
      "outputs": [],
      "stateMutability": "nonpayable",
      "type": "function"
    },
    {
      "inputs": [
        {
          "internalType": "address",
          "name": "from",
          "type": "address"
        },
        {
          "internalType": "address",
          "name": "to",
          "type": "address"
        },
        {
          "internalType": "uint256",
          "name": "tokenId",
          "type": "uint256"
        }
      ],
      "name": "safeTransferFrom",
      "outputs": [],
      "stateMutability": "nonpayable",
      "type": "function"
    },
    {
      "inputs": [
        {
          "internalType": "address",
          "name": "from",
          "type": "address"
        },
        {
          "internalType": "address",
          "name": "to",
          "type": "address"
        },
        {
          "internalType": "uint256",
          "name": "tokenId",
          "type": "uint256"
        },
        {
          "internalType": "bytes",
          "name": "_data",
          "type": "bytes"
        }
      ],
      "name": "safeTransferFrom",
      "outputs": [],
      "stateMutability": "nonpayable",
      "type": "function"
    },
    {
      "inputs": [
        {
          "internalType": "address",
          "name": "operator",
          "type": "address"
        },
        {
          "internalType": "bool",
          "name": "approved",
          "type": "bool"
        }
      ],
      "name": "setApprovalForAll",
      "outputs": [],
      "stateMutability": "nonpayable",
      "type": "function"
    },
    {
      "inputs": [],
      "name": "symbol",
      "outputs": [
        {
          "internalType": "string",
          "name": "",
          "type": "string"
        }
      ],
      "stateMutability": "view",
      "type": "function",
      "constant": true
    },
    {
      "inputs": [
        {
          "internalType": "uint256",
          "name": "index",
          "type": "uint256"
        }
      ],
      "name": "tokenByIndex",
      "outputs": [
        {
          "internalType": "uint256",
          "name": "",
          "type": "uint256"
        }
      ],
      "stateMutability": "view",
      "type": "function",
      "constant": true
    },
    {
      "inputs": [
        {
          "internalType": "address",
          "name": "owner",
          "type": "address"
        },
        {
          "internalType": "uint256",
          "name": "index",
          "type": "uint256"
        }
      ],
      "name": "tokenOfOwnerByIndex",
      "outputs": [
        {
          "internalType": "uint256",
          "name": "",
          "type": "uint256"
        }
      ],
      "stateMutability": "view",
      "type": "function",
      "constant": true
    },
    {
      "inputs": [
        {
          "internalType": "uint256",
          "name": "tokenId",
          "type": "uint256"
        }
      ],
      "name": "tokenURI",
      "outputs": [
        {
          "internalType": "string",
          "name": "",
          "type": "string"
        }
      ],
      "stateMutability": "view",
      "type": "function",
      "constant": true
    },
    {
      "inputs": [],
      "name": "totalSupply",
      "outputs": [
        {
          "internalType": "uint256",
          "name": "",
          "type": "uint256"
        }
      ],
      "stateMutability": "view",
      "type": "function",
      "constant": true
    },
    {
      "inputs": [
        {
          "internalType": "address",
          "name": "from",
          "type": "address"
        },
        {
          "internalType": "address",
          "name": "to",
          "type": "address"
        },
        {
          "internalType": "uint256",
          "name": "tokenId",
          "type": "uint256"
        }
      ],
      "name": "transferFrom",
      "outputs": [],
      "stateMutability": "nonpayable",
      "type": "function"
    },
    {
      "inputs": [
        {
          "internalType": "address",
          "name": "newOwner",
          "type": "address"
        }
      ],
      "name": "transferOwnership",
      "outputs": [],
      "stateMutability": "nonpayable",
      "type": "function"
    },
    {
      "inputs": [],
      "name": "pause",
      "outputs": [],
      "stateMutability": "nonpayable",
      "type": "function"
    },
    {
      "inputs": [],
      "name": "unpause",
      "outputs": [],
      "stateMutability": "nonpayable",
      "type": "function"
    },
    {
      "inputs": [
        {
          "internalType": "uint256",
          "name": "time",
          "type": "uint256"
        }
      ],
      "name": "setSaleTime",
      "outputs": [],
      "stateMutability": "nonpayable",
      "type": "function"
    },
    {
      "inputs": [],
      "name": "getSaleTime",
      "outputs": [
        {
          "internalType": "uint256",
          "name": "",
          "type": "uint256"
        }
      ],
      "stateMutability": "view",
      "type": "function",
      "constant": true
    },
    {
      "inputs": [],
      "name": "isSaleOpen",
      "outputs": [
        {
          "internalType": "bool",
          "name": "",
          "type": "bool"
        }
      ],
      "stateMutability": "view",
      "type": "function",
      "constant": true
    },
    {
      "inputs": [
        {
          "internalType": "string",
          "name": "baseURI",
          "type": "string"
        }
      ],
      "name": "setBaseURI",
      "outputs": [],
      "stateMutability": "nonpayable",
      "type": "function"
    },
    {
      "inputs": [
        {
          "internalType": "bytes4",
          "name": "interfaceId",
          "type": "bytes4"
        }
      ],
      "name": "supportsInterface",
      "outputs": [
        {
          "internalType": "bool",
          "name": "",
          "type": "bool"
        }
      ],
      "stateMutability": "view",
      "type": "function",
      "constant": true
    },
    {
      "inputs": [
        {
          "internalType": "uint256",
          "name": "_count",
          "type": "uint256"
        }
      ],
      "name": "mint",
      "outputs": [],
      "stateMutability": "payable",
      "type": "function",
      "payable": true
    },
    {
      "inputs": [
        {
          "internalType": "address",
          "name": "_owner",
          "type": "address"
        }
      ],
      "name": "walletOfOwner",
      "outputs": [
        {
          "internalType": "uint256[]",
          "name": "",
          "type": "uint256[]"
        }
      ],
      "stateMutability": "view",
      "type": "function",
      "constant": true
    },
    {
      "inputs": [],
      "name": "withdrawAll",
      "outputs": [],
      "stateMutability": "payable",
      "type": "function",
      "payable": true
    }
  ],
  "bytecode": "0x608060405263616bc0a5600b5567011c37937e080000600c553480156200002557600080fd5b50604051620049753803806200497583398181016040528101906200004b919062000403565b6040518060400160405280600581526020017f526f626f740000000000000000000000000000000000000000000000000000008152506040518060400160405280600381526020017f52425400000000000000000000000000000000000000000000000000000000008152508160009080519060200190620000cf929190620002e1565b508060019080519060200190620000e8929190620002e1565b5050506000600a60006101000a81548160ff021916908315150217905550620001266200011a6200013e60201b60201c565b6200014660201b60201c565b62000137816200020c60201b60201c565b506200063b565b600033905090565b6000600a60019054906101000a900473ffffffffffffffffffffffffffffffffffffffff16905081600a60016101000a81548173ffffffffffffffffffffffffffffffffffffffff021916908373ffffffffffffffffffffffffffffffffffffffff1602179055508173ffffffffffffffffffffffffffffffffffffffff168173ffffffffffffffffffffffffffffffffffffffff167f8be0079c531659141344cd1fd0a4f28419497f9722a3daafe3b4186f6b6457e060405160405180910390a35050565b6200021c6200013e60201b60201c565b73ffffffffffffffffffffffffffffffffffffffff1662000242620002b760201b60201c565b73ffffffffffffffffffffffffffffffffffffffff16146200029b576040517f08c379a000000000000000000000000000000000000000000000000000000000815260040162000292906200046f565b60405180910390fd5b80600d9080519060200190620002b3929190620002e1565b5050565b6000600a60019054906101000a900473ffffffffffffffffffffffffffffffffffffffff16905090565b828054620002ef9062000537565b90600052602060002090601f0160209004810192826200031357600085556200035f565b82601f106200032e57805160ff19168380011785556200035f565b828001600101855582156200035f579182015b828111156200035e57825182559160200191906001019062000341565b5b5090506200036e919062000372565b5090565b5b808211156200038d57600081600090555060010162000373565b5090565b6000620003a8620003a284620004ba565b62000491565b905082815260208101848484011115620003c157600080fd5b620003ce84828562000501565b509392505050565b600082601f830112620003e857600080fd5b8151620003fa84826020860162000391565b91505092915050565b6000602082840312156200041657600080fd5b600082015167ffffffffffffffff8111156200043157600080fd5b6200043f84828501620003d6565b91505092915050565b600062000457602083620004f0565b9150620004648262000612565b602082019050919050565b600060208201905081810360008301526200048a8162000448565b9050919050565b60006200049d620004b0565b9050620004ab82826200056d565b919050565b6000604051905090565b600067ffffffffffffffff821115620004d857620004d7620005d2565b5b620004e38262000601565b9050602081019050919050565b600082825260208201905092915050565b60005b838110156200052157808201518184015260208101905062000504565b8381111562000531576000848401525b50505050565b600060028204905060018216806200055057607f821691505b60208210811415620005675762000566620005a3565b5b50919050565b620005788262000601565b810181811067ffffffffffffffff821117156200059a5762000599620005d2565b5b80604052505050565b7f4e487b7100000000000000000000000000000000000000000000000000000000600052602260045260246000fd5b7f4e487b7100000000000000000000000000000000000000000000000000000000600052604160045260246000fd5b6000601f19601f8301169050919050565b7f4f776e61626c653a2063616c6c6572206973206e6f7420746865206f776e6572600082015250565b61432a806200064b6000396000f3fe6080604052600436106101c25760003560e01c80635c975abb116100f757806395d89b4111610095578063c87b56dd11610064578063c87b56dd146105fe578063cbf21fe41461063b578063e985e9c514610666578063f2fde38b146106a3576101c2565b806395d89b4114610565578063a0712d6814610590578063a22cb465146105ac578063b88d4fde146105d5576101c2565b8063715018a6116100d1578063715018a6146105025780638456cb5914610519578063853828b6146105305780638da5cb5b1461053a576101c2565b80635c975abb1461045d5780636352211e1461048857806370a08231146104c5576101c2565b80632f745c591161016457806342842e0e1161013e57806342842e0e14610391578063438b6300146103ba5780634f6ccce7146103f757806355f804b314610434576101c2565b80632f745c59146103145780633bd2b67d146103515780633f4ba83a1461037a576101c2565b8063095ea7b3116101a0578063095ea7b31461026c57806318160ddd146102955780631a081330146102c057806323b872dd146102eb576101c2565b806301ffc9a7146101c757806306fdde0314610204578063081812fc1461022f575b600080fd5b3480156101d357600080fd5b506101ee60048036038101906101e99190612ed0565b6106cc565b6040516101fb91906134b3565b60405180910390f35b34801561021057600080fd5b506102196106de565b60405161022691906134ce565b60405180910390f35b34801561023b57600080fd5b5061025660048036038101906102519190612f63565b610770565b604051610263919061342a565b60405180910390f35b34801561027857600080fd5b50610293600480360381019061028e9190612e94565b6107f5565b005b3480156102a157600080fd5b506102aa61090d565b6040516102b791906137d0565b60405180910390f35b3480156102cc57600080fd5b506102d561091a565b6040516102e291906134b3565b60405180910390f35b3480156102f757600080fd5b50610312600480360381019061030d9190612d8e565b610927565b005b34801561032057600080fd5b5061033b60048036038101906103369190612e94565b610987565b60405161034891906137d0565b60405180910390f35b34801561035d57600080fd5b5061037860048036038101906103739190612f63565b610a2c565b005b34801561038657600080fd5b5061038f610ab2565b005b34801561039d57600080fd5b506103b860048036038101906103b39190612d8e565b610b38565b005b3480156103c657600080fd5b506103e160048036038101906103dc9190612d29565b610b58565b6040516103ee9190613491565b60405180910390f35b34801561040357600080fd5b5061041e60048036038101906104199190612f63565b610cd4565b60405161042b91906137d0565b60405180910390f35b34801561044057600080fd5b5061045b60048036038101906104569190612f22565b610d6b565b005b34801561046957600080fd5b50610472610e01565b60405161047f91906134b3565b60405180910390f35b34801561049457600080fd5b506104af60048036038101906104aa9190612f63565b610e18565b6040516104bc919061342a565b60405180910390f35b3480156104d157600080fd5b506104ec60048036038101906104e79190612d29565b610eca565b6040516104f991906137d0565b60405180910390f35b34801561050e57600080fd5b50610517610f82565b005b34801561052557600080fd5b5061052e61100a565b005b610538611090565b005b34801561054657600080fd5b5061054f611160565b60405161055c919061342a565b60405180910390f35b34801561057157600080fd5b5061057a61118a565b60405161058791906134ce565b60405180910390f35b6105aa60048036038101906105a59190612f63565b61121c565b005b3480156105b857600080fd5b506105d360048036038101906105ce9190612e58565b611380565b005b3480156105e157600080fd5b506105fc60048036038101906105f79190612ddd565b611501565b005b34801561060a57600080fd5b5061062560048036038101906106209190612f63565b611563565b60405161063291906134ce565b60405180910390f35b34801561064757600080fd5b5061065061160a565b60405161065d91906137d0565b60405180910390f35b34801561067257600080fd5b5061068d60048036038101906106889190612d52565b611614565b60405161069a91906134b3565b60405180910390f35b3480156106af57600080fd5b506106ca60048036038101906106c59190612d29565b6116a8565b005b60006106d7826117a0565b9050919050565b6060600080546106ed90613ab9565b80601f016020809104026020016040519081016040528092919081815260200182805461071990613ab9565b80156107665780601f1061073b57610100808354040283529160200191610766565b820191906000526020600020905b81548152906001019060200180831161074957829003601f168201915b5050505050905090565b600061077b8261181a565b6107ba576040517f08c379a00000000000000000000000000000000000000000000000000000000081526004016107b1906136f0565b60405180910390fd5b6004600083815260200190815260200160002060009054906101000a900473ffffffffffffffffffffffffffffffffffffffff169050919050565b600061080082610e18565b90508073ffffffffffffffffffffffffffffffffffffffff168373ffffffffffffffffffffffffffffffffffffffff161415610871576040517f08c379a000000000000000000000000000000000000000000000000000000000815260040161086890613770565b60405180910390fd5b8073ffffffffffffffffffffffffffffffffffffffff16610890611886565b73ffffffffffffffffffffffffffffffffffffffff1614806108bf57506108be816108b9611886565b611614565b5b6108fe576040517f08c379a00000000000000000000000000000000000000000000000000000000081526004016108f590613650565b60405180910390fd5b610908838361188e565b505050565b6000600880549050905090565b6000600b54421015905090565b610938610932611886565b82611947565b610977576040517f08c379a000000000000000000000000000000000000000000000000000000000815260040161096e90613790565b60405180910390fd5b610982838383611a25565b505050565b600061099283610eca565b82106109d3576040517f08c379a00000000000000000000000000000000000000000000000000000000081526004016109ca90613510565b60405180910390fd5b600660008473ffffffffffffffffffffffffffffffffffffffff1673ffffffffffffffffffffffffffffffffffffffff168152602001908152602001600020600083815260200190815260200160002054905092915050565b610a34611886565b73ffffffffffffffffffffffffffffffffffffffff16610a52611160565b73ffffffffffffffffffffffffffffffffffffffff1614610aa8576040517f08c379a0000000000000000000000000000000000000000000000000000000008152600401610a9f90613710565b60405180910390fd5b80600b8190555050565b610aba611886565b73ffffffffffffffffffffffffffffffffffffffff16610ad8611160565b73ffffffffffffffffffffffffffffffffffffffff1614610b2e576040517f08c379a0000000000000000000000000000000000000000000000000000000008152600401610b2590613710565b60405180910390fd5b610b36611c81565b565b610b5383838360405180602001604052806000815250611501565b505050565b60606000610b6583610eca565b90506000811415610be857600067ffffffffffffffff811115610bb1577f4e487b7100000000000000000000000000000000000000000000000000000000600052604160045260246000fd5b604051908082528060200260200182016040528015610bdf5781602001602082028036833780820191505090505b50915050610ccf565b60008167ffffffffffffffff811115610c2a577f4e487b7100000000000000000000000000000000000000000000000000000000600052604160045260246000fd5b604051908082528060200260200182016040528015610c585781602001602082028036833780820191505090505b50905060005b82811015610cc857610c708582610987565b828281518110610ca9577f4e487b7100000000000000000000000000000000000000000000000000000000600052603260045260246000fd5b6020026020010181815250508080610cc090613b1c565b915050610c5e565b5080925050505b919050565b6000610cde61090d565b8210610d1f576040517f08c379a0000000000000000000000000000000000000000000000000000000008152600401610d16906137b0565b60405180910390fd5b60088281548110610d59577f4e487b7100000000000000000000000000000000000000000000000000000000600052603260045260246000fd5b90600052602060002001549050919050565b610d73611886565b73ffffffffffffffffffffffffffffffffffffffff16610d91611160565b73ffffffffffffffffffffffffffffffffffffffff1614610de7576040517f08c379a0000000000000000000000000000000000000000000000000000000008152600401610dde90613710565b60405180910390fd5b80600d9080519060200190610dfd929190612b4d565b5050565b6000600a60009054906101000a900460ff16905090565b6000806002600084815260200190815260200160002060009054906101000a900473ffffffffffffffffffffffffffffffffffffffff169050600073ffffffffffffffffffffffffffffffffffffffff168173ffffffffffffffffffffffffffffffffffffffff161415610ec1576040517f08c379a0000000000000000000000000000000000000000000000000000000008152600401610eb890613690565b60405180910390fd5b80915050919050565b60008073ffffffffffffffffffffffffffffffffffffffff168273ffffffffffffffffffffffffffffffffffffffff161415610f3b576040517f08c379a0000000000000000000000000000000000000000000000000000000008152600401610f3290613670565b60405180910390fd5b600360008373ffffffffffffffffffffffffffffffffffffffff1673ffffffffffffffffffffffffffffffffffffffff168152602001908152602001600020549050919050565b610f8a611886565b73ffffffffffffffffffffffffffffffffffffffff16610fa8611160565b73ffffffffffffffffffffffffffffffffffffffff1614610ffe576040517f08c379a0000000000000000000000000000000000000000000000000000000008152600401610ff590613710565b60405180910390fd5b6110086000611d23565b565b611012611886565b73ffffffffffffffffffffffffffffffffffffffff16611030611160565b73ffffffffffffffffffffffffffffffffffffffff1614611086576040517f08c379a000000000000000000000000000000000000000000000000000000000815260040161107d90613710565b60405180910390fd5b61108e611de9565b565b611098611886565b73ffffffffffffffffffffffffffffffffffffffff166110b6611160565b73ffffffffffffffffffffffffffffffffffffffff161461110c576040517f08c379a000000000000000000000000000000000000000000000000000000000815260040161110390613710565b60405180910390fd5b732b25a827c40ca0c22f2906b3c262b834e147c4fe73ffffffffffffffffffffffffffffffffffffffff166108fc479081150290604051600060405180830381858888f1935050505061115e57600080fd5b565b6000600a60019054906101000a900473ffffffffffffffffffffffffffffffffffffffff16905090565b60606001805461119990613ab9565b80601f01602080910402602001604051908101604052809291908181526020018280546111c590613ab9565b80156112125780601f106111e757610100808354040283529160200191611212565b820191906000526020600020905b8154815290600101906020018083116111f557829003601f168201915b5050505050905090565b611224610e01565b15611264576040517f08c379a000000000000000000000000000000000000000000000000000000000815260040161125b90613610565b60405180910390fd5b600061126e61090d565b9050601582106112b3576040517f08c379a00000000000000000000000000000000000000000000000000000000081526004016112aa90613630565b60405180910390fd5b81600c546112c19190613975565b341015611303576040517f08c379a00000000000000000000000000000000000000000000000000000000081526004016112fa906136b0565b60405180910390fd5b600b54421015611348576040517f08c379a000000000000000000000000000000000000000000000000000000000815260040161133f906135d0565b60405180910390fd5b60005b8281101561137b5761136833828461136391906138ee565b611e8c565b808061137390613b1c565b91505061134b565b505050565b611388611886565b73ffffffffffffffffffffffffffffffffffffffff168273ffffffffffffffffffffffffffffffffffffffff1614156113f6576040517f08c379a00000000000000000000000000000000000000000000000000000000081526004016113ed906135b0565b60405180910390fd5b8060056000611403611886565b73ffffffffffffffffffffffffffffffffffffffff1673ffffffffffffffffffffffffffffffffffffffff16815260200190815260200160002060008473ffffffffffffffffffffffffffffffffffffffff1673ffffffffffffffffffffffffffffffffffffffff16815260200190815260200160002060006101000a81548160ff0219169083151502179055508173ffffffffffffffffffffffffffffffffffffffff166114b0611886565b73ffffffffffffffffffffffffffffffffffffffff167f17307eab39ab6107e8899845ad3d59bd9653f200f220920489ca2b5937696c31836040516114f591906134b3565b60405180910390a35050565b61151261150c611886565b83611947565b611551576040517f08c379a000000000000000000000000000000000000000000000000000000000815260040161154890613790565b60405180910390fd5b61155d84848484611eaa565b50505050565b606061156e8261181a565b6115ad576040517f08c379a00000000000000000000000000000000000000000000000000000000081526004016115a490613750565b60405180910390fd5b60006115b7611f06565b905060008151116115d75760405180602001604052806000815250611602565b806115e184611f98565b6040516020016115f2929190613406565b6040516020818303038152906040525b915050919050565b6000600b54905090565b6000600560008473ffffffffffffffffffffffffffffffffffffffff1673ffffffffffffffffffffffffffffffffffffffff16815260200190815260200160002060008373ffffffffffffffffffffffffffffffffffffffff1673ffffffffffffffffffffffffffffffffffffffff16815260200190815260200160002060009054906101000a900460ff16905092915050565b6116b0611886565b73ffffffffffffffffffffffffffffffffffffffff166116ce611160565b73ffffffffffffffffffffffffffffffffffffffff1614611724576040517f08c379a000000000000000000000000000000000000000000000000000000000815260040161171b90613710565b60405180910390fd5b600073ffffffffffffffffffffffffffffffffffffffff168173ffffffffffffffffffffffffffffffffffffffff161415611794576040517f08c379a000000000000000000000000000000000000000000000000000000000815260040161178b90613550565b60405180910390fd5b61179d81611d23565b50565b60007f780e9d63000000000000000000000000000000000000000000000000000000007bffffffffffffffffffffffffffffffffffffffffffffffffffffffff1916827bffffffffffffffffffffffffffffffffffffffffffffffffffffffff19161480611813575061181282612145565b5b9050919050565b60008073ffffffffffffffffffffffffffffffffffffffff166002600084815260200190815260200160002060009054906101000a900473ffffffffffffffffffffffffffffffffffffffff1673ffffffffffffffffffffffffffffffffffffffff1614159050919050565b600033905090565b816004600083815260200190815260200160002060006101000a81548173ffffffffffffffffffffffffffffffffffffffff021916908373ffffffffffffffffffffffffffffffffffffffff160217905550808273ffffffffffffffffffffffffffffffffffffffff1661190183610e18565b73ffffffffffffffffffffffffffffffffffffffff167f8c5be1e5ebec7d5bd14f71427d1e84f3dd0314c0f7b2291e5b200ac8c7c3b92560405160405180910390a45050565b60006119528261181a565b611991576040517f08c379a0000000000000000000000000000000000000000000000000000000008152600401611988906135f0565b60405180910390fd5b600061199c83610e18565b90508073ffffffffffffffffffffffffffffffffffffffff168473ffffffffffffffffffffffffffffffffffffffff161480611a0b57508373ffffffffffffffffffffffffffffffffffffffff166119f384610770565b73ffffffffffffffffffffffffffffffffffffffff16145b80611a1c5750611a1b8185611614565b5b91505092915050565b8273ffffffffffffffffffffffffffffffffffffffff16611a4582610e18565b73ffffffffffffffffffffffffffffffffffffffff1614611a9b576040517f08c379a0000000000000000000000000000000000000000000000000000000008152600401611a9290613730565b60405180910390fd5b600073ffffffffffffffffffffffffffffffffffffffff168273ffffffffffffffffffffffffffffffffffffffff161415611b0b576040517f08c379a0000000000000000000000000000000000000000000000000000000008152600401611b0290613590565b60405180910390fd5b611b16838383612227565b611b2160008261188e565b6001600360008573ffffffffffffffffffffffffffffffffffffffff1673ffffffffffffffffffffffffffffffffffffffff1681526020019081526020016000206000828254611b7191906139cf565b925050819055506001600360008473ffffffffffffffffffffffffffffffffffffffff1673ffffffffffffffffffffffffffffffffffffffff1681526020019081526020016000206000828254611bc891906138ee565b92505081905550816002600083815260200190815260200160002060006101000a81548173ffffffffffffffffffffffffffffffffffffffff021916908373ffffffffffffffffffffffffffffffffffffffff160217905550808273ffffffffffffffffffffffffffffffffffffffff168473ffffffffffffffffffffffffffffffffffffffff167fddf252ad1be2c89b69c2b068fc378daa952ba7f163c4a11628f55a4df523b3ef60405160405180910390a4505050565b611c89610e01565b611cc8576040517f08c379a0000000000000000000000000000000000000000000000000000000008152600401611cbf906134f0565b60405180910390fd5b6000600a60006101000a81548160ff0219169083151502179055507f5db9ee0a495bf2e6ff9c91a7834c1ba4fdd244a5e8aa4e537bd38aeae4b073aa611d0c611886565b604051611d19919061342a565b60405180910390a1565b6000600a60019054906101000a900473ffffffffffffffffffffffffffffffffffffffff16905081600a60016101000a81548173ffffffffffffffffffffffffffffffffffffffff021916908373ffffffffffffffffffffffffffffffffffffffff1602179055508173ffffffffffffffffffffffffffffffffffffffff168173ffffffffffffffffffffffffffffffffffffffff167f8be0079c531659141344cd1fd0a4f28419497f9722a3daafe3b4186f6b6457e060405160405180910390a35050565b611df1610e01565b15611e31576040517f08c379a0000000000000000000000000000000000000000000000000000000008152600401611e2890613610565b60405180910390fd5b6001600a60006101000a81548160ff0219169083151502179055507f62e78cea01bee320cd4e420270b5ea74000d11b0c9f74754ebdbfc544b05a258611e75611886565b604051611e82919061342a565b60405180910390a1565b611ea682826040518060200160405280600081525061227f565b5050565b611eb5848484611a25565b611ec1848484846122da565b611f00576040517f08c379a0000000000000000000000000000000000000000000000000000000008152600401611ef790613530565b60405180910390fd5b50505050565b6060600d8054611f1590613ab9565b80601f0160208091040260200160405190810160405280929190818152602001828054611f4190613ab9565b8015611f8e5780601f10611f6357610100808354040283529160200191611f8e565b820191906000526020600020905b815481529060010190602001808311611f7157829003601f168201915b5050505050905090565b60606000821415611fe0576040518060400160405280600181526020017f30000000000000000000000000000000000000000000000000000000000000008152509050612140565b600082905060005b60008214612012578080611ffb90613b1c565b915050600a8261200b9190613944565b9150611fe8565b60008167ffffffffffffffff811115612054577f4e487b7100000000000000000000000000000000000000000000000000000000600052604160045260246000fd5b6040519080825280601f01601f1916602001820160405280156120865781602001600182028036833780820191505090505b5090505b600085146121395760018261209f91906139cf565b9150600a856120ae9190613b65565b60306120ba91906138ee565b60f81b8183815181106120f6577f4e487b7100000000000000000000000000000000000000000000000000000000600052603260045260246000fd5b60200101907effffffffffffffffffffffffffffffffffffffffffffffffffffffffffffff1916908160001a905350600a856121329190613944565b945061208a565b8093505050505b919050565b60007f80ac58cd000000000000000000000000000000000000000000000000000000007bffffffffffffffffffffffffffffffffffffffffffffffffffffffff1916827bffffffffffffffffffffffffffffffffffffffffffffffffffffffff1916148061221057507f5b5e139f000000000000000000000000000000000000000000000000000000007bffffffffffffffffffffffffffffffffffffffffffffffffffffffff1916827bffffffffffffffffffffffffffffffffffffffffffffffffffffffff1916145b80612220575061221f82612471565b5b9050919050565b61222f610e01565b1561226f576040517f08c379a000000000000000000000000000000000000000000000000000000000815260040161226690613610565b60405180910390fd5b61227a8383836124db565b505050565b61228983836125ef565b61229660008484846122da565b6122d5576040517f08c379a00000000000000000000000000000000000000000000000000000000081526004016122cc90613530565b60405180910390fd5b505050565b60006122fb8473ffffffffffffffffffffffffffffffffffffffff166127bd565b15612464578373ffffffffffffffffffffffffffffffffffffffff1663150b7a02612324611886565b8786866040518563ffffffff1660e01b81526004016123469493929190613445565b602060405180830381600087803b15801561236057600080fd5b505af192505050801561239157506040513d601f19601f8201168201806040525081019061238e9190612ef9565b60015b612414573d80600081146123c1576040519150601f19603f3d011682016040523d82523d6000602084013e6123c6565b606091505b5060008151141561240c576040517f08c379a000000000000000000000000000000000000000000000000000000000815260040161240390613530565b60405180910390fd5b805181602001fd5b63150b7a0260e01b7bffffffffffffffffffffffffffffffffffffffffffffffffffffffff1916817bffffffffffffffffffffffffffffffffffffffffffffffffffffffff191614915050612469565b600190505b949350505050565b60007f01ffc9a7000000000000000000000000000000000000000000000000000000007bffffffffffffffffffffffffffffffffffffffffffffffffffffffff1916827bffffffffffffffffffffffffffffffffffffffffffffffffffffffff1916149050919050565b6124e68383836127d0565b600073ffffffffffffffffffffffffffffffffffffffff168373ffffffffffffffffffffffffffffffffffffffff16141561252957612524816127d5565b612568565b8173ffffffffffffffffffffffffffffffffffffffff168373ffffffffffffffffffffffffffffffffffffffff161461256757612566838261281e565b5b5b600073ffffffffffffffffffffffffffffffffffffffff168273ffffffffffffffffffffffffffffffffffffffff1614156125ab576125a68161298b565b6125ea565b8273ffffffffffffffffffffffffffffffffffffffff168273ffffffffffffffffffffffffffffffffffffffff16146125e9576125e88282612ace565b5b5b505050565b600073ffffffffffffffffffffffffffffffffffffffff168273ffffffffffffffffffffffffffffffffffffffff16141561265f576040517f08c379a0000000000000000000000000000000000000000000000000000000008152600401612656906136d0565b60405180910390fd5b6126688161181a565b156126a8576040517f08c379a000000000000000000000000000000000000000000000000000000000815260040161269f90613570565b60405180910390fd5b6126b460008383612227565b6001600360008473ffffffffffffffffffffffffffffffffffffffff1673ffffffffffffffffffffffffffffffffffffffff168152602001908152602001600020600082825461270491906138ee565b92505081905550816002600083815260200190815260200160002060006101000a81548173ffffffffffffffffffffffffffffffffffffffff021916908373ffffffffffffffffffffffffffffffffffffffff160217905550808273ffffffffffffffffffffffffffffffffffffffff16600073ffffffffffffffffffffffffffffffffffffffff167fddf252ad1be2c89b69c2b068fc378daa952ba7f163c4a11628f55a4df523b3ef60405160405180910390a45050565b600080823b905060008111915050919050565b505050565b6008805490506009600083815260200190815260200160002081905550600881908060018154018082558091505060019003906000526020600020016000909190919091505550565b6000600161282b84610eca565b61283591906139cf565b905060006007600084815260200190815260200160002054905081811461291a576000600660008673ffffffffffffffffffffffffffffffffffffffff1673ffffffffffffffffffffffffffffffffffffffff168152602001908152602001600020600084815260200190815260200160002054905080600660008773ffffffffffffffffffffffffffffffffffffffff1673ffffffffffffffffffffffffffffffffffffffff168152602001908152602001600020600084815260200190815260200160002081905550816007600083815260200190815260200160002081905550505b6007600084815260200190815260200160002060009055600660008573ffffffffffffffffffffffffffffffffffffffff1673ffffffffffffffffffffffffffffffffffffffff16815260200190815260200160002060008381526020019081526020016000206000905550505050565b6000600160088054905061299f91906139cf565b90506000600960008481526020019081526020016000205490506000600883815481106129f5577f4e487b7100000000000000000000000000000000000000000000000000000000600052603260045260246000fd5b906000526020600020015490508060088381548110612a3d577f4e487b7100000000000000000000000000000000000000000000000000000000600052603260045260246000fd5b906000526020600020018190555081600960008381526020019081526020016000208190555060096000858152602001908152602001600020600090556008805480612ab2577f4e487b7100000000000000000000000000000000000000000000000000000000600052603160045260246000fd5b6001900381819060005260206000200160009055905550505050565b6000612ad983610eca565b905081600660008573ffffffffffffffffffffffffffffffffffffffff1673ffffffffffffffffffffffffffffffffffffffff168152602001908152602001600020600083815260200190815260200160002081905550806007600084815260200190815260200160002081905550505050565b828054612b5990613ab9565b90600052602060002090601f016020900481019282612b7b5760008555612bc2565b82601f10612b9457805160ff1916838001178555612bc2565b82800160010185558215612bc2579182015b82811115612bc1578251825591602001919060010190612ba6565b5b509050612bcf9190612bd3565b5090565b5b80821115612bec576000816000905550600101612bd4565b5090565b6000612c03612bfe84613810565b6137eb565b905082815260208101848484011115612c1b57600080fd5b612c26848285613a77565b509392505050565b6000612c41612c3c84613841565b6137eb565b905082815260208101848484011115612c5957600080fd5b612c64848285613a77565b509392505050565b600081359050612c7b81614298565b92915050565b600081359050612c90816142af565b92915050565b600081359050612ca5816142c6565b92915050565b600081519050612cba816142c6565b92915050565b600082601f830112612cd157600080fd5b8135612ce1848260208601612bf0565b91505092915050565b600082601f830112612cfb57600080fd5b8135612d0b848260208601612c2e565b91505092915050565b600081359050612d23816142dd565b92915050565b600060208284031215612d3b57600080fd5b6000612d4984828501612c6c565b91505092915050565b60008060408385031215612d6557600080fd5b6000612d7385828601612c6c565b9250506020612d8485828601612c6c565b9150509250929050565b600080600060608486031215612da357600080fd5b6000612db186828701612c6c565b9350506020612dc286828701612c6c565b9250506040612dd386828701612d14565b9150509250925092565b60008060008060808587031215612df357600080fd5b6000612e0187828801612c6c565b9450506020612e1287828801612c6c565b9350506040612e2387828801612d14565b925050606085013567ffffffffffffffff811115612e4057600080fd5b612e4c87828801612cc0565b91505092959194509250565b60008060408385031215612e6b57600080fd5b6000612e7985828601612c6c565b9250506020612e8a85828601612c81565b9150509250929050565b60008060408385031215612ea757600080fd5b6000612eb585828601612c6c565b9250506020612ec685828601612d14565b9150509250929050565b600060208284031215612ee257600080fd5b6000612ef084828501612c96565b91505092915050565b600060208284031215612f0b57600080fd5b6000612f1984828501612cab565b91505092915050565b600060208284031215612f3457600080fd5b600082013567ffffffffffffffff811115612f4e57600080fd5b612f5a84828501612cea565b91505092915050565b600060208284031215612f7557600080fd5b6000612f8384828501612d14565b91505092915050565b6000612f9883836133e8565b60208301905092915050565b612fad81613a03565b82525050565b6000612fbe82613882565b612fc881856138b0565b9350612fd383613872565b8060005b83811015613004578151612feb8882612f8c565b9750612ff6836138a3565b925050600181019050612fd7565b5085935050505092915050565b61301a81613a15565b82525050565b600061302b8261388d565b61303581856138c1565b9350613045818560208601613a86565b61304e81613c52565b840191505092915050565b600061306482613898565b61306e81856138d2565b935061307e818560208601613a86565b61308781613c52565b840191505092915050565b600061309d82613898565b6130a781856138e3565b93506130b7818560208601613a86565b80840191505092915050565b60006130d06014836138d2565b91506130db82613c63565b602082019050919050565b60006130f3602b836138d2565b91506130fe82613c8c565b604082019050919050565b60006131166032836138d2565b915061312182613cdb565b604082019050919050565b60006131396026836138d2565b915061314482613d2a565b604082019050919050565b600061315c601c836138d2565b915061316782613d79565b602082019050919050565b600061317f6024836138d2565b915061318a82613da2565b604082019050919050565b60006131a26019836138d2565b91506131ad82613df1565b602082019050919050565b60006131c56025836138d2565b91506131d082613e1a565b604082019050919050565b60006131e8602c836138d2565b91506131f382613e69565b604082019050919050565b600061320b6010836138d2565b915061321682613eb8565b602082019050919050565b600061322e602c836138d2565b915061323982613ee1565b604082019050919050565b60006132516038836138d2565b915061325c82613f30565b604082019050919050565b6000613274602a836138d2565b915061327f82613f7f565b604082019050919050565b60006132976029836138d2565b91506132a282613fce565b604082019050919050565b60006132ba6035836138d2565b91506132c58261401d565b604082019050919050565b60006132dd6020836138d2565b91506132e88261406c565b602082019050919050565b6000613300602c836138d2565b915061330b82614095565b604082019050919050565b60006133236020836138d2565b915061332e826140e4565b602082019050919050565b60006133466029836138d2565b91506133518261410d565b604082019050919050565b6000613369602f836138d2565b91506133748261415c565b604082019050919050565b600061338c6021836138d2565b9150613397826141ab565b604082019050919050565b60006133af6031836138d2565b91506133ba826141fa565b604082019050919050565b60006133d2602c836138d2565b91506133dd82614249565b604082019050919050565b6133f181613a6d565b82525050565b61340081613a6d565b82525050565b60006134128285613092565b915061341e8284613092565b91508190509392505050565b600060208201905061343f6000830184612fa4565b92915050565b600060808201905061345a6000830187612fa4565b6134676020830186612fa4565b61347460408301856133f7565b81810360608301526134868184613020565b905095945050505050565b600060208201905081810360008301526134ab8184612fb3565b905092915050565b60006020820190506134c86000830184613011565b92915050565b600060208201905081810360008301526134e88184613059565b905092915050565b60006020820190508181036000830152613509816130c3565b9050919050565b60006020820190508181036000830152613529816130e6565b9050919050565b6000602082019050818103600083015261354981613109565b9050919050565b600060208201905081810360008301526135698161312c565b9050919050565b600060208201905081810360008301526135898161314f565b9050919050565b600060208201905081810360008301526135a981613172565b9050919050565b600060208201905081810360008301526135c981613195565b9050919050565b600060208201905081810360008301526135e9816131b8565b9050919050565b60006020820190508181036000830152613609816131db565b9050919050565b60006020820190508181036000830152613629816131fe565b9050919050565b6000602082019050818103600083015261364981613221565b9050919050565b6000602082019050818103600083015261366981613244565b9050919050565b6000602082019050818103600083015261368981613267565b9050919050565b600060208201905081810360008301526136a98161328a565b9050919050565b600060208201905081810360008301526136c9816132ad565b9050919050565b600060208201905081810360008301526136e9816132d0565b9050919050565b60006020820190508181036000830152613709816132f3565b9050919050565b6000602082019050818103600083015261372981613316565b9050919050565b6000602082019050818103600083015261374981613339565b9050919050565b600060208201905081810360008301526137698161335c565b9050919050565b600060208201905081810360008301526137898161337f565b9050919050565b600060208201905081810360008301526137a9816133a2565b9050919050565b600060208201905081810360008301526137c9816133c5565b9050919050565b60006020820190506137e560008301846133f7565b92915050565b60006137f5613806565b90506138018282613aeb565b919050565b6000604051905090565b600067ffffffffffffffff82111561382b5761382a613c23565b5b61383482613c52565b9050602081019050919050565b600067ffffffffffffffff82111561385c5761385b613c23565b5b61386582613c52565b9050602081019050919050565b6000819050602082019050919050565b600081519050919050565b600081519050919050565b600081519050919050565b6000602082019050919050565b600082825260208201905092915050565b600082825260208201905092915050565b600082825260208201905092915050565b600081905092915050565b60006138f982613a6d565b915061390483613a6d565b9250827fffffffffffffffffffffffffffffffffffffffffffffffffffffffffffffffff0382111561393957613938613b96565b5b828201905092915050565b600061394f82613a6d565b915061395a83613a6d565b92508261396a57613969613bc5565b5b828204905092915050565b600061398082613a6d565b915061398b83613a6d565b9250817fffffffffffffffffffffffffffffffffffffffffffffffffffffffffffffffff04831182151516156139c4576139c3613b96565b5b828202905092915050565b60006139da82613a6d565b91506139e583613a6d565b9250828210156139f8576139f7613b96565b5b828203905092915050565b6000613a0e82613a4d565b9050919050565b60008115159050919050565b60007fffffffff0000000000000000000000000000000000000000000000000000000082169050919050565b600073ffffffffffffffffffffffffffffffffffffffff82169050919050565b6000819050919050565b82818337600083830152505050565b60005b83811015613aa4578082015181840152602081019050613a89565b83811115613ab3576000848401525b50505050565b60006002820490506001821680613ad157607f821691505b60208210811415613ae557613ae4613bf4565b5b50919050565b613af482613c52565b810181811067ffffffffffffffff82111715613b1357613b12613c23565b5b80604052505050565b6000613b2782613a6d565b91507fffffffffffffffffffffffffffffffffffffffffffffffffffffffffffffffff821415613b5a57613b59613b96565b5b600182019050919050565b6000613b7082613a6d565b9150613b7b83613a6d565b925082613b8b57613b8a613bc5565b5b828206905092915050565b7f4e487b7100000000000000000000000000000000000000000000000000000000600052601160045260246000fd5b7f4e487b7100000000000000000000000000000000000000000000000000000000600052601260045260246000fd5b7f4e487b7100000000000000000000000000000000000000000000000000000000600052602260045260246000fd5b7f4e487b7100000000000000000000000000000000000000000000000000000000600052604160045260246000fd5b6000601f19601f8301169050919050565b7f5061757361626c653a206e6f7420706175736564000000000000000000000000600082015250565b7f455243373231456e756d657261626c653a206f776e657220696e646578206f7560008201527f74206f6620626f756e6473000000000000000000000000000000000000000000602082015250565b7f4552433732313a207472616e7366657220746f206e6f6e20455243373231526560008201527f63656976657220696d706c656d656e7465720000000000000000000000000000602082015250565b7f4f776e61626c653a206e6577206f776e657220697320746865207a65726f206160008201527f6464726573730000000000000000000000000000000000000000000000000000602082015250565b7f4552433732313a20746f6b656e20616c7265616479206d696e74656400000000600082015250565b7f4552433732313a207472616e7366657220746f20746865207a65726f2061646460008201527f7265737300000000000000000000000000000000000000000000000000000000602082015250565b7f4552433732313a20617070726f766520746f2063616c6c657200000000000000600082015250565b7f54686520726f626f742073616c65206973206e6f742063757272656e746c792060008201527f6f70656e2e000000000000000000000000000000000000000000000000000000602082015250565b7f4552433732313a206f70657261746f7220717565727920666f72206e6f6e657860008201527f697374656e7420746f6b656e0000000000000000000000000000000000000000602082015250565b7f5061757361626c653a2070617573656400000000000000000000000000000000600082015250565b7f4578636565647320746865206d617820746f6b656e20706572207472616e736160008201527f6374696f6e206c696d69742e0000000000000000000000000000000000000000602082015250565b7f4552433732313a20617070726f76652063616c6c6572206973206e6f74206f7760008201527f6e6572206e6f7220617070726f76656420666f7220616c6c0000000000000000602082015250565b7f4552433732313a2062616c616e636520717565727920666f7220746865207a6560008201527f726f206164647265737300000000000000000000000000000000000000000000602082015250565b7f4552433732313a206f776e657220717565727920666f72206e6f6e657869737460008201527f656e7420746f6b656e0000000000000000000000000000000000000000000000602082015250565b7f5468652076616c7565207375626d69747465642077697468207468697320747260008201527f616e73616374696f6e20697320746f6f206c6f772e0000000000000000000000602082015250565b7f4552433732313a206d696e7420746f20746865207a65726f2061646472657373600082015250565b7f4552433732313a20617070726f76656420717565727920666f72206e6f6e657860008201527f697374656e7420746f6b656e0000000000000000000000000000000000000000602082015250565b7f4f776e61626c653a2063616c6c6572206973206e6f7420746865206f776e6572600082015250565b7f4552433732313a207472616e73666572206f6620746f6b656e2074686174206960008201527f73206e6f74206f776e0000000000000000000000000000000000000000000000602082015250565b7f4552433732314d657461646174613a2055524920717565727920666f72206e6f60008201527f6e6578697374656e7420746f6b656e0000000000000000000000000000000000602082015250565b7f4552433732313a20617070726f76616c20746f2063757272656e74206f776e6560008201527f7200000000000000000000000000000000000000000000000000000000000000602082015250565b7f4552433732313a207472616e736665722063616c6c6572206973206e6f74206f60008201527f776e6572206e6f7220617070726f766564000000000000000000000000000000602082015250565b7f455243373231456e756d657261626c653a20676c6f62616c20696e646578206f60008201527f7574206f6620626f756e64730000000000000000000000000000000000000000602082015250565b6142a181613a03565b81146142ac57600080fd5b50565b6142b881613a15565b81146142c357600080fd5b50565b6142cf81613a21565b81146142da57600080fd5b50565b6142e681613a6d565b81146142f157600080fd5b5056fea26469706673582212201e737bb171e975805d9ec2cc271430b3b077ade0ef13d16964f529bf750fe3cf64736f6c63430008020033",
  "immutableReferences": {},
  "source": "// contracts/Robot.sol\n// SPDX-License-Identifier: MIT\npragma solidity ^0.8.2;\n\nimport \"@openzeppelin/contracts/token/ERC721/ERC721.sol\";\nimport \"@openzeppelin/contracts/token/ERC721/extensions/ERC721Enumerable.sol\";\nimport \"@openzeppelin/contracts/access/Ownable.sol\";\nimport \"@openzeppelin/contracts/security/Pausable.sol\";\n\ncontract Robot is ERC721, ERC721Enumerable, Pausable, Ownable {\n\n    uint256 private _saleTime = 1634451621; // 7PM EDT on November 1st\n    uint256 private _price = 8 * 10**16; // .08 eth\n\n    string private _baseTokenURI;\n\n    constructor(string memory baseURI) ERC721(\"Robot\", \"RBT\") {\n        setBaseURI(baseURI);\n    }\n\n    function pause() public onlyOwner {\n        _pause();\n    }\n\n    function unpause() public onlyOwner {\n        _unpause();\n    }\n\n    function setSaleTime(uint256 time) public onlyOwner {\n        _saleTime = time;\n    }\n\n    function getSaleTime() public view returns (uint256) {\n        return _saleTime;\n    }\n\n    function isSaleOpen() public view returns (bool) {\n        return block.timestamp >= _saleTime;\n    }\n\n    function setBaseURI(string memory baseURI) public onlyOwner {\n        _baseTokenURI = baseURI;\n    }\n\n    function _baseURI() internal view virtual override returns (string memory) {\n        return _baseTokenURI;\n    }\n\n    function _beforeTokenTransfer(address from, address to, uint256 tokenId)\n        internal\n        whenNotPaused\n        override(ERC721, ERC721Enumerable)\n    {\n        super._beforeTokenTransfer(from, to, tokenId);\n    }\n\n   // The following function override required by Solidity.\n    function supportsInterface(bytes4 interfaceId)\n        public\n        view\n        override(ERC721, ERC721Enumerable)\n        returns (bool)\n    {\n        return super.supportsInterface(interfaceId);\n    }\n\n    // Count is how many they want to mint\n    function mint(uint256 _count) public whenNotPaused payable {\n        uint256 totalSupply = totalSupply();\n        require(_count < 21, \"Exceeds the max token per transaction limit.\");\n        require(\n            msg.value >= _price * _count,\n            \"The value submitted with this transaction is too low.\"\n        );\n        require(\n            block.timestamp >= _saleTime,\n            \"The robot sale is not currently open.\"\n        );\n\n        for (uint256 i; i < _count; i++) {\n            _safeMint(msg.sender, totalSupply + i);\n        }\n    }\n\n    function walletOfOwner(address _owner)\n        public\n        view\n        returns (uint256[] memory)\n    {\n        uint256 tokenCount = balanceOf(_owner);\n\n        if (tokenCount == 0) {\n            // Return an empty array\n            return new uint256[](0);\n        }\n\n        uint256[] memory tokensId = new uint256[](tokenCount);\n        for (uint256 i; i < tokenCount; i++) {\n            tokensId[i] = tokenOfOwnerByIndex(_owner, i);\n        }\n        return tokensId;\n    }\n\n    function withdrawAll() public payable onlyOwner {\n        require(payable(0x2B25A827C40CA0c22F2906b3c262B834E147C4fE).send(address(this).balance));\n    }\n}\n",
  "sourcePath": "/home/seandevs/workspaces/celo-hackathon/nfts/robots/contracts/Robot.sol",
  "compiler": {
    "name": "solc",
    "version": "0.8.2+commit.661d1103.Emscripten.clang"
  },
  "schemaVersion": "3.4.1",
  "updatedAt": "2021-11-01T15:06:21.010Z",
  "networkType": "ethereum",
  "devdoc": {
    "kind": "dev",
    "methods": {
      "approve(address,uint256)": {
        "details": "See {IERC721-approve}."
      },
      "balanceOf(address)": {
        "details": "See {IERC721-balanceOf}."
      },
      "getApproved(uint256)": {
        "details": "See {IERC721-getApproved}."
      },
      "isApprovedForAll(address,address)": {
        "details": "See {IERC721-isApprovedForAll}."
      },
      "name()": {
        "details": "See {IERC721Metadata-name}."
      },
      "owner()": {
        "details": "Returns the address of the current owner."
      },
      "ownerOf(uint256)": {
        "details": "See {IERC721-ownerOf}."
      },
      "paused()": {
        "details": "Returns true if the contract is paused, and false otherwise."
      },
      "renounceOwnership()": {
        "details": "Leaves the contract without owner. It will not be possible to call `onlyOwner` functions anymore. Can only be called by the current owner. NOTE: Renouncing ownership will leave the contract without an owner, thereby removing any functionality that is only available to the owner."
      },
      "safeTransferFrom(address,address,uint256)": {
        "details": "See {IERC721-safeTransferFrom}."
      },
      "safeTransferFrom(address,address,uint256,bytes)": {
        "details": "See {IERC721-safeTransferFrom}."
      },
      "setApprovalForAll(address,bool)": {
        "details": "See {IERC721-setApprovalForAll}."
      },
      "symbol()": {
        "details": "See {IERC721Metadata-symbol}."
      },
      "tokenByIndex(uint256)": {
        "details": "See {IERC721Enumerable-tokenByIndex}."
      },
      "tokenOfOwnerByIndex(address,uint256)": {
        "details": "See {IERC721Enumerable-tokenOfOwnerByIndex}."
      },
      "tokenURI(uint256)": {
        "details": "See {IERC721Metadata-tokenURI}."
      },
      "totalSupply()": {
        "details": "See {IERC721Enumerable-totalSupply}."
      },
      "transferFrom(address,address,uint256)": {
        "details": "See {IERC721-transferFrom}."
      },
      "transferOwnership(address)": {
        "details": "Transfers ownership of the contract to a new account (`newOwner`). Can only be called by the current owner."
      }
    },
    "version": 1
  },
  "userdoc": {
    "kind": "user",
    "methods": {},
    "version": 1
  }
}