{
  "contractName": "Robot",
  "abi": [
    {
      "inputs": [
        {
          "internalType": "string",
          "name": "baseURI",
          "type": "string"
        },
        {
          "internalType": "address payable",
          "name": "wallet",
          "type": "address"
        }
      ],
      "stateMutability": "nonpayable",
      "type": "constructor"
    },
    {
      "anonymous": false,
      "inputs": [
        {
          "indexed": true,
          "internalType": "address",
          "name": "owner",
          "type": "address"
        },
        {
          "indexed": true,
          "internalType": "address",
          "name": "approved",
          "type": "address"
        },
        {
          "indexed": true,
          "internalType": "uint256",
          "name": "tokenId",
          "type": "uint256"
        }
      ],
      "name": "Approval",
      "type": "event"
    },
    {
      "anonymous": false,
      "inputs": [
        {
          "indexed": true,
          "internalType": "address",
          "name": "owner",
          "type": "address"
        },
        {
          "indexed": true,
          "internalType": "address",
          "name": "operator",
          "type": "address"
        },
        {
          "indexed": false,
          "internalType": "bool",
          "name": "approved",
          "type": "bool"
        }
      ],
      "name": "ApprovalForAll",
      "type": "event"
    },
    {
      "anonymous": false,
      "inputs": [
        {
          "indexed": true,
          "internalType": "address",
          "name": "previousOwner",
          "type": "address"
        },
        {
          "indexed": true,
          "internalType": "address",
          "name": "newOwner",
          "type": "address"
        }
      ],
      "name": "OwnershipTransferred",
      "type": "event"
    },
    {
      "anonymous": false,
      "inputs": [
        {
          "indexed": false,
          "internalType": "address",
          "name": "account",
          "type": "address"
        }
      ],
      "name": "Paused",
      "type": "event"
    },
    {
      "anonymous": false,
      "inputs": [
        {
          "indexed": true,
          "internalType": "address",
          "name": "from",
          "type": "address"
        },
        {
          "indexed": true,
          "internalType": "address",
          "name": "to",
          "type": "address"
        },
        {
          "indexed": true,
          "internalType": "uint256",
          "name": "tokenId",
          "type": "uint256"
        }
      ],
      "name": "Transfer",
      "type": "event"
    },
    {
      "anonymous": false,
      "inputs": [
        {
          "indexed": false,
          "internalType": "address",
          "name": "account",
          "type": "address"
        }
      ],
      "name": "Unpaused",
      "type": "event"
    },
    {
      "anonymous": false,
      "inputs": [
        {
          "indexed": false,
          "internalType": "address",
          "name": "addr",
          "type": "address"
        }
      ],
      "name": "WhitelistedAddressAdded",
      "type": "event"
    },
    {
      "anonymous": false,
      "inputs": [
        {
          "indexed": false,
          "internalType": "address",
          "name": "addr",
          "type": "address"
        }
      ],
      "name": "WhitelistedAddressRemoved",
      "type": "event"
    },
    {
      "inputs": [],
      "name": "ROBOT_PRICE",
      "outputs": [
        {
          "internalType": "uint256",
          "name": "",
          "type": "uint256"
        }
      ],
      "stateMutability": "view",
      "type": "function",
      "constant": true
    },
    {
      "inputs": [
        {
          "internalType": "address",
          "name": "addr",
          "type": "address"
        }
      ],
      "name": "addAddressToWhitelist",
      "outputs": [
        {
          "internalType": "bool",
          "name": "success",
          "type": "bool"
        }
      ],
      "stateMutability": "nonpayable",
      "type": "function"
    },
    {
      "inputs": [
        {
          "internalType": "address[]",
          "name": "addrs",
          "type": "address[]"
        }
      ],
      "name": "addAddressesToWhitelist",
      "outputs": [
        {
          "internalType": "bool",
          "name": "success",
          "type": "bool"
        }
      ],
      "stateMutability": "nonpayable",
      "type": "function"
    },
    {
      "inputs": [
        {
          "internalType": "address",
          "name": "to",
          "type": "address"
        },
        {
          "internalType": "uint256",
          "name": "tokenId",
          "type": "uint256"
        }
      ],
      "name": "approve",
      "outputs": [],
      "stateMutability": "nonpayable",
      "type": "function"
    },
    {
      "inputs": [
        {
          "internalType": "address",
          "name": "owner",
          "type": "address"
        }
      ],
      "name": "balanceOf",
      "outputs": [
        {
          "internalType": "uint256",
          "name": "",
          "type": "uint256"
        }
      ],
      "stateMutability": "view",
      "type": "function",
      "constant": true
    },
    {
      "inputs": [
        {
          "internalType": "uint256",
          "name": "tokenId",
          "type": "uint256"
        }
      ],
      "name": "getApproved",
      "outputs": [
        {
          "internalType": "address",
          "name": "",
          "type": "address"
        }
      ],
      "stateMutability": "view",
      "type": "function",
      "constant": true
    },
    {
      "inputs": [
        {
          "internalType": "address",
          "name": "owner",
          "type": "address"
        },
        {
          "internalType": "address",
          "name": "operator",
          "type": "address"
        }
      ],
      "name": "isApprovedForAll",
      "outputs": [
        {
          "internalType": "bool",
          "name": "",
          "type": "bool"
        }
      ],
      "stateMutability": "view",
      "type": "function",
      "constant": true
    },
    {
      "inputs": [],
      "name": "name",
      "outputs": [
        {
          "internalType": "string",
          "name": "",
          "type": "string"
        }
      ],
      "stateMutability": "view",
      "type": "function",
      "constant": true
    },
    {
      "inputs": [],
      "name": "owner",
      "outputs": [
        {
          "internalType": "address",
          "name": "",
          "type": "address"
        }
      ],
      "stateMutability": "view",
      "type": "function",
      "constant": true
    },
    {
      "inputs": [
        {
          "internalType": "uint256",
          "name": "tokenId",
          "type": "uint256"
        }
      ],
      "name": "ownerOf",
      "outputs": [
        {
          "internalType": "address",
          "name": "",
          "type": "address"
        }
      ],
      "stateMutability": "view",
      "type": "function",
      "constant": true
    },
    {
      "inputs": [],
      "name": "paused",
      "outputs": [
        {
          "internalType": "bool",
          "name": "",
          "type": "bool"
        }
      ],
      "stateMutability": "view",
      "type": "function",
      "constant": true
    },
    {
      "inputs": [
        {
          "internalType": "address",
          "name": "addr",
          "type": "address"
        }
      ],
      "name": "removeAddressFromWhitelist",
      "outputs": [
        {
          "internalType": "bool",
          "name": "success",
          "type": "bool"
        }
      ],
      "stateMutability": "nonpayable",
      "type": "function"
    },
    {
      "inputs": [
        {
          "internalType": "address[]",
          "name": "addrs",
          "type": "address[]"
        }
      ],
      "name": "removeAddressesFromWhitelist",
      "outputs": [
        {
          "internalType": "bool",
          "name": "success",
          "type": "bool"
        }
      ],
      "stateMutability": "nonpayable",
      "type": "function"
    },
    {
      "inputs": [],
      "name": "renounceOwnership",
      "outputs": [],
      "stateMutability": "nonpayable",
      "type": "function"
    },
    {
      "inputs": [
        {
          "internalType": "uint256",
          "name": "",
          "type": "uint256"
        }
      ],
      "name": "robots",
      "outputs": [
        {
          "internalType": "uint256",
          "name": "robotIndex",
          "type": "uint256"
        },
        {
          "internalType": "uint256",
          "name": "wins",
          "type": "uint256"
        },
        {
          "internalType": "uint256",
          "name": "losses",
          "type": "uint256"
        },
        {
          "internalType": "enum Robot.State",
          "name": "state",
          "type": "uint8"
        },
        {
          "internalType": "string",
          "name": "robotName",
          "type": "string"
        },
        {
          "internalType": "string",
          "name": "robotType",
          "type": "string"
        },
        {
          "internalType": "uint256",
          "name": "health",
          "type": "uint256"
        },
        {
          "internalType": "uint256",
          "name": "strength",
          "type": "uint256"
        },
        {
          "internalType": "uint256",
          "name": "agility",
          "type": "uint256"
        },
        {
          "internalType": "uint256",
          "name": "ai",
          "type": "uint256"
        },
        {
          "internalType": "uint256",
          "name": "defense",
          "type": "uint256"
        }
      ],
      "stateMutability": "view",
      "type": "function",
      "constant": true
    },
    {
      "inputs": [
        {
          "internalType": "address",
          "name": "from",
          "type": "address"
        },
        {
          "internalType": "address",
          "name": "to",
          "type": "address"
        },
        {
          "internalType": "uint256",
          "name": "tokenId",
          "type": "uint256"
        }
      ],
      "name": "safeTransferFrom",
      "outputs": [],
      "stateMutability": "nonpayable",
      "type": "function"
    },
    {
      "inputs": [
        {
          "internalType": "address",
          "name": "from",
          "type": "address"
        },
        {
          "internalType": "address",
          "name": "to",
          "type": "address"
        },
        {
          "internalType": "uint256",
          "name": "tokenId",
          "type": "uint256"
        },
        {
          "internalType": "bytes",
          "name": "_data",
          "type": "bytes"
        }
      ],
      "name": "safeTransferFrom",
      "outputs": [],
      "stateMutability": "nonpayable",
      "type": "function"
    },
    {
      "inputs": [
        {
          "internalType": "address",
          "name": "operator",
          "type": "address"
        },
        {
          "internalType": "bool",
          "name": "approved",
          "type": "bool"
        }
      ],
      "name": "setApprovalForAll",
      "outputs": [],
      "stateMutability": "nonpayable",
      "type": "function"
    },
    {
      "inputs": [],
      "name": "symbol",
      "outputs": [
        {
          "internalType": "string",
          "name": "",
          "type": "string"
        }
      ],
      "stateMutability": "view",
      "type": "function",
      "constant": true
    },
    {
      "inputs": [
        {
          "internalType": "uint256",
          "name": "index",
          "type": "uint256"
        }
      ],
      "name": "tokenByIndex",
      "outputs": [
        {
          "internalType": "uint256",
          "name": "",
          "type": "uint256"
        }
      ],
      "stateMutability": "view",
      "type": "function",
      "constant": true
    },
    {
      "inputs": [
        {
          "internalType": "address",
          "name": "owner",
          "type": "address"
        },
        {
          "internalType": "uint256",
          "name": "index",
          "type": "uint256"
        }
      ],
      "name": "tokenOfOwnerByIndex",
      "outputs": [
        {
          "internalType": "uint256",
          "name": "",
          "type": "uint256"
        }
      ],
      "stateMutability": "view",
      "type": "function",
      "constant": true
    },
    {
      "inputs": [],
      "name": "totalSupply",
      "outputs": [
        {
          "internalType": "uint256",
          "name": "",
          "type": "uint256"
        }
      ],
      "stateMutability": "view",
      "type": "function",
      "constant": true
    },
    {
      "inputs": [
        {
          "internalType": "address",
          "name": "from",
          "type": "address"
        },
        {
          "internalType": "address",
          "name": "to",
          "type": "address"
        },
        {
          "internalType": "uint256",
          "name": "tokenId",
          "type": "uint256"
        }
      ],
      "name": "transferFrom",
      "outputs": [],
      "stateMutability": "nonpayable",
      "type": "function"
    },
    {
      "inputs": [
        {
          "internalType": "address",
          "name": "newOwner",
          "type": "address"
        }
      ],
      "name": "transferOwnership",
      "outputs": [],
      "stateMutability": "nonpayable",
      "type": "function"
    },
    {
      "inputs": [
        {
          "internalType": "address",
          "name": "",
          "type": "address"
        }
      ],
      "name": "whitelist",
      "outputs": [
        {
          "internalType": "bool",
          "name": "",
          "type": "bool"
        }
      ],
      "stateMutability": "view",
      "type": "function",
      "constant": true
    },
    {
      "inputs": [],
      "name": "pause",
      "outputs": [],
      "stateMutability": "nonpayable",
      "type": "function"
    },
    {
      "inputs": [],
      "name": "unpause",
      "outputs": [],
      "stateMutability": "nonpayable",
      "type": "function"
    },
    {
      "inputs": [
        {
          "internalType": "string",
          "name": "baseURI",
          "type": "string"
        }
      ],
      "name": "setBaseURI",
      "outputs": [],
      "stateMutability": "nonpayable",
      "type": "function"
    },
    {
      "inputs": [
        {
          "internalType": "uint256",
          "name": "tokenId",
          "type": "uint256"
        }
      ],
      "name": "tokenURI",
      "outputs": [
        {
          "internalType": "string",
          "name": "",
          "type": "string"
        }
      ],
      "stateMutability": "view",
      "type": "function",
      "constant": true
    },
    {
      "inputs": [
        {
          "internalType": "bytes4",
          "name": "interfaceId",
          "type": "bytes4"
        }
      ],
      "name": "supportsInterface",
      "outputs": [
        {
          "internalType": "bool",
          "name": "",
          "type": "bool"
        }
      ],
      "stateMutability": "view",
      "type": "function",
      "constant": true
    },
    {
      "inputs": [
        {
          "internalType": "uint256",
          "name": "botType",
          "type": "uint256"
        }
      ],
      "name": "mint",
      "outputs": [],
      "stateMutability": "payable",
      "type": "function",
      "payable": true
    },
    {
      "inputs": [
        {
          "internalType": "uint256",
          "name": "winningRobotIndex",
          "type": "uint256"
        },
        {
          "internalType": "uint256",
          "name": "losingRobotIndex",
          "type": "uint256"
        }
      ],
      "name": "updateRobotsRecords",
      "outputs": [],
      "stateMutability": "nonpayable",
      "type": "function"
    },
    {
      "inputs": [
        {
          "internalType": "uint256",
          "name": "robotIndex",
          "type": "uint256"
        },
        {
          "internalType": "string",
          "name": "value",
          "type": "string"
        }
      ],
      "name": "updateRobotName",
      "outputs": [],
      "stateMutability": "nonpayable",
      "type": "function"
    },
    {
      "inputs": [
        {
          "internalType": "uint256",
          "name": "robotIndex",
          "type": "uint256"
        },
        {
          "internalType": "uint256",
          "name": "value",
          "type": "uint256"
        }
      ],
      "name": "updateRobotHealth",
      "outputs": [],
      "stateMutability": "nonpayable",
      "type": "function"
    },
    {
      "inputs": [
        {
          "internalType": "uint256",
          "name": "robotIndex",
          "type": "uint256"
        },
        {
          "internalType": "uint256",
          "name": "value",
          "type": "uint256"
        }
      ],
      "name": "updateRobotStrength",
      "outputs": [],
      "stateMutability": "nonpayable",
      "type": "function"
    },
    {
      "inputs": [
        {
          "internalType": "uint256",
          "name": "robotIndex",
          "type": "uint256"
        },
        {
          "internalType": "uint256",
          "name": "value",
          "type": "uint256"
        }
      ],
      "name": "updateRobotAgility",
      "outputs": [],
      "stateMutability": "nonpayable",
      "type": "function"
    },
    {
      "inputs": [
        {
          "internalType": "uint256",
          "name": "robotIndex",
          "type": "uint256"
        },
        {
          "internalType": "uint256",
          "name": "value",
          "type": "uint256"
        }
      ],
      "name": "updateRobotAi",
      "outputs": [],
      "stateMutability": "nonpayable",
      "type": "function"
    },
    {
      "inputs": [
        {
          "internalType": "uint256",
          "name": "robotIndex",
          "type": "uint256"
        },
        {
          "internalType": "uint256",
          "name": "value",
          "type": "uint256"
        }
      ],
      "name": "updateRobotDefense",
      "outputs": [],
      "stateMutability": "nonpayable",
      "type": "function"
    },
    {
      "inputs": [
        {
          "internalType": "uint256",
          "name": "robotIndex",
          "type": "uint256"
        }
      ],
      "name": "setRobotAsFighter",
      "outputs": [],
      "stateMutability": "nonpayable",
      "type": "function"
    },
    {
      "inputs": [
        {
          "internalType": "uint256",
          "name": "robotIndex",
          "type": "uint256"
        }
      ],
      "name": "setRobotAsTrainer",
      "outputs": [],
      "stateMutability": "nonpayable",
      "type": "function"
    },
    {
      "inputs": [
        {
          "internalType": "uint256",
          "name": "robotIndex",
          "type": "uint256"
        }
      ],
      "name": "setRobotAsRetired",
      "outputs": [],
      "stateMutability": "nonpayable",
      "type": "function"
    },
    {
      "inputs": [
        {
          "internalType": "address",
          "name": "_owner",
          "type": "address"
        }
      ],
      "name": "walletOfOwner",
      "outputs": [
        {
          "internalType": "uint256[]",
          "name": "",
          "type": "uint256[]"
        }
      ],
      "stateMutability": "view",
      "type": "function",
      "constant": true
    },
    {
      "inputs": [],
      "name": "withdrawAll",
      "outputs": [],
      "stateMutability": "payable",
      "type": "function",
      "payable": true
    }
  ],
  "bytecode": "0x6080604052674563918244f40000600d5560405180608001604052806040518060400160405280600681526020017f526f626f7431000000000000000000000000000000000000000000000000000081525081526020016040518060400160405280600681526020017f526f626f7432000000000000000000000000000000000000000000000000000081525081526020016040518060400160405280600681526020017f526f626f7433000000000000000000000000000000000000000000000000000081525081526020016040518060400160405280600681526020017f526f626f7434000000000000000000000000000000000000000000000000000081525081525060109060046200011792919062000743565b5060405180608001604052806040518060400160405280600481526020017f54616e6b0000000000000000000000000000000000000000000000000000000081525081526020016040518060400160405280600681526020017f537065656479000000000000000000000000000000000000000000000000000081525081526020016040518060400160405280600881526020017f446566656e64657200000000000000000000000000000000000000000000000081525081526020016040518060400160405280600881526020017f41747461636b657200000000000000000000000000000000000000000000000081525081525060119060046200021f92919062000743565b506040518060800160405280601460ff168152602001600a60ff168152602001600a60ff168152602001601460ff16815250601290600462000263929190620007aa565b506040518060800160405280600a60ff168152602001601460ff168152602001600a60ff168152602001601460ff168152506013906004620002a7929190620007aa565b506040518060800160405280600a60ff168152602001601460ff168152602001601460ff168152602001600a60ff168152506014906004620002eb929190620007aa565b506040518060800160405280601460ff168152602001600a60ff168152602001601460ff168152602001600a60ff1681525060159060046200032f929190620007aa565b5060405180608001604052806040518060400160405280600681526020017f302e6a736f6e000000000000000000000000000000000000000000000000000081525081526020016040518060400160405280600681526020017f312e6a736f6e000000000000000000000000000000000000000000000000000081525081526020016040518060400160405280600681526020017f322e6a736f6e000000000000000000000000000000000000000000000000000081525081526020016040518060400160405280600681526020017f332e6a736f6e000000000000000000000000000000000000000000000000000081525081525060179060046200043792919062000743565b503480156200044557600080fd5b5060405162006b3d38038062006b3d83398181016040528101906200046b9190620009a8565b6040518060400160405280600581526020017f526f626f740000000000000000000000000000000000000000000000000000008152506040518060400160405280600381526020017f52425400000000000000000000000000000000000000000000000000000000008152508160009080519060200190620004ef92919062000801565b5080600190805190602001906200050892919062000801565b5050506000600b60006101000a81548160ff021916908315150217905550620005466200053a620005a060201b60201c565b620005a860201b60201c565b62000557826200066e60201b60201c565b80600f60006101000a81548173ffffffffffffffffffffffffffffffffffffffff021916908373ffffffffffffffffffffffffffffffffffffffff160217905550505062000c43565b600033905090565b6000600b60019054906101000a900473ffffffffffffffffffffffffffffffffffffffff16905081600b60016101000a81548173ffffffffffffffffffffffffffffffffffffffff021916908373ffffffffffffffffffffffffffffffffffffffff1602179055508173ffffffffffffffffffffffffffffffffffffffff168173ffffffffffffffffffffffffffffffffffffffff167f8be0079c531659141344cd1fd0a4f28419497f9722a3daafe3b4186f6b6457e060405160405180910390a35050565b6200067e620005a060201b60201c565b73ffffffffffffffffffffffffffffffffffffffff16620006a46200071960201b60201c565b73ffffffffffffffffffffffffffffffffffffffff1614620006fd576040517f08c379a0000000000000000000000000000000000000000000000000000000008152600401620006f49062000a29565b60405180910390fd5b80600e90805190602001906200071592919062000801565b5050565b6000600b60019054906101000a900473ffffffffffffffffffffffffffffffffffffffff16905090565b82805482825590600052602060002090810192821562000797579160200282015b82811115620007965782518290805190602001906200078592919062000801565b509160200191906001019062000764565b5b509050620007a6919062000892565b5090565b828054828255906000526020600020908101928215620007ee579160200282015b82811115620007ed578251829060ff16905591602001919060010190620007cb565b5b509050620007fd9190620008ba565b5090565b8280546200080f9062000b25565b90600052602060002090601f0160209004810192826200083357600085556200087f565b82601f106200084e57805160ff19168380011785556200087f565b828001600101855582156200087f579182015b828111156200087e57825182559160200191906001019062000861565b5b5090506200088e9190620008ba565b5090565b5b80821115620008b65760008181620008ac9190620008d9565b5060010162000893565b5090565b5b80821115620008d5576000816000905550600101620008bb565b5090565b508054620008e79062000b25565b6000825580601f10620008fb57506200091c565b601f0160209004906000526020600020908101906200091b9190620008ba565b5b50565b600062000936620009308462000a74565b62000a4b565b9050828152602081018484840111156200094f57600080fd5b6200095c84828562000aef565b509392505050565b600081519050620009758162000c29565b92915050565b600082601f8301126200098d57600080fd5b81516200099f8482602086016200091f565b91505092915050565b60008060408385031215620009bc57600080fd5b600083015167ffffffffffffffff811115620009d757600080fd5b620009e5858286016200097b565b9250506020620009f88582860162000964565b9150509250929050565b600062000a1160208362000aaa565b915062000a1e8262000c00565b602082019050919050565b6000602082019050818103600083015262000a448162000a02565b9050919050565b600062000a5762000a6a565b905062000a65828262000b5b565b919050565b6000604051905090565b600067ffffffffffffffff82111562000a925762000a9162000bc0565b5b62000a9d8262000bef565b9050602081019050919050565b600082825260208201905092915050565b600062000ac88262000acf565b9050919050565b600073ffffffffffffffffffffffffffffffffffffffff82169050919050565b60005b8381101562000b0f57808201518184015260208101905062000af2565b8381111562000b1f576000848401525b50505050565b6000600282049050600182168062000b3e57607f821691505b6020821081141562000b555762000b5462000b91565b5b50919050565b62000b668262000bef565b810181811067ffffffffffffffff8211171562000b885762000b8762000bc0565b5b80604052505050565b7f4e487b7100000000000000000000000000000000000000000000000000000000600052602260045260246000fd5b7f4e487b7100000000000000000000000000000000000000000000000000000000600052604160045260246000fd5b6000601f19601f8301169050919050565b7f4f776e61626c653a2063616c6c6572206973206e6f7420746865206f776e6572600082015250565b62000c348162000abb565b811462000c4057600080fd5b50565b615eea8062000c536000396000f3fe60806040526004361061025c5760003560e01c806370a0823111610144578063aaea4fff116100b6578063c87b56dd1161007a578063c87b56dd146108f2578063db43c5071461092f578063e10d74fe14610958578063e2ec6ec314610981578063e985e9c5146109be578063f2fde38b146109fb5761025c565b8063aaea4fff14610825578063abdb9bec1461084e578063b01d49d114610877578063b7a293ec146108a0578063b88d4fde146108c95761025c565b80638da5cb5b116101085780638da5cb5b1461070657806395d89b41146107315780639b19251a1461075c578063a03937c514610799578063a0712d68146107e0578063a22cb465146107fc5761025c565b806370a0823114610654578063715018a6146106915780637b9417c8146106a85780638456cb59146106e5578063853828b6146106fc5761025c565b80633f4ba83a116101dd57806355f804b3116101a157806355f804b31461054857806357a6f5cf146105715780635a44890a1461059a5780635c975abb146105c35780636352211e146105ee5780636f027ef11461062b5761025c565b80633f4ba83a1461046557806342842e0e1461047c578063438b6300146104a55780634f6ccce7146104e2578063508a99a11461051f5761025c565b806321a4b2a01161022457806321a4b2a01461035a57806323b872dd1461038557806324953eaa146103ae578063286dd3f5146103eb5780632f745c59146104285761025c565b806301ffc9a71461026157806306fdde031461029e578063081812fc146102c9578063095ea7b31461030657806318160ddd1461032f575b600080fd5b34801561026d57600080fd5b5061028860048036038101906102839190614892565b610a24565b6040516102959190614f37565b60405180910390f35b3480156102aa57600080fd5b506102b3610a36565b6040516102c09190614f52565b60405180910390f35b3480156102d557600080fd5b506102f060048036038101906102eb9190614925565b610ac8565b6040516102fd9190614eae565b60405180910390f35b34801561031257600080fd5b5061032d60048036038101906103289190614815565b610b4d565b005b34801561033b57600080fd5b50610344610c65565b6040516103519190615274565b60405180910390f35b34801561036657600080fd5b5061036f610c72565b60405161037c9190615274565b60405180910390f35b34801561039157600080fd5b506103ac60048036038101906103a7919061470f565b610c78565b005b3480156103ba57600080fd5b506103d560048036038101906103d09190614851565b610cd8565b6040516103e29190614f37565b60405180910390f35b3480156103f757600080fd5b50610412600480360381019061040d91906146aa565b610dce565b60405161041f9190614f37565b60405180910390f35b34801561043457600080fd5b5061044f600480360381019061044a9190614815565b610f37565b60405161045c9190615274565b60405180910390f35b34801561047157600080fd5b5061047a610fdc565b005b34801561048857600080fd5b506104a3600480360381019061049e919061470f565b611062565b005b3480156104b157600080fd5b506104cc60048036038101906104c791906146aa565b611082565b6040516104d99190614f15565b60405180910390f35b3480156104ee57600080fd5b5061050960048036038101906105049190614925565b6111fe565b6040516105169190615274565b60405180910390f35b34801561052b57600080fd5b50610546600480360381019061054191906149a2565b611295565b005b34801561055457600080fd5b5061056f600480360381019061056a91906148e4565b611352565b005b34801561057d57600080fd5b5061059860048036038101906105939190614925565b6113e8565b005b3480156105a657600080fd5b506105c160048036038101906105bc91906149a2565b611514565b005b3480156105cf57600080fd5b506105d86115d1565b6040516105e59190614f37565b60405180910390f35b3480156105fa57600080fd5b5061061560048036038101906106109190614925565b6115e8565b6040516106229190614eae565b60405180910390f35b34801561063757600080fd5b50610652600480360381019061064d91906149a2565b61169a565b005b34801561066057600080fd5b5061067b600480360381019061067691906146aa565b611798565b6040516106889190615274565b60405180910390f35b34801561069d57600080fd5b506106a6611850565b005b3480156106b457600080fd5b506106cf60048036038101906106ca91906146aa565b6118d8565b6040516106dc9190614f37565b60405180910390f35b3480156106f157600080fd5b506106fa611a40565b005b610704611ac6565b005b34801561071257600080fd5b5061071b611ba4565b6040516107289190614eae565b60405180910390f35b34801561073d57600080fd5b50610746611bce565b6040516107539190614f52565b60405180910390f35b34801561076857600080fd5b50610783600480360381019061077e91906146aa565b611c60565b6040516107909190614f37565b60405180910390f35b3480156107a557600080fd5b506107c060048036038101906107bb9190614925565b611c80565b6040516107d79b9a9998979695949392919061528f565b60405180910390f35b6107fa60048036038101906107f59190614925565b611df7565b005b34801561080857600080fd5b50610823600480360381019061081e91906147d9565b61201d565b005b34801561083157600080fd5b5061084c600480360381019061084791906149a2565b61219e565b005b34801561085a57600080fd5b5061087560048036038101906108709190614925565b61225b565b005b34801561088357600080fd5b5061089e600480360381019061089991906149a2565b612387565b005b3480156108ac57600080fd5b506108c760048036038101906108c291906149a2565b612444565b005b3480156108d557600080fd5b506108f060048036038101906108eb919061475e565b612501565b005b3480156108fe57600080fd5b5061091960048036038101906109149190614925565b612563565b6040516109269190614f52565b60405180910390f35b34801561093b57600080fd5b5061095660048036038101906109519190614925565b612575565b005b34801561096457600080fd5b5061097f600480360381019061097a919061494e565b6126a1565b005b34801561098d57600080fd5b506109a860048036038101906109a39190614851565b61276e565b6040516109b59190614f37565b60405180910390f35b3480156109ca57600080fd5b506109e560048036038101906109e091906146d3565b612864565b6040516109f29190614f37565b60405180910390f35b348015610a0757600080fd5b50610a226004803603810190610a1d91906146aa565b6128f8565b005b6000610a2f826129f0565b9050919050565b606060008054610a459061560d565b80601f0160208091040260200160405190810160405280929190818152602001828054610a719061560d565b8015610abe5780601f10610a9357610100808354040283529160200191610abe565b820191906000526020600020905b815481529060010190602001808311610aa157829003601f168201915b5050505050905090565b6000610ad382612a6a565b610b12576040517f08c379a0000000000000000000000000000000000000000000000000000000008152600401610b0990615194565b60405180910390fd5b6004600083815260200190815260200160002060009054906101000a900473ffffffffffffffffffffffffffffffffffffffff169050919050565b6000610b58826115e8565b90508073ffffffffffffffffffffffffffffffffffffffff168373ffffffffffffffffffffffffffffffffffffffff161415610bc9576040517f08c379a0000000000000000000000000000000000000000000000000000000008152600401610bc090615214565b60405180910390fd5b8073ffffffffffffffffffffffffffffffffffffffff16610be8612ad6565b73ffffffffffffffffffffffffffffffffffffffff161480610c175750610c1681610c11612ad6565b612864565b5b610c56576040517f08c379a0000000000000000000000000000000000000000000000000000000008152600401610c4d906150b4565b60405180910390fd5b610c608383612ade565b505050565b6000600980549050905090565b600d5481565b610c89610c83612ad6565b82612b97565b610cc8576040517f08c379a0000000000000000000000000000000000000000000000000000000008152600401610cbf90615234565b60405180910390fd5b610cd3838383612c75565b505050565b6000610ce2612ad6565b73ffffffffffffffffffffffffffffffffffffffff16610d00611ba4565b73ffffffffffffffffffffffffffffffffffffffff1614610d56576040517f08c379a0000000000000000000000000000000000000000000000000000000008152600401610d4d906151b4565b60405180910390fd5b60005b8251811015610dc857610dab838281518110610d9e577f4e487b7100000000000000000000000000000000000000000000000000000000600052603260045260246000fd5b6020026020010151610dce565b15610db557600191505b8080610dc090615670565b915050610d59565b50919050565b6000610dd8612ad6565b73ffffffffffffffffffffffffffffffffffffffff16610df6611ba4565b73ffffffffffffffffffffffffffffffffffffffff1614610e4c576040517f08c379a0000000000000000000000000000000000000000000000000000000008152600401610e43906151b4565b60405180910390fd5b600c60008373ffffffffffffffffffffffffffffffffffffffff1673ffffffffffffffffffffffffffffffffffffffff16815260200190815260200160002060009054906101000a900460ff1615610f32576000600c60008473ffffffffffffffffffffffffffffffffffffffff1673ffffffffffffffffffffffffffffffffffffffff16815260200190815260200160002060006101000a81548160ff0219169083151502179055507ff1abf01a1043b7c244d128e8595cf0c1d10743b022b03a02dffd8ca3bf729f5a82604051610f259190614eae565b60405180910390a1600190505b919050565b6000610f4283611798565b8210610f83576040517f08c379a0000000000000000000000000000000000000000000000000000000008152600401610f7a90614fb4565b60405180910390fd5b600760008473ffffffffffffffffffffffffffffffffffffffff1673ffffffffffffffffffffffffffffffffffffffff168152602001908152602001600020600083815260200190815260200160002054905092915050565b610fe4612ad6565b73ffffffffffffffffffffffffffffffffffffffff16611002611ba4565b73ffffffffffffffffffffffffffffffffffffffff1614611058576040517f08c379a000000000000000000000000000000000000000000000000000000000815260040161104f906151b4565b60405180910390fd5b611060612ed1565b565b61107d83838360405180602001604052806000815250612501565b505050565b6060600061108f83611798565b9050600081141561111257600067ffffffffffffffff8111156110db577f4e487b7100000000000000000000000000000000000000000000000000000000600052604160045260246000fd5b6040519080825280602002602001820160405280156111095781602001602082028036833780820191505090505b509150506111f9565b60008167ffffffffffffffff811115611154577f4e487b7100000000000000000000000000000000000000000000000000000000600052604160045260246000fd5b6040519080825280602002602001820160405280156111825781602001602082028036833780820191505090505b50905060005b828110156111f25761119a8582610f37565b8282815181106111d3577f4e487b7100000000000000000000000000000000000000000000000000000000600052603260045260246000fd5b60200260200101818152505080806111ea90615670565b915050611188565b5080925050505b919050565b6000611208610c65565b8210611249576040517f08c379a000000000000000000000000000000000000000000000000000000000815260040161124090615254565b60405180910390fd5b60098281548110611283577f4e487b7100000000000000000000000000000000000000000000000000000000600052603260045260246000fd5b90600052602060002001549050919050565b61129d6115d1565b156112dd576040517f08c379a00000000000000000000000000000000000000000000000000000000081526004016112d490615094565b60405180910390fd5b600c60003373ffffffffffffffffffffffffffffffffffffffff1673ffffffffffffffffffffffffffffffffffffffff16815260200190815260200160002060009054906101000a900460ff1661133357600080fd5b8060166000848152602001908152602001600020600a01819055505050565b61135a612ad6565b73ffffffffffffffffffffffffffffffffffffffff16611378611ba4565b73ffffffffffffffffffffffffffffffffffffffff16146113ce576040517f08c379a00000000000000000000000000000000000000000000000000000000081526004016113c5906151b4565b60405180910390fd5b80600e90805190602001906113e4929190614438565b5050565b6113f06115d1565b15611430576040517f08c379a000000000000000000000000000000000000000000000000000000000815260040161142790615094565b60405180910390fd5b611438612ad6565b73ffffffffffffffffffffffffffffffffffffffff16611456611ba4565b73ffffffffffffffffffffffffffffffffffffffff16146114ac576040517f08c379a00000000000000000000000000000000000000000000000000000000081526004016114a3906151b4565b60405180910390fd5b60006016600083815260200190815260200160002060030160006101000a81548160ff0219169083600281111561150c577f4e487b7100000000000000000000000000000000000000000000000000000000600052602160045260246000fd5b021790555050565b61151c6115d1565b1561155c576040517f08c379a000000000000000000000000000000000000000000000000000000000815260040161155390615094565b60405180910390fd5b600c60003373ffffffffffffffffffffffffffffffffffffffff1673ffffffffffffffffffffffffffffffffffffffff16815260200190815260200160002060009054906101000a900460ff166115b257600080fd5b8060166000848152602001908152602001600020600701819055505050565b6000600b60009054906101000a900460ff16905090565b6000806002600084815260200190815260200160002060009054906101000a900473ffffffffffffffffffffffffffffffffffffffff169050600073ffffffffffffffffffffffffffffffffffffffff168173ffffffffffffffffffffffffffffffffffffffff161415611691576040517f08c379a0000000000000000000000000000000000000000000000000000000008152600401611688906150f4565b60405180910390fd5b80915050919050565b6116a26115d1565b156116e2576040517f08c379a00000000000000000000000000000000000000000000000000000000081526004016116d990615094565b60405180910390fd5b600c60003373ffffffffffffffffffffffffffffffffffffffff1673ffffffffffffffffffffffffffffffffffffffff16815260200190815260200160002060009054906101000a900460ff1661173857600080fd5b600160166000848152602001908152602001600020600101600082825461175f9190615477565b92505081905550600160166000838152602001908152602001600020600201600082825461178d9190615477565b925050819055505050565b60008073ffffffffffffffffffffffffffffffffffffffff168273ffffffffffffffffffffffffffffffffffffffff161415611809576040517f08c379a0000000000000000000000000000000000000000000000000000000008152600401611800906150d4565b60405180910390fd5b600360008373ffffffffffffffffffffffffffffffffffffffff1673ffffffffffffffffffffffffffffffffffffffff168152602001908152602001600020549050919050565b611858612ad6565b73ffffffffffffffffffffffffffffffffffffffff16611876611ba4565b73ffffffffffffffffffffffffffffffffffffffff16146118cc576040517f08c379a00000000000000000000000000000000000000000000000000000000081526004016118c3906151b4565b60405180910390fd5b6118d66000612f73565b565b60006118e2612ad6565b73ffffffffffffffffffffffffffffffffffffffff16611900611ba4565b73ffffffffffffffffffffffffffffffffffffffff1614611956576040517f08c379a000000000000000000000000000000000000000000000000000000000815260040161194d906151b4565b60405180910390fd5b600c60008373ffffffffffffffffffffffffffffffffffffffff1673ffffffffffffffffffffffffffffffffffffffff16815260200190815260200160002060009054906101000a900460ff16611a3b576001600c60008473ffffffffffffffffffffffffffffffffffffffff1673ffffffffffffffffffffffffffffffffffffffff16815260200190815260200160002060006101000a81548160ff0219169083151502179055507fd1bba68c128cc3f427e5831b3c6f99f480b6efa6b9e80c757768f6124158cc3f82604051611a2e9190614eae565b60405180910390a1600190505b919050565b611a48612ad6565b73ffffffffffffffffffffffffffffffffffffffff16611a66611ba4565b73ffffffffffffffffffffffffffffffffffffffff1614611abc576040517f08c379a0000000000000000000000000000000000000000000000000000000008152600401611ab3906151b4565b60405180910390fd5b611ac4613039565b565b611ace612ad6565b73ffffffffffffffffffffffffffffffffffffffff16611aec611ba4565b73ffffffffffffffffffffffffffffffffffffffff1614611b42576040517f08c379a0000000000000000000000000000000000000000000000000000000008152600401611b39906151b4565b60405180910390fd5b600f60009054906101000a900473ffffffffffffffffffffffffffffffffffffffff1673ffffffffffffffffffffffffffffffffffffffff166108fc479081150290604051600060405180830381858888f19350505050611ba257600080fd5b565b6000600b60019054906101000a900473ffffffffffffffffffffffffffffffffffffffff16905090565b606060018054611bdd9061560d565b80601f0160208091040260200160405190810160405280929190818152602001828054611c099061560d565b8015611c565780601f10611c2b57610100808354040283529160200191611c56565b820191906000526020600020905b815481529060010190602001808311611c3957829003601f168201915b5050505050905090565b600c6020528060005260406000206000915054906101000a900460ff1681565b60166020528060005260406000206000915090508060000154908060010154908060020154908060030160009054906101000a900460ff1690806004018054611cc89061560d565b80601f0160208091040260200160405190810160405280929190818152602001828054611cf49061560d565b8015611d415780601f10611d1657610100808354040283529160200191611d41565b820191906000526020600020905b815481529060010190602001808311611d2457829003601f168201915b505050505090806005018054611d569061560d565b80601f0160208091040260200160405190810160405280929190818152602001828054611d829061560d565b8015611dcf5780601f10611da457610100808354040283529160200191611dcf565b820191906000526020600020905b815481529060010190602001808311611db257829003601f168201915b50505050509080600601549080600701549080600801549080600901549080600a015490508b565b611dff6115d1565b15611e3f576040517f08c379a0000000000000000000000000000000000000000000000000000000008152600401611e3690615094565b60405180910390fd5b60048110611e82576040517f08c379a0000000000000000000000000000000000000000000000000000000008152600401611e7990614f94565b60405180910390fd5b600d5434101580611ecc5750611e96612ad6565b73ffffffffffffffffffffffffffffffffffffffff16611eb4611ba4565b73ffffffffffffffffffffffffffffffffffffffff16145b611f0b576040517f08c379a0000000000000000000000000000000000000000000000000000000008152600401611f0290615134565b60405180910390fd5b6000611f15610c65565b90506000600182611f269190615477565b9050611f3281846130dc565b611f3c338261350a565b600060178481548110611f78577f4e487b7100000000000000000000000000000000000000000000000000000000600052603260045260246000fd5b906000526020600020018054611f8d9061560d565b80601f0160208091040260200160405190810160405280929190818152602001828054611fb99061560d565b80156120065780601f10611fdb57610100808354040283529160200191612006565b820191906000526020600020905b815481529060010190602001808311611fe957829003601f168201915b505050505090506120178282613528565b50505050565b612025612ad6565b73ffffffffffffffffffffffffffffffffffffffff168273ffffffffffffffffffffffffffffffffffffffff161415612093576040517f08c379a000000000000000000000000000000000000000000000000000000000815260040161208a90615054565b60405180910390fd5b80600560006120a0612ad6565b73ffffffffffffffffffffffffffffffffffffffff1673ffffffffffffffffffffffffffffffffffffffff16815260200190815260200160002060008473ffffffffffffffffffffffffffffffffffffffff1673ffffffffffffffffffffffffffffffffffffffff16815260200190815260200160002060006101000a81548160ff0219169083151502179055508173ffffffffffffffffffffffffffffffffffffffff1661214d612ad6565b73ffffffffffffffffffffffffffffffffffffffff167f17307eab39ab6107e8899845ad3d59bd9653f200f220920489ca2b5937696c31836040516121929190614f37565b60405180910390a35050565b6121a66115d1565b156121e6576040517f08c379a00000000000000000000000000000000000000000000000000000000081526004016121dd90615094565b60405180910390fd5b600c60003373ffffffffffffffffffffffffffffffffffffffff1673ffffffffffffffffffffffffffffffffffffffff16815260200190815260200160002060009054906101000a900460ff1661223c57600080fd5b8060166000848152602001908152602001600020600801819055505050565b6122636115d1565b156122a3576040517f08c379a000000000000000000000000000000000000000000000000000000000815260040161229a90615094565b60405180910390fd5b6122ab612ad6565b73ffffffffffffffffffffffffffffffffffffffff166122c9611ba4565b73ffffffffffffffffffffffffffffffffffffffff161461231f576040517f08c379a0000000000000000000000000000000000000000000000000000000008152600401612316906151b4565b60405180910390fd5b60016016600083815260200190815260200160002060030160006101000a81548160ff0219169083600281111561237f577f4e487b7100000000000000000000000000000000000000000000000000000000600052602160045260246000fd5b021790555050565b61238f6115d1565b156123cf576040517f08c379a00000000000000000000000000000000000000000000000000000000081526004016123c690615094565b60405180910390fd5b600c60003373ffffffffffffffffffffffffffffffffffffffff1673ffffffffffffffffffffffffffffffffffffffff16815260200190815260200160002060009054906101000a900460ff1661242557600080fd5b8060166000848152602001908152602001600020600901819055505050565b61244c6115d1565b1561248c576040517f08c379a000000000000000000000000000000000000000000000000000000000815260040161248390615094565b60405180910390fd5b600c60003373ffffffffffffffffffffffffffffffffffffffff1673ffffffffffffffffffffffffffffffffffffffff16815260200190815260200160002060009054906101000a900460ff166124e257600080fd5b8060166000848152602001908152602001600020600601819055505050565b61251261250c612ad6565b83612b97565b612551576040517f08c379a000000000000000000000000000000000000000000000000000000000815260040161254890615234565b60405180910390fd5b61255d8484848461359c565b50505050565b606061256e826135f8565b9050919050565b61257d6115d1565b156125bd576040517f08c379a00000000000000000000000000000000000000000000000000000000081526004016125b490615094565b60405180910390fd5b6125c5612ad6565b73ffffffffffffffffffffffffffffffffffffffff166125e3611ba4565b73ffffffffffffffffffffffffffffffffffffffff1614612639576040517f08c379a0000000000000000000000000000000000000000000000000000000008152600401612630906151b4565b60405180910390fd5b60026016600083815260200190815260200160002060030160006101000a81548160ff02191690836002811115612699577f4e487b7100000000000000000000000000000000000000000000000000000000600052602160045260246000fd5b021790555050565b6126a96115d1565b156126e9576040517f08c379a00000000000000000000000000000000000000000000000000000000081526004016126e090615094565b60405180910390fd5b600c60003373ffffffffffffffffffffffffffffffffffffffff1673ffffffffffffffffffffffffffffffffffffffff16815260200190815260200160002060009054906101000a900460ff1661273f57600080fd5b80601660008481526020019081526020016000206004019080519060200190612769929190614438565b505050565b6000612778612ad6565b73ffffffffffffffffffffffffffffffffffffffff16612796611ba4565b73ffffffffffffffffffffffffffffffffffffffff16146127ec576040517f08c379a00000000000000000000000000000000000000000000000000000000081526004016127e3906151b4565b60405180910390fd5b60005b825181101561285e57612841838281518110612834577f4e487b7100000000000000000000000000000000000000000000000000000000600052603260045260246000fd5b60200260200101516118d8565b1561284b57600191505b808061285690615670565b9150506127ef565b50919050565b6000600560008473ffffffffffffffffffffffffffffffffffffffff1673ffffffffffffffffffffffffffffffffffffffff16815260200190815260200160002060008373ffffffffffffffffffffffffffffffffffffffff1673ffffffffffffffffffffffffffffffffffffffff16815260200190815260200160002060009054906101000a900460ff16905092915050565b612900612ad6565b73ffffffffffffffffffffffffffffffffffffffff1661291e611ba4565b73ffffffffffffffffffffffffffffffffffffffff1614612974576040517f08c379a000000000000000000000000000000000000000000000000000000000815260040161296b906151b4565b60405180910390fd5b600073ffffffffffffffffffffffffffffffffffffffff168173ffffffffffffffffffffffffffffffffffffffff1614156129e4576040517f08c379a00000000000000000000000000000000000000000000000000000000081526004016129db90614ff4565b60405180910390fd5b6129ed81612f73565b50565b60007f780e9d63000000000000000000000000000000000000000000000000000000007bffffffffffffffffffffffffffffffffffffffffffffffffffffffff1916827bffffffffffffffffffffffffffffffffffffffffffffffffffffffff19161480612a635750612a628261374a565b5b9050919050565b60008073ffffffffffffffffffffffffffffffffffffffff166002600084815260200190815260200160002060009054906101000a900473ffffffffffffffffffffffffffffffffffffffff1673ffffffffffffffffffffffffffffffffffffffff1614159050919050565b600033905090565b816004600083815260200190815260200160002060006101000a81548173ffffffffffffffffffffffffffffffffffffffff021916908373ffffffffffffffffffffffffffffffffffffffff160217905550808273ffffffffffffffffffffffffffffffffffffffff16612b51836115e8565b73ffffffffffffffffffffffffffffffffffffffff167f8c5be1e5ebec7d5bd14f71427d1e84f3dd0314c0f7b2291e5b200ac8c7c3b92560405160405180910390a45050565b6000612ba282612a6a565b612be1576040517f08c379a0000000000000000000000000000000000000000000000000000000008152600401612bd890615074565b60405180910390fd5b6000612bec836115e8565b90508073ffffffffffffffffffffffffffffffffffffffff168473ffffffffffffffffffffffffffffffffffffffff161480612c5b57508373ffffffffffffffffffffffffffffffffffffffff16612c4384610ac8565b73ffffffffffffffffffffffffffffffffffffffff16145b80612c6c5750612c6b8185612864565b5b91505092915050565b8273ffffffffffffffffffffffffffffffffffffffff16612c95826115e8565b73ffffffffffffffffffffffffffffffffffffffff1614612ceb576040517f08c379a0000000000000000000000000000000000000000000000000000000008152600401612ce2906151d4565b60405180910390fd5b600073ffffffffffffffffffffffffffffffffffffffff168273ffffffffffffffffffffffffffffffffffffffff161415612d5b576040517f08c379a0000000000000000000000000000000000000000000000000000000008152600401612d5290615034565b60405180910390fd5b612d6683838361382c565b612d71600082612ade565b6001600360008573ffffffffffffffffffffffffffffffffffffffff1673ffffffffffffffffffffffffffffffffffffffff1681526020019081526020016000206000828254612dc191906154fe565b925050819055506001600360008473ffffffffffffffffffffffffffffffffffffffff1673ffffffffffffffffffffffffffffffffffffffff1681526020019081526020016000206000828254612e189190615477565b92505081905550816002600083815260200190815260200160002060006101000a81548173ffffffffffffffffffffffffffffffffffffffff021916908373ffffffffffffffffffffffffffffffffffffffff160217905550808273ffffffffffffffffffffffffffffffffffffffff168473ffffffffffffffffffffffffffffffffffffffff167fddf252ad1be2c89b69c2b068fc378daa952ba7f163c4a11628f55a4df523b3ef60405160405180910390a4505050565b612ed96115d1565b612f18576040517f08c379a0000000000000000000000000000000000000000000000000000000008152600401612f0f90614f74565b60405180910390fd5b6000600b60006101000a81548160ff0219169083151502179055507f5db9ee0a495bf2e6ff9c91a7834c1ba4fdd244a5e8aa4e537bd38aeae4b073aa612f5c612ad6565b604051612f699190614eae565b60405180910390a1565b6000600b60019054906101000a900473ffffffffffffffffffffffffffffffffffffffff16905081600b60016101000a81548173ffffffffffffffffffffffffffffffffffffffff021916908373ffffffffffffffffffffffffffffffffffffffff1602179055508173ffffffffffffffffffffffffffffffffffffffff168173ffffffffffffffffffffffffffffffffffffffff167f8be0079c531659141344cd1fd0a4f28419497f9722a3daafe3b4186f6b6457e060405160405180910390a35050565b6130416115d1565b15613081576040517f08c379a000000000000000000000000000000000000000000000000000000000815260040161307890615094565b60405180910390fd5b6001600b60006101000a81548160ff0219169083151502179055507f62e78cea01bee320cd4e420270b5ea74000d11b0c9f74754ebdbfc544b05a2586130c5612ad6565b6040516130d29190614eae565b60405180910390a1565b604051806101600160405280838152602001600081526020016000815260200160006002811115613136577f4e487b7100000000000000000000000000000000000000000000000000000000600052602160045260246000fd5b815260200160108381548110613175577f4e487b7100000000000000000000000000000000000000000000000000000000600052603260045260246000fd5b90600052602060002001805461318a9061560d565b80601f01602080910402602001604051908101604052809291908181526020018280546131b69061560d565b80156132035780601f106131d857610100808354040283529160200191613203565b820191906000526020600020905b8154815290600101906020018083116131e657829003601f168201915b5050505050815260200160118381548110613247577f4e487b7100000000000000000000000000000000000000000000000000000000600052603260045260246000fd5b90600052602060002001805461325c9061560d565b80601f01602080910402602001604051908101604052809291908181526020018280546132889061560d565b80156132d55780601f106132aa576101008083540402835291602001916132d5565b820191906000526020600020905b8154815290600101906020018083116132b857829003601f168201915b505050505081526020016103e8815260200160128381548110613321577f4e487b7100000000000000000000000000000000000000000000000000000000600052603260045260246000fd5b906000526020600020015481526020016013838154811061336b577f4e487b7100000000000000000000000000000000000000000000000000000000600052603260045260246000fd5b90600052602060002001548152602001601483815481106133b5577f4e487b7100000000000000000000000000000000000000000000000000000000600052603260045260246000fd5b90600052602060002001548152602001601583815481106133ff577f4e487b7100000000000000000000000000000000000000000000000000000000600052603260045260246000fd5b90600052602060002001548152506016600084815260200190815260200160002060008201518160000155602082015181600101556040820151816002015560608201518160030160006101000a81548160ff0219169083600281111561348f577f4e487b7100000000000000000000000000000000000000000000000000000000600052602160045260246000fd5b021790555060808201518160040190805190602001906134b0929190614438565b5060a08201518160050190805190602001906134cd929190614438565b5060c0820151816006015560e082015181600701556101008201518160080155610120820151816009015561014082015181600a01559050505050565b613524828260405180602001604052806000815250613884565b5050565b61353182612a6a565b613570576040517f08c379a000000000000000000000000000000000000000000000000000000000815260040161356790615114565b60405180910390fd5b80600660008481526020019081526020016000209080519060200190613597929190614438565b505050565b6135a7848484612c75565b6135b3848484846138df565b6135f2576040517f08c379a00000000000000000000000000000000000000000000000000000000081526004016135e990614fd4565b60405180910390fd5b50505050565b606061360382612a6a565b613642576040517f08c379a000000000000000000000000000000000000000000000000000000000815260040161363990615174565b60405180910390fd5b60006006600084815260200190815260200160002080546136629061560d565b80601f016020809104026020016040519081016040528092919081815260200182805461368e9061560d565b80156136db5780601f106136b0576101008083540402835291602001916136db565b820191906000526020600020905b8154815290600101906020018083116136be57829003601f168201915b5050505050905060006136ec613a76565b9050600081511415613702578192505050613745565b60008251111561373757808260405160200161371f929190614e8a565b60405160208183030381529060405292505050613745565b61374084613b08565b925050505b919050565b60007f80ac58cd000000000000000000000000000000000000000000000000000000007bffffffffffffffffffffffffffffffffffffffffffffffffffffffff1916827bffffffffffffffffffffffffffffffffffffffffffffffffffffffff1916148061381557507f5b5e139f000000000000000000000000000000000000000000000000000000007bffffffffffffffffffffffffffffffffffffffffffffffffffffffff1916827bffffffffffffffffffffffffffffffffffffffffffffffffffffffff1916145b80613825575061382482613baf565b5b9050919050565b6138346115d1565b15613874576040517f08c379a000000000000000000000000000000000000000000000000000000000815260040161386b90615094565b60405180910390fd5b61387f838383613c19565b505050565b61388e8383613d2d565b61389b60008484846138df565b6138da576040517f08c379a00000000000000000000000000000000000000000000000000000000081526004016138d190614fd4565b60405180910390fd5b505050565b60006139008473ffffffffffffffffffffffffffffffffffffffff16613efb565b15613a69578373ffffffffffffffffffffffffffffffffffffffff1663150b7a02613929612ad6565b8786866040518563ffffffff1660e01b815260040161394b9493929190614ec9565b602060405180830381600087803b15801561396557600080fd5b505af192505050801561399657506040513d601f19601f8201168201806040525081019061399391906148bb565b60015b613a19573d80600081146139c6576040519150601f19603f3d011682016040523d82523d6000602084013e6139cb565b606091505b50600081511415613a11576040517f08c379a0000000000000000000000000000000000000000000000000000000008152600401613a0890614fd4565b60405180910390fd5b805181602001fd5b63150b7a0260e01b7bffffffffffffffffffffffffffffffffffffffffffffffffffffffff1916817bffffffffffffffffffffffffffffffffffffffffffffffffffffffff191614915050613a6e565b600190505b949350505050565b6060600e8054613a859061560d565b80601f0160208091040260200160405190810160405280929190818152602001828054613ab19061560d565b8015613afe5780601f10613ad357610100808354040283529160200191613afe565b820191906000526020600020905b815481529060010190602001808311613ae157829003601f168201915b5050505050905090565b6060613b1382612a6a565b613b52576040517f08c379a0000000000000000000000000000000000000000000000000000000008152600401613b49906151f4565b60405180910390fd5b6000613b5c613a76565b90506000815111613b7c5760405180602001604052806000815250613ba7565b80613b8684613f0e565b604051602001613b97929190614e8a565b6040516020818303038152906040525b915050919050565b60007f01ffc9a7000000000000000000000000000000000000000000000000000000007bffffffffffffffffffffffffffffffffffffffffffffffffffffffff1916827bffffffffffffffffffffffffffffffffffffffffffffffffffffffff1916149050919050565b613c248383836140bb565b600073ffffffffffffffffffffffffffffffffffffffff168373ffffffffffffffffffffffffffffffffffffffff161415613c6757613c62816140c0565b613ca6565b8173ffffffffffffffffffffffffffffffffffffffff168373ffffffffffffffffffffffffffffffffffffffff1614613ca557613ca48382614109565b5b5b600073ffffffffffffffffffffffffffffffffffffffff168273ffffffffffffffffffffffffffffffffffffffff161415613ce957613ce481614276565b613d28565b8273ffffffffffffffffffffffffffffffffffffffff168273ffffffffffffffffffffffffffffffffffffffff1614613d2757613d2682826143b9565b5b5b505050565b600073ffffffffffffffffffffffffffffffffffffffff168273ffffffffffffffffffffffffffffffffffffffff161415613d9d576040517f08c379a0000000000000000000000000000000000000000000000000000000008152600401613d9490615154565b60405180910390fd5b613da681612a6a565b15613de6576040517f08c379a0000000000000000000000000000000000000000000000000000000008152600401613ddd90615014565b60405180910390fd5b613df26000838361382c565b6001600360008473ffffffffffffffffffffffffffffffffffffffff1673ffffffffffffffffffffffffffffffffffffffff1681526020019081526020016000206000828254613e429190615477565b92505081905550816002600083815260200190815260200160002060006101000a81548173ffffffffffffffffffffffffffffffffffffffff021916908373ffffffffffffffffffffffffffffffffffffffff160217905550808273ffffffffffffffffffffffffffffffffffffffff16600073ffffffffffffffffffffffffffffffffffffffff167fddf252ad1be2c89b69c2b068fc378daa952ba7f163c4a11628f55a4df523b3ef60405160405180910390a45050565b600080823b905060008111915050919050565b60606000821415613f56576040518060400160405280600181526020017f300000000000000000000000000000000000000000000000000000000000000081525090506140b6565b600082905060005b60008214613f88578080613f7190615670565b915050600a82613f8191906154cd565b9150613f5e565b60008167ffffffffffffffff811115613fca577f4e487b7100000000000000000000000000000000000000000000000000000000600052604160045260246000fd5b6040519080825280601f01601f191660200182016040528015613ffc5781602001600182028036833780820191505090505b5090505b600085146140af5760018261401591906154fe565b9150600a8561402491906156b9565b60306140309190615477565b60f81b81838151811061406c577f4e487b7100000000000000000000000000000000000000000000000000000000600052603260045260246000fd5b60200101907effffffffffffffffffffffffffffffffffffffffffffffffffffffffffffff1916908160001a905350600a856140a891906154cd565b9450614000565b8093505050505b919050565b505050565b600980549050600a600083815260200190815260200160002081905550600981908060018154018082558091505060019003906000526020600020016000909190919091505550565b6000600161411684611798565b61412091906154fe565b9050600060086000848152602001908152602001600020549050818114614205576000600760008673ffffffffffffffffffffffffffffffffffffffff1673ffffffffffffffffffffffffffffffffffffffff168152602001908152602001600020600084815260200190815260200160002054905080600760008773ffffffffffffffffffffffffffffffffffffffff1673ffffffffffffffffffffffffffffffffffffffff168152602001908152602001600020600084815260200190815260200160002081905550816008600083815260200190815260200160002081905550505b6008600084815260200190815260200160002060009055600760008573ffffffffffffffffffffffffffffffffffffffff1673ffffffffffffffffffffffffffffffffffffffff16815260200190815260200160002060008381526020019081526020016000206000905550505050565b6000600160098054905061428a91906154fe565b90506000600a60008481526020019081526020016000205490506000600983815481106142e0577f4e487b7100000000000000000000000000000000000000000000000000000000600052603260045260246000fd5b906000526020600020015490508060098381548110614328577f4e487b7100000000000000000000000000000000000000000000000000000000600052603260045260246000fd5b906000526020600020018190555081600a600083815260200190815260200160002081905550600a600085815260200190815260200160002060009055600980548061439d577f4e487b7100000000000000000000000000000000000000000000000000000000600052603160045260246000fd5b6001900381819060005260206000200160009055905550505050565b60006143c483611798565b905081600760008573ffffffffffffffffffffffffffffffffffffffff1673ffffffffffffffffffffffffffffffffffffffff168152602001908152602001600020600083815260200190815260200160002081905550806008600084815260200190815260200160002081905550505050565b8280546144449061560d565b90600052602060002090601f01602090048101928261446657600085556144ad565b82601f1061447f57805160ff19168380011785556144ad565b828001600101855582156144ad579182015b828111156144ac578251825591602001919060010190614491565b5b5090506144ba91906144be565b5090565b5b808211156144d75760008160009055506001016144bf565b5090565b60006144ee6144e98461536d565b615348565b9050808382526020820190508285602086028201111561450d57600080fd5b60005b8581101561453d578161452388826145c3565b845260208401935060208301925050600181019050614510565b5050509392505050565b600061455a61455584615399565b615348565b90508281526020810184848401111561457257600080fd5b61457d8482856155cb565b509392505050565b6000614598614593846153ca565b615348565b9050828152602081018484840111156145b057600080fd5b6145bb8482856155cb565b509392505050565b6000813590506145d281615e58565b92915050565b600082601f8301126145e957600080fd5b81356145f98482602086016144db565b91505092915050565b60008135905061461181615e6f565b92915050565b60008135905061462681615e86565b92915050565b60008151905061463b81615e86565b92915050565b600082601f83011261465257600080fd5b8135614662848260208601614547565b91505092915050565b600082601f83011261467c57600080fd5b813561468c848260208601614585565b91505092915050565b6000813590506146a481615e9d565b92915050565b6000602082840312156146bc57600080fd5b60006146ca848285016145c3565b91505092915050565b600080604083850312156146e657600080fd5b60006146f4858286016145c3565b9250506020614705858286016145c3565b9150509250929050565b60008060006060848603121561472457600080fd5b6000614732868287016145c3565b9350506020614743868287016145c3565b925050604061475486828701614695565b9150509250925092565b6000806000806080858703121561477457600080fd5b6000614782878288016145c3565b9450506020614793878288016145c3565b93505060406147a487828801614695565b925050606085013567ffffffffffffffff8111156147c157600080fd5b6147cd87828801614641565b91505092959194509250565b600080604083850312156147ec57600080fd5b60006147fa858286016145c3565b925050602061480b85828601614602565b9150509250929050565b6000806040838503121561482857600080fd5b6000614836858286016145c3565b925050602061484785828601614695565b9150509250929050565b60006020828403121561486357600080fd5b600082013567ffffffffffffffff81111561487d57600080fd5b614889848285016145d8565b91505092915050565b6000602082840312156148a457600080fd5b60006148b284828501614617565b91505092915050565b6000602082840312156148cd57600080fd5b60006148db8482850161462c565b91505092915050565b6000602082840312156148f657600080fd5b600082013567ffffffffffffffff81111561491057600080fd5b61491c8482850161466b565b91505092915050565b60006020828403121561493757600080fd5b600061494584828501614695565b91505092915050565b6000806040838503121561496157600080fd5b600061496f85828601614695565b925050602083013567ffffffffffffffff81111561498c57600080fd5b6149988582860161466b565b9150509250929050565b600080604083850312156149b557600080fd5b60006149c385828601614695565b92505060206149d485828601614695565b9150509250929050565b60006149ea8383614e6c565b60208301905092915050565b6149ff81615532565b82525050565b6000614a108261540b565b614a1a8185615439565b9350614a25836153fb565b8060005b83811015614a56578151614a3d88826149de565b9750614a488361542c565b925050600181019050614a29565b5085935050505092915050565b614a6c81615544565b82525050565b6000614a7d82615416565b614a87818561544a565b9350614a978185602086016155da565b614aa0816157d5565b840191505092915050565b614ab4816155b9565b82525050565b6000614ac582615421565b614acf818561545b565b9350614adf8185602086016155da565b614ae8816157d5565b840191505092915050565b6000614afe82615421565b614b08818561546c565b9350614b188185602086016155da565b80840191505092915050565b6000614b3160148361545b565b9150614b3c826157e6565b602082019050919050565b6000614b54601e8361545b565b9150614b5f8261580f565b602082019050919050565b6000614b77602b8361545b565b9150614b8282615838565b604082019050919050565b6000614b9a60328361545b565b9150614ba582615887565b604082019050919050565b6000614bbd60268361545b565b9150614bc8826158d6565b604082019050919050565b6000614be0601c8361545b565b9150614beb82615925565b602082019050919050565b6000614c0360248361545b565b9150614c0e8261594e565b604082019050919050565b6000614c2660198361545b565b9150614c318261599d565b602082019050919050565b6000614c49602c8361545b565b9150614c54826159c6565b604082019050919050565b6000614c6c60108361545b565b9150614c7782615a15565b602082019050919050565b6000614c8f60388361545b565b9150614c9a82615a3e565b604082019050919050565b6000614cb2602a8361545b565b9150614cbd82615a8d565b604082019050919050565b6000614cd560298361545b565b9150614ce082615adc565b604082019050919050565b6000614cf8602e8361545b565b9150614d0382615b2b565b604082019050919050565b6000614d1b60358361545b565b9150614d2682615b7a565b604082019050919050565b6000614d3e60208361545b565b9150614d4982615bc9565b602082019050919050565b6000614d6160318361545b565b9150614d6c82615bf2565b604082019050919050565b6000614d84602c8361545b565b9150614d8f82615c41565b604082019050919050565b6000614da760208361545b565b9150614db282615c90565b602082019050919050565b6000614dca60298361545b565b9150614dd582615cb9565b604082019050919050565b6000614ded602f8361545b565b9150614df882615d08565b604082019050919050565b6000614e1060218361545b565b9150614e1b82615d57565b604082019050919050565b6000614e3360318361545b565b9150614e3e82615da6565b604082019050919050565b6000614e56602c8361545b565b9150614e6182615df5565b604082019050919050565b614e75816155af565b82525050565b614e84816155af565b82525050565b6000614e968285614af3565b9150614ea28284614af3565b91508190509392505050565b6000602082019050614ec360008301846149f6565b92915050565b6000608082019050614ede60008301876149f6565b614eeb60208301866149f6565b614ef86040830185614e7b565b8181036060830152614f0a8184614a72565b905095945050505050565b60006020820190508181036000830152614f2f8184614a05565b905092915050565b6000602082019050614f4c6000830184614a63565b92915050565b60006020820190508181036000830152614f6c8184614aba565b905092915050565b60006020820190508181036000830152614f8d81614b24565b9050919050565b60006020820190508181036000830152614fad81614b47565b9050919050565b60006020820190508181036000830152614fcd81614b6a565b9050919050565b60006020820190508181036000830152614fed81614b8d565b9050919050565b6000602082019050818103600083015261500d81614bb0565b9050919050565b6000602082019050818103600083015261502d81614bd3565b9050919050565b6000602082019050818103600083015261504d81614bf6565b9050919050565b6000602082019050818103600083015261506d81614c19565b9050919050565b6000602082019050818103600083015261508d81614c3c565b9050919050565b600060208201905081810360008301526150ad81614c5f565b9050919050565b600060208201905081810360008301526150cd81614c82565b9050919050565b600060208201905081810360008301526150ed81614ca5565b9050919050565b6000602082019050818103600083015261510d81614cc8565b9050919050565b6000602082019050818103600083015261512d81614ceb565b9050919050565b6000602082019050818103600083015261514d81614d0e565b9050919050565b6000602082019050818103600083015261516d81614d31565b9050919050565b6000602082019050818103600083015261518d81614d54565b9050919050565b600060208201905081810360008301526151ad81614d77565b9050919050565b600060208201905081810360008301526151cd81614d9a565b9050919050565b600060208201905081810360008301526151ed81614dbd565b9050919050565b6000602082019050818103600083015261520d81614de0565b9050919050565b6000602082019050818103600083015261522d81614e03565b9050919050565b6000602082019050818103600083015261524d81614e26565b9050919050565b6000602082019050818103600083015261526d81614e49565b9050919050565b60006020820190506152896000830184614e7b565b92915050565b6000610160820190506152a5600083018e614e7b565b6152b2602083018d614e7b565b6152bf604083018c614e7b565b6152cc606083018b614aab565b81810360808301526152de818a614aba565b905081810360a08301526152f28189614aba565b905061530160c0830188614e7b565b61530e60e0830187614e7b565b61531c610100830186614e7b565b61532a610120830185614e7b565b615338610140830184614e7b565b9c9b505050505050505050505050565b6000615352615363565b905061535e828261563f565b919050565b6000604051905090565b600067ffffffffffffffff821115615388576153876157a6565b5b602082029050602081019050919050565b600067ffffffffffffffff8211156153b4576153b36157a6565b5b6153bd826157d5565b9050602081019050919050565b600067ffffffffffffffff8211156153e5576153e46157a6565b5b6153ee826157d5565b9050602081019050919050565b6000819050602082019050919050565b600081519050919050565b600081519050919050565b600081519050919050565b6000602082019050919050565b600082825260208201905092915050565b600082825260208201905092915050565b600082825260208201905092915050565b600081905092915050565b6000615482826155af565b915061548d836155af565b9250827fffffffffffffffffffffffffffffffffffffffffffffffffffffffffffffffff038211156154c2576154c16156ea565b5b828201905092915050565b60006154d8826155af565b91506154e3836155af565b9250826154f3576154f2615719565b5b828204905092915050565b6000615509826155af565b9150615514836155af565b925082821015615527576155266156ea565b5b828203905092915050565b600061553d8261558f565b9050919050565b60008115159050919050565b60007fffffffff0000000000000000000000000000000000000000000000000000000082169050919050565b600081905061558a82615e44565b919050565b600073ffffffffffffffffffffffffffffffffffffffff82169050919050565b6000819050919050565b60006155c48261557c565b9050919050565b82818337600083830152505050565b60005b838110156155f85780820151818401526020810190506155dd565b83811115615607576000848401525b50505050565b6000600282049050600182168061562557607f821691505b6020821081141561563957615638615777565b5b50919050565b615648826157d5565b810181811067ffffffffffffffff82111715615667576156666157a6565b5b80604052505050565b600061567b826155af565b91507fffffffffffffffffffffffffffffffffffffffffffffffffffffffffffffffff8214156156ae576156ad6156ea565b5b600182019050919050565b60006156c4826155af565b91506156cf836155af565b9250826156df576156de615719565b5b828206905092915050565b7f4e487b7100000000000000000000000000000000000000000000000000000000600052601160045260246000fd5b7f4e487b7100000000000000000000000000000000000000000000000000000000600052601260045260246000fd5b7f4e487b7100000000000000000000000000000000000000000000000000000000600052602160045260246000fd5b7f4e487b7100000000000000000000000000000000000000000000000000000000600052602260045260246000fd5b7f4e487b7100000000000000000000000000000000000000000000000000000000600052604160045260246000fd5b6000601f19601f8301169050919050565b7f5061757361626c653a206e6f7420706175736564000000000000000000000000600082015250565b7f5468657265206973206e6f20726f626f74206f66207468617420747970650000600082015250565b7f455243373231456e756d657261626c653a206f776e657220696e646578206f7560008201527f74206f6620626f756e6473000000000000000000000000000000000000000000602082015250565b7f4552433732313a207472616e7366657220746f206e6f6e20455243373231526560008201527f63656976657220696d706c656d656e7465720000000000000000000000000000602082015250565b7f4f776e61626c653a206e6577206f776e657220697320746865207a65726f206160008201527f6464726573730000000000000000000000000000000000000000000000000000602082015250565b7f4552433732313a20746f6b656e20616c7265616479206d696e74656400000000600082015250565b7f4552433732313a207472616e7366657220746f20746865207a65726f2061646460008201527f7265737300000000000000000000000000000000000000000000000000000000602082015250565b7f4552433732313a20617070726f766520746f2063616c6c657200000000000000600082015250565b7f4552433732313a206f70657261746f7220717565727920666f72206e6f6e657860008201527f697374656e7420746f6b656e0000000000000000000000000000000000000000602082015250565b7f5061757361626c653a2070617573656400000000000000000000000000000000600082015250565b7f4552433732313a20617070726f76652063616c6c6572206973206e6f74206f7760008201527f6e6572206e6f7220617070726f76656420666f7220616c6c0000000000000000602082015250565b7f4552433732313a2062616c616e636520717565727920666f7220746865207a6560008201527f726f206164647265737300000000000000000000000000000000000000000000602082015250565b7f4552433732313a206f776e657220717565727920666f72206e6f6e657869737460008201527f656e7420746f6b656e0000000000000000000000000000000000000000000000602082015250565b7f45524337323155524953746f726167653a2055524920736574206f66206e6f6e60008201527f6578697374656e7420746f6b656e000000000000000000000000000000000000602082015250565b7f5468652076616c7565207375626d69747465642077697468207468697320747260008201527f616e73616374696f6e20697320746f6f206c6f772e0000000000000000000000602082015250565b7f4552433732313a206d696e7420746f20746865207a65726f2061646472657373600082015250565b7f45524337323155524953746f726167653a2055524920717565727920666f722060008201527f6e6f6e6578697374656e7420746f6b656e000000000000000000000000000000602082015250565b7f4552433732313a20617070726f76656420717565727920666f72206e6f6e657860008201527f697374656e7420746f6b656e0000000000000000000000000000000000000000602082015250565b7f4f776e61626c653a2063616c6c6572206973206e6f7420746865206f776e6572600082015250565b7f4552433732313a207472616e73666572206f6620746f6b656e2074686174206960008201527f73206e6f74206f776e0000000000000000000000000000000000000000000000602082015250565b7f4552433732314d657461646174613a2055524920717565727920666f72206e6f60008201527f6e6578697374656e7420746f6b656e0000000000000000000000000000000000602082015250565b7f4552433732313a20617070726f76616c20746f2063757272656e74206f776e6560008201527f7200000000000000000000000000000000000000000000000000000000000000602082015250565b7f4552433732313a207472616e736665722063616c6c6572206973206e6f74206f60008201527f776e6572206e6f7220617070726f766564000000000000000000000000000000602082015250565b7f455243373231456e756d657261626c653a20676c6f62616c20696e646578206f60008201527f7574206f6620626f756e64730000000000000000000000000000000000000000602082015250565b60038110615e5557615e54615748565b5b50565b615e6181615532565b8114615e6c57600080fd5b50565b615e7881615544565b8114615e8357600080fd5b50565b615e8f81615550565b8114615e9a57600080fd5b50565b615ea6816155af565b8114615eb157600080fd5b5056fea2646970667358221220e21a142e1d27f75c056e93d85422efaed6b775020c4b5ab51dd2a9fda11c15a964736f6c63430008020033",
  "immutableReferences": {},
  "source": "// contracts/Robot.sol\n// SPDX-License-Identifier: MIT\npragma solidity ^0.8.2;\n\nimport \"@openzeppelin/contracts/token/ERC721/ERC721.sol\";\nimport \"@openzeppelin/contracts/token/ERC721/extensions/ERC721Enumerable.sol\";\nimport \"@openzeppelin/contracts/token/ERC721/extensions/ERC721URIStorage.sol\";\nimport \"@openzeppelin/contracts/token/ERC1155/IERC1155.sol\";\nimport \"@openzeppelin/contracts/utils/math/SafeMath.sol\";\nimport \"@openzeppelin/contracts/security/Pausable.sol\";\nimport \"./Whitelist.sol\";\n\ncontract Robot is ERC721, ERC721URIStorage, ERC721Enumerable, Pausable, Whitelist {\n    using SafeMath for uint256;\n\n    uint256 public ROBOT_PRICE = 5 * 10**18;\n\n    string private _baseTokenURI;\n\n    // Address where funds are collected\n    address payable private _wallet;\n\n    string[] private robotName = [\"Robot1\", \"Robot2\", \"Robot3\", \"Robot4\"];\n    string[] private robotType = [\"Tank\", \"Speedy\", \"Defender\", \"Attacker\"];\n    uint256[] private strength = [20, 10, 10, 20];\n    uint256[] private agility = [10, 20, 10, 20];\n    uint256[] private ai = [10, 20, 20, 10];\n    uint256[] private defense = [20, 10, 20, 10];\n\n    mapping(uint256 => RobotAttributes) public robots;\n\n    string[] private robotURIs = [\"0.json\", \"1.json\", \"2.json\", \"3.json\"];\n\n    enum State {\n        Fighter, // 0\n        Trainer, // 1\n        Retired // 2\n    }\n\n    State constant defaultState = State.Fighter;\n\n    struct RobotAttributes {\n        uint256 robotIndex;\n        uint256 wins;\n        uint256 losses;\n        State state;\n        string robotName;\n        string robotType;\n        uint256 health;\n        uint256 strength;\n        uint256 agility;\n        uint256 ai;\n        uint256 defense;\n    }\n\n    constructor(string memory baseURI, address payable wallet) ERC721(\"Robot\", \"RBT\") {\n        setBaseURI(baseURI);\n        _wallet = wallet;\n    }\n\n    function pause() public onlyOwner {\n        _pause();\n    }\n\n    function unpause() public onlyOwner {\n        _unpause();\n    }\n\n    function setBaseURI(string memory baseURI) public onlyOwner {\n        _baseTokenURI = baseURI;\n    }\n\n    function _baseURI() internal view virtual override returns (string memory) {\n        return _baseTokenURI;\n    }\n\n    function _beforeTokenTransfer(address from, address to, uint256 tokenId)\n        internal\n        whenNotPaused\n        override(ERC721, ERC721Enumerable)\n    {\n        super._beforeTokenTransfer(from, to, tokenId);\n    }\n\n    // The following functions are overrides required by Solidity.\n    function _burn(uint256 tokenId) internal override(ERC721, ERC721URIStorage) {\n        super._burn(tokenId);\n    }\n\n    function tokenURI(uint256 tokenId)\n        public\n        view\n        override(ERC721, ERC721URIStorage)\n        returns (string memory)\n    {\n        return super.tokenURI(tokenId);\n    }\n\n   // The following function override required by Solidity.\n    function supportsInterface(bytes4 interfaceId)\n        public\n        view\n        override(ERC721, ERC721Enumerable)\n        returns (bool)\n    {\n        return super.supportsInterface(interfaceId);\n    }\n\n    function _createRobot(uint256 index, uint256 botType) internal {\n        robots[index] = RobotAttributes({\n            robotIndex: index,\n            wins: 0,\n            losses: 0,\n            state: defaultState,\n            robotName: robotName[botType],\n            robotType: robotType[botType],\n            health: 1000,\n            strength: strength[botType],\n            agility: agility[botType],\n            ai: ai[botType],\n            defense: defense[botType]\n        });\n    }\n\n    // Count is how many they want to mint\n    function mint(uint256 botType) public whenNotPaused payable {\n        require(botType < 4, \"There is no robot of that type\");\n        require(\n            msg.value >= ROBOT_PRICE || owner() == _msgSender(),\n            \"The value submitted with this transaction is too low.\"\n        );\n\n        uint256 totalSupply = totalSupply();\n        uint256 tokenId = totalSupply + 1;\n        _createRobot(tokenId, botType);\n        _safeMint(msg.sender, tokenId);\n        string memory robotURI = robotURIs[botType];\n        _setTokenURI(tokenId, robotURI);\n    }\n\n    function updateRobotsRecords(uint256 winningRobotIndex, uint256 losingRobotIndex) public whenNotPaused onlyWhitelisted {\n        robots[winningRobotIndex].wins += 1;\n        robots[losingRobotIndex].losses += 1;\n    }\n\n    function updateRobotName(uint256 robotIndex, string memory value) public whenNotPaused onlyWhitelisted {\n        robots[robotIndex].robotName = value;\n    }\n\n    function updateRobotHealth(uint256 robotIndex, uint256 value) public whenNotPaused onlyWhitelisted {\n        robots[robotIndex].health = value;\n    }\n\n    function updateRobotStrength(uint256 robotIndex, uint256 value) public whenNotPaused onlyWhitelisted {\n        robots[robotIndex].strength = value;\n    }\n\n    function updateRobotAgility(uint256 robotIndex, uint256 value) public whenNotPaused onlyWhitelisted {\n        robots[robotIndex].agility = value;\n    }\n\n    function updateRobotAi(uint256 robotIndex, uint256 value) public whenNotPaused onlyWhitelisted {\n        robots[robotIndex].ai = value;\n    }\n\n    function updateRobotDefense(uint256 robotIndex, uint256 value) public whenNotPaused onlyWhitelisted {\n        robots[robotIndex].defense = value;\n    }\n\n    function setRobotAsFighter(uint256 robotIndex) public whenNotPaused onlyOwner {\n        robots[robotIndex].state = State.Fighter;\n    }\n\n    function setRobotAsTrainer(uint256 robotIndex) public whenNotPaused onlyOwner {\n        robots[robotIndex].state = State.Trainer;\n    }\n\n    function setRobotAsRetired(uint256 robotIndex) public whenNotPaused onlyOwner {\n        robots[robotIndex].state = State.Retired;\n    }\n\n    function walletOfOwner(address _owner)\n        public\n        view\n        returns (uint256[] memory)\n    {\n        uint256 tokenCount = balanceOf(_owner);\n\n        if (tokenCount == 0) {\n            // Return an empty array\n            return new uint256[](0);\n        }\n\n        uint256[] memory tokensId = new uint256[](tokenCount);\n        for (uint256 i; i < tokenCount; i++) {\n            tokensId[i] = tokenOfOwnerByIndex(_owner, i);\n        }\n        return tokensId;\n    }\n\n    function withdrawAll() public payable onlyOwner {\n        require(_wallet.send(address(this).balance));\n    }\n}\n",
  "sourcePath": "/home/seandevs/workspaces/celo-hackathon/nfts/robots/contracts/Robot.sol",
  "compiler": {
    "name": "solc",
    "version": "0.8.2+commit.661d1103.Emscripten.clang"
  },
  "schemaVersion": "3.4.1",
  "updatedAt": "2021-11-26T22:29:28.568Z",
  "networkType": "ethereum",
  "devdoc": {
    "kind": "dev",
    "methods": {
      "approve(address,uint256)": {
        "details": "See {IERC721-approve}."
      },
      "balanceOf(address)": {
        "details": "See {IERC721-balanceOf}."
      },
      "getApproved(uint256)": {
        "details": "See {IERC721-getApproved}."
      },
      "isApprovedForAll(address,address)": {
        "details": "See {IERC721-isApprovedForAll}."
      },
      "name()": {
        "details": "See {IERC721Metadata-name}."
      },
      "owner()": {
        "details": "Returns the address of the current owner."
      },
      "ownerOf(uint256)": {
        "details": "See {IERC721-ownerOf}."
      },
      "paused()": {
        "details": "Returns true if the contract is paused, and false otherwise."
      },
      "renounceOwnership()": {
        "details": "Leaves the contract without owner. It will not be possible to call `onlyOwner` functions anymore. Can only be called by the current owner. NOTE: Renouncing ownership will leave the contract without an owner, thereby removing any functionality that is only available to the owner."
      },
      "safeTransferFrom(address,address,uint256)": {
        "details": "See {IERC721-safeTransferFrom}."
      },
      "safeTransferFrom(address,address,uint256,bytes)": {
        "details": "See {IERC721-safeTransferFrom}."
      },
      "setApprovalForAll(address,bool)": {
        "details": "See {IERC721-setApprovalForAll}."
      },
      "symbol()": {
        "details": "See {IERC721Metadata-symbol}."
      },
      "tokenByIndex(uint256)": {
        "details": "See {IERC721Enumerable-tokenByIndex}."
      },
      "tokenOfOwnerByIndex(address,uint256)": {
        "details": "See {IERC721Enumerable-tokenOfOwnerByIndex}."
      },
      "totalSupply()": {
        "details": "See {IERC721Enumerable-totalSupply}."
      },
      "transferFrom(address,address,uint256)": {
        "details": "See {IERC721-transferFrom}."
      },
      "transferOwnership(address)": {
        "details": "Transfers ownership of the contract to a new account (`newOwner`). Can only be called by the current owner."
      }
    },
    "version": 1
  },
  "userdoc": {
    "kind": "user",
    "methods": {},
    "version": 1
  }
}