{
  "contractName": "Robot",
  "abi": [
    {
      "inputs": [
        {
          "internalType": "string",
          "name": "baseURI",
          "type": "string"
        },
        {
          "internalType": "address payable",
          "name": "wallet",
          "type": "address"
        }
      ],
      "stateMutability": "nonpayable",
      "type": "constructor"
    },
    {
      "anonymous": false,
      "inputs": [
        {
          "indexed": true,
          "internalType": "address",
          "name": "owner",
          "type": "address"
        },
        {
          "indexed": true,
          "internalType": "address",
          "name": "approved",
          "type": "address"
        },
        {
          "indexed": true,
          "internalType": "uint256",
          "name": "tokenId",
          "type": "uint256"
        }
      ],
      "name": "Approval",
      "type": "event"
    },
    {
      "anonymous": false,
      "inputs": [
        {
          "indexed": true,
          "internalType": "address",
          "name": "owner",
          "type": "address"
        },
        {
          "indexed": true,
          "internalType": "address",
          "name": "operator",
          "type": "address"
        },
        {
          "indexed": false,
          "internalType": "bool",
          "name": "approved",
          "type": "bool"
        }
      ],
      "name": "ApprovalForAll",
      "type": "event"
    },
    {
      "anonymous": false,
      "inputs": [
        {
          "indexed": true,
          "internalType": "address",
          "name": "previousOwner",
          "type": "address"
        },
        {
          "indexed": true,
          "internalType": "address",
          "name": "newOwner",
          "type": "address"
        }
      ],
      "name": "OwnershipTransferred",
      "type": "event"
    },
    {
      "anonymous": false,
      "inputs": [
        {
          "indexed": false,
          "internalType": "address",
          "name": "account",
          "type": "address"
        }
      ],
      "name": "Paused",
      "type": "event"
    },
    {
      "anonymous": false,
      "inputs": [
        {
          "indexed": true,
          "internalType": "address",
          "name": "from",
          "type": "address"
        },
        {
          "indexed": true,
          "internalType": "address",
          "name": "to",
          "type": "address"
        },
        {
          "indexed": true,
          "internalType": "uint256",
          "name": "tokenId",
          "type": "uint256"
        }
      ],
      "name": "Transfer",
      "type": "event"
    },
    {
      "anonymous": false,
      "inputs": [
        {
          "indexed": false,
          "internalType": "address",
          "name": "account",
          "type": "address"
        }
      ],
      "name": "Unpaused",
      "type": "event"
    },
    {
      "anonymous": false,
      "inputs": [
        {
          "indexed": false,
          "internalType": "address",
          "name": "addr",
          "type": "address"
        }
      ],
      "name": "WhitelistedAddressAdded",
      "type": "event"
    },
    {
      "anonymous": false,
      "inputs": [
        {
          "indexed": false,
          "internalType": "address",
          "name": "addr",
          "type": "address"
        }
      ],
      "name": "WhitelistedAddressRemoved",
      "type": "event"
    },
    {
      "inputs": [
        {
          "internalType": "address",
          "name": "addr",
          "type": "address"
        }
      ],
      "name": "addAddressToWhitelist",
      "outputs": [
        {
          "internalType": "bool",
          "name": "success",
          "type": "bool"
        }
      ],
      "stateMutability": "nonpayable",
      "type": "function"
    },
    {
      "inputs": [
        {
          "internalType": "address[]",
          "name": "addrs",
          "type": "address[]"
        }
      ],
      "name": "addAddressesToWhitelist",
      "outputs": [
        {
          "internalType": "bool",
          "name": "success",
          "type": "bool"
        }
      ],
      "stateMutability": "nonpayable",
      "type": "function"
    },
    {
      "inputs": [
        {
          "internalType": "address",
          "name": "to",
          "type": "address"
        },
        {
          "internalType": "uint256",
          "name": "tokenId",
          "type": "uint256"
        }
      ],
      "name": "approve",
      "outputs": [],
      "stateMutability": "nonpayable",
      "type": "function"
    },
    {
      "inputs": [
        {
          "internalType": "address",
          "name": "owner",
          "type": "address"
        }
      ],
      "name": "balanceOf",
      "outputs": [
        {
          "internalType": "uint256",
          "name": "",
          "type": "uint256"
        }
      ],
      "stateMutability": "view",
      "type": "function",
      "constant": true
    },
    {
      "inputs": [
        {
          "internalType": "uint256",
          "name": "tokenId",
          "type": "uint256"
        }
      ],
      "name": "getApproved",
      "outputs": [
        {
          "internalType": "address",
          "name": "",
          "type": "address"
        }
      ],
      "stateMutability": "view",
      "type": "function",
      "constant": true
    },
    {
      "inputs": [
        {
          "internalType": "address",
          "name": "owner",
          "type": "address"
        },
        {
          "internalType": "address",
          "name": "operator",
          "type": "address"
        }
      ],
      "name": "isApprovedForAll",
      "outputs": [
        {
          "internalType": "bool",
          "name": "",
          "type": "bool"
        }
      ],
      "stateMutability": "view",
      "type": "function",
      "constant": true
    },
    {
      "inputs": [],
      "name": "name",
      "outputs": [
        {
          "internalType": "string",
          "name": "",
          "type": "string"
        }
      ],
      "stateMutability": "view",
      "type": "function",
      "constant": true
    },
    {
      "inputs": [],
      "name": "owner",
      "outputs": [
        {
          "internalType": "address",
          "name": "",
          "type": "address"
        }
      ],
      "stateMutability": "view",
      "type": "function",
      "constant": true
    },
    {
      "inputs": [
        {
          "internalType": "uint256",
          "name": "tokenId",
          "type": "uint256"
        }
      ],
      "name": "ownerOf",
      "outputs": [
        {
          "internalType": "address",
          "name": "",
          "type": "address"
        }
      ],
      "stateMutability": "view",
      "type": "function",
      "constant": true
    },
    {
      "inputs": [],
      "name": "paused",
      "outputs": [
        {
          "internalType": "bool",
          "name": "",
          "type": "bool"
        }
      ],
      "stateMutability": "view",
      "type": "function",
      "constant": true
    },
    {
      "inputs": [
        {
          "internalType": "address",
          "name": "addr",
          "type": "address"
        }
      ],
      "name": "removeAddressFromWhitelist",
      "outputs": [
        {
          "internalType": "bool",
          "name": "success",
          "type": "bool"
        }
      ],
      "stateMutability": "nonpayable",
      "type": "function"
    },
    {
      "inputs": [
        {
          "internalType": "address[]",
          "name": "addrs",
          "type": "address[]"
        }
      ],
      "name": "removeAddressesFromWhitelist",
      "outputs": [
        {
          "internalType": "bool",
          "name": "success",
          "type": "bool"
        }
      ],
      "stateMutability": "nonpayable",
      "type": "function"
    },
    {
      "inputs": [],
      "name": "renounceOwnership",
      "outputs": [],
      "stateMutability": "nonpayable",
      "type": "function"
    },
    {
      "inputs": [
        {
          "internalType": "uint256",
          "name": "",
          "type": "uint256"
        }
      ],
      "name": "robots",
      "outputs": [
        {
          "internalType": "uint256",
          "name": "robotIndex",
          "type": "uint256"
        },
        {
          "internalType": "string",
          "name": "imageURI",
          "type": "string"
        },
        {
          "internalType": "uint256",
          "name": "wins",
          "type": "uint256"
        },
        {
          "internalType": "uint256",
          "name": "losses",
          "type": "uint256"
        },
        {
          "internalType": "enum Robot.State",
          "name": "state",
          "type": "uint8"
        },
        {
          "internalType": "string",
          "name": "robotName",
          "type": "string"
        },
        {
          "internalType": "string",
          "name": "robotType",
          "type": "string"
        },
        {
          "internalType": "uint256",
          "name": "health",
          "type": "uint256"
        },
        {
          "internalType": "uint256",
          "name": "strength",
          "type": "uint256"
        },
        {
          "internalType": "uint256",
          "name": "agility",
          "type": "uint256"
        },
        {
          "internalType": "uint256",
          "name": "ai",
          "type": "uint256"
        },
        {
          "internalType": "uint256",
          "name": "defense",
          "type": "uint256"
        }
      ],
      "stateMutability": "view",
      "type": "function",
      "constant": true
    },
    {
      "inputs": [
        {
          "internalType": "address",
          "name": "from",
          "type": "address"
        },
        {
          "internalType": "address",
          "name": "to",
          "type": "address"
        },
        {
          "internalType": "uint256",
          "name": "tokenId",
          "type": "uint256"
        }
      ],
      "name": "safeTransferFrom",
      "outputs": [],
      "stateMutability": "nonpayable",
      "type": "function"
    },
    {
      "inputs": [
        {
          "internalType": "address",
          "name": "from",
          "type": "address"
        },
        {
          "internalType": "address",
          "name": "to",
          "type": "address"
        },
        {
          "internalType": "uint256",
          "name": "tokenId",
          "type": "uint256"
        },
        {
          "internalType": "bytes",
          "name": "_data",
          "type": "bytes"
        }
      ],
      "name": "safeTransferFrom",
      "outputs": [],
      "stateMutability": "nonpayable",
      "type": "function"
    },
    {
      "inputs": [
        {
          "internalType": "address",
          "name": "operator",
          "type": "address"
        },
        {
          "internalType": "bool",
          "name": "approved",
          "type": "bool"
        }
      ],
      "name": "setApprovalForAll",
      "outputs": [],
      "stateMutability": "nonpayable",
      "type": "function"
    },
    {
      "inputs": [],
      "name": "symbol",
      "outputs": [
        {
          "internalType": "string",
          "name": "",
          "type": "string"
        }
      ],
      "stateMutability": "view",
      "type": "function",
      "constant": true
    },
    {
      "inputs": [
        {
          "internalType": "uint256",
          "name": "index",
          "type": "uint256"
        }
      ],
      "name": "tokenByIndex",
      "outputs": [
        {
          "internalType": "uint256",
          "name": "",
          "type": "uint256"
        }
      ],
      "stateMutability": "view",
      "type": "function",
      "constant": true
    },
    {
      "inputs": [
        {
          "internalType": "address",
          "name": "owner",
          "type": "address"
        },
        {
          "internalType": "uint256",
          "name": "index",
          "type": "uint256"
        }
      ],
      "name": "tokenOfOwnerByIndex",
      "outputs": [
        {
          "internalType": "uint256",
          "name": "",
          "type": "uint256"
        }
      ],
      "stateMutability": "view",
      "type": "function",
      "constant": true
    },
    {
      "inputs": [
        {
          "internalType": "uint256",
          "name": "tokenId",
          "type": "uint256"
        }
      ],
      "name": "tokenURI",
      "outputs": [
        {
          "internalType": "string",
          "name": "",
          "type": "string"
        }
      ],
      "stateMutability": "view",
      "type": "function",
      "constant": true
    },
    {
      "inputs": [],
      "name": "totalSupply",
      "outputs": [
        {
          "internalType": "uint256",
          "name": "",
          "type": "uint256"
        }
      ],
      "stateMutability": "view",
      "type": "function",
      "constant": true
    },
    {
      "inputs": [
        {
          "internalType": "address",
          "name": "from",
          "type": "address"
        },
        {
          "internalType": "address",
          "name": "to",
          "type": "address"
        },
        {
          "internalType": "uint256",
          "name": "tokenId",
          "type": "uint256"
        }
      ],
      "name": "transferFrom",
      "outputs": [],
      "stateMutability": "nonpayable",
      "type": "function"
    },
    {
      "inputs": [
        {
          "internalType": "address",
          "name": "newOwner",
          "type": "address"
        }
      ],
      "name": "transferOwnership",
      "outputs": [],
      "stateMutability": "nonpayable",
      "type": "function"
    },
    {
      "inputs": [
        {
          "internalType": "address",
          "name": "",
          "type": "address"
        }
      ],
      "name": "whitelist",
      "outputs": [
        {
          "internalType": "bool",
          "name": "",
          "type": "bool"
        }
      ],
      "stateMutability": "view",
      "type": "function",
      "constant": true
    },
    {
      "inputs": [],
      "name": "pause",
      "outputs": [],
      "stateMutability": "nonpayable",
      "type": "function"
    },
    {
      "inputs": [],
      "name": "unpause",
      "outputs": [],
      "stateMutability": "nonpayable",
      "type": "function"
    },
    {
      "inputs": [
        {
          "internalType": "uint256",
          "name": "time",
          "type": "uint256"
        }
      ],
      "name": "setSaleTime",
      "outputs": [],
      "stateMutability": "nonpayable",
      "type": "function"
    },
    {
      "inputs": [],
      "name": "getSaleTime",
      "outputs": [
        {
          "internalType": "uint256",
          "name": "",
          "type": "uint256"
        }
      ],
      "stateMutability": "view",
      "type": "function",
      "constant": true
    },
    {
      "inputs": [],
      "name": "isSaleOpen",
      "outputs": [
        {
          "internalType": "bool",
          "name": "",
          "type": "bool"
        }
      ],
      "stateMutability": "view",
      "type": "function",
      "constant": true
    },
    {
      "inputs": [
        {
          "internalType": "string",
          "name": "baseURI",
          "type": "string"
        }
      ],
      "name": "setBaseURI",
      "outputs": [],
      "stateMutability": "nonpayable",
      "type": "function"
    },
    {
      "inputs": [
        {
          "internalType": "bytes4",
          "name": "interfaceId",
          "type": "bytes4"
        }
      ],
      "name": "supportsInterface",
      "outputs": [
        {
          "internalType": "bool",
          "name": "",
          "type": "bool"
        }
      ],
      "stateMutability": "view",
      "type": "function",
      "constant": true
    },
    {
      "inputs": [
        {
          "internalType": "uint256",
          "name": "botType",
          "type": "uint256"
        }
      ],
      "name": "mint",
      "outputs": [],
      "stateMutability": "payable",
      "type": "function",
      "payable": true
    },
    {
      "inputs": [
        {
          "internalType": "uint256",
          "name": "winningRobotIndex",
          "type": "uint256"
        },
        {
          "internalType": "uint256",
          "name": "losingRobotIndex",
          "type": "uint256"
        }
      ],
      "name": "updateRobotsRecords",
      "outputs": [],
      "stateMutability": "nonpayable",
      "type": "function"
    },
    {
      "inputs": [
        {
          "internalType": "uint256",
          "name": "robotIndex",
          "type": "uint256"
        },
        {
          "internalType": "uint256",
          "name": "value",
          "type": "uint256"
        }
      ],
      "name": "updateRobotHealth",
      "outputs": [],
      "stateMutability": "nonpayable",
      "type": "function"
    },
    {
      "inputs": [
        {
          "internalType": "uint256",
          "name": "robotIndex",
          "type": "uint256"
        },
        {
          "internalType": "uint256",
          "name": "value",
          "type": "uint256"
        }
      ],
      "name": "updateRobotStrength",
      "outputs": [],
      "stateMutability": "nonpayable",
      "type": "function"
    },
    {
      "inputs": [
        {
          "internalType": "uint256",
          "name": "robotIndex",
          "type": "uint256"
        },
        {
          "internalType": "uint256",
          "name": "value",
          "type": "uint256"
        }
      ],
      "name": "updateRobotAgility",
      "outputs": [],
      "stateMutability": "nonpayable",
      "type": "function"
    },
    {
      "inputs": [
        {
          "internalType": "uint256",
          "name": "robotIndex",
          "type": "uint256"
        },
        {
          "internalType": "uint256",
          "name": "value",
          "type": "uint256"
        }
      ],
      "name": "updateRobotAi",
      "outputs": [],
      "stateMutability": "nonpayable",
      "type": "function"
    },
    {
      "inputs": [
        {
          "internalType": "uint256",
          "name": "robotIndex",
          "type": "uint256"
        },
        {
          "internalType": "uint256",
          "name": "value",
          "type": "uint256"
        }
      ],
      "name": "updateRobotDefense",
      "outputs": [],
      "stateMutability": "nonpayable",
      "type": "function"
    },
    {
      "inputs": [
        {
          "internalType": "uint256",
          "name": "robotIndex",
          "type": "uint256"
        }
      ],
      "name": "setRobotAsFighter",
      "outputs": [],
      "stateMutability": "nonpayable",
      "type": "function"
    },
    {
      "inputs": [
        {
          "internalType": "uint256",
          "name": "robotIndex",
          "type": "uint256"
        }
      ],
      "name": "setRobotAsTrainer",
      "outputs": [],
      "stateMutability": "nonpayable",
      "type": "function"
    },
    {
      "inputs": [
        {
          "internalType": "uint256",
          "name": "robotIndex",
          "type": "uint256"
        }
      ],
      "name": "setRobotAsRetired",
      "outputs": [],
      "stateMutability": "nonpayable",
      "type": "function"
    },
    {
      "inputs": [
        {
          "internalType": "uint256",
          "name": "robotIndex",
          "type": "uint256"
        }
      ],
      "name": "getRobotRecord",
      "outputs": [
        {
          "internalType": "uint256",
          "name": "",
          "type": "uint256"
        },
        {
          "internalType": "uint256",
          "name": "",
          "type": "uint256"
        }
      ],
      "stateMutability": "view",
      "type": "function",
      "constant": true
    },
    {
      "inputs": [
        {
          "internalType": "uint256",
          "name": "robotIndex",
          "type": "uint256"
        }
      ],
      "name": "getRobotState",
      "outputs": [
        {
          "internalType": "enum Robot.State",
          "name": "",
          "type": "uint8"
        }
      ],
      "stateMutability": "view",
      "type": "function",
      "constant": true
    },
    {
      "inputs": [
        {
          "internalType": "address",
          "name": "_owner",
          "type": "address"
        }
      ],
      "name": "walletOfOwner",
      "outputs": [
        {
          "internalType": "uint256[]",
          "name": "",
          "type": "uint256[]"
        }
      ],
      "stateMutability": "view",
      "type": "function",
      "constant": true
    },
    {
      "inputs": [],
      "name": "withdrawAll",
      "outputs": [],
      "stateMutability": "payable",
      "type": "function",
      "payable": true
    }
  ],
  "bytecode": "0x608060405263616bc0a5600c5567011c37937e080000600d5560405180608001604052806040518060400160405280600681526020017f526f626f7431000000000000000000000000000000000000000000000000000081525081526020016040518060400160405280600681526020017f526f626f7432000000000000000000000000000000000000000000000000000081525081526020016040518060400160405280600681526020017f526f626f7433000000000000000000000000000000000000000000000000000081525081526020016040518060400160405280600681526020017f526f626f7434000000000000000000000000000000000000000000000000000081525081525060109060046200011f92919062000643565b5060405180608001604052806040518060400160405280600481526020017f54616e6b0000000000000000000000000000000000000000000000000000000081525081526020016040518060400160405280600681526020017f537065656479000000000000000000000000000000000000000000000000000081525081526020016040518060400160405280600881526020017f446566656e64657200000000000000000000000000000000000000000000000081525081526020016040518060400160405280600781526020017f526574697265640000000000000000000000000000000000000000000000000081525081525060119060046200022792919062000643565b506040518060800160405280601460ff168152602001600a60ff168152602001600a60ff168152602001601460ff1681525060129060046200026b929190620006aa565b506040518060800160405280600a60ff168152602001601460ff168152602001600a60ff168152602001601460ff168152506013906004620002af929190620006aa565b506040518060800160405280600a60ff168152602001601460ff168152602001601460ff168152602001600a60ff168152506014906004620002f3929190620006aa565b506040518060800160405280601460ff168152602001600a60ff168152602001601460ff168152602001600a60ff16815250601590600462000337929190620006aa565b503480156200034557600080fd5b50604051620069223803806200692283398181016040528101906200036b9190620008a8565b6040518060400160405280600581526020017f526f626f740000000000000000000000000000000000000000000000000000008152506040518060400160405280600381526020017f52425400000000000000000000000000000000000000000000000000000000008152508160009080519060200190620003ef92919062000701565b5080600190805190602001906200040892919062000701565b5050506000600a60006101000a81548160ff021916908315150217905550620004466200043a620004a060201b60201c565b620004a860201b60201c565b62000457826200056e60201b60201c565b80600f60006101000a81548173ffffffffffffffffffffffffffffffffffffffff021916908373ffffffffffffffffffffffffffffffffffffffff160217905550505062000b43565b600033905090565b6000600a60019054906101000a900473ffffffffffffffffffffffffffffffffffffffff16905081600a60016101000a81548173ffffffffffffffffffffffffffffffffffffffff021916908373ffffffffffffffffffffffffffffffffffffffff1602179055508173ffffffffffffffffffffffffffffffffffffffff168173ffffffffffffffffffffffffffffffffffffffff167f8be0079c531659141344cd1fd0a4f28419497f9722a3daafe3b4186f6b6457e060405160405180910390a35050565b6200057e620004a060201b60201c565b73ffffffffffffffffffffffffffffffffffffffff16620005a46200061960201b60201c565b73ffffffffffffffffffffffffffffffffffffffff1614620005fd576040517f08c379a0000000000000000000000000000000000000000000000000000000008152600401620005f49062000929565b60405180910390fd5b80600e90805190602001906200061592919062000701565b5050565b6000600a60019054906101000a900473ffffffffffffffffffffffffffffffffffffffff16905090565b82805482825590600052602060002090810192821562000697579160200282015b82811115620006965782518290805190602001906200068592919062000701565b509160200191906001019062000664565b5b509050620006a6919062000792565b5090565b828054828255906000526020600020908101928215620006ee579160200282015b82811115620006ed578251829060ff16905591602001919060010190620006cb565b5b509050620006fd9190620007ba565b5090565b8280546200070f9062000a25565b90600052602060002090601f0160209004810192826200073357600085556200077f565b82601f106200074e57805160ff19168380011785556200077f565b828001600101855582156200077f579182015b828111156200077e57825182559160200191906001019062000761565b5b5090506200078e9190620007ba565b5090565b5b80821115620007b65760008181620007ac9190620007d9565b5060010162000793565b5090565b5b80821115620007d5576000816000905550600101620007bb565b5090565b508054620007e79062000a25565b6000825580601f10620007fb57506200081c565b601f0160209004906000526020600020908101906200081b9190620007ba565b5b50565b600062000836620008308462000974565b6200094b565b9050828152602081018484840111156200084f57600080fd5b6200085c848285620009ef565b509392505050565b600081519050620008758162000b29565b92915050565b600082601f8301126200088d57600080fd5b81516200089f8482602086016200081f565b91505092915050565b60008060408385031215620008bc57600080fd5b600083015167ffffffffffffffff811115620008d757600080fd5b620008e5858286016200087b565b9250506020620008f88582860162000864565b9150509250929050565b600062000911602083620009aa565b91506200091e8262000b00565b602082019050919050565b60006020820190508181036000830152620009448162000902565b9050919050565b6000620009576200096a565b905062000965828262000a5b565b919050565b6000604051905090565b600067ffffffffffffffff82111562000992576200099162000ac0565b5b6200099d8262000aef565b9050602081019050919050565b600082825260208201905092915050565b6000620009c882620009cf565b9050919050565b600073ffffffffffffffffffffffffffffffffffffffff82169050919050565b60005b8381101562000a0f578082015181840152602081019050620009f2565b8381111562000a1f576000848401525b50505050565b6000600282049050600182168062000a3e57607f821691505b6020821081141562000a555762000a5462000a91565b5b50919050565b62000a668262000aef565b810181811067ffffffffffffffff8211171562000a885762000a8762000ac0565b5b80604052505050565b7f4e487b7100000000000000000000000000000000000000000000000000000000600052602260045260246000fd5b7f4e487b7100000000000000000000000000000000000000000000000000000000600052604160045260246000fd5b6000601f19601f8301169050919050565b7f4f776e61626c653a2063616c6c6572206973206e6f7420746865206f776e6572600082015250565b62000b3481620009bb565b811462000b4057600080fd5b50565b615dcf8062000b536000396000f3fe60806040526004361061027d5760003560e01c806370a082311161014f578063a899cbbb116100c1578063c87b56dd1161007a578063c87b56dd146109b8578063cbf21fe4146109f5578063db43c50714610a20578063e2ec6ec314610a49578063e985e9c514610a86578063f2fde38b14610ac35761027d565b8063a899cbbb146108ae578063aaea4fff146108eb578063abdb9bec14610914578063b01d49d11461093d578063b7a293ec14610966578063b88d4fde1461098f5761027d565b80638da5cb5b116101135780638da5cb5b1461078e57806395d89b41146107b95780639b19251a146107e4578063a03937c514610821578063a0712d6814610869578063a22cb465146108855761027d565b806370a08231146106dc578063715018a6146107195780637b9417c8146107305780638456cb591461076d578063853828b6146107845761027d565b80633bd2b67d116101f357806355f804b3116101ac57806355f804b3146105d057806357a6f5cf146105f95780635a44890a146106225780635c975abb1461064b5780636352211e146106765780636f027ef1146106b35761027d565b80633bd2b67d146104c45780633f4ba83a146104ed57806342842e0e14610504578063438b63001461052d5780634f6ccce71461056a578063508a99a1146105a75761027d565b806318160ddd1161024557806318160ddd1461038e5780631a081330146103b957806323b872dd146103e457806324953eaa1461040d578063286dd3f51461044a5780632f745c59146104875761027d565b806301ffc9a71461028257806306fdde03146102bf578063081812fc146102ea578063095ea7b3146103275780630e9c54a114610350575b600080fd5b34801561028e57600080fd5b506102a960048036038101906102a49190614803565b610aec565b6040516102b69190614e31565b60405180910390f35b3480156102cb57600080fd5b506102d4610afe565b6040516102e19190614e67565b60405180910390f35b3480156102f657600080fd5b50610311600480360381019061030c9190614896565b610b90565b60405161031e9190614da8565b60405180910390f35b34801561033357600080fd5b5061034e60048036038101906103499190614786565b610c15565b005b34801561035c57600080fd5b5061037760048036038101906103729190614896565b610d2d565b604051610385929190615253565b60405180910390f35b34801561039a57600080fd5b506103a3610d67565b6040516103b09190615169565b60405180910390f35b3480156103c557600080fd5b506103ce610d74565b6040516103db9190614e31565b60405180910390f35b3480156103f057600080fd5b5061040b60048036038101906104069190614680565b610d81565b005b34801561041957600080fd5b50610434600480360381019061042f91906147c2565b610de1565b6040516104419190614e31565b60405180910390f35b34801561045657600080fd5b50610471600480360381019061046c919061461b565b610ed7565b60405161047e9190614e31565b60405180910390f35b34801561049357600080fd5b506104ae60048036038101906104a99190614786565b611040565b6040516104bb9190615169565b60405180910390f35b3480156104d057600080fd5b506104eb60048036038101906104e69190614896565b6110e5565b005b3480156104f957600080fd5b5061050261116b565b005b34801561051057600080fd5b5061052b60048036038101906105269190614680565b6111f1565b005b34801561053957600080fd5b50610554600480360381019061054f919061461b565b611211565b6040516105619190614e0f565b60405180910390f35b34801561057657600080fd5b50610591600480360381019061058c9190614896565b61138d565b60405161059e9190615169565b60405180910390f35b3480156105b357600080fd5b506105ce60048036038101906105c991906148bf565b611424565b005b3480156105dc57600080fd5b506105f760048036038101906105f29190614855565b6114e1565b005b34801561060557600080fd5b50610620600480360381019061061b9190614896565b611577565b005b34801561062e57600080fd5b50610649600480360381019061064491906148bf565b6116a3565b005b34801561065757600080fd5b50610660611760565b60405161066d9190614e31565b60405180910390f35b34801561068257600080fd5b5061069d60048036038101906106989190614896565b611777565b6040516106aa9190614da8565b60405180910390f35b3480156106bf57600080fd5b506106da60048036038101906106d591906148bf565b611829565b005b3480156106e857600080fd5b5061070360048036038101906106fe919061461b565b611927565b6040516107109190615169565b60405180910390f35b34801561072557600080fd5b5061072e6119df565b005b34801561073c57600080fd5b506107576004803603810190610752919061461b565b611a67565b6040516107649190614e31565b60405180910390f35b34801561077957600080fd5b50610782611bcf565b005b61078c611c55565b005b34801561079a57600080fd5b506107a3611d33565b6040516107b09190614da8565b60405180910390f35b3480156107c557600080fd5b506107ce611d5d565b6040516107db9190614e67565b60405180910390f35b3480156107f057600080fd5b5061080b6004803603810190610806919061461b565b611def565b6040516108189190614e31565b60405180910390f35b34801561082d57600080fd5b5061084860048036038101906108439190614896565b611e0f565b6040516108609c9b9a99989796959493929190615184565b60405180910390f35b610883600480360381019061087e9190614896565b612014565b005b34801561089157600080fd5b506108ac60048036038101906108a7919061474a565b6121a3565b005b3480156108ba57600080fd5b506108d560048036038101906108d09190614896565b612324565b6040516108e29190614e4c565b60405180910390f35b3480156108f757600080fd5b50610912600480360381019061090d91906148bf565b612351565b005b34801561092057600080fd5b5061093b60048036038101906109369190614896565b61240e565b005b34801561094957600080fd5b50610964600480360381019061095f91906148bf565b61253a565b005b34801561097257600080fd5b5061098d600480360381019061098891906148bf565b6125f7565b005b34801561099b57600080fd5b506109b660048036038101906109b191906146cf565b6126b4565b005b3480156109c457600080fd5b506109df60048036038101906109da9190614896565b612716565b6040516109ec9190614e67565b60405180910390f35b348015610a0157600080fd5b50610a0a6127bd565b604051610a179190615169565b60405180910390f35b348015610a2c57600080fd5b50610a476004803603810190610a429190614896565b6127c7565b005b348015610a5557600080fd5b50610a706004803603810190610a6b91906147c2565b6128f3565b604051610a7d9190614e31565b60405180910390f35b348015610a9257600080fd5b50610aad6004803603810190610aa89190614644565b6129e9565b604051610aba9190614e31565b60405180910390f35b348015610acf57600080fd5b50610aea6004803603810190610ae5919061461b565b612a7d565b005b6000610af782612b75565b9050919050565b606060008054610b0d90615541565b80601f0160208091040260200160405190810160405280929190818152602001828054610b3990615541565b8015610b865780601f10610b5b57610100808354040283529160200191610b86565b820191906000526020600020905b815481529060010190602001808311610b6957829003601f168201915b5050505050905090565b6000610b9b82612bef565b610bda576040517f08c379a0000000000000000000000000000000000000000000000000000000008152600401610bd190615089565b60405180910390fd5b6004600083815260200190815260200160002060009054906101000a900473ffffffffffffffffffffffffffffffffffffffff169050919050565b6000610c2082611777565b90508073ffffffffffffffffffffffffffffffffffffffff168373ffffffffffffffffffffffffffffffffffffffff161415610c91576040517f08c379a0000000000000000000000000000000000000000000000000000000008152600401610c8890615109565b60405180910390fd5b8073ffffffffffffffffffffffffffffffffffffffff16610cb0612c5b565b73ffffffffffffffffffffffffffffffffffffffff161480610cdf5750610cde81610cd9612c5b565b6129e9565b5b610d1e576040517f08c379a0000000000000000000000000000000000000000000000000000000008152600401610d1590614fe9565b60405180910390fd5b610d288383612c63565b505050565b6000806016600084815260200190815260200160002060020154601660008581526020019081526020016000206003015491509150915091565b6000600880549050905090565b6000600c54421015905090565b610d92610d8c612c5b565b82612d1c565b610dd1576040517f08c379a0000000000000000000000000000000000000000000000000000000008152600401610dc890615129565b60405180910390fd5b610ddc838383612dfa565b505050565b6000610deb612c5b565b73ffffffffffffffffffffffffffffffffffffffff16610e09611d33565b73ffffffffffffffffffffffffffffffffffffffff1614610e5f576040517f08c379a0000000000000000000000000000000000000000000000000000000008152600401610e56906150a9565b60405180910390fd5b60005b8251811015610ed157610eb4838281518110610ea7577f4e487b7100000000000000000000000000000000000000000000000000000000600052603260045260246000fd5b6020026020010151610ed7565b15610ebe57600191505b8080610ec9906155a4565b915050610e62565b50919050565b6000610ee1612c5b565b73ffffffffffffffffffffffffffffffffffffffff16610eff611d33565b73ffffffffffffffffffffffffffffffffffffffff1614610f55576040517f08c379a0000000000000000000000000000000000000000000000000000000008152600401610f4c906150a9565b60405180910390fd5b600b60008373ffffffffffffffffffffffffffffffffffffffff1673ffffffffffffffffffffffffffffffffffffffff16815260200190815260200160002060009054906101000a900460ff161561103b576000600b60008473ffffffffffffffffffffffffffffffffffffffff1673ffffffffffffffffffffffffffffffffffffffff16815260200190815260200160002060006101000a81548160ff0219169083151502179055507ff1abf01a1043b7c244d128e8595cf0c1d10743b022b03a02dffd8ca3bf729f5a8260405161102e9190614da8565b60405180910390a1600190505b919050565b600061104b83611927565b821061108c576040517f08c379a000000000000000000000000000000000000000000000000000000000815260040161108390614ec9565b60405180910390fd5b600660008473ffffffffffffffffffffffffffffffffffffffff1673ffffffffffffffffffffffffffffffffffffffff168152602001908152602001600020600083815260200190815260200160002054905092915050565b6110ed612c5b565b73ffffffffffffffffffffffffffffffffffffffff1661110b611d33565b73ffffffffffffffffffffffffffffffffffffffff1614611161576040517f08c379a0000000000000000000000000000000000000000000000000000000008152600401611158906150a9565b60405180910390fd5b80600c8190555050565b611173612c5b565b73ffffffffffffffffffffffffffffffffffffffff16611191611d33565b73ffffffffffffffffffffffffffffffffffffffff16146111e7576040517f08c379a00000000000000000000000000000000000000000000000000000000081526004016111de906150a9565b60405180910390fd5b6111ef613056565b565b61120c838383604051806020016040528060008152506126b4565b505050565b6060600061121e83611927565b905060008114156112a157600067ffffffffffffffff81111561126a577f4e487b7100000000000000000000000000000000000000000000000000000000600052604160045260246000fd5b6040519080825280602002602001820160405280156112985781602001602082028036833780820191505090505b50915050611388565b60008167ffffffffffffffff8111156112e3577f4e487b7100000000000000000000000000000000000000000000000000000000600052604160045260246000fd5b6040519080825280602002602001820160405280156113115781602001602082028036833780820191505090505b50905060005b82811015611381576113298582611040565b828281518110611362577f4e487b7100000000000000000000000000000000000000000000000000000000600052603260045260246000fd5b6020026020010181815250508080611379906155a4565b915050611317565b5080925050505b919050565b6000611397610d67565b82106113d8576040517f08c379a00000000000000000000000000000000000000000000000000000000081526004016113cf90615149565b60405180910390fd5b60088281548110611412577f4e487b7100000000000000000000000000000000000000000000000000000000600052603260045260246000fd5b90600052602060002001549050919050565b61142c611760565b1561146c576040517f08c379a000000000000000000000000000000000000000000000000000000000815260040161146390614fc9565b60405180910390fd5b600b60003373ffffffffffffffffffffffffffffffffffffffff1673ffffffffffffffffffffffffffffffffffffffff16815260200190815260200160002060009054906101000a900460ff166114c257600080fd5b8060166000848152602001908152602001600020600b01819055505050565b6114e9612c5b565b73ffffffffffffffffffffffffffffffffffffffff16611507611d33565b73ffffffffffffffffffffffffffffffffffffffff161461155d576040517f08c379a0000000000000000000000000000000000000000000000000000000008152600401611554906150a9565b60405180910390fd5b80600e90805190602001906115739291906143a9565b5050565b61157f611760565b156115bf576040517f08c379a00000000000000000000000000000000000000000000000000000000081526004016115b690614fc9565b60405180910390fd5b6115c7612c5b565b73ffffffffffffffffffffffffffffffffffffffff166115e5611d33565b73ffffffffffffffffffffffffffffffffffffffff161461163b576040517f08c379a0000000000000000000000000000000000000000000000000000000008152600401611632906150a9565b60405180910390fd5b60006016600083815260200190815260200160002060040160006101000a81548160ff0219169083600281111561169b577f4e487b7100000000000000000000000000000000000000000000000000000000600052602160045260246000fd5b021790555050565b6116ab611760565b156116eb576040517f08c379a00000000000000000000000000000000000000000000000000000000081526004016116e290614fc9565b60405180910390fd5b600b60003373ffffffffffffffffffffffffffffffffffffffff1673ffffffffffffffffffffffffffffffffffffffff16815260200190815260200160002060009054906101000a900460ff1661174157600080fd5b8060166000848152602001908152602001600020600801819055505050565b6000600a60009054906101000a900460ff16905090565b6000806002600084815260200190815260200160002060009054906101000a900473ffffffffffffffffffffffffffffffffffffffff169050600073ffffffffffffffffffffffffffffffffffffffff168173ffffffffffffffffffffffffffffffffffffffff161415611820576040517f08c379a000000000000000000000000000000000000000000000000000000000815260040161181790615029565b60405180910390fd5b80915050919050565b611831611760565b15611871576040517f08c379a000000000000000000000000000000000000000000000000000000000815260040161186890614fc9565b60405180910390fd5b600b60003373ffffffffffffffffffffffffffffffffffffffff1673ffffffffffffffffffffffffffffffffffffffff16815260200190815260200160002060009054906101000a900460ff166118c757600080fd5b60016016600084815260200190815260200160002060020160008282546118ee91906153ab565b92505081905550600160166000838152602001908152602001600020600301600082825461191c91906153ab565b925050819055505050565b60008073ffffffffffffffffffffffffffffffffffffffff168273ffffffffffffffffffffffffffffffffffffffff161415611998576040517f08c379a000000000000000000000000000000000000000000000000000000000815260040161198f90615009565b60405180910390fd5b600360008373ffffffffffffffffffffffffffffffffffffffff1673ffffffffffffffffffffffffffffffffffffffff168152602001908152602001600020549050919050565b6119e7612c5b565b73ffffffffffffffffffffffffffffffffffffffff16611a05611d33565b73ffffffffffffffffffffffffffffffffffffffff1614611a5b576040517f08c379a0000000000000000000000000000000000000000000000000000000008152600401611a52906150a9565b60405180910390fd5b611a6560006130f8565b565b6000611a71612c5b565b73ffffffffffffffffffffffffffffffffffffffff16611a8f611d33565b73ffffffffffffffffffffffffffffffffffffffff1614611ae5576040517f08c379a0000000000000000000000000000000000000000000000000000000008152600401611adc906150a9565b60405180910390fd5b600b60008373ffffffffffffffffffffffffffffffffffffffff1673ffffffffffffffffffffffffffffffffffffffff16815260200190815260200160002060009054906101000a900460ff16611bca576001600b60008473ffffffffffffffffffffffffffffffffffffffff1673ffffffffffffffffffffffffffffffffffffffff16815260200190815260200160002060006101000a81548160ff0219169083151502179055507fd1bba68c128cc3f427e5831b3c6f99f480b6efa6b9e80c757768f6124158cc3f82604051611bbd9190614da8565b60405180910390a1600190505b919050565b611bd7612c5b565b73ffffffffffffffffffffffffffffffffffffffff16611bf5611d33565b73ffffffffffffffffffffffffffffffffffffffff1614611c4b576040517f08c379a0000000000000000000000000000000000000000000000000000000008152600401611c42906150a9565b60405180910390fd5b611c536131be565b565b611c5d612c5b565b73ffffffffffffffffffffffffffffffffffffffff16611c7b611d33565b73ffffffffffffffffffffffffffffffffffffffff1614611cd1576040517f08c379a0000000000000000000000000000000000000000000000000000000008152600401611cc8906150a9565b60405180910390fd5b600f60009054906101000a900473ffffffffffffffffffffffffffffffffffffffff1673ffffffffffffffffffffffffffffffffffffffff166108fc479081150290604051600060405180830381858888f19350505050611d3157600080fd5b565b6000600a60019054906101000a900473ffffffffffffffffffffffffffffffffffffffff16905090565b606060018054611d6c90615541565b80601f0160208091040260200160405190810160405280929190818152602001828054611d9890615541565b8015611de55780601f10611dba57610100808354040283529160200191611de5565b820191906000526020600020905b815481529060010190602001808311611dc857829003601f168201915b5050505050905090565b600b6020528060005260406000206000915054906101000a900460ff1681565b6016602052806000526040600020600091509050806000015490806001018054611e3890615541565b80601f0160208091040260200160405190810160405280929190818152602001828054611e6490615541565b8015611eb15780601f10611e8657610100808354040283529160200191611eb1565b820191906000526020600020905b815481529060010190602001808311611e9457829003601f168201915b5050505050908060020154908060030154908060040160009054906101000a900460ff1690806005018054611ee590615541565b80601f0160208091040260200160405190810160405280929190818152602001828054611f1190615541565b8015611f5e5780601f10611f3357610100808354040283529160200191611f5e565b820191906000526020600020905b815481529060010190602001808311611f4157829003601f168201915b505050505090806006018054611f7390615541565b80601f0160208091040260200160405190810160405280929190818152602001828054611f9f90615541565b8015611fec5780601f10611fc157610100808354040283529160200191611fec565b820191906000526020600020905b815481529060010190602001808311611fcf57829003601f168201915b50505050509080600701549080600801549080600901549080600a01549080600b015490508c565b61201c611760565b1561205c576040517f08c379a000000000000000000000000000000000000000000000000000000000815260040161205390614fc9565b60405180910390fd5b6004811061209f576040517f08c379a000000000000000000000000000000000000000000000000000000000815260040161209690614ea9565b60405180910390fd5b600d54341015806120e957506120b3612c5b565b73ffffffffffffffffffffffffffffffffffffffff166120d1611d33565b73ffffffffffffffffffffffffffffffffffffffff16145b612128576040517f08c379a000000000000000000000000000000000000000000000000000000000815260040161211f90615049565b60405180910390fd5b600c5442101561216d576040517f08c379a000000000000000000000000000000000000000000000000000000000815260040161216490614f89565b60405180910390fd5b6000612177610d67565b9050600060018261218891906153ab565b90506121948184613261565b61219e33826136e8565b505050565b6121ab612c5b565b73ffffffffffffffffffffffffffffffffffffffff168273ffffffffffffffffffffffffffffffffffffffff161415612219576040517f08c379a000000000000000000000000000000000000000000000000000000000815260040161221090614f69565b60405180910390fd5b8060056000612226612c5b565b73ffffffffffffffffffffffffffffffffffffffff1673ffffffffffffffffffffffffffffffffffffffff16815260200190815260200160002060008473ffffffffffffffffffffffffffffffffffffffff1673ffffffffffffffffffffffffffffffffffffffff16815260200190815260200160002060006101000a81548160ff0219169083151502179055508173ffffffffffffffffffffffffffffffffffffffff166122d3612c5b565b73ffffffffffffffffffffffffffffffffffffffff167f17307eab39ab6107e8899845ad3d59bd9653f200f220920489ca2b5937696c31836040516123189190614e31565b60405180910390a35050565b60006016600083815260200190815260200160002060040160009054906101000a900460ff169050919050565b612359611760565b15612399576040517f08c379a000000000000000000000000000000000000000000000000000000000815260040161239090614fc9565b60405180910390fd5b600b60003373ffffffffffffffffffffffffffffffffffffffff1673ffffffffffffffffffffffffffffffffffffffff16815260200190815260200160002060009054906101000a900460ff166123ef57600080fd5b8060166000848152602001908152602001600020600901819055505050565b612416611760565b15612456576040517f08c379a000000000000000000000000000000000000000000000000000000000815260040161244d90614fc9565b60405180910390fd5b61245e612c5b565b73ffffffffffffffffffffffffffffffffffffffff1661247c611d33565b73ffffffffffffffffffffffffffffffffffffffff16146124d2576040517f08c379a00000000000000000000000000000000000000000000000000000000081526004016124c9906150a9565b60405180910390fd5b60016016600083815260200190815260200160002060040160006101000a81548160ff02191690836002811115612532577f4e487b7100000000000000000000000000000000000000000000000000000000600052602160045260246000fd5b021790555050565b612542611760565b15612582576040517f08c379a000000000000000000000000000000000000000000000000000000000815260040161257990614fc9565b60405180910390fd5b600b60003373ffffffffffffffffffffffffffffffffffffffff1673ffffffffffffffffffffffffffffffffffffffff16815260200190815260200160002060009054906101000a900460ff166125d857600080fd5b8060166000848152602001908152602001600020600a01819055505050565b6125ff611760565b1561263f576040517f08c379a000000000000000000000000000000000000000000000000000000000815260040161263690614fc9565b60405180910390fd5b600b60003373ffffffffffffffffffffffffffffffffffffffff1673ffffffffffffffffffffffffffffffffffffffff16815260200190815260200160002060009054906101000a900460ff1661269557600080fd5b8060166000848152602001908152602001600020600701819055505050565b6126c56126bf612c5b565b83612d1c565b612704576040517f08c379a00000000000000000000000000000000000000000000000000000000081526004016126fb90615129565b60405180910390fd5b61271084848484613706565b50505050565b606061272182612bef565b612760576040517f08c379a0000000000000000000000000000000000000000000000000000000008152600401612757906150e9565b60405180910390fd5b600061276a613762565b9050600081511161278a57604051806020016040528060008152506127b5565b80612794846137f4565b6040516020016127a5929190614d84565b6040516020818303038152906040525b915050919050565b6000600c54905090565b6127cf611760565b1561280f576040517f08c379a000000000000000000000000000000000000000000000000000000000815260040161280690614fc9565b60405180910390fd5b612817612c5b565b73ffffffffffffffffffffffffffffffffffffffff16612835611d33565b73ffffffffffffffffffffffffffffffffffffffff161461288b576040517f08c379a0000000000000000000000000000000000000000000000000000000008152600401612882906150a9565b60405180910390fd5b60026016600083815260200190815260200160002060040160006101000a81548160ff021916908360028111156128eb577f4e487b7100000000000000000000000000000000000000000000000000000000600052602160045260246000fd5b021790555050565b60006128fd612c5b565b73ffffffffffffffffffffffffffffffffffffffff1661291b611d33565b73ffffffffffffffffffffffffffffffffffffffff1614612971576040517f08c379a0000000000000000000000000000000000000000000000000000000008152600401612968906150a9565b60405180910390fd5b60005b82518110156129e3576129c68382815181106129b9577f4e487b7100000000000000000000000000000000000000000000000000000000600052603260045260246000fd5b6020026020010151611a67565b156129d057600191505b80806129db906155a4565b915050612974565b50919050565b6000600560008473ffffffffffffffffffffffffffffffffffffffff1673ffffffffffffffffffffffffffffffffffffffff16815260200190815260200160002060008373ffffffffffffffffffffffffffffffffffffffff1673ffffffffffffffffffffffffffffffffffffffff16815260200190815260200160002060009054906101000a900460ff16905092915050565b612a85612c5b565b73ffffffffffffffffffffffffffffffffffffffff16612aa3611d33565b73ffffffffffffffffffffffffffffffffffffffff1614612af9576040517f08c379a0000000000000000000000000000000000000000000000000000000008152600401612af0906150a9565b60405180910390fd5b600073ffffffffffffffffffffffffffffffffffffffff168173ffffffffffffffffffffffffffffffffffffffff161415612b69576040517f08c379a0000000000000000000000000000000000000000000000000000000008152600401612b6090614f09565b60405180910390fd5b612b72816130f8565b50565b60007f780e9d63000000000000000000000000000000000000000000000000000000007bffffffffffffffffffffffffffffffffffffffffffffffffffffffff1916827bffffffffffffffffffffffffffffffffffffffffffffffffffffffff19161480612be85750612be7826139a1565b5b9050919050565b60008073ffffffffffffffffffffffffffffffffffffffff166002600084815260200190815260200160002060009054906101000a900473ffffffffffffffffffffffffffffffffffffffff1673ffffffffffffffffffffffffffffffffffffffff1614159050919050565b600033905090565b816004600083815260200190815260200160002060006101000a81548173ffffffffffffffffffffffffffffffffffffffff021916908373ffffffffffffffffffffffffffffffffffffffff160217905550808273ffffffffffffffffffffffffffffffffffffffff16612cd683611777565b73ffffffffffffffffffffffffffffffffffffffff167f8c5be1e5ebec7d5bd14f71427d1e84f3dd0314c0f7b2291e5b200ac8c7c3b92560405160405180910390a45050565b6000612d2782612bef565b612d66576040517f08c379a0000000000000000000000000000000000000000000000000000000008152600401612d5d90614fa9565b60405180910390fd5b6000612d7183611777565b90508073ffffffffffffffffffffffffffffffffffffffff168473ffffffffffffffffffffffffffffffffffffffff161480612de057508373ffffffffffffffffffffffffffffffffffffffff16612dc884610b90565b73ffffffffffffffffffffffffffffffffffffffff16145b80612df15750612df081856129e9565b5b91505092915050565b8273ffffffffffffffffffffffffffffffffffffffff16612e1a82611777565b73ffffffffffffffffffffffffffffffffffffffff1614612e70576040517f08c379a0000000000000000000000000000000000000000000000000000000008152600401612e67906150c9565b60405180910390fd5b600073ffffffffffffffffffffffffffffffffffffffff168273ffffffffffffffffffffffffffffffffffffffff161415612ee0576040517f08c379a0000000000000000000000000000000000000000000000000000000008152600401612ed790614f49565b60405180910390fd5b612eeb838383613a83565b612ef6600082612c63565b6001600360008573ffffffffffffffffffffffffffffffffffffffff1673ffffffffffffffffffffffffffffffffffffffff1681526020019081526020016000206000828254612f469190615432565b925050819055506001600360008473ffffffffffffffffffffffffffffffffffffffff1673ffffffffffffffffffffffffffffffffffffffff1681526020019081526020016000206000828254612f9d91906153ab565b92505081905550816002600083815260200190815260200160002060006101000a81548173ffffffffffffffffffffffffffffffffffffffff021916908373ffffffffffffffffffffffffffffffffffffffff160217905550808273ffffffffffffffffffffffffffffffffffffffff168473ffffffffffffffffffffffffffffffffffffffff167fddf252ad1be2c89b69c2b068fc378daa952ba7f163c4a11628f55a4df523b3ef60405160405180910390a4505050565b61305e611760565b61309d576040517f08c379a000000000000000000000000000000000000000000000000000000000815260040161309490614e89565b60405180910390fd5b6000600a60006101000a81548160ff0219169083151502179055507f5db9ee0a495bf2e6ff9c91a7834c1ba4fdd244a5e8aa4e537bd38aeae4b073aa6130e1612c5b565b6040516130ee9190614da8565b60405180910390a1565b6000600a60019054906101000a900473ffffffffffffffffffffffffffffffffffffffff16905081600a60016101000a81548173ffffffffffffffffffffffffffffffffffffffff021916908373ffffffffffffffffffffffffffffffffffffffff1602179055508173ffffffffffffffffffffffffffffffffffffffff168173ffffffffffffffffffffffffffffffffffffffff167f8be0079c531659141344cd1fd0a4f28419497f9722a3daafe3b4186f6b6457e060405160405180910390a35050565b6131c6611760565b15613206576040517f08c379a00000000000000000000000000000000000000000000000000000000081526004016131fd90614fc9565b60405180910390fd5b6001600a60006101000a81548160ff0219169083151502179055507f62e78cea01bee320cd4e420270b5ea74000d11b0c9f74754ebdbfc544b05a25861324a612c5b565b6040516132579190614da8565b60405180910390a1565b6040518061018001604052808381526020016040518060400160405280600181526020017f200000000000000000000000000000000000000000000000000000000000000081525081526020016000815260200160008152602001600060028111156132f6577f4e487b7100000000000000000000000000000000000000000000000000000000600052602160045260246000fd5b815260200160108381548110613335577f4e487b7100000000000000000000000000000000000000000000000000000000600052603260045260246000fd5b90600052602060002001805461334a90615541565b80601f016020809104026020016040519081016040528092919081815260200182805461337690615541565b80156133c35780601f10613398576101008083540402835291602001916133c3565b820191906000526020600020905b8154815290600101906020018083116133a657829003601f168201915b5050505050815260200160118381548110613407577f4e487b7100000000000000000000000000000000000000000000000000000000600052603260045260246000fd5b90600052602060002001805461341c90615541565b80601f016020809104026020016040519081016040528092919081815260200182805461344890615541565b80156134955780601f1061346a57610100808354040283529160200191613495565b820191906000526020600020905b81548152906001019060200180831161347857829003601f168201915b505050505081526020016103e88152602001601283815481106134e1577f4e487b7100000000000000000000000000000000000000000000000000000000600052603260045260246000fd5b906000526020600020015481526020016013838154811061352b577f4e487b7100000000000000000000000000000000000000000000000000000000600052603260045260246000fd5b9060005260206000200154815260200160148381548110613575577f4e487b7100000000000000000000000000000000000000000000000000000000600052603260045260246000fd5b90600052602060002001548152602001601583815481106135bf577f4e487b7100000000000000000000000000000000000000000000000000000000600052603260045260246000fd5b9060005260206000200154815250601660008481526020019081526020016000206000820151816000015560208201518160010190805190602001906136069291906143a9565b50604082015181600201556060820151816003015560808201518160040160006101000a81548160ff0219169083600281111561366c577f4e487b7100000000000000000000000000000000000000000000000000000000600052602160045260246000fd5b021790555060a082015181600501908051906020019061368d9291906143a9565b5060c08201518160060190805190602001906136aa9291906143a9565b5060e082015181600701556101008201518160080155610120820151816009015561014082015181600a015561016082015181600b01559050505050565b613702828260405180602001604052806000815250613adb565b5050565b613711848484612dfa565b61371d84848484613b36565b61375c576040517f08c379a000000000000000000000000000000000000000000000000000000000815260040161375390614ee9565b60405180910390fd5b50505050565b6060600e805461377190615541565b80601f016020809104026020016040519081016040528092919081815260200182805461379d90615541565b80156137ea5780601f106137bf576101008083540402835291602001916137ea565b820191906000526020600020905b8154815290600101906020018083116137cd57829003601f168201915b5050505050905090565b6060600082141561383c576040518060400160405280600181526020017f3000000000000000000000000000000000000000000000000000000000000000815250905061399c565b600082905060005b6000821461386e578080613857906155a4565b915050600a826138679190615401565b9150613844565b60008167ffffffffffffffff8111156138b0577f4e487b7100000000000000000000000000000000000000000000000000000000600052604160045260246000fd5b6040519080825280601f01601f1916602001820160405280156138e25781602001600182028036833780820191505090505b5090505b60008514613995576001826138fb9190615432565b9150600a8561390a91906155ed565b603061391691906153ab565b60f81b818381518110613952577f4e487b7100000000000000000000000000000000000000000000000000000000600052603260045260246000fd5b60200101907effffffffffffffffffffffffffffffffffffffffffffffffffffffffffffff1916908160001a905350600a8561398e9190615401565b94506138e6565b8093505050505b919050565b60007f80ac58cd000000000000000000000000000000000000000000000000000000007bffffffffffffffffffffffffffffffffffffffffffffffffffffffff1916827bffffffffffffffffffffffffffffffffffffffffffffffffffffffff19161480613a6c57507f5b5e139f000000000000000000000000000000000000000000000000000000007bffffffffffffffffffffffffffffffffffffffffffffffffffffffff1916827bffffffffffffffffffffffffffffffffffffffffffffffffffffffff1916145b80613a7c5750613a7b82613ccd565b5b9050919050565b613a8b611760565b15613acb576040517f08c379a0000000000000000000000000000000000000000000000000000000008152600401613ac290614fc9565b60405180910390fd5b613ad6838383613d37565b505050565b613ae58383613e4b565b613af26000848484613b36565b613b31576040517f08c379a0000000000000000000000000000000000000000000000000000000008152600401613b2890614ee9565b60405180910390fd5b505050565b6000613b578473ffffffffffffffffffffffffffffffffffffffff16614019565b15613cc0578373ffffffffffffffffffffffffffffffffffffffff1663150b7a02613b80612c5b565b8786866040518563ffffffff1660e01b8152600401613ba29493929190614dc3565b602060405180830381600087803b158015613bbc57600080fd5b505af1925050508015613bed57506040513d601f19601f82011682018060405250810190613bea919061482c565b60015b613c70573d8060008114613c1d576040519150601f19603f3d011682016040523d82523d6000602084013e613c22565b606091505b50600081511415613c68576040517f08c379a0000000000000000000000000000000000000000000000000000000008152600401613c5f90614ee9565b60405180910390fd5b805181602001fd5b63150b7a0260e01b7bffffffffffffffffffffffffffffffffffffffffffffffffffffffff1916817bffffffffffffffffffffffffffffffffffffffffffffffffffffffff191614915050613cc5565b600190505b949350505050565b60007f01ffc9a7000000000000000000000000000000000000000000000000000000007bffffffffffffffffffffffffffffffffffffffffffffffffffffffff1916827bffffffffffffffffffffffffffffffffffffffffffffffffffffffff1916149050919050565b613d4283838361402c565b600073ffffffffffffffffffffffffffffffffffffffff168373ffffffffffffffffffffffffffffffffffffffff161415613d8557613d8081614031565b613dc4565b8173ffffffffffffffffffffffffffffffffffffffff168373ffffffffffffffffffffffffffffffffffffffff1614613dc357613dc2838261407a565b5b5b600073ffffffffffffffffffffffffffffffffffffffff168273ffffffffffffffffffffffffffffffffffffffff161415613e0757613e02816141e7565b613e46565b8273ffffffffffffffffffffffffffffffffffffffff168273ffffffffffffffffffffffffffffffffffffffff1614613e4557613e44828261432a565b5b5b505050565b600073ffffffffffffffffffffffffffffffffffffffff168273ffffffffffffffffffffffffffffffffffffffff161415613ebb576040517f08c379a0000000000000000000000000000000000000000000000000000000008152600401613eb290615069565b60405180910390fd5b613ec481612bef565b15613f04576040517f08c379a0000000000000000000000000000000000000000000000000000000008152600401613efb90614f29565b60405180910390fd5b613f1060008383613a83565b6001600360008473ffffffffffffffffffffffffffffffffffffffff1673ffffffffffffffffffffffffffffffffffffffff1681526020019081526020016000206000828254613f6091906153ab565b92505081905550816002600083815260200190815260200160002060006101000a81548173ffffffffffffffffffffffffffffffffffffffff021916908373ffffffffffffffffffffffffffffffffffffffff160217905550808273ffffffffffffffffffffffffffffffffffffffff16600073ffffffffffffffffffffffffffffffffffffffff167fddf252ad1be2c89b69c2b068fc378daa952ba7f163c4a11628f55a4df523b3ef60405160405180910390a45050565b600080823b905060008111915050919050565b505050565b6008805490506009600083815260200190815260200160002081905550600881908060018154018082558091505060019003906000526020600020016000909190919091505550565b6000600161408784611927565b6140919190615432565b9050600060076000848152602001908152602001600020549050818114614176576000600660008673ffffffffffffffffffffffffffffffffffffffff1673ffffffffffffffffffffffffffffffffffffffff168152602001908152602001600020600084815260200190815260200160002054905080600660008773ffffffffffffffffffffffffffffffffffffffff1673ffffffffffffffffffffffffffffffffffffffff168152602001908152602001600020600084815260200190815260200160002081905550816007600083815260200190815260200160002081905550505b6007600084815260200190815260200160002060009055600660008573ffffffffffffffffffffffffffffffffffffffff1673ffffffffffffffffffffffffffffffffffffffff16815260200190815260200160002060008381526020019081526020016000206000905550505050565b600060016008805490506141fb9190615432565b9050600060096000848152602001908152602001600020549050600060088381548110614251577f4e487b7100000000000000000000000000000000000000000000000000000000600052603260045260246000fd5b906000526020600020015490508060088381548110614299577f4e487b7100000000000000000000000000000000000000000000000000000000600052603260045260246000fd5b90600052602060002001819055508160096000838152602001908152602001600020819055506009600085815260200190815260200160002060009055600880548061430e577f4e487b7100000000000000000000000000000000000000000000000000000000600052603160045260246000fd5b6001900381819060005260206000200160009055905550505050565b600061433583611927565b905081600660008573ffffffffffffffffffffffffffffffffffffffff1673ffffffffffffffffffffffffffffffffffffffff168152602001908152602001600020600083815260200190815260200160002081905550806007600084815260200190815260200160002081905550505050565b8280546143b590615541565b90600052602060002090601f0160209004810192826143d7576000855561441e565b82601f106143f057805160ff191683800117855561441e565b8280016001018555821561441e579182015b8281111561441d578251825591602001919060010190614402565b5b50905061442b919061442f565b5090565b5b80821115614448576000816000905550600101614430565b5090565b600061445f61445a846152a1565b61527c565b9050808382526020820190508285602086028201111561447e57600080fd5b60005b858110156144ae57816144948882614534565b845260208401935060208301925050600181019050614481565b5050509392505050565b60006144cb6144c6846152cd565b61527c565b9050828152602081018484840111156144e357600080fd5b6144ee8482856154ff565b509392505050565b6000614509614504846152fe565b61527c565b90508281526020810184848401111561452157600080fd5b61452c8482856154ff565b509392505050565b60008135905061454381615d3d565b92915050565b600082601f83011261455a57600080fd5b813561456a84826020860161444c565b91505092915050565b60008135905061458281615d54565b92915050565b60008135905061459781615d6b565b92915050565b6000815190506145ac81615d6b565b92915050565b600082601f8301126145c357600080fd5b81356145d38482602086016144b8565b91505092915050565b600082601f8301126145ed57600080fd5b81356145fd8482602086016144f6565b91505092915050565b60008135905061461581615d82565b92915050565b60006020828403121561462d57600080fd5b600061463b84828501614534565b91505092915050565b6000806040838503121561465757600080fd5b600061466585828601614534565b925050602061467685828601614534565b9150509250929050565b60008060006060848603121561469557600080fd5b60006146a386828701614534565b93505060206146b486828701614534565b92505060406146c586828701614606565b9150509250925092565b600080600080608085870312156146e557600080fd5b60006146f387828801614534565b945050602061470487828801614534565b935050604061471587828801614606565b925050606085013567ffffffffffffffff81111561473257600080fd5b61473e878288016145b2565b91505092959194509250565b6000806040838503121561475d57600080fd5b600061476b85828601614534565b925050602061477c85828601614573565b9150509250929050565b6000806040838503121561479957600080fd5b60006147a785828601614534565b92505060206147b885828601614606565b9150509250929050565b6000602082840312156147d457600080fd5b600082013567ffffffffffffffff8111156147ee57600080fd5b6147fa84828501614549565b91505092915050565b60006020828403121561481557600080fd5b600061482384828501614588565b91505092915050565b60006020828403121561483e57600080fd5b600061484c8482850161459d565b91505092915050565b60006020828403121561486757600080fd5b600082013567ffffffffffffffff81111561488157600080fd5b61488d848285016145dc565b91505092915050565b6000602082840312156148a857600080fd5b60006148b684828501614606565b91505092915050565b600080604083850312156148d257600080fd5b60006148e085828601614606565b92505060206148f185828601614606565b9150509250929050565b60006149078383614d66565b60208301905092915050565b61491c81615466565b82525050565b600061492d8261533f565b614937818561536d565b93506149428361532f565b8060005b8381101561497357815161495a88826148fb565b975061496583615360565b925050600181019050614946565b5085935050505092915050565b61498981615478565b82525050565b600061499a8261534a565b6149a4818561537e565b93506149b481856020860161550e565b6149bd81615709565b840191505092915050565b6149d1816154ed565b82525050565b60006149e282615355565b6149ec818561538f565b93506149fc81856020860161550e565b614a0581615709565b840191505092915050565b6000614a1b82615355565b614a2581856153a0565b9350614a3581856020860161550e565b80840191505092915050565b6000614a4e60148361538f565b9150614a598261571a565b602082019050919050565b6000614a71601e8361538f565b9150614a7c82615743565b602082019050919050565b6000614a94602b8361538f565b9150614a9f8261576c565b604082019050919050565b6000614ab760328361538f565b9150614ac2826157bb565b604082019050919050565b6000614ada60268361538f565b9150614ae58261580a565b604082019050919050565b6000614afd601c8361538f565b9150614b0882615859565b602082019050919050565b6000614b2060248361538f565b9150614b2b82615882565b604082019050919050565b6000614b4360198361538f565b9150614b4e826158d1565b602082019050919050565b6000614b6660258361538f565b9150614b71826158fa565b604082019050919050565b6000614b89602c8361538f565b9150614b9482615949565b604082019050919050565b6000614bac60108361538f565b9150614bb782615998565b602082019050919050565b6000614bcf60388361538f565b9150614bda826159c1565b604082019050919050565b6000614bf2602a8361538f565b9150614bfd82615a10565b604082019050919050565b6000614c1560298361538f565b9150614c2082615a5f565b604082019050919050565b6000614c3860358361538f565b9150614c4382615aae565b604082019050919050565b6000614c5b60208361538f565b9150614c6682615afd565b602082019050919050565b6000614c7e602c8361538f565b9150614c8982615b26565b604082019050919050565b6000614ca160208361538f565b9150614cac82615b75565b602082019050919050565b6000614cc460298361538f565b9150614ccf82615b9e565b604082019050919050565b6000614ce7602f8361538f565b9150614cf282615bed565b604082019050919050565b6000614d0a60218361538f565b9150614d1582615c3c565b604082019050919050565b6000614d2d60318361538f565b9150614d3882615c8b565b604082019050919050565b6000614d50602c8361538f565b9150614d5b82615cda565b604082019050919050565b614d6f816154e3565b82525050565b614d7e816154e3565b82525050565b6000614d908285614a10565b9150614d9c8284614a10565b91508190509392505050565b6000602082019050614dbd6000830184614913565b92915050565b6000608082019050614dd86000830187614913565b614de56020830186614913565b614df26040830185614d75565b8181036060830152614e04818461498f565b905095945050505050565b60006020820190508181036000830152614e298184614922565b905092915050565b6000602082019050614e466000830184614980565b92915050565b6000602082019050614e6160008301846149c8565b92915050565b60006020820190508181036000830152614e8181846149d7565b905092915050565b60006020820190508181036000830152614ea281614a41565b9050919050565b60006020820190508181036000830152614ec281614a64565b9050919050565b60006020820190508181036000830152614ee281614a87565b9050919050565b60006020820190508181036000830152614f0281614aaa565b9050919050565b60006020820190508181036000830152614f2281614acd565b9050919050565b60006020820190508181036000830152614f4281614af0565b9050919050565b60006020820190508181036000830152614f6281614b13565b9050919050565b60006020820190508181036000830152614f8281614b36565b9050919050565b60006020820190508181036000830152614fa281614b59565b9050919050565b60006020820190508181036000830152614fc281614b7c565b9050919050565b60006020820190508181036000830152614fe281614b9f565b9050919050565b6000602082019050818103600083015261500281614bc2565b9050919050565b6000602082019050818103600083015261502281614be5565b9050919050565b6000602082019050818103600083015261504281614c08565b9050919050565b6000602082019050818103600083015261506281614c2b565b9050919050565b6000602082019050818103600083015261508281614c4e565b9050919050565b600060208201905081810360008301526150a281614c71565b9050919050565b600060208201905081810360008301526150c281614c94565b9050919050565b600060208201905081810360008301526150e281614cb7565b9050919050565b6000602082019050818103600083015261510281614cda565b9050919050565b6000602082019050818103600083015261512281614cfd565b9050919050565b6000602082019050818103600083015261514281614d20565b9050919050565b6000602082019050818103600083015261516281614d43565b9050919050565b600060208201905061517e6000830184614d75565b92915050565b60006101808201905061519a600083018f614d75565b81810360208301526151ac818e6149d7565b90506151bb604083018d614d75565b6151c8606083018c614d75565b6151d5608083018b6149c8565b81810360a08301526151e7818a6149d7565b905081810360c08301526151fb81896149d7565b905061520a60e0830188614d75565b615218610100830187614d75565b615226610120830186614d75565b615234610140830185614d75565b615242610160830184614d75565b9d9c50505050505050505050505050565b60006040820190506152686000830185614d75565b6152756020830184614d75565b9392505050565b6000615286615297565b90506152928282615573565b919050565b6000604051905090565b600067ffffffffffffffff8211156152bc576152bb6156da565b5b602082029050602081019050919050565b600067ffffffffffffffff8211156152e8576152e76156da565b5b6152f182615709565b9050602081019050919050565b600067ffffffffffffffff821115615319576153186156da565b5b61532282615709565b9050602081019050919050565b6000819050602082019050919050565b600081519050919050565b600081519050919050565b600081519050919050565b6000602082019050919050565b600082825260208201905092915050565b600082825260208201905092915050565b600082825260208201905092915050565b600081905092915050565b60006153b6826154e3565b91506153c1836154e3565b9250827fffffffffffffffffffffffffffffffffffffffffffffffffffffffffffffffff038211156153f6576153f561561e565b5b828201905092915050565b600061540c826154e3565b9150615417836154e3565b9250826154275761542661564d565b5b828204905092915050565b600061543d826154e3565b9150615448836154e3565b92508282101561545b5761545a61561e565b5b828203905092915050565b6000615471826154c3565b9050919050565b60008115159050919050565b60007fffffffff0000000000000000000000000000000000000000000000000000000082169050919050565b60008190506154be82615d29565b919050565b600073ffffffffffffffffffffffffffffffffffffffff82169050919050565b6000819050919050565b60006154f8826154b0565b9050919050565b82818337600083830152505050565b60005b8381101561552c578082015181840152602081019050615511565b8381111561553b576000848401525b50505050565b6000600282049050600182168061555957607f821691505b6020821081141561556d5761556c6156ab565b5b50919050565b61557c82615709565b810181811067ffffffffffffffff8211171561559b5761559a6156da565b5b80604052505050565b60006155af826154e3565b91507fffffffffffffffffffffffffffffffffffffffffffffffffffffffffffffffff8214156155e2576155e161561e565b5b600182019050919050565b60006155f8826154e3565b9150615603836154e3565b9250826156135761561261564d565b5b828206905092915050565b7f4e487b7100000000000000000000000000000000000000000000000000000000600052601160045260246000fd5b7f4e487b7100000000000000000000000000000000000000000000000000000000600052601260045260246000fd5b7f4e487b7100000000000000000000000000000000000000000000000000000000600052602160045260246000fd5b7f4e487b7100000000000000000000000000000000000000000000000000000000600052602260045260246000fd5b7f4e487b7100000000000000000000000000000000000000000000000000000000600052604160045260246000fd5b6000601f19601f8301169050919050565b7f5061757361626c653a206e6f7420706175736564000000000000000000000000600082015250565b7f5468657265206973206e6f20726f626f74206f66207468617420747970650000600082015250565b7f455243373231456e756d657261626c653a206f776e657220696e646578206f7560008201527f74206f6620626f756e6473000000000000000000000000000000000000000000602082015250565b7f4552433732313a207472616e7366657220746f206e6f6e20455243373231526560008201527f63656976657220696d706c656d656e7465720000000000000000000000000000602082015250565b7f4f776e61626c653a206e6577206f776e657220697320746865207a65726f206160008201527f6464726573730000000000000000000000000000000000000000000000000000602082015250565b7f4552433732313a20746f6b656e20616c7265616479206d696e74656400000000600082015250565b7f4552433732313a207472616e7366657220746f20746865207a65726f2061646460008201527f7265737300000000000000000000000000000000000000000000000000000000602082015250565b7f4552433732313a20617070726f766520746f2063616c6c657200000000000000600082015250565b7f54686520726f626f742073616c65206973206e6f742063757272656e746c792060008201527f6f70656e2e000000000000000000000000000000000000000000000000000000602082015250565b7f4552433732313a206f70657261746f7220717565727920666f72206e6f6e657860008201527f697374656e7420746f6b656e0000000000000000000000000000000000000000602082015250565b7f5061757361626c653a2070617573656400000000000000000000000000000000600082015250565b7f4552433732313a20617070726f76652063616c6c6572206973206e6f74206f7760008201527f6e6572206e6f7220617070726f76656420666f7220616c6c0000000000000000602082015250565b7f4552433732313a2062616c616e636520717565727920666f7220746865207a6560008201527f726f206164647265737300000000000000000000000000000000000000000000602082015250565b7f4552433732313a206f776e657220717565727920666f72206e6f6e657869737460008201527f656e7420746f6b656e0000000000000000000000000000000000000000000000602082015250565b7f5468652076616c7565207375626d69747465642077697468207468697320747260008201527f616e73616374696f6e20697320746f6f206c6f772e0000000000000000000000602082015250565b7f4552433732313a206d696e7420746f20746865207a65726f2061646472657373600082015250565b7f4552433732313a20617070726f76656420717565727920666f72206e6f6e657860008201527f697374656e7420746f6b656e0000000000000000000000000000000000000000602082015250565b7f4f776e61626c653a2063616c6c6572206973206e6f7420746865206f776e6572600082015250565b7f4552433732313a207472616e73666572206f6620746f6b656e2074686174206960008201527f73206e6f74206f776e0000000000000000000000000000000000000000000000602082015250565b7f4552433732314d657461646174613a2055524920717565727920666f72206e6f60008201527f6e6578697374656e7420746f6b656e0000000000000000000000000000000000602082015250565b7f4552433732313a20617070726f76616c20746f2063757272656e74206f776e6560008201527f7200000000000000000000000000000000000000000000000000000000000000602082015250565b7f4552433732313a207472616e736665722063616c6c6572206973206e6f74206f60008201527f776e6572206e6f7220617070726f766564000000000000000000000000000000602082015250565b7f455243373231456e756d657261626c653a20676c6f62616c20696e646578206f60008201527f7574206f6620626f756e64730000000000000000000000000000000000000000602082015250565b60038110615d3a57615d3961567c565b5b50565b615d4681615466565b8114615d5157600080fd5b50565b615d5d81615478565b8114615d6857600080fd5b50565b615d7481615484565b8114615d7f57600080fd5b50565b615d8b816154e3565b8114615d9657600080fd5b5056fea26469706673582212207c2ce74ccb4ab2994a4244df6472dfde7d9a9400582c679045e383f36b2bfa7564736f6c63430008020033",
  "immutableReferences": {},
  "source": "// contracts/Robot.sol\n// SPDX-License-Identifier: MIT\npragma solidity ^0.8.2;\n\nimport \"@openzeppelin/contracts/token/ERC721/ERC721.sol\";\nimport \"@openzeppelin/contracts/token/ERC721/extensions/ERC721Enumerable.sol\";\nimport \"@openzeppelin/contracts/token/ERC1155/IERC1155.sol\";\nimport \"@openzeppelin/contracts/utils/math/SafeMath.sol\";\nimport \"@openzeppelin/contracts/security/Pausable.sol\";\nimport \"./Whitelist.sol\";\n\ncontract Robot is ERC721, ERC721Enumerable, Pausable, Whitelist {\n\n    using SafeMath for uint256;\n\n    uint256 private _saleTime = 1634451621; // 7PM EDT on November 1st\n    uint256 private _price = 8 * 10**16; // .08 eth\n\n    string private _baseTokenURI;\n\n    // Address where funds are collected\n    address payable private _wallet;\n\n    string[] private robotName = [\"Robot1\", \"Robot2\", \"Robot3\", \"Robot4\"];\n    string[] private robotType = [\"Tank\", \"Speedy\", \"Defender\", \"Retired\"];\n    uint256[] private strength = [20, 10, 10, 20];\n    uint256[] private agility = [10, 20, 10, 20];\n    uint256[] private ai = [10, 20, 20, 10];\n    uint256[] private defense = [20, 10, 20, 10];\n\n    mapping(uint256 => RobotAttributes) public robots;\n\n    enum State {\n        Fighter, // 0\n        Trainer, // 1\n        Retired // 2\n    }\n\n    State constant defaultState = State.Fighter;\n\n    struct RobotAttributes {\n        uint256 robotIndex;\n        string imageURI;\n        uint256 wins;\n        uint256 losses;\n        State state;\n        string robotName;\n        string robotType;\n        uint256 health;\n        uint256 strength;\n        uint256 agility;\n        uint256 ai;\n        uint256 defense;\n    }\n\n    constructor(string memory baseURI, address payable wallet) ERC721(\"Robot\", \"RBT\") {\n        setBaseURI(baseURI);\n        _wallet = wallet;\n    }\n\n    function pause() public onlyOwner {\n        _pause();\n    }\n\n    function unpause() public onlyOwner {\n        _unpause();\n    }\n\n    function setSaleTime(uint256 time) public onlyOwner {\n        _saleTime = time;\n    }\n\n    function getSaleTime() public view returns (uint256) {\n        return _saleTime;\n    }\n\n    function isSaleOpen() public view returns (bool) {\n        return block.timestamp >= _saleTime;\n    }\n\n    function setBaseURI(string memory baseURI) public onlyOwner {\n        _baseTokenURI = baseURI;\n    }\n\n    function _baseURI() internal view virtual override returns (string memory) {\n        return _baseTokenURI;\n    }\n\n    function _beforeTokenTransfer(address from, address to, uint256 tokenId)\n        internal\n        whenNotPaused\n        override(ERC721, ERC721Enumerable)\n    {\n        super._beforeTokenTransfer(from, to, tokenId);\n    }\n\n   // The following function override required by Solidity.\n    function supportsInterface(bytes4 interfaceId)\n        public\n        view\n        override(ERC721, ERC721Enumerable)\n        returns (bool)\n    {\n        return super.supportsInterface(interfaceId);\n    }\n\n    function _createRobot(uint256 index, uint256 typeIndex) internal {\n        robots[index] = RobotAttributes({\n            robotIndex: index,\n            imageURI: \" \",\n            wins: 0,\n            losses: 0,\n            state: defaultState,\n            robotName: robotName[typeIndex],\n            robotType: robotType[typeIndex],\n            health: 1000,\n            strength: strength[typeIndex],\n            agility: agility[typeIndex],\n            ai: ai[typeIndex],\n            defense: defense[typeIndex]\n        });\n    }\n\n    // Count is how many they want to mint\n    function mint(uint256 botType) public whenNotPaused payable {\n        require(botType < 4, \"There is no robot of that type\");\n        require(\n            msg.value >= _price || owner() == _msgSender(),\n            \"The value submitted with this transaction is too low.\"\n        );\n        require(\n            block.timestamp >= _saleTime,\n            \"The robot sale is not currently open.\"\n        );\n\n        uint256 totalSupply = totalSupply();\n        uint256 index = totalSupply + 1;\n        _createRobot(index, botType);\n        _safeMint(msg.sender, index);\n    }\n\n    function updateRobotsRecords(uint256 winningRobotIndex, uint256 losingRobotIndex) public whenNotPaused onlyWhitelisted {\n        robots[winningRobotIndex].wins += 1;\n        robots[losingRobotIndex].losses += 1;\n    }\n\n    function updateRobotHealth(uint256 robotIndex, uint256 value) public whenNotPaused onlyWhitelisted {\n        robots[robotIndex].health = value;\n    }\n\n    function updateRobotStrength(uint256 robotIndex, uint256 value) public whenNotPaused onlyWhitelisted {\n        robots[robotIndex].strength = value;\n    }\n\n    function updateRobotAgility(uint256 robotIndex, uint256 value) public whenNotPaused onlyWhitelisted {\n        robots[robotIndex].agility = value;\n    }\n\n    function updateRobotAi(uint256 robotIndex, uint256 value) public whenNotPaused onlyWhitelisted {\n        robots[robotIndex].ai = value;\n    }\n\n    function updateRobotDefense(uint256 robotIndex, uint256 value) public whenNotPaused onlyWhitelisted {\n        robots[robotIndex].defense = value;\n    }\n\n    function setRobotAsFighter(uint256 robotIndex) public whenNotPaused onlyOwner {\n        robots[robotIndex].state = State.Fighter;\n    }\n\n    function setRobotAsTrainer(uint256 robotIndex) public whenNotPaused onlyOwner {\n        robots[robotIndex].state = State.Trainer;\n    }\n\n    function setRobotAsRetired(uint256 robotIndex) public whenNotPaused onlyOwner {\n        robots[robotIndex].state = State.Retired;\n    }\n\n    function getRobotRecord(uint256 robotIndex) public view returns(uint256, uint256) {\n        return(robots[robotIndex].wins, robots[robotIndex].losses);\n    }\n\n    function getRobotState(uint256 robotIndex) public view returns(State) {\n        return robots[robotIndex].state;\n    }\n\n    function walletOfOwner(address _owner)\n        public\n        view\n        returns (uint256[] memory)\n    {\n        uint256 tokenCount = balanceOf(_owner);\n\n        if (tokenCount == 0) {\n            // Return an empty array\n            return new uint256[](0);\n        }\n\n        uint256[] memory tokensId = new uint256[](tokenCount);\n        for (uint256 i; i < tokenCount; i++) {\n            tokensId[i] = tokenOfOwnerByIndex(_owner, i);\n        }\n        return tokensId;\n    }\n\n    function withdrawAll() public payable onlyOwner {\n        require(_wallet.send(address(this).balance));\n    }\n}\n",
  "sourcePath": "/home/seandevs/workspaces/celo-hackathon/nfts/robots/contracts/Robot.sol",
  "compiler": {
    "name": "solc",
    "version": "0.8.2+commit.661d1103.Emscripten.clang"
  },
  "schemaVersion": "3.4.1",
  "updatedAt": "2021-11-04T03:42:58.333Z",
  "networkType": "ethereum",
  "devdoc": {
    "kind": "dev",
    "methods": {
      "approve(address,uint256)": {
        "details": "See {IERC721-approve}."
      },
      "balanceOf(address)": {
        "details": "See {IERC721-balanceOf}."
      },
      "getApproved(uint256)": {
        "details": "See {IERC721-getApproved}."
      },
      "isApprovedForAll(address,address)": {
        "details": "See {IERC721-isApprovedForAll}."
      },
      "name()": {
        "details": "See {IERC721Metadata-name}."
      },
      "owner()": {
        "details": "Returns the address of the current owner."
      },
      "ownerOf(uint256)": {
        "details": "See {IERC721-ownerOf}."
      },
      "paused()": {
        "details": "Returns true if the contract is paused, and false otherwise."
      },
      "renounceOwnership()": {
        "details": "Leaves the contract without owner. It will not be possible to call `onlyOwner` functions anymore. Can only be called by the current owner. NOTE: Renouncing ownership will leave the contract without an owner, thereby removing any functionality that is only available to the owner."
      },
      "safeTransferFrom(address,address,uint256)": {
        "details": "See {IERC721-safeTransferFrom}."
      },
      "safeTransferFrom(address,address,uint256,bytes)": {
        "details": "See {IERC721-safeTransferFrom}."
      },
      "setApprovalForAll(address,bool)": {
        "details": "See {IERC721-setApprovalForAll}."
      },
      "symbol()": {
        "details": "See {IERC721Metadata-symbol}."
      },
      "tokenByIndex(uint256)": {
        "details": "See {IERC721Enumerable-tokenByIndex}."
      },
      "tokenOfOwnerByIndex(address,uint256)": {
        "details": "See {IERC721Enumerable-tokenOfOwnerByIndex}."
      },
      "tokenURI(uint256)": {
        "details": "See {IERC721Metadata-tokenURI}."
      },
      "totalSupply()": {
        "details": "See {IERC721Enumerable-totalSupply}."
      },
      "transferFrom(address,address,uint256)": {
        "details": "See {IERC721-transferFrom}."
      },
      "transferOwnership(address)": {
        "details": "Transfers ownership of the contract to a new account (`newOwner`). Can only be called by the current owner."
      }
    },
    "version": 1
  },
  "userdoc": {
    "kind": "user",
    "methods": {},
    "version": 1
  }
}