{
  "contractName": "Robot",
  "abi": [
    {
      "inputs": [
        {
          "internalType": "string",
          "name": "baseURI",
          "type": "string"
        },
        {
          "internalType": "address payable",
          "name": "wallet",
          "type": "address"
        }
      ],
      "stateMutability": "nonpayable",
      "type": "constructor"
    },
    {
      "anonymous": false,
      "inputs": [
        {
          "indexed": true,
          "internalType": "address",
          "name": "owner",
          "type": "address"
        },
        {
          "indexed": true,
          "internalType": "address",
          "name": "approved",
          "type": "address"
        },
        {
          "indexed": true,
          "internalType": "uint256",
          "name": "tokenId",
          "type": "uint256"
        }
      ],
      "name": "Approval",
      "type": "event"
    },
    {
      "anonymous": false,
      "inputs": [
        {
          "indexed": true,
          "internalType": "address",
          "name": "owner",
          "type": "address"
        },
        {
          "indexed": true,
          "internalType": "address",
          "name": "operator",
          "type": "address"
        },
        {
          "indexed": false,
          "internalType": "bool",
          "name": "approved",
          "type": "bool"
        }
      ],
      "name": "ApprovalForAll",
      "type": "event"
    },
    {
      "anonymous": false,
      "inputs": [
        {
          "indexed": true,
          "internalType": "address",
          "name": "previousOwner",
          "type": "address"
        },
        {
          "indexed": true,
          "internalType": "address",
          "name": "newOwner",
          "type": "address"
        }
      ],
      "name": "OwnershipTransferred",
      "type": "event"
    },
    {
      "anonymous": false,
      "inputs": [
        {
          "indexed": false,
          "internalType": "address",
          "name": "account",
          "type": "address"
        }
      ],
      "name": "Paused",
      "type": "event"
    },
    {
      "anonymous": false,
      "inputs": [
        {
          "indexed": true,
          "internalType": "address",
          "name": "from",
          "type": "address"
        },
        {
          "indexed": true,
          "internalType": "address",
          "name": "to",
          "type": "address"
        },
        {
          "indexed": true,
          "internalType": "uint256",
          "name": "tokenId",
          "type": "uint256"
        }
      ],
      "name": "Transfer",
      "type": "event"
    },
    {
      "anonymous": false,
      "inputs": [
        {
          "indexed": false,
          "internalType": "address",
          "name": "account",
          "type": "address"
        }
      ],
      "name": "Unpaused",
      "type": "event"
    },
    {
      "anonymous": false,
      "inputs": [
        {
          "indexed": false,
          "internalType": "address",
          "name": "addr",
          "type": "address"
        }
      ],
      "name": "WhitelistedAddressAdded",
      "type": "event"
    },
    {
      "anonymous": false,
      "inputs": [
        {
          "indexed": false,
          "internalType": "address",
          "name": "addr",
          "type": "address"
        }
      ],
      "name": "WhitelistedAddressRemoved",
      "type": "event"
    },
    {
      "inputs": [],
      "name": "ROBOT_PRICE",
      "outputs": [
        {
          "internalType": "uint256",
          "name": "",
          "type": "uint256"
        }
      ],
      "stateMutability": "view",
      "type": "function",
      "constant": true
    },
    {
      "inputs": [
        {
          "internalType": "address",
          "name": "addr",
          "type": "address"
        }
      ],
      "name": "addAddressToWhitelist",
      "outputs": [
        {
          "internalType": "bool",
          "name": "success",
          "type": "bool"
        }
      ],
      "stateMutability": "nonpayable",
      "type": "function"
    },
    {
      "inputs": [
        {
          "internalType": "address[]",
          "name": "addrs",
          "type": "address[]"
        }
      ],
      "name": "addAddressesToWhitelist",
      "outputs": [
        {
          "internalType": "bool",
          "name": "success",
          "type": "bool"
        }
      ],
      "stateMutability": "nonpayable",
      "type": "function"
    },
    {
      "inputs": [
        {
          "internalType": "address",
          "name": "to",
          "type": "address"
        },
        {
          "internalType": "uint256",
          "name": "tokenId",
          "type": "uint256"
        }
      ],
      "name": "approve",
      "outputs": [],
      "stateMutability": "nonpayable",
      "type": "function"
    },
    {
      "inputs": [
        {
          "internalType": "address",
          "name": "owner",
          "type": "address"
        }
      ],
      "name": "balanceOf",
      "outputs": [
        {
          "internalType": "uint256",
          "name": "",
          "type": "uint256"
        }
      ],
      "stateMutability": "view",
      "type": "function",
      "constant": true
    },
    {
      "inputs": [
        {
          "internalType": "uint256",
          "name": "tokenId",
          "type": "uint256"
        }
      ],
      "name": "getApproved",
      "outputs": [
        {
          "internalType": "address",
          "name": "",
          "type": "address"
        }
      ],
      "stateMutability": "view",
      "type": "function",
      "constant": true
    },
    {
      "inputs": [
        {
          "internalType": "address",
          "name": "owner",
          "type": "address"
        },
        {
          "internalType": "address",
          "name": "operator",
          "type": "address"
        }
      ],
      "name": "isApprovedForAll",
      "outputs": [
        {
          "internalType": "bool",
          "name": "",
          "type": "bool"
        }
      ],
      "stateMutability": "view",
      "type": "function",
      "constant": true
    },
    {
      "inputs": [],
      "name": "name",
      "outputs": [
        {
          "internalType": "string",
          "name": "",
          "type": "string"
        }
      ],
      "stateMutability": "view",
      "type": "function",
      "constant": true
    },
    {
      "inputs": [],
      "name": "owner",
      "outputs": [
        {
          "internalType": "address",
          "name": "",
          "type": "address"
        }
      ],
      "stateMutability": "view",
      "type": "function",
      "constant": true
    },
    {
      "inputs": [
        {
          "internalType": "uint256",
          "name": "tokenId",
          "type": "uint256"
        }
      ],
      "name": "ownerOf",
      "outputs": [
        {
          "internalType": "address",
          "name": "",
          "type": "address"
        }
      ],
      "stateMutability": "view",
      "type": "function",
      "constant": true
    },
    {
      "inputs": [],
      "name": "paused",
      "outputs": [
        {
          "internalType": "bool",
          "name": "",
          "type": "bool"
        }
      ],
      "stateMutability": "view",
      "type": "function",
      "constant": true
    },
    {
      "inputs": [
        {
          "internalType": "address",
          "name": "addr",
          "type": "address"
        }
      ],
      "name": "removeAddressFromWhitelist",
      "outputs": [
        {
          "internalType": "bool",
          "name": "success",
          "type": "bool"
        }
      ],
      "stateMutability": "nonpayable",
      "type": "function"
    },
    {
      "inputs": [
        {
          "internalType": "address[]",
          "name": "addrs",
          "type": "address[]"
        }
      ],
      "name": "removeAddressesFromWhitelist",
      "outputs": [
        {
          "internalType": "bool",
          "name": "success",
          "type": "bool"
        }
      ],
      "stateMutability": "nonpayable",
      "type": "function"
    },
    {
      "inputs": [],
      "name": "renounceOwnership",
      "outputs": [],
      "stateMutability": "nonpayable",
      "type": "function"
    },
    {
      "inputs": [
        {
          "internalType": "uint256",
          "name": "",
          "type": "uint256"
        }
      ],
      "name": "robots",
      "outputs": [
        {
          "internalType": "uint256",
          "name": "robotIndex",
          "type": "uint256"
        },
        {
          "internalType": "uint256",
          "name": "wins",
          "type": "uint256"
        },
        {
          "internalType": "uint256",
          "name": "losses",
          "type": "uint256"
        },
        {
          "internalType": "enum Robot.State",
          "name": "state",
          "type": "uint8"
        },
        {
          "internalType": "string",
          "name": "robotName",
          "type": "string"
        },
        {
          "internalType": "string",
          "name": "robotType",
          "type": "string"
        },
        {
          "internalType": "uint256",
          "name": "health",
          "type": "uint256"
        },
        {
          "internalType": "uint256",
          "name": "strength",
          "type": "uint256"
        },
        {
          "internalType": "uint256",
          "name": "agility",
          "type": "uint256"
        },
        {
          "internalType": "uint256",
          "name": "ai",
          "type": "uint256"
        },
        {
          "internalType": "uint256",
          "name": "defense",
          "type": "uint256"
        }
      ],
      "stateMutability": "view",
      "type": "function",
      "constant": true
    },
    {
      "inputs": [
        {
          "internalType": "address",
          "name": "from",
          "type": "address"
        },
        {
          "internalType": "address",
          "name": "to",
          "type": "address"
        },
        {
          "internalType": "uint256",
          "name": "tokenId",
          "type": "uint256"
        }
      ],
      "name": "safeTransferFrom",
      "outputs": [],
      "stateMutability": "nonpayable",
      "type": "function"
    },
    {
      "inputs": [
        {
          "internalType": "address",
          "name": "from",
          "type": "address"
        },
        {
          "internalType": "address",
          "name": "to",
          "type": "address"
        },
        {
          "internalType": "uint256",
          "name": "tokenId",
          "type": "uint256"
        },
        {
          "internalType": "bytes",
          "name": "_data",
          "type": "bytes"
        }
      ],
      "name": "safeTransferFrom",
      "outputs": [],
      "stateMutability": "nonpayable",
      "type": "function"
    },
    {
      "inputs": [
        {
          "internalType": "address",
          "name": "operator",
          "type": "address"
        },
        {
          "internalType": "bool",
          "name": "approved",
          "type": "bool"
        }
      ],
      "name": "setApprovalForAll",
      "outputs": [],
      "stateMutability": "nonpayable",
      "type": "function"
    },
    {
      "inputs": [],
      "name": "symbol",
      "outputs": [
        {
          "internalType": "string",
          "name": "",
          "type": "string"
        }
      ],
      "stateMutability": "view",
      "type": "function",
      "constant": true
    },
    {
      "inputs": [
        {
          "internalType": "uint256",
          "name": "index",
          "type": "uint256"
        }
      ],
      "name": "tokenByIndex",
      "outputs": [
        {
          "internalType": "uint256",
          "name": "",
          "type": "uint256"
        }
      ],
      "stateMutability": "view",
      "type": "function",
      "constant": true
    },
    {
      "inputs": [
        {
          "internalType": "address",
          "name": "owner",
          "type": "address"
        },
        {
          "internalType": "uint256",
          "name": "index",
          "type": "uint256"
        }
      ],
      "name": "tokenOfOwnerByIndex",
      "outputs": [
        {
          "internalType": "uint256",
          "name": "",
          "type": "uint256"
        }
      ],
      "stateMutability": "view",
      "type": "function",
      "constant": true
    },
    {
      "inputs": [],
      "name": "totalSupply",
      "outputs": [
        {
          "internalType": "uint256",
          "name": "",
          "type": "uint256"
        }
      ],
      "stateMutability": "view",
      "type": "function",
      "constant": true
    },
    {
      "inputs": [
        {
          "internalType": "address",
          "name": "from",
          "type": "address"
        },
        {
          "internalType": "address",
          "name": "to",
          "type": "address"
        },
        {
          "internalType": "uint256",
          "name": "tokenId",
          "type": "uint256"
        }
      ],
      "name": "transferFrom",
      "outputs": [],
      "stateMutability": "nonpayable",
      "type": "function"
    },
    {
      "inputs": [
        {
          "internalType": "address",
          "name": "newOwner",
          "type": "address"
        }
      ],
      "name": "transferOwnership",
      "outputs": [],
      "stateMutability": "nonpayable",
      "type": "function"
    },
    {
      "inputs": [
        {
          "internalType": "address",
          "name": "",
          "type": "address"
        }
      ],
      "name": "whitelist",
      "outputs": [
        {
          "internalType": "bool",
          "name": "",
          "type": "bool"
        }
      ],
      "stateMutability": "view",
      "type": "function",
      "constant": true
    },
    {
      "inputs": [],
      "name": "pause",
      "outputs": [],
      "stateMutability": "nonpayable",
      "type": "function"
    },
    {
      "inputs": [],
      "name": "unpause",
      "outputs": [],
      "stateMutability": "nonpayable",
      "type": "function"
    },
    {
      "inputs": [
        {
          "internalType": "string",
          "name": "baseURI",
          "type": "string"
        }
      ],
      "name": "setBaseURI",
      "outputs": [],
      "stateMutability": "nonpayable",
      "type": "function"
    },
    {
      "inputs": [
        {
          "internalType": "uint256",
          "name": "tokenId",
          "type": "uint256"
        }
      ],
      "name": "tokenURI",
      "outputs": [
        {
          "internalType": "string",
          "name": "",
          "type": "string"
        }
      ],
      "stateMutability": "view",
      "type": "function",
      "constant": true
    },
    {
      "inputs": [
        {
          "internalType": "bytes4",
          "name": "interfaceId",
          "type": "bytes4"
        }
      ],
      "name": "supportsInterface",
      "outputs": [
        {
          "internalType": "bool",
          "name": "",
          "type": "bool"
        }
      ],
      "stateMutability": "view",
      "type": "function",
      "constant": true
    },
    {
      "inputs": [
        {
          "internalType": "uint256",
          "name": "botType",
          "type": "uint256"
        },
        {
          "internalType": "string",
          "name": "robotName",
          "type": "string"
        }
      ],
      "name": "mint",
      "outputs": [],
      "stateMutability": "payable",
      "type": "function",
      "payable": true
    },
    {
      "inputs": [
        {
          "internalType": "uint256",
          "name": "robotIndex",
          "type": "uint256"
        }
      ],
      "name": "updateRobotWinRecord",
      "outputs": [],
      "stateMutability": "nonpayable",
      "type": "function"
    },
    {
      "inputs": [
        {
          "internalType": "uint256",
          "name": "robotIndex",
          "type": "uint256"
        }
      ],
      "name": "updateRobotLossRecord",
      "outputs": [],
      "stateMutability": "nonpayable",
      "type": "function"
    },
    {
      "inputs": [
        {
          "internalType": "uint256",
          "name": "robotIndex",
          "type": "uint256"
        },
        {
          "internalType": "string",
          "name": "value",
          "type": "string"
        }
      ],
      "name": "updateRobotName",
      "outputs": [],
      "stateMutability": "nonpayable",
      "type": "function"
    },
    {
      "inputs": [
        {
          "internalType": "uint256",
          "name": "robotIndex",
          "type": "uint256"
        },
        {
          "internalType": "uint256",
          "name": "value",
          "type": "uint256"
        }
      ],
      "name": "updateRobotHealth",
      "outputs": [],
      "stateMutability": "nonpayable",
      "type": "function"
    },
    {
      "inputs": [
        {
          "internalType": "uint256",
          "name": "robotIndex",
          "type": "uint256"
        },
        {
          "internalType": "uint256",
          "name": "value",
          "type": "uint256"
        }
      ],
      "name": "updateRobotStrength",
      "outputs": [],
      "stateMutability": "nonpayable",
      "type": "function"
    },
    {
      "inputs": [
        {
          "internalType": "uint256",
          "name": "robotIndex",
          "type": "uint256"
        },
        {
          "internalType": "uint256",
          "name": "value",
          "type": "uint256"
        }
      ],
      "name": "updateRobotAgility",
      "outputs": [],
      "stateMutability": "nonpayable",
      "type": "function"
    },
    {
      "inputs": [
        {
          "internalType": "uint256",
          "name": "robotIndex",
          "type": "uint256"
        },
        {
          "internalType": "uint256",
          "name": "value",
          "type": "uint256"
        }
      ],
      "name": "updateRobotAi",
      "outputs": [],
      "stateMutability": "nonpayable",
      "type": "function"
    },
    {
      "inputs": [
        {
          "internalType": "uint256",
          "name": "robotIndex",
          "type": "uint256"
        },
        {
          "internalType": "uint256",
          "name": "value",
          "type": "uint256"
        }
      ],
      "name": "updateRobotDefense",
      "outputs": [],
      "stateMutability": "nonpayable",
      "type": "function"
    },
    {
      "inputs": [
        {
          "internalType": "uint256",
          "name": "robotIndex",
          "type": "uint256"
        }
      ],
      "name": "setRobotAsFighter",
      "outputs": [],
      "stateMutability": "nonpayable",
      "type": "function"
    },
    {
      "inputs": [
        {
          "internalType": "uint256",
          "name": "robotIndex",
          "type": "uint256"
        }
      ],
      "name": "setRobotAsTrainer",
      "outputs": [],
      "stateMutability": "nonpayable",
      "type": "function"
    },
    {
      "inputs": [
        {
          "internalType": "uint256",
          "name": "robotIndex",
          "type": "uint256"
        }
      ],
      "name": "setRobotAsRetired",
      "outputs": [],
      "stateMutability": "nonpayable",
      "type": "function"
    },
    {
      "inputs": [
        {
          "internalType": "address",
          "name": "_owner",
          "type": "address"
        }
      ],
      "name": "walletOfOwner",
      "outputs": [
        {
          "internalType": "uint256[]",
          "name": "",
          "type": "uint256[]"
        }
      ],
      "stateMutability": "view",
      "type": "function",
      "constant": true
    },
    {
      "inputs": [],
      "name": "withdrawAll",
      "outputs": [],
      "stateMutability": "payable",
      "type": "function",
      "payable": true
    }
  ],
  "bytecode": "0x6080604052674563918244f40000600d5560405180608001604052806040518060400160405280600481526020017f54616e6b0000000000000000000000000000000000000000000000000000000081525081526020016040518060400160405280600681526020017f537065656479000000000000000000000000000000000000000000000000000081525081526020016040518060400160405280600881526020017f446566656e64657200000000000000000000000000000000000000000000000081525081526020016040518060400160405280600881526020017f41747461636b65720000000000000000000000000000000000000000000000008152508152506010906004620001179291906200063b565b506040518060800160405280601460ff168152602001600a60ff168152602001600a60ff168152602001601460ff1681525060119060046200015b929190620006a2565b506040518060800160405280600a60ff168152602001601460ff168152602001600a60ff168152602001601460ff1681525060129060046200019f929190620006a2565b506040518060800160405280600a60ff168152602001601460ff168152602001601460ff168152602001600a60ff168152506013906004620001e3929190620006a2565b506040518060800160405280601460ff168152602001600a60ff168152602001601460ff168152602001600a60ff16815250601490600462000227929190620006a2565b5060405180608001604052806040518060400160405280600681526020017f302e6a736f6e000000000000000000000000000000000000000000000000000081525081526020016040518060400160405280600681526020017f312e6a736f6e000000000000000000000000000000000000000000000000000081525081526020016040518060400160405280600681526020017f322e6a736f6e000000000000000000000000000000000000000000000000000081525081526020016040518060400160405280600681526020017f332e6a736f6e000000000000000000000000000000000000000000000000000081525081525060169060046200032f9291906200063b565b503480156200033d57600080fd5b5060405162006a9a38038062006a9a8339818101604052810190620003639190620008a0565b6040518060400160405280600581526020017f526f626f740000000000000000000000000000000000000000000000000000008152506040518060400160405280600381526020017f52425400000000000000000000000000000000000000000000000000000000008152508160009080519060200190620003e7929190620006f9565b50806001908051906020019062000400929190620006f9565b5050506000600b60006101000a81548160ff0219169083151502179055506200043e620004326200049860201b60201c565b620004a060201b60201c565b6200044f826200056660201b60201c565b80600f60006101000a81548173ffffffffffffffffffffffffffffffffffffffff021916908373ffffffffffffffffffffffffffffffffffffffff160217905550505062000b3b565b600033905090565b6000600b60019054906101000a900473ffffffffffffffffffffffffffffffffffffffff16905081600b60016101000a81548173ffffffffffffffffffffffffffffffffffffffff021916908373ffffffffffffffffffffffffffffffffffffffff1602179055508173ffffffffffffffffffffffffffffffffffffffff168173ffffffffffffffffffffffffffffffffffffffff167f8be0079c531659141344cd1fd0a4f28419497f9722a3daafe3b4186f6b6457e060405160405180910390a35050565b620005766200049860201b60201c565b73ffffffffffffffffffffffffffffffffffffffff166200059c6200061160201b60201c565b73ffffffffffffffffffffffffffffffffffffffff1614620005f5576040517f08c379a0000000000000000000000000000000000000000000000000000000008152600401620005ec9062000921565b60405180910390fd5b80600e90805190602001906200060d929190620006f9565b5050565b6000600b60019054906101000a900473ffffffffffffffffffffffffffffffffffffffff16905090565b8280548282559060005260206000209081019282156200068f579160200282015b828111156200068e5782518290805190602001906200067d929190620006f9565b50916020019190600101906200065c565b5b5090506200069e91906200078a565b5090565b828054828255906000526020600020908101928215620006e6579160200282015b82811115620006e5578251829060ff16905591602001919060010190620006c3565b5b509050620006f59190620007b2565b5090565b828054620007079062000a1d565b90600052602060002090601f0160209004810192826200072b576000855562000777565b82601f106200074657805160ff191683800117855562000777565b8280016001018555821562000777579182015b828111156200077657825182559160200191906001019062000759565b5b509050620007869190620007b2565b5090565b5b80821115620007ae5760008181620007a49190620007d1565b506001016200078b565b5090565b5b80821115620007cd576000816000905550600101620007b3565b5090565b508054620007df9062000a1d565b6000825580601f10620007f3575062000814565b601f016020900490600052602060002090810190620008139190620007b2565b5b50565b60006200082e62000828846200096c565b62000943565b9050828152602081018484840111156200084757600080fd5b62000854848285620009e7565b509392505050565b6000815190506200086d8162000b21565b92915050565b600082601f8301126200088557600080fd5b81516200089784826020860162000817565b91505092915050565b60008060408385031215620008b457600080fd5b600083015167ffffffffffffffff811115620008cf57600080fd5b620008dd8582860162000873565b9250506020620008f0858286016200085c565b9150509250929050565b600062000909602083620009a2565b9150620009168262000af8565b602082019050919050565b600060208201905081810360008301526200093c81620008fa565b9050919050565b60006200094f62000962565b90506200095d828262000a53565b919050565b6000604051905090565b600067ffffffffffffffff8211156200098a576200098962000ab8565b5b620009958262000ae7565b9050602081019050919050565b600082825260208201905092915050565b6000620009c082620009c7565b9050919050565b600073ffffffffffffffffffffffffffffffffffffffff82169050919050565b60005b8381101562000a07578082015181840152602081019050620009ea565b8381111562000a17576000848401525b50505050565b6000600282049050600182168062000a3657607f821691505b6020821081141562000a4d5762000a4c62000a89565b5b50919050565b62000a5e8262000ae7565b810181811067ffffffffffffffff8211171562000a805762000a7f62000ab8565b5b80604052505050565b7f4e487b7100000000000000000000000000000000000000000000000000000000600052602260045260246000fd5b7f4e487b7100000000000000000000000000000000000000000000000000000000600052604160045260246000fd5b6000601f19601f8301169050919050565b7f4f776e61626c653a2063616c6c6572206973206e6f7420746865206f776e6572600082015250565b62000b2c81620009b3565b811462000b3857600080fd5b50565b615f4f8062000b4b6000396000f3fe6080604052600436106102675760003560e01c8063715018a611610144578063aaea4fff116100b6578063c87b56dd1161007a578063c87b56dd14610926578063db43c50714610963578063e10d74fe1461098c578063e2ec6ec3146109b5578063e985e9c5146109f2578063f2fde38b14610a2f57610267565b8063aaea4fff14610859578063abdb9bec14610882578063b01d49d1146108ab578063b7a293ec146108d4578063b88d4fde146108fd57610267565b80638da5cb5b116101085780638da5cb5b1461072d5780638db1c9c21461075857806395d89b41146107815780639b19251a146107ac578063a03937c5146107e9578063a22cb4651461083057610267565b8063715018a61461069c57806377097fc8146106b35780637b9417c8146106cf5780638456cb591461070c578063853828b61461072357610267565b80633f4ba83a116101dd57806355f804b3116101a157806355f804b31461057c57806357a6f5cf146105a55780635a44890a146105ce5780635c975abb146105f75780636352211e1461062257806370a082311461065f57610267565b80633f4ba83a1461049957806342842e0e146104b0578063438b6300146104d95780634f6ccce714610516578063508a99a11461055357610267565b806321a4b2a01161022f57806321a4b2a01461036557806323b872dd1461039057806324953eaa146103b9578063286dd3f5146103f65780632f745c591461043357806330e181461461047057610267565b806301ffc9a71461026c57806306fdde03146102a9578063081812fc146102d4578063095ea7b31461031157806318160ddd1461033a575b600080fd5b34801561027857600080fd5b50610293600480360381019061028e91906148f7565b610a58565b6040516102a09190614f9c565b60405180910390f35b3480156102b557600080fd5b506102be610a6a565b6040516102cb9190614fb7565b60405180910390f35b3480156102e057600080fd5b506102fb60048036038101906102f6919061498a565b610afc565b6040516103089190614f13565b60405180910390f35b34801561031d57600080fd5b506103386004803603810190610333919061487a565b610b81565b005b34801561034657600080fd5b5061034f610c99565b60405161035c91906152d9565b60405180910390f35b34801561037157600080fd5b5061037a610ca6565b60405161038791906152d9565b60405180910390f35b34801561039c57600080fd5b506103b760048036038101906103b29190614774565b610cac565b005b3480156103c557600080fd5b506103e060048036038101906103db91906148b6565b610d0c565b6040516103ed9190614f9c565b60405180910390f35b34801561040257600080fd5b5061041d6004803603810190610418919061470f565b610e02565b60405161042a9190614f9c565b60405180910390f35b34801561043f57600080fd5b5061045a6004803603810190610455919061487a565b610f6b565b60405161046791906152d9565b60405180910390f35b34801561047c57600080fd5b506104976004803603810190610492919061498a565b611010565b005b3480156104a557600080fd5b506104ae6110df565b005b3480156104bc57600080fd5b506104d760048036038101906104d29190614774565b611165565b005b3480156104e557600080fd5b5061050060048036038101906104fb919061470f565b611185565b60405161050d9190614f7a565b60405180910390f35b34801561052257600080fd5b5061053d6004803603810190610538919061498a565b611301565b60405161054a91906152d9565b60405180910390f35b34801561055f57600080fd5b5061057a60048036038101906105759190614a07565b611398565b005b34801561058857600080fd5b506105a3600480360381019061059e9190614949565b611467565b005b3480156105b157600080fd5b506105cc60048036038101906105c7919061498a565b6114fd565b005b3480156105da57600080fd5b506105f560048036038101906105f09190614a07565b611629565b005b34801561060357600080fd5b5061060c6116f8565b6040516106199190614f9c565b60405180910390f35b34801561062e57600080fd5b506106496004803603810190610644919061498a565b61170f565b6040516106569190614f13565b60405180910390f35b34801561066b57600080fd5b506106866004803603810190610681919061470f565b6117c1565b60405161069391906152d9565b60405180910390f35b3480156106a857600080fd5b506106b1611879565b005b6106cd60048036038101906106c891906149b3565b611901565b005b3480156106db57600080fd5b506106f660048036038101906106f1919061470f565b611b29565b6040516107039190614f9c565b60405180910390f35b34801561071857600080fd5b50610721611c91565b005b61072b611d17565b005b34801561073957600080fd5b50610742611df5565b60405161074f9190614f13565b60405180910390f35b34801561076457600080fd5b5061077f600480360381019061077a919061498a565b611e1f565b005b34801561078d57600080fd5b50610796611eee565b6040516107a39190614fb7565b60405180910390f35b3480156107b857600080fd5b506107d360048036038101906107ce919061470f565b611f80565b6040516107e09190614f9c565b60405180910390f35b3480156107f557600080fd5b50610810600480360381019061080b919061498a565b611fa0565b6040516108279b9a999897969594939291906152f4565b60405180910390f35b34801561083c57600080fd5b506108576004803603810190610852919061483e565b612117565b005b34801561086557600080fd5b50610880600480360381019061087b9190614a07565b612298565b005b34801561088e57600080fd5b506108a960048036038101906108a4919061498a565b612367565b005b3480156108b757600080fd5b506108d260048036038101906108cd9190614a07565b612493565b005b3480156108e057600080fd5b506108fb60048036038101906108f69190614a07565b612562565b005b34801561090957600080fd5b50610924600480360381019061091f91906147c3565b612631565b005b34801561093257600080fd5b5061094d6004803603810190610948919061498a565b612693565b60405161095a9190614fb7565b60405180910390f35b34801561096f57600080fd5b5061098a6004803603810190610985919061498a565b6126a5565b005b34801561099857600080fd5b506109b360048036038101906109ae91906149b3565b6127d1565b005b3480156109c157600080fd5b506109dc60048036038101906109d791906148b6565b61289e565b6040516109e99190614f9c565b60405180910390f35b3480156109fe57600080fd5b50610a196004803603810190610a149190614738565b612994565b604051610a269190614f9c565b60405180910390f35b348015610a3b57600080fd5b50610a566004803603810190610a51919061470f565b612a28565b005b6000610a6382612b20565b9050919050565b606060008054610a7990615672565b80601f0160208091040260200160405190810160405280929190818152602001828054610aa590615672565b8015610af25780601f10610ac757610100808354040283529160200191610af2565b820191906000526020600020905b815481529060010190602001808311610ad557829003601f168201915b5050505050905090565b6000610b0782612b9a565b610b46576040517f08c379a0000000000000000000000000000000000000000000000000000000008152600401610b3d906151f9565b60405180910390fd5b6004600083815260200190815260200160002060009054906101000a900473ffffffffffffffffffffffffffffffffffffffff169050919050565b6000610b8c8261170f565b90508073ffffffffffffffffffffffffffffffffffffffff168373ffffffffffffffffffffffffffffffffffffffff161415610bfd576040517f08c379a0000000000000000000000000000000000000000000000000000000008152600401610bf490615279565b60405180910390fd5b8073ffffffffffffffffffffffffffffffffffffffff16610c1c612c06565b73ffffffffffffffffffffffffffffffffffffffff161480610c4b5750610c4a81610c45612c06565b612994565b5b610c8a576040517f08c379a0000000000000000000000000000000000000000000000000000000008152600401610c8190615119565b60405180910390fd5b610c948383612c0e565b505050565b6000600980549050905090565b600d5481565b610cbd610cb7612c06565b82612cc7565b610cfc576040517f08c379a0000000000000000000000000000000000000000000000000000000008152600401610cf390615299565b60405180910390fd5b610d07838383612da5565b505050565b6000610d16612c06565b73ffffffffffffffffffffffffffffffffffffffff16610d34611df5565b73ffffffffffffffffffffffffffffffffffffffff1614610d8a576040517f08c379a0000000000000000000000000000000000000000000000000000000008152600401610d8190615219565b60405180910390fd5b60005b8251811015610dfc57610ddf838281518110610dd2577f4e487b7100000000000000000000000000000000000000000000000000000000600052603260045260246000fd5b6020026020010151610e02565b15610de957600191505b8080610df4906156d5565b915050610d8d565b50919050565b6000610e0c612c06565b73ffffffffffffffffffffffffffffffffffffffff16610e2a611df5565b73ffffffffffffffffffffffffffffffffffffffff1614610e80576040517f08c379a0000000000000000000000000000000000000000000000000000000008152600401610e7790615219565b60405180910390fd5b600c60008373ffffffffffffffffffffffffffffffffffffffff1673ffffffffffffffffffffffffffffffffffffffff16815260200190815260200160002060009054906101000a900460ff1615610f66576000600c60008473ffffffffffffffffffffffffffffffffffffffff1673ffffffffffffffffffffffffffffffffffffffff16815260200190815260200160002060006101000a81548160ff0219169083151502179055507ff1abf01a1043b7c244d128e8595cf0c1d10743b022b03a02dffd8ca3bf729f5a82604051610f599190614f13565b60405180910390a1600190505b919050565b6000610f76836117c1565b8210610fb7576040517f08c379a0000000000000000000000000000000000000000000000000000000008152600401610fae90615019565b60405180910390fd5b600760008473ffffffffffffffffffffffffffffffffffffffff1673ffffffffffffffffffffffffffffffffffffffff168152602001908152602001600020600083815260200190815260200160002054905092915050565b6110186116f8565b15611058576040517f08c379a000000000000000000000000000000000000000000000000000000000815260040161104f906150f9565b60405180910390fd5b600c60003373ffffffffffffffffffffffffffffffffffffffff1673ffffffffffffffffffffffffffffffffffffffff16815260200190815260200160002060009054906101000a900460ff166110ae57600080fd5b60016015600083815260200190815260200160002060020160008282546110d591906154dc565b9250508190555050565b6110e7612c06565b73ffffffffffffffffffffffffffffffffffffffff16611105611df5565b73ffffffffffffffffffffffffffffffffffffffff161461115b576040517f08c379a000000000000000000000000000000000000000000000000000000000815260040161115290615219565b60405180910390fd5b611163613001565b565b61118083838360405180602001604052806000815250612631565b505050565b60606000611192836117c1565b9050600081141561121557600067ffffffffffffffff8111156111de577f4e487b7100000000000000000000000000000000000000000000000000000000600052604160045260246000fd5b60405190808252806020026020018201604052801561120c5781602001602082028036833780820191505090505b509150506112fc565b60008167ffffffffffffffff811115611257577f4e487b7100000000000000000000000000000000000000000000000000000000600052604160045260246000fd5b6040519080825280602002602001820160405280156112855781602001602082028036833780820191505090505b50905060005b828110156112f55761129d8582610f6b565b8282815181106112d6577f4e487b7100000000000000000000000000000000000000000000000000000000600052603260045260246000fd5b60200260200101818152505080806112ed906156d5565b91505061128b565b5080925050505b919050565b600061130b610c99565b821061134c576040517f08c379a0000000000000000000000000000000000000000000000000000000008152600401611343906152b9565b60405180910390fd5b60098281548110611386577f4e487b7100000000000000000000000000000000000000000000000000000000600052603260045260246000fd5b90600052602060002001549050919050565b6113a06116f8565b156113e0576040517f08c379a00000000000000000000000000000000000000000000000000000000081526004016113d7906150f9565b60405180910390fd5b600c60003373ffffffffffffffffffffffffffffffffffffffff1673ffffffffffffffffffffffffffffffffffffffff16815260200190815260200160002060009054906101000a900460ff1661143657600080fd5b8060156000848152602001908152602001600020600a01600082825461145c91906154dc565b925050819055505050565b61146f612c06565b73ffffffffffffffffffffffffffffffffffffffff1661148d611df5565b73ffffffffffffffffffffffffffffffffffffffff16146114e3576040517f08c379a00000000000000000000000000000000000000000000000000000000081526004016114da90615219565b60405180910390fd5b80600e90805190602001906114f992919061449d565b5050565b6115056116f8565b15611545576040517f08c379a000000000000000000000000000000000000000000000000000000000815260040161153c906150f9565b60405180910390fd5b61154d612c06565b73ffffffffffffffffffffffffffffffffffffffff1661156b611df5565b73ffffffffffffffffffffffffffffffffffffffff16146115c1576040517f08c379a00000000000000000000000000000000000000000000000000000000081526004016115b890615219565b60405180910390fd5b60006015600083815260200190815260200160002060030160006101000a81548160ff02191690836002811115611621577f4e487b7100000000000000000000000000000000000000000000000000000000600052602160045260246000fd5b021790555050565b6116316116f8565b15611671576040517f08c379a0000000000000000000000000000000000000000000000000000000008152600401611668906150f9565b60405180910390fd5b600c60003373ffffffffffffffffffffffffffffffffffffffff1673ffffffffffffffffffffffffffffffffffffffff16815260200190815260200160002060009054906101000a900460ff166116c757600080fd5b806015600084815260200190815260200160002060070160008282546116ed91906154dc565b925050819055505050565b6000600b60009054906101000a900460ff16905090565b6000806002600084815260200190815260200160002060009054906101000a900473ffffffffffffffffffffffffffffffffffffffff169050600073ffffffffffffffffffffffffffffffffffffffff168173ffffffffffffffffffffffffffffffffffffffff1614156117b8576040517f08c379a00000000000000000000000000000000000000000000000000000000081526004016117af90615159565b60405180910390fd5b80915050919050565b60008073ffffffffffffffffffffffffffffffffffffffff168273ffffffffffffffffffffffffffffffffffffffff161415611832576040517f08c379a000000000000000000000000000000000000000000000000000000000815260040161182990615139565b60405180910390fd5b600360008373ffffffffffffffffffffffffffffffffffffffff1673ffffffffffffffffffffffffffffffffffffffff168152602001908152602001600020549050919050565b611881612c06565b73ffffffffffffffffffffffffffffffffffffffff1661189f611df5565b73ffffffffffffffffffffffffffffffffffffffff16146118f5576040517f08c379a00000000000000000000000000000000000000000000000000000000081526004016118ec90615219565b60405180910390fd5b6118ff60006130a3565b565b6119096116f8565b15611949576040517f08c379a0000000000000000000000000000000000000000000000000000000008152600401611940906150f9565b60405180910390fd5b6004821061198c576040517f08c379a000000000000000000000000000000000000000000000000000000000815260040161198390614ff9565b60405180910390fd5b600d54341015806119d657506119a0612c06565b73ffffffffffffffffffffffffffffffffffffffff166119be611df5565b73ffffffffffffffffffffffffffffffffffffffff16145b611a15576040517f08c379a0000000000000000000000000000000000000000000000000000000008152600401611a0c90615199565b60405180910390fd5b6000611a1f610c99565b90506000600182611a3091906154dc565b9050611a3d818585613169565b611a4733826134cc565b600060168581548110611a83577f4e487b7100000000000000000000000000000000000000000000000000000000600052603260045260246000fd5b906000526020600020018054611a9890615672565b80601f0160208091040260200160405190810160405280929190818152602001828054611ac490615672565b8015611b115780601f10611ae657610100808354040283529160200191611b11565b820191906000526020600020905b815481529060010190602001808311611af457829003601f168201915b50505050509050611b2282826134ea565b5050505050565b6000611b33612c06565b73ffffffffffffffffffffffffffffffffffffffff16611b51611df5565b73ffffffffffffffffffffffffffffffffffffffff1614611ba7576040517f08c379a0000000000000000000000000000000000000000000000000000000008152600401611b9e90615219565b60405180910390fd5b600c60008373ffffffffffffffffffffffffffffffffffffffff1673ffffffffffffffffffffffffffffffffffffffff16815260200190815260200160002060009054906101000a900460ff16611c8c576001600c60008473ffffffffffffffffffffffffffffffffffffffff1673ffffffffffffffffffffffffffffffffffffffff16815260200190815260200160002060006101000a81548160ff0219169083151502179055507fd1bba68c128cc3f427e5831b3c6f99f480b6efa6b9e80c757768f6124158cc3f82604051611c7f9190614f13565b60405180910390a1600190505b919050565b611c99612c06565b73ffffffffffffffffffffffffffffffffffffffff16611cb7611df5565b73ffffffffffffffffffffffffffffffffffffffff1614611d0d576040517f08c379a0000000000000000000000000000000000000000000000000000000008152600401611d0490615219565b60405180910390fd5b611d1561355e565b565b611d1f612c06565b73ffffffffffffffffffffffffffffffffffffffff16611d3d611df5565b73ffffffffffffffffffffffffffffffffffffffff1614611d93576040517f08c379a0000000000000000000000000000000000000000000000000000000008152600401611d8a90615219565b60405180910390fd5b600f60009054906101000a900473ffffffffffffffffffffffffffffffffffffffff1673ffffffffffffffffffffffffffffffffffffffff166108fc479081150290604051600060405180830381858888f19350505050611df357600080fd5b565b6000600b60019054906101000a900473ffffffffffffffffffffffffffffffffffffffff16905090565b611e276116f8565b15611e67576040517f08c379a0000000000000000000000000000000000000000000000000000000008152600401611e5e906150f9565b60405180910390fd5b600c60003373ffffffffffffffffffffffffffffffffffffffff1673ffffffffffffffffffffffffffffffffffffffff16815260200190815260200160002060009054906101000a900460ff16611ebd57600080fd5b6001601560008381526020019081526020016000206001016000828254611ee491906154dc565b9250508190555050565b606060018054611efd90615672565b80601f0160208091040260200160405190810160405280929190818152602001828054611f2990615672565b8015611f765780601f10611f4b57610100808354040283529160200191611f76565b820191906000526020600020905b815481529060010190602001808311611f5957829003601f168201915b5050505050905090565b600c6020528060005260406000206000915054906101000a900460ff1681565b60156020528060005260406000206000915090508060000154908060010154908060020154908060030160009054906101000a900460ff1690806004018054611fe890615672565b80601f016020809104026020016040519081016040528092919081815260200182805461201490615672565b80156120615780601f1061203657610100808354040283529160200191612061565b820191906000526020600020905b81548152906001019060200180831161204457829003601f168201915b50505050509080600501805461207690615672565b80601f01602080910402602001604051908101604052809291908181526020018280546120a290615672565b80156120ef5780601f106120c4576101008083540402835291602001916120ef565b820191906000526020600020905b8154815290600101906020018083116120d257829003601f168201915b50505050509080600601549080600701549080600801549080600901549080600a015490508b565b61211f612c06565b73ffffffffffffffffffffffffffffffffffffffff168273ffffffffffffffffffffffffffffffffffffffff16141561218d576040517f08c379a0000000000000000000000000000000000000000000000000000000008152600401612184906150b9565b60405180910390fd5b806005600061219a612c06565b73ffffffffffffffffffffffffffffffffffffffff1673ffffffffffffffffffffffffffffffffffffffff16815260200190815260200160002060008473ffffffffffffffffffffffffffffffffffffffff1673ffffffffffffffffffffffffffffffffffffffff16815260200190815260200160002060006101000a81548160ff0219169083151502179055508173ffffffffffffffffffffffffffffffffffffffff16612247612c06565b73ffffffffffffffffffffffffffffffffffffffff167f17307eab39ab6107e8899845ad3d59bd9653f200f220920489ca2b5937696c318360405161228c9190614f9c565b60405180910390a35050565b6122a06116f8565b156122e0576040517f08c379a00000000000000000000000000000000000000000000000000000000081526004016122d7906150f9565b60405180910390fd5b600c60003373ffffffffffffffffffffffffffffffffffffffff1673ffffffffffffffffffffffffffffffffffffffff16815260200190815260200160002060009054906101000a900460ff1661233657600080fd5b8060156000848152602001908152602001600020600801600082825461235c91906154dc565b925050819055505050565b61236f6116f8565b156123af576040517f08c379a00000000000000000000000000000000000000000000000000000000081526004016123a6906150f9565b60405180910390fd5b6123b7612c06565b73ffffffffffffffffffffffffffffffffffffffff166123d5611df5565b73ffffffffffffffffffffffffffffffffffffffff161461242b576040517f08c379a000000000000000000000000000000000000000000000000000000000815260040161242290615219565b60405180910390fd5b60016015600083815260200190815260200160002060030160006101000a81548160ff0219169083600281111561248b577f4e487b7100000000000000000000000000000000000000000000000000000000600052602160045260246000fd5b021790555050565b61249b6116f8565b156124db576040517f08c379a00000000000000000000000000000000000000000000000000000000081526004016124d2906150f9565b60405180910390fd5b600c60003373ffffffffffffffffffffffffffffffffffffffff1673ffffffffffffffffffffffffffffffffffffffff16815260200190815260200160002060009054906101000a900460ff1661253157600080fd5b8060156000848152602001908152602001600020600901600082825461255791906154dc565b925050819055505050565b61256a6116f8565b156125aa576040517f08c379a00000000000000000000000000000000000000000000000000000000081526004016125a1906150f9565b60405180910390fd5b600c60003373ffffffffffffffffffffffffffffffffffffffff1673ffffffffffffffffffffffffffffffffffffffff16815260200190815260200160002060009054906101000a900460ff1661260057600080fd5b8060156000848152602001908152602001600020600601600082825461262691906154dc565b925050819055505050565b61264261263c612c06565b83612cc7565b612681576040517f08c379a000000000000000000000000000000000000000000000000000000000815260040161267890615299565b60405180910390fd5b61268d84848484613601565b50505050565b606061269e8261365d565b9050919050565b6126ad6116f8565b156126ed576040517f08c379a00000000000000000000000000000000000000000000000000000000081526004016126e4906150f9565b60405180910390fd5b6126f5612c06565b73ffffffffffffffffffffffffffffffffffffffff16612713611df5565b73ffffffffffffffffffffffffffffffffffffffff1614612769576040517f08c379a000000000000000000000000000000000000000000000000000000000815260040161276090615219565b60405180910390fd5b60026015600083815260200190815260200160002060030160006101000a81548160ff021916908360028111156127c9577f4e487b7100000000000000000000000000000000000000000000000000000000600052602160045260246000fd5b021790555050565b6127d96116f8565b15612819576040517f08c379a0000000000000000000000000000000000000000000000000000000008152600401612810906150f9565b60405180910390fd5b600c60003373ffffffffffffffffffffffffffffffffffffffff1673ffffffffffffffffffffffffffffffffffffffff16815260200190815260200160002060009054906101000a900460ff1661286f57600080fd5b8060156000848152602001908152602001600020600401908051906020019061289992919061449d565b505050565b60006128a8612c06565b73ffffffffffffffffffffffffffffffffffffffff166128c6611df5565b73ffffffffffffffffffffffffffffffffffffffff161461291c576040517f08c379a000000000000000000000000000000000000000000000000000000000815260040161291390615219565b60405180910390fd5b60005b825181101561298e57612971838281518110612964577f4e487b7100000000000000000000000000000000000000000000000000000000600052603260045260246000fd5b6020026020010151611b29565b1561297b57600191505b8080612986906156d5565b91505061291f565b50919050565b6000600560008473ffffffffffffffffffffffffffffffffffffffff1673ffffffffffffffffffffffffffffffffffffffff16815260200190815260200160002060008373ffffffffffffffffffffffffffffffffffffffff1673ffffffffffffffffffffffffffffffffffffffff16815260200190815260200160002060009054906101000a900460ff16905092915050565b612a30612c06565b73ffffffffffffffffffffffffffffffffffffffff16612a4e611df5565b73ffffffffffffffffffffffffffffffffffffffff1614612aa4576040517f08c379a0000000000000000000000000000000000000000000000000000000008152600401612a9b90615219565b60405180910390fd5b600073ffffffffffffffffffffffffffffffffffffffff168173ffffffffffffffffffffffffffffffffffffffff161415612b14576040517f08c379a0000000000000000000000000000000000000000000000000000000008152600401612b0b90615059565b60405180910390fd5b612b1d816130a3565b50565b60007f780e9d63000000000000000000000000000000000000000000000000000000007bffffffffffffffffffffffffffffffffffffffffffffffffffffffff1916827bffffffffffffffffffffffffffffffffffffffffffffffffffffffff19161480612b935750612b92826137af565b5b9050919050565b60008073ffffffffffffffffffffffffffffffffffffffff166002600084815260200190815260200160002060009054906101000a900473ffffffffffffffffffffffffffffffffffffffff1673ffffffffffffffffffffffffffffffffffffffff1614159050919050565b600033905090565b816004600083815260200190815260200160002060006101000a81548173ffffffffffffffffffffffffffffffffffffffff021916908373ffffffffffffffffffffffffffffffffffffffff160217905550808273ffffffffffffffffffffffffffffffffffffffff16612c818361170f565b73ffffffffffffffffffffffffffffffffffffffff167f8c5be1e5ebec7d5bd14f71427d1e84f3dd0314c0f7b2291e5b200ac8c7c3b92560405160405180910390a45050565b6000612cd282612b9a565b612d11576040517f08c379a0000000000000000000000000000000000000000000000000000000008152600401612d08906150d9565b60405180910390fd5b6000612d1c8361170f565b90508073ffffffffffffffffffffffffffffffffffffffff168473ffffffffffffffffffffffffffffffffffffffff161480612d8b57508373ffffffffffffffffffffffffffffffffffffffff16612d7384610afc565b73ffffffffffffffffffffffffffffffffffffffff16145b80612d9c5750612d9b8185612994565b5b91505092915050565b8273ffffffffffffffffffffffffffffffffffffffff16612dc58261170f565b73ffffffffffffffffffffffffffffffffffffffff1614612e1b576040517f08c379a0000000000000000000000000000000000000000000000000000000008152600401612e1290615239565b60405180910390fd5b600073ffffffffffffffffffffffffffffffffffffffff168273ffffffffffffffffffffffffffffffffffffffff161415612e8b576040517f08c379a0000000000000000000000000000000000000000000000000000000008152600401612e8290615099565b60405180910390fd5b612e96838383613891565b612ea1600082612c0e565b6001600360008573ffffffffffffffffffffffffffffffffffffffff1673ffffffffffffffffffffffffffffffffffffffff1681526020019081526020016000206000828254612ef19190615563565b925050819055506001600360008473ffffffffffffffffffffffffffffffffffffffff1673ffffffffffffffffffffffffffffffffffffffff1681526020019081526020016000206000828254612f4891906154dc565b92505081905550816002600083815260200190815260200160002060006101000a81548173ffffffffffffffffffffffffffffffffffffffff021916908373ffffffffffffffffffffffffffffffffffffffff160217905550808273ffffffffffffffffffffffffffffffffffffffff168473ffffffffffffffffffffffffffffffffffffffff167fddf252ad1be2c89b69c2b068fc378daa952ba7f163c4a11628f55a4df523b3ef60405160405180910390a4505050565b6130096116f8565b613048576040517f08c379a000000000000000000000000000000000000000000000000000000000815260040161303f90614fd9565b60405180910390fd5b6000600b60006101000a81548160ff0219169083151502179055507f5db9ee0a495bf2e6ff9c91a7834c1ba4fdd244a5e8aa4e537bd38aeae4b073aa61308c612c06565b6040516130999190614f13565b60405180910390a1565b6000600b60019054906101000a900473ffffffffffffffffffffffffffffffffffffffff16905081600b60016101000a81548173ffffffffffffffffffffffffffffffffffffffff021916908373ffffffffffffffffffffffffffffffffffffffff1602179055508173ffffffffffffffffffffffffffffffffffffffff168173ffffffffffffffffffffffffffffffffffffffff167f8be0079c531659141344cd1fd0a4f28419497f9722a3daafe3b4186f6b6457e060405160405180910390a35050565b6040518061016001604052808481526020016000815260200160008152602001600060028111156131c3577f4e487b7100000000000000000000000000000000000000000000000000000000600052602160045260246000fd5b815260200182815260200160108481548110613208577f4e487b7100000000000000000000000000000000000000000000000000000000600052603260045260246000fd5b90600052602060002001805461321d90615672565b80601f016020809104026020016040519081016040528092919081815260200182805461324990615672565b80156132965780601f1061326b57610100808354040283529160200191613296565b820191906000526020600020905b81548152906001019060200180831161327957829003601f168201915b5050505050815260200161012c8152602001601184815481106132e2577f4e487b7100000000000000000000000000000000000000000000000000000000600052603260045260246000fd5b906000526020600020015481526020016012848154811061332c577f4e487b7100000000000000000000000000000000000000000000000000000000600052603260045260246000fd5b9060005260206000200154815260200160138481548110613376577f4e487b7100000000000000000000000000000000000000000000000000000000600052603260045260246000fd5b90600052602060002001548152602001601484815481106133c0577f4e487b7100000000000000000000000000000000000000000000000000000000600052603260045260246000fd5b90600052602060002001548152506015600085815260200190815260200160002060008201518160000155602082015181600101556040820151816002015560608201518160030160006101000a81548160ff02191690836002811115613450577f4e487b7100000000000000000000000000000000000000000000000000000000600052602160045260246000fd5b0217905550608082015181600401908051906020019061347192919061449d565b5060a082015181600501908051906020019061348e92919061449d565b5060c0820151816006015560e082015181600701556101008201518160080155610120820151816009015561014082015181600a0155905050505050565b6134e68282604051806020016040528060008152506138e9565b5050565b6134f382612b9a565b613532576040517f08c379a000000000000000000000000000000000000000000000000000000000815260040161352990615179565b60405180910390fd5b8060066000848152602001908152602001600020908051906020019061355992919061449d565b505050565b6135666116f8565b156135a6576040517f08c379a000000000000000000000000000000000000000000000000000000000815260040161359d906150f9565b60405180910390fd5b6001600b60006101000a81548160ff0219169083151502179055507f62e78cea01bee320cd4e420270b5ea74000d11b0c9f74754ebdbfc544b05a2586135ea612c06565b6040516135f79190614f13565b60405180910390a1565b61360c848484612da5565b61361884848484613944565b613657576040517f08c379a000000000000000000000000000000000000000000000000000000000815260040161364e90615039565b60405180910390fd5b50505050565b606061366882612b9a565b6136a7576040517f08c379a000000000000000000000000000000000000000000000000000000000815260040161369e906151d9565b60405180910390fd5b60006006600084815260200190815260200160002080546136c790615672565b80601f01602080910402602001604051908101604052809291908181526020018280546136f390615672565b80156137405780601f1061371557610100808354040283529160200191613740565b820191906000526020600020905b81548152906001019060200180831161372357829003601f168201915b505050505090506000613751613adb565b90506000815114156137675781925050506137aa565b60008251111561379c578082604051602001613784929190614eef565b604051602081830303815290604052925050506137aa565b6137a584613b6d565b925050505b919050565b60007f80ac58cd000000000000000000000000000000000000000000000000000000007bffffffffffffffffffffffffffffffffffffffffffffffffffffffff1916827bffffffffffffffffffffffffffffffffffffffffffffffffffffffff1916148061387a57507f5b5e139f000000000000000000000000000000000000000000000000000000007bffffffffffffffffffffffffffffffffffffffffffffffffffffffff1916827bffffffffffffffffffffffffffffffffffffffffffffffffffffffff1916145b8061388a575061388982613c14565b5b9050919050565b6138996116f8565b156138d9576040517f08c379a00000000000000000000000000000000000000000000000000000000081526004016138d0906150f9565b60405180910390fd5b6138e4838383613c7e565b505050565b6138f38383613d92565b6139006000848484613944565b61393f576040517f08c379a000000000000000000000000000000000000000000000000000000000815260040161393690615039565b60405180910390fd5b505050565b60006139658473ffffffffffffffffffffffffffffffffffffffff16613f60565b15613ace578373ffffffffffffffffffffffffffffffffffffffff1663150b7a0261398e612c06565b8786866040518563ffffffff1660e01b81526004016139b09493929190614f2e565b602060405180830381600087803b1580156139ca57600080fd5b505af19250505080156139fb57506040513d601f19601f820116820180604052508101906139f89190614920565b60015b613a7e573d8060008114613a2b576040519150601f19603f3d011682016040523d82523d6000602084013e613a30565b606091505b50600081511415613a76576040517f08c379a0000000000000000000000000000000000000000000000000000000008152600401613a6d90615039565b60405180910390fd5b805181602001fd5b63150b7a0260e01b7bffffffffffffffffffffffffffffffffffffffffffffffffffffffff1916817bffffffffffffffffffffffffffffffffffffffffffffffffffffffff191614915050613ad3565b600190505b949350505050565b6060600e8054613aea90615672565b80601f0160208091040260200160405190810160405280929190818152602001828054613b1690615672565b8015613b635780601f10613b3857610100808354040283529160200191613b63565b820191906000526020600020905b815481529060010190602001808311613b4657829003601f168201915b5050505050905090565b6060613b7882612b9a565b613bb7576040517f08c379a0000000000000000000000000000000000000000000000000000000008152600401613bae90615259565b60405180910390fd5b6000613bc1613adb565b90506000815111613be15760405180602001604052806000815250613c0c565b80613beb84613f73565b604051602001613bfc929190614eef565b6040516020818303038152906040525b915050919050565b60007f01ffc9a7000000000000000000000000000000000000000000000000000000007bffffffffffffffffffffffffffffffffffffffffffffffffffffffff1916827bffffffffffffffffffffffffffffffffffffffffffffffffffffffff1916149050919050565b613c89838383614120565b600073ffffffffffffffffffffffffffffffffffffffff168373ffffffffffffffffffffffffffffffffffffffff161415613ccc57613cc781614125565b613d0b565b8173ffffffffffffffffffffffffffffffffffffffff168373ffffffffffffffffffffffffffffffffffffffff1614613d0a57613d09838261416e565b5b5b600073ffffffffffffffffffffffffffffffffffffffff168273ffffffffffffffffffffffffffffffffffffffff161415613d4e57613d49816142db565b613d8d565b8273ffffffffffffffffffffffffffffffffffffffff168273ffffffffffffffffffffffffffffffffffffffff1614613d8c57613d8b828261441e565b5b5b505050565b600073ffffffffffffffffffffffffffffffffffffffff168273ffffffffffffffffffffffffffffffffffffffff161415613e02576040517f08c379a0000000000000000000000000000000000000000000000000000000008152600401613df9906151b9565b60405180910390fd5b613e0b81612b9a565b15613e4b576040517f08c379a0000000000000000000000000000000000000000000000000000000008152600401613e4290615079565b60405180910390fd5b613e5760008383613891565b6001600360008473ffffffffffffffffffffffffffffffffffffffff1673ffffffffffffffffffffffffffffffffffffffff1681526020019081526020016000206000828254613ea791906154dc565b92505081905550816002600083815260200190815260200160002060006101000a81548173ffffffffffffffffffffffffffffffffffffffff021916908373ffffffffffffffffffffffffffffffffffffffff160217905550808273ffffffffffffffffffffffffffffffffffffffff16600073ffffffffffffffffffffffffffffffffffffffff167fddf252ad1be2c89b69c2b068fc378daa952ba7f163c4a11628f55a4df523b3ef60405160405180910390a45050565b600080823b905060008111915050919050565b60606000821415613fbb576040518060400160405280600181526020017f3000000000000000000000000000000000000000000000000000000000000000815250905061411b565b600082905060005b60008214613fed578080613fd6906156d5565b915050600a82613fe69190615532565b9150613fc3565b60008167ffffffffffffffff81111561402f577f4e487b7100000000000000000000000000000000000000000000000000000000600052604160045260246000fd5b6040519080825280601f01601f1916602001820160405280156140615781602001600182028036833780820191505090505b5090505b600085146141145760018261407a9190615563565b9150600a85614089919061571e565b603061409591906154dc565b60f81b8183815181106140d1577f4e487b7100000000000000000000000000000000000000000000000000000000600052603260045260246000fd5b60200101907effffffffffffffffffffffffffffffffffffffffffffffffffffffffffffff1916908160001a905350600a8561410d9190615532565b9450614065565b8093505050505b919050565b505050565b600980549050600a600083815260200190815260200160002081905550600981908060018154018082558091505060019003906000526020600020016000909190919091505550565b6000600161417b846117c1565b6141859190615563565b905060006008600084815260200190815260200160002054905081811461426a576000600760008673ffffffffffffffffffffffffffffffffffffffff1673ffffffffffffffffffffffffffffffffffffffff168152602001908152602001600020600084815260200190815260200160002054905080600760008773ffffffffffffffffffffffffffffffffffffffff1673ffffffffffffffffffffffffffffffffffffffff168152602001908152602001600020600084815260200190815260200160002081905550816008600083815260200190815260200160002081905550505b6008600084815260200190815260200160002060009055600760008573ffffffffffffffffffffffffffffffffffffffff1673ffffffffffffffffffffffffffffffffffffffff16815260200190815260200160002060008381526020019081526020016000206000905550505050565b600060016009805490506142ef9190615563565b90506000600a6000848152602001908152602001600020549050600060098381548110614345577f4e487b7100000000000000000000000000000000000000000000000000000000600052603260045260246000fd5b90600052602060002001549050806009838154811061438d577f4e487b7100000000000000000000000000000000000000000000000000000000600052603260045260246000fd5b906000526020600020018190555081600a600083815260200190815260200160002081905550600a6000858152602001908152602001600020600090556009805480614402577f4e487b7100000000000000000000000000000000000000000000000000000000600052603160045260246000fd5b6001900381819060005260206000200160009055905550505050565b6000614429836117c1565b905081600760008573ffffffffffffffffffffffffffffffffffffffff1673ffffffffffffffffffffffffffffffffffffffff168152602001908152602001600020600083815260200190815260200160002081905550806008600084815260200190815260200160002081905550505050565b8280546144a990615672565b90600052602060002090601f0160209004810192826144cb5760008555614512565b82601f106144e457805160ff1916838001178555614512565b82800160010185558215614512579182015b828111156145115782518255916020019190600101906144f6565b5b50905061451f9190614523565b5090565b5b8082111561453c576000816000905550600101614524565b5090565b600061455361454e846153d2565b6153ad565b9050808382526020820190508285602086028201111561457257600080fd5b60005b858110156145a257816145888882614628565b845260208401935060208301925050600181019050614575565b5050509392505050565b60006145bf6145ba846153fe565b6153ad565b9050828152602081018484840111156145d757600080fd5b6145e2848285615630565b509392505050565b60006145fd6145f88461542f565b6153ad565b90508281526020810184848401111561461557600080fd5b614620848285615630565b509392505050565b60008135905061463781615ebd565b92915050565b600082601f83011261464e57600080fd5b813561465e848260208601614540565b91505092915050565b60008135905061467681615ed4565b92915050565b60008135905061468b81615eeb565b92915050565b6000815190506146a081615eeb565b92915050565b600082601f8301126146b757600080fd5b81356146c78482602086016145ac565b91505092915050565b600082601f8301126146e157600080fd5b81356146f18482602086016145ea565b91505092915050565b60008135905061470981615f02565b92915050565b60006020828403121561472157600080fd5b600061472f84828501614628565b91505092915050565b6000806040838503121561474b57600080fd5b600061475985828601614628565b925050602061476a85828601614628565b9150509250929050565b60008060006060848603121561478957600080fd5b600061479786828701614628565b93505060206147a886828701614628565b92505060406147b9868287016146fa565b9150509250925092565b600080600080608085870312156147d957600080fd5b60006147e787828801614628565b94505060206147f887828801614628565b9350506040614809878288016146fa565b925050606085013567ffffffffffffffff81111561482657600080fd5b614832878288016146a6565b91505092959194509250565b6000806040838503121561485157600080fd5b600061485f85828601614628565b925050602061487085828601614667565b9150509250929050565b6000806040838503121561488d57600080fd5b600061489b85828601614628565b92505060206148ac858286016146fa565b9150509250929050565b6000602082840312156148c857600080fd5b600082013567ffffffffffffffff8111156148e257600080fd5b6148ee8482850161463d565b91505092915050565b60006020828403121561490957600080fd5b60006149178482850161467c565b91505092915050565b60006020828403121561493257600080fd5b600061494084828501614691565b91505092915050565b60006020828403121561495b57600080fd5b600082013567ffffffffffffffff81111561497557600080fd5b614981848285016146d0565b91505092915050565b60006020828403121561499c57600080fd5b60006149aa848285016146fa565b91505092915050565b600080604083850312156149c657600080fd5b60006149d4858286016146fa565b925050602083013567ffffffffffffffff8111156149f157600080fd5b6149fd858286016146d0565b9150509250929050565b60008060408385031215614a1a57600080fd5b6000614a28858286016146fa565b9250506020614a39858286016146fa565b9150509250929050565b6000614a4f8383614ed1565b60208301905092915050565b614a6481615597565b82525050565b6000614a7582615470565b614a7f818561549e565b9350614a8a83615460565b8060005b83811015614abb578151614aa28882614a43565b9750614aad83615491565b925050600181019050614a8e565b5085935050505092915050565b614ad1816155a9565b82525050565b6000614ae28261547b565b614aec81856154af565b9350614afc81856020860161563f565b614b058161583a565b840191505092915050565b614b198161561e565b82525050565b6000614b2a82615486565b614b3481856154c0565b9350614b4481856020860161563f565b614b4d8161583a565b840191505092915050565b6000614b6382615486565b614b6d81856154d1565b9350614b7d81856020860161563f565b80840191505092915050565b6000614b966014836154c0565b9150614ba18261584b565b602082019050919050565b6000614bb9601e836154c0565b9150614bc482615874565b602082019050919050565b6000614bdc602b836154c0565b9150614be78261589d565b604082019050919050565b6000614bff6032836154c0565b9150614c0a826158ec565b604082019050919050565b6000614c226026836154c0565b9150614c2d8261593b565b604082019050919050565b6000614c45601c836154c0565b9150614c508261598a565b602082019050919050565b6000614c686024836154c0565b9150614c73826159b3565b604082019050919050565b6000614c8b6019836154c0565b9150614c9682615a02565b602082019050919050565b6000614cae602c836154c0565b9150614cb982615a2b565b604082019050919050565b6000614cd16010836154c0565b9150614cdc82615a7a565b602082019050919050565b6000614cf46038836154c0565b9150614cff82615aa3565b604082019050919050565b6000614d17602a836154c0565b9150614d2282615af2565b604082019050919050565b6000614d3a6029836154c0565b9150614d4582615b41565b604082019050919050565b6000614d5d602e836154c0565b9150614d6882615b90565b604082019050919050565b6000614d806035836154c0565b9150614d8b82615bdf565b604082019050919050565b6000614da36020836154c0565b9150614dae82615c2e565b602082019050919050565b6000614dc66031836154c0565b9150614dd182615c57565b604082019050919050565b6000614de9602c836154c0565b9150614df482615ca6565b604082019050919050565b6000614e0c6020836154c0565b9150614e1782615cf5565b602082019050919050565b6000614e2f6029836154c0565b9150614e3a82615d1e565b604082019050919050565b6000614e52602f836154c0565b9150614e5d82615d6d565b604082019050919050565b6000614e756021836154c0565b9150614e8082615dbc565b604082019050919050565b6000614e986031836154c0565b9150614ea382615e0b565b604082019050919050565b6000614ebb602c836154c0565b9150614ec682615e5a565b604082019050919050565b614eda81615614565b82525050565b614ee981615614565b82525050565b6000614efb8285614b58565b9150614f078284614b58565b91508190509392505050565b6000602082019050614f286000830184614a5b565b92915050565b6000608082019050614f436000830187614a5b565b614f506020830186614a5b565b614f5d6040830185614ee0565b8181036060830152614f6f8184614ad7565b905095945050505050565b60006020820190508181036000830152614f948184614a6a565b905092915050565b6000602082019050614fb16000830184614ac8565b92915050565b60006020820190508181036000830152614fd18184614b1f565b905092915050565b60006020820190508181036000830152614ff281614b89565b9050919050565b6000602082019050818103600083015261501281614bac565b9050919050565b6000602082019050818103600083015261503281614bcf565b9050919050565b6000602082019050818103600083015261505281614bf2565b9050919050565b6000602082019050818103600083015261507281614c15565b9050919050565b6000602082019050818103600083015261509281614c38565b9050919050565b600060208201905081810360008301526150b281614c5b565b9050919050565b600060208201905081810360008301526150d281614c7e565b9050919050565b600060208201905081810360008301526150f281614ca1565b9050919050565b6000602082019050818103600083015261511281614cc4565b9050919050565b6000602082019050818103600083015261513281614ce7565b9050919050565b6000602082019050818103600083015261515281614d0a565b9050919050565b6000602082019050818103600083015261517281614d2d565b9050919050565b6000602082019050818103600083015261519281614d50565b9050919050565b600060208201905081810360008301526151b281614d73565b9050919050565b600060208201905081810360008301526151d281614d96565b9050919050565b600060208201905081810360008301526151f281614db9565b9050919050565b6000602082019050818103600083015261521281614ddc565b9050919050565b6000602082019050818103600083015261523281614dff565b9050919050565b6000602082019050818103600083015261525281614e22565b9050919050565b6000602082019050818103600083015261527281614e45565b9050919050565b6000602082019050818103600083015261529281614e68565b9050919050565b600060208201905081810360008301526152b281614e8b565b9050919050565b600060208201905081810360008301526152d281614eae565b9050919050565b60006020820190506152ee6000830184614ee0565b92915050565b60006101608201905061530a600083018e614ee0565b615317602083018d614ee0565b615324604083018c614ee0565b615331606083018b614b10565b8181036080830152615343818a614b1f565b905081810360a08301526153578189614b1f565b905061536660c0830188614ee0565b61537360e0830187614ee0565b615381610100830186614ee0565b61538f610120830185614ee0565b61539d610140830184614ee0565b9c9b505050505050505050505050565b60006153b76153c8565b90506153c382826156a4565b919050565b6000604051905090565b600067ffffffffffffffff8211156153ed576153ec61580b565b5b602082029050602081019050919050565b600067ffffffffffffffff8211156154195761541861580b565b5b6154228261583a565b9050602081019050919050565b600067ffffffffffffffff82111561544a5761544961580b565b5b6154538261583a565b9050602081019050919050565b6000819050602082019050919050565b600081519050919050565b600081519050919050565b600081519050919050565b6000602082019050919050565b600082825260208201905092915050565b600082825260208201905092915050565b600082825260208201905092915050565b600081905092915050565b60006154e782615614565b91506154f283615614565b9250827fffffffffffffffffffffffffffffffffffffffffffffffffffffffffffffffff038211156155275761552661574f565b5b828201905092915050565b600061553d82615614565b915061554883615614565b9250826155585761555761577e565b5b828204905092915050565b600061556e82615614565b915061557983615614565b92508282101561558c5761558b61574f565b5b828203905092915050565b60006155a2826155f4565b9050919050565b60008115159050919050565b60007fffffffff0000000000000000000000000000000000000000000000000000000082169050919050565b60008190506155ef82615ea9565b919050565b600073ffffffffffffffffffffffffffffffffffffffff82169050919050565b6000819050919050565b6000615629826155e1565b9050919050565b82818337600083830152505050565b60005b8381101561565d578082015181840152602081019050615642565b8381111561566c576000848401525b50505050565b6000600282049050600182168061568a57607f821691505b6020821081141561569e5761569d6157dc565b5b50919050565b6156ad8261583a565b810181811067ffffffffffffffff821117156156cc576156cb61580b565b5b80604052505050565b60006156e082615614565b91507fffffffffffffffffffffffffffffffffffffffffffffffffffffffffffffffff8214156157135761571261574f565b5b600182019050919050565b600061572982615614565b915061573483615614565b9250826157445761574361577e565b5b828206905092915050565b7f4e487b7100000000000000000000000000000000000000000000000000000000600052601160045260246000fd5b7f4e487b7100000000000000000000000000000000000000000000000000000000600052601260045260246000fd5b7f4e487b7100000000000000000000000000000000000000000000000000000000600052602160045260246000fd5b7f4e487b7100000000000000000000000000000000000000000000000000000000600052602260045260246000fd5b7f4e487b7100000000000000000000000000000000000000000000000000000000600052604160045260246000fd5b6000601f19601f8301169050919050565b7f5061757361626c653a206e6f7420706175736564000000000000000000000000600082015250565b7f5468657265206973206e6f20726f626f74206f66207468617420747970650000600082015250565b7f455243373231456e756d657261626c653a206f776e657220696e646578206f7560008201527f74206f6620626f756e6473000000000000000000000000000000000000000000602082015250565b7f4552433732313a207472616e7366657220746f206e6f6e20455243373231526560008201527f63656976657220696d706c656d656e7465720000000000000000000000000000602082015250565b7f4f776e61626c653a206e6577206f776e657220697320746865207a65726f206160008201527f6464726573730000000000000000000000000000000000000000000000000000602082015250565b7f4552433732313a20746f6b656e20616c7265616479206d696e74656400000000600082015250565b7f4552433732313a207472616e7366657220746f20746865207a65726f2061646460008201527f7265737300000000000000000000000000000000000000000000000000000000602082015250565b7f4552433732313a20617070726f766520746f2063616c6c657200000000000000600082015250565b7f4552433732313a206f70657261746f7220717565727920666f72206e6f6e657860008201527f697374656e7420746f6b656e0000000000000000000000000000000000000000602082015250565b7f5061757361626c653a2070617573656400000000000000000000000000000000600082015250565b7f4552433732313a20617070726f76652063616c6c6572206973206e6f74206f7760008201527f6e6572206e6f7220617070726f76656420666f7220616c6c0000000000000000602082015250565b7f4552433732313a2062616c616e636520717565727920666f7220746865207a6560008201527f726f206164647265737300000000000000000000000000000000000000000000602082015250565b7f4552433732313a206f776e657220717565727920666f72206e6f6e657869737460008201527f656e7420746f6b656e0000000000000000000000000000000000000000000000602082015250565b7f45524337323155524953746f726167653a2055524920736574206f66206e6f6e60008201527f6578697374656e7420746f6b656e000000000000000000000000000000000000602082015250565b7f5468652076616c7565207375626d69747465642077697468207468697320747260008201527f616e73616374696f6e20697320746f6f206c6f772e0000000000000000000000602082015250565b7f4552433732313a206d696e7420746f20746865207a65726f2061646472657373600082015250565b7f45524337323155524953746f726167653a2055524920717565727920666f722060008201527f6e6f6e6578697374656e7420746f6b656e000000000000000000000000000000602082015250565b7f4552433732313a20617070726f76656420717565727920666f72206e6f6e657860008201527f697374656e7420746f6b656e0000000000000000000000000000000000000000602082015250565b7f4f776e61626c653a2063616c6c6572206973206e6f7420746865206f776e6572600082015250565b7f4552433732313a207472616e73666572206f6620746f6b656e2074686174206960008201527f73206e6f74206f776e0000000000000000000000000000000000000000000000602082015250565b7f4552433732314d657461646174613a2055524920717565727920666f72206e6f60008201527f6e6578697374656e7420746f6b656e0000000000000000000000000000000000602082015250565b7f4552433732313a20617070726f76616c20746f2063757272656e74206f776e6560008201527f7200000000000000000000000000000000000000000000000000000000000000602082015250565b7f4552433732313a207472616e736665722063616c6c6572206973206e6f74206f60008201527f776e6572206e6f7220617070726f766564000000000000000000000000000000602082015250565b7f455243373231456e756d657261626c653a20676c6f62616c20696e646578206f60008201527f7574206f6620626f756e64730000000000000000000000000000000000000000602082015250565b60038110615eba57615eb96157ad565b5b50565b615ec681615597565b8114615ed157600080fd5b50565b615edd816155a9565b8114615ee857600080fd5b50565b615ef4816155b5565b8114615eff57600080fd5b50565b615f0b81615614565b8114615f1657600080fd5b5056fea264697066735822122067ce6907c2eb22544ef0d60fa19908ac25fdff02a764f96779bd1d5b316ef70b64736f6c63430008020033",
  "immutableReferences": {},
  "source": "// contracts/Robot.sol\n// SPDX-License-Identifier: MIT\n\npragma solidity ^0.8.2;\n\nimport \"@openzeppelin/contracts/token/ERC721/ERC721.sol\";\nimport \"@openzeppelin/contracts/token/ERC721/extensions/ERC721Enumerable.sol\";\nimport \"@openzeppelin/contracts/token/ERC721/extensions/ERC721URIStorage.sol\";\nimport \"@openzeppelin/contracts/token/ERC1155/IERC1155.sol\";\nimport \"@openzeppelin/contracts/utils/math/SafeMath.sol\";\nimport \"@openzeppelin/contracts/security/Pausable.sol\";\nimport \"./Whitelist.sol\";\n\ncontract Robot is ERC721, ERC721URIStorage, ERC721Enumerable, Pausable, Whitelist {\n    using SafeMath for uint256;\n\n    uint256 public ROBOT_PRICE = 5 * 10**18;\n\n    string private _baseTokenURI;\n\n    // Address where funds are collected\n    address payable private _wallet;\n\n    string[] private robotType = [\"Tank\", \"Speedy\", \"Defender\", \"Attacker\"];\n    uint256[] private strength = [20, 10, 10, 20];\n    uint256[] private agility = [10, 20, 10, 20];\n    uint256[] private ai = [10, 20, 20, 10];\n    uint256[] private defense = [20, 10, 20, 10];\n\n    mapping(uint256 => RobotAttributes) public robots;\n\n    string[] private robotURIs = [\"0.json\", \"1.json\", \"2.json\", \"3.json\"];\n\n    enum State {\n        Fighter, // 0\n        Trainer, // 1\n        Retired // 2\n    }\n\n    State constant defaultState = State.Fighter;\n\n    struct RobotAttributes {\n        uint256 robotIndex;\n        uint256 wins;\n        uint256 losses;\n        State state;\n        string robotName;\n        string robotType;\n        uint256 health;\n        uint256 strength;\n        uint256 agility;\n        uint256 ai;\n        uint256 defense;\n    }\n\n    constructor(string memory baseURI, address payable wallet) ERC721(\"Robot\", \"RBT\") {\n        setBaseURI(baseURI);\n        _wallet = wallet;\n    }\n\n    function pause() public onlyOwner {\n        _pause();\n    }\n\n    function unpause() public onlyOwner {\n        _unpause();\n    }\n\n    function setBaseURI(string memory baseURI) public onlyOwner {\n        _baseTokenURI = baseURI;\n    }\n\n    function _baseURI() internal view virtual override returns (string memory) {\n        return _baseTokenURI;\n    }\n\n    function _beforeTokenTransfer(address from, address to, uint256 tokenId)\n        internal\n        whenNotPaused\n        override(ERC721, ERC721Enumerable)\n    {\n        super._beforeTokenTransfer(from, to, tokenId);\n    }\n\n    // The following functions are overrides required by Solidity.\n    function _burn(uint256 tokenId) internal override(ERC721, ERC721URIStorage) {\n        super._burn(tokenId);\n    }\n\n    function tokenURI(uint256 tokenId)\n        public\n        view\n        override(ERC721, ERC721URIStorage)\n        returns (string memory)\n    {\n        return super.tokenURI(tokenId);\n    }\n\n   // The following function override required by Solidity.\n    function supportsInterface(bytes4 interfaceId)\n        public\n        view\n        override(ERC721, ERC721Enumerable)\n        returns (bool)\n    {\n        return super.supportsInterface(interfaceId);\n    }\n\n    function _createRobot(uint256 index, uint256 botType, string memory robotName) internal {\n        robots[index] = RobotAttributes({\n            robotIndex: index,\n            wins: 0,\n            losses: 0,\n            state: defaultState,\n            robotName: robotName,\n            robotType: robotType[botType],\n            health: 300,\n            strength: strength[botType],\n            agility: agility[botType],\n            ai: ai[botType],\n            defense: defense[botType]\n        });\n    }\n\n    // Count is how many they want to mint\n    function mint(uint256 botType, string memory robotName) public whenNotPaused payable {\n        require(botType < 4, \"There is no robot of that type\");\n        require(\n            msg.value >= ROBOT_PRICE || owner() == _msgSender(),\n            \"The value submitted with this transaction is too low.\"\n        );\n\n        uint256 totalSupply = totalSupply();\n        uint256 tokenId = totalSupply + 1;\n        _createRobot(tokenId, botType, robotName);\n        _safeMint(msg.sender, tokenId);\n        string memory robotURI = robotURIs[botType];\n        _setTokenURI(tokenId, robotURI);\n    }\n\n    function updateRobotWinRecord(uint256 robotIndex) public whenNotPaused onlyWhitelisted {\n        robots[robotIndex].wins += 1;\n    }\n\n    function updateRobotLossRecord(uint256 robotIndex) public whenNotPaused onlyWhitelisted {\n        robots[robotIndex].losses += 1;\n    }\n\n    function updateRobotName(uint256 robotIndex, string memory value) public whenNotPaused onlyWhitelisted {\n        robots[robotIndex].robotName = value;\n    }\n\n    function updateRobotHealth(uint256 robotIndex, uint256 value) public whenNotPaused onlyWhitelisted {\n        robots[robotIndex].health += value;\n    }\n\n    function updateRobotStrength(uint256 robotIndex, uint256 value) public whenNotPaused onlyWhitelisted {\n        robots[robotIndex].strength += value;\n    }\n\n    function updateRobotAgility(uint256 robotIndex, uint256 value) public whenNotPaused onlyWhitelisted {\n        robots[robotIndex].agility += value;\n    }\n\n    function updateRobotAi(uint256 robotIndex, uint256 value) public whenNotPaused onlyWhitelisted {\n        robots[robotIndex].ai += value;\n    }\n\n    function updateRobotDefense(uint256 robotIndex, uint256 value) public whenNotPaused onlyWhitelisted {\n        robots[robotIndex].defense += value;\n    }\n\n    function setRobotAsFighter(uint256 robotIndex) public whenNotPaused onlyOwner {\n        robots[robotIndex].state = State.Fighter;\n    }\n\n    function setRobotAsTrainer(uint256 robotIndex) public whenNotPaused onlyOwner {\n        robots[robotIndex].state = State.Trainer;\n    }\n\n    function setRobotAsRetired(uint256 robotIndex) public whenNotPaused onlyOwner {\n        robots[robotIndex].state = State.Retired;\n    }\n\n    function walletOfOwner(address _owner)\n        public\n        view\n        returns (uint256[] memory)\n    {\n        uint256 tokenCount = balanceOf(_owner);\n\n        if (tokenCount == 0) {\n            // Return an empty array\n            return new uint256[](0);\n        }\n\n        uint256[] memory tokensId = new uint256[](tokenCount);\n        for (uint256 i; i < tokenCount; i++) {\n            tokensId[i] = tokenOfOwnerByIndex(_owner, i);\n        }\n        return tokensId;\n    }\n\n    function withdrawAll() public payable onlyOwner {\n        require(_wallet.send(address(this).balance));\n    }\n}\n",
  "sourcePath": "/home/seandevs/workspaces/celo-hackathon/nfts/robots/contracts/Robot.sol",
  "compiler": {
    "name": "solc",
    "version": "0.8.2+commit.661d1103.Emscripten.clang"
  },
  "schemaVersion": "3.4.1",
  "updatedAt": "2021-11-27T23:38:13.768Z",
  "networkType": "ethereum",
  "devdoc": {
    "kind": "dev",
    "methods": {
      "approve(address,uint256)": {
        "details": "See {IERC721-approve}."
      },
      "balanceOf(address)": {
        "details": "See {IERC721-balanceOf}."
      },
      "getApproved(uint256)": {
        "details": "See {IERC721-getApproved}."
      },
      "isApprovedForAll(address,address)": {
        "details": "See {IERC721-isApprovedForAll}."
      },
      "name()": {
        "details": "See {IERC721Metadata-name}."
      },
      "owner()": {
        "details": "Returns the address of the current owner."
      },
      "ownerOf(uint256)": {
        "details": "See {IERC721-ownerOf}."
      },
      "paused()": {
        "details": "Returns true if the contract is paused, and false otherwise."
      },
      "renounceOwnership()": {
        "details": "Leaves the contract without owner. It will not be possible to call `onlyOwner` functions anymore. Can only be called by the current owner. NOTE: Renouncing ownership will leave the contract without an owner, thereby removing any functionality that is only available to the owner."
      },
      "safeTransferFrom(address,address,uint256)": {
        "details": "See {IERC721-safeTransferFrom}."
      },
      "safeTransferFrom(address,address,uint256,bytes)": {
        "details": "See {IERC721-safeTransferFrom}."
      },
      "setApprovalForAll(address,bool)": {
        "details": "See {IERC721-setApprovalForAll}."
      },
      "symbol()": {
        "details": "See {IERC721Metadata-symbol}."
      },
      "tokenByIndex(uint256)": {
        "details": "See {IERC721Enumerable-tokenByIndex}."
      },
      "tokenOfOwnerByIndex(address,uint256)": {
        "details": "See {IERC721Enumerable-tokenOfOwnerByIndex}."
      },
      "totalSupply()": {
        "details": "See {IERC721Enumerable-totalSupply}."
      },
      "transferFrom(address,address,uint256)": {
        "details": "See {IERC721-transferFrom}."
      },
      "transferOwnership(address)": {
        "details": "Transfers ownership of the contract to a new account (`newOwner`). Can only be called by the current owner."
      }
    },
    "version": 1
  },
  "userdoc": {
    "kind": "user",
    "methods": {},
    "version": 1
  }
}