{
  "contractName": "Whitelist",
  "abi": [
    {
      "anonymous": false,
      "inputs": [
        {
          "indexed": true,
          "internalType": "address",
          "name": "previousOwner",
          "type": "address"
        },
        {
          "indexed": true,
          "internalType": "address",
          "name": "newOwner",
          "type": "address"
        }
      ],
      "name": "OwnershipTransferred",
      "type": "event"
    },
    {
      "anonymous": false,
      "inputs": [
        {
          "indexed": false,
          "internalType": "address",
          "name": "addr",
          "type": "address"
        }
      ],
      "name": "WhitelistedAddressAdded",
      "type": "event"
    },
    {
      "anonymous": false,
      "inputs": [
        {
          "indexed": false,
          "internalType": "address",
          "name": "addr",
          "type": "address"
        }
      ],
      "name": "WhitelistedAddressRemoved",
      "type": "event"
    },
    {
      "inputs": [],
      "name": "owner",
      "outputs": [
        {
          "internalType": "address",
          "name": "",
          "type": "address"
        }
      ],
      "stateMutability": "view",
      "type": "function"
    },
    {
      "inputs": [],
      "name": "renounceOwnership",
      "outputs": [],
      "stateMutability": "nonpayable",
      "type": "function"
    },
    {
      "inputs": [
        {
          "internalType": "address",
          "name": "newOwner",
          "type": "address"
        }
      ],
      "name": "transferOwnership",
      "outputs": [],
      "stateMutability": "nonpayable",
      "type": "function"
    },
    {
      "inputs": [
        {
          "internalType": "address",
          "name": "",
          "type": "address"
        }
      ],
      "name": "whitelist",
      "outputs": [
        {
          "internalType": "bool",
          "name": "",
          "type": "bool"
        }
      ],
      "stateMutability": "view",
      "type": "function"
    },
    {
      "inputs": [
        {
          "internalType": "address",
          "name": "addr",
          "type": "address"
        }
      ],
      "name": "addAddressToWhitelist",
      "outputs": [
        {
          "internalType": "bool",
          "name": "success",
          "type": "bool"
        }
      ],
      "stateMutability": "nonpayable",
      "type": "function"
    },
    {
      "inputs": [
        {
          "internalType": "address[]",
          "name": "addrs",
          "type": "address[]"
        }
      ],
      "name": "addAddressesToWhitelist",
      "outputs": [
        {
          "internalType": "bool",
          "name": "success",
          "type": "bool"
        }
      ],
      "stateMutability": "nonpayable",
      "type": "function"
    },
    {
      "inputs": [
        {
          "internalType": "address",
          "name": "addr",
          "type": "address"
        }
      ],
      "name": "removeAddressFromWhitelist",
      "outputs": [
        {
          "internalType": "bool",
          "name": "success",
          "type": "bool"
        }
      ],
      "stateMutability": "nonpayable",
      "type": "function"
    },
    {
      "inputs": [
        {
          "internalType": "address[]",
          "name": "addrs",
          "type": "address[]"
        }
      ],
      "name": "removeAddressesFromWhitelist",
      "outputs": [
        {
          "internalType": "bool",
          "name": "success",
          "type": "bool"
        }
      ],
      "stateMutability": "nonpayable",
      "type": "function"
    }
  ],
  "bytecode": "0x608060405234801561001057600080fd5b5061002d61002261003260201b60201c565b61003a60201b60201c565b6100fe565b600033905090565b60008060009054906101000a900473ffffffffffffffffffffffffffffffffffffffff169050816000806101000a81548173ffffffffffffffffffffffffffffffffffffffff021916908373ffffffffffffffffffffffffffffffffffffffff1602179055508173ffffffffffffffffffffffffffffffffffffffff168173ffffffffffffffffffffffffffffffffffffffff167f8be0079c531659141344cd1fd0a4f28419497f9722a3daafe3b4186f6b6457e060405160405180910390a35050565b610d598061010d6000396000f3fe608060405234801561001057600080fd5b50600436106100885760003560e01c80638da5cb5b1161005b5780638da5cb5b146101275780639b19251a14610145578063e2ec6ec314610175578063f2fde38b146101a557610088565b806324953eaa1461008d578063286dd3f5146100bd578063715018a6146100ed5780637b9417c8146100f7575b600080fd5b6100a760048036038101906100a291906109e6565b6101c1565b6040516100b49190610aa6565b60405180910390f35b6100d760048036038101906100d291906109bd565b6102b7565b6040516100e49190610aa6565b60405180910390f35b6100f5610420565b005b610111600480360381019061010c91906109bd565b6104a8565b60405161011e9190610aa6565b60405180910390f35b61012f61060f565b60405161013c9190610a8b565b60405180910390f35b61015f600480360381019061015a91906109bd565b610638565b60405161016c9190610aa6565b60405180910390f35b61018f600480360381019061018a91906109e6565b610658565b60405161019c9190610aa6565b60405180910390f35b6101bf60048036038101906101ba91906109bd565b61074e565b005b60006101cb610846565b73ffffffffffffffffffffffffffffffffffffffff166101e961060f565b73ffffffffffffffffffffffffffffffffffffffff161461023f576040517f08c379a000000000000000000000000000000000000000000000000000000000815260040161023690610ae1565b60405180910390fd5b60005b82518110156102b157610294838281518110610287577f4e487b7100000000000000000000000000000000000000000000000000000000600052603260045260246000fd5b60200260200101516102b7565b1561029e57600191505b80806102a990610bdc565b915050610242565b50919050565b60006102c1610846565b73ffffffffffffffffffffffffffffffffffffffff166102df61060f565b73ffffffffffffffffffffffffffffffffffffffff1614610335576040517f08c379a000000000000000000000000000000000000000000000000000000000815260040161032c90610ae1565b60405180910390fd5b600160008373ffffffffffffffffffffffffffffffffffffffff1673ffffffffffffffffffffffffffffffffffffffff16815260200190815260200160002060009054906101000a900460ff161561041b576000600160008473ffffffffffffffffffffffffffffffffffffffff1673ffffffffffffffffffffffffffffffffffffffff16815260200190815260200160002060006101000a81548160ff0219169083151502179055507ff1abf01a1043b7c244d128e8595cf0c1d10743b022b03a02dffd8ca3bf729f5a8260405161040e9190610a8b565b60405180910390a1600190505b919050565b610428610846565b73ffffffffffffffffffffffffffffffffffffffff1661044661060f565b73ffffffffffffffffffffffffffffffffffffffff161461049c576040517f08c379a000000000000000000000000000000000000000000000000000000000815260040161049390610ae1565b60405180910390fd5b6104a6600061084e565b565b60006104b2610846565b73ffffffffffffffffffffffffffffffffffffffff166104d061060f565b73ffffffffffffffffffffffffffffffffffffffff1614610526576040517f08c379a000000000000000000000000000000000000000000000000000000000815260040161051d90610ae1565b60405180910390fd5b600160008373ffffffffffffffffffffffffffffffffffffffff1673ffffffffffffffffffffffffffffffffffffffff16815260200190815260200160002060009054906101000a900460ff1661060a5760018060008473ffffffffffffffffffffffffffffffffffffffff1673ffffffffffffffffffffffffffffffffffffffff16815260200190815260200160002060006101000a81548160ff0219169083151502179055507fd1bba68c128cc3f427e5831b3c6f99f480b6efa6b9e80c757768f6124158cc3f826040516105fd9190610a8b565b60405180910390a1600190505b919050565b60008060009054906101000a900473ffffffffffffffffffffffffffffffffffffffff16905090565b60016020528060005260406000206000915054906101000a900460ff1681565b6000610662610846565b73ffffffffffffffffffffffffffffffffffffffff1661068061060f565b73ffffffffffffffffffffffffffffffffffffffff16146106d6576040517f08c379a00000000000000000000000000000000000000000000000000000000081526004016106cd90610ae1565b60405180910390fd5b60005b82518110156107485761072b83828151811061071e577f4e487b7100000000000000000000000000000000000000000000000000000000600052603260045260246000fd5b60200260200101516104a8565b1561073557600191505b808061074090610bdc565b9150506106d9565b50919050565b610756610846565b73ffffffffffffffffffffffffffffffffffffffff1661077461060f565b73ffffffffffffffffffffffffffffffffffffffff16146107ca576040517f08c379a00000000000000000000000000000000000000000000000000000000081526004016107c190610ae1565b60405180910390fd5b600073ffffffffffffffffffffffffffffffffffffffff168173ffffffffffffffffffffffffffffffffffffffff16141561083a576040517f08c379a000000000000000000000000000000000000000000000000000000000815260040161083190610ac1565b60405180910390fd5b6108438161084e565b50565b600033905090565b60008060009054906101000a900473ffffffffffffffffffffffffffffffffffffffff169050816000806101000a81548173ffffffffffffffffffffffffffffffffffffffff021916908373ffffffffffffffffffffffffffffffffffffffff1602179055508173ffffffffffffffffffffffffffffffffffffffff168173ffffffffffffffffffffffffffffffffffffffff167f8be0079c531659141344cd1fd0a4f28419497f9722a3daafe3b4186f6b6457e060405160405180910390a35050565b600061092561092084610b26565b610b01565b9050808382526020820190508285602086028201111561094457600080fd5b60005b85811015610974578161095a888261097e565b845260208401935060208301925050600181019050610947565b5050509392505050565b60008135905061098d81610d0c565b92915050565b600082601f8301126109a457600080fd5b81356109b4848260208601610912565b91505092915050565b6000602082840312156109cf57600080fd5b60006109dd8482850161097e565b91505092915050565b6000602082840312156109f857600080fd5b600082013567ffffffffffffffff811115610a1257600080fd5b610a1e84828501610993565b91505092915050565b610a3081610b63565b82525050565b610a3f81610b75565b82525050565b6000610a52602683610b52565b9150610a5d82610c94565b604082019050919050565b6000610a75602083610b52565b9150610a8082610ce3565b602082019050919050565b6000602082019050610aa06000830184610a27565b92915050565b6000602082019050610abb6000830184610a36565b92915050565b60006020820190508181036000830152610ada81610a45565b9050919050565b60006020820190508181036000830152610afa81610a68565b9050919050565b6000610b0b610b1c565b9050610b178282610bab565b919050565b6000604051905090565b600067ffffffffffffffff821115610b4157610b40610c54565b5b602082029050602081019050919050565b600082825260208201905092915050565b6000610b6e82610b81565b9050919050565b60008115159050919050565b600073ffffffffffffffffffffffffffffffffffffffff82169050919050565b6000819050919050565b610bb482610c83565b810181811067ffffffffffffffff82111715610bd357610bd2610c54565b5b80604052505050565b6000610be782610ba1565b91507fffffffffffffffffffffffffffffffffffffffffffffffffffffffffffffffff821415610c1a57610c19610c25565b5b600182019050919050565b7f4e487b7100000000000000000000000000000000000000000000000000000000600052601160045260246000fd5b7f4e487b7100000000000000000000000000000000000000000000000000000000600052604160045260246000fd5b6000601f19601f8301169050919050565b7f4f776e61626c653a206e6577206f776e657220697320746865207a65726f206160008201527f6464726573730000000000000000000000000000000000000000000000000000602082015250565b7f4f776e61626c653a2063616c6c6572206973206e6f7420746865206f776e6572600082015250565b610d1581610b63565b8114610d2057600080fd5b5056fea264697066735822122037b5a2bd568605855ebaba7109c9654ee31abcc6dc85ac8bfc4294288b93cff764736f6c63430008020033",
  "immutableReferences": {},
  "source": "// contracts/Whitelist.sol\n// SPDX-License-Identifier: MIT\n// https://github.com/jaycenhorton/zeppelin-solidity/blob/master/contracts/ownership/Whitelist.sol\npragma solidity ^0.8.2;\n\n\nimport \"@openzeppelin/contracts/access/Ownable.sol\";\n\n\ncontract Whitelist is Ownable {\n    mapping(address => bool) public whitelist;\n\n    event WhitelistedAddressAdded(address addr);\n    event WhitelistedAddressRemoved(address addr);\n\n    modifier onlyWhitelisted() {\n        require(whitelist[msg.sender]);\n        _;\n    }\n\n    function addAddressToWhitelist(address addr) onlyOwner public returns(bool success) {\n        if (!whitelist[addr]) {\n            whitelist[addr] = true;\n            WhitelistedAddressAdded(addr);\n            success = true; \n        }\n    }\n\n    function addAddressesToWhitelist(address[] memory addrs) onlyOwner public returns(bool success) {\n        for (uint256 i = 0; i < addrs.length; i++) {\n            if (addAddressToWhitelist(addrs[i])) {\n                success = true;\n            }\n        }\n    }\n\n    function removeAddressFromWhitelist(address addr) onlyOwner public returns(bool success) {\n        if (whitelist[addr]) {\n            whitelist[addr] = false;\n            WhitelistedAddressRemoved(addr);\n            success = true;\n        }\n    }\n\n    function removeAddressesFromWhitelist(address[] memory addrs) onlyOwner public returns(bool success) {\n        for (uint256 i = 0; i < addrs.length; i++) {\n            if (removeAddressFromWhitelist(addrs[i])) {\n                success = true;\n            }\n        }\n    }\n\n}\n",
  "sourcePath": "/home/seandevs/workspaces/celo-hackathon/nfts/robots/contracts/Whitelist.sol",
  "compiler": {
    "name": "solc",
    "version": "0.8.2+commit.661d1103.Emscripten.clang"
  },
  "schemaVersion": "3.4.1",
  "updatedAt": "2021-11-04T03:42:57.236Z",
  "devdoc": {
    "kind": "dev",
    "methods": {
      "owner()": {
        "details": "Returns the address of the current owner."
      },
      "renounceOwnership()": {
        "details": "Leaves the contract without owner. It will not be possible to call `onlyOwner` functions anymore. Can only be called by the current owner. NOTE: Renouncing ownership will leave the contract without an owner, thereby removing any functionality that is only available to the owner."
      },
      "transferOwnership(address)": {
        "details": "Transfers ownership of the contract to a new account (`newOwner`). Can only be called by the current owner."
      }
    },
    "version": 1
  },
  "userdoc": {
    "kind": "user",
    "methods": {},
    "version": 1
  }
}